{
  "address": "0x5F32cC416C6554d94A1d87aaC0C2a96c4Adb7dc1",
  "abi": [
    {
      "anonymous": false,
      "inputs": [
        {
          "indexed": false,
          "internalType": "address",
          "name": "account",
          "type": "address"
        }
      ],
      "name": "Paused",
      "type": "event"
    },
    {
      "anonymous": false,
      "inputs": [
        {
          "indexed": true,
          "internalType": "bytes32",
          "name": "role",
          "type": "bytes32"
        },
        {
          "indexed": true,
          "internalType": "bytes32",
          "name": "previousAdminRole",
          "type": "bytes32"
        },
        {
          "indexed": true,
          "internalType": "bytes32",
          "name": "newAdminRole",
          "type": "bytes32"
        }
      ],
      "name": "RoleAdminChanged",
      "type": "event"
    },
    {
      "anonymous": false,
      "inputs": [
        {
          "indexed": true,
          "internalType": "bytes32",
          "name": "role",
          "type": "bytes32"
        },
        {
          "indexed": true,
          "internalType": "address",
          "name": "account",
          "type": "address"
        },
        {
          "indexed": true,
          "internalType": "address",
          "name": "sender",
          "type": "address"
        }
      ],
      "name": "RoleGranted",
      "type": "event"
    },
    {
      "anonymous": false,
      "inputs": [
        {
          "indexed": true,
          "internalType": "bytes32",
          "name": "role",
          "type": "bytes32"
        },
        {
          "indexed": true,
          "internalType": "address",
          "name": "account",
          "type": "address"
        },
        {
          "indexed": true,
          "internalType": "address",
          "name": "sender",
          "type": "address"
        }
      ],
      "name": "RoleRevoked",
      "type": "event"
    },
    {
      "anonymous": false,
      "inputs": [
        {
          "indexed": true,
          "internalType": "address",
          "name": "from",
          "type": "address"
        },
        {
          "indexed": true,
          "internalType": "address",
          "name": "to",
          "type": "address"
        },
        {
          "indexed": false,
          "internalType": "uint256",
          "name": "amount",
          "type": "uint256"
        }
      ],
      "name": "Stake",
      "type": "event"
    },
    {
      "anonymous": false,
      "inputs": [
        {
          "indexed": false,
          "internalType": "address",
          "name": "account",
          "type": "address"
        }
      ],
      "name": "Unpaused",
      "type": "event"
    },
    {
      "anonymous": false,
      "inputs": [
        {
          "indexed": true,
          "internalType": "address",
          "name": "from",
          "type": "address"
        },
        {
          "indexed": true,
          "internalType": "address",
          "name": "to",
          "type": "address"
        },
        {
          "indexed": false,
          "internalType": "uint256",
          "name": "amount",
          "type": "uint256"
        }
      ],
      "name": "Unstake",
      "type": "event"
    },
    {
      "inputs": [],
      "name": "DEFAULT_ADMIN_ROLE",
      "outputs": [
        {
          "internalType": "bytes32",
          "name": "",
          "type": "bytes32"
        }
      ],
      "stateMutability": "view",
      "type": "function"
    },
    {
      "inputs": [
        {
          "internalType": "address",
          "name": "token",
          "type": "address"
        },
        {
          "internalType": "address",
          "name": "kokoaRewardManager",
          "type": "address"
        }
      ],
      "name": "__AKlayKokoaLpStakingPool_init",
      "outputs": [],
      "stateMutability": "nonpayable",
      "type": "function"
    },
    {
      "inputs": [
        {
          "internalType": "address",
          "name": "token_",
          "type": "address"
        },
        {
          "internalType": "address",
          "name": "kokoaRewardManager_",
          "type": "address"
        }
      ],
      "name": "__TokenStakingPool_init",
      "outputs": [],
      "stateMutability": "nonpayable",
      "type": "function"
    },
    {
      "inputs": [
        {
          "internalType": "address",
          "name": "",
          "type": "address"
        }
      ],
      "name": "balanceOf",
      "outputs": [
        {
          "internalType": "uint256",
          "name": "",
          "type": "uint256"
        }
      ],
      "stateMutability": "view",
      "type": "function"
    },
    {
      "inputs": [
        {
          "internalType": "bytes32",
          "name": "what",
          "type": "bytes32"
        },
        {
          "internalType": "address",
          "name": "data",
          "type": "address"
        }
      ],
      "name": "config",
      "outputs": [],
      "stateMutability": "nonpayable",
      "type": "function"
    },
    {
      "inputs": [
        {
          "internalType": "bytes32",
          "name": "role",
          "type": "bytes32"
        }
      ],
      "name": "getRoleAdmin",
      "outputs": [
        {
          "internalType": "bytes32",
          "name": "",
          "type": "bytes32"
        }
      ],
      "stateMutability": "view",
      "type": "function"
    },
    {
      "inputs": [
        {
          "internalType": "bytes32",
          "name": "role",
          "type": "bytes32"
        },
        {
          "internalType": "address",
          "name": "account",
          "type": "address"
        }
      ],
      "name": "grantRole",
      "outputs": [],
      "stateMutability": "nonpayable",
      "type": "function"
    },
    {
      "inputs": [
        {
          "internalType": "bytes32",
          "name": "role",
          "type": "bytes32"
        },
        {
          "internalType": "address",
          "name": "account",
          "type": "address"
        }
      ],
      "name": "hasRole",
      "outputs": [
        {
          "internalType": "bool",
          "name": "",
          "type": "bool"
        }
      ],
      "stateMutability": "view",
      "type": "function"
    },
    {
      "inputs": [],
      "name": "kokoaRewardManager",
      "outputs": [
        {
          "internalType": "contract IKokoaRewardManager",
          "name": "",
          "type": "address"
        }
      ],
      "stateMutability": "view",
      "type": "function"
    },
    {
      "inputs": [],
      "name": "pause",
      "outputs": [],
      "stateMutability": "nonpayable",
      "type": "function"
    },
    {
      "inputs": [],
      "name": "paused",
      "outputs": [
        {
          "internalType": "bool",
          "name": "",
          "type": "bool"
        }
      ],
      "stateMutability": "view",
      "type": "function"
    },
    {
      "inputs": [
        {
          "internalType": "bytes32",
          "name": "role",
          "type": "bytes32"
        },
        {
          "internalType": "address",
          "name": "account",
          "type": "address"
        }
      ],
      "name": "renounceRole",
      "outputs": [],
      "stateMutability": "nonpayable",
      "type": "function"
    },
    {
      "inputs": [
        {
          "internalType": "bytes32",
          "name": "role",
          "type": "bytes32"
        },
        {
          "internalType": "address",
          "name": "account",
          "type": "address"
        }
      ],
      "name": "revokeRole",
      "outputs": [],
      "stateMutability": "nonpayable",
      "type": "function"
    },
    {
      "inputs": [
        {
          "internalType": "address",
          "name": "to",
          "type": "address"
        },
        {
          "internalType": "uint256",
          "name": "amount",
          "type": "uint256"
        }
      ],
      "name": "stake",
      "outputs": [],
      "stateMutability": "nonpayable",
      "type": "function"
    },
    {
      "inputs": [],
      "name": "token",
      "outputs": [
        {
          "internalType": "contract IKIP7",
          "name": "",
          "type": "address"
        }
      ],
      "stateMutability": "view",
      "type": "function"
    },
    {
      "inputs": [],
      "name": "totalSupply",
      "outputs": [
        {
          "internalType": "uint256",
          "name": "",
          "type": "uint256"
        }
      ],
      "stateMutability": "view",
      "type": "function"
    },
    {
      "inputs": [
        {
          "internalType": "address",
          "name": "newOwner",
          "type": "address"
        }
      ],
      "name": "transferOwnership",
      "outputs": [],
      "stateMutability": "nonpayable",
      "type": "function"
    },
    {
      "inputs": [],
      "name": "unpause",
      "outputs": [],
      "stateMutability": "nonpayable",
      "type": "function"
    },
    {
      "inputs": [
        {
          "internalType": "address",
          "name": "to",
          "type": "address"
        },
        {
          "internalType": "uint256",
          "name": "amount",
          "type": "uint256"
        }
      ],
      "name": "unstake",
      "outputs": [],
      "stateMutability": "nonpayable",
      "type": "function"
    }
  ],
  "transactionHash": "0xd57a41ce6ca9e4011c0c875112825f033c9eff0fec8818b96a80a023b8df0f20",
  "args": [],
  "solcInputHash": "de4f5741dec2c2b2fd1b551e118f3df0",
  "bytecode": "0x608060405234801561001057600080fd5b50610f6d806100206000396000f3fe608060405234801561001057600080fd5b50600436106101215760003560e01c80638456cb59116100ad578063d366f3b911610071578063d366f3b91461022b578063d547741f1461023e578063e127f94614610251578063f2fde38b1461027c578063fc0c546a1461028f57610121565b80638456cb59146101e257806391d14854146101ea578063a217fddf146101fd578063adc9772e14610205578063c2a672e01461021857610121565b806336568abe116100f457806336568abe1461017d5780633f4ba83a14610190578063557b5c36146101985780635c975abb146101ab57806370a08231146101c257610121565b806312e8ef9a1461012657806318160ddd1461013b578063248a9ca3146101575780632f2ff15d1461016a575b600080fd5b610139610134366004610dc5565b6102a7565b005b61014460045481565b6040519081526020015b60405180910390f35b610144610165366004610e40565b61036f565b610139610178366004610e58565b610388565b61013961018b366004610e58565b6103a5565b610139610423565b6101396101a6366004610dc5565b6104c1565b60025460ff165b604051901515815260200161014e565b6101446101d0366004610da4565b60056020526000908152604090205481565b610139610542565b6101b26101f8366004610e58565b6105b6565b610144600081565b610139610213366004610df7565b6105e1565b610139610226366004610df7565b61078c565b610139610239366004610e58565b610919565b61013961024c366004610e58565b6109bd565b600354610264906001600160a01b031681565b6040516001600160a01b03909116815260200161014e565b61013961028a366004610da4565b6109da565b6002546102649061010090046001600160a01b031681565b600054610100900460ff16806102bc5750303b155b806102ca575060005460ff16155b6102ef5760405162461bcd60e51b81526004016102e690610ea4565b60405180910390fd5b600054610100900460ff16158015610311576000805461ffff19166101011790555b610319610a13565b60028054610100600160a81b0319166101006001600160a01b038681169190910291909117909155600380546001600160a01b031916918416919091179055801561036a576000805461ff00191690555b505050565b600081815260016020819052604090912001545b919050565b6103918261036f565b61039b8133610abe565b61036a8383610b22565b6001600160a01b03811633146104155760405162461bcd60e51b815260206004820152602f60248201527f416363657373436f6e74726f6c3a2063616e206f6e6c792072656e6f756e636560448201526e103937b632b9903337b91039b2b63360891b60648201526084016102e6565b61041f8282610b8d565b5050565b60025460ff1661046c5760405162461bcd60e51b815260206004820152601460248201527314185d5cd8589b194e881b9bdd081c185d5cd95960621b60448201526064016102e6565b653830bab9b2b960d11b6104808133610abe565b6002805460ff191690556040513381527f5db9ee0a495bf2e6ff9c91a7834c1ba4fdd244a5e8aa4e537bd38aeae4b073aa906020015b60405180910390a150565b600054610100900460ff16806104d65750303b155b806104e4575060005460ff16155b6105005760405162461bcd60e51b81526004016102e690610ea4565b600054610100900460ff16158015610522576000805461ffff19166101011790555b61052c83836102a7565b801561036a576000805461ff0019169055505050565b60025460ff16156105655760405162461bcd60e51b81526004016102e690610e7a565b653830bab9b2b960d11b6105798133610abe565b6002805460ff191660011790556040513381527f62e78cea01bee320cd4e420270b5ea74000d11b0c9f74754ebdbfc544b05a258906020016104b6565b60009182526001602090815260408084206001600160a01b0393909316845291905290205460ff1690565b60025460ff16156106045760405162461bcd60e51b81526004016102e690610e7a565b600354604051632fa99e6b60e21b8152600481018390526001600160a01b0384811660248301529091169063bea679ac90604401600060405180830381600087803b15801561065257600080fd5b505af1158015610666573d6000803e3d6000fd5b50506002546040516323b872dd60e01b8152336004820152306024820152604481018590526101009091046001600160a01b031692506323b872dd9150606401602060405180830381600087803b1580156106c057600080fd5b505af11580156106d4573d6000803e3d6000fd5b505050506040513d601f19601f820116820180604052508101906106f89190610e20565b506001600160a01b03821660009081526005602052604090205461071d908290610ef2565b6001600160a01b038316600090815260056020526040902055600454610744908290610ef2565b6004556040518181526001600160a01b0383169033907f99039fcf0a98f484616c5196ee8b2ecfa971babf0b519848289ea4db381f85f7906020015b60405180910390a35050565b60025460ff16156107af5760405162461bcd60e51b81526004016102e690610e7a565b600354604051633cdd675760e21b8152600481018390523360248201526001600160a01b039091169063f3759d5c90604401600060405180830381600087803b1580156107fb57600080fd5b505af115801561080f573d6000803e3d6000fd5b505060025460405163a9059cbb60e01b81526001600160a01b03868116600483015260248201869052610100909204909116925063a9059cbb9150604401602060405180830381600087803b15801561086757600080fd5b505af115801561087b573d6000803e3d6000fd5b505050506040513d601f19601f8201168201806040525081019061089f9190610e20565b50336000908152600560205260409020546108bb908290610f0a565b336000908152600560205260409020556004546108d9908290610f0a565b6004556040518181526001600160a01b0383169033907f390b1276974b9463e5d66ab10df69b6f3d7b930eb066a0e66df327edd2cc811c90602001610780565b61092b6437bbb732b960d91b33610abe565b81643a37b5b2b760d91b14156109605760028054610100600160a81b0319166101006001600160a01b0384160217905561041f565b60405162461bcd60e51b815260206004820152602c60248201527f546f6b656e5374616b696e67506f6f6c3a3a636f6e6669673a20756e7265636f60448201526b676e697a65642d706172616d60a01b60648201526084016102e6565b6109c68261036f565b6109d08133610abe565b61036a8383610b8d565b6109ec6437bbb732b960d91b33610abe565b6109fe6437bbb732b960d91b82610b22565b610a106437bbb732b960d91b33610b8d565b50565b600054610100900460ff1680610a285750303b155b80610a36575060005460ff16155b610a525760405162461bcd60e51b81526004016102e690610ea4565b600054610100900460ff16158015610a74576000805461ffff19166101011790555b610a7c610bf4565b610a97653830bab9b2b960d11b6437bbb732b960d91b610c5d565b610aaa653830bab9b2b960d11b33610cb2565b8015610a10576000805461ff001916905550565b610ac882826105b6565b61041f5760405162461bcd60e51b815260206004820152602560248201527f416363657373436f6e74726f6c3a5f636865636b526f6c653a696e76616c696460448201526420726f6c6560d81b60648201526084016102e6565b610b2c82826105b6565b61041f5760008281526001602081815260408084206001600160a01b0386168086529252808420805460ff19169093179092559051339285917f2f8788117e7eff1d82e926ec794901d17c78024a50270940304540a733656f0d9190a45050565b610b9782826105b6565b1561041f5760008281526001602090815260408083206001600160a01b0385168085529252808320805460ff1916905551339285917ff6391f5c32d9c69d2a47ea670b442974b53935d1edc7fd64eb21e047a839171b9190a45050565b600054610100900460ff1680610c095750303b155b80610c17575060005460ff16155b610c335760405162461bcd60e51b81526004016102e690610ea4565b600054610100900460ff16158015610c55576000805461ffff19166101011790555b610aaa610cbc565b6000610c688361036f565b6000848152600160208190526040808320909101859055519192508391839186917fbd79b86ffe0ab8e8776151514217cd7cacd52c909f66475c3af44e129f0b00ff9190a4505050565b61041f8282610b22565b600054610100900460ff1680610cd15750303b155b80610cdf575060005460ff16155b610cfb5760405162461bcd60e51b81526004016102e690610ea4565b600054610100900460ff16158015610d1d576000805461ffff19166101011790555b610d2f6437bbb732b960d91b33610cb2565b610d496430b236b4b760d91b6437bbb732b960d91b610c5d565b610d666737b832b930ba37b960c11b6437bbb732b960d91b610c5d565b610d786430b236b4b760d91b33610cb2565b610aaa6737b832b930ba37b960c11b33610cb2565b80356001600160a01b038116811461038357600080fd5b600060208284031215610db5578081fd5b610dbe82610d8d565b9392505050565b60008060408385031215610dd7578081fd5b610de083610d8d565b9150610dee60208401610d8d565b90509250929050565b60008060408385031215610e09578182fd5b610e1283610d8d565b946020939093013593505050565b600060208284031215610e31578081fd5b81518015158114610dbe578182fd5b600060208284031215610e51578081fd5b5035919050565b60008060408385031215610e6a578182fd5b82359150610dee60208401610d8d565b60208082526010908201526f14185d5cd8589b194e881c185d5cd95960821b604082015260600190565b6020808252602e908201527f496e697469616c697a61626c653a20636f6e747261637420697320616c72656160408201526d191e481a5b9a5d1a585b1a5e995960921b606082015260800190565b60008219821115610f0557610f05610f21565b500190565b600082821015610f1c57610f1c610f21565b500390565b634e487b7160e01b600052601160045260246000fdfea2646970667358221220a2849c639b767a163a972d0bf871bdcd9e2748e6a5f9273461660d7cf951dae664736f6c63430008030033",
  "devdoc": {
    "kind": "dev",
    "methods": {},
    "version": 1
  },
  "userdoc": {
    "kind": "user",
    "methods": {
      "stake(address,uint256)": {
        "notice": "stake token"
      },
      "unstake(address,uint256)": {
        "notice": "unstake token"
      }
    },
    "version": 1
  },
  "storageLayout": {
    "storage": [
      {
        "astId": 24885,
        "contract": "contracts/reward/pool/AKlayKokoaLpStakingPool.sol:AKlayKokoaLpStakingPool",
        "label": "_initialized",
        "offset": 0,
        "slot": "0",
        "type": "t_bool"
      },
      {
        "astId": 24888,
        "contract": "contracts/reward/pool/AKlayKokoaLpStakingPool.sol:AKlayKokoaLpStakingPool",
        "label": "_initializing",
        "offset": 1,
        "slot": "0",
        "type": "t_bool"
      },
      {
        "astId": 21831,
        "contract": "contracts/reward/pool/AKlayKokoaLpStakingPool.sol:AKlayKokoaLpStakingPool",
        "label": "_roles",
        "offset": 0,
        "slot": "1",
        "type": "t_mapping(t_bytes32,t_struct(RoleData)21826_storage)"
      },
      {
        "astId": 22221,
        "contract": "contracts/reward/pool/AKlayKokoaLpStakingPool.sol:AKlayKokoaLpStakingPool",
        "label": "_paused",
        "offset": 0,
        "slot": "2",
        "type": "t_bool"
      },
      {
        "astId": 34502,
        "contract": "contracts/reward/pool/AKlayKokoaLpStakingPool.sol:AKlayKokoaLpStakingPool",
        "label": "token",
        "offset": 1,
        "slot": "2",
        "type": "t_contract(IKIP7)9935"
      },
      {
        "astId": 34505,
        "contract": "contracts/reward/pool/AKlayKokoaLpStakingPool.sol:AKlayKokoaLpStakingPool",
        "label": "kokoaRewardManager",
        "offset": 0,
        "slot": "3",
        "type": "t_contract(IKokoaRewardManager)8454"
      },
      {
        "astId": 34508,
        "contract": "contracts/reward/pool/AKlayKokoaLpStakingPool.sol:AKlayKokoaLpStakingPool",
        "label": "totalSupply",
        "offset": 0,
        "slot": "4",
        "type": "t_uint256"
      },
      {
        "astId": 34513,
        "contract": "contracts/reward/pool/AKlayKokoaLpStakingPool.sol:AKlayKokoaLpStakingPool",
        "label": "balanceOf",
        "offset": 0,
        "slot": "5",
        "type": "t_mapping(t_address,t_uint256)"
      }
    ],
    "types": {
      "t_address": {
        "encoding": "inplace",
        "label": "address",
        "numberOfBytes": "20"
      },
      "t_bool": {
        "encoding": "inplace",
        "label": "bool",
        "numberOfBytes": "1"
      },
      "t_bytes32": {
        "encoding": "inplace",
        "label": "bytes32",
        "numberOfBytes": "32"
      },
      "t_contract(IKIP7)9935": {
        "encoding": "inplace",
        "label": "contract IKIP7",
        "numberOfBytes": "20"
      },
      "t_contract(IKokoaRewardManager)8454": {
        "encoding": "inplace",
        "label": "contract IKokoaRewardManager",
        "numberOfBytes": "20"
      },
      "t_mapping(t_address,t_bool)": {
        "encoding": "mapping",
        "key": "t_address",
        "label": "mapping(address => bool)",
        "numberOfBytes": "32",
        "value": "t_bool"
      },
      "t_mapping(t_address,t_uint256)": {
        "encoding": "mapping",
        "key": "t_address",
        "label": "mapping(address => uint256)",
        "numberOfBytes": "32",
        "value": "t_uint256"
      },
      "t_mapping(t_bytes32,t_struct(RoleData)21826_storage)": {
        "encoding": "mapping",
        "key": "t_bytes32",
        "label": "mapping(bytes32 => struct AccessControl.RoleData)",
        "numberOfBytes": "32",
        "value": "t_struct(RoleData)21826_storage"
      },
      "t_struct(RoleData)21826_storage": {
        "encoding": "inplace",
        "label": "struct AccessControl.RoleData",
        "members": [
          {
            "astId": 21823,
            "contract": "contracts/reward/pool/AKlayKokoaLpStakingPool.sol:AKlayKokoaLpStakingPool",
            "label": "members",
            "offset": 0,
            "slot": "0",
            "type": "t_mapping(t_address,t_bool)"
          },
          {
            "astId": 21825,
            "contract": "contracts/reward/pool/AKlayKokoaLpStakingPool.sol:AKlayKokoaLpStakingPool",
            "label": "adminRole",
            "offset": 0,
            "slot": "1",
            "type": "t_bytes32"
          }
        ],
        "numberOfBytes": "64"
      },
      "t_uint256": {
        "encoding": "inplace",
        "label": "uint256",
        "numberOfBytes": "32"
      }
    }
  }
}