{
  "address": "0xDA0656E502B22513A87a4889Cffb51c92E2b0F16",
  "abi": [
    {
      "anonymous": false,
      "inputs": [
        {
          "indexed": false,
          "internalType": "address",
          "name": "account",
          "type": "address"
        }
      ],
      "name": "Paused",
      "type": "event"
    },
    {
      "anonymous": false,
      "inputs": [
        {
          "indexed": true,
          "internalType": "bytes32",
          "name": "role",
          "type": "bytes32"
        },
        {
          "indexed": true,
          "internalType": "bytes32",
          "name": "previousAdminRole",
          "type": "bytes32"
        },
        {
          "indexed": true,
          "internalType": "bytes32",
          "name": "newAdminRole",
          "type": "bytes32"
        }
      ],
      "name": "RoleAdminChanged",
      "type": "event"
    },
    {
      "anonymous": false,
      "inputs": [
        {
          "indexed": true,
          "internalType": "bytes32",
          "name": "role",
          "type": "bytes32"
        },
        {
          "indexed": true,
          "internalType": "address",
          "name": "account",
          "type": "address"
        },
        {
          "indexed": true,
          "internalType": "address",
          "name": "sender",
          "type": "address"
        }
      ],
      "name": "RoleGranted",
      "type": "event"
    },
    {
      "anonymous": false,
      "inputs": [
        {
          "indexed": true,
          "internalType": "bytes32",
          "name": "role",
          "type": "bytes32"
        },
        {
          "indexed": true,
          "internalType": "address",
          "name": "account",
          "type": "address"
        },
        {
          "indexed": true,
          "internalType": "address",
          "name": "sender",
          "type": "address"
        }
      ],
      "name": "RoleRevoked",
      "type": "event"
    },
    {
      "anonymous": false,
      "inputs": [
        {
          "indexed": false,
          "internalType": "address",
          "name": "account",
          "type": "address"
        }
      ],
      "name": "Unpaused",
      "type": "event"
    },
    {
      "stateMutability": "payable",
      "type": "fallback"
    },
    {
      "inputs": [],
      "name": "DEFAULT_ADMIN_ROLE",
      "outputs": [
        {
          "internalType": "bytes32",
          "name": "",
          "type": "bytes32"
        }
      ],
      "stateMutability": "view",
      "type": "function"
    },
    {
      "inputs": [],
      "name": "__Taker_init",
      "outputs": [],
      "stateMutability": "nonpayable",
      "type": "function"
    },
    {
      "inputs": [],
      "name": "auctionHouse",
      "outputs": [
        {
          "internalType": "contract IAuctionHouse",
          "name": "",
          "type": "address"
        }
      ],
      "stateMutability": "view",
      "type": "function"
    },
    {
      "inputs": [],
      "name": "bKlay",
      "outputs": [
        {
          "internalType": "contract IBKlay",
          "name": "",
          "type": "address"
        }
      ],
      "stateMutability": "view",
      "type": "function"
    },
    {
      "inputs": [],
      "name": "claimKlay",
      "outputs": [],
      "stateMutability": "nonpayable",
      "type": "function"
    },
    {
      "inputs": [
        {
          "internalType": "bytes32",
          "name": "what",
          "type": "bytes32"
        },
        {
          "internalType": "address",
          "name": "data",
          "type": "address"
        }
      ],
      "name": "config",
      "outputs": [],
      "stateMutability": "nonpayable",
      "type": "function"
    },
    {
      "inputs": [
        {
          "internalType": "bytes32",
          "name": "what",
          "type": "bytes32"
        },
        {
          "internalType": "uint256",
          "name": "data",
          "type": "uint256"
        }
      ],
      "name": "config",
      "outputs": [],
      "stateMutability": "nonpayable",
      "type": "function"
    },
    {
      "inputs": [
        {
          "internalType": "uint256",
          "name": "id",
          "type": "uint256"
        }
      ],
      "name": "debugAuction",
      "outputs": [
        {
          "internalType": "uint256",
          "name": "price",
          "type": "uint256"
        },
        {
          "internalType": "uint256",
          "name": "klayPriceMin",
          "type": "uint256"
        },
        {
          "internalType": "uint256",
          "name": "maxKsdAmount",
          "type": "uint256"
        },
        {
          "internalType": "uint256",
          "name": "klayAmount",
          "type": "uint256"
        },
        {
          "internalType": "uint256",
          "name": "ksdAmount",
          "type": "uint256"
        },
        {
          "internalType": "uint256",
          "name": "bKlayAmount",
          "type": "uint256"
        }
      ],
      "stateMutability": "view",
      "type": "function"
    },
    {
      "inputs": [
        {
          "internalType": "uint256",
          "name": "amount",
          "type": "uint256"
        }
      ],
      "name": "exitKsdGateway",
      "outputs": [],
      "stateMutability": "nonpayable",
      "type": "function"
    },
    {
      "inputs": [
        {
          "internalType": "bytes32",
          "name": "role",
          "type": "bytes32"
        }
      ],
      "name": "getRoleAdmin",
      "outputs": [
        {
          "internalType": "bytes32",
          "name": "",
          "type": "bytes32"
        }
      ],
      "stateMutability": "view",
      "type": "function"
    },
    {
      "inputs": [
        {
          "internalType": "bytes32",
          "name": "role",
          "type": "bytes32"
        },
        {
          "internalType": "address",
          "name": "account",
          "type": "address"
        }
      ],
      "name": "grantRole",
      "outputs": [],
      "stateMutability": "nonpayable",
      "type": "function"
    },
    {
      "inputs": [
        {
          "internalType": "bytes32",
          "name": "role",
          "type": "bytes32"
        },
        {
          "internalType": "address",
          "name": "account",
          "type": "address"
        }
      ],
      "name": "hasRole",
      "outputs": [
        {
          "internalType": "bool",
          "name": "",
          "type": "bool"
        }
      ],
      "stateMutability": "view",
      "type": "function"
    },
    {
      "inputs": [
        {
          "internalType": "uint256",
          "name": "id",
          "type": "uint256"
        }
      ],
      "name": "isProfitable",
      "outputs": [
        {
          "internalType": "bool",
          "name": "",
          "type": "bool"
        }
      ],
      "stateMutability": "view",
      "type": "function"
    },
    {
      "inputs": [
        {
          "internalType": "uint256",
          "name": "amount",
          "type": "uint256"
        }
      ],
      "name": "joinKsdGateway",
      "outputs": [],
      "stateMutability": "nonpayable",
      "type": "function"
    },
    {
      "inputs": [],
      "name": "klayGateway",
      "outputs": [
        {
          "internalType": "contract IKlayGateway",
          "name": "",
          "type": "address"
        }
      ],
      "stateMutability": "view",
      "type": "function"
    },
    {
      "inputs": [],
      "name": "klayKsdPool",
      "outputs": [
        {
          "internalType": "contract ExchangeLike",
          "name": "",
          "type": "address"
        }
      ],
      "stateMutability": "view",
      "type": "function"
    },
    {
      "inputs": [],
      "name": "klayswap",
      "outputs": [
        {
          "internalType": "contract FactoryLike",
          "name": "",
          "type": "address"
        }
      ],
      "stateMutability": "view",
      "type": "function"
    },
    {
      "inputs": [],
      "name": "ksd",
      "outputs": [
        {
          "internalType": "contract IKIP7",
          "name": "",
          "type": "address"
        }
      ],
      "stateMutability": "view",
      "type": "function"
    },
    {
      "inputs": [],
      "name": "ksdGateway",
      "outputs": [
        {
          "internalType": "contract IKSDGateway",
          "name": "",
          "type": "address"
        }
      ],
      "stateMutability": "view",
      "type": "function"
    },
    {
      "inputs": [],
      "name": "ledger",
      "outputs": [
        {
          "internalType": "contract ILedger",
          "name": "",
          "type": "address"
        }
      ],
      "stateMutability": "view",
      "type": "function"
    },
    {
      "inputs": [],
      "name": "minProfitRate",
      "outputs": [
        {
          "internalType": "uint256",
          "name": "",
          "type": "uint256"
        }
      ],
      "stateMutability": "view",
      "type": "function"
    },
    {
      "inputs": [
        {
          "internalType": "address",
          "name": "account",
          "type": "address"
        },
        {
          "internalType": "uint256",
          "name": "klayAmount",
          "type": "uint256"
        },
        {
          "internalType": "uint256",
          "name": "fee",
          "type": "uint256"
        },
        {
          "internalType": "bytes",
          "name": "data",
          "type": "bytes"
        }
      ],
      "name": "onFlashLoan",
      "outputs": [
        {
          "internalType": "bool",
          "name": "",
          "type": "bool"
        }
      ],
      "stateMutability": "nonpayable",
      "type": "function"
    },
    {
      "inputs": [],
      "name": "otcFund",
      "outputs": [
        {
          "internalType": "contract IOtcFund",
          "name": "",
          "type": "address"
        }
      ],
      "stateMutability": "view",
      "type": "function"
    },
    {
      "inputs": [],
      "name": "pause",
      "outputs": [],
      "stateMutability": "nonpayable",
      "type": "function"
    },
    {
      "inputs": [],
      "name": "paused",
      "outputs": [
        {
          "internalType": "bool",
          "name": "",
          "type": "bool"
        }
      ],
      "stateMutability": "view",
      "type": "function"
    },
    {
      "inputs": [],
      "name": "pendingKlay",
      "outputs": [
        {
          "internalType": "uint256",
          "name": "",
          "type": "uint256"
        },
        {
          "internalType": "uint256",
          "name": "",
          "type": "uint256"
        }
      ],
      "stateMutability": "view",
      "type": "function"
    },
    {
      "inputs": [
        {
          "internalType": "bytes32",
          "name": "role",
          "type": "bytes32"
        },
        {
          "internalType": "address",
          "name": "account",
          "type": "address"
        }
      ],
      "name": "renounceRole",
      "outputs": [],
      "stateMutability": "nonpayable",
      "type": "function"
    },
    {
      "inputs": [
        {
          "internalType": "bytes32",
          "name": "role",
          "type": "bytes32"
        },
        {
          "internalType": "address",
          "name": "account",
          "type": "address"
        }
      ],
      "name": "revokeRole",
      "outputs": [],
      "stateMutability": "nonpayable",
      "type": "function"
    },
    {
      "inputs": [
        {
          "internalType": "uint256",
          "name": "amount",
          "type": "uint256"
        }
      ],
      "name": "stakeKlayGateway",
      "outputs": [],
      "stateMutability": "nonpayable",
      "type": "function"
    },
    {
      "inputs": [
        {
          "internalType": "uint256",
          "name": "id",
          "type": "uint256"
        }
      ],
      "name": "takeAndExchange",
      "outputs": [],
      "stateMutability": "nonpayable",
      "type": "function"
    },
    {
      "inputs": [
        {
          "internalType": "address",
          "name": "newOwner",
          "type": "address"
        }
      ],
      "name": "transferOwnership",
      "outputs": [],
      "stateMutability": "nonpayable",
      "type": "function"
    },
    {
      "inputs": [],
      "name": "unpause",
      "outputs": [],
      "stateMutability": "nonpayable",
      "type": "function"
    },
    {
      "inputs": [
        {
          "internalType": "uint256",
          "name": "amount",
          "type": "uint256"
        }
      ],
      "name": "unstakeBKlay",
      "outputs": [],
      "stateMutability": "nonpayable",
      "type": "function"
    },
    {
      "inputs": [
        {
          "internalType": "uint256",
          "name": "amount",
          "type": "uint256"
        }
      ],
      "name": "unstakeKlayGateway",
      "outputs": [],
      "stateMutability": "nonpayable",
      "type": "function"
    },
    {
      "inputs": [
        {
          "internalType": "uint256",
          "name": "amount",
          "type": "uint256"
        }
      ],
      "name": "withdrawAKlayAndSwap",
      "outputs": [
        {
          "internalType": "uint256",
          "name": "klayAmount",
          "type": "uint256"
        }
      ],
      "stateMutability": "nonpayable",
      "type": "function"
    },
    {
      "inputs": [
        {
          "internalType": "address",
          "name": "to",
          "type": "address"
        },
        {
          "internalType": "uint256",
          "name": "amount",
          "type": "uint256"
        }
      ],
      "name": "withdrawKlay",
      "outputs": [],
      "stateMutability": "nonpayable",
      "type": "function"
    },
    {
      "inputs": [
        {
          "internalType": "contract IKIP7",
          "name": "token",
          "type": "address"
        },
        {
          "internalType": "address",
          "name": "to",
          "type": "address"
        },
        {
          "internalType": "uint256",
          "name": "amount",
          "type": "uint256"
        }
      ],
      "name": "withdrawToken",
      "outputs": [],
      "stateMutability": "nonpayable",
      "type": "function"
    },
    {
      "stateMutability": "payable",
      "type": "receive"
    }
  ],
  "transactionHash": "0x9442d9fad7a42f511f28fc572e548a91e58fe6a4bc129a6a4a3bed9854347769",
  "args": [],
  "solcInputHash": "5b7783c1e3437ac6d88d551e18959d3d",
  "bytecode": "0x608060405234801561001057600080fd5b50612995806100206000396000f3fe60806040526004361061021e5760003560e01c8063aa8de47811610123578063e0bed041116100ab578063f223fab41161006f578063f223fab414610671578063f2fde38b14610691578063f695a42c146106b1578063fcf6e528146106d1578063ffee9995146106f157610225565b8063e0bed041146105d2578063e90daa9b146105f2578063e910276a14610612578063ea144e6814610627578063ed9152c81461065157610225565b8063d366f3b9116100f2578063d366f3b914610505578063d42ac96514610525578063d547741f14610545578063df748cd714610565578063e0a4486b146105b257610225565b8063aa8de47814610480578063b3ad42ff146104a0578063c647849a146104c5578063cbef8369146104e557610225565b806356397c35116101a657806391d148541161017557806391d14854146103eb5780639708a9c81461040b5780639caee1131461042b578063a217fddf1461044b578063a6d5f1031461046057610225565b806356397c351461037e5780635c975abb1461039e57806376332348146103b65780638456cb59146103d657610225565b80632eff4ea9116101ed5780632eff4ea9146102d15780632f2ff15d1461030957806336568abe146103295780633f4ba83a1461034957806343c0d1e41461035e57610225565b806301e336671461022757806322eacb4714610247578063243976cc14610270578063248a9ca3146102a057610225565b3661022557005b005b34801561023357600080fd5b506102256102423660046126ec565b610706565b34801561025357600080fd5b5061025d600b5481565b6040519081526020015b60405180910390f35b34801561027c57600080fd5b5061029061028b366004612684565b61089a565b6040519015158152602001610267565b3480156102ac57600080fd5b5061025d6102bb366004612684565b6000908152600160208190526040909120015490565b3480156102dd57600080fd5b506005546102f1906001600160a01b031681565b6040516001600160a01b039091168152602001610267565b34801561031557600080fd5b5061022561032436600461269c565b6108b3565b34801561033557600080fd5b5061022561034436600461269c565b6108da565b34801561035557600080fd5b5061022561095d565b34801561036a57600080fd5b50600a546102f1906001600160a01b031681565b34801561038a57600080fd5b506006546102f1906001600160a01b031681565b3480156103aa57600080fd5b5060025460ff16610290565b3480156103c257600080fd5b506102256103d1366004612572565b6109fb565b3480156103e257600080fd5b50610225610ad7565b3480156103f757600080fd5b5061029061040636600461269c565b610b6e565b34801561041757600080fd5b50610225610426366004612684565b610b9b565b34801561043757600080fd5b5061029061044636600461259d565b610c13565b34801561045757600080fd5b5061025d600081565b34801561046c57600080fd5b506003546102f1906001600160a01b031681565b34801561048c57600080fd5b5061022561049b366004612684565b610cef565b3480156104ac57600080fd5b506002546102f19061010090046001600160a01b031681565b3480156104d157600080fd5b506102256104e0366004612684565b610d6d565b3480156104f157600080fd5b50610225610500366004612684565b610daf565b34801561051157600080fd5b5061022561052036600461269c565b610e85565b34801561053157600080fd5b506009546102f1906001600160a01b031681565b34801561055157600080fd5b5061022561056036600461269c565b6110b0565b34801561057157600080fd5b50610585610580366004612684565b6110d7565b604080519687526020870195909552938501929092526060840152608083015260a082015260c001610267565b3480156105be57600080fd5b506008546102f1906001600160a01b031681565b3480156105de57600080fd5b506102256105ed3660046126cb565b611593565b3480156105fe57600080fd5b5061022561060d366004612684565b6115c7565b34801561061e57600080fd5b5061022561160a565b34801561063357600080fd5b5061063c611688565b60408051928352602083019190915201610267565b34801561065d57600080fd5b506007546102f1906001600160a01b031681565b34801561067d57600080fd5b506004546102f1906001600160a01b031681565b34801561069d57600080fd5b506102256106ac36600461254f565b61171a565b3480156106bd57600080fd5b5061025d6106cc366004612684565b611750565b3480156106dd57600080fd5b506102256106ec366004612684565b611876565b3480156106fd57600080fd5b506102256118d5565b6107186430b236b4b760d91b33611992565b80610813576040516370a0823160e01b81523060048201526001600160a01b0384169063a9059cbb90849083906370a082319060240160206040518083038186803b15801561076657600080fd5b505afa15801561077a573d6000803e3d6000fd5b505050506040513d601f19601f8201168201806040525081019061079e919061272c565b6040518363ffffffff1660e01b81526004016107bb929190612792565b602060405180830381600087803b1580156107d557600080fd5b505af11580156107e9573d6000803e3d6000fd5b505050506040513d601f19601f8201168201806040525081019061080d919061262e565b50610895565b60405163a9059cbb60e01b81526001600160a01b0384169063a9059cbb906108419085908590600401612792565b602060405180830381600087803b15801561085b57600080fd5b505af115801561086f573d6000803e3d6000fd5b505050506040513d601f19601f82011682018060405250810190610893919061262e565b505b505050565b6000806108a6836119f6565b151593505050505b919050565b600082815260016020819052604090912001546108d08133611992565b6108958383611ede565b6001600160a01b038116331461094f5760405162461bcd60e51b815260206004820152602f60248201527f416363657373436f6e74726f6c3a2063616e206f6e6c792072656e6f756e636560448201526e103937b632b9903337b91039b2b63360891b60648201526084015b60405180910390fd5b6109598282611f49565b5050565b60025460ff166109a65760405162461bcd60e51b815260206004820152601460248201527314185d5cd8589b194e881b9bdd081c185d5cd95960621b6044820152606401610946565b653830bab9b2b960d11b6109ba8133611992565b6002805460ff191690556040513381527f5db9ee0a495bf2e6ff9c91a7834c1ba4fdd244a5e8aa4e537bd38aeae4b073aa906020015b60405180910390a150565b610a0d6430b236b4b760d91b33611992565b80610a77576040516000906001600160a01b038416903031908381818185875af1925050503d8060008114610a5e576040519150601f19603f3d011682016040523d82523d6000602084013e610a63565b606091505b5050905080610a7157600080fd5b50610959565b6000826001600160a01b03168260405160006040518083038185875af1925050503d8060008114610ac4576040519150601f19603f3d011682016040523d82523d6000602084013e610ac9565b606091505b505090508061089557600080fd5b60025460ff1615610b1d5760405162461bcd60e51b815260206004820152601060248201526f14185d5cd8589b194e881c185d5cd95960821b6044820152606401610946565b653830bab9b2b960d11b610b318133611992565b6002805460ff191660011790556040513381527f62e78cea01bee320cd4e420270b5ea74000d11b0c9f74754ebdbfc544b05a258906020016109f0565b60008281526001602090815260408083206001600160a01b038516845290915290205460ff165b92915050565b610bad6430b236b4b760d91b33611992565b60048054604051633b4da69f60e01b81526001600160a01b0390911691633b4da69f91610bde913091869101612792565b600060405180830381600087803b158015610bf857600080fd5b505af1158015610c0c573d6000803e3d6000fd5b5050505050565b6008546000906001600160a01b03163314610c2d57600080fd5b60008080610c3d85870187612767565b925092509250610c4f83898484611fb0565b60025461010090046001600160a01b031663a9059cbb8a610c708a8c6128c6565b6040518363ffffffff1660e01b8152600401610c8d929190612792565b602060405180830381600087803b158015610ca757600080fd5b505af1158015610cbb573d6000803e3d6000fd5b505050506040513d601f19601f82011682018060405250810190610cdf919061262e565b5060019998505050505050505050565b610d016430b236b4b760d91b33611992565b600560009054906101000a90046001600160a01b03166001600160a01b0316633a4b66f1826040518263ffffffff1660e01b81526004016000604051808303818588803b158015610d5157600080fd5b505af1158015610d65573d6000803e3d6000fd5b505050505050565b610d7f6430b236b4b760d91b33611992565b600554604051626405b560e41b8152600481018390526001600160a01b03909116906306405b5090602401610bde565b610dc46737b832b930ba37b960c11b33611992565b6002546040516370a0823160e01b81523060048201526101009091046001600160a01b0316906370a082319060240160206040518083038186803b158015610e0b57600080fd5b505afa158015610e1f573d6000803e3d6000fd5b505050506040513d601f19601f82011682018060405250810190610e43919061272c565b811115610e4f57600080fd5b60025460405163238be93f60e01b81526101009091046001600160a01b03169063238be93f90610bde9030908590600401612792565b610e976430b236b4b760d91b33611992565b8164624b6c617960d81b1415610ecc5760028054610100600160a81b0319166101006001600160a01b03841602179055610959565b81621adcd960ea1b1415610efa57600380546001600160a01b0319166001600160a01b038316179055610959565b81696b73644761746577617960b01b1415610f2f57600480546001600160a01b0319166001600160a01b038316179055610959565b816a6b6c61794761746577617960a81b1415610f6557600580546001600160a01b0319166001600160a01b038316179055610959565b81653632b233b2b960d11b1415610f9657600680546001600160a01b0319166001600160a01b038316179055610959565b816b61756374696f6e486f75736560a01b1415610fcd57600780546001600160a01b0319166001600160a01b038316179055610959565b81661bdd18d19d5b9960ca1b1415610fff57600880546001600160a01b0319166001600160a01b038316179055610959565b816706b6c6179737761760c41b141561103257600980546001600160a01b0319166001600160a01b038316179055610959565b816a1adb185e52dcd9141bdbdb60aa1b141561106857600a80546001600160a01b0319166001600160a01b038316179055610959565b60405162461bcd60e51b815260206004820181905260248201527f54616b65723a3a636f6e6669673a756e7265636f676e697a65642d706172616d6044820152606401610946565b600082815260016020819052604090912001546110cd8133611992565b6108958383611f49565b600080600080600080600080600080600760009054906101000a90046001600160a01b03166001600160a01b0316635c622a0e8c6040518263ffffffff1660e01b815260040161112991815260200190565b60806040518083038186803b15801561114157600080fd5b505afa158015611155573d6000803e3d6000fd5b505050506040513d601f19601f820116820180604052508101906111799190612648565b93509350935093508299506000600760009054906101000a90046001600160a01b03166001600160a01b031663be4df7d66040518163ffffffff1660e01b815260040160206040518083038186803b1580156111d457600080fd5b505afa1580156111e8573d6000803e3d6000fd5b505050506040513d601f19601f8201168201806040525081019061120c919061272c565b9050841561121e57505050505061158a565b633b9aca00600b548c61123191906128fe565b61123b91906128de565b99506000600a60009054906101000a90046001600160a01b03166001600160a01b031663ddca3f436040518163ffffffff1660e01b815260040160206040518083038186803b15801561128d57600080fd5b505afa1580156112a1573d6000803e3d6000fd5b505050506040513d601f19601f820116820180604052508101906112c5919061272c565b90506112d38161271061291d565b6112df8c6127106128fe565b6112e991906128de565b600a5460408051631a595f6560e01b81528151939e5060009384936001600160a01b031692631a595f659260048082019391829003018186803b15801561132f57600080fd5b505afa158015611343573d6000803e3d6000fd5b505050506040513d601f19601f820116820180604052508101906113679190612744565b915091506000611381676765c793fa10079d601b1b6121f8565b61138a8f6121f8565b611393846121f8565b61139c866121f8565b6113a691906128fe565b6113b091906128fe565b6113ba91906128de565b90508181106113d15750505050505050505061158a565b6113db818361291d565b9a508e6113f3676765c793fa10079d601b1b8d6128fe565b6113fd91906128de565b99506114148f8861140e91906128fe565b87612251565b9c508c61142c676765c793fa10079d601b1b8d6128fe565b1061146f57611446676765c793fa10079d601b1b8e6128de565b6114519060016128c6565b9a5061145d8f8e6128de565b6114689060016128c6565b99506114f8565b8486116114845750505050505050505061158a565b61148e858761291d565b6114a3676765c793fa10079d601b1b8d6128fe565b106114f857676765c793fa10079d601b1b6114be868861291d565b6114c891906128de565b6114d39060016128c6565b9a508e6114e0868861291d565b6114ea91906128de565b6114f59060016128c6565b99505b600a5460035460405163603acc2160e11b81526001600160a01b039283169263c07598429261152e929116908f90600401612792565b60206040518083038186803b15801561154657600080fd5b505afa15801561155a573d6000803e3d6000fd5b505050506040513d601f19601f8201168201806040525081019061157e919061272c565b9b505050505050505050505b91939550919395565b6115a56430b236b4b760d91b33611992565b816c6d696e50726f6669745261746560981b141561106857600b819055610959565b6115d96430b236b4b760d91b33611992565b6004805460405163ef693bed60e01b81526001600160a01b039091169163ef693bed91610bde913091869101612792565b600054610100900460ff168061161f5750303b155b8061162d575060005460ff16155b6116495760405162461bcd60e51b815260040161094690612878565b600054610100900460ff1615801561166b576000805461ffff19166101011790555b611673612269565b8015611685576000805461ff00191690555b50565b600254604051631b6e4c4160e31b81523060048201526000918291829182916101009091046001600160a01b03169063db72620890602401604080518083038186803b1580156116d757600080fd5b505afa1580156116eb573d6000803e3d6000fd5b505050506040513d601f19601f8201168201806040525081019061170f9190612744565b909450925050509091565b61172c6437bbb732b960d91b33611992565b61173e6437bbb732b960d91b82611ede565b6116856437bbb732b960d91b33611f49565b60006117676737b832b930ba37b960c11b33611992565b5030316001821180156117f857506002546040516370a0823160e01b81523060048201526101009091046001600160a01b0316906370a082319060240160206040518083038186803b1580156117bc57600080fd5b505afa1580156117d0573d6000803e3d6000fd5b505050506040513d601f19601f820116820180604052508101906117f4919061272c565b8211155b61180157600080fd5b600254604051630ec6646960e31b81526101009091046001600160a01b0316906376332348906118379030908690600401612792565b600060405180830381600087803b15801561185157600080fd5b505af1158015611865573d6000803e3d6000fd5b50610b95925083915050303161291d565b61188b6737b832b930ba37b960c11b33611992565b6000806000611899846119f6565b92509250925082600014156118b057505050611685565b303183116118c9576118c484848484611fb0565b610893565b61089384848484612300565b600254604051631b6e4c4160e31b815230600482015260009161010090046001600160a01b03169063db72620890602401604080518083038186803b15801561191d57600080fd5b505afa158015611931573d6000803e3d6000fd5b505050506040513d601f19601f820116820180604052508101906119559190612744565b5090508015611685576002546040516305b9352d60e21b81523060048201526101009091046001600160a01b0316906316e4d4b490602401610bde565b61199c8282610b6e565b6109595760405162461bcd60e51b815260206004820152602560248201527f416363657373436f6e74726f6c3a5f636865636b526f6c653a696e76616c696460448201526420726f6c6560d81b6064820152608401610946565b600754604051632e31150760e11b8152600481018390526000918291829182918291829182916001600160a01b031690635c622a0e9060240160806040518083038186803b158015611a4757600080fd5b505afa158015611a5b573d6000803e3d6000fd5b505050506040513d601f19601f82011682018060405250810190611a7f9190612648565b93509350935093506000600760009054906101000a90046001600160a01b03166001600160a01b031663be4df7d66040518163ffffffff1660e01b815260040160206040518083038186803b158015611ad757600080fd5b505afa158015611aeb573d6000803e3d6000fd5b505050506040513d601f19601f82011682018060405250810190611b0f919061272c565b90508415611b2c5760008060009750975097505050505050611ed7565b6000633b9aca00600b5486611b4191906128fe565b611b4b91906128de565b90506000600a60009054906101000a90046001600160a01b03166001600160a01b031663ddca3f436040518163ffffffff1660e01b815260040160206040518083038186803b158015611b9d57600080fd5b505afa158015611bb1573d6000803e3d6000fd5b505050506040513d601f19601f82011682018060405250810190611bd5919061272c565b9050611be38161271061291d565b611bef836127106128fe565b611bf991906128de565b600a5460408051631a595f6560e01b8152815193955060009384936001600160a01b031692631a595f659260048082019391829003018186803b158015611c3f57600080fd5b505afa158015611c53573d6000803e3d6000fd5b505050506040513d601f19601f82011682018060405250810190611c779190612744565b915091506000611c91676765c793fa10079d601b1b6121f8565b611c9a866121f8565b611ca3846121f8565b611cac866121f8565b611cb691906128fe565b611cc091906128fe565b611cca91906128de565b9050818110611ced5760008060009c509c509c5050505050505050505050611ed7565b611cf7818361291d565b9b5088611d0f676765c793fa10079d601b1b8e6128fe565b611d1991906128de565b9a506000611d30611d2a8b8b6128fe565b89612251565b905080611d48676765c793fa10079d601b1b8f6128fe565b10611d8b57611d62676765c793fa10079d601b1b826128de565b611d6d9060016128c6565b9c50611d798a826128de565b611d849060016128c6565b9b50611e21565b868811611dad5760008060009d509d509d505050505050505050505050611ed7565b611db7878961291d565b611dcc676765c793fa10079d601b1b8f6128fe565b10611e2157676765c793fa10079d601b1b611de7888a61291d565b611df191906128de565b611dfc9060016128c6565b9c5089611e09888a61291d565b611e1391906128de565b611e1e9060016128c6565b9b505b600a60009054906101000a90046001600160a01b03166001600160a01b031663c0759842600360009054906101000a90046001600160a01b03168f6040518363ffffffff1660e01b8152600401611e79929190612792565b60206040518083038186803b158015611e9157600080fd5b505afa158015611ea5573d6000803e3d6000fd5b505050506040513d601f19601f82011682018060405250810190611ec9919061272c565b9d5050505050505050505050505b9193909250565b611ee88282610b6e565b6109595760008281526001602081815260408084206001600160a01b0386168086529252808420805460ff19169093179092559051339285917f2f8788117e7eff1d82e926ec794901d17c78024a50270940304540a733656f0d9190a45050565b611f538282610b6e565b156109595760008281526001602090815260408083206001600160a01b0385168085529252808320805460ff1916905551339285917ff6391f5c32d9c69d2a47ea670b442974b53935d1edc7fd64eb21e047a839171b9190a45050565b600954600354604080516000815260208101918290526353e03f4960e11b9091526001600160a01b039283169263a7c07e92928792611ff892909116908790602481016127ab565b6000604051808303818588803b15801561201157600080fd5b505af1158015612025573d6000803e3d6000fd5b505060048054604051633b4da69f60e01b81526001600160a01b039091169450633b4da69f935061205b92503091879101612792565b600060405180830381600087803b15801561207557600080fd5b505af1158015612089573d6000803e3d6000fd5b50506007546040516381a794cb60e01b81526004810188905260248101859052600019604482015230606482015260a06084820152600060a48201526001600160a01b0390911692506381a794cb915060c401600060405180830381600087803b1580156120f657600080fd5b505af115801561210a573d6000803e3d6000fd5b5050600554600654604051634907582f60e01b8152636b6c617960e01b60048201523060248201526001600160a01b0392831694506306405b509350911690634907582f9060440160206040518083038186803b15801561216a57600080fd5b505afa15801561217e573d6000803e3d6000fd5b505050506040513d601f19601f820116820180604052508101906121a2919061272c565b6040518263ffffffff1660e01b81526004016121c091815260200190565b600060405180830381600087803b1580156121da57600080fd5b505af11580156121ee573d6000803e3d6000fd5b5050505050505050565b60008060026122088460016128c6565b61221291906128de565b90508291505b8181101561224b5790508060028161223081866128de565b61223a91906128c6565b61224491906128de565b9050612218565b50919050565b600081831015612262575081610b95565b5080610b95565b600054610100900460ff168061227e5750303b155b8061228c575060005460ff16155b6122a85760405162461bcd60e51b815260040161094690612878565b600054610100900460ff161580156122ca576000805461ffff19166101011790555b6122d26123ae565b6122ed653830bab9b2b960d11b6437bbb732b960d91b612417565b611673653830bab9b2b960d11b33612464565b6040805160208101869052808201849052606080820184905282518083039091018152608082019283905260085463701195a160e11b909352916001600160a01b03169063e0232b429061235c9030908890869060840161280e565b602060405180830381600087803b15801561237657600080fd5b505af115801561238a573d6000803e3d6000fd5b505050506040513d601f19601f82011682018060405250810190610d65919061262e565b600054610100900460ff16806123c35750303b155b806123d1575060005460ff16155b6123ed5760405162461bcd60e51b815260040161094690612878565b600054610100900460ff1615801561240f576000805461ffff19166101011790555b61167361246e565b6000828152600160208190526040808320909101805490849055905190918391839186917fbd79b86ffe0ab8e8776151514217cd7cacd52c909f66475c3af44e129f0b00ff9190a4505050565b6109598282611ede565b600054610100900460ff16806124835750303b155b80612491575060005460ff16155b6124ad5760405162461bcd60e51b815260040161094690612878565b600054610100900460ff161580156124cf576000805461ffff19166101011790555b6124e16437bbb732b960d91b33612464565b6124fb6430b236b4b760d91b6437bbb732b960d91b612417565b6125186737b832b930ba37b960c11b6437bbb732b960d91b612417565b61252a6430b236b4b760d91b33612464565b6116736737b832b930ba37b960c11b33612464565b805180151581146108ae57600080fd5b600060208284031215612560578081fd5b813561256b8161294a565b9392505050565b60008060408385031215612584578081fd5b823561258f8161294a565b946020939093013593505050565b6000806000806000608086880312156125b4578081fd5b85356125bf8161294a565b94506020860135935060408601359250606086013567ffffffffffffffff808211156125e9578283fd5b818801915088601f8301126125fc578283fd5b81358181111561260a578384fd5b89602082850101111561261b578384fd5b9699959850939650602001949392505050565b60006020828403121561263f578081fd5b61256b8261253f565b6000806000806080858703121561265d578384fd5b6126668561253f565b60208601516040870151606090970151919890975090945092505050565b600060208284031215612695578081fd5b5035919050565b600080604083850312156126ae578182fd5b8235915060208301356126c08161294a565b809150509250929050565b600080604083850312156126dd578182fd5b50508035926020909101359150565b600080600060608486031215612700578283fd5b833561270b8161294a565b9250602084013561271b8161294a565b929592945050506040919091013590565b60006020828403121561273d578081fd5b5051919050565b60008060408385031215612756578182fd5b505080516020909101519092909150565b60008060006060848603121561277b578283fd5b505081359360208301359350604090920135919050565b6001600160a01b03929092168252602082015260400190565b6001600160a01b038481168252602080830185905260606040840181905284519084018190526000928583019290916080860190855b818110156127ff5785518516835294830194918301916001016127e1565b50909998505050505050505050565b600060018060a01b038516825260208481840152606060408401528351806060850152825b8181101561284f57858101830151858201608001528201612833565b818111156128605783608083870101525b50601f01601f19169290920160800195945050505050565b6020808252602e908201527f496e697469616c697a61626c653a20636f6e747261637420697320616c72656160408201526d191e481a5b9a5d1a585b1a5e995960921b606082015260800190565b600082198211156128d9576128d9612934565b500190565b6000826128f957634e487b7160e01b81526012600452602481fd5b500490565b600081600019048311821515161561291857612918612934565b500290565b60008282101561292f5761292f612934565b500390565b634e487b7160e01b600052601160045260246000fd5b6001600160a01b038116811461168557600080fdfea264697066735822122024760f1d629c8d0f221b82b4538183a54bdc96c06f96614a164f0108c4be5a3264736f6c63430008030033",
  "devdoc": {
    "kind": "dev",
    "methods": {},
    "version": 1
  },
  "userdoc": {
    "kind": "user",
    "methods": {
      "onFlashLoan(address,uint256,uint256,bytes)": {
        "notice": "action flash loan"
      }
    },
    "version": 1
  },
  "storageLayout": {
    "storage": [
      {
        "astId": 16342,
        "contract": "contracts/keep/AuctionTaker.sol:AuctionTaker",
        "label": "_initialized",
        "offset": 0,
        "slot": "0",
        "type": "t_bool"
      },
      {
        "astId": 16345,
        "contract": "contracts/keep/AuctionTaker.sol:AuctionTaker",
        "label": "_initializing",
        "offset": 1,
        "slot": "0",
        "type": "t_bool"
      },
      {
        "astId": 13334,
        "contract": "contracts/keep/AuctionTaker.sol:AuctionTaker",
        "label": "_roles",
        "offset": 0,
        "slot": "1",
        "type": "t_mapping(t_bytes32,t_struct(RoleData)13329_storage)"
      },
      {
        "astId": 13724,
        "contract": "contracts/keep/AuctionTaker.sol:AuctionTaker",
        "label": "_paused",
        "offset": 0,
        "slot": "2",
        "type": "t_bool"
      },
      {
        "astId": 6849,
        "contract": "contracts/keep/AuctionTaker.sol:AuctionTaker",
        "label": "bKlay",
        "offset": 1,
        "slot": "2",
        "type": "t_contract(IBKlay)8195"
      },
      {
        "astId": 6852,
        "contract": "contracts/keep/AuctionTaker.sol:AuctionTaker",
        "label": "ksd",
        "offset": 0,
        "slot": "3",
        "type": "t_contract(IKIP7)5951"
      },
      {
        "astId": 6855,
        "contract": "contracts/keep/AuctionTaker.sol:AuctionTaker",
        "label": "ksdGateway",
        "offset": 0,
        "slot": "4",
        "type": "t_contract(IKSDGateway)8146"
      },
      {
        "astId": 6858,
        "contract": "contracts/keep/AuctionTaker.sol:AuctionTaker",
        "label": "klayGateway",
        "offset": 0,
        "slot": "5",
        "type": "t_contract(IKlayGateway)8157"
      },
      {
        "astId": 6861,
        "contract": "contracts/keep/AuctionTaker.sol:AuctionTaker",
        "label": "ledger",
        "offset": 0,
        "slot": "6",
        "type": "t_contract(ILedger)4981"
      },
      {
        "astId": 6864,
        "contract": "contracts/keep/AuctionTaker.sol:AuctionTaker",
        "label": "auctionHouse",
        "offset": 0,
        "slot": "7",
        "type": "t_contract(IAuctionHouse)3697"
      },
      {
        "astId": 6867,
        "contract": "contracts/keep/AuctionTaker.sol:AuctionTaker",
        "label": "otcFund",
        "offset": 0,
        "slot": "8",
        "type": "t_contract(IOtcFund)5159"
      },
      {
        "astId": 6870,
        "contract": "contracts/keep/AuctionTaker.sol:AuctionTaker",
        "label": "klayswap",
        "offset": 0,
        "slot": "9",
        "type": "t_contract(FactoryLike)8129"
      },
      {
        "astId": 6873,
        "contract": "contracts/keep/AuctionTaker.sol:AuctionTaker",
        "label": "klayKsdPool",
        "offset": 0,
        "slot": "10",
        "type": "t_contract(ExchangeLike)8080"
      },
      {
        "astId": 6875,
        "contract": "contracts/keep/AuctionTaker.sol:AuctionTaker",
        "label": "minProfitRate",
        "offset": 0,
        "slot": "11",
        "type": "t_uint256"
      }
    ],
    "types": {
      "t_address": {
        "encoding": "inplace",
        "label": "address",
        "numberOfBytes": "20"
      },
      "t_bool": {
        "encoding": "inplace",
        "label": "bool",
        "numberOfBytes": "1"
      },
      "t_bytes32": {
        "encoding": "inplace",
        "label": "bytes32",
        "numberOfBytes": "32"
      },
      "t_contract(ExchangeLike)8080": {
        "encoding": "inplace",
        "label": "contract ExchangeLike",
        "numberOfBytes": "20"
      },
      "t_contract(FactoryLike)8129": {
        "encoding": "inplace",
        "label": "contract FactoryLike",
        "numberOfBytes": "20"
      },
      "t_contract(IAuctionHouse)3697": {
        "encoding": "inplace",
        "label": "contract IAuctionHouse",
        "numberOfBytes": "20"
      },
      "t_contract(IBKlay)8195": {
        "encoding": "inplace",
        "label": "contract IBKlay",
        "numberOfBytes": "20"
      },
      "t_contract(IKIP7)5951": {
        "encoding": "inplace",
        "label": "contract IKIP7",
        "numberOfBytes": "20"
      },
      "t_contract(IKSDGateway)8146": {
        "encoding": "inplace",
        "label": "contract IKSDGateway",
        "numberOfBytes": "20"
      },
      "t_contract(IKlayGateway)8157": {
        "encoding": "inplace",
        "label": "contract IKlayGateway",
        "numberOfBytes": "20"
      },
      "t_contract(ILedger)4981": {
        "encoding": "inplace",
        "label": "contract ILedger",
        "numberOfBytes": "20"
      },
      "t_contract(IOtcFund)5159": {
        "encoding": "inplace",
        "label": "contract IOtcFund",
        "numberOfBytes": "20"
      },
      "t_mapping(t_address,t_bool)": {
        "encoding": "mapping",
        "key": "t_address",
        "label": "mapping(address => bool)",
        "numberOfBytes": "32",
        "value": "t_bool"
      },
      "t_mapping(t_bytes32,t_struct(RoleData)13329_storage)": {
        "encoding": "mapping",
        "key": "t_bytes32",
        "label": "mapping(bytes32 => struct AccessControl.RoleData)",
        "numberOfBytes": "32",
        "value": "t_struct(RoleData)13329_storage"
      },
      "t_struct(RoleData)13329_storage": {
        "encoding": "inplace",
        "label": "struct AccessControl.RoleData",
        "members": [
          {
            "astId": 13326,
            "contract": "contracts/keep/AuctionTaker.sol:AuctionTaker",
            "label": "members",
            "offset": 0,
            "slot": "0",
            "type": "t_mapping(t_address,t_bool)"
          },
          {
            "astId": 13328,
            "contract": "contracts/keep/AuctionTaker.sol:AuctionTaker",
            "label": "adminRole",
            "offset": 0,
            "slot": "1",
            "type": "t_bytes32"
          }
        ],
        "numberOfBytes": "64"
      },
      "t_uint256": {
        "encoding": "inplace",
        "label": "uint256",
        "numberOfBytes": "32"
      }
    }
  }
}