{
  "address": "0x2e25a0Ed758b3CFC23d57F5A501BD64B16aa6Ef1",
  "abi": [
    {
      "anonymous": false,
      "inputs": [
        {
          "indexed": true,
          "internalType": "address",
          "name": "owner",
          "type": "address"
        },
        {
          "indexed": true,
          "internalType": "address",
          "name": "spender",
          "type": "address"
        },
        {
          "indexed": false,
          "internalType": "uint256",
          "name": "value",
          "type": "uint256"
        }
      ],
      "name": "Approval",
      "type": "event"
    },
    {
      "anonymous": false,
      "inputs": [
        {
          "indexed": false,
          "internalType": "address",
          "name": "account",
          "type": "address"
        }
      ],
      "name": "Paused",
      "type": "event"
    },
    {
      "anonymous": false,
      "inputs": [
        {
          "indexed": true,
          "internalType": "bytes32",
          "name": "role",
          "type": "bytes32"
        },
        {
          "indexed": true,
          "internalType": "bytes32",
          "name": "previousAdminRole",
          "type": "bytes32"
        },
        {
          "indexed": true,
          "internalType": "bytes32",
          "name": "newAdminRole",
          "type": "bytes32"
        }
      ],
      "name": "RoleAdminChanged",
      "type": "event"
    },
    {
      "anonymous": false,
      "inputs": [
        {
          "indexed": true,
          "internalType": "bytes32",
          "name": "role",
          "type": "bytes32"
        },
        {
          "indexed": true,
          "internalType": "address",
          "name": "account",
          "type": "address"
        },
        {
          "indexed": true,
          "internalType": "address",
          "name": "sender",
          "type": "address"
        }
      ],
      "name": "RoleGranted",
      "type": "event"
    },
    {
      "anonymous": false,
      "inputs": [
        {
          "indexed": true,
          "internalType": "bytes32",
          "name": "role",
          "type": "bytes32"
        },
        {
          "indexed": true,
          "internalType": "address",
          "name": "account",
          "type": "address"
        },
        {
          "indexed": true,
          "internalType": "address",
          "name": "sender",
          "type": "address"
        }
      ],
      "name": "RoleRevoked",
      "type": "event"
    },
    {
      "anonymous": false,
      "inputs": [
        {
          "indexed": false,
          "internalType": "address",
          "name": "from",
          "type": "address"
        },
        {
          "indexed": false,
          "internalType": "address",
          "name": "to",
          "type": "address"
        },
        {
          "indexed": false,
          "internalType": "uint256",
          "name": "tokenAmount",
          "type": "uint256"
        },
        {
          "indexed": false,
          "internalType": "uint256",
          "name": "bondAmount",
          "type": "uint256"
        }
      ],
      "name": "Stake",
      "type": "event"
    },
    {
      "anonymous": false,
      "inputs": [
        {
          "indexed": true,
          "internalType": "address",
          "name": "from",
          "type": "address"
        },
        {
          "indexed": true,
          "internalType": "address",
          "name": "to",
          "type": "address"
        },
        {
          "indexed": false,
          "internalType": "uint256",
          "name": "value",
          "type": "uint256"
        }
      ],
      "name": "Transfer",
      "type": "event"
    },
    {
      "anonymous": false,
      "inputs": [
        {
          "indexed": false,
          "internalType": "address",
          "name": "account",
          "type": "address"
        }
      ],
      "name": "Unpaused",
      "type": "event"
    },
    {
      "anonymous": false,
      "inputs": [
        {
          "indexed": false,
          "internalType": "address",
          "name": "from",
          "type": "address"
        },
        {
          "indexed": false,
          "internalType": "address",
          "name": "to",
          "type": "address"
        },
        {
          "indexed": false,
          "internalType": "uint256",
          "name": "tokenAmount",
          "type": "uint256"
        },
        {
          "indexed": false,
          "internalType": "uint256",
          "name": "bondAmount",
          "type": "uint256"
        }
      ],
      "name": "Unstake",
      "type": "event"
    },
    {
      "inputs": [],
      "name": "DEFAULT_ADMIN_ROLE",
      "outputs": [
        {
          "internalType": "bytes32",
          "name": "",
          "type": "bytes32"
        }
      ],
      "stateMutability": "view",
      "type": "function"
    },
    {
      "inputs": [],
      "name": "__BKORC_init",
      "outputs": [],
      "stateMutability": "nonpayable",
      "type": "function"
    },
    {
      "inputs": [
        {
          "internalType": "string",
          "name": "name_",
          "type": "string"
        },
        {
          "internalType": "string",
          "name": "symbol_",
          "type": "string"
        },
        {
          "internalType": "uint8",
          "name": "decimals_",
          "type": "uint8"
        }
      ],
      "name": "__BaseBond_init",
      "outputs": [],
      "stateMutability": "nonpayable",
      "type": "function"
    },
    {
      "inputs": [
        {
          "internalType": "address",
          "name": "owner",
          "type": "address"
        },
        {
          "internalType": "address",
          "name": "spender",
          "type": "address"
        }
      ],
      "name": "allowance",
      "outputs": [
        {
          "internalType": "uint256",
          "name": "",
          "type": "uint256"
        }
      ],
      "stateMutability": "view",
      "type": "function"
    },
    {
      "inputs": [
        {
          "internalType": "address",
          "name": "spender",
          "type": "address"
        },
        {
          "internalType": "uint256",
          "name": "value",
          "type": "uint256"
        }
      ],
      "name": "approve",
      "outputs": [
        {
          "internalType": "bool",
          "name": "",
          "type": "bool"
        }
      ],
      "stateMutability": "nonpayable",
      "type": "function"
    },
    {
      "inputs": [
        {
          "internalType": "address",
          "name": "account",
          "type": "address"
        }
      ],
      "name": "balanceOf",
      "outputs": [
        {
          "internalType": "uint256",
          "name": "",
          "type": "uint256"
        }
      ],
      "stateMutability": "view",
      "type": "function"
    },
    {
      "inputs": [
        {
          "internalType": "address",
          "name": "account",
          "type": "address"
        },
        {
          "internalType": "uint256",
          "name": "value",
          "type": "uint256"
        }
      ],
      "name": "burn",
      "outputs": [
        {
          "internalType": "bool",
          "name": "",
          "type": "bool"
        }
      ],
      "stateMutability": "nonpayable",
      "type": "function"
    },
    {
      "inputs": [
        {
          "internalType": "bytes32",
          "name": "what",
          "type": "bytes32"
        },
        {
          "internalType": "address",
          "name": "data",
          "type": "address"
        }
      ],
      "name": "config",
      "outputs": [],
      "stateMutability": "nonpayable",
      "type": "function"
    },
    {
      "inputs": [],
      "name": "decimals",
      "outputs": [
        {
          "internalType": "uint8",
          "name": "",
          "type": "uint8"
        }
      ],
      "stateMutability": "view",
      "type": "function"
    },
    {
      "inputs": [
        {
          "internalType": "uint256",
          "name": "tokenAmount",
          "type": "uint256"
        }
      ],
      "name": "fromTokenAmount",
      "outputs": [
        {
          "internalType": "uint256",
          "name": "bondAmount",
          "type": "uint256"
        }
      ],
      "stateMutability": "view",
      "type": "function"
    },
    {
      "inputs": [
        {
          "internalType": "bytes32",
          "name": "role",
          "type": "bytes32"
        }
      ],
      "name": "getRoleAdmin",
      "outputs": [
        {
          "internalType": "bytes32",
          "name": "",
          "type": "bytes32"
        }
      ],
      "stateMutability": "view",
      "type": "function"
    },
    {
      "inputs": [
        {
          "internalType": "bytes32",
          "name": "role",
          "type": "bytes32"
        },
        {
          "internalType": "address",
          "name": "account",
          "type": "address"
        }
      ],
      "name": "grantRole",
      "outputs": [],
      "stateMutability": "nonpayable",
      "type": "function"
    },
    {
      "inputs": [
        {
          "internalType": "bytes32",
          "name": "role",
          "type": "bytes32"
        },
        {
          "internalType": "address",
          "name": "account",
          "type": "address"
        }
      ],
      "name": "hasRole",
      "outputs": [
        {
          "internalType": "bool",
          "name": "",
          "type": "bool"
        }
      ],
      "stateMutability": "view",
      "type": "function"
    },
    {
      "inputs": [
        {
          "internalType": "address",
          "name": "account",
          "type": "address"
        },
        {
          "internalType": "uint256",
          "name": "amount",
          "type": "uint256"
        }
      ],
      "name": "mint",
      "outputs": [
        {
          "internalType": "bool",
          "name": "",
          "type": "bool"
        }
      ],
      "stateMutability": "nonpayable",
      "type": "function"
    },
    {
      "inputs": [],
      "name": "name",
      "outputs": [
        {
          "internalType": "string",
          "name": "",
          "type": "string"
        }
      ],
      "stateMutability": "view",
      "type": "function"
    },
    {
      "inputs": [],
      "name": "pause",
      "outputs": [],
      "stateMutability": "nonpayable",
      "type": "function"
    },
    {
      "inputs": [],
      "name": "paused",
      "outputs": [
        {
          "internalType": "bool",
          "name": "",
          "type": "bool"
        }
      ],
      "stateMutability": "view",
      "type": "function"
    },
    {
      "inputs": [
        {
          "internalType": "bytes32",
          "name": "role",
          "type": "bytes32"
        },
        {
          "internalType": "address",
          "name": "account",
          "type": "address"
        }
      ],
      "name": "renounceRole",
      "outputs": [],
      "stateMutability": "nonpayable",
      "type": "function"
    },
    {
      "inputs": [
        {
          "internalType": "bytes32",
          "name": "role",
          "type": "bytes32"
        },
        {
          "internalType": "address",
          "name": "account",
          "type": "address"
        }
      ],
      "name": "revokeRole",
      "outputs": [],
      "stateMutability": "nonpayable",
      "type": "function"
    },
    {
      "inputs": [
        {
          "internalType": "address",
          "name": "recipient",
          "type": "address"
        },
        {
          "internalType": "uint256",
          "name": "amount",
          "type": "uint256"
        }
      ],
      "name": "safeTransfer",
      "outputs": [],
      "stateMutability": "nonpayable",
      "type": "function"
    },
    {
      "inputs": [
        {
          "internalType": "address",
          "name": "recipient",
          "type": "address"
        },
        {
          "internalType": "uint256",
          "name": "amount",
          "type": "uint256"
        },
        {
          "internalType": "bytes",
          "name": "data",
          "type": "bytes"
        }
      ],
      "name": "safeTransfer",
      "outputs": [],
      "stateMutability": "nonpayable",
      "type": "function"
    },
    {
      "inputs": [
        {
          "internalType": "address",
          "name": "sender",
          "type": "address"
        },
        {
          "internalType": "address",
          "name": "recipient",
          "type": "address"
        },
        {
          "internalType": "uint256",
          "name": "amount",
          "type": "uint256"
        }
      ],
      "name": "safeTransferFrom",
      "outputs": [],
      "stateMutability": "nonpayable",
      "type": "function"
    },
    {
      "inputs": [
        {
          "internalType": "address",
          "name": "sender",
          "type": "address"
        },
        {
          "internalType": "address",
          "name": "recipient",
          "type": "address"
        },
        {
          "internalType": "uint256",
          "name": "amount",
          "type": "uint256"
        },
        {
          "internalType": "bytes",
          "name": "data",
          "type": "bytes"
        }
      ],
      "name": "safeTransferFrom",
      "outputs": [],
      "stateMutability": "nonpayable",
      "type": "function"
    },
    {
      "inputs": [
        {
          "internalType": "address",
          "name": "to",
          "type": "address"
        },
        {
          "internalType": "uint256",
          "name": "tokenAmount",
          "type": "uint256"
        }
      ],
      "name": "stake",
      "outputs": [
        {
          "internalType": "uint256",
          "name": "bondAmount",
          "type": "uint256"
        }
      ],
      "stateMutability": "nonpayable",
      "type": "function"
    },
    {
      "inputs": [
        {
          "internalType": "bytes4",
          "name": "interfaceId",
          "type": "bytes4"
        }
      ],
      "name": "supportsInterface",
      "outputs": [
        {
          "internalType": "bool",
          "name": "",
          "type": "bool"
        }
      ],
      "stateMutability": "view",
      "type": "function"
    },
    {
      "inputs": [],
      "name": "symbol",
      "outputs": [
        {
          "internalType": "string",
          "name": "",
          "type": "string"
        }
      ],
      "stateMutability": "view",
      "type": "function"
    },
    {
      "inputs": [
        {
          "internalType": "uint256",
          "name": "bondAmount",
          "type": "uint256"
        }
      ],
      "name": "toTokenAmount",
      "outputs": [
        {
          "internalType": "uint256",
          "name": "tokenAmount",
          "type": "uint256"
        }
      ],
      "stateMutability": "view",
      "type": "function"
    },
    {
      "inputs": [],
      "name": "token",
      "outputs": [
        {
          "internalType": "contract IKIP7",
          "name": "",
          "type": "address"
        }
      ],
      "stateMutability": "view",
      "type": "function"
    },
    {
      "inputs": [],
      "name": "totalSupply",
      "outputs": [
        {
          "internalType": "uint256",
          "name": "",
          "type": "uint256"
        }
      ],
      "stateMutability": "view",
      "type": "function"
    },
    {
      "inputs": [
        {
          "internalType": "address",
          "name": "recipient",
          "type": "address"
        },
        {
          "internalType": "uint256",
          "name": "amount",
          "type": "uint256"
        }
      ],
      "name": "transfer",
      "outputs": [
        {
          "internalType": "bool",
          "name": "",
          "type": "bool"
        }
      ],
      "stateMutability": "nonpayable",
      "type": "function"
    },
    {
      "inputs": [
        {
          "internalType": "address",
          "name": "sender",
          "type": "address"
        },
        {
          "internalType": "address",
          "name": "recipient",
          "type": "address"
        },
        {
          "internalType": "uint256",
          "name": "amount",
          "type": "uint256"
        }
      ],
      "name": "transferFrom",
      "outputs": [
        {
          "internalType": "bool",
          "name": "",
          "type": "bool"
        }
      ],
      "stateMutability": "nonpayable",
      "type": "function"
    },
    {
      "inputs": [
        {
          "internalType": "address",
          "name": "newOwner",
          "type": "address"
        }
      ],
      "name": "transferOwnership",
      "outputs": [],
      "stateMutability": "nonpayable",
      "type": "function"
    },
    {
      "inputs": [],
      "name": "unpause",
      "outputs": [],
      "stateMutability": "nonpayable",
      "type": "function"
    },
    {
      "inputs": [
        {
          "internalType": "address",
          "name": "to",
          "type": "address"
        },
        {
          "internalType": "uint256",
          "name": "bondAmount",
          "type": "uint256"
        }
      ],
      "name": "unstake",
      "outputs": [
        {
          "internalType": "uint256",
          "name": "tokenAmount",
          "type": "uint256"
        }
      ],
      "stateMutability": "nonpayable",
      "type": "function"
    },
    {
      "inputs": [],
      "name": "yieldFactory",
      "outputs": [
        {
          "internalType": "contract IYieldFactory",
          "name": "",
          "type": "address"
        }
      ],
      "stateMutability": "view",
      "type": "function"
    }
  ],
  "transactionHash": "0x295ef6b6ed82905f842b7814a7d25fb9b0fc26968a3a30087f9de0aaad45af6f",
  "args": [],
  "solcInputHash": "de4f5741dec2c2b2fd1b551e118f3df0",
  "bytecode": "0x608060405234801561001057600080fd5b50612475806100206000396000f3fe608060405234801561001057600080fd5b50600436106102105760003560e01c806370a0823111610125578063adc9772e116100ad578063d547741f1161007c578063d547741f14610471578063dd62ed3e14610484578063eb795549146104bd578063f2fde38b146104d0578063fc0c546a146104e357610210565b8063adc9772e14610425578063b88d4fde14610438578063c2a672e01461044b578063d366f3b91461045e57610210565b806391d14854116100f457806391d14854146103dc57806395d89b41146103ef5780639dc29fac146103f7578063a217fddf1461040a578063a9059cbb1461041257610210565b806370a08231146103855780637214956f146103ae5780637f1c942d146103c15780638456cb59146103d457610210565b8063248a9ca3116101a85780633f4ba83a116101775780633f4ba83a1461033957806340c10f1914610341578063423f6cef1461035457806342842e0e146103675780635c975abb1461037a57610210565b8063248a9ca3146102db5780632f2ff15d146102fe578063313ce5671461031157806336568abe1461032657610210565b806316fd84f7116101e457806316fd84f71461026f578063174e4ea61461029f57806318160ddd146102c057806323b872dd146102c857610210565b80624439e71461021557806301ffc9a71461021f57806306fdde0314610247578063095ea7b31461025c575b600080fd5b61021d6104f6565b005b61023261022d36600461217d565b6105c1565b60405190151581526020015b60405180910390f35b61024f6105e4565b60405161023e91906122cf565b61023261026a36600461209e565b610676565b6009546102879061010090046001600160a01b031681565b6040516001600160a01b03909116815260200161023e565b6102b26102ad366004612143565b6106b4565b60405190815260200161023e565b6004546102b2565b6102326102d6366004611ffd565b61076f565b6102b26102e9366004612143565b60009081526008602052604090206001015490565b61021d61030c36600461215b565b6107ad565b60075460405160ff909116815260200161023e565b61021d61033436600461215b565b6107d8565b61021d610856565b61023261034f36600461209e565b6108f4565b61021d61036236600461209e565b61093e565b61021d610375366004611ffd565b610958565b60095460ff16610232565b6102b2610393366004611fb1565b6001600160a01b031660009081526002602052604090205490565b6102b26103bc366004612143565b610973565b61021d6103cf3660046121b5565b610a1d565b61021d610aa9565b6102326103ea36600461215b565b610b1d565b61024f610b48565b61023261040536600461209e565b610b57565b6102b2600081565b61023261042036600461209e565b610b98565b6102b261043336600461209e565b610bcd565b61021d610446366004612038565b610df0565b6102b261045936600461209e565b610e7c565b61021d61046c36600461215b565b611002565b61021d61047f36600461215b565b6110f7565b6102b2610492366004611fcb565b6001600160a01b03918216600090815260036020908152604080832093909416825291909152205490565b61021d6104cb3660046120c7565b61111d565b61021d6104de366004611fb1565b6111a6565b600a54610287906001600160a01b031681565b600054610100900460ff168061050b5750303b155b80610519575060005460ff16155b61053e5760405162461bcd60e51b81526004016105359061230c565b60405180910390fd5b600054610100900460ff16158015610560576000805461ffff19166101011790555b6105ac6040518060400160405280600b81526020016a626f6e646564204b4f524360a81b81525060405180604001604052806005815260200164624b4f524360d81b8152506012610a1d565b80156105be576000805461ff00191690555b50565b6001600160e01b0319811660009081526001602052604090205460ff165b919050565b6060600580546105f3906123c8565b80601f016020809104026020016040519081016040528092919081815260200182805461061f906123c8565b801561066c5780601f106106415761010080835404028352916020019161066c565b820191906000526020600020905b81548152906001019060200180831161064f57829003601f168201915b5050505050905090565b600061068460095460ff1690565b156106a15760405162461bcd60e51b8152600401610535906122e2565b6106ab83836111dc565b90505b92915050565b600080600960019054906101000a90046001600160a01b03166001600160a01b0316631a39d8ef6040518163ffffffff1660e01b815260040160206040518083038186803b15801561070557600080fd5b505afa158015610719573d6000803e3d6000fd5b505050506040513d601f19601f8201168201806040525081019061073d919061222f565b90506000811161074f57829150610769565b60045461075c8285612392565b6107669190612372565b91505b50919050565b600061077d60095460ff1690565b1561079a5760405162461bcd60e51b8152600401610535906122e2565b6107a58484846111e9565b949350505050565b6000828152600860205260409020600101546107c9813361123b565b6107d3838361129f565b505050565b6001600160a01b03811633146108485760405162461bcd60e51b815260206004820152602f60248201527f416363657373436f6e74726f6c3a2063616e206f6e6c792072656e6f756e636560448201526e103937b632b9903337b91039b2b63360891b6064820152608401610535565b6108528282611308565b5050565b60095460ff1661089f5760405162461bcd60e51b815260206004820152601460248201527314185d5cd8589b194e881b9bdd081c185d5cd95960621b6044820152606401610535565b653830bab9b2b960d11b6108b3813361123b565b6009805460ff191690556040513381527f5db9ee0a495bf2e6ff9c91a7834c1ba4fdd244a5e8aa4e537bd38aeae4b073aa906020015b60405180910390a150565b60006109086430b236b4b760d91b3361123b565b60095460ff161561092b5760405162461bcd60e51b8152600401610535906122e2565b610935838361136f565b50600192915050565b61085282826040518060200160405280600081525061111d565b6107d383838360405180602001604052806000815250610df0565b600080600960019054906101000a90046001600160a01b03166001600160a01b0316631a39d8ef6040518163ffffffff1660e01b815260040160206040518083038186803b1580156109c457600080fd5b505afa1580156109d8573d6000803e3d6000fd5b505050506040513d601f19601f820116820180604052508101906109fc919061222f565b905060008111610a0e57829150610769565b806004548461075c9190612392565b600054610100900460ff1680610a325750303b155b80610a40575060005460ff16155b610a5c5760405162461bcd60e51b81526004016105359061230c565b600054610100900460ff16158015610a7e576000805461ffff19166101011790555b610a8984848461146d565b610a916114d9565b8015610aa3576000805461ff00191690555b50505050565b60095460ff1615610acc5760405162461bcd60e51b8152600401610535906122e2565b653830bab9b2b960d11b610ae0813361123b565b6009805460ff191660011790556040513381527f62e78cea01bee320cd4e420270b5ea74000d11b0c9f74754ebdbfc544b05a258906020016108e9565b60009182526008602090815260408084206001600160a01b0393909316845291905290205460ff1690565b6060600680546105f3906123c8565b6000610b6b6430b236b4b760d91b3361123b565b60095460ff1615610b8e5760405162461bcd60e51b8152600401610535906122e2565b6109358383611570565b6000610ba660095460ff1690565b15610bc35760405162461bcd60e51b8152600401610535906122e2565b6106ab8383611661565b6000610bdb60095460ff1690565b15610bf85760405162461bcd60e51b8152600401610535906122e2565b60008211610c08575060006106ae565b610c1182610973565b9050610c1d838261136f565b600a546040516323b872dd60e01b8152336004820152306024820152604481018490526001600160a01b03909116906323b872dd90606401602060405180830381600087803b158015610c6f57600080fd5b505af1158015610c83573d6000803e3d6000fd5b505050506040513d601f19601f82011682018060405250810190610ca7919061211c565b50600a5460095460405163095ea7b360e01b81526001600160a01b03610100909204821660048201526024810185905291169063095ea7b390604401602060405180830381600087803b158015610cfd57600080fd5b505af1158015610d11573d6000803e3d6000fd5b505050506040513d601f19601f82011682018060405250810190610d35919061211c565b5060095460405163534a7e1d60e11b8152600481018490526101009091046001600160a01b03169063a694fc3a90602401600060405180830381600087803b158015610d8057600080fd5b505af1158015610d94573d6000803e3d6000fd5b5050604080513381526001600160a01b0387166020820152908101859052606081018490527f63602d0ecc7b3a0ef7ff1a116e23056662d64280355ba8031b6d0d767c4b4458925060800190505b60405180910390a192915050565b610dfb84848461076f565b50610e088484848461166e565b610aa3576040805162461bcd60e51b81526020600482015260248101919091527f4b4950373a3a736166655472616e7366657246726f6d3a207472616e7366657260448201527f20746f206e6f6e204b495037526563656976657220696d706c656d656e7465726064820152608401610535565b6000610e8a60095460ff1690565b15610ea75760405162461bcd60e51b8152600401610535906122e2565b60008211610eb7575060006106ae565b610ec0826106b4565b9050610ecc3383611570565b6009546040516305c2fbcf60e31b8152600481018390526101009091046001600160a01b031690632e17de7890602401600060405180830381600087803b158015610f1657600080fd5b505af1158015610f2a573d6000803e3d6000fd5b5050600a5460405163a9059cbb60e01b81526001600160a01b03878116600483015260248201869052909116925063a9059cbb9150604401602060405180830381600087803b158015610f7c57600080fd5b505af1158015610f90573d6000803e3d6000fd5b505050506040513d601f19601f82011682018060405250810190610fb4919061211c565b50604080513381526001600160a01b0385166020820152908101829052606081018390527f18edd09e80386cd99df397e2e0d87d2bb259423eae08645e776321a36fe680ef90608001610de2565b6110146430b236b4b760d91b3361123b565b60095460ff16156110375760405162461bcd60e51b8152600401610535906122e2565b816b7969656c64466163746f727960a01b14156110735760098054610100600160a81b0319166101006001600160a01b03841602179055610852565b81643a37b5b2b760d91b14156110a357600a80546001600160a01b0319166001600160a01b038316179055610852565b60405162461bcd60e51b8152602060048201526024808201527f42617365426f6e643a3a636f6e6669673a20756e7265636f676e697a65642d706044820152636172616d60e01b6064820152608401610535565b600082815260086020526040902060010154611113813361123b565b6107d38383611308565b6111278383610b98565b506111343384848461166e565b6107d35760405162461bcd60e51b815260206004820152603c60248201527f4b4950373a3a736166655472616e736665723a207472616e7366657220746f2060448201527f6e6f6e204b495037526563656976657220696d706c656d656e746572000000006064820152608401610535565b6111b86437bbb732b960d91b3361123b565b6111ca6437bbb732b960d91b8261129f565b6105be6437bbb732b960d91b33611308565b600061093533848461172c565b60006111f6848484611864565b6001600160a01b03841660009081526003602090815260408083203380855292529091205461123191869161122c9086906123b1565b61172c565b5060019392505050565b6112458282610b1d565b6108525760405162461bcd60e51b815260206004820152602560248201527f416363657373436f6e74726f6c3a5f636865636b526f6c653a696e76616c696460448201526420726f6c6560d81b6064820152608401610535565b6112a98282610b1d565b6108525760008281526008602090815260408083206001600160a01b0385168085529252808320805460ff1916600117905551339285917f2f8788117e7eff1d82e926ec794901d17c78024a50270940304540a733656f0d9190a45050565b6113128282610b1d565b156108525760008281526008602090815260408083206001600160a01b0385168085529252808320805460ff1916905551339285917ff6391f5c32d9c69d2a47ea670b442974b53935d1edc7fd64eb21e047a839171b9190a45050565b6001600160a01b0382166113db5760405162461bcd60e51b815260206004820152602d60248201527f4b495037457874656e6465643a3a5f6d696e743a206d696e7420746f2074686560448201526c207a65726f206164647265737360981b6064820152608401610535565b806004546113e9919061235a565b6004556001600160a01b03821660009081526002602052604090205461141090829061235a565b6001600160a01b0383166000818152600260205260408082209390935591519091907fddf252ad1be2c89b69c2b068fc378daa952ba7f163c4a11628f55a4df523b3ef906114619085815260200190565b60405180910390a35050565b600054610100900460ff16806114825750303b155b80611490575060005460ff16155b6114ac5760405162461bcd60e51b81526004016105359061230c565b600054610100900460ff161580156114ce576000805461ffff19166101011790555b610a898484846119e6565b600054610100900460ff16806114ee5750303b155b806114fc575060005460ff16155b6115185760405162461bcd60e51b81526004016105359061230c565b600054610100900460ff1615801561153a576000805461ffff19166101011790555b611542611a5a565b61155d653830bab9b2b960d11b6437bbb732b960d91b611ac3565b6105ac653830bab9b2b960d11b33611b0e565b6001600160a01b0382166115de5760405162461bcd60e51b815260206004820152602f60248201527f4b495037457874656e6465643a3a5f6275726e3a206275726e2066726f6d207460448201526e6865207a65726f206164647265737360881b6064820152608401610535565b806004546115ec91906123b1565b6004556001600160a01b0382166000908152600260205260409020546116139082906123b1565b6001600160a01b0383166000818152600260205260408082209390935591517fddf252ad1be2c89b69c2b068fc378daa952ba7f163c4a11628f55a4df523b3ef906114619085815260200190565b6000610935338484611864565b60006001600160a01b0384163b611687575060016107a5565b604051634e8c461160e11b81526000906001600160a01b03861690639d188c22906116bc9033908a9089908990600401612292565b602060405180830381600087803b1580156116d657600080fd5b505af11580156116ea573d6000803e3d6000fd5b505050506040513d601f19601f8201168201806040525081019061170e9190612199565b6001600160e01b031916634e8c461160e11b14915050949350505050565b6001600160a01b0383166117985760405162461bcd60e51b815260206004820152602d60248201527f4b4950373a3a5f617070726f76653a20617070726f76652066726f6d2074686560448201526c207a65726f206164647265737360981b6064820152608401610535565b6001600160a01b0382166118025760405162461bcd60e51b815260206004820152602b60248201527f4b4950373a3a5f617070726f76653a20617070726f766520746f20746865207a60448201526a65726f206164647265737360a81b6064820152608401610535565b6001600160a01b0383811660008181526003602090815260408083209487168084529482529182902085905590518481527f8c5be1e5ebec7d5bd14f71427d1e84f3dd0314c0f7b2291e5b200ac8c7c3b92591015b60405180910390a3505050565b6001600160a01b0383166118d25760405162461bcd60e51b815260206004820152602f60248201527f4b4950373a3a5f7472616e736665723a207472616e736665722066726f6d207460448201526e6865207a65726f206164647265737360881b6064820152608401610535565b6001600160a01b03821661193e5760405162461bcd60e51b815260206004820152602d60248201527f4b4950373a3a5f7472616e736665723a207472616e7366657220746f2074686560448201526c207a65726f206164647265737360981b6064820152608401610535565b6001600160a01b0383166000908152600260205260409020546119629082906123b1565b6001600160a01b03808516600090815260026020526040808220939093559084168152205461199290829061235a565b6001600160a01b0380841660008181526002602052604090819020939093559151908516907fddf252ad1be2c89b69c2b068fc378daa952ba7f163c4a11628f55a4df523b3ef906118579085815260200190565b600054610100900460ff16806119fb5750303b155b80611a09575060005460ff16155b611a255760405162461bcd60e51b81526004016105359061230c565b600054610100900460ff16158015611a47576000805461ffff19166101011790555b611a4f611b18565b610a91848484611b89565b600054610100900460ff1680611a6f5750303b155b80611a7d575060005460ff16155b611a995760405162461bcd60e51b81526004016105359061230c565b600054610100900460ff16158015611abb576000805461ffff19166101011790555b6105ac611c31565b600082815260086020526040808220600101805490849055905190918391839186917fbd79b86ffe0ab8e8776151514217cd7cacd52c909f66475c3af44e129f0b00ff9190a4505050565b610852828261129f565b600054610100900460ff1680611b2d5750303b155b80611b3b575060005460ff16155b611b575760405162461bcd60e51b81526004016105359061230c565b600054610100900460ff16158015611b79576000805461ffff19166101011790555b611b81611d02565b6105ac611d73565b600054610100900460ff1680611b9e5750303b155b80611bac575060005460ff16155b611bc85760405162461bcd60e51b81526004016105359061230c565b600054610100900460ff16158015611bea576000805461ffff19166101011790555b8351611bfd906005906020870190611e7a565b508251611c11906006906020860190611e7a565b506007805460ff191660ff8416179055610a9163a219a02560e01b611de0565b600054610100900460ff1680611c465750303b155b80611c54575060005460ff16155b611c705760405162461bcd60e51b81526004016105359061230c565b600054610100900460ff16158015611c92576000805461ffff19166101011790555b611ca46437bbb732b960d91b33611b0e565b611cbe6430b236b4b760d91b6437bbb732b960d91b611ac3565b611cdb6737b832b930ba37b960c11b6437bbb732b960d91b611ac3565b611ced6430b236b4b760d91b33611b0e565b6105ac6737b832b930ba37b960c11b33611b0e565b600054610100900460ff1680611d175750303b155b80611d25575060005460ff16155b611d415760405162461bcd60e51b81526004016105359061230c565b600054610100900460ff16158015611d63576000805461ffff19166101011790555b6105ac6301ffc9a760e01b611de0565b600054610100900460ff1680611d885750303b155b80611d96575060005460ff16155b611db25760405162461bcd60e51b81526004016105359061230c565b600054610100900460ff16158015611dd4576000805461ffff19166101011790555b6105ac636578737160e01b5b6001600160e01b03198082161415611e525760405162461bcd60e51b815260206004820152602f60248201527f4b495031333a3a5f7265676973746572496e746572666163653a20696e76616c60448201526e1a59081a5b9d195c999858d9481a59608a1b6064820152608401610535565b6001600160e01b0319166000908152600160208190526040909120805460ff19169091179055565b828054611e86906123c8565b90600052602060002090601f016020900481019282611ea85760008555611eee565b82601f10611ec157805160ff1916838001178555611eee565b82800160010185558215611eee579182015b82811115611eee578251825591602001919060010190611ed3565b50611efa929150611efe565b5090565b5b80821115611efa5760008155600101611eff565b80356001600160a01b03811681146105df57600080fd5b600082601f830112611f3a578081fd5b813567ffffffffffffffff80821115611f5557611f55612413565b604051601f8301601f19908116603f01168101908282118183101715611f7d57611f7d612413565b81604052838152866020858801011115611f95578485fd5b8360208701602083013792830160200193909352509392505050565b600060208284031215611fc2578081fd5b6106ab82611f13565b60008060408385031215611fdd578081fd5b611fe683611f13565b9150611ff460208401611f13565b90509250929050565b600080600060608486031215612011578081fd5b61201a84611f13565b925061202860208501611f13565b9150604084013590509250925092565b6000806000806080858703121561204d578081fd5b61205685611f13565b935061206460208601611f13565b925060408501359150606085013567ffffffffffffffff811115612086578182fd5b61209287828801611f2a565b91505092959194509250565b600080604083850312156120b0578182fd5b6120b983611f13565b946020939093013593505050565b6000806000606084860312156120db578283fd5b6120e484611f13565b925060208401359150604084013567ffffffffffffffff811115612106578182fd5b61211286828701611f2a565b9150509250925092565b60006020828403121561212d578081fd5b8151801515811461213c578182fd5b9392505050565b600060208284031215612154578081fd5b5035919050565b6000806040838503121561216d578182fd5b82359150611ff460208401611f13565b60006020828403121561218e578081fd5b813561213c81612429565b6000602082840312156121aa578081fd5b815161213c81612429565b6000806000606084860312156121c9578283fd5b833567ffffffffffffffff808211156121e0578485fd5b6121ec87838801611f2a565b94506020860135915080821115612201578384fd5b5061220e86828701611f2a565b925050604084013560ff81168114612224578182fd5b809150509250925092565b600060208284031215612240578081fd5b5051919050565b60008151808452815b8181101561226c57602081850181015186830182015201612250565b8181111561227d5782602083870101525b50601f01601f19169290920160200192915050565b6001600160a01b03858116825284166020820152604081018390526080606082018190526000906122c590830184612247565b9695505050505050565b6000602082526106ab6020830184612247565b60208082526010908201526f14185d5cd8589b194e881c185d5cd95960821b604082015260600190565b6020808252602e908201527f496e697469616c697a61626c653a20636f6e747261637420697320616c72656160408201526d191e481a5b9a5d1a585b1a5e995960921b606082015260800190565b6000821982111561236d5761236d6123fd565b500190565b60008261238d57634e487b7160e01b81526012600452602481fd5b500490565b60008160001904831182151516156123ac576123ac6123fd565b500290565b6000828210156123c3576123c36123fd565b500390565b600181811c908216806123dc57607f821691505b6020821081141561076957634e487b7160e01b600052602260045260246000fd5b634e487b7160e01b600052601160045260246000fd5b634e487b7160e01b600052604160045260246000fd5b6001600160e01b0319811681146105be57600080fdfea26469706673582212201db9bbe42aa1ec114517c16eed2192f99e4c7664ccda45c66dad2fb22bdb011f64736f6c63430008030033",
  "devdoc": {
    "kind": "dev",
    "methods": {},
    "version": 1
  },
  "userdoc": {
    "kind": "user",
    "methods": {
      "fromTokenAmount(uint256)": {
        "notice": "Calculate bond amount corresponding to the given token amount"
      },
      "stake(address,uint256)": {
        "notice": "Stake token to this contract and return bond."
      },
      "toTokenAmount(uint256)": {
        "notice": "Calculate token amount corresponding to the given bond amount"
      },
      "unstake(address,uint256)": {
        "notice": "Untake to return staked token."
      }
    },
    "version": 1
  },
  "storageLayout": {
    "storage": [
      {
        "astId": 24885,
        "contract": "contracts/collateral/KORC/BKORC.sol:BKORC",
        "label": "_initialized",
        "offset": 0,
        "slot": "0",
        "type": "t_bool"
      },
      {
        "astId": 24888,
        "contract": "contracts/collateral/KORC/BKORC.sol:BKORC",
        "label": "_initializing",
        "offset": 1,
        "slot": "0",
        "type": "t_bool"
      },
      {
        "astId": 22840,
        "contract": "contracts/collateral/KORC/BKORC.sol:BKORC",
        "label": "_supportedInterfaces",
        "offset": 0,
        "slot": "1",
        "type": "t_mapping(t_bytes4,t_bool)"
      },
      {
        "astId": 22904,
        "contract": "contracts/collateral/KORC/BKORC.sol:BKORC",
        "label": "_balances",
        "offset": 0,
        "slot": "2",
        "type": "t_mapping(t_address,t_uint256)"
      },
      {
        "astId": 22910,
        "contract": "contracts/collateral/KORC/BKORC.sol:BKORC",
        "label": "_allowances",
        "offset": 0,
        "slot": "3",
        "type": "t_mapping(t_address,t_mapping(t_address,t_uint256))"
      },
      {
        "astId": 22912,
        "contract": "contracts/collateral/KORC/BKORC.sol:BKORC",
        "label": "_totalSupply",
        "offset": 0,
        "slot": "4",
        "type": "t_uint256"
      },
      {
        "astId": 23292,
        "contract": "contracts/collateral/KORC/BKORC.sol:BKORC",
        "label": "_name",
        "offset": 0,
        "slot": "5",
        "type": "t_string_storage"
      },
      {
        "astId": 23294,
        "contract": "contracts/collateral/KORC/BKORC.sol:BKORC",
        "label": "_symbol",
        "offset": 0,
        "slot": "6",
        "type": "t_string_storage"
      },
      {
        "astId": 23296,
        "contract": "contracts/collateral/KORC/BKORC.sol:BKORC",
        "label": "_decimals",
        "offset": 0,
        "slot": "7",
        "type": "t_uint8"
      },
      {
        "astId": 21831,
        "contract": "contracts/collateral/KORC/BKORC.sol:BKORC",
        "label": "_roles",
        "offset": 0,
        "slot": "8",
        "type": "t_mapping(t_bytes32,t_struct(RoleData)21826_storage)"
      },
      {
        "astId": 22221,
        "contract": "contracts/collateral/KORC/BKORC.sol:BKORC",
        "label": "_paused",
        "offset": 0,
        "slot": "9",
        "type": "t_bool"
      },
      {
        "astId": 20371,
        "contract": "contracts/collateral/KORC/BKORC.sol:BKORC",
        "label": "yieldFactory",
        "offset": 1,
        "slot": "9",
        "type": "t_contract(IYieldFactory)9693"
      },
      {
        "astId": 20374,
        "contract": "contracts/collateral/KORC/BKORC.sol:BKORC",
        "label": "token",
        "offset": 0,
        "slot": "10",
        "type": "t_contract(IKIP7)9935"
      }
    ],
    "types": {
      "t_address": {
        "encoding": "inplace",
        "label": "address",
        "numberOfBytes": "20"
      },
      "t_bool": {
        "encoding": "inplace",
        "label": "bool",
        "numberOfBytes": "1"
      },
      "t_bytes32": {
        "encoding": "inplace",
        "label": "bytes32",
        "numberOfBytes": "32"
      },
      "t_bytes4": {
        "encoding": "inplace",
        "label": "bytes4",
        "numberOfBytes": "4"
      },
      "t_contract(IKIP7)9935": {
        "encoding": "inplace",
        "label": "contract IKIP7",
        "numberOfBytes": "20"
      },
      "t_contract(IYieldFactory)9693": {
        "encoding": "inplace",
        "label": "contract IYieldFactory",
        "numberOfBytes": "20"
      },
      "t_mapping(t_address,t_bool)": {
        "encoding": "mapping",
        "key": "t_address",
        "label": "mapping(address => bool)",
        "numberOfBytes": "32",
        "value": "t_bool"
      },
      "t_mapping(t_address,t_mapping(t_address,t_uint256))": {
        "encoding": "mapping",
        "key": "t_address",
        "label": "mapping(address => mapping(address => uint256))",
        "numberOfBytes": "32",
        "value": "t_mapping(t_address,t_uint256)"
      },
      "t_mapping(t_address,t_uint256)": {
        "encoding": "mapping",
        "key": "t_address",
        "label": "mapping(address => uint256)",
        "numberOfBytes": "32",
        "value": "t_uint256"
      },
      "t_mapping(t_bytes32,t_struct(RoleData)21826_storage)": {
        "encoding": "mapping",
        "key": "t_bytes32",
        "label": "mapping(bytes32 => struct AccessControl.RoleData)",
        "numberOfBytes": "32",
        "value": "t_struct(RoleData)21826_storage"
      },
      "t_mapping(t_bytes4,t_bool)": {
        "encoding": "mapping",
        "key": "t_bytes4",
        "label": "mapping(bytes4 => bool)",
        "numberOfBytes": "32",
        "value": "t_bool"
      },
      "t_string_storage": {
        "encoding": "bytes",
        "label": "string",
        "numberOfBytes": "32"
      },
      "t_struct(RoleData)21826_storage": {
        "encoding": "inplace",
        "label": "struct AccessControl.RoleData",
        "members": [
          {
            "astId": 21823,
            "contract": "contracts/collateral/KORC/BKORC.sol:BKORC",
            "label": "members",
            "offset": 0,
            "slot": "0",
            "type": "t_mapping(t_address,t_bool)"
          },
          {
            "astId": 21825,
            "contract": "contracts/collateral/KORC/BKORC.sol:BKORC",
            "label": "adminRole",
            "offset": 0,
            "slot": "1",
            "type": "t_bytes32"
          }
        ],
        "numberOfBytes": "64"
      },
      "t_uint256": {
        "encoding": "inplace",
        "label": "uint256",
        "numberOfBytes": "32"
      },
      "t_uint8": {
        "encoding": "inplace",
        "label": "uint8",
        "numberOfBytes": "1"
      }
    }
  }
}