{
  "address": "0xA5471DC91B0A5Dfa7a78F36a73161EeD0a320328",
  "abi": [
    {
      "anonymous": false,
      "inputs": [
        {
          "indexed": false,
          "internalType": "address",
          "name": "account",
          "type": "address"
        }
      ],
      "name": "Paused",
      "type": "event"
    },
    {
      "anonymous": false,
      "inputs": [
        {
          "indexed": true,
          "internalType": "bytes32",
          "name": "role",
          "type": "bytes32"
        },
        {
          "indexed": true,
          "internalType": "bytes32",
          "name": "previousAdminRole",
          "type": "bytes32"
        },
        {
          "indexed": true,
          "internalType": "bytes32",
          "name": "newAdminRole",
          "type": "bytes32"
        }
      ],
      "name": "RoleAdminChanged",
      "type": "event"
    },
    {
      "anonymous": false,
      "inputs": [
        {
          "indexed": true,
          "internalType": "bytes32",
          "name": "role",
          "type": "bytes32"
        },
        {
          "indexed": true,
          "internalType": "address",
          "name": "account",
          "type": "address"
        },
        {
          "indexed": true,
          "internalType": "address",
          "name": "sender",
          "type": "address"
        }
      ],
      "name": "RoleGranted",
      "type": "event"
    },
    {
      "anonymous": false,
      "inputs": [
        {
          "indexed": true,
          "internalType": "bytes32",
          "name": "role",
          "type": "bytes32"
        },
        {
          "indexed": true,
          "internalType": "address",
          "name": "account",
          "type": "address"
        },
        {
          "indexed": true,
          "internalType": "address",
          "name": "sender",
          "type": "address"
        }
      ],
      "name": "RoleRevoked",
      "type": "event"
    },
    {
      "anonymous": false,
      "inputs": [
        {
          "indexed": false,
          "internalType": "address",
          "name": "account",
          "type": "address"
        }
      ],
      "name": "Unpaused",
      "type": "event"
    },
    {
      "inputs": [],
      "name": "DEFAULT_ADMIN_ROLE",
      "outputs": [
        {
          "internalType": "bytes32",
          "name": "",
          "type": "bytes32"
        }
      ],
      "stateMutability": "view",
      "type": "function"
    },
    {
      "inputs": [
        {
          "internalType": "address",
          "name": "addressBook",
          "type": "address"
        },
        {
          "internalType": "address",
          "name": "stableToken",
          "type": "address"
        }
      ],
      "name": "__BKSLPKLAYKDAIFeed_init",
      "outputs": [],
      "stateMutability": "nonpayable",
      "type": "function"
    },
    {
      "inputs": [
        {
          "internalType": "bytes32",
          "name": "collateralType_",
          "type": "bytes32"
        },
        {
          "internalType": "address",
          "name": "addressBook_",
          "type": "address"
        },
        {
          "internalType": "address",
          "name": "stableToken_",
          "type": "address"
        }
      ],
      "name": "__BKSMajorStableLpFeed_init",
      "outputs": [],
      "stateMutability": "nonpayable",
      "type": "function"
    },
    {
      "inputs": [],
      "name": "__Feed_init",
      "outputs": [],
      "stateMutability": "nonpayable",
      "type": "function"
    },
    {
      "inputs": [],
      "name": "addressBook",
      "outputs": [
        {
          "internalType": "contract IAddressBook",
          "name": "",
          "type": "address"
        }
      ],
      "stateMutability": "view",
      "type": "function"
    },
    {
      "inputs": [],
      "name": "clear",
      "outputs": [],
      "stateMutability": "nonpayable",
      "type": "function"
    },
    {
      "inputs": [],
      "name": "collateralType",
      "outputs": [
        {
          "internalType": "bytes32",
          "name": "",
          "type": "bytes32"
        }
      ],
      "stateMutability": "view",
      "type": "function"
    },
    {
      "inputs": [
        {
          "internalType": "bytes32",
          "name": "what",
          "type": "bytes32"
        },
        {
          "internalType": "uint256",
          "name": "data",
          "type": "uint256"
        }
      ],
      "name": "config",
      "outputs": [],
      "stateMutability": "nonpayable",
      "type": "function"
    },
    {
      "inputs": [],
      "name": "getPrice",
      "outputs": [
        {
          "internalType": "uint256",
          "name": "",
          "type": "uint256"
        },
        {
          "internalType": "bool",
          "name": "",
          "type": "bool"
        }
      ],
      "stateMutability": "view",
      "type": "function"
    },
    {
      "inputs": [
        {
          "internalType": "bytes32",
          "name": "role",
          "type": "bytes32"
        }
      ],
      "name": "getRoleAdmin",
      "outputs": [
        {
          "internalType": "bytes32",
          "name": "",
          "type": "bytes32"
        }
      ],
      "stateMutability": "view",
      "type": "function"
    },
    {
      "inputs": [
        {
          "internalType": "bytes32",
          "name": "role",
          "type": "bytes32"
        },
        {
          "internalType": "address",
          "name": "account",
          "type": "address"
        }
      ],
      "name": "grantRole",
      "outputs": [],
      "stateMutability": "nonpayable",
      "type": "function"
    },
    {
      "inputs": [
        {
          "internalType": "bytes32",
          "name": "role",
          "type": "bytes32"
        },
        {
          "internalType": "address",
          "name": "account",
          "type": "address"
        }
      ],
      "name": "hasRole",
      "outputs": [
        {
          "internalType": "bool",
          "name": "",
          "type": "bool"
        }
      ],
      "stateMutability": "view",
      "type": "function"
    },
    {
      "inputs": [],
      "name": "lastUpdatedAt",
      "outputs": [
        {
          "internalType": "uint256",
          "name": "",
          "type": "uint256"
        }
      ],
      "stateMutability": "view",
      "type": "function"
    },
    {
      "inputs": [],
      "name": "pause",
      "outputs": [],
      "stateMutability": "nonpayable",
      "type": "function"
    },
    {
      "inputs": [],
      "name": "paused",
      "outputs": [
        {
          "internalType": "bool",
          "name": "",
          "type": "bool"
        }
      ],
      "stateMutability": "view",
      "type": "function"
    },
    {
      "inputs": [],
      "name": "price",
      "outputs": [
        {
          "internalType": "uint256",
          "name": "",
          "type": "uint256"
        }
      ],
      "stateMutability": "view",
      "type": "function"
    },
    {
      "inputs": [
        {
          "internalType": "bytes32",
          "name": "role",
          "type": "bytes32"
        },
        {
          "internalType": "address",
          "name": "account",
          "type": "address"
        }
      ],
      "name": "renounceRole",
      "outputs": [],
      "stateMutability": "nonpayable",
      "type": "function"
    },
    {
      "inputs": [
        {
          "internalType": "bytes32",
          "name": "role",
          "type": "bytes32"
        },
        {
          "internalType": "address",
          "name": "account",
          "type": "address"
        }
      ],
      "name": "revokeRole",
      "outputs": [],
      "stateMutability": "nonpayable",
      "type": "function"
    },
    {
      "inputs": [
        {
          "internalType": "uint256",
          "name": "_price",
          "type": "uint256"
        }
      ],
      "name": "set",
      "outputs": [],
      "stateMutability": "nonpayable",
      "type": "function"
    },
    {
      "inputs": [],
      "name": "set",
      "outputs": [],
      "stateMutability": "nonpayable",
      "type": "function"
    },
    {
      "inputs": [],
      "name": "stableToken",
      "outputs": [
        {
          "internalType": "address",
          "name": "",
          "type": "address"
        }
      ],
      "stateMutability": "view",
      "type": "function"
    },
    {
      "inputs": [
        {
          "internalType": "address",
          "name": "newOwner",
          "type": "address"
        }
      ],
      "name": "transferOwnership",
      "outputs": [],
      "stateMutability": "nonpayable",
      "type": "function"
    },
    {
      "inputs": [],
      "name": "unpause",
      "outputs": [],
      "stateMutability": "nonpayable",
      "type": "function"
    },
    {
      "inputs": [],
      "name": "valid",
      "outputs": [
        {
          "internalType": "bool",
          "name": "",
          "type": "bool"
        }
      ],
      "stateMutability": "view",
      "type": "function"
    },
    {
      "inputs": [],
      "name": "windowSize",
      "outputs": [
        {
          "internalType": "uint256",
          "name": "",
          "type": "uint256"
        }
      ],
      "stateMutability": "view",
      "type": "function"
    }
  ],
  "transactionHash": "0xe4ae02fee7ca8fa7c32156812067ac77b217327fcb257aa42a2d6beb74f31ffa",
  "args": [],
  "solcInputHash": "de4f5741dec2c2b2fd1b551e118f3df0",
  "bytecode": "0x608060405234801561001057600080fd5b50611422806100206000396000f3fe608060405234801561001057600080fd5b50600436106101735760003560e01c806391d14854116100de578063c199121911610097578063e824600f11610071578063e824600f146102f8578063ee09477414610301578063f2fde38b14610314578063f5887cdd1461032757610173565b8063c1991219146102c0578063d547741f146102d2578063e0bed041146102e557610173565b806391d148541461024657806398d5fdca14610259578063a035b1fe1461027c578063a217fddf14610285578063a9d75b2b1461028d578063b8e010de146102b857610173565b806354aea1271161013057806354aea127146101ef5780635c975abb146101f857806360fe47b11461020f5780638456cb59146102225780638a14117a1461022a5780638c8e03c31461023357610173565b806317dc4aa014610178578063248a9ca3146101825780632f2ff15d146101b957806336568abe146101cc5780633f4ba83a146101df57806352efea6e146101e7575b600080fd5b61018061033a565b005b6101a66101903660046110cd565b6000908152600160208190526040909120015490565b6040519081526020015b60405180910390f35b6101806101c73660046110e5565b6103c1565b6101806101da3660046110e5565b6103ed565b61018061046b565b610180610509565b6101a660075481565b60025460ff165b60405190151581526020016101b0565b61018061021d3660046110cd565b610528565b610180610574565b6101a660085481565b610180610241366004611109565b6105e8565b6101ff6102543660046110e5565b61069e565b600354600254610100900460ff16604080519283529015156020830152016101b0565b6101a660035481565b6101a6600081565b6006546102a0906001600160a01b031681565b6040516001600160a01b0390911681526020016101b0565b6101806106c9565b6002546101ff90610100900460ff1681565b6101806102e03660046110e5565b610b79565b6101806102f336600461114a565b610ba0565b6101a660055481565b61018061030f366004611095565b610c31565b610180610322366004611056565b610cc2565b6004546102a0906001600160a01b031681565b600054610100900460ff168061034f5750303b155b8061035d575060005460ff16155b6103825760405162461bcd60e51b8152600401610379906111f1565b60405180910390fd5b600054610100900460ff161580156103a4576000805461ffff19166101011790555b6103ac610cf8565b80156103be576000805461ff00191690555b50565b600082815260016020819052604090912001546103de8133610d8f565b6103e88383610df3565b505050565b6001600160a01b038116331461045d5760405162461bcd60e51b815260206004820152602f60248201527f416363657373436f6e74726f6c3a2063616e206f6e6c792072656e6f756e636560448201526e103937b632b9903337b91039b2b63360891b6064820152608401610379565b6104678282610e5e565b5050565b60025460ff166104b45760405162461bcd60e51b815260206004820152601460248201527314185d5cd8589b194e881b9bdd081c185d5cd95960621b6044820152606401610379565b653830bab9b2b960d11b6104c88133610d8f565b6002805460ff191690556040513381527f5db9ee0a495bf2e6ff9c91a7834c1ba4fdd244a5e8aa4e537bd38aeae4b073aa906020015b60405180910390a150565b61051b6437bbb732b960d91b33610d8f565b6002805461ff0019169055565b61053d6737b832b930ba37b960c11b33610d8f565b60025460ff16156105605760405162461bcd60e51b8152600401610379906111c7565b6003556002805461ff001916610100179055565b60025460ff16156105975760405162461bcd60e51b8152600401610379906111c7565b653830bab9b2b960d11b6105ab8133610d8f565b6002805460ff191660011790556040513381527f62e78cea01bee320cd4e420270b5ea74000d11b0c9f74754ebdbfc544b05a258906020016104fe565b600054610100900460ff16806105fd5750303b155b8061060b575060005460ff16155b6106275760405162461bcd60e51b8152600401610379906111f1565b600054610100900460ff16158015610649576000805461ffff19166101011790555b61065161033a565b6005849055600480546001600160a01b038086166001600160a01b03199283161790925560068054928516929091169190911790558015610698576000805461ff00191690555b50505050565b60009182526001602090815260408084206001600160a01b0393909316845291905290205460ff1690565b60025460ff16156106ec5760405162461bcd60e51b8152600401610379906111c7565b6004805460055460405163f084b66960e01b815292830152643a37b5b2b760d91b60248301526000916001600160a01b039091169063f084b6699060440160206040518083038186803b15801561074257600080fd5b505afa158015610756573d6000803e3d6000fd5b505050506040513d601f19601f8201168201806040525081019061077a9190611079565b90506000816001600160a01b0316630fc63d106040518163ffffffff1660e01b815260040160206040518083038186803b1580156107b757600080fd5b505afa1580156107cb573d6000803e3d6000fd5b505050506040513d601f19601f820116820180604052508101906107ef9190611079565b90506000826001600160a01b0316635f64b55b6040518163ffffffff1660e01b815260040160206040518083038186803b15801561082c57600080fd5b505afa158015610840573d6000803e3d6000fd5b505050506040513d601f19601f820116820180604052508101906108649190611079565b9050600080846001600160a01b0316631a595f656040518163ffffffff1660e01b8152600401604080518083038186803b1580156108a157600080fd5b505afa1580156108b5573d6000803e3d6000fd5b505050506040513d601f19601f820116820180604052508101906108d99190611183565b915091506000856001600160a01b03166318160ddd6040518163ffffffff1660e01b815260040160206040518083038186803b15801561091857600080fd5b505afa15801561092c573d6000803e3d6000fd5b505050506040513d601f19601f82011682018060405250810190610950919061116b565b6006549091506000906001600160a01b0387811691161415610a27576000866001600160a01b031663313ce5676040518163ffffffff1660e01b815260040160206040518083038186803b1580156109a757600080fd5b505afa1580156109bb573d6000803e3d6000fd5b505050506040513d601f19601f820116820180604052508101906109df91906111a6565b60ff16905060006109f18260246113aa565b9050836109ff82600a6112bd565b610a0a88600261138b565b610a14919061138b565b610a1e9190611257565b92505050610ade565b6000856001600160a01b031663313ce5676040518163ffffffff1660e01b815260040160206040518083038186803b158015610a6257600080fd5b505afa158015610a76573d6000803e3d6000fd5b505050506040513d601f19601f82011682018060405250810190610a9a91906111a6565b60ff1690506000610aac8260246113aa565b905083610aba82600a6112bd565b610ac587600261138b565b610acf919061138b565b610ad99190611257565b925050505b600060075442610aee91906113aa565b426007556008549091508110610b175760038290556002805461ff001916610100179055610b6f565b600854610b24828461138b565b610b2e9190611257565b600854610b3b83826113aa565b600354610b48919061138b565b610b529190611257565b610b5c919061123f565b6003556002805461ff0019166101001790555b5050505050505050565b60008281526001602081905260409091200154610b968133610d8f565b6103e88383610e5e565b610bb26430b236b4b760d91b33610d8f565b816977696e646f7753697a6560b01b1415610bd1576008819055610467565b60405162461bcd60e51b815260206004820152602f60248201527f424b534d616a6f72537461626c654c70466565643a3a636f6e6669673a756e7260448201526e65636f676e697a65642d706172616d60881b6064820152608401610379565b600054610100900460ff1680610c465750303b155b80610c54575060005460ff16155b610c705760405162461bcd60e51b8152600401610379906111f1565b600054610100900460ff16158015610c92576000805461ffff19166101011790555b610cac6b4b534c504b4c41594b44414960a01b84846105e8565b80156103e8576000805461ff0019169055505050565b610cd46437bbb732b960d91b33610d8f565b610ce66437bbb732b960d91b82610df3565b6103be6437bbb732b960d91b33610e5e565b600054610100900460ff1680610d0d5750303b155b80610d1b575060005460ff16155b610d375760405162461bcd60e51b8152600401610379906111f1565b600054610100900460ff16158015610d59576000805461ffff19166101011790555b610d61610ec5565b610d7c653830bab9b2b960d11b6437bbb732b960d91b610f2e565b6103ac653830bab9b2b960d11b33610f7b565b610d99828261069e565b6104675760405162461bcd60e51b815260206004820152602560248201527f416363657373436f6e74726f6c3a5f636865636b526f6c653a696e76616c696460448201526420726f6c6560d81b6064820152608401610379565b610dfd828261069e565b6104675760008281526001602081815260408084206001600160a01b0386168086529252808420805460ff19169093179092559051339285917f2f8788117e7eff1d82e926ec794901d17c78024a50270940304540a733656f0d9190a45050565b610e68828261069e565b156104675760008281526001602090815260408083206001600160a01b0385168085529252808320805460ff1916905551339285917ff6391f5c32d9c69d2a47ea670b442974b53935d1edc7fd64eb21e047a839171b9190a45050565b600054610100900460ff1680610eda5750303b155b80610ee8575060005460ff16155b610f045760405162461bcd60e51b8152600401610379906111f1565b600054610100900460ff16158015610f26576000805461ffff19166101011790555b6103ac610f85565b6000828152600160208190526040808320909101805490849055905190918391839186917fbd79b86ffe0ab8e8776151514217cd7cacd52c909f66475c3af44e129f0b00ff9190a4505050565b6104678282610df3565b600054610100900460ff1680610f9a5750303b155b80610fa8575060005460ff16155b610fc45760405162461bcd60e51b8152600401610379906111f1565b600054610100900460ff16158015610fe6576000805461ffff19166101011790555b610ff86437bbb732b960d91b33610f7b565b6110126430b236b4b760d91b6437bbb732b960d91b610f2e565b61102f6737b832b930ba37b960c11b6437bbb732b960d91b610f2e565b6110416430b236b4b760d91b33610f7b565b6103ac6737b832b930ba37b960c11b33610f7b565b600060208284031215611067578081fd5b8135611072816113d7565b9392505050565b60006020828403121561108a578081fd5b8151611072816113d7565b600080604083850312156110a7578081fd5b82356110b2816113d7565b915060208301356110c2816113d7565b809150509250929050565b6000602082840312156110de578081fd5b5035919050565b600080604083850312156110f7578182fd5b8235915060208301356110c2816113d7565b60008060006060848603121561111d578081fd5b83359250602084013561112f816113d7565b9150604084013561113f816113d7565b809150509250925092565b6000806040838503121561115c578182fd5b50508035926020909101359150565b60006020828403121561117c578081fd5b5051919050565b60008060408385031215611195578182fd5b505080516020909101519092909150565b6000602082840312156111b7578081fd5b815160ff81168114611072578182fd5b60208082526010908201526f14185d5cd8589b194e881c185d5cd95960821b604082015260600190565b6020808252602e908201527f496e697469616c697a61626c653a20636f6e747261637420697320616c72656160408201526d191e481a5b9a5d1a585b1a5e995960921b606082015260800190565b60008219821115611252576112526113c1565b500190565b60008261127257634e487b7160e01b81526012600452602481fd5b500490565b80825b600180861161128957506112b4565b81870482111561129b5761129b6113c1565b808616156112a857918102915b9490941c93800261127a565b94509492505050565b600061107260001984846000826112d657506001611072565b816112e357506000611072565b81600181146112f9576002811461130357611330565b6001915050611072565b60ff841115611314576113146113c1565b6001841b91508482111561132a5761132a6113c1565b50611072565b5060208310610133831016604e8410600b8410161715611363575081810a8381111561135e5761135e6113c1565b611072565b6113708484846001611277565b808604821115611382576113826113c1565b02949350505050565b60008160001904831182151516156113a5576113a56113c1565b500290565b6000828210156113bc576113bc6113c1565b500390565b634e487b7160e01b600052601160045260246000fd5b6001600160a01b03811681146103be57600080fdfea264697066735822122051c24f2fbec41d287697cccd3fa12326439c31818968e8fdc6d08f3e6eced2cd64736f6c63430008030033",
  "devdoc": {
    "kind": "dev",
    "methods": {
      "clear()": {
        "details": "it is should be called by only governance (EOA for now)."
      },
      "getPrice()": {
        "returns": {
          "_0": "value of price, validation check"
        }
      },
      "set(uint256)": {
        "details": "it should be called by only whitelisted operator",
        "params": {
          "_price": "value of price to set"
        }
      }
    },
    "version": 1
  },
  "userdoc": {
    "kind": "user",
    "methods": {
      "clear()": {
        "notice": "make price invalid"
      },
      "getPrice()": {
        "notice": "get price"
      },
      "set(uint256)": {
        "notice": "set price"
      }
    },
    "version": 1
  },
  "storageLayout": {
    "storage": [
      {
        "astId": 24885,
        "contract": "contracts/collateral/KSLPKLAYKDAI/BKSLPKLAYKDAIFeed.sol:BKSLPKLAYKDAIFeed",
        "label": "_initialized",
        "offset": 0,
        "slot": "0",
        "type": "t_bool"
      },
      {
        "astId": 24888,
        "contract": "contracts/collateral/KSLPKLAYKDAI/BKSLPKLAYKDAIFeed.sol:BKSLPKLAYKDAIFeed",
        "label": "_initializing",
        "offset": 1,
        "slot": "0",
        "type": "t_bool"
      },
      {
        "astId": 21831,
        "contract": "contracts/collateral/KSLPKLAYKDAI/BKSLPKLAYKDAIFeed.sol:BKSLPKLAYKDAIFeed",
        "label": "_roles",
        "offset": 0,
        "slot": "1",
        "type": "t_mapping(t_bytes32,t_struct(RoleData)21826_storage)"
      },
      {
        "astId": 22221,
        "contract": "contracts/collateral/KSLPKLAYKDAI/BKSLPKLAYKDAIFeed.sol:BKSLPKLAYKDAIFeed",
        "label": "_paused",
        "offset": 0,
        "slot": "2",
        "type": "t_bool"
      },
      {
        "astId": 31043,
        "contract": "contracts/collateral/KSLPKLAYKDAI/BKSLPKLAYKDAIFeed.sol:BKSLPKLAYKDAIFeed",
        "label": "valid",
        "offset": 1,
        "slot": "2",
        "type": "t_bool"
      },
      {
        "astId": 31045,
        "contract": "contracts/collateral/KSLPKLAYKDAI/BKSLPKLAYKDAIFeed.sol:BKSLPKLAYKDAIFeed",
        "label": "price",
        "offset": 0,
        "slot": "3",
        "type": "t_uint256"
      },
      {
        "astId": 30375,
        "contract": "contracts/collateral/KSLPKLAYKDAI/BKSLPKLAYKDAIFeed.sol:BKSLPKLAYKDAIFeed",
        "label": "addressBook",
        "offset": 0,
        "slot": "4",
        "type": "t_contract(IAddressBook)6869"
      },
      {
        "astId": 30377,
        "contract": "contracts/collateral/KSLPKLAYKDAI/BKSLPKLAYKDAIFeed.sol:BKSLPKLAYKDAIFeed",
        "label": "collateralType",
        "offset": 0,
        "slot": "5",
        "type": "t_bytes32"
      },
      {
        "astId": 30379,
        "contract": "contracts/collateral/KSLPKLAYKDAI/BKSLPKLAYKDAIFeed.sol:BKSLPKLAYKDAIFeed",
        "label": "stableToken",
        "offset": 0,
        "slot": "6",
        "type": "t_address"
      },
      {
        "astId": 30381,
        "contract": "contracts/collateral/KSLPKLAYKDAI/BKSLPKLAYKDAIFeed.sol:BKSLPKLAYKDAIFeed",
        "label": "lastUpdatedAt",
        "offset": 0,
        "slot": "7",
        "type": "t_uint256"
      },
      {
        "astId": 30383,
        "contract": "contracts/collateral/KSLPKLAYKDAI/BKSLPKLAYKDAIFeed.sol:BKSLPKLAYKDAIFeed",
        "label": "windowSize",
        "offset": 0,
        "slot": "8",
        "type": "t_uint256"
      }
    ],
    "types": {
      "t_address": {
        "encoding": "inplace",
        "label": "address",
        "numberOfBytes": "20"
      },
      "t_bool": {
        "encoding": "inplace",
        "label": "bool",
        "numberOfBytes": "1"
      },
      "t_bytes32": {
        "encoding": "inplace",
        "label": "bytes32",
        "numberOfBytes": "32"
      },
      "t_contract(IAddressBook)6869": {
        "encoding": "inplace",
        "label": "contract IAddressBook",
        "numberOfBytes": "20"
      },
      "t_mapping(t_address,t_bool)": {
        "encoding": "mapping",
        "key": "t_address",
        "label": "mapping(address => bool)",
        "numberOfBytes": "32",
        "value": "t_bool"
      },
      "t_mapping(t_bytes32,t_struct(RoleData)21826_storage)": {
        "encoding": "mapping",
        "key": "t_bytes32",
        "label": "mapping(bytes32 => struct AccessControl.RoleData)",
        "numberOfBytes": "32",
        "value": "t_struct(RoleData)21826_storage"
      },
      "t_struct(RoleData)21826_storage": {
        "encoding": "inplace",
        "label": "struct AccessControl.RoleData",
        "members": [
          {
            "astId": 21823,
            "contract": "contracts/collateral/KSLPKLAYKDAI/BKSLPKLAYKDAIFeed.sol:BKSLPKLAYKDAIFeed",
            "label": "members",
            "offset": 0,
            "slot": "0",
            "type": "t_mapping(t_address,t_bool)"
          },
          {
            "astId": 21825,
            "contract": "contracts/collateral/KSLPKLAYKDAI/BKSLPKLAYKDAIFeed.sol:BKSLPKLAYKDAIFeed",
            "label": "adminRole",
            "offset": 0,
            "slot": "1",
            "type": "t_bytes32"
          }
        ],
        "numberOfBytes": "64"
      },
      "t_uint256": {
        "encoding": "inplace",
        "label": "uint256",
        "numberOfBytes": "32"
      }
    }
  }
}