{
  "address": "0x572feFcEc9937F9d686267Dfd40f1f8B84a96F4D",
  "abi": [
    {
      "anonymous": false,
      "inputs": [
        {
          "indexed": true,
          "internalType": "address",
          "name": "owner",
          "type": "address"
        },
        {
          "indexed": true,
          "internalType": "address",
          "name": "spender",
          "type": "address"
        },
        {
          "indexed": false,
          "internalType": "uint256",
          "name": "value",
          "type": "uint256"
        }
      ],
      "name": "Approval",
      "type": "event"
    },
    {
      "anonymous": false,
      "inputs": [
        {
          "indexed": false,
          "internalType": "address",
          "name": "account",
          "type": "address"
        }
      ],
      "name": "Paused",
      "type": "event"
    },
    {
      "anonymous": false,
      "inputs": [
        {
          "indexed": true,
          "internalType": "bytes32",
          "name": "role",
          "type": "bytes32"
        },
        {
          "indexed": true,
          "internalType": "bytes32",
          "name": "previousAdminRole",
          "type": "bytes32"
        },
        {
          "indexed": true,
          "internalType": "bytes32",
          "name": "newAdminRole",
          "type": "bytes32"
        }
      ],
      "name": "RoleAdminChanged",
      "type": "event"
    },
    {
      "anonymous": false,
      "inputs": [
        {
          "indexed": true,
          "internalType": "bytes32",
          "name": "role",
          "type": "bytes32"
        },
        {
          "indexed": true,
          "internalType": "address",
          "name": "account",
          "type": "address"
        },
        {
          "indexed": true,
          "internalType": "address",
          "name": "sender",
          "type": "address"
        }
      ],
      "name": "RoleGranted",
      "type": "event"
    },
    {
      "anonymous": false,
      "inputs": [
        {
          "indexed": true,
          "internalType": "bytes32",
          "name": "role",
          "type": "bytes32"
        },
        {
          "indexed": true,
          "internalType": "address",
          "name": "account",
          "type": "address"
        },
        {
          "indexed": true,
          "internalType": "address",
          "name": "sender",
          "type": "address"
        }
      ],
      "name": "RoleRevoked",
      "type": "event"
    },
    {
      "anonymous": false,
      "inputs": [
        {
          "indexed": false,
          "internalType": "address",
          "name": "from",
          "type": "address"
        },
        {
          "indexed": false,
          "internalType": "address",
          "name": "to",
          "type": "address"
        },
        {
          "indexed": false,
          "internalType": "uint256",
          "name": "tokenAmount",
          "type": "uint256"
        },
        {
          "indexed": false,
          "internalType": "uint256",
          "name": "bondAmount",
          "type": "uint256"
        }
      ],
      "name": "Stake",
      "type": "event"
    },
    {
      "anonymous": false,
      "inputs": [
        {
          "indexed": true,
          "internalType": "address",
          "name": "from",
          "type": "address"
        },
        {
          "indexed": true,
          "internalType": "address",
          "name": "to",
          "type": "address"
        },
        {
          "indexed": false,
          "internalType": "uint256",
          "name": "value",
          "type": "uint256"
        }
      ],
      "name": "Transfer",
      "type": "event"
    },
    {
      "anonymous": false,
      "inputs": [
        {
          "indexed": false,
          "internalType": "address",
          "name": "account",
          "type": "address"
        }
      ],
      "name": "Unpaused",
      "type": "event"
    },
    {
      "anonymous": false,
      "inputs": [
        {
          "indexed": false,
          "internalType": "address",
          "name": "from",
          "type": "address"
        },
        {
          "indexed": false,
          "internalType": "address",
          "name": "to",
          "type": "address"
        },
        {
          "indexed": false,
          "internalType": "uint256",
          "name": "tokenAmount",
          "type": "uint256"
        },
        {
          "indexed": false,
          "internalType": "uint256",
          "name": "bondAmount",
          "type": "uint256"
        }
      ],
      "name": "Unstake",
      "type": "event"
    },
    {
      "inputs": [],
      "name": "DEFAULT_ADMIN_ROLE",
      "outputs": [
        {
          "internalType": "bytes32",
          "name": "",
          "type": "bytes32"
        }
      ],
      "stateMutability": "view",
      "type": "function"
    },
    {
      "inputs": [],
      "name": "__BKSLPKUSDTKUSDC_init",
      "outputs": [],
      "stateMutability": "nonpayable",
      "type": "function"
    },
    {
      "inputs": [
        {
          "internalType": "string",
          "name": "name_",
          "type": "string"
        },
        {
          "internalType": "string",
          "name": "symbol_",
          "type": "string"
        },
        {
          "internalType": "uint8",
          "name": "decimals_",
          "type": "uint8"
        }
      ],
      "name": "__BaseBond_init",
      "outputs": [],
      "stateMutability": "nonpayable",
      "type": "function"
    },
    {
      "inputs": [
        {
          "internalType": "address",
          "name": "owner",
          "type": "address"
        },
        {
          "internalType": "address",
          "name": "spender",
          "type": "address"
        }
      ],
      "name": "allowance",
      "outputs": [
        {
          "internalType": "uint256",
          "name": "",
          "type": "uint256"
        }
      ],
      "stateMutability": "view",
      "type": "function"
    },
    {
      "inputs": [
        {
          "internalType": "address",
          "name": "spender",
          "type": "address"
        },
        {
          "internalType": "uint256",
          "name": "value",
          "type": "uint256"
        }
      ],
      "name": "approve",
      "outputs": [
        {
          "internalType": "bool",
          "name": "",
          "type": "bool"
        }
      ],
      "stateMutability": "nonpayable",
      "type": "function"
    },
    {
      "inputs": [
        {
          "internalType": "address",
          "name": "account",
          "type": "address"
        }
      ],
      "name": "balanceOf",
      "outputs": [
        {
          "internalType": "uint256",
          "name": "",
          "type": "uint256"
        }
      ],
      "stateMutability": "view",
      "type": "function"
    },
    {
      "inputs": [
        {
          "internalType": "address",
          "name": "account",
          "type": "address"
        },
        {
          "internalType": "uint256",
          "name": "value",
          "type": "uint256"
        }
      ],
      "name": "burn",
      "outputs": [
        {
          "internalType": "bool",
          "name": "",
          "type": "bool"
        }
      ],
      "stateMutability": "nonpayable",
      "type": "function"
    },
    {
      "inputs": [
        {
          "internalType": "bytes32",
          "name": "what",
          "type": "bytes32"
        },
        {
          "internalType": "address",
          "name": "data",
          "type": "address"
        }
      ],
      "name": "config",
      "outputs": [],
      "stateMutability": "nonpayable",
      "type": "function"
    },
    {
      "inputs": [],
      "name": "decimals",
      "outputs": [
        {
          "internalType": "uint8",
          "name": "",
          "type": "uint8"
        }
      ],
      "stateMutability": "view",
      "type": "function"
    },
    {
      "inputs": [
        {
          "internalType": "uint256",
          "name": "tokenAmount",
          "type": "uint256"
        }
      ],
      "name": "fromTokenAmount",
      "outputs": [
        {
          "internalType": "uint256",
          "name": "bondAmount",
          "type": "uint256"
        }
      ],
      "stateMutability": "view",
      "type": "function"
    },
    {
      "inputs": [
        {
          "internalType": "bytes32",
          "name": "role",
          "type": "bytes32"
        }
      ],
      "name": "getRoleAdmin",
      "outputs": [
        {
          "internalType": "bytes32",
          "name": "",
          "type": "bytes32"
        }
      ],
      "stateMutability": "view",
      "type": "function"
    },
    {
      "inputs": [
        {
          "internalType": "bytes32",
          "name": "role",
          "type": "bytes32"
        },
        {
          "internalType": "address",
          "name": "account",
          "type": "address"
        }
      ],
      "name": "grantRole",
      "outputs": [],
      "stateMutability": "nonpayable",
      "type": "function"
    },
    {
      "inputs": [
        {
          "internalType": "bytes32",
          "name": "role",
          "type": "bytes32"
        },
        {
          "internalType": "address",
          "name": "account",
          "type": "address"
        }
      ],
      "name": "hasRole",
      "outputs": [
        {
          "internalType": "bool",
          "name": "",
          "type": "bool"
        }
      ],
      "stateMutability": "view",
      "type": "function"
    },
    {
      "inputs": [
        {
          "internalType": "address",
          "name": "account",
          "type": "address"
        },
        {
          "internalType": "uint256",
          "name": "amount",
          "type": "uint256"
        }
      ],
      "name": "mint",
      "outputs": [
        {
          "internalType": "bool",
          "name": "",
          "type": "bool"
        }
      ],
      "stateMutability": "nonpayable",
      "type": "function"
    },
    {
      "inputs": [],
      "name": "name",
      "outputs": [
        {
          "internalType": "string",
          "name": "",
          "type": "string"
        }
      ],
      "stateMutability": "view",
      "type": "function"
    },
    {
      "inputs": [],
      "name": "pause",
      "outputs": [],
      "stateMutability": "nonpayable",
      "type": "function"
    },
    {
      "inputs": [],
      "name": "paused",
      "outputs": [
        {
          "internalType": "bool",
          "name": "",
          "type": "bool"
        }
      ],
      "stateMutability": "view",
      "type": "function"
    },
    {
      "inputs": [
        {
          "internalType": "bytes32",
          "name": "role",
          "type": "bytes32"
        },
        {
          "internalType": "address",
          "name": "account",
          "type": "address"
        }
      ],
      "name": "renounceRole",
      "outputs": [],
      "stateMutability": "nonpayable",
      "type": "function"
    },
    {
      "inputs": [
        {
          "internalType": "bytes32",
          "name": "role",
          "type": "bytes32"
        },
        {
          "internalType": "address",
          "name": "account",
          "type": "address"
        }
      ],
      "name": "revokeRole",
      "outputs": [],
      "stateMutability": "nonpayable",
      "type": "function"
    },
    {
      "inputs": [
        {
          "internalType": "address",
          "name": "recipient",
          "type": "address"
        },
        {
          "internalType": "uint256",
          "name": "amount",
          "type": "uint256"
        }
      ],
      "name": "safeTransfer",
      "outputs": [],
      "stateMutability": "nonpayable",
      "type": "function"
    },
    {
      "inputs": [
        {
          "internalType": "address",
          "name": "recipient",
          "type": "address"
        },
        {
          "internalType": "uint256",
          "name": "amount",
          "type": "uint256"
        },
        {
          "internalType": "bytes",
          "name": "data",
          "type": "bytes"
        }
      ],
      "name": "safeTransfer",
      "outputs": [],
      "stateMutability": "nonpayable",
      "type": "function"
    },
    {
      "inputs": [
        {
          "internalType": "address",
          "name": "sender",
          "type": "address"
        },
        {
          "internalType": "address",
          "name": "recipient",
          "type": "address"
        },
        {
          "internalType": "uint256",
          "name": "amount",
          "type": "uint256"
        }
      ],
      "name": "safeTransferFrom",
      "outputs": [],
      "stateMutability": "nonpayable",
      "type": "function"
    },
    {
      "inputs": [
        {
          "internalType": "address",
          "name": "sender",
          "type": "address"
        },
        {
          "internalType": "address",
          "name": "recipient",
          "type": "address"
        },
        {
          "internalType": "uint256",
          "name": "amount",
          "type": "uint256"
        },
        {
          "internalType": "bytes",
          "name": "data",
          "type": "bytes"
        }
      ],
      "name": "safeTransferFrom",
      "outputs": [],
      "stateMutability": "nonpayable",
      "type": "function"
    },
    {
      "inputs": [
        {
          "internalType": "address",
          "name": "to",
          "type": "address"
        },
        {
          "internalType": "uint256",
          "name": "tokenAmount",
          "type": "uint256"
        }
      ],
      "name": "stake",
      "outputs": [
        {
          "internalType": "uint256",
          "name": "bondAmount",
          "type": "uint256"
        }
      ],
      "stateMutability": "nonpayable",
      "type": "function"
    },
    {
      "inputs": [
        {
          "internalType": "bytes4",
          "name": "interfaceId",
          "type": "bytes4"
        }
      ],
      "name": "supportsInterface",
      "outputs": [
        {
          "internalType": "bool",
          "name": "",
          "type": "bool"
        }
      ],
      "stateMutability": "view",
      "type": "function"
    },
    {
      "inputs": [],
      "name": "symbol",
      "outputs": [
        {
          "internalType": "string",
          "name": "",
          "type": "string"
        }
      ],
      "stateMutability": "view",
      "type": "function"
    },
    {
      "inputs": [
        {
          "internalType": "uint256",
          "name": "bondAmount",
          "type": "uint256"
        }
      ],
      "name": "toTokenAmount",
      "outputs": [
        {
          "internalType": "uint256",
          "name": "tokenAmount",
          "type": "uint256"
        }
      ],
      "stateMutability": "view",
      "type": "function"
    },
    {
      "inputs": [],
      "name": "token",
      "outputs": [
        {
          "internalType": "contract IKIP7",
          "name": "",
          "type": "address"
        }
      ],
      "stateMutability": "view",
      "type": "function"
    },
    {
      "inputs": [],
      "name": "totalSupply",
      "outputs": [
        {
          "internalType": "uint256",
          "name": "",
          "type": "uint256"
        }
      ],
      "stateMutability": "view",
      "type": "function"
    },
    {
      "inputs": [
        {
          "internalType": "address",
          "name": "recipient",
          "type": "address"
        },
        {
          "internalType": "uint256",
          "name": "amount",
          "type": "uint256"
        }
      ],
      "name": "transfer",
      "outputs": [
        {
          "internalType": "bool",
          "name": "",
          "type": "bool"
        }
      ],
      "stateMutability": "nonpayable",
      "type": "function"
    },
    {
      "inputs": [
        {
          "internalType": "address",
          "name": "sender",
          "type": "address"
        },
        {
          "internalType": "address",
          "name": "recipient",
          "type": "address"
        },
        {
          "internalType": "uint256",
          "name": "amount",
          "type": "uint256"
        }
      ],
      "name": "transferFrom",
      "outputs": [
        {
          "internalType": "bool",
          "name": "",
          "type": "bool"
        }
      ],
      "stateMutability": "nonpayable",
      "type": "function"
    },
    {
      "inputs": [
        {
          "internalType": "address",
          "name": "newOwner",
          "type": "address"
        }
      ],
      "name": "transferOwnership",
      "outputs": [],
      "stateMutability": "nonpayable",
      "type": "function"
    },
    {
      "inputs": [],
      "name": "unpause",
      "outputs": [],
      "stateMutability": "nonpayable",
      "type": "function"
    },
    {
      "inputs": [
        {
          "internalType": "address",
          "name": "to",
          "type": "address"
        },
        {
          "internalType": "uint256",
          "name": "bondAmount",
          "type": "uint256"
        }
      ],
      "name": "unstake",
      "outputs": [
        {
          "internalType": "uint256",
          "name": "tokenAmount",
          "type": "uint256"
        }
      ],
      "stateMutability": "nonpayable",
      "type": "function"
    },
    {
      "inputs": [],
      "name": "yieldFactory",
      "outputs": [
        {
          "internalType": "contract IYieldFactory",
          "name": "",
          "type": "address"
        }
      ],
      "stateMutability": "view",
      "type": "function"
    }
  ],
  "transactionHash": "0xb1a7cc9e6be77da3a10f8fcd8f24b4614d9d896f288254106e7270ef761011a7",
  "args": [],
  "solcInputHash": "de4f5741dec2c2b2fd1b551e118f3df0",
  "bytecode": "0x608060405234801561001057600080fd5b50612492806100206000396000f3fe608060405234801561001057600080fd5b50600436106102115760003560e01c806370a0823111610125578063adc9772e116100ad578063d547741f1161007c578063d547741f14610472578063dd62ed3e14610485578063eb795549146104be578063f2fde38b146104d1578063fc0c546a146104e457610211565b8063adc9772e14610426578063b88d4fde14610439578063c2a672e01461044c578063d366f3b91461045f57610211565b806391d14854116100f457806391d14854146103dd57806395d89b41146103f05780639dc29fac146103f8578063a217fddf1461040b578063a9059cbb1461041357610211565b806370a08231146103865780637214956f146103af5780637f1c942d146103c25780638456cb59146103d557610211565b80632f2ff15d116101a857806340c10f191161017757806340c10f191461033a578063423f6cef1461034d57806342842e0e146103605780635c975abb1461037357806361b904ad1461037e57610211565b80632f2ff15d146102f5578063313ce5671461030a57806336568abe1461031f5780633f4ba83a1461033257610211565b8063174e4ea6116101e4578063174e4ea61461029657806318160ddd146102b757806323b872dd146102bf578063248a9ca3146102d257610211565b806301ffc9a71461021657806306fdde031461023e578063095ea7b31461025357806316fd84f714610266575b600080fd5b61022961022436600461219a565b6104f7565b60405190151581526020015b60405180910390f35b61024661051a565b60405161023591906122ec565b6102296102613660046120bb565b6105ac565b60095461027e9061010090046001600160a01b031681565b6040516001600160a01b039091168152602001610235565b6102a96102a4366004612160565b6105f3565b604051908152602001610235565b6004546102a9565b6102296102cd36600461201a565b6106ae565b6102a96102e0366004612160565b60009081526008602052604090206001015490565b610308610303366004612178565b6106ec565b005b60075460405160ff9091168152602001610235565b61030861032d366004612178565b610717565b610308610795565b6102296103483660046120bb565b610833565b61030861035b3660046120bb565b61087d565b61030861036e36600461201a565b610897565b60095460ff16610229565b6103086108b2565b6102a9610394366004611fce565b6001600160a01b031660009081526002602052604090205490565b6102a96103bd366004612160565b610990565b6103086103d03660046121d2565b610a3a565b610308610ac6565b6102296103eb366004612178565b610b3a565b610246610b65565b6102296104063660046120bb565b610b74565b6102a9600081565b6102296104213660046120bb565b610bb5565b6102a96104343660046120bb565b610bea565b610308610447366004612055565b610e0d565b6102a961045a3660046120bb565b610e99565b61030861046d366004612178565b61101f565b610308610480366004612178565b611114565b6102a9610493366004611fe8565b6001600160a01b03918216600090815260036020908152604080832093909416825291909152205490565b6103086104cc3660046120e4565b61113a565b6103086104df366004611fce565b6111c3565b600a5461027e906001600160a01b031681565b6001600160e01b0319811660009081526001602052604090205460ff165b919050565b606060058054610529906123e5565b80601f0160208091040260200160405190810160405280929190818152602001828054610555906123e5565b80156105a25780601f10610577576101008083540402835291602001916105a2565b820191906000526020600020905b81548152906001019060200180831161058557829003601f168201915b5050505050905090565b60006105ba60095460ff1690565b156105e05760405162461bcd60e51b81526004016105d7906122ff565b60405180910390fd5b6105ea83836111f9565b90505b92915050565b600080600960019054906101000a90046001600160a01b03166001600160a01b0316631a39d8ef6040518163ffffffff1660e01b815260040160206040518083038186803b15801561064457600080fd5b505afa158015610658573d6000803e3d6000fd5b505050506040513d601f19601f8201168201806040525081019061067c919061224c565b90506000811161068e578291506106a8565b60045461069b82856123af565b6106a5919061238f565b91505b50919050565b60006106bc60095460ff1690565b156106d95760405162461bcd60e51b81526004016105d7906122ff565b6106e4848484611206565b949350505050565b6000828152600860205260409020600101546107088133611258565b61071283836112bc565b505050565b6001600160a01b03811633146107875760405162461bcd60e51b815260206004820152602f60248201527f416363657373436f6e74726f6c3a2063616e206f6e6c792072656e6f756e636560448201526e103937b632b9903337b91039b2b63360891b60648201526084016105d7565b6107918282611325565b5050565b60095460ff166107de5760405162461bcd60e51b815260206004820152601460248201527314185d5cd8589b194e881b9bdd081c185d5cd95960621b60448201526064016105d7565b653830bab9b2b960d11b6107f28133611258565b6009805460ff191690556040513381527f5db9ee0a495bf2e6ff9c91a7834c1ba4fdd244a5e8aa4e537bd38aeae4b073aa906020015b60405180910390a150565b60006108476430b236b4b760d91b33611258565b60095460ff161561086a5760405162461bcd60e51b81526004016105d7906122ff565b610874838361138c565b50600192915050565b61079182826040518060200160405280600081525061113a565b61071283838360405180602001604052806000815250610e0d565b600054610100900460ff16806108c75750303b155b806108d5575060005460ff16155b6108f15760405162461bcd60e51b81526004016105d790612329565b600054610100900460ff16158015610913576000805461ffff19166101011790555b61097b6040518060400160405280601e81526020017f626f6e646564204b6c617953776170204c50204b555344542d4b5553444300008152506040518060400160405280600f81526020016e624b534c504b555344544b5553444360881b8152506006610a3a565b801561098d576000805461ff00191690555b50565b600080600960019054906101000a90046001600160a01b03166001600160a01b0316631a39d8ef6040518163ffffffff1660e01b815260040160206040518083038186803b1580156109e157600080fd5b505afa1580156109f5573d6000803e3d6000fd5b505050506040513d601f19601f82011682018060405250810190610a19919061224c565b905060008111610a2b578291506106a8565b806004548461069b91906123af565b600054610100900460ff1680610a4f5750303b155b80610a5d575060005460ff16155b610a795760405162461bcd60e51b81526004016105d790612329565b600054610100900460ff16158015610a9b576000805461ffff19166101011790555b610aa684848461148a565b610aae6114f6565b8015610ac0576000805461ff00191690555b50505050565b60095460ff1615610ae95760405162461bcd60e51b81526004016105d7906122ff565b653830bab9b2b960d11b610afd8133611258565b6009805460ff191660011790556040513381527f62e78cea01bee320cd4e420270b5ea74000d11b0c9f74754ebdbfc544b05a25890602001610828565b60009182526008602090815260408084206001600160a01b0393909316845291905290205460ff1690565b606060068054610529906123e5565b6000610b886430b236b4b760d91b33611258565b60095460ff1615610bab5760405162461bcd60e51b81526004016105d7906122ff565b610874838361158d565b6000610bc360095460ff1690565b15610be05760405162461bcd60e51b81526004016105d7906122ff565b6105ea838361167e565b6000610bf860095460ff1690565b15610c155760405162461bcd60e51b81526004016105d7906122ff565b60008211610c25575060006105ed565b610c2e82610990565b9050610c3a838261138c565b600a546040516323b872dd60e01b8152336004820152306024820152604481018490526001600160a01b03909116906323b872dd90606401602060405180830381600087803b158015610c8c57600080fd5b505af1158015610ca0573d6000803e3d6000fd5b505050506040513d601f19601f82011682018060405250810190610cc49190612139565b50600a5460095460405163095ea7b360e01b81526001600160a01b03610100909204821660048201526024810185905291169063095ea7b390604401602060405180830381600087803b158015610d1a57600080fd5b505af1158015610d2e573d6000803e3d6000fd5b505050506040513d601f19601f82011682018060405250810190610d529190612139565b5060095460405163534a7e1d60e11b8152600481018490526101009091046001600160a01b03169063a694fc3a90602401600060405180830381600087803b158015610d9d57600080fd5b505af1158015610db1573d6000803e3d6000fd5b5050604080513381526001600160a01b0387166020820152908101859052606081018490527f63602d0ecc7b3a0ef7ff1a116e23056662d64280355ba8031b6d0d767c4b4458925060800190505b60405180910390a192915050565b610e188484846106ae565b50610e258484848461168b565b610ac0576040805162461bcd60e51b81526020600482015260248101919091527f4b4950373a3a736166655472616e7366657246726f6d3a207472616e7366657260448201527f20746f206e6f6e204b495037526563656976657220696d706c656d656e74657260648201526084016105d7565b6000610ea760095460ff1690565b15610ec45760405162461bcd60e51b81526004016105d7906122ff565b60008211610ed4575060006105ed565b610edd826105f3565b9050610ee9338361158d565b6009546040516305c2fbcf60e31b8152600481018390526101009091046001600160a01b031690632e17de7890602401600060405180830381600087803b158015610f3357600080fd5b505af1158015610f47573d6000803e3d6000fd5b5050600a5460405163a9059cbb60e01b81526001600160a01b03878116600483015260248201869052909116925063a9059cbb9150604401602060405180830381600087803b158015610f9957600080fd5b505af1158015610fad573d6000803e3d6000fd5b505050506040513d601f19601f82011682018060405250810190610fd19190612139565b50604080513381526001600160a01b0385166020820152908101829052606081018390527f18edd09e80386cd99df397e2e0d87d2bb259423eae08645e776321a36fe680ef90608001610dff565b6110316430b236b4b760d91b33611258565b60095460ff16156110545760405162461bcd60e51b81526004016105d7906122ff565b816b7969656c64466163746f727960a01b14156110905760098054610100600160a81b0319166101006001600160a01b03841602179055610791565b81643a37b5b2b760d91b14156110c057600a80546001600160a01b0319166001600160a01b038316179055610791565b60405162461bcd60e51b8152602060048201526024808201527f42617365426f6e643a3a636f6e6669673a20756e7265636f676e697a65642d706044820152636172616d60e01b60648201526084016105d7565b6000828152600860205260409020600101546111308133611258565b6107128383611325565b6111448383610bb5565b506111513384848461168b565b6107125760405162461bcd60e51b815260206004820152603c60248201527f4b4950373a3a736166655472616e736665723a207472616e7366657220746f2060448201527f6e6f6e204b495037526563656976657220696d706c656d656e7465720000000060648201526084016105d7565b6111d56437bbb732b960d91b33611258565b6111e76437bbb732b960d91b826112bc565b61098d6437bbb732b960d91b33611325565b6000610874338484611749565b6000611213848484611881565b6001600160a01b03841660009081526003602090815260408083203380855292529091205461124e9186916112499086906123ce565b611749565b5060019392505050565b6112628282610b3a565b6107915760405162461bcd60e51b815260206004820152602560248201527f416363657373436f6e74726f6c3a5f636865636b526f6c653a696e76616c696460448201526420726f6c6560d81b60648201526084016105d7565b6112c68282610b3a565b6107915760008281526008602090815260408083206001600160a01b0385168085529252808320805460ff1916600117905551339285917f2f8788117e7eff1d82e926ec794901d17c78024a50270940304540a733656f0d9190a45050565b61132f8282610b3a565b156107915760008281526008602090815260408083206001600160a01b0385168085529252808320805460ff1916905551339285917ff6391f5c32d9c69d2a47ea670b442974b53935d1edc7fd64eb21e047a839171b9190a45050565b6001600160a01b0382166113f85760405162461bcd60e51b815260206004820152602d60248201527f4b495037457874656e6465643a3a5f6d696e743a206d696e7420746f2074686560448201526c207a65726f206164647265737360981b60648201526084016105d7565b806004546114069190612377565b6004556001600160a01b03821660009081526002602052604090205461142d908290612377565b6001600160a01b0383166000818152600260205260408082209390935591519091907fddf252ad1be2c89b69c2b068fc378daa952ba7f163c4a11628f55a4df523b3ef9061147e9085815260200190565b60405180910390a35050565b600054610100900460ff168061149f5750303b155b806114ad575060005460ff16155b6114c95760405162461bcd60e51b81526004016105d790612329565b600054610100900460ff161580156114eb576000805461ffff19166101011790555b610aa6848484611a03565b600054610100900460ff168061150b5750303b155b80611519575060005460ff16155b6115355760405162461bcd60e51b81526004016105d790612329565b600054610100900460ff16158015611557576000805461ffff19166101011790555b61155f611a77565b61157a653830bab9b2b960d11b6437bbb732b960d91b611ae0565b61097b653830bab9b2b960d11b33611b2b565b6001600160a01b0382166115fb5760405162461bcd60e51b815260206004820152602f60248201527f4b495037457874656e6465643a3a5f6275726e3a206275726e2066726f6d207460448201526e6865207a65726f206164647265737360881b60648201526084016105d7565b8060045461160991906123ce565b6004556001600160a01b0382166000908152600260205260409020546116309082906123ce565b6001600160a01b0383166000818152600260205260408082209390935591517fddf252ad1be2c89b69c2b068fc378daa952ba7f163c4a11628f55a4df523b3ef9061147e9085815260200190565b6000610874338484611881565b60006001600160a01b0384163b6116a4575060016106e4565b604051634e8c461160e11b81526000906001600160a01b03861690639d188c22906116d99033908a90899089906004016122af565b602060405180830381600087803b1580156116f357600080fd5b505af1158015611707573d6000803e3d6000fd5b505050506040513d601f19601f8201168201806040525081019061172b91906121b6565b6001600160e01b031916634e8c461160e11b14915050949350505050565b6001600160a01b0383166117b55760405162461bcd60e51b815260206004820152602d60248201527f4b4950373a3a5f617070726f76653a20617070726f76652066726f6d2074686560448201526c207a65726f206164647265737360981b60648201526084016105d7565b6001600160a01b03821661181f5760405162461bcd60e51b815260206004820152602b60248201527f4b4950373a3a5f617070726f76653a20617070726f766520746f20746865207a60448201526a65726f206164647265737360a81b60648201526084016105d7565b6001600160a01b0383811660008181526003602090815260408083209487168084529482529182902085905590518481527f8c5be1e5ebec7d5bd14f71427d1e84f3dd0314c0f7b2291e5b200ac8c7c3b92591015b60405180910390a3505050565b6001600160a01b0383166118ef5760405162461bcd60e51b815260206004820152602f60248201527f4b4950373a3a5f7472616e736665723a207472616e736665722066726f6d207460448201526e6865207a65726f206164647265737360881b60648201526084016105d7565b6001600160a01b03821661195b5760405162461bcd60e51b815260206004820152602d60248201527f4b4950373a3a5f7472616e736665723a207472616e7366657220746f2074686560448201526c207a65726f206164647265737360981b60648201526084016105d7565b6001600160a01b03831660009081526002602052604090205461197f9082906123ce565b6001600160a01b0380851660009081526002602052604080822093909355908416815220546119af908290612377565b6001600160a01b0380841660008181526002602052604090819020939093559151908516907fddf252ad1be2c89b69c2b068fc378daa952ba7f163c4a11628f55a4df523b3ef906118749085815260200190565b600054610100900460ff1680611a185750303b155b80611a26575060005460ff16155b611a425760405162461bcd60e51b81526004016105d790612329565b600054610100900460ff16158015611a64576000805461ffff19166101011790555b611a6c611b35565b610aae848484611ba6565b600054610100900460ff1680611a8c5750303b155b80611a9a575060005460ff16155b611ab65760405162461bcd60e51b81526004016105d790612329565b600054610100900460ff16158015611ad8576000805461ffff19166101011790555b61097b611c4e565b600082815260086020526040808220600101805490849055905190918391839186917fbd79b86ffe0ab8e8776151514217cd7cacd52c909f66475c3af44e129f0b00ff9190a4505050565b61079182826112bc565b600054610100900460ff1680611b4a5750303b155b80611b58575060005460ff16155b611b745760405162461bcd60e51b81526004016105d790612329565b600054610100900460ff16158015611b96576000805461ffff19166101011790555b611b9e611d1f565b61097b611d90565b600054610100900460ff1680611bbb5750303b155b80611bc9575060005460ff16155b611be55760405162461bcd60e51b81526004016105d790612329565b600054610100900460ff16158015611c07576000805461ffff19166101011790555b8351611c1a906005906020870190611e97565b508251611c2e906006906020860190611e97565b506007805460ff191660ff8416179055610aae63a219a02560e01b611dfd565b600054610100900460ff1680611c635750303b155b80611c71575060005460ff16155b611c8d5760405162461bcd60e51b81526004016105d790612329565b600054610100900460ff16158015611caf576000805461ffff19166101011790555b611cc16437bbb732b960d91b33611b2b565b611cdb6430b236b4b760d91b6437bbb732b960d91b611ae0565b611cf86737b832b930ba37b960c11b6437bbb732b960d91b611ae0565b611d0a6430b236b4b760d91b33611b2b565b61097b6737b832b930ba37b960c11b33611b2b565b600054610100900460ff1680611d345750303b155b80611d42575060005460ff16155b611d5e5760405162461bcd60e51b81526004016105d790612329565b600054610100900460ff16158015611d80576000805461ffff19166101011790555b61097b6301ffc9a760e01b611dfd565b600054610100900460ff1680611da55750303b155b80611db3575060005460ff16155b611dcf5760405162461bcd60e51b81526004016105d790612329565b600054610100900460ff16158015611df1576000805461ffff19166101011790555b61097b636578737160e01b5b6001600160e01b03198082161415611e6f5760405162461bcd60e51b815260206004820152602f60248201527f4b495031333a3a5f7265676973746572496e746572666163653a20696e76616c60448201526e1a59081a5b9d195c999858d9481a59608a1b60648201526084016105d7565b6001600160e01b0319166000908152600160208190526040909120805460ff19169091179055565b828054611ea3906123e5565b90600052602060002090601f016020900481019282611ec55760008555611f0b565b82601f10611ede57805160ff1916838001178555611f0b565b82800160010185558215611f0b579182015b82811115611f0b578251825591602001919060010190611ef0565b50611f17929150611f1b565b5090565b5b80821115611f175760008155600101611f1c565b80356001600160a01b038116811461051557600080fd5b600082601f830112611f57578081fd5b813567ffffffffffffffff80821115611f7257611f72612430565b604051601f8301601f19908116603f01168101908282118183101715611f9a57611f9a612430565b81604052838152866020858801011115611fb2578485fd5b8360208701602083013792830160200193909352509392505050565b600060208284031215611fdf578081fd5b6105ea82611f30565b60008060408385031215611ffa578081fd5b61200383611f30565b915061201160208401611f30565b90509250929050565b60008060006060848603121561202e578081fd5b61203784611f30565b925061204560208501611f30565b9150604084013590509250925092565b6000806000806080858703121561206a578081fd5b61207385611f30565b935061208160208601611f30565b925060408501359150606085013567ffffffffffffffff8111156120a3578182fd5b6120af87828801611f47565b91505092959194509250565b600080604083850312156120cd578182fd5b6120d683611f30565b946020939093013593505050565b6000806000606084860312156120f8578283fd5b61210184611f30565b925060208401359150604084013567ffffffffffffffff811115612123578182fd5b61212f86828701611f47565b9150509250925092565b60006020828403121561214a578081fd5b81518015158114612159578182fd5b9392505050565b600060208284031215612171578081fd5b5035919050565b6000806040838503121561218a578182fd5b8235915061201160208401611f30565b6000602082840312156121ab578081fd5b813561215981612446565b6000602082840312156121c7578081fd5b815161215981612446565b6000806000606084860312156121e6578283fd5b833567ffffffffffffffff808211156121fd578485fd5b61220987838801611f47565b9450602086013591508082111561221e578384fd5b5061222b86828701611f47565b925050604084013560ff81168114612241578182fd5b809150509250925092565b60006020828403121561225d578081fd5b5051919050565b60008151808452815b818110156122895760208185018101518683018201520161226d565b8181111561229a5782602083870101525b50601f01601f19169290920160200192915050565b6001600160a01b03858116825284166020820152604081018390526080606082018190526000906122e290830184612264565b9695505050505050565b6000602082526105ea6020830184612264565b60208082526010908201526f14185d5cd8589b194e881c185d5cd95960821b604082015260600190565b6020808252602e908201527f496e697469616c697a61626c653a20636f6e747261637420697320616c72656160408201526d191e481a5b9a5d1a585b1a5e995960921b606082015260800190565b6000821982111561238a5761238a61241a565b500190565b6000826123aa57634e487b7160e01b81526012600452602481fd5b500490565b60008160001904831182151516156123c9576123c961241a565b500290565b6000828210156123e0576123e061241a565b500390565b600181811c908216806123f957607f821691505b602082108114156106a857634e487b7160e01b600052602260045260246000fd5b634e487b7160e01b600052601160045260246000fd5b634e487b7160e01b600052604160045260246000fd5b6001600160e01b03198116811461098d57600080fdfea2646970667358221220b5bd8505f6e296c28792dbe1a19a78eb5e647e72c59de497dc373c6f18ddcc9564736f6c63430008030033",
  "devdoc": {
    "kind": "dev",
    "methods": {},
    "version": 1
  },
  "userdoc": {
    "kind": "user",
    "methods": {
      "fromTokenAmount(uint256)": {
        "notice": "Calculate bond amount corresponding to the given token amount"
      },
      "stake(address,uint256)": {
        "notice": "Stake token to this contract and return bond."
      },
      "toTokenAmount(uint256)": {
        "notice": "Calculate token amount corresponding to the given bond amount"
      },
      "unstake(address,uint256)": {
        "notice": "Untake to return staked token."
      }
    },
    "version": 1
  },
  "storageLayout": {
    "storage": [
      {
        "astId": 24885,
        "contract": "contracts/collateral/KSLPKUSDTKUSDC/BKSLPKUSDTKUSDC.sol:BKSLPKUSDTKUSDC",
        "label": "_initialized",
        "offset": 0,
        "slot": "0",
        "type": "t_bool"
      },
      {
        "astId": 24888,
        "contract": "contracts/collateral/KSLPKUSDTKUSDC/BKSLPKUSDTKUSDC.sol:BKSLPKUSDTKUSDC",
        "label": "_initializing",
        "offset": 1,
        "slot": "0",
        "type": "t_bool"
      },
      {
        "astId": 22840,
        "contract": "contracts/collateral/KSLPKUSDTKUSDC/BKSLPKUSDTKUSDC.sol:BKSLPKUSDTKUSDC",
        "label": "_supportedInterfaces",
        "offset": 0,
        "slot": "1",
        "type": "t_mapping(t_bytes4,t_bool)"
      },
      {
        "astId": 22904,
        "contract": "contracts/collateral/KSLPKUSDTKUSDC/BKSLPKUSDTKUSDC.sol:BKSLPKUSDTKUSDC",
        "label": "_balances",
        "offset": 0,
        "slot": "2",
        "type": "t_mapping(t_address,t_uint256)"
      },
      {
        "astId": 22910,
        "contract": "contracts/collateral/KSLPKUSDTKUSDC/BKSLPKUSDTKUSDC.sol:BKSLPKUSDTKUSDC",
        "label": "_allowances",
        "offset": 0,
        "slot": "3",
        "type": "t_mapping(t_address,t_mapping(t_address,t_uint256))"
      },
      {
        "astId": 22912,
        "contract": "contracts/collateral/KSLPKUSDTKUSDC/BKSLPKUSDTKUSDC.sol:BKSLPKUSDTKUSDC",
        "label": "_totalSupply",
        "offset": 0,
        "slot": "4",
        "type": "t_uint256"
      },
      {
        "astId": 23292,
        "contract": "contracts/collateral/KSLPKUSDTKUSDC/BKSLPKUSDTKUSDC.sol:BKSLPKUSDTKUSDC",
        "label": "_name",
        "offset": 0,
        "slot": "5",
        "type": "t_string_storage"
      },
      {
        "astId": 23294,
        "contract": "contracts/collateral/KSLPKUSDTKUSDC/BKSLPKUSDTKUSDC.sol:BKSLPKUSDTKUSDC",
        "label": "_symbol",
        "offset": 0,
        "slot": "6",
        "type": "t_string_storage"
      },
      {
        "astId": 23296,
        "contract": "contracts/collateral/KSLPKUSDTKUSDC/BKSLPKUSDTKUSDC.sol:BKSLPKUSDTKUSDC",
        "label": "_decimals",
        "offset": 0,
        "slot": "7",
        "type": "t_uint8"
      },
      {
        "astId": 21831,
        "contract": "contracts/collateral/KSLPKUSDTKUSDC/BKSLPKUSDTKUSDC.sol:BKSLPKUSDTKUSDC",
        "label": "_roles",
        "offset": 0,
        "slot": "8",
        "type": "t_mapping(t_bytes32,t_struct(RoleData)21826_storage)"
      },
      {
        "astId": 22221,
        "contract": "contracts/collateral/KSLPKUSDTKUSDC/BKSLPKUSDTKUSDC.sol:BKSLPKUSDTKUSDC",
        "label": "_paused",
        "offset": 0,
        "slot": "9",
        "type": "t_bool"
      },
      {
        "astId": 20371,
        "contract": "contracts/collateral/KSLPKUSDTKUSDC/BKSLPKUSDTKUSDC.sol:BKSLPKUSDTKUSDC",
        "label": "yieldFactory",
        "offset": 1,
        "slot": "9",
        "type": "t_contract(IYieldFactory)9693"
      },
      {
        "astId": 20374,
        "contract": "contracts/collateral/KSLPKUSDTKUSDC/BKSLPKUSDTKUSDC.sol:BKSLPKUSDTKUSDC",
        "label": "token",
        "offset": 0,
        "slot": "10",
        "type": "t_contract(IKIP7)9935"
      }
    ],
    "types": {
      "t_address": {
        "encoding": "inplace",
        "label": "address",
        "numberOfBytes": "20"
      },
      "t_bool": {
        "encoding": "inplace",
        "label": "bool",
        "numberOfBytes": "1"
      },
      "t_bytes32": {
        "encoding": "inplace",
        "label": "bytes32",
        "numberOfBytes": "32"
      },
      "t_bytes4": {
        "encoding": "inplace",
        "label": "bytes4",
        "numberOfBytes": "4"
      },
      "t_contract(IKIP7)9935": {
        "encoding": "inplace",
        "label": "contract IKIP7",
        "numberOfBytes": "20"
      },
      "t_contract(IYieldFactory)9693": {
        "encoding": "inplace",
        "label": "contract IYieldFactory",
        "numberOfBytes": "20"
      },
      "t_mapping(t_address,t_bool)": {
        "encoding": "mapping",
        "key": "t_address",
        "label": "mapping(address => bool)",
        "numberOfBytes": "32",
        "value": "t_bool"
      },
      "t_mapping(t_address,t_mapping(t_address,t_uint256))": {
        "encoding": "mapping",
        "key": "t_address",
        "label": "mapping(address => mapping(address => uint256))",
        "numberOfBytes": "32",
        "value": "t_mapping(t_address,t_uint256)"
      },
      "t_mapping(t_address,t_uint256)": {
        "encoding": "mapping",
        "key": "t_address",
        "label": "mapping(address => uint256)",
        "numberOfBytes": "32",
        "value": "t_uint256"
      },
      "t_mapping(t_bytes32,t_struct(RoleData)21826_storage)": {
        "encoding": "mapping",
        "key": "t_bytes32",
        "label": "mapping(bytes32 => struct AccessControl.RoleData)",
        "numberOfBytes": "32",
        "value": "t_struct(RoleData)21826_storage"
      },
      "t_mapping(t_bytes4,t_bool)": {
        "encoding": "mapping",
        "key": "t_bytes4",
        "label": "mapping(bytes4 => bool)",
        "numberOfBytes": "32",
        "value": "t_bool"
      },
      "t_string_storage": {
        "encoding": "bytes",
        "label": "string",
        "numberOfBytes": "32"
      },
      "t_struct(RoleData)21826_storage": {
        "encoding": "inplace",
        "label": "struct AccessControl.RoleData",
        "members": [
          {
            "astId": 21823,
            "contract": "contracts/collateral/KSLPKUSDTKUSDC/BKSLPKUSDTKUSDC.sol:BKSLPKUSDTKUSDC",
            "label": "members",
            "offset": 0,
            "slot": "0",
            "type": "t_mapping(t_address,t_bool)"
          },
          {
            "astId": 21825,
            "contract": "contracts/collateral/KSLPKUSDTKUSDC/BKSLPKUSDTKUSDC.sol:BKSLPKUSDTKUSDC",
            "label": "adminRole",
            "offset": 0,
            "slot": "1",
            "type": "t_bytes32"
          }
        ],
        "numberOfBytes": "64"
      },
      "t_uint256": {
        "encoding": "inplace",
        "label": "uint256",
        "numberOfBytes": "32"
      },
      "t_uint8": {
        "encoding": "inplace",
        "label": "uint8",
        "numberOfBytes": "1"
      }
    }
  }
}