{
  "address": "0x56Bb1c780c782901aD3CaE723bDa0Ef3880EDB78",
  "abi": [
    {
      "anonymous": false,
      "inputs": [
        {
          "indexed": false,
          "internalType": "uint256",
          "name": "id",
          "type": "uint256"
        }
      ],
      "name": "Cancel",
      "type": "event"
    },
    {
      "anonymous": false,
      "inputs": [
        {
          "indexed": true,
          "internalType": "bytes32",
          "name": "what",
          "type": "bytes32"
        },
        {
          "indexed": false,
          "internalType": "uint256",
          "name": "data",
          "type": "uint256"
        }
      ],
      "name": "Config",
      "type": "event"
    },
    {
      "anonymous": false,
      "inputs": [
        {
          "indexed": true,
          "internalType": "bytes32",
          "name": "what",
          "type": "bytes32"
        },
        {
          "indexed": false,
          "internalType": "address",
          "name": "data",
          "type": "address"
        }
      ],
      "name": "Config",
      "type": "event"
    },
    {
      "anonymous": false,
      "inputs": [
        {
          "indexed": false,
          "internalType": "address",
          "name": "account",
          "type": "address"
        }
      ],
      "name": "Paused",
      "type": "event"
    },
    {
      "anonymous": false,
      "inputs": [
        {
          "indexed": true,
          "internalType": "uint256",
          "name": "id",
          "type": "uint256"
        },
        {
          "indexed": false,
          "internalType": "uint256",
          "name": "startPrice",
          "type": "uint256"
        },
        {
          "indexed": false,
          "internalType": "uint256",
          "name": "raiseAmount",
          "type": "uint256"
        },
        {
          "indexed": false,
          "internalType": "uint256",
          "name": "sellAmount",
          "type": "uint256"
        },
        {
          "indexed": true,
          "internalType": "address",
          "name": "vaultOwner",
          "type": "address"
        },
        {
          "indexed": true,
          "internalType": "address",
          "name": "keeper",
          "type": "address"
        },
        {
          "indexed": false,
          "internalType": "uint256",
          "name": "coin",
          "type": "uint256"
        }
      ],
      "name": "Redo",
      "type": "event"
    },
    {
      "anonymous": false,
      "inputs": [
        {
          "indexed": true,
          "internalType": "bytes32",
          "name": "role",
          "type": "bytes32"
        },
        {
          "indexed": true,
          "internalType": "bytes32",
          "name": "previousAdminRole",
          "type": "bytes32"
        },
        {
          "indexed": true,
          "internalType": "bytes32",
          "name": "newAdminRole",
          "type": "bytes32"
        }
      ],
      "name": "RoleAdminChanged",
      "type": "event"
    },
    {
      "anonymous": false,
      "inputs": [
        {
          "indexed": true,
          "internalType": "bytes32",
          "name": "role",
          "type": "bytes32"
        },
        {
          "indexed": true,
          "internalType": "address",
          "name": "account",
          "type": "address"
        },
        {
          "indexed": true,
          "internalType": "address",
          "name": "sender",
          "type": "address"
        }
      ],
      "name": "RoleGranted",
      "type": "event"
    },
    {
      "anonymous": false,
      "inputs": [
        {
          "indexed": true,
          "internalType": "bytes32",
          "name": "role",
          "type": "bytes32"
        },
        {
          "indexed": true,
          "internalType": "address",
          "name": "account",
          "type": "address"
        },
        {
          "indexed": true,
          "internalType": "address",
          "name": "sender",
          "type": "address"
        }
      ],
      "name": "RoleRevoked",
      "type": "event"
    },
    {
      "anonymous": false,
      "inputs": [
        {
          "indexed": true,
          "internalType": "uint256",
          "name": "id",
          "type": "uint256"
        },
        {
          "indexed": false,
          "internalType": "uint256",
          "name": "startPrice",
          "type": "uint256"
        },
        {
          "indexed": false,
          "internalType": "uint256",
          "name": "raiseAmount",
          "type": "uint256"
        },
        {
          "indexed": false,
          "internalType": "uint256",
          "name": "sellAmount",
          "type": "uint256"
        },
        {
          "indexed": true,
          "internalType": "address",
          "name": "vaultOwner",
          "type": "address"
        },
        {
          "indexed": true,
          "internalType": "address",
          "name": "keeper",
          "type": "address"
        },
        {
          "indexed": false,
          "internalType": "uint256",
          "name": "coin",
          "type": "uint256"
        }
      ],
      "name": "Start",
      "type": "event"
    },
    {
      "anonymous": false,
      "inputs": [
        {
          "indexed": true,
          "internalType": "uint256",
          "name": "id",
          "type": "uint256"
        },
        {
          "indexed": false,
          "internalType": "uint256",
          "name": "max",
          "type": "uint256"
        },
        {
          "indexed": false,
          "internalType": "uint256",
          "name": "price",
          "type": "uint256"
        },
        {
          "indexed": false,
          "internalType": "uint256",
          "name": "owe",
          "type": "uint256"
        },
        {
          "indexed": false,
          "internalType": "uint256",
          "name": "raiseAmount",
          "type": "uint256"
        },
        {
          "indexed": false,
          "internalType": "uint256",
          "name": "sellAmount",
          "type": "uint256"
        },
        {
          "indexed": true,
          "internalType": "address",
          "name": "vaultOwner",
          "type": "address"
        }
      ],
      "name": "Take",
      "type": "event"
    },
    {
      "anonymous": false,
      "inputs": [
        {
          "indexed": false,
          "internalType": "address",
          "name": "account",
          "type": "address"
        }
      ],
      "name": "Unpaused",
      "type": "event"
    },
    {
      "inputs": [],
      "name": "DEFAULT_ADMIN_ROLE",
      "outputs": [
        {
          "internalType": "bytes32",
          "name": "",
          "type": "bytes32"
        }
      ],
      "stateMutability": "view",
      "type": "function"
    },
    {
      "inputs": [
        {
          "internalType": "address",
          "name": "ledger_",
          "type": "address"
        },
        {
          "internalType": "address",
          "name": "oracle_",
          "type": "address"
        },
        {
          "internalType": "address",
          "name": "liquidator_",
          "type": "address"
        },
        {
          "internalType": "bytes32",
          "name": "collateralType_",
          "type": "bytes32"
        }
      ],
      "name": "__AuctionHouse_init",
      "outputs": [],
      "stateMutability": "nonpayable",
      "type": "function"
    },
    {
      "inputs": [
        {
          "internalType": "address",
          "name": "ledger_",
          "type": "address"
        },
        {
          "internalType": "address",
          "name": "oracle_",
          "type": "address"
        },
        {
          "internalType": "address",
          "name": "liquidator_",
          "type": "address"
        }
      ],
      "name": "__BKSLPKXRPKDAIAuctionHouse_init",
      "outputs": [],
      "stateMutability": "nonpayable",
      "type": "function"
    },
    {
      "inputs": [],
      "name": "__legacy",
      "outputs": [
        {
          "internalType": "uint256",
          "name": "",
          "type": "uint256"
        }
      ],
      "stateMutability": "view",
      "type": "function"
    },
    {
      "inputs": [
        {
          "internalType": "uint256",
          "name": "",
          "type": "uint256"
        }
      ],
      "name": "active",
      "outputs": [
        {
          "internalType": "uint256",
          "name": "",
          "type": "uint256"
        }
      ],
      "stateMutability": "view",
      "type": "function"
    },
    {
      "inputs": [],
      "name": "bound",
      "outputs": [
        {
          "internalType": "uint256",
          "name": "",
          "type": "uint256"
        }
      ],
      "stateMutability": "view",
      "type": "function"
    },
    {
      "inputs": [],
      "name": "buf",
      "outputs": [
        {
          "internalType": "uint256",
          "name": "",
          "type": "uint256"
        }
      ],
      "stateMutability": "view",
      "type": "function"
    },
    {
      "inputs": [
        {
          "internalType": "uint256",
          "name": "id",
          "type": "uint256"
        }
      ],
      "name": "cancel",
      "outputs": [],
      "stateMutability": "nonpayable",
      "type": "function"
    },
    {
      "inputs": [],
      "name": "cnt",
      "outputs": [
        {
          "internalType": "uint256",
          "name": "",
          "type": "uint256"
        }
      ],
      "stateMutability": "view",
      "type": "function"
    },
    {
      "inputs": [],
      "name": "collateralType",
      "outputs": [
        {
          "internalType": "bytes32",
          "name": "",
          "type": "bytes32"
        }
      ],
      "stateMutability": "view",
      "type": "function"
    },
    {
      "inputs": [
        {
          "internalType": "bytes32",
          "name": "what",
          "type": "bytes32"
        },
        {
          "internalType": "address",
          "name": "data",
          "type": "address"
        }
      ],
      "name": "config",
      "outputs": [],
      "stateMutability": "nonpayable",
      "type": "function"
    },
    {
      "inputs": [
        {
          "internalType": "bytes32",
          "name": "what",
          "type": "bytes32"
        },
        {
          "internalType": "uint256",
          "name": "data",
          "type": "uint256"
        }
      ],
      "name": "config",
      "outputs": [],
      "stateMutability": "nonpayable",
      "type": "function"
    },
    {
      "inputs": [],
      "name": "constIncentive",
      "outputs": [
        {
          "internalType": "uint192",
          "name": "",
          "type": "uint192"
        }
      ],
      "stateMutability": "view",
      "type": "function"
    },
    {
      "inputs": [],
      "name": "count",
      "outputs": [
        {
          "internalType": "uint256",
          "name": "",
          "type": "uint256"
        }
      ],
      "stateMutability": "view",
      "type": "function"
    },
    {
      "inputs": [],
      "name": "dropLimit",
      "outputs": [
        {
          "internalType": "uint256",
          "name": "",
          "type": "uint256"
        }
      ],
      "stateMutability": "view",
      "type": "function"
    },
    {
      "inputs": [
        {
          "internalType": "bytes32",
          "name": "role",
          "type": "bytes32"
        }
      ],
      "name": "getRoleAdmin",
      "outputs": [
        {
          "internalType": "bytes32",
          "name": "",
          "type": "bytes32"
        }
      ],
      "stateMutability": "view",
      "type": "function"
    },
    {
      "inputs": [
        {
          "internalType": "uint256",
          "name": "id",
          "type": "uint256"
        }
      ],
      "name": "getStatus",
      "outputs": [
        {
          "internalType": "bool",
          "name": "needsRedo",
          "type": "bool"
        },
        {
          "internalType": "uint256",
          "name": "price",
          "type": "uint256"
        },
        {
          "internalType": "uint256",
          "name": "sellAmount",
          "type": "uint256"
        },
        {
          "internalType": "uint256",
          "name": "raiseAmount",
          "type": "uint256"
        }
      ],
      "stateMutability": "view",
      "type": "function"
    },
    {
      "inputs": [
        {
          "internalType": "bytes32",
          "name": "role",
          "type": "bytes32"
        },
        {
          "internalType": "address",
          "name": "account",
          "type": "address"
        }
      ],
      "name": "grantRole",
      "outputs": [],
      "stateMutability": "nonpayable",
      "type": "function"
    },
    {
      "inputs": [
        {
          "internalType": "bytes32",
          "name": "role",
          "type": "bytes32"
        },
        {
          "internalType": "address",
          "name": "account",
          "type": "address"
        }
      ],
      "name": "hasRole",
      "outputs": [
        {
          "internalType": "bool",
          "name": "",
          "type": "bool"
        }
      ],
      "stateMutability": "view",
      "type": "function"
    },
    {
      "inputs": [],
      "name": "ledger",
      "outputs": [
        {
          "internalType": "contract ILedger",
          "name": "",
          "type": "address"
        }
      ],
      "stateMutability": "view",
      "type": "function"
    },
    {
      "inputs": [],
      "name": "liquidator",
      "outputs": [
        {
          "internalType": "contract ILiquidator",
          "name": "",
          "type": "address"
        }
      ],
      "stateMutability": "view",
      "type": "function"
    },
    {
      "inputs": [],
      "name": "list",
      "outputs": [
        {
          "internalType": "uint256[]",
          "name": "",
          "type": "uint256[]"
        }
      ],
      "stateMutability": "view",
      "type": "function"
    },
    {
      "inputs": [],
      "name": "minusBank",
      "outputs": [
        {
          "internalType": "address",
          "name": "",
          "type": "address"
        }
      ],
      "stateMutability": "view",
      "type": "function"
    },
    {
      "inputs": [],
      "name": "oracle",
      "outputs": [
        {
          "internalType": "contract IOracle",
          "name": "",
          "type": "address"
        }
      ],
      "stateMutability": "view",
      "type": "function"
    },
    {
      "inputs": [],
      "name": "pause",
      "outputs": [],
      "stateMutability": "nonpayable",
      "type": "function"
    },
    {
      "inputs": [],
      "name": "paused",
      "outputs": [
        {
          "internalType": "bool",
          "name": "",
          "type": "bool"
        }
      ],
      "stateMutability": "view",
      "type": "function"
    },
    {
      "inputs": [],
      "name": "ratioIncentive",
      "outputs": [
        {
          "internalType": "uint64",
          "name": "",
          "type": "uint64"
        }
      ],
      "stateMutability": "view",
      "type": "function"
    },
    {
      "inputs": [
        {
          "internalType": "uint256",
          "name": "id",
          "type": "uint256"
        },
        {
          "internalType": "address",
          "name": "keeper",
          "type": "address"
        }
      ],
      "name": "redo",
      "outputs": [],
      "stateMutability": "nonpayable",
      "type": "function"
    },
    {
      "inputs": [
        {
          "internalType": "bytes32",
          "name": "role",
          "type": "bytes32"
        },
        {
          "internalType": "address",
          "name": "account",
          "type": "address"
        }
      ],
      "name": "renounceRole",
      "outputs": [],
      "stateMutability": "nonpayable",
      "type": "function"
    },
    {
      "inputs": [
        {
          "internalType": "bytes32",
          "name": "role",
          "type": "bytes32"
        },
        {
          "internalType": "address",
          "name": "account",
          "type": "address"
        }
      ],
      "name": "revokeRole",
      "outputs": [],
      "stateMutability": "nonpayable",
      "type": "function"
    },
    {
      "inputs": [
        {
          "internalType": "uint256",
          "name": "",
          "type": "uint256"
        }
      ],
      "name": "sales",
      "outputs": [
        {
          "internalType": "uint256",
          "name": "index",
          "type": "uint256"
        },
        {
          "internalType": "uint256",
          "name": "raiseAmount",
          "type": "uint256"
        },
        {
          "internalType": "uint256",
          "name": "sellAmount",
          "type": "uint256"
        },
        {
          "internalType": "address",
          "name": "vaultOwner",
          "type": "address"
        },
        {
          "internalType": "uint96",
          "name": "startTime",
          "type": "uint96"
        },
        {
          "internalType": "uint256",
          "name": "startPrice",
          "type": "uint256"
        }
      ],
      "stateMutability": "view",
      "type": "function"
    },
    {
      "inputs": [],
      "name": "schedule",
      "outputs": [
        {
          "internalType": "contract ISchedule",
          "name": "",
          "type": "address"
        }
      ],
      "stateMutability": "view",
      "type": "function"
    },
    {
      "inputs": [
        {
          "internalType": "uint256",
          "name": "raiseAmount",
          "type": "uint256"
        },
        {
          "internalType": "uint256",
          "name": "sellAmount",
          "type": "uint256"
        },
        {
          "internalType": "address",
          "name": "vaultOwner",
          "type": "address"
        },
        {
          "internalType": "address",
          "name": "keeper",
          "type": "address"
        }
      ],
      "name": "start",
      "outputs": [
        {
          "internalType": "uint256",
          "name": "id",
          "type": "uint256"
        }
      ],
      "stateMutability": "nonpayable",
      "type": "function"
    },
    {
      "inputs": [],
      "name": "stopped",
      "outputs": [
        {
          "internalType": "uint256",
          "name": "",
          "type": "uint256"
        }
      ],
      "stateMutability": "view",
      "type": "function"
    },
    {
      "inputs": [
        {
          "internalType": "uint256",
          "name": "id",
          "type": "uint256"
        },
        {
          "internalType": "uint256",
          "name": "amt",
          "type": "uint256"
        },
        {
          "internalType": "uint256",
          "name": "max",
          "type": "uint256"
        },
        {
          "internalType": "address",
          "name": "to",
          "type": "address"
        },
        {
          "internalType": "bytes",
          "name": "data",
          "type": "bytes"
        }
      ],
      "name": "take",
      "outputs": [],
      "stateMutability": "nonpayable",
      "type": "function"
    },
    {
      "inputs": [],
      "name": "timeLimit",
      "outputs": [
        {
          "internalType": "uint256",
          "name": "",
          "type": "uint256"
        }
      ],
      "stateMutability": "view",
      "type": "function"
    },
    {
      "inputs": [
        {
          "internalType": "address",
          "name": "newOwner",
          "type": "address"
        }
      ],
      "name": "transferOwnership",
      "outputs": [],
      "stateMutability": "nonpayable",
      "type": "function"
    },
    {
      "inputs": [],
      "name": "unpause",
      "outputs": [],
      "stateMutability": "nonpayable",
      "type": "function"
    }
  ],
  "transactionHash": "0x1d1668c1a0c89c5f0b3be292207e2f4a1d17e8dcc50429867431cdb1efaf955b",
  "args": [],
  "solcInputHash": "daac9cba34dfabe5953ff704314717f0",
  "bytecode": "0x6080604052600060125534801561001557600080fd5b50612d19806100256000396000f3fe608060405234801561001057600080fd5b50600436106102325760003560e01c806381a794cb11610130578063c08d1fe5116100b8578063d843416d1161007c578063d843416d14610561578063e0bed04114610574578063e824600f14610587578063f2fde38b14610590578063fb983ba0146105a357610232565b8063c08d1fe514610516578063c647e0dd1461051f578063d366f3b914610532578063d547741f14610545578063d6d838ad1461055857610232565b8063a217fddf116100ff578063a217fddf14610452578063b0604a261461045a578063b443ba0c1461046d578063b5f522f714610476578063be4df7d61461050e57610232565b806381a794cb14610411578063843e3eb0146104245780638456cb591461043757806391d148541461043f57610232565b806340e58ee5116101be5780636191834e116101825780636191834e146103a257806375f12b21146103b55780637b38c5dc146103be5780637dc0d1d0146103eb5780638033d581146103fe57610232565b806340e58ee51461031d57806353b57f311461033057806356397c35146103435780635c622a0e146103565780635c975abb1461038b57610232565b8063248a9ca311610205578063248a9ca31461029e5780632f2ff15d146102c257806336568abe146102d75780633f4ba83a146102ea5780634046ebae146102f257610232565b806304a0ef4a1461023757806306661abd1461026e5780630f560cd7146102805780631523251514610295575b600080fd5b600c5461025190600160401b90046001600160c01b031681565b6040516001600160c01b0390911681526020015b60405180910390f35b600f545b604051908152602001610265565b6102886105ac565b6040516102659190612b2f565b61027260095481565b6102726102ac3660046128e0565b6000908152600160208190526040909120015490565b6102d56102d03660046128f8565b610604565b005b6102d56102e53660046128f8565b610630565b6102d56106b3565b600554610305906001600160a01b031681565b6040516001600160a01b039091168152602001610265565b6102d561032b3660046128e0565b610751565b6102d561033e366004612846565b610942565b600454610305906001600160a01b031681565b6103696103643660046128e0565b6109d6565b6040805194151585526020850193909352918301526060820152608001610265565b60025460ff165b6040519015158152602001610265565b6102726103b03660046129b5565b610a62565b61027260125481565b600c546103d29067ffffffffffffffff1681565b60405167ffffffffffffffff9091168152602001610265565b600754610305906001600160a01b031681565b61027261040c3660046128e0565b610e7c565b6102d561041f3660046129fe565b610e9d565b6102d5610432366004612890565b611595565b6102d5611669565b61039261044d3660046128f8565b611700565b610272600081565b600854610305906001600160a01b031681565b610272600b5481565b6104cf6104843660046128e0565b601060205260009081526040902080546001820154600283015460038401546004909401549293919290916001600160a01b03811691600160a01b9091046001600160601b03169086565b604080519687526020870195909552938501929092526001600160a01b031660608401526001600160601b0316608083015260a082015260c001610265565b61027261172b565b610272600a5481565b600654610305906001600160a01b031681565b6102d56105403660046128f8565b611849565b6102d56105533660046128f8565b6119ee565b610272600e5481565b6102d561056f3660046128f8565b611a15565b6102d5610582366004612927565b611dad565b61027260035481565b6102d561059e36600461282a565b611efc565b610272600d5481565b6060600f8054806020026020016040519081016040528092919081815260200182805480156105fa57602002820191906000526020600020905b8154815260200190600101908083116105e6575b5050505050905090565b600082815260016020819052604090912001546106218133611f35565b61062b8383611f99565b505050565b6001600160a01b03811633146106a55760405162461bcd60e51b815260206004820152602f60248201527f416363657373436f6e74726f6c3a2063616e206f6e6c792072656e6f756e636560448201526e103937b632b9903337b91039b2b63360891b60648201526084015b60405180910390fd5b6106af8282612004565b5050565b60025460ff166106fc5760405162461bcd60e51b815260206004820152601460248201527314185d5cd8589b194e881b9bdd081c185d5cd95960621b604482015260640161069c565b653830bab9b2b960d11b6107108133611f35565b6002805460ff191690556040513381527f5db9ee0a495bf2e6ff9c91a7834c1ba4fdd244a5e8aa4e537bd38aeae4b073aa906020015b60405180910390a150565b6107636430b236b4b760d91b33611f35565b601154156107835760405162461bcd60e51b815260040161069c90612b73565b60016011556000818152601060205260409020600301546001600160a01b03166108005760405162461bcd60e51b815260206004820152602860248201527f41756374696f6e486f7573653a3a63616e63656c3a6e6f742d72756e6e696e6760448201526716b0bab1ba34b7b760c11b606482015260840161069c565b60055460035460008381526010602052604090819020600101549051630112ac6560e11b8152600481019290925260248201526001600160a01b039091169063022558ca90604401600060405180830381600087803b15801561086257600080fd5b505af1158015610876573d6000803e3d6000fd5b5050600480546003546000868152601060205260409081902060020154905163f1b3cd9960e01b81529384019190915230602484015233604484015260648301526001600160a01b0316925063f1b3cd999150608401600060405180830381600087803b1580156108e657600080fd5b505af11580156108fa573d6000803e3d6000fd5b505050506109078161206b565b6040518181527f8bf30e7ff26833413be5f69e1d373744864d600b664204b4a2f9844a8eedb9ed9060200160405180910390a1506000601155565b600054610100900460ff16806109575750303b155b80610965575060005460ff16155b6109815760405162461bcd60e51b815260040161069c90612baa565b600054610100900460ff161580156109a3576000805461ffff19166101011790555b6109be8484846b4b534c504b5852504b44414960a01b611595565b80156109d0576000805461ff00191690555b50505050565b600081815260106020526040812060038101546004909101548291829182916001600160a01b03811691600160a01b9091046001600160601b0316908390610a1f908390612169565b965090506001600160a01b03831615801590610a385750805b60009889526010602052604090982060028101546001909101549899969890975095945050505050565b6000610a766430b236b4b760d91b33611f35565b60115415610a965760405162461bcd60e51b815260040161069c90612b73565b600160118190556012548111610abe5760405162461bcd60e51b815260040161069c90612bf8565b60008611610b1a5760405162461bcd60e51b8152602060048201526024808201527f41756374696f6e486f7573653a3a73746172743a7a65726f2d7261697365416d6044820152631bdd5b9d60e21b606482015260840161069c565b60008511610b765760405162461bcd60e51b815260206004820152602360248201527f41756374696f6e486f7573653a3a73746172743a7a65726f2d73656c6c416d6f6044820152621d5b9d60ea1b606482015260840161069c565b6001600160a01b038416610bd85760405162461bcd60e51b815260206004820152602360248201527f41756374696f6e486f7573653a3a73746172743a7a65726f2d7661756c744f776044820152623732b960e91b606482015260840161069c565b600e60008154610be790612c9d565b9182905550915081610c3b5760405162461bcd60e51b815260206004820152601c60248201527f41756374696f6e486f7573653a3a73746172743a6f766572666c6f7700000000604482015260640161069c565b600f80546001818101835560008390527f8d1108e10bcb7c27dddfc02ed9d693a074039d026cf4ea4240b40f7d581ac8029091018490559054610c7e9190612c86565b600083815260106020526040812091825560018201889055600282018790556001600160601b034216600160a01b026001600160a01b03871617600390920191909155600954610cd690610cd061223f565b90612439565b905060008111610d3a5760405162461bcd60e51b815260206004820152602960248201527f41756374696f6e486f7573653a3a73746172743a7a65726f2d737461727450726044820152686963652d707269636560b81b606482015260840161069c565b6000838152601060205260408120600401829055600c546001600160c01b03600160401b8204169167ffffffffffffffff9091169082151580610d7d5750600082115b15610e0f57610d8c8a836124c5565b610d969084612c2f565b6004805460065460405163f24e23eb60e01b81526001600160a01b03918216938101939093528a8116602484015260448301849052929350919091169063f24e23eb90606401600060405180830381600087803b158015610df657600080fd5b505af1158015610e0a573d6000803e3d6000fd5b505050505b60408051858152602081018c90529081018a9052606081018290526001600160a01b0380891691908a169088907ff8f36916a1ea950648e280a860d5aeb25e3dd772b04a28976d2eb01b755185359060800160405180910390a45050600060115550919695505050505050565b600f8181548110610e8c57600080fd5b600091825260209091200154905081565b60115415610ebd5760405162461bcd60e51b815260040161069c90612b73565b60016011556012546003908111610ee65760405162461bcd60e51b815260040161069c90612bf8565b610efb6737b832b930ba37b960c11b33611f35565b6000878152601060205260409020600301546001600160a01b03811690600160a01b90046001600160601b031681610f845760405162461bcd60e51b815260206004820152602660248201527f41756374696f6e486f7573653a3a74616b653a6e6f742d72756e6e696e672d616044820152653ab1ba34b7b760d11b606482015260840161069c565b6000898152601060205260408120600401548190610fa3908490612169565b925090508015610ff55760405162461bcd60e51b815260206004820152601e60248201527f41756374696f6e486f7573653a3a74616b653a6e656564732d72657365740000604482015260640161069c565b50808810156110465760405162461bcd60e51b815260206004820181905260248201527f41756374696f6e486f7573653a3a74616b653a746f6f2d657870656e73697665604482015260640161069c565b60008a8152601060205260408120600281015460019091015490918061106c848e612546565b90506110788582612c67565b9150828211156110965782915061108f8583612c47565b905061113f565b82821080156110a457508381105b1561113f5760006110b361172b565b9050806110c08486612c86565b101561113d578084116111245760405162461bcd60e51b815260206004820152602660248201527f41756374696f6e486f7573653a3a74616b653a6e6f2d7061727469616c2d707560448201526572636861736560d01b606482015260840161069c565b61112e8185612c86565b925061113a8684612c47565b91505b505b6111498284612c86565b92506111558185612c86565b6004805460035460405163f1b3cd9960e01b8152928301523060248301526001600160a01b038e8116604484015260648301859052929650919091169063f1b3cd9990608401600060405180830381600087803b1580156111b557600080fd5b505af11580156111c9573d6000803e3d6000fd5b50506005546001600160a01b031691505089158015906111f757506004546001600160a01b038d8116911614155b80156112155750806001600160a01b03168c6001600160a01b031614155b15611281578b6001600160a01b031663147bfcdd3385858f8f6040518663ffffffff1660e01b815260040161124e959493929190612ae3565b600060405180830381600087803b15801561126857600080fd5b505af115801561127c573d6000803e3d6000fd5b505050505b600480546006546040516302db808360e41b815233938101939093526001600160a01b039081166024840152604483018690521690632db8083090606401600060405180830381600087803b1580156112d957600080fd5b505af11580156112ed573d6000803e3d6000fd5b5050600654604051632fcf62ff60e01b8152600481018790526001600160a01b039091169250632fcf62ff9150602401600060405180830381600087803b15801561133757600080fd5b505af115801561134b573d6000803e3d6000fd5b50505050806001600160a01b031663022558ca6003548760001461136f5785611379565b6113798688612c2f565b6040516001600160e01b031960e085901b16815260048101929092526024820152604401600060405180830381600087803b1580156113b757600080fd5b505af11580156113cb573d6000803e3d6000fd5b50505050505082600014156113e8576113e38d61206b565b611525565b81611509576004805460035460405163f1b3cd9960e01b8152928301523060248301526001600160a01b03888116604484015260648301869052169063f1b3cd9990608401600060405180830381600087803b15801561144757600080fd5b505af115801561145b573d6000803e3d6000fd5b50506004546003546001600160a01b039091169250630d0a1d9291508880806114838961255c565b60405160e087901b6001600160e01b031916815260048101959095526001600160a01b039384166024860152918316604485015290911660648301526084820152600060a482015260c401600060405180830381600087803b1580156114e857600080fd5b505af11580156114fc573d6000803e3d6000fd5b505050506113e38d61206b565b60008d8152601060205260409020600181018390556002018390555b604080518c81526020810186905290810182905260608101839052608081018490526001600160a01b038716908e907f05e309fd6ce72f2ab888a20056bb4210df08daed86f21f95053deb19964d86b19060a00160405180910390a3505060006011555050505050505050505050565b600054610100900460ff16806115aa5750303b155b806115b8575060005460ff16155b6115d45760405162461bcd60e51b815260040161069c90612baa565b600054610100900460ff161580156115f6576000805461ffff19166101011790555b6115fe6125ca565b600480546001600160a01b038088166001600160a01b03199283161790925560078054878416908316179055600580549286169290911691909117905560038290556b033b2e3c9fd0803ce80000006009558015611662576000805461ff00191690555b5050505050565b60025460ff16156116af5760405162461bcd60e51b815260206004820152601060248201526f14185d5cd8589b194e881c185d5cd95960821b604482015260640161069c565b653830bab9b2b960d11b6116c38133611f35565b6002805460ff191660011790556040513381527f62e78cea01bee320cd4e420270b5ea74000d11b0c9f74754ebdbfc544b05a25890602001610746565b60009182526001602090815260408084206001600160a01b0393909316845291905290205460ff1690565b60048054600354604051637d5422a760e01b81529283015260009182916001600160a01b031690637d5422a79060240160c06040518083038186803b15801561177357600080fd5b505afa158015611787573d6000803e3d6000fd5b505050506040513d601f19601f820116820180604052508101906117ab9190612a9a565b60055460035460405163026fc75960e41b8152600481019190915291975061184396506001600160a01b031694506326fc7590935060240191506117ec9050565b60206040518083038186803b15801561180457600080fd5b505afa158015611818573d6000803e3d6000fd5b505050506040513d601f19601f8201168201806040525081019061183c9190612975565b82906124c5565b91505090565b61185b6430b236b4b760d91b33611f35565b6011541561187b5760405162461bcd60e51b815260040161069c90612b73565b60016011556639b837ba3a32b960c91b8214156118b257600780546001600160a01b0319166001600160a01b0383161790556119a6565b81693634b8bab4b230ba37b960b11b14156118e757600580546001600160a01b0319166001600160a01b0383161790556119a6565b81686d696e757342616e6b60b81b141561191b57600680546001600160a01b0319166001600160a01b0383161790556119a6565b81677363686564756c6560c01b141561194e57600880546001600160a01b0319166001600160a01b0383161790556119a6565b60405162461bcd60e51b815260206004820152602760248201527f41756374696f6e486f7573653a3a636f6e6669673a756e7265636f676e697a65604482015266642d706172616d60c81b606482015260840161069c565b6040516001600160a01b038216815282907f3d6745046596f08781af62914be5041ebe52ea11dfec12e472b043be63a9d74a906020015b60405180910390a250506000601155565b60008281526001602081905260409091200154611a0b8133611f35565b61062b8383612004565b60115415611a355760405162461bcd60e51b815260040161069c90612b73565b60016011556012546002908111611a5e5760405162461bcd60e51b815260040161069c90612bf8565b600083815260106020526040902060038101546004909101546001600160a01b03821691600160a01b90046001600160601b03169082611aef5760405162461bcd60e51b815260206004820152602660248201527f41756374696f6e486f7573653a3a7265646f3a6e6f742d72756e6e696e672d616044820152653ab1ba34b7b760d11b606482015260840161069c565b6000611afb8383612169565b50905080611b4b5760405162461bcd60e51b815260206004820152601f60248201527f41756374696f6e486f7573653a3a7265646f3a63616e6e6f742d726573657400604482015260640161069c565b600087815260106020526040812060018101546002820154600390920180546001600160a01b0316600160a01b426001600160601b03160217905591611b8f61223f565b9050611ba66009548261243990919063ffffffff16565b945060008511611c095760405162461bcd60e51b815260206004820152602860248201527f41756374696f6e486f7573653a3a7265646f3a7a65726f2d737461727450726960448201526763652d707269636560c01b606482015260840161069c565b60008a8152601060205260408120600401869055600c546001600160c01b03600160401b8204169167ffffffffffffffff9091169082151580611c4c5750600082115b15611d3f576000611c5b61172b565b9050808710158015611c76575080611c738688612c67565b10155b15611d3d57611c8587846124c5565b611c8f9085612c2f565b9150600460009054906101000a90046001600160a01b03166001600160a01b031663f24e23eb600660009054906101000a90046001600160a01b03168f856040518463ffffffff1660e01b8152600401611d0a939291906001600160a01b039384168152919092166020820152604081019190915260600190565b600060405180830381600087803b158015611d2457600080fd5b505af1158015611d38573d6000803e3d6000fd5b505050505b505b6040805189815260208101889052908101869052606081018290526001600160a01b03808e1691908c16908f907f275de7ecdd375b5e8049319f8b350686131c219dd4dc450a08e9cf83b03c865f9060800160405180910390a4505060006011555050505050505050505050565b611dbf6430b236b4b760d91b33611f35565b60115415611ddf5760405162461bcd60e51b815260040161069c90612b73565b600160115562313ab360e91b821415611dfc576009819055611eca565b81681d1a5b59531a5b5a5d60ba1b1415611e1a57600a819055611eca565b8168191c9bdc131a5b5a5d60ba1b1415611e3857600b819055611eca565b816d726174696f496e63656e7469766560901b1415611e7357600c805467ffffffffffffffff191667ffffffffffffffff8316179055611eca565b816d636f6e7374496e63656e7469766560901b1415611eb257600c805467ffffffffffffffff16600160401b6001600160c01b03841602179055611eca565b81661cdd1bdc1c195960ca1b141561194e5760128190555b817f15f23b9b90ae47d0682e013c5e063c9071659d3d2a5d7f6dcd77aa4b665dd25e826040516119dd91815260200190565b611f0e6437bbb732b960d91b33611f35565b611f206437bbb732b960d91b82611f99565b611f326437bbb732b960d91b33612004565b50565b611f3f8282611700565b6106af5760405162461bcd60e51b815260206004820152602560248201527f416363657373436f6e74726f6c3a5f636865636b526f6c653a696e76616c696460448201526420726f6c6560d81b606482015260840161069c565b611fa38282611700565b6106af5760008281526001602081815260408084206001600160a01b0386168086529252808420805460ff19169093179092559051339285917f2f8788117e7eff1d82e926ec794901d17c78024a50270940304540a733656f0d9190a45050565b61200e8282611700565b156106af5760008281526001602090815260408083206001600160a01b0385168085529252808320805460ff1916905551339285917ff6391f5c32d9c69d2a47ea670b442974b53935d1edc7fd64eb21e047a839171b9190a45050565b600f80546000919061207f90600190612c86565b8154811061209d57634e487b7160e01b600052603260045260246000fd5b9060005260206000200154905080821461210457600082815260106020526040902054600f8054839190839081106120e557634e487b7160e01b600052603260045260246000fd5b6000918252602080832090910192909255838152601090915260409020555b600f80548061212357634e487b7160e01b600052603160045260246000fd5b6000828152602080822083016000199081018390559092019092559281526010909252506040812081815560018101829055600281018290556003810182905560040155565b60085460009081906001600160a01b031663487a2395846121936001600160601b03881642612c86565b6040516001600160e01b031960e085901b1681526004810192909252602482015260440160206040518083038186803b1580156121cf57600080fd5b505afa1580156121e3573d6000803e3d6000fd5b505050506040513d601f19601f820116820180604052508101906122079190612975565b600a549091506122206001600160601b03861642612c86565b11806122365750600b546122348285612675565b105b91509250929050565b600754600354604051637d5422a760e01b815260009283926001600160a01b0390911691637d5422a7916122799160040190815260200190565b604080518083038186803b15801561229057600080fd5b505afa1580156122a4573d6000803e3d6000fd5b505050506040513d601f19601f820116820180604052508101906122c89190612948565b509050600080826001600160a01b03166398d5fdca6040518163ffffffff1660e01b8152600401604080518083038186803b15801561230657600080fd5b505afa15801561231a573d6000803e3d6000fd5b505050506040513d601f19601f8201168201806040525081019061233e919061298d565b915091508061239f5760405162461bcd60e51b815260206004820152602760248201527f41756374696f6e486f7573653a3a676574466565645072696365696e76616c69604482015266642d707269636560c81b606482015260840161069c565b60075460408051630241ebdb60e61b81529051612431926001600160a01b03169163907af6c0916004808301926020929190829003018186803b1580156123e557600080fd5b505afa1580156123f9573d6000803e3d6000fd5b505050506040513d601f19601f8201168201806040525081019061241d9190612975565b61242b633b9aca0085612c67565b90612675565b935050505090565b60006124458284612c67565b905081158061245c57508261245a8383612c47565b145b6124a85760405162461bcd60e51b815260206004820152601b60248201527f5761645261794d6174683a3a20726d756c3a206f766572666c6f770000000000604482015260640161069c565b6124be6b033b2e3c9fd0803ce800000082612c47565b9392505050565b60006124d18284612c67565b90508115806124e85750826124e68383612c47565b145b6125345760405162461bcd60e51b815260206004820152601b60248201527f5761645261794d6174683a3a20776d756c3a206f766572666c6f770000000000604482015260640161069c565b6124be670de0b6b3a764000082612c47565b600081831061255557816124be565b5090919050565b60006001600160ff1b038211156125c65760405162461bcd60e51b815260206004820152602860248201527f53616665436173743a2076616c756520646f65736e27742066697420696e2061604482015267371034b73a191a9b60c11b606482015260840161069c565b5090565b600054610100900460ff16806125df5750303b155b806125ed575060005460ff16155b6126095760405162461bcd60e51b815260040161069c90612baa565b600054610100900460ff1615801561262b576000805461ffff19166101011790555b612633612699565b61264e653830bab9b2b960d11b6437bbb732b960d91b612702565b612661653830bab9b2b960d11b3361274f565b8015611f32576000805461ff001916905550565b600061268d6b033b2e3c9fd0803ce800000084612c67565b90506124be8282612c47565b600054610100900460ff16806126ae5750303b155b806126bc575060005460ff16155b6126d85760405162461bcd60e51b815260040161069c90612baa565b600054610100900460ff161580156126fa576000805461ffff19166101011790555b612661612759565b6000828152600160208190526040808320909101805490849055905190918391839186917fbd79b86ffe0ab8e8776151514217cd7cacd52c909f66475c3af44e129f0b00ff9190a4505050565b6106af8282611f99565b600054610100900460ff168061276e5750303b155b8061277c575060005460ff16155b6127985760405162461bcd60e51b815260040161069c90612baa565b600054610100900460ff161580156127ba576000805461ffff19166101011790555b6127cc6437bbb732b960d91b3361274f565b6127e66430b236b4b760d91b6437bbb732b960d91b612702565b6128036737b832b930ba37b960c11b6437bbb732b960d91b612702565b6128156430b236b4b760d91b3361274f565b6126616737b832b930ba37b960c11b3361274f565b60006020828403121561283b578081fd5b81356124be81612cce565b60008060006060848603121561285a578182fd5b833561286581612cce565b9250602084013561287581612cce565b9150604084013561288581612cce565b809150509250925092565b600080600080608085870312156128a5578081fd5b84356128b081612cce565b935060208501356128c081612cce565b925060408501356128d081612cce565b9396929550929360600135925050565b6000602082840312156128f1578081fd5b5035919050565b6000806040838503121561290a578182fd5b82359150602083013561291c81612cce565b809150509250929050565b60008060408385031215612939578182fd5b50508035926020909101359150565b6000806040838503121561295a578182fd5b825161296581612cce565b6020939093015192949293505050565b600060208284031215612986578081fd5b5051919050565b6000806040838503121561299f578182fd5b825191506020830151801515811461291c578182fd5b600080600080608085870312156129ca578384fd5b843593506020850135925060408501356129e381612cce565b915060608501356129f381612cce565b939692955090935050565b60008060008060008060a08789031215612a16578182fd5b8635955060208701359450604087013593506060870135612a3681612cce565b9250608087013567ffffffffffffffff80821115612a52578384fd5b818901915089601f830112612a65578384fd5b813581811115612a73578485fd5b8a6020828501011115612a84578485fd5b6020830194508093505050509295509295509295565b60008060008060008060c08789031215612ab2578384fd5b865195506020870151945060408701519350606087015192506080870151915060a087015190509295509295509295565b600060018060a01b038716825285602083015284604083015260806060830152826080830152828460a084013781830160a090810191909152601f909201601f19160101949350505050565b6020808252825182820181905260009190848201906040850190845b81811015612b6757835183529284019291840191600101612b4b565b50909695505050505050565b6020808252601a908201527f41756374696f6e486f7573653a73797374656d2d6c6f636b6564000000000000604082015260600190565b6020808252602e908201527f496e697469616c697a61626c653a20636f6e747261637420697320616c72656160408201526d191e481a5b9a5d1a585b1a5e995960921b606082015260800190565b6020808252601e908201527f41756374696f6e486f7573653a73746f707065642d696e636f72726563740000604082015260600190565b60008219821115612c4257612c42612cb8565b500190565b600082612c6257634e487b7160e01b81526012600452602481fd5b500490565b6000816000190483118215151615612c8157612c81612cb8565b500290565b600082821015612c9857612c98612cb8565b500390565b6000600019821415612cb157612cb1612cb8565b5060010190565b634e487b7160e01b600052601160045260246000fd5b6001600160a01b0381168114611f3257600080fdfea2646970667358221220f3198721eaf7723081c3883d1104341901a1c229069d05106f4ade7f3692491764736f6c63430008030033",
  "devdoc": {
    "kind": "dev",
    "methods": {
      "cancel(uint256)": {
        "params": {
          "id": "sale id"
        }
      },
      "getStatus(uint256)": {
        "params": {
          "id": "id of auction sale"
        }
      },
      "start(uint256,uint256,address,address)": {
        "params": {
          "keeper": "address that will receive incentives",
          "raiseAmount": "ksd amount to raise through auction. [rad]",
          "sellAmount": "collateral amount to sell through auction. [wad]",
          "vaultOwner": "address will receive any leftover collateral"
        }
      }
    },
    "version": 1
  },
  "userdoc": {
    "kind": "user",
    "methods": {
      "cancel(uint256)": {
        "notice": "cancel an auction during EmergencyStop or via governance action."
      },
      "getStatus(uint256)": {
        "notice": "status of auction sale"
      },
      "redo(uint256,address)": {
        "notice": "reset an auction"
      },
      "start(uint256,uint256,address,address)": {
        "notice": "starts an auction trusts the caller to transfer collateral to the contract The `startPrice` is obtained as follows:     startPrice = feedPrice * buf / par Where `feedPrice` is the collateral's unitary value in USD, `buf` is a multiplicative factor to increase the starting price, and `par` is a reference per KSD."
      },
      "take(uint256,uint256,uint256,address,bytes)": {
        "notice": "buy up to `amt` of collateral from the auction indexed by `id`. Auctions will not collect more KSD than their assigned KSD target,`raiseAmount`;"
      }
    },
    "version": 1
  },
  "storageLayout": {
    "storage": [
      {
        "astId": 23220,
        "contract": "contracts/collateral/KSLPKXRPKDAI/BKSLPKXRPKDAIAuctionHouse.sol:BKSLPKXRPKDAIAuctionHouse",
        "label": "_initialized",
        "offset": 0,
        "slot": "0",
        "type": "t_bool"
      },
      {
        "astId": 23223,
        "contract": "contracts/collateral/KSLPKXRPKDAI/BKSLPKXRPKDAIAuctionHouse.sol:BKSLPKXRPKDAIAuctionHouse",
        "label": "_initializing",
        "offset": 1,
        "slot": "0",
        "type": "t_bool"
      },
      {
        "astId": 20166,
        "contract": "contracts/collateral/KSLPKXRPKDAI/BKSLPKXRPKDAIAuctionHouse.sol:BKSLPKXRPKDAIAuctionHouse",
        "label": "_roles",
        "offset": 0,
        "slot": "1",
        "type": "t_mapping(t_bytes32,t_struct(RoleData)20161_storage)"
      },
      {
        "astId": 20556,
        "contract": "contracts/collateral/KSLPKXRPKDAI/BKSLPKXRPKDAIAuctionHouse.sol:BKSLPKXRPKDAIAuctionHouse",
        "label": "_paused",
        "offset": 0,
        "slot": "2",
        "type": "t_bool"
      },
      {
        "astId": 23890,
        "contract": "contracts/collateral/KSLPKXRPKDAI/BKSLPKXRPKDAIAuctionHouse.sol:BKSLPKXRPKDAIAuctionHouse",
        "label": "collateralType",
        "offset": 0,
        "slot": "3",
        "type": "t_bytes32"
      },
      {
        "astId": 23893,
        "contract": "contracts/collateral/KSLPKXRPKDAI/BKSLPKXRPKDAIAuctionHouse.sol:BKSLPKXRPKDAIAuctionHouse",
        "label": "ledger",
        "offset": 0,
        "slot": "4",
        "type": "t_contract(ILedger)8804"
      },
      {
        "astId": 23896,
        "contract": "contracts/collateral/KSLPKXRPKDAI/BKSLPKXRPKDAIAuctionHouse.sol:BKSLPKXRPKDAIAuctionHouse",
        "label": "liquidator",
        "offset": 0,
        "slot": "5",
        "type": "t_contract(ILiquidator)8907"
      },
      {
        "astId": 23898,
        "contract": "contracts/collateral/KSLPKXRPKDAI/BKSLPKXRPKDAIAuctionHouse.sol:BKSLPKXRPKDAIAuctionHouse",
        "label": "minusBank",
        "offset": 0,
        "slot": "6",
        "type": "t_address"
      },
      {
        "astId": 23901,
        "contract": "contracts/collateral/KSLPKXRPKDAI/BKSLPKXRPKDAIAuctionHouse.sol:BKSLPKXRPKDAIAuctionHouse",
        "label": "oracle",
        "offset": 0,
        "slot": "7",
        "type": "t_contract(IOracle)8953"
      },
      {
        "astId": 23904,
        "contract": "contracts/collateral/KSLPKXRPKDAI/BKSLPKXRPKDAIAuctionHouse.sol:BKSLPKXRPKDAIAuctionHouse",
        "label": "schedule",
        "offset": 0,
        "slot": "8",
        "type": "t_contract(ISchedule)9239"
      },
      {
        "astId": 23907,
        "contract": "contracts/collateral/KSLPKXRPKDAI/BKSLPKXRPKDAIAuctionHouse.sol:BKSLPKXRPKDAIAuctionHouse",
        "label": "buf",
        "offset": 0,
        "slot": "9",
        "type": "t_uint256"
      },
      {
        "astId": 23910,
        "contract": "contracts/collateral/KSLPKXRPKDAI/BKSLPKXRPKDAIAuctionHouse.sol:BKSLPKXRPKDAIAuctionHouse",
        "label": "timeLimit",
        "offset": 0,
        "slot": "10",
        "type": "t_uint256"
      },
      {
        "astId": 23913,
        "contract": "contracts/collateral/KSLPKXRPKDAI/BKSLPKXRPKDAIAuctionHouse.sol:BKSLPKXRPKDAIAuctionHouse",
        "label": "dropLimit",
        "offset": 0,
        "slot": "11",
        "type": "t_uint256"
      },
      {
        "astId": 23916,
        "contract": "contracts/collateral/KSLPKXRPKDAI/BKSLPKXRPKDAIAuctionHouse.sol:BKSLPKXRPKDAIAuctionHouse",
        "label": "ratioIncentive",
        "offset": 0,
        "slot": "12",
        "type": "t_uint64"
      },
      {
        "astId": 23919,
        "contract": "contracts/collateral/KSLPKXRPKDAI/BKSLPKXRPKDAIAuctionHouse.sol:BKSLPKXRPKDAIAuctionHouse",
        "label": "constIncentive",
        "offset": 8,
        "slot": "12",
        "type": "t_uint192"
      },
      {
        "astId": 23921,
        "contract": "contracts/collateral/KSLPKXRPKDAI/BKSLPKXRPKDAIAuctionHouse.sol:BKSLPKXRPKDAIAuctionHouse",
        "label": "__legacy",
        "offset": 0,
        "slot": "13",
        "type": "t_uint256"
      },
      {
        "astId": 23924,
        "contract": "contracts/collateral/KSLPKXRPKDAI/BKSLPKXRPKDAIAuctionHouse.sol:BKSLPKXRPKDAIAuctionHouse",
        "label": "cnt",
        "offset": 0,
        "slot": "14",
        "type": "t_uint256"
      },
      {
        "astId": 23928,
        "contract": "contracts/collateral/KSLPKXRPKDAI/BKSLPKXRPKDAIAuctionHouse.sol:BKSLPKXRPKDAIAuctionHouse",
        "label": "active",
        "offset": 0,
        "slot": "15",
        "type": "t_array(t_uint256)dyn_storage"
      },
      {
        "astId": 23934,
        "contract": "contracts/collateral/KSLPKXRPKDAI/BKSLPKXRPKDAIAuctionHouse.sol:BKSLPKXRPKDAIAuctionHouse",
        "label": "sales",
        "offset": 0,
        "slot": "16",
        "type": "t_mapping(t_uint256,t_struct(Sale)6867_storage)"
      },
      {
        "astId": 23936,
        "contract": "contracts/collateral/KSLPKXRPKDAI/BKSLPKXRPKDAIAuctionHouse.sol:BKSLPKXRPKDAIAuctionHouse",
        "label": "locked",
        "offset": 0,
        "slot": "17",
        "type": "t_uint256"
      },
      {
        "astId": 23939,
        "contract": "contracts/collateral/KSLPKXRPKDAI/BKSLPKXRPKDAIAuctionHouse.sol:BKSLPKXRPKDAIAuctionHouse",
        "label": "stopped",
        "offset": 0,
        "slot": "18",
        "type": "t_uint256"
      }
    ],
    "types": {
      "t_address": {
        "encoding": "inplace",
        "label": "address",
        "numberOfBytes": "20"
      },
      "t_array(t_uint256)dyn_storage": {
        "base": "t_uint256",
        "encoding": "dynamic_array",
        "label": "uint256[]",
        "numberOfBytes": "32"
      },
      "t_bool": {
        "encoding": "inplace",
        "label": "bool",
        "numberOfBytes": "1"
      },
      "t_bytes32": {
        "encoding": "inplace",
        "label": "bytes32",
        "numberOfBytes": "32"
      },
      "t_contract(ILedger)8804": {
        "encoding": "inplace",
        "label": "contract ILedger",
        "numberOfBytes": "20"
      },
      "t_contract(ILiquidator)8907": {
        "encoding": "inplace",
        "label": "contract ILiquidator",
        "numberOfBytes": "20"
      },
      "t_contract(IOracle)8953": {
        "encoding": "inplace",
        "label": "contract IOracle",
        "numberOfBytes": "20"
      },
      "t_contract(ISchedule)9239": {
        "encoding": "inplace",
        "label": "contract ISchedule",
        "numberOfBytes": "20"
      },
      "t_mapping(t_address,t_bool)": {
        "encoding": "mapping",
        "key": "t_address",
        "label": "mapping(address => bool)",
        "numberOfBytes": "32",
        "value": "t_bool"
      },
      "t_mapping(t_bytes32,t_struct(RoleData)20161_storage)": {
        "encoding": "mapping",
        "key": "t_bytes32",
        "label": "mapping(bytes32 => struct AccessControl.RoleData)",
        "numberOfBytes": "32",
        "value": "t_struct(RoleData)20161_storage"
      },
      "t_mapping(t_uint256,t_struct(Sale)6867_storage)": {
        "encoding": "mapping",
        "key": "t_uint256",
        "label": "mapping(uint256 => struct IAuctionHouse.Sale)",
        "numberOfBytes": "32",
        "value": "t_struct(Sale)6867_storage"
      },
      "t_struct(RoleData)20161_storage": {
        "encoding": "inplace",
        "label": "struct AccessControl.RoleData",
        "members": [
          {
            "astId": 20158,
            "contract": "contracts/collateral/KSLPKXRPKDAI/BKSLPKXRPKDAIAuctionHouse.sol:BKSLPKXRPKDAIAuctionHouse",
            "label": "members",
            "offset": 0,
            "slot": "0",
            "type": "t_mapping(t_address,t_bool)"
          },
          {
            "astId": 20160,
            "contract": "contracts/collateral/KSLPKXRPKDAI/BKSLPKXRPKDAIAuctionHouse.sol:BKSLPKXRPKDAIAuctionHouse",
            "label": "adminRole",
            "offset": 0,
            "slot": "1",
            "type": "t_bytes32"
          }
        ],
        "numberOfBytes": "64"
      },
      "t_struct(Sale)6867_storage": {
        "encoding": "inplace",
        "label": "struct IAuctionHouse.Sale",
        "members": [
          {
            "astId": 6856,
            "contract": "contracts/collateral/KSLPKXRPKDAI/BKSLPKXRPKDAIAuctionHouse.sol:BKSLPKXRPKDAIAuctionHouse",
            "label": "index",
            "offset": 0,
            "slot": "0",
            "type": "t_uint256"
          },
          {
            "astId": 6858,
            "contract": "contracts/collateral/KSLPKXRPKDAI/BKSLPKXRPKDAIAuctionHouse.sol:BKSLPKXRPKDAIAuctionHouse",
            "label": "raiseAmount",
            "offset": 0,
            "slot": "1",
            "type": "t_uint256"
          },
          {
            "astId": 6860,
            "contract": "contracts/collateral/KSLPKXRPKDAI/BKSLPKXRPKDAIAuctionHouse.sol:BKSLPKXRPKDAIAuctionHouse",
            "label": "sellAmount",
            "offset": 0,
            "slot": "2",
            "type": "t_uint256"
          },
          {
            "astId": 6862,
            "contract": "contracts/collateral/KSLPKXRPKDAI/BKSLPKXRPKDAIAuctionHouse.sol:BKSLPKXRPKDAIAuctionHouse",
            "label": "vaultOwner",
            "offset": 0,
            "slot": "3",
            "type": "t_address"
          },
          {
            "astId": 6864,
            "contract": "contracts/collateral/KSLPKXRPKDAI/BKSLPKXRPKDAIAuctionHouse.sol:BKSLPKXRPKDAIAuctionHouse",
            "label": "startTime",
            "offset": 20,
            "slot": "3",
            "type": "t_uint96"
          },
          {
            "astId": 6866,
            "contract": "contracts/collateral/KSLPKXRPKDAI/BKSLPKXRPKDAIAuctionHouse.sol:BKSLPKXRPKDAIAuctionHouse",
            "label": "startPrice",
            "offset": 0,
            "slot": "4",
            "type": "t_uint256"
          }
        ],
        "numberOfBytes": "160"
      },
      "t_uint192": {
        "encoding": "inplace",
        "label": "uint192",
        "numberOfBytes": "24"
      },
      "t_uint256": {
        "encoding": "inplace",
        "label": "uint256",
        "numberOfBytes": "32"
      },
      "t_uint64": {
        "encoding": "inplace",
        "label": "uint64",
        "numberOfBytes": "8"
      },
      "t_uint96": {
        "encoding": "inplace",
        "label": "uint96",
        "numberOfBytes": "12"
      }
    }
  }
}