{
  "address": "0x2830f9F8f35cb26bb9B992337b66F4E8DCA3a463",
  "abi": [
    {
      "anonymous": false,
      "inputs": [
        {
          "indexed": false,
          "internalType": "address",
          "name": "account",
          "type": "address"
        }
      ],
      "name": "Paused",
      "type": "event"
    },
    {
      "anonymous": false,
      "inputs": [
        {
          "indexed": true,
          "internalType": "bytes32",
          "name": "role",
          "type": "bytes32"
        },
        {
          "indexed": true,
          "internalType": "bytes32",
          "name": "previousAdminRole",
          "type": "bytes32"
        },
        {
          "indexed": true,
          "internalType": "bytes32",
          "name": "newAdminRole",
          "type": "bytes32"
        }
      ],
      "name": "RoleAdminChanged",
      "type": "event"
    },
    {
      "anonymous": false,
      "inputs": [
        {
          "indexed": true,
          "internalType": "bytes32",
          "name": "role",
          "type": "bytes32"
        },
        {
          "indexed": true,
          "internalType": "address",
          "name": "account",
          "type": "address"
        },
        {
          "indexed": true,
          "internalType": "address",
          "name": "sender",
          "type": "address"
        }
      ],
      "name": "RoleGranted",
      "type": "event"
    },
    {
      "anonymous": false,
      "inputs": [
        {
          "indexed": true,
          "internalType": "bytes32",
          "name": "role",
          "type": "bytes32"
        },
        {
          "indexed": true,
          "internalType": "address",
          "name": "account",
          "type": "address"
        },
        {
          "indexed": true,
          "internalType": "address",
          "name": "sender",
          "type": "address"
        }
      ],
      "name": "RoleRevoked",
      "type": "event"
    },
    {
      "anonymous": false,
      "inputs": [
        {
          "indexed": false,
          "internalType": "address",
          "name": "account",
          "type": "address"
        }
      ],
      "name": "Unpaused",
      "type": "event"
    },
    {
      "inputs": [],
      "name": "DEFAULT_ADMIN_ROLE",
      "outputs": [
        {
          "internalType": "bytes32",
          "name": "",
          "type": "bytes32"
        }
      ],
      "stateMutability": "view",
      "type": "function"
    },
    {
      "inputs": [
        {
          "internalType": "address",
          "name": "addressBook",
          "type": "address"
        },
        {
          "internalType": "address",
          "name": "stableToken",
          "type": "address"
        }
      ],
      "name": "__BKSLPKORCKDAIFeed_init",
      "outputs": [],
      "stateMutability": "nonpayable",
      "type": "function"
    },
    {
      "inputs": [
        {
          "internalType": "bytes32",
          "name": "collateralType_",
          "type": "bytes32"
        },
        {
          "internalType": "address",
          "name": "addressBook_",
          "type": "address"
        },
        {
          "internalType": "address",
          "name": "stableToken_",
          "type": "address"
        }
      ],
      "name": "__BKSMajorStableLpFeed_init",
      "outputs": [],
      "stateMutability": "nonpayable",
      "type": "function"
    },
    {
      "inputs": [],
      "name": "__Feed_init",
      "outputs": [],
      "stateMutability": "nonpayable",
      "type": "function"
    },
    {
      "inputs": [],
      "name": "addressBook",
      "outputs": [
        {
          "internalType": "contract IAddressBook",
          "name": "",
          "type": "address"
        }
      ],
      "stateMutability": "view",
      "type": "function"
    },
    {
      "inputs": [],
      "name": "clear",
      "outputs": [],
      "stateMutability": "nonpayable",
      "type": "function"
    },
    {
      "inputs": [],
      "name": "collateralType",
      "outputs": [
        {
          "internalType": "bytes32",
          "name": "",
          "type": "bytes32"
        }
      ],
      "stateMutability": "view",
      "type": "function"
    },
    {
      "inputs": [
        {
          "internalType": "bytes32",
          "name": "what",
          "type": "bytes32"
        },
        {
          "internalType": "uint256",
          "name": "data",
          "type": "uint256"
        }
      ],
      "name": "config",
      "outputs": [],
      "stateMutability": "nonpayable",
      "type": "function"
    },
    {
      "inputs": [],
      "name": "getPrice",
      "outputs": [
        {
          "internalType": "uint256",
          "name": "",
          "type": "uint256"
        },
        {
          "internalType": "bool",
          "name": "",
          "type": "bool"
        }
      ],
      "stateMutability": "view",
      "type": "function"
    },
    {
      "inputs": [
        {
          "internalType": "bytes32",
          "name": "role",
          "type": "bytes32"
        }
      ],
      "name": "getRoleAdmin",
      "outputs": [
        {
          "internalType": "bytes32",
          "name": "",
          "type": "bytes32"
        }
      ],
      "stateMutability": "view",
      "type": "function"
    },
    {
      "inputs": [
        {
          "internalType": "bytes32",
          "name": "role",
          "type": "bytes32"
        },
        {
          "internalType": "address",
          "name": "account",
          "type": "address"
        }
      ],
      "name": "grantRole",
      "outputs": [],
      "stateMutability": "nonpayable",
      "type": "function"
    },
    {
      "inputs": [
        {
          "internalType": "bytes32",
          "name": "role",
          "type": "bytes32"
        },
        {
          "internalType": "address",
          "name": "account",
          "type": "address"
        }
      ],
      "name": "hasRole",
      "outputs": [
        {
          "internalType": "bool",
          "name": "",
          "type": "bool"
        }
      ],
      "stateMutability": "view",
      "type": "function"
    },
    {
      "inputs": [],
      "name": "lastUpdatedAt",
      "outputs": [
        {
          "internalType": "uint256",
          "name": "",
          "type": "uint256"
        }
      ],
      "stateMutability": "view",
      "type": "function"
    },
    {
      "inputs": [],
      "name": "pause",
      "outputs": [],
      "stateMutability": "nonpayable",
      "type": "function"
    },
    {
      "inputs": [],
      "name": "paused",
      "outputs": [
        {
          "internalType": "bool",
          "name": "",
          "type": "bool"
        }
      ],
      "stateMutability": "view",
      "type": "function"
    },
    {
      "inputs": [],
      "name": "price",
      "outputs": [
        {
          "internalType": "uint256",
          "name": "",
          "type": "uint256"
        }
      ],
      "stateMutability": "view",
      "type": "function"
    },
    {
      "inputs": [
        {
          "internalType": "bytes32",
          "name": "role",
          "type": "bytes32"
        },
        {
          "internalType": "address",
          "name": "account",
          "type": "address"
        }
      ],
      "name": "renounceRole",
      "outputs": [],
      "stateMutability": "nonpayable",
      "type": "function"
    },
    {
      "inputs": [
        {
          "internalType": "bytes32",
          "name": "role",
          "type": "bytes32"
        },
        {
          "internalType": "address",
          "name": "account",
          "type": "address"
        }
      ],
      "name": "revokeRole",
      "outputs": [],
      "stateMutability": "nonpayable",
      "type": "function"
    },
    {
      "inputs": [
        {
          "internalType": "uint256",
          "name": "_price",
          "type": "uint256"
        }
      ],
      "name": "set",
      "outputs": [],
      "stateMutability": "nonpayable",
      "type": "function"
    },
    {
      "inputs": [],
      "name": "set",
      "outputs": [],
      "stateMutability": "nonpayable",
      "type": "function"
    },
    {
      "inputs": [],
      "name": "stableToken",
      "outputs": [
        {
          "internalType": "address",
          "name": "",
          "type": "address"
        }
      ],
      "stateMutability": "view",
      "type": "function"
    },
    {
      "inputs": [
        {
          "internalType": "address",
          "name": "newOwner",
          "type": "address"
        }
      ],
      "name": "transferOwnership",
      "outputs": [],
      "stateMutability": "nonpayable",
      "type": "function"
    },
    {
      "inputs": [],
      "name": "unpause",
      "outputs": [],
      "stateMutability": "nonpayable",
      "type": "function"
    },
    {
      "inputs": [],
      "name": "valid",
      "outputs": [
        {
          "internalType": "bool",
          "name": "",
          "type": "bool"
        }
      ],
      "stateMutability": "view",
      "type": "function"
    },
    {
      "inputs": [],
      "name": "windowSize",
      "outputs": [
        {
          "internalType": "uint256",
          "name": "",
          "type": "uint256"
        }
      ],
      "stateMutability": "view",
      "type": "function"
    }
  ],
  "transactionHash": "0x29ee0a24cb57ceaf3987f3a07207891ac1f835017671663b35b91ee8644a3cf9",
  "args": [],
  "solcInputHash": "de4f5741dec2c2b2fd1b551e118f3df0",
  "bytecode": "0x608060405234801561001057600080fd5b5061141e806100206000396000f3fe608060405234801561001057600080fd5b50600436106101735760003560e01c80638c8e03c3116100de578063b8e010de11610097578063e0bed04111610071578063e0bed041146102f8578063e824600f1461030b578063f2fde38b14610314578063f5887cdd1461032757610173565b8063b8e010de146102cb578063c1991219146102d3578063d547741f146102e557610173565b80638c8e03c31461024657806391d148541461025957806398d5fdca1461026c578063a035b1fe1461028f578063a217fddf14610298578063a9d75b2b146102a057610173565b806352efea6e1161013057806352efea6e146101fa57806354aea127146102025780635c975abb1461020b57806360fe47b1146102225780638456cb59146102355780638a14117a1461023d57610173565b806314307ff51461017857806317dc4aa01461018d578063248a9ca3146101955780632f2ff15d146101cc57806336568abe146101df5780633f4ba83a146101f2575b600080fd5b61018b610186366004611091565b61033a565b005b61018b6103d5565b6101b96101a33660046110c9565b6000908152600160208190526040909120015490565b6040519081526020015b60405180910390f35b61018b6101da3660046110e1565b610453565b61018b6101ed3660046110e1565b61047a565b61018b6104f8565b61018b610596565b6101b960075481565b60025460ff165b60405190151581526020016101c3565b61018b6102303660046110c9565b6105b5565b61018b610601565b6101b960085481565b61018b610254366004611105565b610675565b6102126102673660046110e1565b61072b565b600354600254610100900460ff16604080519283529015156020830152016101c3565b6101b960035481565b6101b9600081565b6006546102b3906001600160a01b031681565b6040516001600160a01b0390911681526020016101c3565b61018b610756565b60025461021290610100900460ff1681565b61018b6102f33660046110e1565b610c06565b61018b610306366004611146565b610c2d565b6101b960055481565b61018b610322366004611052565b610cbe565b6004546102b3906001600160a01b031681565b600054610100900460ff168061034f5750303b155b8061035d575060005460ff16155b6103825760405162461bcd60e51b8152600401610379906111ed565b60405180910390fd5b600054610100900460ff161580156103a4576000805461ffff19166101011790555b6103be6b4b534c504b4f52434b44414960a01b8484610675565b80156103d0576000805461ff00191690555b505050565b600054610100900460ff16806103ea5750303b155b806103f8575060005460ff16155b6104145760405162461bcd60e51b8152600401610379906111ed565b600054610100900460ff16158015610436576000805461ffff19166101011790555b61043e610cf4565b8015610450576000805461ff00191690555b50565b600082815260016020819052604090912001546104708133610d8b565b6103d08383610def565b6001600160a01b03811633146104ea5760405162461bcd60e51b815260206004820152602f60248201527f416363657373436f6e74726f6c3a2063616e206f6e6c792072656e6f756e636560448201526e103937b632b9903337b91039b2b63360891b6064820152608401610379565b6104f48282610e5a565b5050565b60025460ff166105415760405162461bcd60e51b815260206004820152601460248201527314185d5cd8589b194e881b9bdd081c185d5cd95960621b6044820152606401610379565b653830bab9b2b960d11b6105558133610d8b565b6002805460ff191690556040513381527f5db9ee0a495bf2e6ff9c91a7834c1ba4fdd244a5e8aa4e537bd38aeae4b073aa906020015b60405180910390a150565b6105a86437bbb732b960d91b33610d8b565b6002805461ff0019169055565b6105ca6737b832b930ba37b960c11b33610d8b565b60025460ff16156105ed5760405162461bcd60e51b8152600401610379906111c3565b6003556002805461ff001916610100179055565b60025460ff16156106245760405162461bcd60e51b8152600401610379906111c3565b653830bab9b2b960d11b6106388133610d8b565b6002805460ff191660011790556040513381527f62e78cea01bee320cd4e420270b5ea74000d11b0c9f74754ebdbfc544b05a2589060200161058b565b600054610100900460ff168061068a5750303b155b80610698575060005460ff16155b6106b45760405162461bcd60e51b8152600401610379906111ed565b600054610100900460ff161580156106d6576000805461ffff19166101011790555b6106de6103d5565b6005849055600480546001600160a01b038086166001600160a01b03199283161790925560068054928516929091169190911790558015610725576000805461ff00191690555b50505050565b60009182526001602090815260408084206001600160a01b0393909316845291905290205460ff1690565b60025460ff16156107795760405162461bcd60e51b8152600401610379906111c3565b6004805460055460405163f084b66960e01b815292830152643a37b5b2b760d91b60248301526000916001600160a01b039091169063f084b6699060440160206040518083038186803b1580156107cf57600080fd5b505afa1580156107e3573d6000803e3d6000fd5b505050506040513d601f19601f820116820180604052508101906108079190611075565b90506000816001600160a01b0316630fc63d106040518163ffffffff1660e01b815260040160206040518083038186803b15801561084457600080fd5b505afa158015610858573d6000803e3d6000fd5b505050506040513d601f19601f8201168201806040525081019061087c9190611075565b90506000826001600160a01b0316635f64b55b6040518163ffffffff1660e01b815260040160206040518083038186803b1580156108b957600080fd5b505afa1580156108cd573d6000803e3d6000fd5b505050506040513d601f19601f820116820180604052508101906108f19190611075565b9050600080846001600160a01b0316631a595f656040518163ffffffff1660e01b8152600401604080518083038186803b15801561092e57600080fd5b505afa158015610942573d6000803e3d6000fd5b505050506040513d601f19601f82011682018060405250810190610966919061117f565b915091506000856001600160a01b03166318160ddd6040518163ffffffff1660e01b815260040160206040518083038186803b1580156109a557600080fd5b505afa1580156109b9573d6000803e3d6000fd5b505050506040513d601f19601f820116820180604052508101906109dd9190611167565b6006549091506000906001600160a01b0387811691161415610ab4576000866001600160a01b031663313ce5676040518163ffffffff1660e01b815260040160206040518083038186803b158015610a3457600080fd5b505afa158015610a48573d6000803e3d6000fd5b505050506040513d601f19601f82011682018060405250810190610a6c91906111a2565b60ff1690506000610a7e8260246113a6565b905083610a8c82600a6112b9565b610a97886002611387565b610aa19190611387565b610aab9190611253565b92505050610b6b565b6000856001600160a01b031663313ce5676040518163ffffffff1660e01b815260040160206040518083038186803b158015610aef57600080fd5b505afa158015610b03573d6000803e3d6000fd5b505050506040513d601f19601f82011682018060405250810190610b2791906111a2565b60ff1690506000610b398260246113a6565b905083610b4782600a6112b9565b610b52876002611387565b610b5c9190611387565b610b669190611253565b925050505b600060075442610b7b91906113a6565b426007556008549091508110610ba45760038290556002805461ff001916610100179055610bfc565b600854610bb18284611387565b610bbb9190611253565b600854610bc883826113a6565b600354610bd59190611387565b610bdf9190611253565b610be9919061123b565b6003556002805461ff0019166101001790555b5050505050505050565b60008281526001602081905260409091200154610c238133610d8b565b6103d08383610e5a565b610c3f6430b236b4b760d91b33610d8b565b816977696e646f7753697a6560b01b1415610c5e5760088190556104f4565b60405162461bcd60e51b815260206004820152602f60248201527f424b534d616a6f72537461626c654c70466565643a3a636f6e6669673a756e7260448201526e65636f676e697a65642d706172616d60881b6064820152608401610379565b610cd06437bbb732b960d91b33610d8b565b610ce26437bbb732b960d91b82610def565b6104506437bbb732b960d91b33610e5a565b600054610100900460ff1680610d095750303b155b80610d17575060005460ff16155b610d335760405162461bcd60e51b8152600401610379906111ed565b600054610100900460ff16158015610d55576000805461ffff19166101011790555b610d5d610ec1565b610d78653830bab9b2b960d11b6437bbb732b960d91b610f2a565b61043e653830bab9b2b960d11b33610f77565b610d95828261072b565b6104f45760405162461bcd60e51b815260206004820152602560248201527f416363657373436f6e74726f6c3a5f636865636b526f6c653a696e76616c696460448201526420726f6c6560d81b6064820152608401610379565b610df9828261072b565b6104f45760008281526001602081815260408084206001600160a01b0386168086529252808420805460ff19169093179092559051339285917f2f8788117e7eff1d82e926ec794901d17c78024a50270940304540a733656f0d9190a45050565b610e64828261072b565b156104f45760008281526001602090815260408083206001600160a01b0385168085529252808320805460ff1916905551339285917ff6391f5c32d9c69d2a47ea670b442974b53935d1edc7fd64eb21e047a839171b9190a45050565b600054610100900460ff1680610ed65750303b155b80610ee4575060005460ff16155b610f005760405162461bcd60e51b8152600401610379906111ed565b600054610100900460ff16158015610f22576000805461ffff19166101011790555b61043e610f81565b6000828152600160208190526040808320909101805490849055905190918391839186917fbd79b86ffe0ab8e8776151514217cd7cacd52c909f66475c3af44e129f0b00ff9190a4505050565b6104f48282610def565b600054610100900460ff1680610f965750303b155b80610fa4575060005460ff16155b610fc05760405162461bcd60e51b8152600401610379906111ed565b600054610100900460ff16158015610fe2576000805461ffff19166101011790555b610ff46437bbb732b960d91b33610f77565b61100e6430b236b4b760d91b6437bbb732b960d91b610f2a565b61102b6737b832b930ba37b960c11b6437bbb732b960d91b610f2a565b61103d6430b236b4b760d91b33610f77565b61043e6737b832b930ba37b960c11b33610f77565b600060208284031215611063578081fd5b813561106e816113d3565b9392505050565b600060208284031215611086578081fd5b815161106e816113d3565b600080604083850312156110a3578081fd5b82356110ae816113d3565b915060208301356110be816113d3565b809150509250929050565b6000602082840312156110da578081fd5b5035919050565b600080604083850312156110f3578182fd5b8235915060208301356110be816113d3565b600080600060608486031215611119578081fd5b83359250602084013561112b816113d3565b9150604084013561113b816113d3565b809150509250925092565b60008060408385031215611158578182fd5b50508035926020909101359150565b600060208284031215611178578081fd5b5051919050565b60008060408385031215611191578182fd5b505080516020909101519092909150565b6000602082840312156111b3578081fd5b815160ff8116811461106e578182fd5b60208082526010908201526f14185d5cd8589b194e881c185d5cd95960821b604082015260600190565b6020808252602e908201527f496e697469616c697a61626c653a20636f6e747261637420697320616c72656160408201526d191e481a5b9a5d1a585b1a5e995960921b606082015260800190565b6000821982111561124e5761124e6113bd565b500190565b60008261126e57634e487b7160e01b81526012600452602481fd5b500490565b80825b600180861161128557506112b0565b818704821115611297576112976113bd565b808616156112a457918102915b9490941c938002611276565b94509492505050565b600061106e60001984846000826112d25750600161106e565b816112df5750600061106e565b81600181146112f557600281146112ff5761132c565b600191505061106e565b60ff841115611310576113106113bd565b6001841b915084821115611326576113266113bd565b5061106e565b5060208310610133831016604e8410600b841016171561135f575081810a8381111561135a5761135a6113bd565b61106e565b61136c8484846001611273565b80860482111561137e5761137e6113bd565b02949350505050565b60008160001904831182151516156113a1576113a16113bd565b500290565b6000828210156113b8576113b86113bd565b500390565b634e487b7160e01b600052601160045260246000fd5b6001600160a01b038116811461045057600080fdfea2646970667358221220b245f6be7b0fc629900c00cf00221ef8711f97100c7ef6c6835bf2b9a03c54b864736f6c63430008030033",
  "devdoc": {
    "kind": "dev",
    "methods": {
      "clear()": {
        "details": "it is should be called by only governance (EOA for now)."
      },
      "getPrice()": {
        "returns": {
          "_0": "value of price, validation check"
        }
      },
      "set(uint256)": {
        "details": "it should be called by only whitelisted operator",
        "params": {
          "_price": "value of price to set"
        }
      }
    },
    "version": 1
  },
  "userdoc": {
    "kind": "user",
    "methods": {
      "clear()": {
        "notice": "make price invalid"
      },
      "getPrice()": {
        "notice": "get price"
      },
      "set(uint256)": {
        "notice": "set price"
      }
    },
    "version": 1
  },
  "storageLayout": {
    "storage": [
      {
        "astId": 24885,
        "contract": "contracts/collateral/KSLPKORCKDAI/BKSLPKORCKDAIFeed.sol:BKSLPKORCKDAIFeed",
        "label": "_initialized",
        "offset": 0,
        "slot": "0",
        "type": "t_bool"
      },
      {
        "astId": 24888,
        "contract": "contracts/collateral/KSLPKORCKDAI/BKSLPKORCKDAIFeed.sol:BKSLPKORCKDAIFeed",
        "label": "_initializing",
        "offset": 1,
        "slot": "0",
        "type": "t_bool"
      },
      {
        "astId": 21831,
        "contract": "contracts/collateral/KSLPKORCKDAI/BKSLPKORCKDAIFeed.sol:BKSLPKORCKDAIFeed",
        "label": "_roles",
        "offset": 0,
        "slot": "1",
        "type": "t_mapping(t_bytes32,t_struct(RoleData)21826_storage)"
      },
      {
        "astId": 22221,
        "contract": "contracts/collateral/KSLPKORCKDAI/BKSLPKORCKDAIFeed.sol:BKSLPKORCKDAIFeed",
        "label": "_paused",
        "offset": 0,
        "slot": "2",
        "type": "t_bool"
      },
      {
        "astId": 31043,
        "contract": "contracts/collateral/KSLPKORCKDAI/BKSLPKORCKDAIFeed.sol:BKSLPKORCKDAIFeed",
        "label": "valid",
        "offset": 1,
        "slot": "2",
        "type": "t_bool"
      },
      {
        "astId": 31045,
        "contract": "contracts/collateral/KSLPKORCKDAI/BKSLPKORCKDAIFeed.sol:BKSLPKORCKDAIFeed",
        "label": "price",
        "offset": 0,
        "slot": "3",
        "type": "t_uint256"
      },
      {
        "astId": 30375,
        "contract": "contracts/collateral/KSLPKORCKDAI/BKSLPKORCKDAIFeed.sol:BKSLPKORCKDAIFeed",
        "label": "addressBook",
        "offset": 0,
        "slot": "4",
        "type": "t_contract(IAddressBook)6869"
      },
      {
        "astId": 30377,
        "contract": "contracts/collateral/KSLPKORCKDAI/BKSLPKORCKDAIFeed.sol:BKSLPKORCKDAIFeed",
        "label": "collateralType",
        "offset": 0,
        "slot": "5",
        "type": "t_bytes32"
      },
      {
        "astId": 30379,
        "contract": "contracts/collateral/KSLPKORCKDAI/BKSLPKORCKDAIFeed.sol:BKSLPKORCKDAIFeed",
        "label": "stableToken",
        "offset": 0,
        "slot": "6",
        "type": "t_address"
      },
      {
        "astId": 30381,
        "contract": "contracts/collateral/KSLPKORCKDAI/BKSLPKORCKDAIFeed.sol:BKSLPKORCKDAIFeed",
        "label": "lastUpdatedAt",
        "offset": 0,
        "slot": "7",
        "type": "t_uint256"
      },
      {
        "astId": 30383,
        "contract": "contracts/collateral/KSLPKORCKDAI/BKSLPKORCKDAIFeed.sol:BKSLPKORCKDAIFeed",
        "label": "windowSize",
        "offset": 0,
        "slot": "8",
        "type": "t_uint256"
      }
    ],
    "types": {
      "t_address": {
        "encoding": "inplace",
        "label": "address",
        "numberOfBytes": "20"
      },
      "t_bool": {
        "encoding": "inplace",
        "label": "bool",
        "numberOfBytes": "1"
      },
      "t_bytes32": {
        "encoding": "inplace",
        "label": "bytes32",
        "numberOfBytes": "32"
      },
      "t_contract(IAddressBook)6869": {
        "encoding": "inplace",
        "label": "contract IAddressBook",
        "numberOfBytes": "20"
      },
      "t_mapping(t_address,t_bool)": {
        "encoding": "mapping",
        "key": "t_address",
        "label": "mapping(address => bool)",
        "numberOfBytes": "32",
        "value": "t_bool"
      },
      "t_mapping(t_bytes32,t_struct(RoleData)21826_storage)": {
        "encoding": "mapping",
        "key": "t_bytes32",
        "label": "mapping(bytes32 => struct AccessControl.RoleData)",
        "numberOfBytes": "32",
        "value": "t_struct(RoleData)21826_storage"
      },
      "t_struct(RoleData)21826_storage": {
        "encoding": "inplace",
        "label": "struct AccessControl.RoleData",
        "members": [
          {
            "astId": 21823,
            "contract": "contracts/collateral/KSLPKORCKDAI/BKSLPKORCKDAIFeed.sol:BKSLPKORCKDAIFeed",
            "label": "members",
            "offset": 0,
            "slot": "0",
            "type": "t_mapping(t_address,t_bool)"
          },
          {
            "astId": 21825,
            "contract": "contracts/collateral/KSLPKORCKDAI/BKSLPKORCKDAIFeed.sol:BKSLPKORCKDAIFeed",
            "label": "adminRole",
            "offset": 0,
            "slot": "1",
            "type": "t_bytes32"
          }
        ],
        "numberOfBytes": "64"
      },
      "t_uint256": {
        "encoding": "inplace",
        "label": "uint256",
        "numberOfBytes": "32"
      }
    }
  }
}