{
  "address": "0x31985DD514875BB35494Ea599B6D46D1491C6B87",
  "abi": [
    {
      "anonymous": false,
      "inputs": [
        {
          "indexed": false,
          "internalType": "address",
          "name": "account",
          "type": "address"
        }
      ],
      "name": "Paused",
      "type": "event"
    },
    {
      "anonymous": false,
      "inputs": [
        {
          "indexed": true,
          "internalType": "bytes32",
          "name": "role",
          "type": "bytes32"
        },
        {
          "indexed": true,
          "internalType": "bytes32",
          "name": "previousAdminRole",
          "type": "bytes32"
        },
        {
          "indexed": true,
          "internalType": "bytes32",
          "name": "newAdminRole",
          "type": "bytes32"
        }
      ],
      "name": "RoleAdminChanged",
      "type": "event"
    },
    {
      "anonymous": false,
      "inputs": [
        {
          "indexed": true,
          "internalType": "bytes32",
          "name": "role",
          "type": "bytes32"
        },
        {
          "indexed": true,
          "internalType": "address",
          "name": "account",
          "type": "address"
        },
        {
          "indexed": true,
          "internalType": "address",
          "name": "sender",
          "type": "address"
        }
      ],
      "name": "RoleGranted",
      "type": "event"
    },
    {
      "anonymous": false,
      "inputs": [
        {
          "indexed": true,
          "internalType": "bytes32",
          "name": "role",
          "type": "bytes32"
        },
        {
          "indexed": true,
          "internalType": "address",
          "name": "account",
          "type": "address"
        },
        {
          "indexed": true,
          "internalType": "address",
          "name": "sender",
          "type": "address"
        }
      ],
      "name": "RoleRevoked",
      "type": "event"
    },
    {
      "anonymous": false,
      "inputs": [
        {
          "indexed": false,
          "internalType": "address",
          "name": "account",
          "type": "address"
        }
      ],
      "name": "Unpaused",
      "type": "event"
    },
    {
      "inputs": [],
      "name": "COLLATERAL_TYPE",
      "outputs": [
        {
          "internalType": "bytes32",
          "name": "",
          "type": "bytes32"
        }
      ],
      "stateMutability": "pure",
      "type": "function"
    },
    {
      "inputs": [],
      "name": "DEFAULT_ADMIN_ROLE",
      "outputs": [
        {
          "internalType": "bytes32",
          "name": "",
          "type": "bytes32"
        }
      ],
      "stateMutability": "view",
      "type": "function"
    },
    {
      "inputs": [
        {
          "internalType": "address",
          "name": "ledger_",
          "type": "address"
        },
        {
          "internalType": "address",
          "name": "kokoaRewardManager_",
          "type": "address"
        }
      ],
      "name": "__BKSLPKSPKUSDTIssuedKSDPool_init",
      "outputs": [],
      "stateMutability": "nonpayable",
      "type": "function"
    },
    {
      "inputs": [
        {
          "internalType": "address",
          "name": "ledger_",
          "type": "address"
        },
        {
          "internalType": "address",
          "name": "kokoaRewardManager_",
          "type": "address"
        }
      ],
      "name": "__IssuedKSDPool_init",
      "outputs": [],
      "stateMutability": "nonpayable",
      "type": "function"
    },
    {
      "inputs": [
        {
          "internalType": "address",
          "name": "usr",
          "type": "address"
        }
      ],
      "name": "balanceOf",
      "outputs": [
        {
          "internalType": "uint256",
          "name": "",
          "type": "uint256"
        }
      ],
      "stateMutability": "view",
      "type": "function"
    },
    {
      "inputs": [
        {
          "internalType": "bytes32",
          "name": "role",
          "type": "bytes32"
        }
      ],
      "name": "getRoleAdmin",
      "outputs": [
        {
          "internalType": "bytes32",
          "name": "",
          "type": "bytes32"
        }
      ],
      "stateMutability": "view",
      "type": "function"
    },
    {
      "inputs": [
        {
          "internalType": "bytes32",
          "name": "role",
          "type": "bytes32"
        },
        {
          "internalType": "address",
          "name": "account",
          "type": "address"
        }
      ],
      "name": "grantRole",
      "outputs": [],
      "stateMutability": "nonpayable",
      "type": "function"
    },
    {
      "inputs": [
        {
          "internalType": "bytes32",
          "name": "role",
          "type": "bytes32"
        },
        {
          "internalType": "address",
          "name": "account",
          "type": "address"
        }
      ],
      "name": "hasRole",
      "outputs": [
        {
          "internalType": "bool",
          "name": "",
          "type": "bool"
        }
      ],
      "stateMutability": "view",
      "type": "function"
    },
    {
      "inputs": [],
      "name": "ledger",
      "outputs": [
        {
          "internalType": "contract ILedger",
          "name": "",
          "type": "address"
        }
      ],
      "stateMutability": "view",
      "type": "function"
    },
    {
      "inputs": [
        {
          "internalType": "int256",
          "name": "amount",
          "type": "int256"
        },
        {
          "internalType": "address",
          "name": "to",
          "type": "address"
        }
      ],
      "name": "onChanged",
      "outputs": [],
      "stateMutability": "nonpayable",
      "type": "function"
    },
    {
      "inputs": [
        {
          "internalType": "uint256",
          "name": "amount",
          "type": "uint256"
        },
        {
          "internalType": "address",
          "name": "to",
          "type": "address"
        }
      ],
      "name": "onDeposit",
      "outputs": [],
      "stateMutability": "nonpayable",
      "type": "function"
    },
    {
      "inputs": [
        {
          "internalType": "uint256",
          "name": "amount",
          "type": "uint256"
        },
        {
          "internalType": "address",
          "name": "to",
          "type": "address"
        }
      ],
      "name": "onWithdraw",
      "outputs": [],
      "stateMutability": "nonpayable",
      "type": "function"
    },
    {
      "inputs": [],
      "name": "pause",
      "outputs": [],
      "stateMutability": "nonpayable",
      "type": "function"
    },
    {
      "inputs": [],
      "name": "paused",
      "outputs": [
        {
          "internalType": "bool",
          "name": "",
          "type": "bool"
        }
      ],
      "stateMutability": "view",
      "type": "function"
    },
    {
      "inputs": [
        {
          "internalType": "bytes32",
          "name": "role",
          "type": "bytes32"
        },
        {
          "internalType": "address",
          "name": "account",
          "type": "address"
        }
      ],
      "name": "renounceRole",
      "outputs": [],
      "stateMutability": "nonpayable",
      "type": "function"
    },
    {
      "inputs": [
        {
          "internalType": "bytes32",
          "name": "role",
          "type": "bytes32"
        },
        {
          "internalType": "address",
          "name": "account",
          "type": "address"
        }
      ],
      "name": "revokeRole",
      "outputs": [],
      "stateMutability": "nonpayable",
      "type": "function"
    },
    {
      "inputs": [],
      "name": "rewardManger",
      "outputs": [
        {
          "internalType": "contract IKokoaRewardManager",
          "name": "",
          "type": "address"
        }
      ],
      "stateMutability": "view",
      "type": "function"
    },
    {
      "inputs": [],
      "name": "totalSupply",
      "outputs": [
        {
          "internalType": "uint256",
          "name": "",
          "type": "uint256"
        }
      ],
      "stateMutability": "view",
      "type": "function"
    },
    {
      "inputs": [
        {
          "internalType": "address",
          "name": "newOwner",
          "type": "address"
        }
      ],
      "name": "transferOwnership",
      "outputs": [],
      "stateMutability": "nonpayable",
      "type": "function"
    },
    {
      "inputs": [],
      "name": "unpause",
      "outputs": [],
      "stateMutability": "nonpayable",
      "type": "function"
    }
  ],
  "transactionHash": "0xd27f7d248077d5971e82b192bbc28e7ae24516feb60ccafd8a21dbe826af5c39",
  "args": [],
  "solcInputHash": "de4f5741dec2c2b2fd1b551e118f3df0",
  "bytecode": "0x608060405234801561001057600080fd5b50610f09806100206000396000f3fe608060405234801561001057600080fd5b506004361061012c5760003560e01c806370a08231116100ad578063bea679ac11610071578063bea679ac1461025a578063d0d9f8ff1461026d578063d547741f14610280578063f2fde38b14610293578063f3759d5c146102a65761012c565b806370a08231146102115780638456cb591461022457806391d148541461022c5780639c0ca5291461023f578063a217fddf146102525761012c565b80633e66fe94116100f45780633e66fe941461019c5780633f4ba83a146101af57806356397c35146101b75780635c975abb146101e75780636bf34832146101fe5761012c565b806318160ddd14610131578063248a9ca31461014c5780632c214c9d1461015f5780632f2ff15d1461017457806336568abe14610189575b600080fd5b6101396102b9565b6040519081526020015b60405180910390f35b61013961015a366004610ddf565b610364565b6b12d4d31412d4d412d554d11560a21b610139565b610187610182366004610df7565b61037d565b005b610187610197366004610df7565b61039f565b6101876101aa366004610dad565b610422565b6101876104a3565b6002546101cf9061010090046001600160a01b031681565b6040516001600160a01b039091168152602001610143565b60025460ff165b6040519015158152602001610143565b61018761020c366004610dad565b610541565b61013961021f366004610d8c565b6105ff565b6101876106b5565b6101ee61023a366004610df7565b61074c565b61018761024d366004610df7565b610777565b610139600081565b610187610268366004610df7565b610852565b6003546101cf906001600160a01b031681565b61018761028e366004610df7565b6108fb565b6101876102a1366004610d8c565b610918565b6101876102b4366004610df7565b610951565b600254600090819061010090046001600160a01b0316637d5422a76102ea6b12d4d31412d4d412d554d11560a21b90565b6040518263ffffffff1660e01b815260040161030891815260200190565b60c06040518083038186803b15801561032057600080fd5b505afa158015610334573d6000803e3d6000fd5b505050506040513d601f19601f820116820180604052508101906103589190610e3c565b50929550505050505090565b600081815260016020819052604090912001545b919050565b61038682610364565b61039081336109fb565b61039a8383610a5f565b505050565b6001600160a01b03811633146104145760405162461bcd60e51b815260206004820152602f60248201527f416363657373436f6e74726f6c3a2063616e206f6e6c792072656e6f756e636560448201526e103937b632b9903337b91039b2b63360891b60648201526084015b60405180910390fd5b61041e8282610aca565b5050565b600054610100900460ff16806104375750303b155b80610445575060005460ff16155b6104615760405162461bcd60e51b815260040161040b90610e85565b600054610100900460ff16158015610483576000805461ffff19166101011790555b61048d8383610541565b801561039a576000805461ff0019169055505050565b60025460ff166104ec5760405162461bcd60e51b815260206004820152601460248201527314185d5cd8589b194e881b9bdd081c185d5cd95960621b604482015260640161040b565b653830bab9b2b960d11b61050081336109fb565b6002805460ff191690556040513381527f5db9ee0a495bf2e6ff9c91a7834c1ba4fdd244a5e8aa4e537bd38aeae4b073aa906020015b60405180910390a150565b600054610100900460ff16806105565750303b155b80610564575060005460ff16155b6105805760405162461bcd60e51b815260040161040b90610e85565b600054610100900460ff161580156105a2576000805461ffff19166101011790555b6105aa610b31565b60028054610100600160a81b0319166101006001600160a01b038681169190910291909117909155600380546001600160a01b031916918416919091179055801561039a576000805461ff0019169055505050565b600254600090819061010090046001600160a01b031663b75baf796106306b12d4d31412d4d412d554d11560a21b90565b6040516001600160e01b031960e084901b16815260048101919091526001600160a01b0386166024820152604401604080518083038186803b15801561067557600080fd5b505afa158015610689573d6000803e3d6000fd5b505050506040513d601f19601f820116820180604052508101906106ad9190610e19565b949350505050565b60025460ff16156106fb5760405162461bcd60e51b815260206004820152601060248201526f14185d5cd8589b194e881c185d5cd95960821b604482015260640161040b565b653830bab9b2b960d11b61070f81336109fb565b6002805460ff191660011790556040513381527f62e78cea01bee320cd4e420270b5ea74000d11b0c9f74754ebdbfc544b05a25890602001610536565b60009182526001602090815260408084206001600160a01b0393909316845291905290205460ff1690565b60025461010090046001600160a01b031633146107e75760405162461bcd60e51b815260206004820152602860248201527f4973737565644b5344506f6f6c3a3a6f6e4368616e6765643a206e6f742061756044820152671d1a1bdc9a5e995960c21b606482015260840161040b565b600354604051639c0ca52960e01b8152600481018490526001600160a01b03838116602483015290911690639c0ca529906044015b600060405180830381600087803b15801561083657600080fd5b505af115801561084a573d6000803e3d6000fd5b505050505050565b60025461010090046001600160a01b031633146108c25760405162461bcd60e51b815260206004820152602860248201527f4973737565644b5344506f6f6c3a3a6f6e4465706f7369743a206e6f742061756044820152671d1a1bdc9a5e995960c21b606482015260840161040b565b600354604051632fa99e6b60e21b8152600481018490526001600160a01b0383811660248301529091169063bea679ac9060440161081c565b61090482610364565b61090e81336109fb565b61039a8383610aca565b61092a6437bbb732b960d91b336109fb565b61093c6437bbb732b960d91b82610a5f565b61094e6437bbb732b960d91b33610aca565b50565b60025461010090046001600160a01b031633146109c25760405162461bcd60e51b815260206004820152602960248201527f4973737565644b5344506f6f6c3a3a6f6e57697468647261773a206e6f7420616044820152681d5d1a1bdc9a5e995960ba1b606482015260840161040b565b600354604051633cdd675760e21b8152600481018490526001600160a01b0383811660248301529091169063f3759d5c9060440161081c565b610a05828261074c565b61041e5760405162461bcd60e51b815260206004820152602560248201527f416363657373436f6e74726f6c3a5f636865636b526f6c653a696e76616c696460448201526420726f6c6560d81b606482015260840161040b565b610a69828261074c565b61041e5760008281526001602081815260408084206001600160a01b0386168086529252808420805460ff19169093179092559051339285917f2f8788117e7eff1d82e926ec794901d17c78024a50270940304540a733656f0d9190a45050565b610ad4828261074c565b1561041e5760008281526001602090815260408083206001600160a01b0385168085529252808320805460ff1916905551339285917ff6391f5c32d9c69d2a47ea670b442974b53935d1edc7fd64eb21e047a839171b9190a45050565b600054610100900460ff1680610b465750303b155b80610b54575060005460ff16155b610b705760405162461bcd60e51b815260040161040b90610e85565b600054610100900460ff16158015610b92576000805461ffff19166101011790555b610b9a610bdc565b610bb5653830bab9b2b960d11b6437bbb732b960d91b610c45565b610bc8653830bab9b2b960d11b33610c9a565b801561094e576000805461ff001916905550565b600054610100900460ff1680610bf15750303b155b80610bff575060005460ff16155b610c1b5760405162461bcd60e51b815260040161040b90610e85565b600054610100900460ff16158015610c3d576000805461ffff19166101011790555b610bc8610ca4565b6000610c5083610364565b6000848152600160208190526040808320909101859055519192508391839186917fbd79b86ffe0ab8e8776151514217cd7cacd52c909f66475c3af44e129f0b00ff9190a4505050565b61041e8282610a5f565b600054610100900460ff1680610cb95750303b155b80610cc7575060005460ff16155b610ce35760405162461bcd60e51b815260040161040b90610e85565b600054610100900460ff16158015610d05576000805461ffff19166101011790555b610d176437bbb732b960d91b33610c9a565b610d316430b236b4b760d91b6437bbb732b960d91b610c45565b610d4e6737b832b930ba37b960c11b6437bbb732b960d91b610c45565b610d606430b236b4b760d91b33610c9a565b610bc86737b832b930ba37b960c11b33610c9a565b80356001600160a01b038116811461037857600080fd5b600060208284031215610d9d578081fd5b610da682610d75565b9392505050565b60008060408385031215610dbf578081fd5b610dc883610d75565b9150610dd660208401610d75565b90509250929050565b600060208284031215610df0578081fd5b5035919050565b60008060408385031215610e09578182fd5b82359150610dd660208401610d75565b60008060408385031215610e2b578182fd5b505080516020909101519092909150565b60008060008060008060c08789031215610e54578182fd5b865195506020870151945060408701519350606087015192506080870151915060a087015190509295509295509295565b6020808252602e908201527f496e697469616c697a61626c653a20636f6e747261637420697320616c72656160408201526d191e481a5b9a5d1a585b1a5e995960921b60608201526080019056fea26469706673582212208bbc8a0de6ef7564f7221740c4a17639a8eeea1d8be867743ce1870f7962666164736f6c63430008030033",
  "devdoc": {
    "kind": "dev",
    "methods": {
      "balanceOf(address)": {
        "params": {
          "usr": "address of user"
        }
      },
      "onChanged(int256,address)": {
        "details": " ledger     . (eng)Only ledger contract should be able to call this function",
        "params": {
          "amount": "amount changed",
          "to": "The address of the user"
        }
      },
      "onDeposit(uint256,address)": {
        "details": " ledger     . (eng)Only ledger contract should be able to call this function",
        "params": {
          "amount": "amount increased",
          "to": "The address of the user"
        }
      },
      "onWithdraw(uint256,address)": {
        "details": " ledger     . (eng)Only ledger contract should be able to call this function",
        "params": {
          "amount": "amount decreased",
          "to": "The address of the user"
        }
      }
    },
    "version": 1
  },
  "userdoc": {
    "kind": "user",
    "methods": {
      "balanceOf(address)": {
        "notice": "   ksd Amount of KSD that a user minted against his collateral asset."
      },
      "onChanged(int256,address)": {
        "notice": "onDeposit onWithdraw wrapperA wrapper function for onDeposit and onWithdraw functions"
      },
      "onDeposit(uint256,address)": {
        "notice": "  ksd     functionThis should be called when the amount of KSD user minted from CDP gets increased"
      },
      "onWithdraw(uint256,address)": {
        "notice": "  ksd     functionThis should be called when the amount of KSD user minted from CDP gets decreased"
      },
      "totalSupply()": {
        "notice": "   ksd   (eng)Total amount of KSD minted from CDP"
      }
    },
    "version": 1
  },
  "storageLayout": {
    "storage": [
      {
        "astId": 24885,
        "contract": "contracts/collateral/KSLPKSPKUSDT/BKSLPKSPKUSDTIssuedKsdPool.sol:BKSLPKSPKUSDTIssuedKSDPool",
        "label": "_initialized",
        "offset": 0,
        "slot": "0",
        "type": "t_bool"
      },
      {
        "astId": 24888,
        "contract": "contracts/collateral/KSLPKSPKUSDT/BKSLPKSPKUSDTIssuedKsdPool.sol:BKSLPKSPKUSDTIssuedKSDPool",
        "label": "_initializing",
        "offset": 1,
        "slot": "0",
        "type": "t_bool"
      },
      {
        "astId": 21831,
        "contract": "contracts/collateral/KSLPKSPKUSDT/BKSLPKSPKUSDTIssuedKsdPool.sol:BKSLPKSPKUSDTIssuedKSDPool",
        "label": "_roles",
        "offset": 0,
        "slot": "1",
        "type": "t_mapping(t_bytes32,t_struct(RoleData)21826_storage)"
      },
      {
        "astId": 22221,
        "contract": "contracts/collateral/KSLPKSPKUSDT/BKSLPKSPKUSDTIssuedKsdPool.sol:BKSLPKSPKUSDTIssuedKSDPool",
        "label": "_paused",
        "offset": 0,
        "slot": "2",
        "type": "t_bool"
      },
      {
        "astId": 33975,
        "contract": "contracts/collateral/KSLPKSPKUSDT/BKSLPKSPKUSDTIssuedKsdPool.sol:BKSLPKSPKUSDTIssuedKSDPool",
        "label": "ledger",
        "offset": 1,
        "slot": "2",
        "type": "t_contract(ILedger)8858"
      },
      {
        "astId": 33978,
        "contract": "contracts/collateral/KSLPKSPKUSDT/BKSLPKSPKUSDTIssuedKsdPool.sol:BKSLPKSPKUSDTIssuedKSDPool",
        "label": "rewardManger",
        "offset": 0,
        "slot": "3",
        "type": "t_contract(IKokoaRewardManager)8454"
      }
    ],
    "types": {
      "t_address": {
        "encoding": "inplace",
        "label": "address",
        "numberOfBytes": "20"
      },
      "t_bool": {
        "encoding": "inplace",
        "label": "bool",
        "numberOfBytes": "1"
      },
      "t_bytes32": {
        "encoding": "inplace",
        "label": "bytes32",
        "numberOfBytes": "32"
      },
      "t_contract(IKokoaRewardManager)8454": {
        "encoding": "inplace",
        "label": "contract IKokoaRewardManager",
        "numberOfBytes": "20"
      },
      "t_contract(ILedger)8858": {
        "encoding": "inplace",
        "label": "contract ILedger",
        "numberOfBytes": "20"
      },
      "t_mapping(t_address,t_bool)": {
        "encoding": "mapping",
        "key": "t_address",
        "label": "mapping(address => bool)",
        "numberOfBytes": "32",
        "value": "t_bool"
      },
      "t_mapping(t_bytes32,t_struct(RoleData)21826_storage)": {
        "encoding": "mapping",
        "key": "t_bytes32",
        "label": "mapping(bytes32 => struct AccessControl.RoleData)",
        "numberOfBytes": "32",
        "value": "t_struct(RoleData)21826_storage"
      },
      "t_struct(RoleData)21826_storage": {
        "encoding": "inplace",
        "label": "struct AccessControl.RoleData",
        "members": [
          {
            "astId": 21823,
            "contract": "contracts/collateral/KSLPKSPKUSDT/BKSLPKSPKUSDTIssuedKsdPool.sol:BKSLPKSPKUSDTIssuedKSDPool",
            "label": "members",
            "offset": 0,
            "slot": "0",
            "type": "t_mapping(t_address,t_bool)"
          },
          {
            "astId": 21825,
            "contract": "contracts/collateral/KSLPKSPKUSDT/BKSLPKSPKUSDTIssuedKsdPool.sol:BKSLPKSPKUSDTIssuedKSDPool",
            "label": "adminRole",
            "offset": 0,
            "slot": "1",
            "type": "t_bytes32"
          }
        ],
        "numberOfBytes": "64"
      }
    }
  }
}