{
  "address": "0xEEEe25550B6d72583a54f44D74dc4D589D02Bfe0",
  "abi": [
    {
      "anonymous": false,
      "inputs": [
        {
          "indexed": false,
          "internalType": "address",
          "name": "account",
          "type": "address"
        }
      ],
      "name": "Paused",
      "type": "event"
    },
    {
      "anonymous": false,
      "inputs": [
        {
          "indexed": true,
          "internalType": "bytes32",
          "name": "role",
          "type": "bytes32"
        },
        {
          "indexed": true,
          "internalType": "bytes32",
          "name": "previousAdminRole",
          "type": "bytes32"
        },
        {
          "indexed": true,
          "internalType": "bytes32",
          "name": "newAdminRole",
          "type": "bytes32"
        }
      ],
      "name": "RoleAdminChanged",
      "type": "event"
    },
    {
      "anonymous": false,
      "inputs": [
        {
          "indexed": true,
          "internalType": "bytes32",
          "name": "role",
          "type": "bytes32"
        },
        {
          "indexed": true,
          "internalType": "address",
          "name": "account",
          "type": "address"
        },
        {
          "indexed": true,
          "internalType": "address",
          "name": "sender",
          "type": "address"
        }
      ],
      "name": "RoleGranted",
      "type": "event"
    },
    {
      "anonymous": false,
      "inputs": [
        {
          "indexed": true,
          "internalType": "bytes32",
          "name": "role",
          "type": "bytes32"
        },
        {
          "indexed": true,
          "internalType": "address",
          "name": "account",
          "type": "address"
        },
        {
          "indexed": true,
          "internalType": "address",
          "name": "sender",
          "type": "address"
        }
      ],
      "name": "RoleRevoked",
      "type": "event"
    },
    {
      "anonymous": false,
      "inputs": [
        {
          "indexed": false,
          "internalType": "address",
          "name": "account",
          "type": "address"
        }
      ],
      "name": "Unpaused",
      "type": "event"
    },
    {
      "inputs": [],
      "name": "DEFAULT_ADMIN_ROLE",
      "outputs": [
        {
          "internalType": "bytes32",
          "name": "",
          "type": "bytes32"
        }
      ],
      "stateMutability": "view",
      "type": "function"
    },
    {
      "inputs": [
        {
          "internalType": "address",
          "name": "addressBook",
          "type": "address"
        }
      ],
      "name": "__BKSLPKUSDTKUSDCFeed_init",
      "outputs": [],
      "stateMutability": "nonpayable",
      "type": "function"
    },
    {
      "inputs": [
        {
          "internalType": "bytes32",
          "name": "collateralType_",
          "type": "bytes32"
        },
        {
          "internalType": "address",
          "name": "addressBook_",
          "type": "address"
        }
      ],
      "name": "__BKSStableStableLpFeed_init",
      "outputs": [],
      "stateMutability": "nonpayable",
      "type": "function"
    },
    {
      "inputs": [],
      "name": "__Feed_init",
      "outputs": [],
      "stateMutability": "nonpayable",
      "type": "function"
    },
    {
      "inputs": [],
      "name": "addressBook",
      "outputs": [
        {
          "internalType": "contract IAddressBook",
          "name": "",
          "type": "address"
        }
      ],
      "stateMutability": "view",
      "type": "function"
    },
    {
      "inputs": [],
      "name": "clear",
      "outputs": [],
      "stateMutability": "nonpayable",
      "type": "function"
    },
    {
      "inputs": [],
      "name": "collateralType",
      "outputs": [
        {
          "internalType": "bytes32",
          "name": "",
          "type": "bytes32"
        }
      ],
      "stateMutability": "view",
      "type": "function"
    },
    {
      "inputs": [],
      "name": "getPrice",
      "outputs": [
        {
          "internalType": "uint256",
          "name": "",
          "type": "uint256"
        },
        {
          "internalType": "bool",
          "name": "",
          "type": "bool"
        }
      ],
      "stateMutability": "view",
      "type": "function"
    },
    {
      "inputs": [
        {
          "internalType": "bytes32",
          "name": "role",
          "type": "bytes32"
        }
      ],
      "name": "getRoleAdmin",
      "outputs": [
        {
          "internalType": "bytes32",
          "name": "",
          "type": "bytes32"
        }
      ],
      "stateMutability": "view",
      "type": "function"
    },
    {
      "inputs": [
        {
          "internalType": "bytes32",
          "name": "role",
          "type": "bytes32"
        },
        {
          "internalType": "address",
          "name": "account",
          "type": "address"
        }
      ],
      "name": "grantRole",
      "outputs": [],
      "stateMutability": "nonpayable",
      "type": "function"
    },
    {
      "inputs": [
        {
          "internalType": "bytes32",
          "name": "role",
          "type": "bytes32"
        },
        {
          "internalType": "address",
          "name": "account",
          "type": "address"
        }
      ],
      "name": "hasRole",
      "outputs": [
        {
          "internalType": "bool",
          "name": "",
          "type": "bool"
        }
      ],
      "stateMutability": "view",
      "type": "function"
    },
    {
      "inputs": [],
      "name": "pause",
      "outputs": [],
      "stateMutability": "nonpayable",
      "type": "function"
    },
    {
      "inputs": [],
      "name": "paused",
      "outputs": [
        {
          "internalType": "bool",
          "name": "",
          "type": "bool"
        }
      ],
      "stateMutability": "view",
      "type": "function"
    },
    {
      "inputs": [],
      "name": "price",
      "outputs": [
        {
          "internalType": "uint256",
          "name": "",
          "type": "uint256"
        }
      ],
      "stateMutability": "view",
      "type": "function"
    },
    {
      "inputs": [
        {
          "internalType": "bytes32",
          "name": "role",
          "type": "bytes32"
        },
        {
          "internalType": "address",
          "name": "account",
          "type": "address"
        }
      ],
      "name": "renounceRole",
      "outputs": [],
      "stateMutability": "nonpayable",
      "type": "function"
    },
    {
      "inputs": [
        {
          "internalType": "bytes32",
          "name": "role",
          "type": "bytes32"
        },
        {
          "internalType": "address",
          "name": "account",
          "type": "address"
        }
      ],
      "name": "revokeRole",
      "outputs": [],
      "stateMutability": "nonpayable",
      "type": "function"
    },
    {
      "inputs": [
        {
          "internalType": "uint256",
          "name": "_price",
          "type": "uint256"
        }
      ],
      "name": "set",
      "outputs": [],
      "stateMutability": "nonpayable",
      "type": "function"
    },
    {
      "inputs": [
        {
          "internalType": "address",
          "name": "newOwner",
          "type": "address"
        }
      ],
      "name": "transferOwnership",
      "outputs": [],
      "stateMutability": "nonpayable",
      "type": "function"
    },
    {
      "inputs": [],
      "name": "unpause",
      "outputs": [],
      "stateMutability": "nonpayable",
      "type": "function"
    },
    {
      "inputs": [],
      "name": "valid",
      "outputs": [
        {
          "internalType": "bool",
          "name": "",
          "type": "bool"
        }
      ],
      "stateMutability": "view",
      "type": "function"
    }
  ],
  "transactionHash": "0x2ca558ef23d46cae8e2673c1112bbf946a5e7d20d182cc16397002ff16b309bb",
  "args": [],
  "solcInputHash": "daac9cba34dfabe5953ff704314717f0",
  "bytecode": "0x608060405234801561001057600080fd5b5061121f806100206000396000f3fe608060405234801561001057600080fd5b506004361061012c5760003560e01c806391d14854116100ad578063d547741f11610071578063d547741f14610240578063e824600f14610253578063f2fde38b1461025c578063f5887cdd1461026f578063fda090681461029a5761012c565b806391d14854146101ed57806398d5fdca14610200578063a035b1fe1461021d578063a217fddf14610226578063c19912191461022e5761012c565b806352efea6e116100f457806352efea6e146101a05780635c975abb146101a857806360fe47b1146101bf5780638456cb59146101d257806388ad6b5b146101da5761012c565b806317dc4aa014610131578063248a9ca31461013b5780632f2ff15d1461017257806336568abe146101855780633f4ba83a14610198575b600080fd5b6101396102ad565b005b61015f610149366004610f4b565b6000908152600160208190526040909120015490565b6040519081526020015b60405180910390f35b610139610180366004610f63565b610334565b610139610193366004610f63565b610360565b6101396103de565b61013961047c565b60025460ff165b6040519015158152602001610169565b6101396101cd366004610f4b565b61049b565b61013961050a565b6101396101e8366004610f63565b6105a1565b6101af6101fb366004610f63565b610640565b61020861066b565b60408051928352901515602083015201610169565b61015f60035481565b61015f600081565b6002546101af90610100900460ff1681565b61013961024e366004610f63565b610ac0565b61015f60055481565b61013961026a366004610f0c565b610ae7565b600454610282906001600160a01b031681565b6040516001600160a01b039091168152602001610169565b6101396102a8366004610f0c565b610b1d565b600054610100900460ff16806102c25750303b155b806102d0575060005460ff16155b6102f55760405162461bcd60e51b81526004016102ec90610fee565b60405180910390fd5b600054610100900460ff16158015610317576000805461ffff19166101011790555b61031f610bae565b8015610331576000805461ff00191690555b50565b600082815260016020819052604090912001546103518133610c45565b61035b8383610ca9565b505050565b6001600160a01b03811633146103d05760405162461bcd60e51b815260206004820152602f60248201527f416363657373436f6e74726f6c3a2063616e206f6e6c792072656e6f756e636560448201526e103937b632b9903337b91039b2b63360891b60648201526084016102ec565b6103da8282610d14565b5050565b60025460ff166104275760405162461bcd60e51b815260206004820152601460248201527314185d5cd8589b194e881b9bdd081c185d5cd95960621b60448201526064016102ec565b653830bab9b2b960d11b61043b8133610c45565b6002805460ff191690556040513381527f5db9ee0a495bf2e6ff9c91a7834c1ba4fdd244a5e8aa4e537bd38aeae4b073aa906020015b60405180910390a150565b61048e6437bbb732b960d91b33610c45565b6002805461ff0019169055565b6104b06737b832b930ba37b960c11b33610c45565b60025460ff16156104f65760405162461bcd60e51b815260206004820152601060248201526f14185d5cd8589b194e881c185d5cd95960821b60448201526064016102ec565b6003556002805461ff001916610100179055565b60025460ff16156105505760405162461bcd60e51b815260206004820152601060248201526f14185d5cd8589b194e881c185d5cd95960821b60448201526064016102ec565b653830bab9b2b960d11b6105648133610c45565b6002805460ff191660011790556040513381527f62e78cea01bee320cd4e420270b5ea74000d11b0c9f74754ebdbfc544b05a25890602001610471565b600054610100900460ff16806105b65750303b155b806105c4575060005460ff16155b6105e05760405162461bcd60e51b81526004016102ec90610fee565b600054610100900460ff16158015610602576000805461ffff19166101011790555b61060a6102ad565b6005839055600480546001600160a01b0319166001600160a01b038416179055801561035b576000805461ff0019169055505050565b60009182526001602090815260408084206001600160a01b0393909316845291905290205460ff1690565b6004805460055460405163f084b66960e01b815292830152643a37b5b2b760d91b6024830152600091829182916001600160a01b039091169063f084b6699060440160206040518083038186803b1580156106c557600080fd5b505afa1580156106d9573d6000803e3d6000fd5b505050506040513d601f19601f820116820180604052508101906106fd9190610f2f565b90506000816001600160a01b0316630fc63d106040518163ffffffff1660e01b815260040160206040518083038186803b15801561073a57600080fd5b505afa15801561074e573d6000803e3d6000fd5b505050506040513d601f19601f820116820180604052508101906107729190610f2f565b90506000826001600160a01b0316635f64b55b6040518163ffffffff1660e01b815260040160206040518083038186803b1580156107af57600080fd5b505afa1580156107c3573d6000803e3d6000fd5b505050506040513d601f19601f820116820180604052508101906107e79190610f2f565b90506000826001600160a01b031663313ce5676040518163ffffffff1660e01b815260040160206040518083038186803b15801561082457600080fd5b505afa158015610838573d6000803e3d6000fd5b505050506040513d601f19601f8201168201806040525081019061085c9190610fcd565b60ff1690506000826001600160a01b031663313ce5676040518163ffffffff1660e01b815260040160206040518083038186803b15801561089c57600080fd5b505afa1580156108b0573d6000803e3d6000fd5b505050506040513d601f19601f820116820180604052508101906108d49190610fcd565b60ff169050600080866001600160a01b0316631a595f656040518163ffffffff1660e01b8152600401604080518083038186803b15801561091457600080fd5b505afa158015610928573d6000803e3d6000fd5b505050506040513d601f19601f8201168201806040525081019061094c9190610faa565b915091506000876001600160a01b03166318160ddd6040518163ffffffff1660e01b815260040160206040518083038186803b15801561098b57600080fd5b505afa15801561099f573d6000803e3d6000fd5b505050506040513d601f19601f820116820180604052508101906109c39190610f92565b90506000886001600160a01b031663313ce5676040518163ffffffff1660e01b815260040160206040518083038186803b158015610a0057600080fd5b505afa158015610a14573d6000803e3d6000fd5b505050506040513d601f19601f82011682018060405250810190610a389190610fcd565b60ff1690506000610a49868861103c565b610a549060246111a7565b9050600083610a6483600a6110ba565b610a6f8a600a6110ba565b610a799088611188565b610a848a600a6110ba565b610a8e908a611188565b610a98919061103c565b610aa29190611188565b610aac9190611054565b9d60019d509b505050505050505050505050565b60008281526001602081905260409091200154610add8133610c45565b61035b8383610d14565b610af96437bbb732b960d91b33610c45565b610b0b6437bbb732b960d91b82610ca9565b6103316437bbb732b960d91b33610d14565b600054610100900460ff1680610b325750303b155b80610b40575060005460ff16155b610b5c5760405162461bcd60e51b81526004016102ec90610fee565b600054610100900460ff16158015610b7e576000805461ffff19166101011790555b610b996d4b534c504b555344544b5553444360901b836105a1565b80156103da576000805461ff00191690555050565b600054610100900460ff1680610bc35750303b155b80610bd1575060005460ff16155b610bed5760405162461bcd60e51b81526004016102ec90610fee565b600054610100900460ff16158015610c0f576000805461ffff19166101011790555b610c17610d7b565b610c32653830bab9b2b960d11b6437bbb732b960d91b610de4565b61031f653830bab9b2b960d11b33610e31565b610c4f8282610640565b6103da5760405162461bcd60e51b815260206004820152602560248201527f416363657373436f6e74726f6c3a5f636865636b526f6c653a696e76616c696460448201526420726f6c6560d81b60648201526084016102ec565b610cb38282610640565b6103da5760008281526001602081815260408084206001600160a01b0386168086529252808420805460ff19169093179092559051339285917f2f8788117e7eff1d82e926ec794901d17c78024a50270940304540a733656f0d9190a45050565b610d1e8282610640565b156103da5760008281526001602090815260408083206001600160a01b0385168085529252808320805460ff1916905551339285917ff6391f5c32d9c69d2a47ea670b442974b53935d1edc7fd64eb21e047a839171b9190a45050565b600054610100900460ff1680610d905750303b155b80610d9e575060005460ff16155b610dba5760405162461bcd60e51b81526004016102ec90610fee565b600054610100900460ff16158015610ddc576000805461ffff19166101011790555b61031f610e3b565b6000828152600160208190526040808320909101805490849055905190918391839186917fbd79b86ffe0ab8e8776151514217cd7cacd52c909f66475c3af44e129f0b00ff9190a4505050565b6103da8282610ca9565b600054610100900460ff1680610e505750303b155b80610e5e575060005460ff16155b610e7a5760405162461bcd60e51b81526004016102ec90610fee565b600054610100900460ff16158015610e9c576000805461ffff19166101011790555b610eae6437bbb732b960d91b33610e31565b610ec86430b236b4b760d91b6437bbb732b960d91b610de4565b610ee56737b832b930ba37b960c11b6437bbb732b960d91b610de4565b610ef76430b236b4b760d91b33610e31565b61031f6737b832b930ba37b960c11b33610e31565b600060208284031215610f1d578081fd5b8135610f28816111d4565b9392505050565b600060208284031215610f40578081fd5b8151610f28816111d4565b600060208284031215610f5c578081fd5b5035919050565b60008060408385031215610f75578081fd5b823591506020830135610f87816111d4565b809150509250929050565b600060208284031215610fa3578081fd5b5051919050565b60008060408385031215610fbc578182fd5b505080516020909101519092909150565b600060208284031215610fde578081fd5b815160ff81168114610f28578182fd5b6020808252602e908201527f496e697469616c697a61626c653a20636f6e747261637420697320616c72656160408201526d191e481a5b9a5d1a585b1a5e995960921b606082015260800190565b6000821982111561104f5761104f6111be565b500190565b60008261106f57634e487b7160e01b81526012600452602481fd5b500490565b80825b600180861161108657506110b1565b818704821115611098576110986111be565b808616156110a557918102915b9490941c938002611077565b94509492505050565b6000610f2860001984846000826110d357506001610f28565b816110e057506000610f28565b81600181146110f657600281146111005761112d565b6001915050610f28565b60ff841115611111576111116111be565b6001841b915084821115611127576111276111be565b50610f28565b5060208310610133831016604e8410600b8410161715611160575081810a8381111561115b5761115b6111be565b610f28565b61116d8484846001611074565b80860482111561117f5761117f6111be565b02949350505050565b60008160001904831182151516156111a2576111a26111be565b500290565b6000828210156111b9576111b96111be565b500390565b634e487b7160e01b600052601160045260246000fd5b6001600160a01b038116811461033157600080fdfea2646970667358221220ae312b9b4af8ba9b328af9424a2616de72df3e5dbd2df8de2a143106eacfcf5564736f6c63430008030033",
  "devdoc": {
    "kind": "dev",
    "methods": {
      "clear()": {
        "details": "it is should be called by only governance (EOA for now)."
      },
      "getPrice()": {
        "returns": {
          "_0": "value of price, validation check"
        }
      },
      "set(uint256)": {
        "details": "it should be called by only whitelisted operator",
        "params": {
          "_price": "value of price to set"
        }
      }
    },
    "version": 1
  },
  "userdoc": {
    "kind": "user",
    "methods": {
      "clear()": {
        "notice": "make price invalid"
      },
      "getPrice()": {
        "notice": "get price"
      },
      "set(uint256)": {
        "notice": "set price"
      }
    },
    "version": 1
  },
  "storageLayout": {
    "storage": [
      {
        "astId": 23220,
        "contract": "contracts/collateral/KSLPKUSDTKUSDC/BKSLPKUSDTKUSDCFeed.sol:BKSLPKUSDTKUSDCFeed",
        "label": "_initialized",
        "offset": 0,
        "slot": "0",
        "type": "t_bool"
      },
      {
        "astId": 23223,
        "contract": "contracts/collateral/KSLPKUSDTKUSDC/BKSLPKUSDTKUSDCFeed.sol:BKSLPKUSDTKUSDCFeed",
        "label": "_initializing",
        "offset": 1,
        "slot": "0",
        "type": "t_bool"
      },
      {
        "astId": 20166,
        "contract": "contracts/collateral/KSLPKUSDTKUSDC/BKSLPKUSDTKUSDCFeed.sol:BKSLPKUSDTKUSDCFeed",
        "label": "_roles",
        "offset": 0,
        "slot": "1",
        "type": "t_mapping(t_bytes32,t_struct(RoleData)20161_storage)"
      },
      {
        "astId": 20556,
        "contract": "contracts/collateral/KSLPKUSDTKUSDC/BKSLPKUSDTKUSDCFeed.sol:BKSLPKUSDTKUSDCFeed",
        "label": "_paused",
        "offset": 0,
        "slot": "2",
        "type": "t_bool"
      },
      {
        "astId": 29379,
        "contract": "contracts/collateral/KSLPKUSDTKUSDC/BKSLPKUSDTKUSDCFeed.sol:BKSLPKUSDTKUSDCFeed",
        "label": "valid",
        "offset": 1,
        "slot": "2",
        "type": "t_bool"
      },
      {
        "astId": 29381,
        "contract": "contracts/collateral/KSLPKUSDTKUSDC/BKSLPKUSDTKUSDCFeed.sol:BKSLPKUSDTKUSDCFeed",
        "label": "price",
        "offset": 0,
        "slot": "3",
        "type": "t_uint256"
      },
      {
        "astId": 28947,
        "contract": "contracts/collateral/KSLPKUSDTKUSDC/BKSLPKUSDTKUSDCFeed.sol:BKSLPKUSDTKUSDCFeed",
        "label": "addressBook",
        "offset": 0,
        "slot": "4",
        "type": "t_contract(IAddressBook)6850"
      },
      {
        "astId": 28949,
        "contract": "contracts/collateral/KSLPKUSDTKUSDC/BKSLPKUSDTKUSDCFeed.sol:BKSLPKUSDTKUSDCFeed",
        "label": "collateralType",
        "offset": 0,
        "slot": "5",
        "type": "t_bytes32"
      }
    ],
    "types": {
      "t_address": {
        "encoding": "inplace",
        "label": "address",
        "numberOfBytes": "20"
      },
      "t_bool": {
        "encoding": "inplace",
        "label": "bool",
        "numberOfBytes": "1"
      },
      "t_bytes32": {
        "encoding": "inplace",
        "label": "bytes32",
        "numberOfBytes": "32"
      },
      "t_contract(IAddressBook)6850": {
        "encoding": "inplace",
        "label": "contract IAddressBook",
        "numberOfBytes": "20"
      },
      "t_mapping(t_address,t_bool)": {
        "encoding": "mapping",
        "key": "t_address",
        "label": "mapping(address => bool)",
        "numberOfBytes": "32",
        "value": "t_bool"
      },
      "t_mapping(t_bytes32,t_struct(RoleData)20161_storage)": {
        "encoding": "mapping",
        "key": "t_bytes32",
        "label": "mapping(bytes32 => struct AccessControl.RoleData)",
        "numberOfBytes": "32",
        "value": "t_struct(RoleData)20161_storage"
      },
      "t_struct(RoleData)20161_storage": {
        "encoding": "inplace",
        "label": "struct AccessControl.RoleData",
        "members": [
          {
            "astId": 20158,
            "contract": "contracts/collateral/KSLPKUSDTKUSDC/BKSLPKUSDTKUSDCFeed.sol:BKSLPKUSDTKUSDCFeed",
            "label": "members",
            "offset": 0,
            "slot": "0",
            "type": "t_mapping(t_address,t_bool)"
          },
          {
            "astId": 20160,
            "contract": "contracts/collateral/KSLPKUSDTKUSDC/BKSLPKUSDTKUSDCFeed.sol:BKSLPKUSDTKUSDCFeed",
            "label": "adminRole",
            "offset": 0,
            "slot": "1",
            "type": "t_bytes32"
          }
        ],
        "numberOfBytes": "64"
      },
      "t_uint256": {
        "encoding": "inplace",
        "label": "uint256",
        "numberOfBytes": "32"
      }
    }
  }
}