{
  "address": "0xdC99f114a59208A39e60c2e5388dF1130e170551",
  "abi": [
    {
      "anonymous": false,
      "inputs": [
        {
          "indexed": true,
          "internalType": "address",
          "name": "owner",
          "type": "address"
        },
        {
          "indexed": true,
          "internalType": "address",
          "name": "spender",
          "type": "address"
        },
        {
          "indexed": false,
          "internalType": "uint256",
          "name": "value",
          "type": "uint256"
        }
      ],
      "name": "Approval",
      "type": "event"
    },
    {
      "anonymous": false,
      "inputs": [
        {
          "indexed": false,
          "internalType": "address",
          "name": "account",
          "type": "address"
        }
      ],
      "name": "Paused",
      "type": "event"
    },
    {
      "anonymous": false,
      "inputs": [
        {
          "indexed": true,
          "internalType": "bytes32",
          "name": "role",
          "type": "bytes32"
        },
        {
          "indexed": true,
          "internalType": "bytes32",
          "name": "previousAdminRole",
          "type": "bytes32"
        },
        {
          "indexed": true,
          "internalType": "bytes32",
          "name": "newAdminRole",
          "type": "bytes32"
        }
      ],
      "name": "RoleAdminChanged",
      "type": "event"
    },
    {
      "anonymous": false,
      "inputs": [
        {
          "indexed": true,
          "internalType": "bytes32",
          "name": "role",
          "type": "bytes32"
        },
        {
          "indexed": true,
          "internalType": "address",
          "name": "account",
          "type": "address"
        },
        {
          "indexed": true,
          "internalType": "address",
          "name": "sender",
          "type": "address"
        }
      ],
      "name": "RoleGranted",
      "type": "event"
    },
    {
      "anonymous": false,
      "inputs": [
        {
          "indexed": true,
          "internalType": "bytes32",
          "name": "role",
          "type": "bytes32"
        },
        {
          "indexed": true,
          "internalType": "address",
          "name": "account",
          "type": "address"
        },
        {
          "indexed": true,
          "internalType": "address",
          "name": "sender",
          "type": "address"
        }
      ],
      "name": "RoleRevoked",
      "type": "event"
    },
    {
      "anonymous": false,
      "inputs": [
        {
          "indexed": false,
          "internalType": "address",
          "name": "from",
          "type": "address"
        },
        {
          "indexed": false,
          "internalType": "address",
          "name": "to",
          "type": "address"
        },
        {
          "indexed": false,
          "internalType": "uint256",
          "name": "tokenAmount",
          "type": "uint256"
        },
        {
          "indexed": false,
          "internalType": "uint256",
          "name": "bondAmount",
          "type": "uint256"
        }
      ],
      "name": "Stake",
      "type": "event"
    },
    {
      "anonymous": false,
      "inputs": [
        {
          "indexed": true,
          "internalType": "address",
          "name": "from",
          "type": "address"
        },
        {
          "indexed": true,
          "internalType": "address",
          "name": "to",
          "type": "address"
        },
        {
          "indexed": false,
          "internalType": "uint256",
          "name": "value",
          "type": "uint256"
        }
      ],
      "name": "Transfer",
      "type": "event"
    },
    {
      "anonymous": false,
      "inputs": [
        {
          "indexed": false,
          "internalType": "address",
          "name": "account",
          "type": "address"
        }
      ],
      "name": "Unpaused",
      "type": "event"
    },
    {
      "anonymous": false,
      "inputs": [
        {
          "indexed": false,
          "internalType": "address",
          "name": "from",
          "type": "address"
        },
        {
          "indexed": false,
          "internalType": "address",
          "name": "to",
          "type": "address"
        },
        {
          "indexed": false,
          "internalType": "uint256",
          "name": "tokenAmount",
          "type": "uint256"
        },
        {
          "indexed": false,
          "internalType": "uint256",
          "name": "bondAmount",
          "type": "uint256"
        }
      ],
      "name": "Unstake",
      "type": "event"
    },
    {
      "inputs": [],
      "name": "DEFAULT_ADMIN_ROLE",
      "outputs": [
        {
          "internalType": "bytes32",
          "name": "",
          "type": "bytes32"
        }
      ],
      "stateMutability": "view",
      "type": "function"
    },
    {
      "inputs": [],
      "name": "__BKSLPKLAYKDAI_init",
      "outputs": [],
      "stateMutability": "nonpayable",
      "type": "function"
    },
    {
      "inputs": [
        {
          "internalType": "string",
          "name": "name_",
          "type": "string"
        },
        {
          "internalType": "string",
          "name": "symbol_",
          "type": "string"
        },
        {
          "internalType": "uint8",
          "name": "decimals_",
          "type": "uint8"
        }
      ],
      "name": "__BaseBond_init",
      "outputs": [],
      "stateMutability": "nonpayable",
      "type": "function"
    },
    {
      "inputs": [
        {
          "internalType": "address",
          "name": "owner",
          "type": "address"
        },
        {
          "internalType": "address",
          "name": "spender",
          "type": "address"
        }
      ],
      "name": "allowance",
      "outputs": [
        {
          "internalType": "uint256",
          "name": "",
          "type": "uint256"
        }
      ],
      "stateMutability": "view",
      "type": "function"
    },
    {
      "inputs": [
        {
          "internalType": "address",
          "name": "spender",
          "type": "address"
        },
        {
          "internalType": "uint256",
          "name": "value",
          "type": "uint256"
        }
      ],
      "name": "approve",
      "outputs": [
        {
          "internalType": "bool",
          "name": "",
          "type": "bool"
        }
      ],
      "stateMutability": "nonpayable",
      "type": "function"
    },
    {
      "inputs": [
        {
          "internalType": "address",
          "name": "account",
          "type": "address"
        }
      ],
      "name": "balanceOf",
      "outputs": [
        {
          "internalType": "uint256",
          "name": "",
          "type": "uint256"
        }
      ],
      "stateMutability": "view",
      "type": "function"
    },
    {
      "inputs": [
        {
          "internalType": "address",
          "name": "account",
          "type": "address"
        },
        {
          "internalType": "uint256",
          "name": "value",
          "type": "uint256"
        }
      ],
      "name": "burn",
      "outputs": [
        {
          "internalType": "bool",
          "name": "",
          "type": "bool"
        }
      ],
      "stateMutability": "nonpayable",
      "type": "function"
    },
    {
      "inputs": [
        {
          "internalType": "bytes32",
          "name": "what",
          "type": "bytes32"
        },
        {
          "internalType": "address",
          "name": "data",
          "type": "address"
        }
      ],
      "name": "config",
      "outputs": [],
      "stateMutability": "nonpayable",
      "type": "function"
    },
    {
      "inputs": [],
      "name": "decimals",
      "outputs": [
        {
          "internalType": "uint8",
          "name": "",
          "type": "uint8"
        }
      ],
      "stateMutability": "view",
      "type": "function"
    },
    {
      "inputs": [
        {
          "internalType": "uint256",
          "name": "tokenAmount",
          "type": "uint256"
        }
      ],
      "name": "fromTokenAmount",
      "outputs": [
        {
          "internalType": "uint256",
          "name": "bondAmount",
          "type": "uint256"
        }
      ],
      "stateMutability": "view",
      "type": "function"
    },
    {
      "inputs": [
        {
          "internalType": "bytes32",
          "name": "role",
          "type": "bytes32"
        }
      ],
      "name": "getRoleAdmin",
      "outputs": [
        {
          "internalType": "bytes32",
          "name": "",
          "type": "bytes32"
        }
      ],
      "stateMutability": "view",
      "type": "function"
    },
    {
      "inputs": [
        {
          "internalType": "bytes32",
          "name": "role",
          "type": "bytes32"
        },
        {
          "internalType": "address",
          "name": "account",
          "type": "address"
        }
      ],
      "name": "grantRole",
      "outputs": [],
      "stateMutability": "nonpayable",
      "type": "function"
    },
    {
      "inputs": [
        {
          "internalType": "bytes32",
          "name": "role",
          "type": "bytes32"
        },
        {
          "internalType": "address",
          "name": "account",
          "type": "address"
        }
      ],
      "name": "hasRole",
      "outputs": [
        {
          "internalType": "bool",
          "name": "",
          "type": "bool"
        }
      ],
      "stateMutability": "view",
      "type": "function"
    },
    {
      "inputs": [
        {
          "internalType": "address",
          "name": "account",
          "type": "address"
        },
        {
          "internalType": "uint256",
          "name": "amount",
          "type": "uint256"
        }
      ],
      "name": "mint",
      "outputs": [
        {
          "internalType": "bool",
          "name": "",
          "type": "bool"
        }
      ],
      "stateMutability": "nonpayable",
      "type": "function"
    },
    {
      "inputs": [],
      "name": "name",
      "outputs": [
        {
          "internalType": "string",
          "name": "",
          "type": "string"
        }
      ],
      "stateMutability": "view",
      "type": "function"
    },
    {
      "inputs": [],
      "name": "pause",
      "outputs": [],
      "stateMutability": "nonpayable",
      "type": "function"
    },
    {
      "inputs": [],
      "name": "paused",
      "outputs": [
        {
          "internalType": "bool",
          "name": "",
          "type": "bool"
        }
      ],
      "stateMutability": "view",
      "type": "function"
    },
    {
      "inputs": [
        {
          "internalType": "bytes32",
          "name": "role",
          "type": "bytes32"
        },
        {
          "internalType": "address",
          "name": "account",
          "type": "address"
        }
      ],
      "name": "renounceRole",
      "outputs": [],
      "stateMutability": "nonpayable",
      "type": "function"
    },
    {
      "inputs": [
        {
          "internalType": "bytes32",
          "name": "role",
          "type": "bytes32"
        },
        {
          "internalType": "address",
          "name": "account",
          "type": "address"
        }
      ],
      "name": "revokeRole",
      "outputs": [],
      "stateMutability": "nonpayable",
      "type": "function"
    },
    {
      "inputs": [
        {
          "internalType": "address",
          "name": "recipient",
          "type": "address"
        },
        {
          "internalType": "uint256",
          "name": "amount",
          "type": "uint256"
        }
      ],
      "name": "safeTransfer",
      "outputs": [],
      "stateMutability": "nonpayable",
      "type": "function"
    },
    {
      "inputs": [
        {
          "internalType": "address",
          "name": "recipient",
          "type": "address"
        },
        {
          "internalType": "uint256",
          "name": "amount",
          "type": "uint256"
        },
        {
          "internalType": "bytes",
          "name": "data",
          "type": "bytes"
        }
      ],
      "name": "safeTransfer",
      "outputs": [],
      "stateMutability": "nonpayable",
      "type": "function"
    },
    {
      "inputs": [
        {
          "internalType": "address",
          "name": "sender",
          "type": "address"
        },
        {
          "internalType": "address",
          "name": "recipient",
          "type": "address"
        },
        {
          "internalType": "uint256",
          "name": "amount",
          "type": "uint256"
        }
      ],
      "name": "safeTransferFrom",
      "outputs": [],
      "stateMutability": "nonpayable",
      "type": "function"
    },
    {
      "inputs": [
        {
          "internalType": "address",
          "name": "sender",
          "type": "address"
        },
        {
          "internalType": "address",
          "name": "recipient",
          "type": "address"
        },
        {
          "internalType": "uint256",
          "name": "amount",
          "type": "uint256"
        },
        {
          "internalType": "bytes",
          "name": "data",
          "type": "bytes"
        }
      ],
      "name": "safeTransferFrom",
      "outputs": [],
      "stateMutability": "nonpayable",
      "type": "function"
    },
    {
      "inputs": [
        {
          "internalType": "address",
          "name": "to",
          "type": "address"
        },
        {
          "internalType": "uint256",
          "name": "tokenAmount",
          "type": "uint256"
        }
      ],
      "name": "stake",
      "outputs": [
        {
          "internalType": "uint256",
          "name": "bondAmount",
          "type": "uint256"
        }
      ],
      "stateMutability": "nonpayable",
      "type": "function"
    },
    {
      "inputs": [
        {
          "internalType": "bytes4",
          "name": "interfaceId",
          "type": "bytes4"
        }
      ],
      "name": "supportsInterface",
      "outputs": [
        {
          "internalType": "bool",
          "name": "",
          "type": "bool"
        }
      ],
      "stateMutability": "view",
      "type": "function"
    },
    {
      "inputs": [],
      "name": "symbol",
      "outputs": [
        {
          "internalType": "string",
          "name": "",
          "type": "string"
        }
      ],
      "stateMutability": "view",
      "type": "function"
    },
    {
      "inputs": [
        {
          "internalType": "uint256",
          "name": "bondAmount",
          "type": "uint256"
        }
      ],
      "name": "toTokenAmount",
      "outputs": [
        {
          "internalType": "uint256",
          "name": "tokenAmount",
          "type": "uint256"
        }
      ],
      "stateMutability": "view",
      "type": "function"
    },
    {
      "inputs": [],
      "name": "token",
      "outputs": [
        {
          "internalType": "contract IKIP7",
          "name": "",
          "type": "address"
        }
      ],
      "stateMutability": "view",
      "type": "function"
    },
    {
      "inputs": [],
      "name": "totalSupply",
      "outputs": [
        {
          "internalType": "uint256",
          "name": "",
          "type": "uint256"
        }
      ],
      "stateMutability": "view",
      "type": "function"
    },
    {
      "inputs": [
        {
          "internalType": "address",
          "name": "recipient",
          "type": "address"
        },
        {
          "internalType": "uint256",
          "name": "amount",
          "type": "uint256"
        }
      ],
      "name": "transfer",
      "outputs": [
        {
          "internalType": "bool",
          "name": "",
          "type": "bool"
        }
      ],
      "stateMutability": "nonpayable",
      "type": "function"
    },
    {
      "inputs": [
        {
          "internalType": "address",
          "name": "sender",
          "type": "address"
        },
        {
          "internalType": "address",
          "name": "recipient",
          "type": "address"
        },
        {
          "internalType": "uint256",
          "name": "amount",
          "type": "uint256"
        }
      ],
      "name": "transferFrom",
      "outputs": [
        {
          "internalType": "bool",
          "name": "",
          "type": "bool"
        }
      ],
      "stateMutability": "nonpayable",
      "type": "function"
    },
    {
      "inputs": [
        {
          "internalType": "address",
          "name": "newOwner",
          "type": "address"
        }
      ],
      "name": "transferOwnership",
      "outputs": [],
      "stateMutability": "nonpayable",
      "type": "function"
    },
    {
      "inputs": [],
      "name": "unpause",
      "outputs": [],
      "stateMutability": "nonpayable",
      "type": "function"
    },
    {
      "inputs": [
        {
          "internalType": "address",
          "name": "to",
          "type": "address"
        },
        {
          "internalType": "uint256",
          "name": "bondAmount",
          "type": "uint256"
        }
      ],
      "name": "unstake",
      "outputs": [
        {
          "internalType": "uint256",
          "name": "tokenAmount",
          "type": "uint256"
        }
      ],
      "stateMutability": "nonpayable",
      "type": "function"
    },
    {
      "inputs": [],
      "name": "yieldFactory",
      "outputs": [
        {
          "internalType": "contract IYieldFactory",
          "name": "",
          "type": "address"
        }
      ],
      "stateMutability": "view",
      "type": "function"
    }
  ],
  "transactionHash": "0x8a0e480589254a9b7c027a572352bf8835df76bedb9a6ee3da284541fa8a27aa",
  "args": [],
  "solcInputHash": "de4f5741dec2c2b2fd1b551e118f3df0",
  "bytecode": "0x608060405234801561001057600080fd5b50612490806100206000396000f3fe608060405234801561001057600080fd5b50600436106102115760003560e01c806370a0823111610125578063adc9772e116100ad578063d547741f1161007c578063d547741f14610472578063dd62ed3e14610485578063eb795549146104be578063f2fde38b146104d1578063fc0c546a146104e457610211565b8063adc9772e14610426578063b88d4fde14610439578063c2a672e01461044c578063d366f3b91461045f57610211565b806391d14854116100f457806391d14854146103dd57806395d89b41146103f05780639dc29fac146103f8578063a217fddf1461040b578063a9059cbb1461041357610211565b806370a08231146103865780637214956f146103af5780637f1c942d146103c25780638456cb59146103d557610211565b80632f2ff15d116101a85780633f4ba83a116101775780633f4ba83a1461033a57806340c10f1914610342578063423f6cef1461035557806342842e0e146103685780635c975abb1461037b57610211565b80632f2ff15d146102f5578063313ce5671461030a57806334e7f91d1461031f57806336568abe1461032757610211565b8063174e4ea6116101e4578063174e4ea61461029657806318160ddd146102b757806323b872dd146102bf578063248a9ca3146102d257610211565b806301ffc9a71461021657806306fdde031461023e578063095ea7b31461025357806316fd84f714610266575b600080fd5b610229610224366004612198565b6104f7565b60405190151581526020015b60405180910390f35b61024661051a565b60405161023591906122ea565b6102296102613660046120b9565b6105ac565b60095461027e9061010090046001600160a01b031681565b6040516001600160a01b039091168152602001610235565b6102a96102a436600461215e565b6105f3565b604051908152602001610235565b6004546102a9565b6102296102cd366004612018565b6106ae565b6102a96102e036600461215e565b60009081526008602052604090206001015490565b610308610303366004612176565b6106ec565b005b60075460405160ff9091168152602001610235565b610308610717565b610308610335366004612176565b6107f3565b610308610871565b6102296103503660046120b9565b61090f565b6103086103633660046120b9565b610959565b610308610376366004612018565b610973565b60095460ff16610229565b6102a9610394366004611fcc565b6001600160a01b031660009081526002602052604090205490565b6102a96103bd36600461215e565b61098e565b6103086103d03660046121d0565b610a38565b610308610ac4565b6102296103eb366004612176565b610b38565b610246610b63565b6102296104063660046120b9565b610b72565b6102a9600081565b6102296104213660046120b9565b610bb3565b6102a96104343660046120b9565b610be8565b610308610447366004612053565b610e0b565b6102a961045a3660046120b9565b610e97565b61030861046d366004612176565b61101d565b610308610480366004612176565b611112565b6102a9610493366004611fe6565b6001600160a01b03918216600090815260036020908152604080832093909416825291909152205490565b6103086104cc3660046120e2565b611138565b6103086104df366004611fcc565b6111c1565b600a5461027e906001600160a01b031681565b6001600160e01b0319811660009081526001602052604090205460ff165b919050565b606060058054610529906123e3565b80601f0160208091040260200160405190810160405280929190818152602001828054610555906123e3565b80156105a25780601f10610577576101008083540402835291602001916105a2565b820191906000526020600020905b81548152906001019060200180831161058557829003601f168201915b5050505050905090565b60006105ba60095460ff1690565b156105e05760405162461bcd60e51b81526004016105d7906122fd565b60405180910390fd5b6105ea83836111f7565b90505b92915050565b600080600960019054906101000a90046001600160a01b03166001600160a01b0316631a39d8ef6040518163ffffffff1660e01b815260040160206040518083038186803b15801561064457600080fd5b505afa158015610658573d6000803e3d6000fd5b505050506040513d601f19601f8201168201806040525081019061067c919061224a565b90506000811161068e578291506106a8565b60045461069b82856123ad565b6106a5919061238d565b91505b50919050565b60006106bc60095460ff1690565b156106d95760405162461bcd60e51b81526004016105d7906122fd565b6106e4848484611204565b949350505050565b6000828152600860205260409020600101546107088133611256565b61071283836112ba565b505050565b600054610100900460ff168061072c5750303b155b8061073a575060005460ff16155b6107565760405162461bcd60e51b81526004016105d790612327565b600054610100900460ff16158015610778576000805461ffff19166101011790555b6107de6040518060400160405280601c81526020017f626f6e646564204b6c617953776170204c50204b4c41592d4b444149000000008152506040518060400160405280600d81526020016c624b534c504b4c41594b44414960981b8152506012610a38565b80156107f0576000805461ff00191690555b50565b6001600160a01b03811633146108635760405162461bcd60e51b815260206004820152602f60248201527f416363657373436f6e74726f6c3a2063616e206f6e6c792072656e6f756e636560448201526e103937b632b9903337b91039b2b63360891b60648201526084016105d7565b61086d8282611323565b5050565b60095460ff166108ba5760405162461bcd60e51b815260206004820152601460248201527314185d5cd8589b194e881b9bdd081c185d5cd95960621b60448201526064016105d7565b653830bab9b2b960d11b6108ce8133611256565b6009805460ff191690556040513381527f5db9ee0a495bf2e6ff9c91a7834c1ba4fdd244a5e8aa4e537bd38aeae4b073aa906020015b60405180910390a150565b60006109236430b236b4b760d91b33611256565b60095460ff16156109465760405162461bcd60e51b81526004016105d7906122fd565b610950838361138a565b50600192915050565b61086d828260405180602001604052806000815250611138565b61071283838360405180602001604052806000815250610e0b565b600080600960019054906101000a90046001600160a01b03166001600160a01b0316631a39d8ef6040518163ffffffff1660e01b815260040160206040518083038186803b1580156109df57600080fd5b505afa1580156109f3573d6000803e3d6000fd5b505050506040513d601f19601f82011682018060405250810190610a17919061224a565b905060008111610a29578291506106a8565b806004548461069b91906123ad565b600054610100900460ff1680610a4d5750303b155b80610a5b575060005460ff16155b610a775760405162461bcd60e51b81526004016105d790612327565b600054610100900460ff16158015610a99576000805461ffff19166101011790555b610aa4848484611488565b610aac6114f4565b8015610abe576000805461ff00191690555b50505050565b60095460ff1615610ae75760405162461bcd60e51b81526004016105d7906122fd565b653830bab9b2b960d11b610afb8133611256565b6009805460ff191660011790556040513381527f62e78cea01bee320cd4e420270b5ea74000d11b0c9f74754ebdbfc544b05a25890602001610904565b60009182526008602090815260408084206001600160a01b0393909316845291905290205460ff1690565b606060068054610529906123e3565b6000610b866430b236b4b760d91b33611256565b60095460ff1615610ba95760405162461bcd60e51b81526004016105d7906122fd565b610950838361158b565b6000610bc160095460ff1690565b15610bde5760405162461bcd60e51b81526004016105d7906122fd565b6105ea838361167c565b6000610bf660095460ff1690565b15610c135760405162461bcd60e51b81526004016105d7906122fd565b60008211610c23575060006105ed565b610c2c8261098e565b9050610c38838261138a565b600a546040516323b872dd60e01b8152336004820152306024820152604481018490526001600160a01b03909116906323b872dd90606401602060405180830381600087803b158015610c8a57600080fd5b505af1158015610c9e573d6000803e3d6000fd5b505050506040513d601f19601f82011682018060405250810190610cc29190612137565b50600a5460095460405163095ea7b360e01b81526001600160a01b03610100909204821660048201526024810185905291169063095ea7b390604401602060405180830381600087803b158015610d1857600080fd5b505af1158015610d2c573d6000803e3d6000fd5b505050506040513d601f19601f82011682018060405250810190610d509190612137565b5060095460405163534a7e1d60e11b8152600481018490526101009091046001600160a01b03169063a694fc3a90602401600060405180830381600087803b158015610d9b57600080fd5b505af1158015610daf573d6000803e3d6000fd5b5050604080513381526001600160a01b0387166020820152908101859052606081018490527f63602d0ecc7b3a0ef7ff1a116e23056662d64280355ba8031b6d0d767c4b4458925060800190505b60405180910390a192915050565b610e168484846106ae565b50610e2384848484611689565b610abe576040805162461bcd60e51b81526020600482015260248101919091527f4b4950373a3a736166655472616e7366657246726f6d3a207472616e7366657260448201527f20746f206e6f6e204b495037526563656976657220696d706c656d656e74657260648201526084016105d7565b6000610ea560095460ff1690565b15610ec25760405162461bcd60e51b81526004016105d7906122fd565b60008211610ed2575060006105ed565b610edb826105f3565b9050610ee7338361158b565b6009546040516305c2fbcf60e31b8152600481018390526101009091046001600160a01b031690632e17de7890602401600060405180830381600087803b158015610f3157600080fd5b505af1158015610f45573d6000803e3d6000fd5b5050600a5460405163a9059cbb60e01b81526001600160a01b03878116600483015260248201869052909116925063a9059cbb9150604401602060405180830381600087803b158015610f9757600080fd5b505af1158015610fab573d6000803e3d6000fd5b505050506040513d601f19601f82011682018060405250810190610fcf9190612137565b50604080513381526001600160a01b0385166020820152908101829052606081018390527f18edd09e80386cd99df397e2e0d87d2bb259423eae08645e776321a36fe680ef90608001610dfd565b61102f6430b236b4b760d91b33611256565b60095460ff16156110525760405162461bcd60e51b81526004016105d7906122fd565b816b7969656c64466163746f727960a01b141561108e5760098054610100600160a81b0319166101006001600160a01b0384160217905561086d565b81643a37b5b2b760d91b14156110be57600a80546001600160a01b0319166001600160a01b03831617905561086d565b60405162461bcd60e51b8152602060048201526024808201527f42617365426f6e643a3a636f6e6669673a20756e7265636f676e697a65642d706044820152636172616d60e01b60648201526084016105d7565b60008281526008602052604090206001015461112e8133611256565b6107128383611323565b6111428383610bb3565b5061114f33848484611689565b6107125760405162461bcd60e51b815260206004820152603c60248201527f4b4950373a3a736166655472616e736665723a207472616e7366657220746f2060448201527f6e6f6e204b495037526563656976657220696d706c656d656e7465720000000060648201526084016105d7565b6111d36437bbb732b960d91b33611256565b6111e56437bbb732b960d91b826112ba565b6107f06437bbb732b960d91b33611323565b6000610950338484611747565b600061121184848461187f565b6001600160a01b03841660009081526003602090815260408083203380855292529091205461124c9186916112479086906123cc565b611747565b5060019392505050565b6112608282610b38565b61086d5760405162461bcd60e51b815260206004820152602560248201527f416363657373436f6e74726f6c3a5f636865636b526f6c653a696e76616c696460448201526420726f6c6560d81b60648201526084016105d7565b6112c48282610b38565b61086d5760008281526008602090815260408083206001600160a01b0385168085529252808320805460ff1916600117905551339285917f2f8788117e7eff1d82e926ec794901d17c78024a50270940304540a733656f0d9190a45050565b61132d8282610b38565b1561086d5760008281526008602090815260408083206001600160a01b0385168085529252808320805460ff1916905551339285917ff6391f5c32d9c69d2a47ea670b442974b53935d1edc7fd64eb21e047a839171b9190a45050565b6001600160a01b0382166113f65760405162461bcd60e51b815260206004820152602d60248201527f4b495037457874656e6465643a3a5f6d696e743a206d696e7420746f2074686560448201526c207a65726f206164647265737360981b60648201526084016105d7565b806004546114049190612375565b6004556001600160a01b03821660009081526002602052604090205461142b908290612375565b6001600160a01b0383166000818152600260205260408082209390935591519091907fddf252ad1be2c89b69c2b068fc378daa952ba7f163c4a11628f55a4df523b3ef9061147c9085815260200190565b60405180910390a35050565b600054610100900460ff168061149d5750303b155b806114ab575060005460ff16155b6114c75760405162461bcd60e51b81526004016105d790612327565b600054610100900460ff161580156114e9576000805461ffff19166101011790555b610aa4848484611a01565b600054610100900460ff16806115095750303b155b80611517575060005460ff16155b6115335760405162461bcd60e51b81526004016105d790612327565b600054610100900460ff16158015611555576000805461ffff19166101011790555b61155d611a75565b611578653830bab9b2b960d11b6437bbb732b960d91b611ade565b6107de653830bab9b2b960d11b33611b29565b6001600160a01b0382166115f95760405162461bcd60e51b815260206004820152602f60248201527f4b495037457874656e6465643a3a5f6275726e3a206275726e2066726f6d207460448201526e6865207a65726f206164647265737360881b60648201526084016105d7565b8060045461160791906123cc565b6004556001600160a01b03821660009081526002602052604090205461162e9082906123cc565b6001600160a01b0383166000818152600260205260408082209390935591517fddf252ad1be2c89b69c2b068fc378daa952ba7f163c4a11628f55a4df523b3ef9061147c9085815260200190565b600061095033848461187f565b60006001600160a01b0384163b6116a2575060016106e4565b604051634e8c461160e11b81526000906001600160a01b03861690639d188c22906116d79033908a90899089906004016122ad565b602060405180830381600087803b1580156116f157600080fd5b505af1158015611705573d6000803e3d6000fd5b505050506040513d601f19601f8201168201806040525081019061172991906121b4565b6001600160e01b031916634e8c461160e11b14915050949350505050565b6001600160a01b0383166117b35760405162461bcd60e51b815260206004820152602d60248201527f4b4950373a3a5f617070726f76653a20617070726f76652066726f6d2074686560448201526c207a65726f206164647265737360981b60648201526084016105d7565b6001600160a01b03821661181d5760405162461bcd60e51b815260206004820152602b60248201527f4b4950373a3a5f617070726f76653a20617070726f766520746f20746865207a60448201526a65726f206164647265737360a81b60648201526084016105d7565b6001600160a01b0383811660008181526003602090815260408083209487168084529482529182902085905590518481527f8c5be1e5ebec7d5bd14f71427d1e84f3dd0314c0f7b2291e5b200ac8c7c3b92591015b60405180910390a3505050565b6001600160a01b0383166118ed5760405162461bcd60e51b815260206004820152602f60248201527f4b4950373a3a5f7472616e736665723a207472616e736665722066726f6d207460448201526e6865207a65726f206164647265737360881b60648201526084016105d7565b6001600160a01b0382166119595760405162461bcd60e51b815260206004820152602d60248201527f4b4950373a3a5f7472616e736665723a207472616e7366657220746f2074686560448201526c207a65726f206164647265737360981b60648201526084016105d7565b6001600160a01b03831660009081526002602052604090205461197d9082906123cc565b6001600160a01b0380851660009081526002602052604080822093909355908416815220546119ad908290612375565b6001600160a01b0380841660008181526002602052604090819020939093559151908516907fddf252ad1be2c89b69c2b068fc378daa952ba7f163c4a11628f55a4df523b3ef906118729085815260200190565b600054610100900460ff1680611a165750303b155b80611a24575060005460ff16155b611a405760405162461bcd60e51b81526004016105d790612327565b600054610100900460ff16158015611a62576000805461ffff19166101011790555b611a6a611b33565b610aac848484611ba4565b600054610100900460ff1680611a8a5750303b155b80611a98575060005460ff16155b611ab45760405162461bcd60e51b81526004016105d790612327565b600054610100900460ff16158015611ad6576000805461ffff19166101011790555b6107de611c4c565b600082815260086020526040808220600101805490849055905190918391839186917fbd79b86ffe0ab8e8776151514217cd7cacd52c909f66475c3af44e129f0b00ff9190a4505050565b61086d82826112ba565b600054610100900460ff1680611b485750303b155b80611b56575060005460ff16155b611b725760405162461bcd60e51b81526004016105d790612327565b600054610100900460ff16158015611b94576000805461ffff19166101011790555b611b9c611d1d565b6107de611d8e565b600054610100900460ff1680611bb95750303b155b80611bc7575060005460ff16155b611be35760405162461bcd60e51b81526004016105d790612327565b600054610100900460ff16158015611c05576000805461ffff19166101011790555b8351611c18906005906020870190611e95565b508251611c2c906006906020860190611e95565b506007805460ff191660ff8416179055610aac63a219a02560e01b611dfb565b600054610100900460ff1680611c615750303b155b80611c6f575060005460ff16155b611c8b5760405162461bcd60e51b81526004016105d790612327565b600054610100900460ff16158015611cad576000805461ffff19166101011790555b611cbf6437bbb732b960d91b33611b29565b611cd96430b236b4b760d91b6437bbb732b960d91b611ade565b611cf66737b832b930ba37b960c11b6437bbb732b960d91b611ade565b611d086430b236b4b760d91b33611b29565b6107de6737b832b930ba37b960c11b33611b29565b600054610100900460ff1680611d325750303b155b80611d40575060005460ff16155b611d5c5760405162461bcd60e51b81526004016105d790612327565b600054610100900460ff16158015611d7e576000805461ffff19166101011790555b6107de6301ffc9a760e01b611dfb565b600054610100900460ff1680611da35750303b155b80611db1575060005460ff16155b611dcd5760405162461bcd60e51b81526004016105d790612327565b600054610100900460ff16158015611def576000805461ffff19166101011790555b6107de636578737160e01b5b6001600160e01b03198082161415611e6d5760405162461bcd60e51b815260206004820152602f60248201527f4b495031333a3a5f7265676973746572496e746572666163653a20696e76616c60448201526e1a59081a5b9d195c999858d9481a59608a1b60648201526084016105d7565b6001600160e01b0319166000908152600160208190526040909120805460ff19169091179055565b828054611ea1906123e3565b90600052602060002090601f016020900481019282611ec35760008555611f09565b82601f10611edc57805160ff1916838001178555611f09565b82800160010185558215611f09579182015b82811115611f09578251825591602001919060010190611eee565b50611f15929150611f19565b5090565b5b80821115611f155760008155600101611f1a565b80356001600160a01b038116811461051557600080fd5b600082601f830112611f55578081fd5b813567ffffffffffffffff80821115611f7057611f7061242e565b604051601f8301601f19908116603f01168101908282118183101715611f9857611f9861242e565b81604052838152866020858801011115611fb0578485fd5b8360208701602083013792830160200193909352509392505050565b600060208284031215611fdd578081fd5b6105ea82611f2e565b60008060408385031215611ff8578081fd5b61200183611f2e565b915061200f60208401611f2e565b90509250929050565b60008060006060848603121561202c578081fd5b61203584611f2e565b925061204360208501611f2e565b9150604084013590509250925092565b60008060008060808587031215612068578081fd5b61207185611f2e565b935061207f60208601611f2e565b925060408501359150606085013567ffffffffffffffff8111156120a1578182fd5b6120ad87828801611f45565b91505092959194509250565b600080604083850312156120cb578182fd5b6120d483611f2e565b946020939093013593505050565b6000806000606084860312156120f6578283fd5b6120ff84611f2e565b925060208401359150604084013567ffffffffffffffff811115612121578182fd5b61212d86828701611f45565b9150509250925092565b600060208284031215612148578081fd5b81518015158114612157578182fd5b9392505050565b60006020828403121561216f578081fd5b5035919050565b60008060408385031215612188578182fd5b8235915061200f60208401611f2e565b6000602082840312156121a9578081fd5b813561215781612444565b6000602082840312156121c5578081fd5b815161215781612444565b6000806000606084860312156121e4578283fd5b833567ffffffffffffffff808211156121fb578485fd5b61220787838801611f45565b9450602086013591508082111561221c578384fd5b5061222986828701611f45565b925050604084013560ff8116811461223f578182fd5b809150509250925092565b60006020828403121561225b578081fd5b5051919050565b60008151808452815b818110156122875760208185018101518683018201520161226b565b818111156122985782602083870101525b50601f01601f19169290920160200192915050565b6001600160a01b03858116825284166020820152604081018390526080606082018190526000906122e090830184612262565b9695505050505050565b6000602082526105ea6020830184612262565b60208082526010908201526f14185d5cd8589b194e881c185d5cd95960821b604082015260600190565b6020808252602e908201527f496e697469616c697a61626c653a20636f6e747261637420697320616c72656160408201526d191e481a5b9a5d1a585b1a5e995960921b606082015260800190565b6000821982111561238857612388612418565b500190565b6000826123a857634e487b7160e01b81526012600452602481fd5b500490565b60008160001904831182151516156123c7576123c7612418565b500290565b6000828210156123de576123de612418565b500390565b600181811c908216806123f757607f821691505b602082108114156106a857634e487b7160e01b600052602260045260246000fd5b634e487b7160e01b600052601160045260246000fd5b634e487b7160e01b600052604160045260246000fd5b6001600160e01b0319811681146107f057600080fdfea2646970667358221220a73f70effd75af9593f1c6f44459460938deb3a267f76feeef8f5f52597a64a064736f6c63430008030033",
  "devdoc": {
    "kind": "dev",
    "methods": {},
    "version": 1
  },
  "userdoc": {
    "kind": "user",
    "methods": {
      "fromTokenAmount(uint256)": {
        "notice": "Calculate bond amount corresponding to the given token amount"
      },
      "stake(address,uint256)": {
        "notice": "Stake token to this contract and return bond."
      },
      "toTokenAmount(uint256)": {
        "notice": "Calculate token amount corresponding to the given bond amount"
      },
      "unstake(address,uint256)": {
        "notice": "Untake to return staked token."
      }
    },
    "version": 1
  },
  "storageLayout": {
    "storage": [
      {
        "astId": 24885,
        "contract": "contracts/collateral/KSLPKLAYKDAI/BKSLPKLAYKDAI.sol:BKSLPKLAYKDAI",
        "label": "_initialized",
        "offset": 0,
        "slot": "0",
        "type": "t_bool"
      },
      {
        "astId": 24888,
        "contract": "contracts/collateral/KSLPKLAYKDAI/BKSLPKLAYKDAI.sol:BKSLPKLAYKDAI",
        "label": "_initializing",
        "offset": 1,
        "slot": "0",
        "type": "t_bool"
      },
      {
        "astId": 22840,
        "contract": "contracts/collateral/KSLPKLAYKDAI/BKSLPKLAYKDAI.sol:BKSLPKLAYKDAI",
        "label": "_supportedInterfaces",
        "offset": 0,
        "slot": "1",
        "type": "t_mapping(t_bytes4,t_bool)"
      },
      {
        "astId": 22904,
        "contract": "contracts/collateral/KSLPKLAYKDAI/BKSLPKLAYKDAI.sol:BKSLPKLAYKDAI",
        "label": "_balances",
        "offset": 0,
        "slot": "2",
        "type": "t_mapping(t_address,t_uint256)"
      },
      {
        "astId": 22910,
        "contract": "contracts/collateral/KSLPKLAYKDAI/BKSLPKLAYKDAI.sol:BKSLPKLAYKDAI",
        "label": "_allowances",
        "offset": 0,
        "slot": "3",
        "type": "t_mapping(t_address,t_mapping(t_address,t_uint256))"
      },
      {
        "astId": 22912,
        "contract": "contracts/collateral/KSLPKLAYKDAI/BKSLPKLAYKDAI.sol:BKSLPKLAYKDAI",
        "label": "_totalSupply",
        "offset": 0,
        "slot": "4",
        "type": "t_uint256"
      },
      {
        "astId": 23292,
        "contract": "contracts/collateral/KSLPKLAYKDAI/BKSLPKLAYKDAI.sol:BKSLPKLAYKDAI",
        "label": "_name",
        "offset": 0,
        "slot": "5",
        "type": "t_string_storage"
      },
      {
        "astId": 23294,
        "contract": "contracts/collateral/KSLPKLAYKDAI/BKSLPKLAYKDAI.sol:BKSLPKLAYKDAI",
        "label": "_symbol",
        "offset": 0,
        "slot": "6",
        "type": "t_string_storage"
      },
      {
        "astId": 23296,
        "contract": "contracts/collateral/KSLPKLAYKDAI/BKSLPKLAYKDAI.sol:BKSLPKLAYKDAI",
        "label": "_decimals",
        "offset": 0,
        "slot": "7",
        "type": "t_uint8"
      },
      {
        "astId": 21831,
        "contract": "contracts/collateral/KSLPKLAYKDAI/BKSLPKLAYKDAI.sol:BKSLPKLAYKDAI",
        "label": "_roles",
        "offset": 0,
        "slot": "8",
        "type": "t_mapping(t_bytes32,t_struct(RoleData)21826_storage)"
      },
      {
        "astId": 22221,
        "contract": "contracts/collateral/KSLPKLAYKDAI/BKSLPKLAYKDAI.sol:BKSLPKLAYKDAI",
        "label": "_paused",
        "offset": 0,
        "slot": "9",
        "type": "t_bool"
      },
      {
        "astId": 20371,
        "contract": "contracts/collateral/KSLPKLAYKDAI/BKSLPKLAYKDAI.sol:BKSLPKLAYKDAI",
        "label": "yieldFactory",
        "offset": 1,
        "slot": "9",
        "type": "t_contract(IYieldFactory)9693"
      },
      {
        "astId": 20374,
        "contract": "contracts/collateral/KSLPKLAYKDAI/BKSLPKLAYKDAI.sol:BKSLPKLAYKDAI",
        "label": "token",
        "offset": 0,
        "slot": "10",
        "type": "t_contract(IKIP7)9935"
      }
    ],
    "types": {
      "t_address": {
        "encoding": "inplace",
        "label": "address",
        "numberOfBytes": "20"
      },
      "t_bool": {
        "encoding": "inplace",
        "label": "bool",
        "numberOfBytes": "1"
      },
      "t_bytes32": {
        "encoding": "inplace",
        "label": "bytes32",
        "numberOfBytes": "32"
      },
      "t_bytes4": {
        "encoding": "inplace",
        "label": "bytes4",
        "numberOfBytes": "4"
      },
      "t_contract(IKIP7)9935": {
        "encoding": "inplace",
        "label": "contract IKIP7",
        "numberOfBytes": "20"
      },
      "t_contract(IYieldFactory)9693": {
        "encoding": "inplace",
        "label": "contract IYieldFactory",
        "numberOfBytes": "20"
      },
      "t_mapping(t_address,t_bool)": {
        "encoding": "mapping",
        "key": "t_address",
        "label": "mapping(address => bool)",
        "numberOfBytes": "32",
        "value": "t_bool"
      },
      "t_mapping(t_address,t_mapping(t_address,t_uint256))": {
        "encoding": "mapping",
        "key": "t_address",
        "label": "mapping(address => mapping(address => uint256))",
        "numberOfBytes": "32",
        "value": "t_mapping(t_address,t_uint256)"
      },
      "t_mapping(t_address,t_uint256)": {
        "encoding": "mapping",
        "key": "t_address",
        "label": "mapping(address => uint256)",
        "numberOfBytes": "32",
        "value": "t_uint256"
      },
      "t_mapping(t_bytes32,t_struct(RoleData)21826_storage)": {
        "encoding": "mapping",
        "key": "t_bytes32",
        "label": "mapping(bytes32 => struct AccessControl.RoleData)",
        "numberOfBytes": "32",
        "value": "t_struct(RoleData)21826_storage"
      },
      "t_mapping(t_bytes4,t_bool)": {
        "encoding": "mapping",
        "key": "t_bytes4",
        "label": "mapping(bytes4 => bool)",
        "numberOfBytes": "32",
        "value": "t_bool"
      },
      "t_string_storage": {
        "encoding": "bytes",
        "label": "string",
        "numberOfBytes": "32"
      },
      "t_struct(RoleData)21826_storage": {
        "encoding": "inplace",
        "label": "struct AccessControl.RoleData",
        "members": [
          {
            "astId": 21823,
            "contract": "contracts/collateral/KSLPKLAYKDAI/BKSLPKLAYKDAI.sol:BKSLPKLAYKDAI",
            "label": "members",
            "offset": 0,
            "slot": "0",
            "type": "t_mapping(t_address,t_bool)"
          },
          {
            "astId": 21825,
            "contract": "contracts/collateral/KSLPKLAYKDAI/BKSLPKLAYKDAI.sol:BKSLPKLAYKDAI",
            "label": "adminRole",
            "offset": 0,
            "slot": "1",
            "type": "t_bytes32"
          }
        ],
        "numberOfBytes": "64"
      },
      "t_uint256": {
        "encoding": "inplace",
        "label": "uint256",
        "numberOfBytes": "32"
      },
      "t_uint8": {
        "encoding": "inplace",
        "label": "uint8",
        "numberOfBytes": "1"
      }
    }
  }
}