{
  "address": "0x54B4D74ecC6738B035ba776349C8BD9638652d78",
  "abi": [
    {
      "anonymous": false,
      "inputs": [
        {
          "indexed": true,
          "internalType": "address",
          "name": "owner",
          "type": "address"
        },
        {
          "indexed": true,
          "internalType": "address",
          "name": "spender",
          "type": "address"
        },
        {
          "indexed": false,
          "internalType": "uint256",
          "name": "value",
          "type": "uint256"
        }
      ],
      "name": "Approval",
      "type": "event"
    },
    {
      "anonymous": false,
      "inputs": [
        {
          "indexed": false,
          "internalType": "address",
          "name": "account",
          "type": "address"
        }
      ],
      "name": "Paused",
      "type": "event"
    },
    {
      "anonymous": false,
      "inputs": [
        {
          "indexed": true,
          "internalType": "bytes32",
          "name": "role",
          "type": "bytes32"
        },
        {
          "indexed": true,
          "internalType": "bytes32",
          "name": "previousAdminRole",
          "type": "bytes32"
        },
        {
          "indexed": true,
          "internalType": "bytes32",
          "name": "newAdminRole",
          "type": "bytes32"
        }
      ],
      "name": "RoleAdminChanged",
      "type": "event"
    },
    {
      "anonymous": false,
      "inputs": [
        {
          "indexed": true,
          "internalType": "bytes32",
          "name": "role",
          "type": "bytes32"
        },
        {
          "indexed": true,
          "internalType": "address",
          "name": "account",
          "type": "address"
        },
        {
          "indexed": true,
          "internalType": "address",
          "name": "sender",
          "type": "address"
        }
      ],
      "name": "RoleGranted",
      "type": "event"
    },
    {
      "anonymous": false,
      "inputs": [
        {
          "indexed": true,
          "internalType": "bytes32",
          "name": "role",
          "type": "bytes32"
        },
        {
          "indexed": true,
          "internalType": "address",
          "name": "account",
          "type": "address"
        },
        {
          "indexed": true,
          "internalType": "address",
          "name": "sender",
          "type": "address"
        }
      ],
      "name": "RoleRevoked",
      "type": "event"
    },
    {
      "anonymous": false,
      "inputs": [
        {
          "indexed": false,
          "internalType": "address",
          "name": "from",
          "type": "address"
        },
        {
          "indexed": false,
          "internalType": "address",
          "name": "to",
          "type": "address"
        },
        {
          "indexed": false,
          "internalType": "uint256",
          "name": "tokenAmount",
          "type": "uint256"
        },
        {
          "indexed": false,
          "internalType": "uint256",
          "name": "bondAmount",
          "type": "uint256"
        }
      ],
      "name": "Stake",
      "type": "event"
    },
    {
      "anonymous": false,
      "inputs": [
        {
          "indexed": true,
          "internalType": "address",
          "name": "from",
          "type": "address"
        },
        {
          "indexed": true,
          "internalType": "address",
          "name": "to",
          "type": "address"
        },
        {
          "indexed": false,
          "internalType": "uint256",
          "name": "value",
          "type": "uint256"
        }
      ],
      "name": "Transfer",
      "type": "event"
    },
    {
      "anonymous": false,
      "inputs": [
        {
          "indexed": false,
          "internalType": "address",
          "name": "account",
          "type": "address"
        }
      ],
      "name": "Unpaused",
      "type": "event"
    },
    {
      "anonymous": false,
      "inputs": [
        {
          "indexed": false,
          "internalType": "address",
          "name": "from",
          "type": "address"
        },
        {
          "indexed": false,
          "internalType": "address",
          "name": "to",
          "type": "address"
        },
        {
          "indexed": false,
          "internalType": "uint256",
          "name": "tokenAmount",
          "type": "uint256"
        },
        {
          "indexed": false,
          "internalType": "uint256",
          "name": "bondAmount",
          "type": "uint256"
        }
      ],
      "name": "Unstake",
      "type": "event"
    },
    {
      "inputs": [],
      "name": "DEFAULT_ADMIN_ROLE",
      "outputs": [
        {
          "internalType": "bytes32",
          "name": "",
          "type": "bytes32"
        }
      ],
      "stateMutability": "view",
      "type": "function"
    },
    {
      "inputs": [],
      "name": "__BKSLPKETHKUSDT_init",
      "outputs": [],
      "stateMutability": "nonpayable",
      "type": "function"
    },
    {
      "inputs": [
        {
          "internalType": "string",
          "name": "name_",
          "type": "string"
        },
        {
          "internalType": "string",
          "name": "symbol_",
          "type": "string"
        },
        {
          "internalType": "uint8",
          "name": "decimals_",
          "type": "uint8"
        }
      ],
      "name": "__BaseBond_init",
      "outputs": [],
      "stateMutability": "nonpayable",
      "type": "function"
    },
    {
      "inputs": [
        {
          "internalType": "address",
          "name": "owner",
          "type": "address"
        },
        {
          "internalType": "address",
          "name": "spender",
          "type": "address"
        }
      ],
      "name": "allowance",
      "outputs": [
        {
          "internalType": "uint256",
          "name": "",
          "type": "uint256"
        }
      ],
      "stateMutability": "view",
      "type": "function"
    },
    {
      "inputs": [
        {
          "internalType": "address",
          "name": "spender",
          "type": "address"
        },
        {
          "internalType": "uint256",
          "name": "value",
          "type": "uint256"
        }
      ],
      "name": "approve",
      "outputs": [
        {
          "internalType": "bool",
          "name": "",
          "type": "bool"
        }
      ],
      "stateMutability": "nonpayable",
      "type": "function"
    },
    {
      "inputs": [
        {
          "internalType": "address",
          "name": "account",
          "type": "address"
        }
      ],
      "name": "balanceOf",
      "outputs": [
        {
          "internalType": "uint256",
          "name": "",
          "type": "uint256"
        }
      ],
      "stateMutability": "view",
      "type": "function"
    },
    {
      "inputs": [
        {
          "internalType": "address",
          "name": "account",
          "type": "address"
        },
        {
          "internalType": "uint256",
          "name": "value",
          "type": "uint256"
        }
      ],
      "name": "burn",
      "outputs": [
        {
          "internalType": "bool",
          "name": "",
          "type": "bool"
        }
      ],
      "stateMutability": "nonpayable",
      "type": "function"
    },
    {
      "inputs": [
        {
          "internalType": "bytes32",
          "name": "what",
          "type": "bytes32"
        },
        {
          "internalType": "address",
          "name": "data",
          "type": "address"
        }
      ],
      "name": "config",
      "outputs": [],
      "stateMutability": "nonpayable",
      "type": "function"
    },
    {
      "inputs": [],
      "name": "decimals",
      "outputs": [
        {
          "internalType": "uint8",
          "name": "",
          "type": "uint8"
        }
      ],
      "stateMutability": "view",
      "type": "function"
    },
    {
      "inputs": [
        {
          "internalType": "uint256",
          "name": "tokenAmount",
          "type": "uint256"
        }
      ],
      "name": "fromTokenAmount",
      "outputs": [
        {
          "internalType": "uint256",
          "name": "bondAmount",
          "type": "uint256"
        }
      ],
      "stateMutability": "view",
      "type": "function"
    },
    {
      "inputs": [
        {
          "internalType": "bytes32",
          "name": "role",
          "type": "bytes32"
        }
      ],
      "name": "getRoleAdmin",
      "outputs": [
        {
          "internalType": "bytes32",
          "name": "",
          "type": "bytes32"
        }
      ],
      "stateMutability": "view",
      "type": "function"
    },
    {
      "inputs": [
        {
          "internalType": "bytes32",
          "name": "role",
          "type": "bytes32"
        },
        {
          "internalType": "address",
          "name": "account",
          "type": "address"
        }
      ],
      "name": "grantRole",
      "outputs": [],
      "stateMutability": "nonpayable",
      "type": "function"
    },
    {
      "inputs": [
        {
          "internalType": "bytes32",
          "name": "role",
          "type": "bytes32"
        },
        {
          "internalType": "address",
          "name": "account",
          "type": "address"
        }
      ],
      "name": "hasRole",
      "outputs": [
        {
          "internalType": "bool",
          "name": "",
          "type": "bool"
        }
      ],
      "stateMutability": "view",
      "type": "function"
    },
    {
      "inputs": [
        {
          "internalType": "address",
          "name": "account",
          "type": "address"
        },
        {
          "internalType": "uint256",
          "name": "amount",
          "type": "uint256"
        }
      ],
      "name": "mint",
      "outputs": [
        {
          "internalType": "bool",
          "name": "",
          "type": "bool"
        }
      ],
      "stateMutability": "nonpayable",
      "type": "function"
    },
    {
      "inputs": [],
      "name": "name",
      "outputs": [
        {
          "internalType": "string",
          "name": "",
          "type": "string"
        }
      ],
      "stateMutability": "view",
      "type": "function"
    },
    {
      "inputs": [],
      "name": "pause",
      "outputs": [],
      "stateMutability": "nonpayable",
      "type": "function"
    },
    {
      "inputs": [],
      "name": "paused",
      "outputs": [
        {
          "internalType": "bool",
          "name": "",
          "type": "bool"
        }
      ],
      "stateMutability": "view",
      "type": "function"
    },
    {
      "inputs": [
        {
          "internalType": "bytes32",
          "name": "role",
          "type": "bytes32"
        },
        {
          "internalType": "address",
          "name": "account",
          "type": "address"
        }
      ],
      "name": "renounceRole",
      "outputs": [],
      "stateMutability": "nonpayable",
      "type": "function"
    },
    {
      "inputs": [
        {
          "internalType": "bytes32",
          "name": "role",
          "type": "bytes32"
        },
        {
          "internalType": "address",
          "name": "account",
          "type": "address"
        }
      ],
      "name": "revokeRole",
      "outputs": [],
      "stateMutability": "nonpayable",
      "type": "function"
    },
    {
      "inputs": [
        {
          "internalType": "address",
          "name": "recipient",
          "type": "address"
        },
        {
          "internalType": "uint256",
          "name": "amount",
          "type": "uint256"
        }
      ],
      "name": "safeTransfer",
      "outputs": [],
      "stateMutability": "nonpayable",
      "type": "function"
    },
    {
      "inputs": [
        {
          "internalType": "address",
          "name": "recipient",
          "type": "address"
        },
        {
          "internalType": "uint256",
          "name": "amount",
          "type": "uint256"
        },
        {
          "internalType": "bytes",
          "name": "data",
          "type": "bytes"
        }
      ],
      "name": "safeTransfer",
      "outputs": [],
      "stateMutability": "nonpayable",
      "type": "function"
    },
    {
      "inputs": [
        {
          "internalType": "address",
          "name": "sender",
          "type": "address"
        },
        {
          "internalType": "address",
          "name": "recipient",
          "type": "address"
        },
        {
          "internalType": "uint256",
          "name": "amount",
          "type": "uint256"
        }
      ],
      "name": "safeTransferFrom",
      "outputs": [],
      "stateMutability": "nonpayable",
      "type": "function"
    },
    {
      "inputs": [
        {
          "internalType": "address",
          "name": "sender",
          "type": "address"
        },
        {
          "internalType": "address",
          "name": "recipient",
          "type": "address"
        },
        {
          "internalType": "uint256",
          "name": "amount",
          "type": "uint256"
        },
        {
          "internalType": "bytes",
          "name": "data",
          "type": "bytes"
        }
      ],
      "name": "safeTransferFrom",
      "outputs": [],
      "stateMutability": "nonpayable",
      "type": "function"
    },
    {
      "inputs": [
        {
          "internalType": "address",
          "name": "to",
          "type": "address"
        },
        {
          "internalType": "uint256",
          "name": "tokenAmount",
          "type": "uint256"
        }
      ],
      "name": "stake",
      "outputs": [
        {
          "internalType": "uint256",
          "name": "bondAmount",
          "type": "uint256"
        }
      ],
      "stateMutability": "nonpayable",
      "type": "function"
    },
    {
      "inputs": [
        {
          "internalType": "bytes4",
          "name": "interfaceId",
          "type": "bytes4"
        }
      ],
      "name": "supportsInterface",
      "outputs": [
        {
          "internalType": "bool",
          "name": "",
          "type": "bool"
        }
      ],
      "stateMutability": "view",
      "type": "function"
    },
    {
      "inputs": [],
      "name": "symbol",
      "outputs": [
        {
          "internalType": "string",
          "name": "",
          "type": "string"
        }
      ],
      "stateMutability": "view",
      "type": "function"
    },
    {
      "inputs": [
        {
          "internalType": "uint256",
          "name": "bondAmount",
          "type": "uint256"
        }
      ],
      "name": "toTokenAmount",
      "outputs": [
        {
          "internalType": "uint256",
          "name": "tokenAmount",
          "type": "uint256"
        }
      ],
      "stateMutability": "view",
      "type": "function"
    },
    {
      "inputs": [],
      "name": "token",
      "outputs": [
        {
          "internalType": "contract IKIP7",
          "name": "",
          "type": "address"
        }
      ],
      "stateMutability": "view",
      "type": "function"
    },
    {
      "inputs": [],
      "name": "totalSupply",
      "outputs": [
        {
          "internalType": "uint256",
          "name": "",
          "type": "uint256"
        }
      ],
      "stateMutability": "view",
      "type": "function"
    },
    {
      "inputs": [
        {
          "internalType": "address",
          "name": "recipient",
          "type": "address"
        },
        {
          "internalType": "uint256",
          "name": "amount",
          "type": "uint256"
        }
      ],
      "name": "transfer",
      "outputs": [
        {
          "internalType": "bool",
          "name": "",
          "type": "bool"
        }
      ],
      "stateMutability": "nonpayable",
      "type": "function"
    },
    {
      "inputs": [
        {
          "internalType": "address",
          "name": "sender",
          "type": "address"
        },
        {
          "internalType": "address",
          "name": "recipient",
          "type": "address"
        },
        {
          "internalType": "uint256",
          "name": "amount",
          "type": "uint256"
        }
      ],
      "name": "transferFrom",
      "outputs": [
        {
          "internalType": "bool",
          "name": "",
          "type": "bool"
        }
      ],
      "stateMutability": "nonpayable",
      "type": "function"
    },
    {
      "inputs": [
        {
          "internalType": "address",
          "name": "newOwner",
          "type": "address"
        }
      ],
      "name": "transferOwnership",
      "outputs": [],
      "stateMutability": "nonpayable",
      "type": "function"
    },
    {
      "inputs": [],
      "name": "unpause",
      "outputs": [],
      "stateMutability": "nonpayable",
      "type": "function"
    },
    {
      "inputs": [
        {
          "internalType": "address",
          "name": "to",
          "type": "address"
        },
        {
          "internalType": "uint256",
          "name": "bondAmount",
          "type": "uint256"
        }
      ],
      "name": "unstake",
      "outputs": [
        {
          "internalType": "uint256",
          "name": "tokenAmount",
          "type": "uint256"
        }
      ],
      "stateMutability": "nonpayable",
      "type": "function"
    },
    {
      "inputs": [],
      "name": "yieldFactory",
      "outputs": [
        {
          "internalType": "contract IYieldFactory",
          "name": "",
          "type": "address"
        }
      ],
      "stateMutability": "view",
      "type": "function"
    }
  ],
  "transactionHash": "0x9565b1ebec063b24d9e1adcba61a38c619136befba208a76723ae4efb154625b",
  "args": [],
  "solcInputHash": "de4f5741dec2c2b2fd1b551e118f3df0",
  "bytecode": "0x608060405234801561001057600080fd5b50612491806100206000396000f3fe608060405234801561001057600080fd5b50600436106102115760003560e01c80637214956f11610125578063adc9772e116100ad578063d547741f1161007c578063d547741f14610472578063dd62ed3e14610485578063eb795549146104be578063f2fde38b146104d1578063fc0c546a146104e457610211565b8063adc9772e14610426578063b88d4fde14610439578063c2a672e01461044c578063d366f3b91461045f57610211565b806395d89b41116100f457806395d89b41146103e85780639dc29fac146103f05780639e6469a114610403578063a217fddf1461040b578063a9059cbb1461041357610211565b80637214956f146103a75780637f1c942d146103ba5780638456cb59146103cd57806391d14854146103d557610211565b80632f2ff15d116101a857806340c10f191161017757806340c10f191461033a578063423f6cef1461034d57806342842e0e146103605780635c975abb1461037357806370a082311461037e57610211565b80632f2ff15d146102f5578063313ce5671461030a57806336568abe1461031f5780633f4ba83a1461033257610211565b8063174e4ea6116101e4578063174e4ea61461029657806318160ddd146102b757806323b872dd146102bf578063248a9ca3146102d257610211565b806301ffc9a71461021657806306fdde031461023e578063095ea7b31461025357806316fd84f714610266575b600080fd5b610229610224366004612199565b6104f7565b60405190151581526020015b60405180910390f35b61024661051a565b60405161023591906122eb565b6102296102613660046120ba565b6105ac565b60095461027e9061010090046001600160a01b031681565b6040516001600160a01b039091168152602001610235565b6102a96102a436600461215f565b6105f3565b604051908152602001610235565b6004546102a9565b6102296102cd366004612019565b6106ae565b6102a96102e036600461215f565b60009081526008602052604090206001015490565b610308610303366004612177565b6106ec565b005b60075460405160ff9091168152602001610235565b61030861032d366004612177565b610717565b610308610795565b6102296103483660046120ba565b610833565b61030861035b3660046120ba565b61087d565b61030861036e366004612019565b610897565b60095460ff16610229565b6102a961038c366004611fcd565b6001600160a01b031660009081526002602052604090205490565b6102a96103b536600461215f565b6108b2565b6103086103c83660046121d1565b61095c565b6103086109e8565b6102296103e3366004612177565b610a5c565b610246610a87565b6102296103fe3660046120ba565b610a96565b610308610ad7565b6102a9600081565b6102296104213660046120ba565b610bb4565b6102a96104343660046120ba565b610be9565b610308610447366004612054565b610e0c565b6102a961045a3660046120ba565b610e98565b61030861046d366004612177565b61101e565b610308610480366004612177565b611113565b6102a9610493366004611fe7565b6001600160a01b03918216600090815260036020908152604080832093909416825291909152205490565b6103086104cc3660046120e3565b611139565b6103086104df366004611fcd565b6111c2565b600a5461027e906001600160a01b031681565b6001600160e01b0319811660009081526001602052604090205460ff165b919050565b606060058054610529906123e4565b80601f0160208091040260200160405190810160405280929190818152602001828054610555906123e4565b80156105a25780601f10610577576101008083540402835291602001916105a2565b820191906000526020600020905b81548152906001019060200180831161058557829003601f168201915b5050505050905090565b60006105ba60095460ff1690565b156105e05760405162461bcd60e51b81526004016105d7906122fe565b60405180910390fd5b6105ea83836111f8565b90505b92915050565b600080600960019054906101000a90046001600160a01b03166001600160a01b0316631a39d8ef6040518163ffffffff1660e01b815260040160206040518083038186803b15801561064457600080fd5b505afa158015610658573d6000803e3d6000fd5b505050506040513d601f19601f8201168201806040525081019061067c919061224b565b90506000811161068e578291506106a8565b60045461069b82856123ae565b6106a5919061238e565b91505b50919050565b60006106bc60095460ff1690565b156106d95760405162461bcd60e51b81526004016105d7906122fe565b6106e4848484611205565b949350505050565b6000828152600860205260409020600101546107088133611257565b61071283836112bb565b505050565b6001600160a01b03811633146107875760405162461bcd60e51b815260206004820152602f60248201527f416363657373436f6e74726f6c3a2063616e206f6e6c792072656e6f756e636560448201526e103937b632b9903337b91039b2b63360891b60648201526084016105d7565b6107918282611324565b5050565b60095460ff166107de5760405162461bcd60e51b815260206004820152601460248201527314185d5cd8589b194e881b9bdd081c185d5cd95960621b60448201526064016105d7565b653830bab9b2b960d11b6107f28133611257565b6009805460ff191690556040513381527f5db9ee0a495bf2e6ff9c91a7834c1ba4fdd244a5e8aa4e537bd38aeae4b073aa906020015b60405180910390a150565b60006108476430b236b4b760d91b33611257565b60095460ff161561086a5760405162461bcd60e51b81526004016105d7906122fe565b610874838361138b565b50600192915050565b610791828260405180602001604052806000815250611139565b61071283838360405180602001604052806000815250610e0c565b600080600960019054906101000a90046001600160a01b03166001600160a01b0316631a39d8ef6040518163ffffffff1660e01b815260040160206040518083038186803b15801561090357600080fd5b505afa158015610917573d6000803e3d6000fd5b505050506040513d601f19601f8201168201806040525081019061093b919061224b565b90506000811161094d578291506106a8565b806004548461069b91906123ae565b600054610100900460ff16806109715750303b155b8061097f575060005460ff16155b61099b5760405162461bcd60e51b81526004016105d790612328565b600054610100900460ff161580156109bd576000805461ffff19166101011790555b6109c8848484611489565b6109d06114f5565b80156109e2576000805461ff00191690555b50505050565b60095460ff1615610a0b5760405162461bcd60e51b81526004016105d7906122fe565b653830bab9b2b960d11b610a1f8133611257565b6009805460ff191660011790556040513381527f62e78cea01bee320cd4e420270b5ea74000d11b0c9f74754ebdbfc544b05a25890602001610828565b60009182526008602090815260408084206001600160a01b0393909316845291905290205460ff1690565b606060068054610529906123e4565b6000610aaa6430b236b4b760d91b33611257565b60095460ff1615610acd5760405162461bcd60e51b81526004016105d7906122fe565b610874838361158c565b600054610100900460ff1680610aec5750303b155b80610afa575060005460ff16155b610b165760405162461bcd60e51b81526004016105d790612328565b600054610100900460ff16158015610b38576000805461ffff19166101011790555b610b9f6040518060400160405280601d81526020017f626f6e646564204b6c617953776170204c50204b4554482d4b555344540000008152506040518060400160405280600e81526020016d1892d4d31412d1551212d554d11560921b815250601261095c565b8015610bb1576000805461ff00191690555b50565b6000610bc260095460ff1690565b15610bdf5760405162461bcd60e51b81526004016105d7906122fe565b6105ea838361167d565b6000610bf760095460ff1690565b15610c145760405162461bcd60e51b81526004016105d7906122fe565b60008211610c24575060006105ed565b610c2d826108b2565b9050610c39838261138b565b600a546040516323b872dd60e01b8152336004820152306024820152604481018490526001600160a01b03909116906323b872dd90606401602060405180830381600087803b158015610c8b57600080fd5b505af1158015610c9f573d6000803e3d6000fd5b505050506040513d601f19601f82011682018060405250810190610cc39190612138565b50600a5460095460405163095ea7b360e01b81526001600160a01b03610100909204821660048201526024810185905291169063095ea7b390604401602060405180830381600087803b158015610d1957600080fd5b505af1158015610d2d573d6000803e3d6000fd5b505050506040513d601f19601f82011682018060405250810190610d519190612138565b5060095460405163534a7e1d60e11b8152600481018490526101009091046001600160a01b03169063a694fc3a90602401600060405180830381600087803b158015610d9c57600080fd5b505af1158015610db0573d6000803e3d6000fd5b5050604080513381526001600160a01b0387166020820152908101859052606081018490527f63602d0ecc7b3a0ef7ff1a116e23056662d64280355ba8031b6d0d767c4b4458925060800190505b60405180910390a192915050565b610e178484846106ae565b50610e248484848461168a565b6109e2576040805162461bcd60e51b81526020600482015260248101919091527f4b4950373a3a736166655472616e7366657246726f6d3a207472616e7366657260448201527f20746f206e6f6e204b495037526563656976657220696d706c656d656e74657260648201526084016105d7565b6000610ea660095460ff1690565b15610ec35760405162461bcd60e51b81526004016105d7906122fe565b60008211610ed3575060006105ed565b610edc826105f3565b9050610ee8338361158c565b6009546040516305c2fbcf60e31b8152600481018390526101009091046001600160a01b031690632e17de7890602401600060405180830381600087803b158015610f3257600080fd5b505af1158015610f46573d6000803e3d6000fd5b5050600a5460405163a9059cbb60e01b81526001600160a01b03878116600483015260248201869052909116925063a9059cbb9150604401602060405180830381600087803b158015610f9857600080fd5b505af1158015610fac573d6000803e3d6000fd5b505050506040513d601f19601f82011682018060405250810190610fd09190612138565b50604080513381526001600160a01b0385166020820152908101829052606081018390527f18edd09e80386cd99df397e2e0d87d2bb259423eae08645e776321a36fe680ef90608001610dfe565b6110306430b236b4b760d91b33611257565b60095460ff16156110535760405162461bcd60e51b81526004016105d7906122fe565b816b7969656c64466163746f727960a01b141561108f5760098054610100600160a81b0319166101006001600160a01b03841602179055610791565b81643a37b5b2b760d91b14156110bf57600a80546001600160a01b0319166001600160a01b038316179055610791565b60405162461bcd60e51b8152602060048201526024808201527f42617365426f6e643a3a636f6e6669673a20756e7265636f676e697a65642d706044820152636172616d60e01b60648201526084016105d7565b60008281526008602052604090206001015461112f8133611257565b6107128383611324565b6111438383610bb4565b506111503384848461168a565b6107125760405162461bcd60e51b815260206004820152603c60248201527f4b4950373a3a736166655472616e736665723a207472616e7366657220746f2060448201527f6e6f6e204b495037526563656976657220696d706c656d656e7465720000000060648201526084016105d7565b6111d46437bbb732b960d91b33611257565b6111e66437bbb732b960d91b826112bb565b610bb16437bbb732b960d91b33611324565b6000610874338484611748565b6000611212848484611880565b6001600160a01b03841660009081526003602090815260408083203380855292529091205461124d9186916112489086906123cd565b611748565b5060019392505050565b6112618282610a5c565b6107915760405162461bcd60e51b815260206004820152602560248201527f416363657373436f6e74726f6c3a5f636865636b526f6c653a696e76616c696460448201526420726f6c6560d81b60648201526084016105d7565b6112c58282610a5c565b6107915760008281526008602090815260408083206001600160a01b0385168085529252808320805460ff1916600117905551339285917f2f8788117e7eff1d82e926ec794901d17c78024a50270940304540a733656f0d9190a45050565b61132e8282610a5c565b156107915760008281526008602090815260408083206001600160a01b0385168085529252808320805460ff1916905551339285917ff6391f5c32d9c69d2a47ea670b442974b53935d1edc7fd64eb21e047a839171b9190a45050565b6001600160a01b0382166113f75760405162461bcd60e51b815260206004820152602d60248201527f4b495037457874656e6465643a3a5f6d696e743a206d696e7420746f2074686560448201526c207a65726f206164647265737360981b60648201526084016105d7565b806004546114059190612376565b6004556001600160a01b03821660009081526002602052604090205461142c908290612376565b6001600160a01b0383166000818152600260205260408082209390935591519091907fddf252ad1be2c89b69c2b068fc378daa952ba7f163c4a11628f55a4df523b3ef9061147d9085815260200190565b60405180910390a35050565b600054610100900460ff168061149e5750303b155b806114ac575060005460ff16155b6114c85760405162461bcd60e51b81526004016105d790612328565b600054610100900460ff161580156114ea576000805461ffff19166101011790555b6109c8848484611a02565b600054610100900460ff168061150a5750303b155b80611518575060005460ff16155b6115345760405162461bcd60e51b81526004016105d790612328565b600054610100900460ff16158015611556576000805461ffff19166101011790555b61155e611a76565b611579653830bab9b2b960d11b6437bbb732b960d91b611adf565b610b9f653830bab9b2b960d11b33611b2a565b6001600160a01b0382166115fa5760405162461bcd60e51b815260206004820152602f60248201527f4b495037457874656e6465643a3a5f6275726e3a206275726e2066726f6d207460448201526e6865207a65726f206164647265737360881b60648201526084016105d7565b8060045461160891906123cd565b6004556001600160a01b03821660009081526002602052604090205461162f9082906123cd565b6001600160a01b0383166000818152600260205260408082209390935591517fddf252ad1be2c89b69c2b068fc378daa952ba7f163c4a11628f55a4df523b3ef9061147d9085815260200190565b6000610874338484611880565b60006001600160a01b0384163b6116a3575060016106e4565b604051634e8c461160e11b81526000906001600160a01b03861690639d188c22906116d89033908a90899089906004016122ae565b602060405180830381600087803b1580156116f257600080fd5b505af1158015611706573d6000803e3d6000fd5b505050506040513d601f19601f8201168201806040525081019061172a91906121b5565b6001600160e01b031916634e8c461160e11b14915050949350505050565b6001600160a01b0383166117b45760405162461bcd60e51b815260206004820152602d60248201527f4b4950373a3a5f617070726f76653a20617070726f76652066726f6d2074686560448201526c207a65726f206164647265737360981b60648201526084016105d7565b6001600160a01b03821661181e5760405162461bcd60e51b815260206004820152602b60248201527f4b4950373a3a5f617070726f76653a20617070726f766520746f20746865207a60448201526a65726f206164647265737360a81b60648201526084016105d7565b6001600160a01b0383811660008181526003602090815260408083209487168084529482529182902085905590518481527f8c5be1e5ebec7d5bd14f71427d1e84f3dd0314c0f7b2291e5b200ac8c7c3b92591015b60405180910390a3505050565b6001600160a01b0383166118ee5760405162461bcd60e51b815260206004820152602f60248201527f4b4950373a3a5f7472616e736665723a207472616e736665722066726f6d207460448201526e6865207a65726f206164647265737360881b60648201526084016105d7565b6001600160a01b03821661195a5760405162461bcd60e51b815260206004820152602d60248201527f4b4950373a3a5f7472616e736665723a207472616e7366657220746f2074686560448201526c207a65726f206164647265737360981b60648201526084016105d7565b6001600160a01b03831660009081526002602052604090205461197e9082906123cd565b6001600160a01b0380851660009081526002602052604080822093909355908416815220546119ae908290612376565b6001600160a01b0380841660008181526002602052604090819020939093559151908516907fddf252ad1be2c89b69c2b068fc378daa952ba7f163c4a11628f55a4df523b3ef906118739085815260200190565b600054610100900460ff1680611a175750303b155b80611a25575060005460ff16155b611a415760405162461bcd60e51b81526004016105d790612328565b600054610100900460ff16158015611a63576000805461ffff19166101011790555b611a6b611b34565b6109d0848484611ba5565b600054610100900460ff1680611a8b5750303b155b80611a99575060005460ff16155b611ab55760405162461bcd60e51b81526004016105d790612328565b600054610100900460ff16158015611ad7576000805461ffff19166101011790555b610b9f611c4d565b600082815260086020526040808220600101805490849055905190918391839186917fbd79b86ffe0ab8e8776151514217cd7cacd52c909f66475c3af44e129f0b00ff9190a4505050565b61079182826112bb565b600054610100900460ff1680611b495750303b155b80611b57575060005460ff16155b611b735760405162461bcd60e51b81526004016105d790612328565b600054610100900460ff16158015611b95576000805461ffff19166101011790555b611b9d611d1e565b610b9f611d8f565b600054610100900460ff1680611bba5750303b155b80611bc8575060005460ff16155b611be45760405162461bcd60e51b81526004016105d790612328565b600054610100900460ff16158015611c06576000805461ffff19166101011790555b8351611c19906005906020870190611e96565b508251611c2d906006906020860190611e96565b506007805460ff191660ff84161790556109d063a219a02560e01b611dfc565b600054610100900460ff1680611c625750303b155b80611c70575060005460ff16155b611c8c5760405162461bcd60e51b81526004016105d790612328565b600054610100900460ff16158015611cae576000805461ffff19166101011790555b611cc06437bbb732b960d91b33611b2a565b611cda6430b236b4b760d91b6437bbb732b960d91b611adf565b611cf76737b832b930ba37b960c11b6437bbb732b960d91b611adf565b611d096430b236b4b760d91b33611b2a565b610b9f6737b832b930ba37b960c11b33611b2a565b600054610100900460ff1680611d335750303b155b80611d41575060005460ff16155b611d5d5760405162461bcd60e51b81526004016105d790612328565b600054610100900460ff16158015611d7f576000805461ffff19166101011790555b610b9f6301ffc9a760e01b611dfc565b600054610100900460ff1680611da45750303b155b80611db2575060005460ff16155b611dce5760405162461bcd60e51b81526004016105d790612328565b600054610100900460ff16158015611df0576000805461ffff19166101011790555b610b9f636578737160e01b5b6001600160e01b03198082161415611e6e5760405162461bcd60e51b815260206004820152602f60248201527f4b495031333a3a5f7265676973746572496e746572666163653a20696e76616c60448201526e1a59081a5b9d195c999858d9481a59608a1b60648201526084016105d7565b6001600160e01b0319166000908152600160208190526040909120805460ff19169091179055565b828054611ea2906123e4565b90600052602060002090601f016020900481019282611ec45760008555611f0a565b82601f10611edd57805160ff1916838001178555611f0a565b82800160010185558215611f0a579182015b82811115611f0a578251825591602001919060010190611eef565b50611f16929150611f1a565b5090565b5b80821115611f165760008155600101611f1b565b80356001600160a01b038116811461051557600080fd5b600082601f830112611f56578081fd5b813567ffffffffffffffff80821115611f7157611f7161242f565b604051601f8301601f19908116603f01168101908282118183101715611f9957611f9961242f565b81604052838152866020858801011115611fb1578485fd5b8360208701602083013792830160200193909352509392505050565b600060208284031215611fde578081fd5b6105ea82611f2f565b60008060408385031215611ff9578081fd5b61200283611f2f565b915061201060208401611f2f565b90509250929050565b60008060006060848603121561202d578081fd5b61203684611f2f565b925061204460208501611f2f565b9150604084013590509250925092565b60008060008060808587031215612069578081fd5b61207285611f2f565b935061208060208601611f2f565b925060408501359150606085013567ffffffffffffffff8111156120a2578182fd5b6120ae87828801611f46565b91505092959194509250565b600080604083850312156120cc578182fd5b6120d583611f2f565b946020939093013593505050565b6000806000606084860312156120f7578283fd5b61210084611f2f565b925060208401359150604084013567ffffffffffffffff811115612122578182fd5b61212e86828701611f46565b9150509250925092565b600060208284031215612149578081fd5b81518015158114612158578182fd5b9392505050565b600060208284031215612170578081fd5b5035919050565b60008060408385031215612189578182fd5b8235915061201060208401611f2f565b6000602082840312156121aa578081fd5b813561215881612445565b6000602082840312156121c6578081fd5b815161215881612445565b6000806000606084860312156121e5578283fd5b833567ffffffffffffffff808211156121fc578485fd5b61220887838801611f46565b9450602086013591508082111561221d578384fd5b5061222a86828701611f46565b925050604084013560ff81168114612240578182fd5b809150509250925092565b60006020828403121561225c578081fd5b5051919050565b60008151808452815b818110156122885760208185018101518683018201520161226c565b818111156122995782602083870101525b50601f01601f19169290920160200192915050565b6001600160a01b03858116825284166020820152604081018390526080606082018190526000906122e190830184612263565b9695505050505050565b6000602082526105ea6020830184612263565b60208082526010908201526f14185d5cd8589b194e881c185d5cd95960821b604082015260600190565b6020808252602e908201527f496e697469616c697a61626c653a20636f6e747261637420697320616c72656160408201526d191e481a5b9a5d1a585b1a5e995960921b606082015260800190565b6000821982111561238957612389612419565b500190565b6000826123a957634e487b7160e01b81526012600452602481fd5b500490565b60008160001904831182151516156123c8576123c8612419565b500290565b6000828210156123df576123df612419565b500390565b600181811c908216806123f857607f821691505b602082108114156106a857634e487b7160e01b600052602260045260246000fd5b634e487b7160e01b600052601160045260246000fd5b634e487b7160e01b600052604160045260246000fd5b6001600160e01b031981168114610bb157600080fdfea264697066735822122039ee21ed5ce4947364243725647b6730d1f4b7722c979010a8eadd61883a965964736f6c63430008030033",
  "devdoc": {
    "kind": "dev",
    "methods": {},
    "version": 1
  },
  "userdoc": {
    "kind": "user",
    "methods": {
      "fromTokenAmount(uint256)": {
        "notice": "Calculate bond amount corresponding to the given token amount"
      },
      "stake(address,uint256)": {
        "notice": "Stake token to this contract and return bond."
      },
      "toTokenAmount(uint256)": {
        "notice": "Calculate token amount corresponding to the given bond amount"
      },
      "unstake(address,uint256)": {
        "notice": "Untake to return staked token."
      }
    },
    "version": 1
  },
  "storageLayout": {
    "storage": [
      {
        "astId": 24885,
        "contract": "contracts/collateral/KSLPKETHKUSDT/BKSLPKETHKUSDT.sol:BKSLPKETHKUSDT",
        "label": "_initialized",
        "offset": 0,
        "slot": "0",
        "type": "t_bool"
      },
      {
        "astId": 24888,
        "contract": "contracts/collateral/KSLPKETHKUSDT/BKSLPKETHKUSDT.sol:BKSLPKETHKUSDT",
        "label": "_initializing",
        "offset": 1,
        "slot": "0",
        "type": "t_bool"
      },
      {
        "astId": 22840,
        "contract": "contracts/collateral/KSLPKETHKUSDT/BKSLPKETHKUSDT.sol:BKSLPKETHKUSDT",
        "label": "_supportedInterfaces",
        "offset": 0,
        "slot": "1",
        "type": "t_mapping(t_bytes4,t_bool)"
      },
      {
        "astId": 22904,
        "contract": "contracts/collateral/KSLPKETHKUSDT/BKSLPKETHKUSDT.sol:BKSLPKETHKUSDT",
        "label": "_balances",
        "offset": 0,
        "slot": "2",
        "type": "t_mapping(t_address,t_uint256)"
      },
      {
        "astId": 22910,
        "contract": "contracts/collateral/KSLPKETHKUSDT/BKSLPKETHKUSDT.sol:BKSLPKETHKUSDT",
        "label": "_allowances",
        "offset": 0,
        "slot": "3",
        "type": "t_mapping(t_address,t_mapping(t_address,t_uint256))"
      },
      {
        "astId": 22912,
        "contract": "contracts/collateral/KSLPKETHKUSDT/BKSLPKETHKUSDT.sol:BKSLPKETHKUSDT",
        "label": "_totalSupply",
        "offset": 0,
        "slot": "4",
        "type": "t_uint256"
      },
      {
        "astId": 23292,
        "contract": "contracts/collateral/KSLPKETHKUSDT/BKSLPKETHKUSDT.sol:BKSLPKETHKUSDT",
        "label": "_name",
        "offset": 0,
        "slot": "5",
        "type": "t_string_storage"
      },
      {
        "astId": 23294,
        "contract": "contracts/collateral/KSLPKETHKUSDT/BKSLPKETHKUSDT.sol:BKSLPKETHKUSDT",
        "label": "_symbol",
        "offset": 0,
        "slot": "6",
        "type": "t_string_storage"
      },
      {
        "astId": 23296,
        "contract": "contracts/collateral/KSLPKETHKUSDT/BKSLPKETHKUSDT.sol:BKSLPKETHKUSDT",
        "label": "_decimals",
        "offset": 0,
        "slot": "7",
        "type": "t_uint8"
      },
      {
        "astId": 21831,
        "contract": "contracts/collateral/KSLPKETHKUSDT/BKSLPKETHKUSDT.sol:BKSLPKETHKUSDT",
        "label": "_roles",
        "offset": 0,
        "slot": "8",
        "type": "t_mapping(t_bytes32,t_struct(RoleData)21826_storage)"
      },
      {
        "astId": 22221,
        "contract": "contracts/collateral/KSLPKETHKUSDT/BKSLPKETHKUSDT.sol:BKSLPKETHKUSDT",
        "label": "_paused",
        "offset": 0,
        "slot": "9",
        "type": "t_bool"
      },
      {
        "astId": 20371,
        "contract": "contracts/collateral/KSLPKETHKUSDT/BKSLPKETHKUSDT.sol:BKSLPKETHKUSDT",
        "label": "yieldFactory",
        "offset": 1,
        "slot": "9",
        "type": "t_contract(IYieldFactory)9693"
      },
      {
        "astId": 20374,
        "contract": "contracts/collateral/KSLPKETHKUSDT/BKSLPKETHKUSDT.sol:BKSLPKETHKUSDT",
        "label": "token",
        "offset": 0,
        "slot": "10",
        "type": "t_contract(IKIP7)9935"
      }
    ],
    "types": {
      "t_address": {
        "encoding": "inplace",
        "label": "address",
        "numberOfBytes": "20"
      },
      "t_bool": {
        "encoding": "inplace",
        "label": "bool",
        "numberOfBytes": "1"
      },
      "t_bytes32": {
        "encoding": "inplace",
        "label": "bytes32",
        "numberOfBytes": "32"
      },
      "t_bytes4": {
        "encoding": "inplace",
        "label": "bytes4",
        "numberOfBytes": "4"
      },
      "t_contract(IKIP7)9935": {
        "encoding": "inplace",
        "label": "contract IKIP7",
        "numberOfBytes": "20"
      },
      "t_contract(IYieldFactory)9693": {
        "encoding": "inplace",
        "label": "contract IYieldFactory",
        "numberOfBytes": "20"
      },
      "t_mapping(t_address,t_bool)": {
        "encoding": "mapping",
        "key": "t_address",
        "label": "mapping(address => bool)",
        "numberOfBytes": "32",
        "value": "t_bool"
      },
      "t_mapping(t_address,t_mapping(t_address,t_uint256))": {
        "encoding": "mapping",
        "key": "t_address",
        "label": "mapping(address => mapping(address => uint256))",
        "numberOfBytes": "32",
        "value": "t_mapping(t_address,t_uint256)"
      },
      "t_mapping(t_address,t_uint256)": {
        "encoding": "mapping",
        "key": "t_address",
        "label": "mapping(address => uint256)",
        "numberOfBytes": "32",
        "value": "t_uint256"
      },
      "t_mapping(t_bytes32,t_struct(RoleData)21826_storage)": {
        "encoding": "mapping",
        "key": "t_bytes32",
        "label": "mapping(bytes32 => struct AccessControl.RoleData)",
        "numberOfBytes": "32",
        "value": "t_struct(RoleData)21826_storage"
      },
      "t_mapping(t_bytes4,t_bool)": {
        "encoding": "mapping",
        "key": "t_bytes4",
        "label": "mapping(bytes4 => bool)",
        "numberOfBytes": "32",
        "value": "t_bool"
      },
      "t_string_storage": {
        "encoding": "bytes",
        "label": "string",
        "numberOfBytes": "32"
      },
      "t_struct(RoleData)21826_storage": {
        "encoding": "inplace",
        "label": "struct AccessControl.RoleData",
        "members": [
          {
            "astId": 21823,
            "contract": "contracts/collateral/KSLPKETHKUSDT/BKSLPKETHKUSDT.sol:BKSLPKETHKUSDT",
            "label": "members",
            "offset": 0,
            "slot": "0",
            "type": "t_mapping(t_address,t_bool)"
          },
          {
            "astId": 21825,
            "contract": "contracts/collateral/KSLPKETHKUSDT/BKSLPKETHKUSDT.sol:BKSLPKETHKUSDT",
            "label": "adminRole",
            "offset": 0,
            "slot": "1",
            "type": "t_bytes32"
          }
        ],
        "numberOfBytes": "64"
      },
      "t_uint256": {
        "encoding": "inplace",
        "label": "uint256",
        "numberOfBytes": "32"
      },
      "t_uint8": {
        "encoding": "inplace",
        "label": "uint8",
        "numberOfBytes": "1"
      }
    }
  }
}