{
  "address": "0xa29F76D9cda4850FC6E3779B5279071E27b6b1c4",
  "abi": [
    {
      "anonymous": false,
      "inputs": [
        {
          "indexed": false,
          "internalType": "address",
          "name": "account",
          "type": "address"
        }
      ],
      "name": "Paused",
      "type": "event"
    },
    {
      "anonymous": false,
      "inputs": [
        {
          "indexed": true,
          "internalType": "bytes32",
          "name": "role",
          "type": "bytes32"
        },
        {
          "indexed": true,
          "internalType": "bytes32",
          "name": "previousAdminRole",
          "type": "bytes32"
        },
        {
          "indexed": true,
          "internalType": "bytes32",
          "name": "newAdminRole",
          "type": "bytes32"
        }
      ],
      "name": "RoleAdminChanged",
      "type": "event"
    },
    {
      "anonymous": false,
      "inputs": [
        {
          "indexed": true,
          "internalType": "bytes32",
          "name": "role",
          "type": "bytes32"
        },
        {
          "indexed": true,
          "internalType": "address",
          "name": "account",
          "type": "address"
        },
        {
          "indexed": true,
          "internalType": "address",
          "name": "sender",
          "type": "address"
        }
      ],
      "name": "RoleGranted",
      "type": "event"
    },
    {
      "anonymous": false,
      "inputs": [
        {
          "indexed": true,
          "internalType": "bytes32",
          "name": "role",
          "type": "bytes32"
        },
        {
          "indexed": true,
          "internalType": "address",
          "name": "account",
          "type": "address"
        },
        {
          "indexed": true,
          "internalType": "address",
          "name": "sender",
          "type": "address"
        }
      ],
      "name": "RoleRevoked",
      "type": "event"
    },
    {
      "anonymous": false,
      "inputs": [
        {
          "indexed": false,
          "internalType": "address",
          "name": "account",
          "type": "address"
        }
      ],
      "name": "Unpaused",
      "type": "event"
    },
    {
      "inputs": [],
      "name": "DEFAULT_ADMIN_ROLE",
      "outputs": [
        {
          "internalType": "bytes32",
          "name": "",
          "type": "bytes32"
        }
      ],
      "stateMutability": "view",
      "type": "function"
    },
    {
      "inputs": [
        {
          "internalType": "address",
          "name": "addressBook",
          "type": "address"
        }
      ],
      "name": "__BKSLPKUSDTKDAIFeed_init",
      "outputs": [],
      "stateMutability": "nonpayable",
      "type": "function"
    },
    {
      "inputs": [
        {
          "internalType": "bytes32",
          "name": "collateralType_",
          "type": "bytes32"
        },
        {
          "internalType": "address",
          "name": "addressBook_",
          "type": "address"
        }
      ],
      "name": "__BKSStableStableLpFeed_init",
      "outputs": [],
      "stateMutability": "nonpayable",
      "type": "function"
    },
    {
      "inputs": [],
      "name": "__Feed_init",
      "outputs": [],
      "stateMutability": "nonpayable",
      "type": "function"
    },
    {
      "inputs": [],
      "name": "addressBook",
      "outputs": [
        {
          "internalType": "contract IAddressBook",
          "name": "",
          "type": "address"
        }
      ],
      "stateMutability": "view",
      "type": "function"
    },
    {
      "inputs": [],
      "name": "clear",
      "outputs": [],
      "stateMutability": "nonpayable",
      "type": "function"
    },
    {
      "inputs": [],
      "name": "collateralType",
      "outputs": [
        {
          "internalType": "bytes32",
          "name": "",
          "type": "bytes32"
        }
      ],
      "stateMutability": "view",
      "type": "function"
    },
    {
      "inputs": [],
      "name": "getPrice",
      "outputs": [
        {
          "internalType": "uint256",
          "name": "",
          "type": "uint256"
        },
        {
          "internalType": "bool",
          "name": "",
          "type": "bool"
        }
      ],
      "stateMutability": "view",
      "type": "function"
    },
    {
      "inputs": [
        {
          "internalType": "bytes32",
          "name": "role",
          "type": "bytes32"
        }
      ],
      "name": "getRoleAdmin",
      "outputs": [
        {
          "internalType": "bytes32",
          "name": "",
          "type": "bytes32"
        }
      ],
      "stateMutability": "view",
      "type": "function"
    },
    {
      "inputs": [
        {
          "internalType": "bytes32",
          "name": "role",
          "type": "bytes32"
        },
        {
          "internalType": "address",
          "name": "account",
          "type": "address"
        }
      ],
      "name": "grantRole",
      "outputs": [],
      "stateMutability": "nonpayable",
      "type": "function"
    },
    {
      "inputs": [
        {
          "internalType": "bytes32",
          "name": "role",
          "type": "bytes32"
        },
        {
          "internalType": "address",
          "name": "account",
          "type": "address"
        }
      ],
      "name": "hasRole",
      "outputs": [
        {
          "internalType": "bool",
          "name": "",
          "type": "bool"
        }
      ],
      "stateMutability": "view",
      "type": "function"
    },
    {
      "inputs": [],
      "name": "pause",
      "outputs": [],
      "stateMutability": "nonpayable",
      "type": "function"
    },
    {
      "inputs": [],
      "name": "paused",
      "outputs": [
        {
          "internalType": "bool",
          "name": "",
          "type": "bool"
        }
      ],
      "stateMutability": "view",
      "type": "function"
    },
    {
      "inputs": [],
      "name": "price",
      "outputs": [
        {
          "internalType": "uint256",
          "name": "",
          "type": "uint256"
        }
      ],
      "stateMutability": "view",
      "type": "function"
    },
    {
      "inputs": [
        {
          "internalType": "bytes32",
          "name": "role",
          "type": "bytes32"
        },
        {
          "internalType": "address",
          "name": "account",
          "type": "address"
        }
      ],
      "name": "renounceRole",
      "outputs": [],
      "stateMutability": "nonpayable",
      "type": "function"
    },
    {
      "inputs": [
        {
          "internalType": "bytes32",
          "name": "role",
          "type": "bytes32"
        },
        {
          "internalType": "address",
          "name": "account",
          "type": "address"
        }
      ],
      "name": "revokeRole",
      "outputs": [],
      "stateMutability": "nonpayable",
      "type": "function"
    },
    {
      "inputs": [
        {
          "internalType": "uint256",
          "name": "_price",
          "type": "uint256"
        }
      ],
      "name": "set",
      "outputs": [],
      "stateMutability": "nonpayable",
      "type": "function"
    },
    {
      "inputs": [
        {
          "internalType": "address",
          "name": "newOwner",
          "type": "address"
        }
      ],
      "name": "transferOwnership",
      "outputs": [],
      "stateMutability": "nonpayable",
      "type": "function"
    },
    {
      "inputs": [],
      "name": "unpause",
      "outputs": [],
      "stateMutability": "nonpayable",
      "type": "function"
    },
    {
      "inputs": [],
      "name": "valid",
      "outputs": [
        {
          "internalType": "bool",
          "name": "",
          "type": "bool"
        }
      ],
      "stateMutability": "view",
      "type": "function"
    }
  ],
  "transactionHash": "0x9a220549139661b912b9952a6658e20c0477c817623aa450792cb95e2bb1e0ae",
  "args": [],
  "solcInputHash": "daac9cba34dfabe5953ff704314717f0",
  "bytecode": "0x608060405234801561001057600080fd5b5061121b806100206000396000f3fe608060405234801561001057600080fd5b506004361061012c5760003560e01c806388ad6b5b116100ad578063c199121911610071578063c199121914610241578063d547741f14610253578063e824600f14610266578063f2fde38b1461026f578063f5887cdd146102825761012c565b806388ad6b5b146101ed57806391d148541461020057806398d5fdca14610213578063a035b1fe14610230578063a217fddf146102395761012c565b80633f4ba83a116100f45780633f4ba83a146101ab57806352efea6e146101b35780635c975abb146101bb57806360fe47b1146101d25780638456cb59146101e55761012c565b806302334c691461013157806317dc4aa014610146578063248a9ca31461014e5780632f2ff15d1461018557806336568abe14610198575b600080fd5b61014461013f366004610f08565b6102ad565b005b610144610347565b61017261015c366004610f47565b6000908152600160208190526040909120015490565b6040519081526020015b60405180910390f35b610144610193366004610f5f565b6103c5565b6101446101a6366004610f5f565b6103f1565b61014461046b565b610144610509565b60025460ff165b604051901515815260200161017c565b6101446101e0366004610f47565b610528565b610144610597565b6101446101fb366004610f5f565b61062e565b6101c261020e366004610f5f565b6106cd565b61021b6106f8565b6040805192835290151560208301520161017c565b61017260035481565b610172600081565b6002546101c290610100900460ff1681565b610144610261366004610f5f565b610b4d565b61017260055481565b61014461027d366004610f08565b610b74565b600454610295906001600160a01b031681565b6040516001600160a01b03909116815260200161017c565b600054610100900460ff16806102c25750303b155b806102d0575060005460ff16155b6102f55760405162461bcd60e51b81526004016102ec90610fea565b60405180910390fd5b600054610100900460ff16158015610317576000805461ffff19166101011790555b6103316c4b534c504b555344544b44414960981b8361062e565b8015610343576000805461ff00191690555b5050565b600054610100900460ff168061035c5750303b155b8061036a575060005460ff16155b6103865760405162461bcd60e51b81526004016102ec90610fea565b600054610100900460ff161580156103a8576000805461ffff19166101011790555b6103b0610baa565b80156103c2576000805461ff00191690555b50565b600082815260016020819052604090912001546103e28133610c41565b6103ec8383610ca5565b505050565b6001600160a01b03811633146104615760405162461bcd60e51b815260206004820152602f60248201527f416363657373436f6e74726f6c3a2063616e206f6e6c792072656e6f756e636560448201526e103937b632b9903337b91039b2b63360891b60648201526084016102ec565b6103438282610d10565b60025460ff166104b45760405162461bcd60e51b815260206004820152601460248201527314185d5cd8589b194e881b9bdd081c185d5cd95960621b60448201526064016102ec565b653830bab9b2b960d11b6104c88133610c41565b6002805460ff191690556040513381527f5db9ee0a495bf2e6ff9c91a7834c1ba4fdd244a5e8aa4e537bd38aeae4b073aa906020015b60405180910390a150565b61051b6437bbb732b960d91b33610c41565b6002805461ff0019169055565b61053d6737b832b930ba37b960c11b33610c41565b60025460ff16156105835760405162461bcd60e51b815260206004820152601060248201526f14185d5cd8589b194e881c185d5cd95960821b60448201526064016102ec565b6003556002805461ff001916610100179055565b60025460ff16156105dd5760405162461bcd60e51b815260206004820152601060248201526f14185d5cd8589b194e881c185d5cd95960821b60448201526064016102ec565b653830bab9b2b960d11b6105f18133610c41565b6002805460ff191660011790556040513381527f62e78cea01bee320cd4e420270b5ea74000d11b0c9f74754ebdbfc544b05a258906020016104fe565b600054610100900460ff16806106435750303b155b80610651575060005460ff16155b61066d5760405162461bcd60e51b81526004016102ec90610fea565b600054610100900460ff1615801561068f576000805461ffff19166101011790555b610697610347565b6005839055600480546001600160a01b0319166001600160a01b03841617905580156103ec576000805461ff0019169055505050565b60009182526001602090815260408084206001600160a01b0393909316845291905290205460ff1690565b6004805460055460405163f084b66960e01b815292830152643a37b5b2b760d91b6024830152600091829182916001600160a01b039091169063f084b6699060440160206040518083038186803b15801561075257600080fd5b505afa158015610766573d6000803e3d6000fd5b505050506040513d601f19601f8201168201806040525081019061078a9190610f2b565b90506000816001600160a01b0316630fc63d106040518163ffffffff1660e01b815260040160206040518083038186803b1580156107c757600080fd5b505afa1580156107db573d6000803e3d6000fd5b505050506040513d601f19601f820116820180604052508101906107ff9190610f2b565b90506000826001600160a01b0316635f64b55b6040518163ffffffff1660e01b815260040160206040518083038186803b15801561083c57600080fd5b505afa158015610850573d6000803e3d6000fd5b505050506040513d601f19601f820116820180604052508101906108749190610f2b565b90506000826001600160a01b031663313ce5676040518163ffffffff1660e01b815260040160206040518083038186803b1580156108b157600080fd5b505afa1580156108c5573d6000803e3d6000fd5b505050506040513d601f19601f820116820180604052508101906108e99190610fc9565b60ff1690506000826001600160a01b031663313ce5676040518163ffffffff1660e01b815260040160206040518083038186803b15801561092957600080fd5b505afa15801561093d573d6000803e3d6000fd5b505050506040513d601f19601f820116820180604052508101906109619190610fc9565b60ff169050600080866001600160a01b0316631a595f656040518163ffffffff1660e01b8152600401604080518083038186803b1580156109a157600080fd5b505afa1580156109b5573d6000803e3d6000fd5b505050506040513d601f19601f820116820180604052508101906109d99190610fa6565b915091506000876001600160a01b03166318160ddd6040518163ffffffff1660e01b815260040160206040518083038186803b158015610a1857600080fd5b505afa158015610a2c573d6000803e3d6000fd5b505050506040513d601f19601f82011682018060405250810190610a509190610f8e565b90506000886001600160a01b031663313ce5676040518163ffffffff1660e01b815260040160206040518083038186803b158015610a8d57600080fd5b505afa158015610aa1573d6000803e3d6000fd5b505050506040513d601f19601f82011682018060405250810190610ac59190610fc9565b60ff1690506000610ad68688611038565b610ae19060246111a3565b9050600083610af183600a6110b6565b610afc8a600a6110b6565b610b069088611184565b610b118a600a6110b6565b610b1b908a611184565b610b259190611038565b610b2f9190611184565b610b399190611050565b9d60019d509b505050505050505050505050565b60008281526001602081905260409091200154610b6a8133610c41565b6103ec8383610d10565b610b866437bbb732b960d91b33610c41565b610b986437bbb732b960d91b82610ca5565b6103c26437bbb732b960d91b33610d10565b600054610100900460ff1680610bbf5750303b155b80610bcd575060005460ff16155b610be95760405162461bcd60e51b81526004016102ec90610fea565b600054610100900460ff16158015610c0b576000805461ffff19166101011790555b610c13610d77565b610c2e653830bab9b2b960d11b6437bbb732b960d91b610de0565b6103b0653830bab9b2b960d11b33610e2d565b610c4b82826106cd565b6103435760405162461bcd60e51b815260206004820152602560248201527f416363657373436f6e74726f6c3a5f636865636b526f6c653a696e76616c696460448201526420726f6c6560d81b60648201526084016102ec565b610caf82826106cd565b6103435760008281526001602081815260408084206001600160a01b0386168086529252808420805460ff19169093179092559051339285917f2f8788117e7eff1d82e926ec794901d17c78024a50270940304540a733656f0d9190a45050565b610d1a82826106cd565b156103435760008281526001602090815260408083206001600160a01b0385168085529252808320805460ff1916905551339285917ff6391f5c32d9c69d2a47ea670b442974b53935d1edc7fd64eb21e047a839171b9190a45050565b600054610100900460ff1680610d8c5750303b155b80610d9a575060005460ff16155b610db65760405162461bcd60e51b81526004016102ec90610fea565b600054610100900460ff16158015610dd8576000805461ffff19166101011790555b6103b0610e37565b6000828152600160208190526040808320909101805490849055905190918391839186917fbd79b86ffe0ab8e8776151514217cd7cacd52c909f66475c3af44e129f0b00ff9190a4505050565b6103438282610ca5565b600054610100900460ff1680610e4c5750303b155b80610e5a575060005460ff16155b610e765760405162461bcd60e51b81526004016102ec90610fea565b600054610100900460ff16158015610e98576000805461ffff19166101011790555b610eaa6437bbb732b960d91b33610e2d565b610ec46430b236b4b760d91b6437bbb732b960d91b610de0565b610ee16737b832b930ba37b960c11b6437bbb732b960d91b610de0565b610ef36430b236b4b760d91b33610e2d565b6103b06737b832b930ba37b960c11b33610e2d565b600060208284031215610f19578081fd5b8135610f24816111d0565b9392505050565b600060208284031215610f3c578081fd5b8151610f24816111d0565b600060208284031215610f58578081fd5b5035919050565b60008060408385031215610f71578081fd5b823591506020830135610f83816111d0565b809150509250929050565b600060208284031215610f9f578081fd5b5051919050565b60008060408385031215610fb8578182fd5b505080516020909101519092909150565b600060208284031215610fda578081fd5b815160ff81168114610f24578182fd5b6020808252602e908201527f496e697469616c697a61626c653a20636f6e747261637420697320616c72656160408201526d191e481a5b9a5d1a585b1a5e995960921b606082015260800190565b6000821982111561104b5761104b6111ba565b500190565b60008261106b57634e487b7160e01b81526012600452602481fd5b500490565b80825b600180861161108257506110ad565b818704821115611094576110946111ba565b808616156110a157918102915b9490941c938002611073565b94509492505050565b6000610f2460001984846000826110cf57506001610f24565b816110dc57506000610f24565b81600181146110f257600281146110fc57611129565b6001915050610f24565b60ff84111561110d5761110d6111ba565b6001841b915084821115611123576111236111ba565b50610f24565b5060208310610133831016604e8410600b841016171561115c575081810a83811115611157576111576111ba565b610f24565b6111698484846001611070565b80860482111561117b5761117b6111ba565b02949350505050565b600081600019048311821515161561119e5761119e6111ba565b500290565b6000828210156111b5576111b56111ba565b500390565b634e487b7160e01b600052601160045260246000fd5b6001600160a01b03811681146103c257600080fdfea2646970667358221220c78d689491fcb5949f233a3dc0796d66b6f801245d4cd8f527ac46bb6fa90ebc64736f6c63430008030033",
  "devdoc": {
    "kind": "dev",
    "methods": {
      "clear()": {
        "details": "it is should be called by only governance (EOA for now)."
      },
      "getPrice()": {
        "returns": {
          "_0": "value of price, validation check"
        }
      },
      "set(uint256)": {
        "details": "it should be called by only whitelisted operator",
        "params": {
          "_price": "value of price to set"
        }
      }
    },
    "version": 1
  },
  "userdoc": {
    "kind": "user",
    "methods": {
      "clear()": {
        "notice": "make price invalid"
      },
      "getPrice()": {
        "notice": "get price"
      },
      "set(uint256)": {
        "notice": "set price"
      }
    },
    "version": 1
  },
  "storageLayout": {
    "storage": [
      {
        "astId": 23220,
        "contract": "contracts/collateral/KSLPKUSDTKDAI/BKSLPKUSDTKDAIFeed.sol:BKSLPKUSDTKDAIFeed",
        "label": "_initialized",
        "offset": 0,
        "slot": "0",
        "type": "t_bool"
      },
      {
        "astId": 23223,
        "contract": "contracts/collateral/KSLPKUSDTKDAI/BKSLPKUSDTKDAIFeed.sol:BKSLPKUSDTKDAIFeed",
        "label": "_initializing",
        "offset": 1,
        "slot": "0",
        "type": "t_bool"
      },
      {
        "astId": 20166,
        "contract": "contracts/collateral/KSLPKUSDTKDAI/BKSLPKUSDTKDAIFeed.sol:BKSLPKUSDTKDAIFeed",
        "label": "_roles",
        "offset": 0,
        "slot": "1",
        "type": "t_mapping(t_bytes32,t_struct(RoleData)20161_storage)"
      },
      {
        "astId": 20556,
        "contract": "contracts/collateral/KSLPKUSDTKDAI/BKSLPKUSDTKDAIFeed.sol:BKSLPKUSDTKDAIFeed",
        "label": "_paused",
        "offset": 0,
        "slot": "2",
        "type": "t_bool"
      },
      {
        "astId": 29379,
        "contract": "contracts/collateral/KSLPKUSDTKDAI/BKSLPKUSDTKDAIFeed.sol:BKSLPKUSDTKDAIFeed",
        "label": "valid",
        "offset": 1,
        "slot": "2",
        "type": "t_bool"
      },
      {
        "astId": 29381,
        "contract": "contracts/collateral/KSLPKUSDTKDAI/BKSLPKUSDTKDAIFeed.sol:BKSLPKUSDTKDAIFeed",
        "label": "price",
        "offset": 0,
        "slot": "3",
        "type": "t_uint256"
      },
      {
        "astId": 28947,
        "contract": "contracts/collateral/KSLPKUSDTKDAI/BKSLPKUSDTKDAIFeed.sol:BKSLPKUSDTKDAIFeed",
        "label": "addressBook",
        "offset": 0,
        "slot": "4",
        "type": "t_contract(IAddressBook)6850"
      },
      {
        "astId": 28949,
        "contract": "contracts/collateral/KSLPKUSDTKDAI/BKSLPKUSDTKDAIFeed.sol:BKSLPKUSDTKDAIFeed",
        "label": "collateralType",
        "offset": 0,
        "slot": "5",
        "type": "t_bytes32"
      }
    ],
    "types": {
      "t_address": {
        "encoding": "inplace",
        "label": "address",
        "numberOfBytes": "20"
      },
      "t_bool": {
        "encoding": "inplace",
        "label": "bool",
        "numberOfBytes": "1"
      },
      "t_bytes32": {
        "encoding": "inplace",
        "label": "bytes32",
        "numberOfBytes": "32"
      },
      "t_contract(IAddressBook)6850": {
        "encoding": "inplace",
        "label": "contract IAddressBook",
        "numberOfBytes": "20"
      },
      "t_mapping(t_address,t_bool)": {
        "encoding": "mapping",
        "key": "t_address",
        "label": "mapping(address => bool)",
        "numberOfBytes": "32",
        "value": "t_bool"
      },
      "t_mapping(t_bytes32,t_struct(RoleData)20161_storage)": {
        "encoding": "mapping",
        "key": "t_bytes32",
        "label": "mapping(bytes32 => struct AccessControl.RoleData)",
        "numberOfBytes": "32",
        "value": "t_struct(RoleData)20161_storage"
      },
      "t_struct(RoleData)20161_storage": {
        "encoding": "inplace",
        "label": "struct AccessControl.RoleData",
        "members": [
          {
            "astId": 20158,
            "contract": "contracts/collateral/KSLPKUSDTKDAI/BKSLPKUSDTKDAIFeed.sol:BKSLPKUSDTKDAIFeed",
            "label": "members",
            "offset": 0,
            "slot": "0",
            "type": "t_mapping(t_address,t_bool)"
          },
          {
            "astId": 20160,
            "contract": "contracts/collateral/KSLPKUSDTKDAI/BKSLPKUSDTKDAIFeed.sol:BKSLPKUSDTKDAIFeed",
            "label": "adminRole",
            "offset": 0,
            "slot": "1",
            "type": "t_bytes32"
          }
        ],
        "numberOfBytes": "64"
      },
      "t_uint256": {
        "encoding": "inplace",
        "label": "uint256",
        "numberOfBytes": "32"
      }
    }
  }
}