{
  "address": "0x2c09e948b5A7438aA2CBcc30322085E2f6c106Dd",
  "abi": [
    {
      "anonymous": false,
      "inputs": [
        {
          "indexed": false,
          "internalType": "address",
          "name": "account",
          "type": "address"
        }
      ],
      "name": "Paused",
      "type": "event"
    },
    {
      "anonymous": false,
      "inputs": [
        {
          "indexed": true,
          "internalType": "bytes32",
          "name": "role",
          "type": "bytes32"
        },
        {
          "indexed": true,
          "internalType": "bytes32",
          "name": "previousAdminRole",
          "type": "bytes32"
        },
        {
          "indexed": true,
          "internalType": "bytes32",
          "name": "newAdminRole",
          "type": "bytes32"
        }
      ],
      "name": "RoleAdminChanged",
      "type": "event"
    },
    {
      "anonymous": false,
      "inputs": [
        {
          "indexed": true,
          "internalType": "bytes32",
          "name": "role",
          "type": "bytes32"
        },
        {
          "indexed": true,
          "internalType": "address",
          "name": "account",
          "type": "address"
        },
        {
          "indexed": true,
          "internalType": "address",
          "name": "sender",
          "type": "address"
        }
      ],
      "name": "RoleGranted",
      "type": "event"
    },
    {
      "anonymous": false,
      "inputs": [
        {
          "indexed": true,
          "internalType": "bytes32",
          "name": "role",
          "type": "bytes32"
        },
        {
          "indexed": true,
          "internalType": "address",
          "name": "account",
          "type": "address"
        },
        {
          "indexed": true,
          "internalType": "address",
          "name": "sender",
          "type": "address"
        }
      ],
      "name": "RoleRevoked",
      "type": "event"
    },
    {
      "anonymous": false,
      "inputs": [
        {
          "indexed": false,
          "internalType": "address",
          "name": "account",
          "type": "address"
        }
      ],
      "name": "Unpaused",
      "type": "event"
    },
    {
      "inputs": [],
      "name": "DEFAULT_ADMIN_ROLE",
      "outputs": [
        {
          "internalType": "bytes32",
          "name": "",
          "type": "bytes32"
        }
      ],
      "stateMutability": "view",
      "type": "function"
    },
    {
      "inputs": [
        {
          "internalType": "address",
          "name": "addressBook",
          "type": "address"
        }
      ],
      "name": "__BKUSDTFeed_init",
      "outputs": [],
      "stateMutability": "nonpayable",
      "type": "function"
    },
    {
      "inputs": [
        {
          "internalType": "bytes32",
          "name": "collateralType_",
          "type": "bytes32"
        },
        {
          "internalType": "address",
          "name": "addressBook_",
          "type": "address"
        }
      ],
      "name": "__BStableFeed_init",
      "outputs": [],
      "stateMutability": "nonpayable",
      "type": "function"
    },
    {
      "inputs": [],
      "name": "__Feed_init",
      "outputs": [],
      "stateMutability": "nonpayable",
      "type": "function"
    },
    {
      "inputs": [],
      "name": "addressBook",
      "outputs": [
        {
          "internalType": "contract IAddressBook",
          "name": "",
          "type": "address"
        }
      ],
      "stateMutability": "view",
      "type": "function"
    },
    {
      "inputs": [],
      "name": "clear",
      "outputs": [],
      "stateMutability": "nonpayable",
      "type": "function"
    },
    {
      "inputs": [],
      "name": "collateralType",
      "outputs": [
        {
          "internalType": "bytes32",
          "name": "",
          "type": "bytes32"
        }
      ],
      "stateMutability": "view",
      "type": "function"
    },
    {
      "inputs": [],
      "name": "getPrice",
      "outputs": [
        {
          "internalType": "uint256",
          "name": "",
          "type": "uint256"
        },
        {
          "internalType": "bool",
          "name": "",
          "type": "bool"
        }
      ],
      "stateMutability": "view",
      "type": "function"
    },
    {
      "inputs": [
        {
          "internalType": "bytes32",
          "name": "role",
          "type": "bytes32"
        }
      ],
      "name": "getRoleAdmin",
      "outputs": [
        {
          "internalType": "bytes32",
          "name": "",
          "type": "bytes32"
        }
      ],
      "stateMutability": "view",
      "type": "function"
    },
    {
      "inputs": [
        {
          "internalType": "bytes32",
          "name": "role",
          "type": "bytes32"
        },
        {
          "internalType": "address",
          "name": "account",
          "type": "address"
        }
      ],
      "name": "grantRole",
      "outputs": [],
      "stateMutability": "nonpayable",
      "type": "function"
    },
    {
      "inputs": [
        {
          "internalType": "bytes32",
          "name": "role",
          "type": "bytes32"
        },
        {
          "internalType": "address",
          "name": "account",
          "type": "address"
        }
      ],
      "name": "hasRole",
      "outputs": [
        {
          "internalType": "bool",
          "name": "",
          "type": "bool"
        }
      ],
      "stateMutability": "view",
      "type": "function"
    },
    {
      "inputs": [],
      "name": "pause",
      "outputs": [],
      "stateMutability": "nonpayable",
      "type": "function"
    },
    {
      "inputs": [],
      "name": "paused",
      "outputs": [
        {
          "internalType": "bool",
          "name": "",
          "type": "bool"
        }
      ],
      "stateMutability": "view",
      "type": "function"
    },
    {
      "inputs": [],
      "name": "price",
      "outputs": [
        {
          "internalType": "uint256",
          "name": "",
          "type": "uint256"
        }
      ],
      "stateMutability": "view",
      "type": "function"
    },
    {
      "inputs": [
        {
          "internalType": "bytes32",
          "name": "role",
          "type": "bytes32"
        },
        {
          "internalType": "address",
          "name": "account",
          "type": "address"
        }
      ],
      "name": "renounceRole",
      "outputs": [],
      "stateMutability": "nonpayable",
      "type": "function"
    },
    {
      "inputs": [
        {
          "internalType": "bytes32",
          "name": "role",
          "type": "bytes32"
        },
        {
          "internalType": "address",
          "name": "account",
          "type": "address"
        }
      ],
      "name": "revokeRole",
      "outputs": [],
      "stateMutability": "nonpayable",
      "type": "function"
    },
    {
      "inputs": [
        {
          "internalType": "uint256",
          "name": "_price",
          "type": "uint256"
        }
      ],
      "name": "set",
      "outputs": [],
      "stateMutability": "nonpayable",
      "type": "function"
    },
    {
      "inputs": [
        {
          "internalType": "address",
          "name": "newOwner",
          "type": "address"
        }
      ],
      "name": "transferOwnership",
      "outputs": [],
      "stateMutability": "nonpayable",
      "type": "function"
    },
    {
      "inputs": [],
      "name": "unpause",
      "outputs": [],
      "stateMutability": "nonpayable",
      "type": "function"
    },
    {
      "inputs": [],
      "name": "valid",
      "outputs": [
        {
          "internalType": "bool",
          "name": "",
          "type": "bool"
        }
      ],
      "stateMutability": "view",
      "type": "function"
    }
  ],
  "transactionHash": "0x7bb05126cc91c27e3214bc5ed2e3f93faafeddbd3eb8cb838330eae870777e50",
  "args": [],
  "solcInputHash": "daac9cba34dfabe5953ff704314717f0",
  "bytecode": "0x608060405234801561001057600080fd5b50610e5c806100206000396000f3fe608060405234801561001057600080fd5b506004361061012c5760003560e01c806391d14854116100ad578063d547741f11610071578063d547741f14610240578063e824600f14610253578063ed3a3ef71461025c578063f2fde38b1461026f578063f5887cdd146102825761012c565b806391d14854146101ed57806398d5fdca14610200578063a035b1fe1461021d578063a217fddf14610226578063c19912191461022e5761012c565b806352efea6e116100f457806352efea6e146101a05780635c975abb146101a857806360fe47b1146101bf57806371ad2152146101d25780638456cb59146101e55761012c565b806317dc4aa014610131578063248a9ca31461013b5780632f2ff15d1461017257806336568abe146101855780633f4ba83a14610198575b600080fd5b6101396102ad565b005b61015f610149366004610c1a565b6000908152600160208190526040909120015490565b6040519081526020015b60405180910390f35b610139610180366004610c32565b610334565b610139610193366004610c32565b610360565b6101396103de565b61013961047c565b60025460ff165b6040519015158152602001610169565b6101396101cd366004610c1a565b61049b565b6101396101e0366004610c32565b61050a565b6101396105a9565b6101af6101fb366004610c32565b610640565b61020861066b565b60408051928352901515602083015201610169565b61015f60035481565b61015f600081565b6002546101af90610100900460ff1681565b61013961024e366004610c32565b610798565b61015f60055481565b61013961026a366004610bdb565b6107bf565b61013961027d366004610bdb565b610847565b600454610295906001600160a01b031681565b6040516001600160a01b039091168152602001610169565b600054610100900460ff16806102c25750303b155b806102d0575060005460ff16155b6102f55760405162461bcd60e51b81526004016102ec90610c82565b60405180910390fd5b600054610100900460ff16158015610317576000805461ffff19166101011790555b61031f61087d565b8015610331576000805461ff00191690555b50565b600082815260016020819052604090912001546103518133610914565b61035b8383610978565b505050565b6001600160a01b03811633146103d05760405162461bcd60e51b815260206004820152602f60248201527f416363657373436f6e74726f6c3a2063616e206f6e6c792072656e6f756e636560448201526e103937b632b9903337b91039b2b63360891b60648201526084016102ec565b6103da82826109e3565b5050565b60025460ff166104275760405162461bcd60e51b815260206004820152601460248201527314185d5cd8589b194e881b9bdd081c185d5cd95960621b60448201526064016102ec565b653830bab9b2b960d11b61043b8133610914565b6002805460ff191690556040513381527f5db9ee0a495bf2e6ff9c91a7834c1ba4fdd244a5e8aa4e537bd38aeae4b073aa906020015b60405180910390a150565b61048e6437bbb732b960d91b33610914565b6002805461ff0019169055565b6104b06737b832b930ba37b960c11b33610914565b60025460ff16156104f65760405162461bcd60e51b815260206004820152601060248201526f14185d5cd8589b194e881c185d5cd95960821b60448201526064016102ec565b6003556002805461ff001916610100179055565b600054610100900460ff168061051f5750303b155b8061052d575060005460ff16155b6105495760405162461bcd60e51b81526004016102ec90610c82565b600054610100900460ff1615801561056b576000805461ffff19166101011790555b6105736102ad565b6005839055600480546001600160a01b0319166001600160a01b038416179055801561035b576000805461ff0019169055505050565b60025460ff16156105ef5760405162461bcd60e51b815260206004820152601060248201526f14185d5cd8589b194e881c185d5cd95960821b60448201526064016102ec565b653830bab9b2b960d11b6106038133610914565b6002805460ff191660011790556040513381527f62e78cea01bee320cd4e420270b5ea74000d11b0c9f74754ebdbfc544b05a25890602001610471565b60009182526001602090815260408084206001600160a01b0393909316845291905290205460ff1690565b6004805460055460405163f084b66960e01b815292830152643a37b5b2b760d91b6024830152600091829182916001600160a01b039091169063f084b6699060440160206040518083038186803b1580156106c557600080fd5b505afa1580156106d9573d6000803e3d6000fd5b505050506040513d601f19601f820116820180604052508101906106fd9190610bfe565b90506000816001600160a01b031663313ce5676040518163ffffffff1660e01b815260040160206040518083038186803b15801561073a57600080fd5b505afa15801561074e573d6000803e3d6000fd5b505050506040513d601f19601f820116820180604052508101906107729190610c61565b60ff169050610782816024610de4565b61078d90600a610d16565b946001945092505050565b600082815260016020819052604090912001546107b58133610914565b61035b83836109e3565b600054610100900460ff16806107d45750303b155b806107e2575060005460ff16155b6107fe5760405162461bcd60e51b81526004016102ec90610c82565b600054610100900460ff16158015610820576000805461ffff19166101011790555b6108326412d554d11560da1b8361050a565b80156103da576000805461ff00191690555050565b6108596437bbb732b960d91b33610914565b61086b6437bbb732b960d91b82610978565b6103316437bbb732b960d91b336109e3565b600054610100900460ff16806108925750303b155b806108a0575060005460ff16155b6108bc5760405162461bcd60e51b81526004016102ec90610c82565b600054610100900460ff161580156108de576000805461ffff19166101011790555b6108e6610a4a565b610901653830bab9b2b960d11b6437bbb732b960d91b610ab3565b61031f653830bab9b2b960d11b33610b00565b61091e8282610640565b6103da5760405162461bcd60e51b815260206004820152602560248201527f416363657373436f6e74726f6c3a5f636865636b526f6c653a696e76616c696460448201526420726f6c6560d81b60648201526084016102ec565b6109828282610640565b6103da5760008281526001602081815260408084206001600160a01b0386168086529252808420805460ff19169093179092559051339285917f2f8788117e7eff1d82e926ec794901d17c78024a50270940304540a733656f0d9190a45050565b6109ed8282610640565b156103da5760008281526001602090815260408083206001600160a01b0385168085529252808320805460ff1916905551339285917ff6391f5c32d9c69d2a47ea670b442974b53935d1edc7fd64eb21e047a839171b9190a45050565b600054610100900460ff1680610a5f5750303b155b80610a6d575060005460ff16155b610a895760405162461bcd60e51b81526004016102ec90610c82565b600054610100900460ff16158015610aab576000805461ffff19166101011790555b61031f610b0a565b6000828152600160208190526040808320909101805490849055905190918391839186917fbd79b86ffe0ab8e8776151514217cd7cacd52c909f66475c3af44e129f0b00ff9190a4505050565b6103da8282610978565b600054610100900460ff1680610b1f5750303b155b80610b2d575060005460ff16155b610b495760405162461bcd60e51b81526004016102ec90610c82565b600054610100900460ff16158015610b6b576000805461ffff19166101011790555b610b7d6437bbb732b960d91b33610b00565b610b976430b236b4b760d91b6437bbb732b960d91b610ab3565b610bb46737b832b930ba37b960c11b6437bbb732b960d91b610ab3565b610bc66430b236b4b760d91b33610b00565b61031f6737b832b930ba37b960c11b33610b00565b600060208284031215610bec578081fd5b8135610bf781610e11565b9392505050565b600060208284031215610c0f578081fd5b8151610bf781610e11565b600060208284031215610c2b578081fd5b5035919050565b60008060408385031215610c44578081fd5b823591506020830135610c5681610e11565b809150509250929050565b600060208284031215610c72578081fd5b815160ff81168114610bf7578182fd5b6020808252602e908201527f496e697469616c697a61626c653a20636f6e747261637420697320616c72656160408201526d191e481a5b9a5d1a585b1a5e995960921b606082015260800190565b80825b6001808611610ce25750610d0d565b818704821115610cf457610cf4610dfb565b80861615610d0157918102915b9490941c938002610cd3565b94509492505050565b6000610bf76000198484600082610d2f57506001610bf7565b81610d3c57506000610bf7565b8160018114610d525760028114610d5c57610d89565b6001915050610bf7565b60ff841115610d6d57610d6d610dfb565b6001841b915084821115610d8357610d83610dfb565b50610bf7565b5060208310610133831016604e8410600b8410161715610dbc575081810a83811115610db757610db7610dfb565b610bf7565b610dc98484846001610cd0565b808604821115610ddb57610ddb610dfb565b02949350505050565b600082821015610df657610df6610dfb565b500390565b634e487b7160e01b600052601160045260246000fd5b6001600160a01b038116811461033157600080fdfea2646970667358221220b9ec6948f73910c2e088b1c65347e734f2660a3fc907b0028d247732b7a209df64736f6c63430008030033",
  "devdoc": {
    "kind": "dev",
    "methods": {
      "clear()": {
        "details": "it is should be called by only governance (EOA for now)."
      },
      "getPrice()": {
        "returns": {
          "_0": "value of price, validation check"
        }
      },
      "set(uint256)": {
        "details": "it should be called by only whitelisted operator",
        "params": {
          "_price": "value of price to set"
        }
      }
    },
    "version": 1
  },
  "userdoc": {
    "kind": "user",
    "methods": {
      "clear()": {
        "notice": "make price invalid"
      },
      "getPrice()": {
        "notice": "get price"
      },
      "set(uint256)": {
        "notice": "set price"
      }
    },
    "version": 1
  },
  "storageLayout": {
    "storage": [
      {
        "astId": 23220,
        "contract": "contracts/collateral/KUSDT/BKUSDTFeed.sol:BKUSDTFeed",
        "label": "_initialized",
        "offset": 0,
        "slot": "0",
        "type": "t_bool"
      },
      {
        "astId": 23223,
        "contract": "contracts/collateral/KUSDT/BKUSDTFeed.sol:BKUSDTFeed",
        "label": "_initializing",
        "offset": 1,
        "slot": "0",
        "type": "t_bool"
      },
      {
        "astId": 20166,
        "contract": "contracts/collateral/KUSDT/BKUSDTFeed.sol:BKUSDTFeed",
        "label": "_roles",
        "offset": 0,
        "slot": "1",
        "type": "t_mapping(t_bytes32,t_struct(RoleData)20161_storage)"
      },
      {
        "astId": 20556,
        "contract": "contracts/collateral/KUSDT/BKUSDTFeed.sol:BKUSDTFeed",
        "label": "_paused",
        "offset": 0,
        "slot": "2",
        "type": "t_bool"
      },
      {
        "astId": 29379,
        "contract": "contracts/collateral/KUSDT/BKUSDTFeed.sol:BKUSDTFeed",
        "label": "valid",
        "offset": 1,
        "slot": "2",
        "type": "t_bool"
      },
      {
        "astId": 29381,
        "contract": "contracts/collateral/KUSDT/BKUSDTFeed.sol:BKUSDTFeed",
        "label": "price",
        "offset": 0,
        "slot": "3",
        "type": "t_uint256"
      },
      {
        "astId": 29302,
        "contract": "contracts/collateral/KUSDT/BKUSDTFeed.sol:BKUSDTFeed",
        "label": "addressBook",
        "offset": 0,
        "slot": "4",
        "type": "t_contract(IAddressBook)6850"
      },
      {
        "astId": 29304,
        "contract": "contracts/collateral/KUSDT/BKUSDTFeed.sol:BKUSDTFeed",
        "label": "collateralType",
        "offset": 0,
        "slot": "5",
        "type": "t_bytes32"
      }
    ],
    "types": {
      "t_address": {
        "encoding": "inplace",
        "label": "address",
        "numberOfBytes": "20"
      },
      "t_bool": {
        "encoding": "inplace",
        "label": "bool",
        "numberOfBytes": "1"
      },
      "t_bytes32": {
        "encoding": "inplace",
        "label": "bytes32",
        "numberOfBytes": "32"
      },
      "t_contract(IAddressBook)6850": {
        "encoding": "inplace",
        "label": "contract IAddressBook",
        "numberOfBytes": "20"
      },
      "t_mapping(t_address,t_bool)": {
        "encoding": "mapping",
        "key": "t_address",
        "label": "mapping(address => bool)",
        "numberOfBytes": "32",
        "value": "t_bool"
      },
      "t_mapping(t_bytes32,t_struct(RoleData)20161_storage)": {
        "encoding": "mapping",
        "key": "t_bytes32",
        "label": "mapping(bytes32 => struct AccessControl.RoleData)",
        "numberOfBytes": "32",
        "value": "t_struct(RoleData)20161_storage"
      },
      "t_struct(RoleData)20161_storage": {
        "encoding": "inplace",
        "label": "struct AccessControl.RoleData",
        "members": [
          {
            "astId": 20158,
            "contract": "contracts/collateral/KUSDT/BKUSDTFeed.sol:BKUSDTFeed",
            "label": "members",
            "offset": 0,
            "slot": "0",
            "type": "t_mapping(t_address,t_bool)"
          },
          {
            "astId": 20160,
            "contract": "contracts/collateral/KUSDT/BKUSDTFeed.sol:BKUSDTFeed",
            "label": "adminRole",
            "offset": 0,
            "slot": "1",
            "type": "t_bytes32"
          }
        ],
        "numberOfBytes": "64"
      },
      "t_uint256": {
        "encoding": "inplace",
        "label": "uint256",
        "numberOfBytes": "32"
      }
    }
  }
}