{
  "address": "0xA55Df47eEad3dF39Ef88d96076F199250f9FC3b1",
  "abi": [
    {
      "anonymous": false,
      "inputs": [
        {
          "indexed": false,
          "internalType": "address",
          "name": "account",
          "type": "address"
        }
      ],
      "name": "Paused",
      "type": "event"
    },
    {
      "anonymous": false,
      "inputs": [
        {
          "indexed": true,
          "internalType": "bytes32",
          "name": "role",
          "type": "bytes32"
        },
        {
          "indexed": true,
          "internalType": "bytes32",
          "name": "previousAdminRole",
          "type": "bytes32"
        },
        {
          "indexed": true,
          "internalType": "bytes32",
          "name": "newAdminRole",
          "type": "bytes32"
        }
      ],
      "name": "RoleAdminChanged",
      "type": "event"
    },
    {
      "anonymous": false,
      "inputs": [
        {
          "indexed": true,
          "internalType": "bytes32",
          "name": "role",
          "type": "bytes32"
        },
        {
          "indexed": true,
          "internalType": "address",
          "name": "account",
          "type": "address"
        },
        {
          "indexed": true,
          "internalType": "address",
          "name": "sender",
          "type": "address"
        }
      ],
      "name": "RoleGranted",
      "type": "event"
    },
    {
      "anonymous": false,
      "inputs": [
        {
          "indexed": true,
          "internalType": "bytes32",
          "name": "role",
          "type": "bytes32"
        },
        {
          "indexed": true,
          "internalType": "address",
          "name": "account",
          "type": "address"
        },
        {
          "indexed": true,
          "internalType": "address",
          "name": "sender",
          "type": "address"
        }
      ],
      "name": "RoleRevoked",
      "type": "event"
    },
    {
      "anonymous": false,
      "inputs": [
        {
          "indexed": false,
          "internalType": "address",
          "name": "account",
          "type": "address"
        }
      ],
      "name": "Unpaused",
      "type": "event"
    },
    {
      "inputs": [],
      "name": "DEFAULT_ADMIN_ROLE",
      "outputs": [
        {
          "internalType": "bytes32",
          "name": "",
          "type": "bytes32"
        }
      ],
      "stateMutability": "view",
      "type": "function"
    },
    {
      "inputs": [
        {
          "internalType": "address",
          "name": "addressBook",
          "type": "address"
        }
      ],
      "name": "__BKWBTCFeed_init",
      "outputs": [],
      "stateMutability": "nonpayable",
      "type": "function"
    },
    {
      "inputs": [
        {
          "internalType": "bytes32",
          "name": "collateralType_",
          "type": "bytes32"
        },
        {
          "internalType": "address",
          "name": "addressBook_",
          "type": "address"
        }
      ],
      "name": "__BSingleFeed_init",
      "outputs": [],
      "stateMutability": "nonpayable",
      "type": "function"
    },
    {
      "inputs": [],
      "name": "__Feed_init",
      "outputs": [],
      "stateMutability": "nonpayable",
      "type": "function"
    },
    {
      "inputs": [],
      "name": "addressBook",
      "outputs": [
        {
          "internalType": "contract IAddressBook",
          "name": "",
          "type": "address"
        }
      ],
      "stateMutability": "view",
      "type": "function"
    },
    {
      "inputs": [],
      "name": "clear",
      "outputs": [],
      "stateMutability": "nonpayable",
      "type": "function"
    },
    {
      "inputs": [],
      "name": "collateralType",
      "outputs": [
        {
          "internalType": "bytes32",
          "name": "",
          "type": "bytes32"
        }
      ],
      "stateMutability": "view",
      "type": "function"
    },
    {
      "inputs": [
        {
          "internalType": "bytes32",
          "name": "what",
          "type": "bytes32"
        },
        {
          "internalType": "uint256",
          "name": "data",
          "type": "uint256"
        }
      ],
      "name": "config",
      "outputs": [],
      "stateMutability": "nonpayable",
      "type": "function"
    },
    {
      "inputs": [],
      "name": "getPrice",
      "outputs": [
        {
          "internalType": "uint256",
          "name": "",
          "type": "uint256"
        },
        {
          "internalType": "bool",
          "name": "",
          "type": "bool"
        }
      ],
      "stateMutability": "view",
      "type": "function"
    },
    {
      "inputs": [
        {
          "internalType": "bytes32",
          "name": "role",
          "type": "bytes32"
        }
      ],
      "name": "getRoleAdmin",
      "outputs": [
        {
          "internalType": "bytes32",
          "name": "",
          "type": "bytes32"
        }
      ],
      "stateMutability": "view",
      "type": "function"
    },
    {
      "inputs": [
        {
          "internalType": "bytes32",
          "name": "role",
          "type": "bytes32"
        },
        {
          "internalType": "address",
          "name": "account",
          "type": "address"
        }
      ],
      "name": "grantRole",
      "outputs": [],
      "stateMutability": "nonpayable",
      "type": "function"
    },
    {
      "inputs": [
        {
          "internalType": "bytes32",
          "name": "role",
          "type": "bytes32"
        },
        {
          "internalType": "address",
          "name": "account",
          "type": "address"
        }
      ],
      "name": "hasRole",
      "outputs": [
        {
          "internalType": "bool",
          "name": "",
          "type": "bool"
        }
      ],
      "stateMutability": "view",
      "type": "function"
    },
    {
      "inputs": [
        {
          "internalType": "uint256",
          "name": "",
          "type": "uint256"
        }
      ],
      "name": "inclusivePathToKlay",
      "outputs": [
        {
          "internalType": "address",
          "name": "",
          "type": "address"
        }
      ],
      "stateMutability": "view",
      "type": "function"
    },
    {
      "inputs": [],
      "name": "lastUpdatedAt",
      "outputs": [
        {
          "internalType": "uint256",
          "name": "",
          "type": "uint256"
        }
      ],
      "stateMutability": "view",
      "type": "function"
    },
    {
      "inputs": [],
      "name": "pause",
      "outputs": [],
      "stateMutability": "nonpayable",
      "type": "function"
    },
    {
      "inputs": [],
      "name": "paused",
      "outputs": [
        {
          "internalType": "bool",
          "name": "",
          "type": "bool"
        }
      ],
      "stateMutability": "view",
      "type": "function"
    },
    {
      "inputs": [],
      "name": "price",
      "outputs": [
        {
          "internalType": "uint256",
          "name": "",
          "type": "uint256"
        }
      ],
      "stateMutability": "view",
      "type": "function"
    },
    {
      "inputs": [
        {
          "internalType": "bytes32",
          "name": "role",
          "type": "bytes32"
        },
        {
          "internalType": "address",
          "name": "account",
          "type": "address"
        }
      ],
      "name": "renounceRole",
      "outputs": [],
      "stateMutability": "nonpayable",
      "type": "function"
    },
    {
      "inputs": [
        {
          "internalType": "bytes32",
          "name": "role",
          "type": "bytes32"
        },
        {
          "internalType": "address",
          "name": "account",
          "type": "address"
        }
      ],
      "name": "revokeRole",
      "outputs": [],
      "stateMutability": "nonpayable",
      "type": "function"
    },
    {
      "inputs": [
        {
          "internalType": "uint256",
          "name": "_price",
          "type": "uint256"
        }
      ],
      "name": "set",
      "outputs": [],
      "stateMutability": "nonpayable",
      "type": "function"
    },
    {
      "inputs": [],
      "name": "set",
      "outputs": [],
      "stateMutability": "nonpayable",
      "type": "function"
    },
    {
      "inputs": [
        {
          "internalType": "address[]",
          "name": "pathToKlay_",
          "type": "address[]"
        }
      ],
      "name": "setPathToKlay",
      "outputs": [],
      "stateMutability": "nonpayable",
      "type": "function"
    },
    {
      "inputs": [
        {
          "internalType": "address",
          "name": "newOwner",
          "type": "address"
        }
      ],
      "name": "transferOwnership",
      "outputs": [],
      "stateMutability": "nonpayable",
      "type": "function"
    },
    {
      "inputs": [],
      "name": "unpause",
      "outputs": [],
      "stateMutability": "nonpayable",
      "type": "function"
    },
    {
      "inputs": [],
      "name": "valid",
      "outputs": [
        {
          "internalType": "bool",
          "name": "",
          "type": "bool"
        }
      ],
      "stateMutability": "view",
      "type": "function"
    },
    {
      "inputs": [],
      "name": "windowSize",
      "outputs": [
        {
          "internalType": "uint256",
          "name": "",
          "type": "uint256"
        }
      ],
      "stateMutability": "view",
      "type": "function"
    }
  ],
  "transactionHash": "0x0005581d7297fb8c58a7496a908c0deb31ff184b1b0a54fd6e35adadaf9a5b1a",
  "args": [],
  "solcInputHash": "4c822d919c2abd17ac149cb967afb95e",
  "bytecode": "0x608060405234801561001057600080fd5b506116d8806100206000396000f3fe608060405234801561001057600080fd5b506004361061018e5760003560e01c80638a14117a116100de578063c199121911610097578063e824600f11610071578063e824600f14610315578063f146de011461031e578063f2fde38b14610331578063f5887cdd146103445761018e565b8063c1991219146102dd578063d547741f146102ef578063e0bed041146103025761018e565b80638a14117a1461028557806391d148541461028e57806398d5fdca146102a1578063a035b1fe146102c4578063a217fddf146102cd578063b8e010de146102d55761018e565b80633f4ba83a1161014b57806355ede3121161012557806355ede312146102405780635c975abb1461025357806360fe47b11461026a5780638456cb591461027d5761018e565b80633f4ba83a1461022757806352efea6e1461022f57806354aea127146102375761018e565b806317dc4aa014610193578063248a9ca31461019d578063259bbe12146101c35780632f2ff15d146101d657806336568abe146101e95780633af3a0c2146101fc575b600080fd5b61019b610357565b005b6101b06101ab3660046114d7565b6103de565b6040519081526020015b60405180910390f35b61019b6101d13660046113d1565b6103f7565b61019b6101e43660046114ef565b610480565b61019b6101f73660046114ef565b6104a2565b61020f61020a3660046114d7565b61051c565b6040516001600160a01b0390911681526020016101ba565b61019b610546565b61019b6105e4565b6101b060065481565b61019b61024e366004611410565b610603565b60025460ff165b60405190151581526020016101ba565b61019b6102783660046114d7565b6107bc565b61019b610804565b6101b060075481565b61025a61029c3660046114ef565b61089b565b600354600254610100900460ff16604080519283529015156020830152016101ba565b6101b060035481565b6101b0600081565b61019b6108c6565b60025461025a90610100900460ff1681565b61019b6102fd3660046114ef565b610eb4565b61019b61031036600461151e565b610ed1565b6101b060055481565b61019b61032c3660046114ef565b610f59565b61019b61033f3660046113d1565b610ff8565b60045461020f906001600160a01b031681565b600054610100900460ff168061036c5750303b155b8061037a575060005460ff16155b61039f5760405162461bcd60e51b81526004016103969061158a565b60405180910390fd5b600054610100900460ff161580156103c1576000805461ffff19166101011790555b6103c961102e565b80156103db576000805461ff00191690555b50565b600081815260016020819052604090912001545b919050565b600054610100900460ff168061040c5750303b155b8061041a575060005460ff16155b6104365760405162461bcd60e51b81526004016103969061158a565b600054610100900460ff16158015610458576000805461ffff19166101011790555b61046a644b5742544360d81b83610f59565b801561047c576000805461ff00191690555b5050565b610489826103de565b61049381336110c5565b61049d8383611129565b505050565b6001600160a01b03811633146105125760405162461bcd60e51b815260206004820152602f60248201527f416363657373436f6e74726f6c3a2063616e206f6e6c792072656e6f756e636560448201526e103937b632b9903337b91039b2b63360891b6064820152608401610396565b61047c8282611194565b6008818154811061052c57600080fd5b6000918252602090912001546001600160a01b0316905081565b60025460ff1661058f5760405162461bcd60e51b815260206004820152601460248201527314185d5cd8589b194e881b9bdd081c185d5cd95960621b6044820152606401610396565b653830bab9b2b960d11b6105a381336110c5565b6002805460ff191690556040513381527f5db9ee0a495bf2e6ff9c91a7834c1ba4fdd244a5e8aa4e537bd38aeae4b073aa906020015b60405180910390a150565b6105f66437bbb732b960d91b336110c5565b6002805461ff0019169055565b6106156430b236b4b760d91b336110c5565b61062160086000611394565b6004805460055460405163f084b66960e01b815292830152643a37b5b2b760d91b60248301526000916001600160a01b039091169063f084b6699060440160206040518083038186803b15801561067757600080fd5b505afa15801561068b573d6000803e3d6000fd5b505050506040513d601f19601f820116820180604052508101906106af91906113f4565b6008805460018101825560009182527ff3f7a9fe364faab93b216da50a3214154f22a0a2b415b23a84c8169e8b636ee30180546001600160a01b0319166001600160a01b03841617905583519192505b8181101561077657600884828151811061072957634e487b7160e01b600052603260045260246000fd5b60209081029190910181015182546001810184556000938452919092200180546001600160a01b0319166001600160a01b039092169190911790558061076e81611646565b9150506106ff565b5050600880546001810182556000919091527ff3f7a9fe364faab93b216da50a3214154f22a0a2b415b23a84c8169e8b636ee30180546001600160a01b03191690555050565b60405162461bcd60e51b815260206004820152601a60248201527f4253696e676c65466565643a3a7365743a2064697361626c65640000000000006044820152606401610396565b60025460ff161561084a5760405162461bcd60e51b815260206004820152601060248201526f14185d5cd8589b194e881c185d5cd95960821b6044820152606401610396565b653830bab9b2b960d11b61085e81336110c5565b6002805460ff191660011790556040513381527f62e78cea01bee320cd4e420270b5ea74000d11b0c9f74754ebdbfc544b05a258906020016105d9565b60009182526001602090815260408084206001600160a01b0393909316845291905290205460ff1690565b60025460ff161561090c5760405162461bcd60e51b815260206004820152601060248201526f14185d5cd8589b194e881c185d5cd95960821b6044820152606401610396565b6004805460405163f084b66960e01b8152636b6c617960e01b9281019290925267189bdb991199595960c21b60248301526000916001600160a01b039091169063f084b6699060440160206040518083038186803b15801561096d57600080fd5b505afa158015610981573d6000803e3d6000fd5b505050506040513d601f19601f820116820180604052508101906109a591906113f4565b90506000816001600160a01b03166398d5fdca6040518163ffffffff1660e01b8152600401604080518083038186803b1580156109e157600080fd5b505afa1580156109f5573d6000803e3d6000fd5b505050506040513d601f19601f82011682018060405250810190610a19919061153f565b5090506000600460009054906101000a90046001600160a01b03166001600160a01b0316639082d0ed6040518163ffffffff1660e01b815260040160206040518083038186803b158015610a6c57600080fd5b505afa158015610a80573d6000803e3d6000fd5b505050506040513d601f19601f82011682018060405250810190610aa491906113f4565b6004805460055460405163f084b66960e01b815292830152643a37b5b2b760d91b60248301529192506000916001600160a01b03169063f084b6699060440160206040518083038186803b158015610afb57600080fd5b505afa158015610b0f573d6000803e3d6000fd5b505050506040513d601f19601f82011682018060405250810190610b3391906113f4565b600854909150839060015b81811015610e19576000856001600160a01b031663fd435cb960088481548110610b7857634e487b7160e01b600052603260045260246000fd5b6000918252602090912001546001600160a01b03166008610b9a60018761162f565b81548110610bb857634e487b7160e01b600052603260045260246000fd5b60009182526020909120015460405160e084901b6001600160e01b03191681526001600160a01b0392831660048201529116602482015260440160206040518083038186803b158015610c0a57600080fd5b505afa158015610c1e573d6000803e3d6000fd5b505050506040513d601f19601f82011682018060405250810190610c4291906113f4565b9050600080826001600160a01b0316630fc63d106040518163ffffffff1660e01b815260040160206040518083038186803b158015610c8057600080fd5b505afa158015610c94573d6000803e3d6000fd5b505050506040513d601f19601f82011682018060405250810190610cb891906113f4565b6001600160a01b031660088581548110610ce257634e487b7160e01b600052603260045260246000fd5b6000918252602090912001546001600160a01b03161415610d7757826001600160a01b0316631a595f656040518163ffffffff1660e01b8152600401604080518083038186803b158015610d3557600080fd5b505afa158015610d49573d6000803e3d6000fd5b505050506040513d601f19601f82011682018060405250810190610d6d9190611567565b9092509050610dec565b826001600160a01b0316631a595f656040518163ffffffff1660e01b8152600401604080518083038186803b158015610daf57600080fd5b505afa158015610dc3573d6000803e3d6000fd5b505050506040513d601f19601f82011682018060405250810190610de79190611567565b925090505b80610df78784611610565b610e0191906115f0565b95505050508080610e1190611646565b915050610b3e565b50600060065442610e2a919061162f565b426006556007549091508110610e535760038390556002805461ff001916610100179055610eab565b600754610e608285611610565b610e6a91906115f0565b600754610e77838261162f565b600354610e849190611610565b610e8e91906115f0565b610e9891906115d8565b6003556002805461ff0019166101001790555b50505050505050565b610ebd826103de565b610ec781336110c5565b61049d8383611194565b610ee36430b236b4b760d91b336110c5565b816977696e646f7753697a6560b01b1415610f0257600781905561047c565b60405162461bcd60e51b815260206004820152602660248201527f4253696e676c65466565643a3a636f6e6669673a756e7265636f676e697a65646044820152652d706172616d60d01b6064820152608401610396565b600054610100900460ff1680610f6e5750303b155b80610f7c575060005460ff16155b610f985760405162461bcd60e51b81526004016103969061158a565b600054610100900460ff16158015610fba576000805461ffff19166101011790555b610fc2610357565b6005839055600480546001600160a01b0319166001600160a01b038416179055801561049d576000805461ff0019169055505050565b61100a6437bbb732b960d91b336110c5565b61101c6437bbb732b960d91b82611129565b6103db6437bbb732b960d91b33611194565b600054610100900460ff16806110435750303b155b80611051575060005460ff16155b61106d5760405162461bcd60e51b81526004016103969061158a565b600054610100900460ff1615801561108f576000805461ffff19166101011790555b6110976111fb565b6110b2653830bab9b2b960d11b6437bbb732b960d91b611264565b6103c9653830bab9b2b960d11b336112b9565b6110cf828261089b565b61047c5760405162461bcd60e51b815260206004820152602560248201527f416363657373436f6e74726f6c3a5f636865636b526f6c653a696e76616c696460448201526420726f6c6560d81b6064820152608401610396565b611133828261089b565b61047c5760008281526001602081815260408084206001600160a01b0386168086529252808420805460ff19169093179092559051339285917f2f8788117e7eff1d82e926ec794901d17c78024a50270940304540a733656f0d9190a45050565b61119e828261089b565b1561047c5760008281526001602090815260408083206001600160a01b0385168085529252808320805460ff1916905551339285917ff6391f5c32d9c69d2a47ea670b442974b53935d1edc7fd64eb21e047a839171b9190a45050565b600054610100900460ff16806112105750303b155b8061121e575060005460ff16155b61123a5760405162461bcd60e51b81526004016103969061158a565b600054610100900460ff1615801561125c576000805461ffff19166101011790555b6103c96112c3565b600061126f836103de565b6000848152600160208190526040808320909101859055519192508391839186917fbd79b86ffe0ab8e8776151514217cd7cacd52c909f66475c3af44e129f0b00ff9190a4505050565b61047c8282611129565b600054610100900460ff16806112d85750303b155b806112e6575060005460ff16155b6113025760405162461bcd60e51b81526004016103969061158a565b600054610100900460ff16158015611324576000805461ffff19166101011790555b6113366437bbb732b960d91b336112b9565b6113506430b236b4b760d91b6437bbb732b960d91b611264565b61136d6737b832b930ba37b960c11b6437bbb732b960d91b611264565b61137f6430b236b4b760d91b336112b9565b6103c96737b832b930ba37b960c11b336112b9565b50805460008255906000526020600020908101906103db91905b808211156113c257600081556001016113ae565b5090565b80356103f28161168d565b6000602082840312156113e2578081fd5b81356113ed8161168d565b9392505050565b600060208284031215611405578081fd5b81516113ed8161168d565b60006020808385031215611422578182fd5b823567ffffffffffffffff80821115611439578384fd5b818501915085601f83011261144c578384fd5b81358181111561145e5761145e611677565b8060051b604051601f19603f8301168101818110858211171561148357611483611677565b604052828152858101935084860182860187018a10156114a1578788fd5b8795505b838610156114ca576114b6816113c6565b8552600195909501949386019386016114a5565b5098975050505050505050565b6000602082840312156114e8578081fd5b5035919050565b60008060408385031215611501578081fd5b8235915060208301356115138161168d565b809150509250929050565b60008060408385031215611530578182fd5b50508035926020909101359150565b60008060408385031215611551578182fd5b8251915060208301518015158114611513578182fd5b60008060408385031215611579578182fd5b505080516020909101519092909150565b6020808252602e908201527f496e697469616c697a61626c653a20636f6e747261637420697320616c72656160408201526d191e481a5b9a5d1a585b1a5e995960921b606082015260800190565b600082198211156115eb576115eb611661565b500190565b60008261160b57634e487b7160e01b81526012600452602481fd5b500490565b600081600019048311821515161561162a5761162a611661565b500290565b60008282101561164157611641611661565b500390565b600060001982141561165a5761165a611661565b5060010190565b634e487b7160e01b600052601160045260246000fd5b634e487b7160e01b600052604160045260246000fd5b6001600160a01b03811681146103db57600080fdfea26469706673582212204d07233e7a6fbd5da9c4081259f709ea014dd1c6293ab93f9a64ecf443e03b4f64736f6c63430008030033",
  "devdoc": {
    "kind": "dev",
    "methods": {
      "clear()": {
        "details": "it is should be called by only governance (EOA for now)."
      },
      "getPrice()": {
        "returns": {
          "_0": "value of price, validation check"
        }
      },
      "set(uint256)": {
        "details": "it should be called by only whitelisted operator",
        "params": {
          "_price": "value of price to set"
        }
      }
    },
    "version": 1
  },
  "userdoc": {
    "kind": "user",
    "methods": {
      "clear()": {
        "notice": "make price invalid"
      },
      "getPrice()": {
        "notice": "get price"
      },
      "set(uint256)": {
        "notice": "set price"
      }
    },
    "version": 1
  },
  "storageLayout": {
    "storage": [
      {
        "astId": 23255,
        "contract": "contracts/collateral/KWBTC/BKWBTCFeed.sol:BKWBTCFeed",
        "label": "_initialized",
        "offset": 0,
        "slot": "0",
        "type": "t_bool"
      },
      {
        "astId": 23258,
        "contract": "contracts/collateral/KWBTC/BKWBTCFeed.sol:BKWBTCFeed",
        "label": "_initializing",
        "offset": 1,
        "slot": "0",
        "type": "t_bool"
      },
      {
        "astId": 20201,
        "contract": "contracts/collateral/KWBTC/BKWBTCFeed.sol:BKWBTCFeed",
        "label": "_roles",
        "offset": 0,
        "slot": "1",
        "type": "t_mapping(t_bytes32,t_struct(RoleData)20196_storage)"
      },
      {
        "astId": 20591,
        "contract": "contracts/collateral/KWBTC/BKWBTCFeed.sol:BKWBTCFeed",
        "label": "_paused",
        "offset": 0,
        "slot": "2",
        "type": "t_bool"
      },
      {
        "astId": 29415,
        "contract": "contracts/collateral/KWBTC/BKWBTCFeed.sol:BKWBTCFeed",
        "label": "valid",
        "offset": 1,
        "slot": "2",
        "type": "t_bool"
      },
      {
        "astId": 29417,
        "contract": "contracts/collateral/KWBTC/BKWBTCFeed.sol:BKWBTCFeed",
        "label": "price",
        "offset": 0,
        "slot": "3",
        "type": "t_uint256"
      },
      {
        "astId": 29137,
        "contract": "contracts/collateral/KWBTC/BKWBTCFeed.sol:BKWBTCFeed",
        "label": "addressBook",
        "offset": 0,
        "slot": "4",
        "type": "t_contract(IAddressBook)6869"
      },
      {
        "astId": 29139,
        "contract": "contracts/collateral/KWBTC/BKWBTCFeed.sol:BKWBTCFeed",
        "label": "collateralType",
        "offset": 0,
        "slot": "5",
        "type": "t_bytes32"
      },
      {
        "astId": 29141,
        "contract": "contracts/collateral/KWBTC/BKWBTCFeed.sol:BKWBTCFeed",
        "label": "lastUpdatedAt",
        "offset": 0,
        "slot": "6",
        "type": "t_uint256"
      },
      {
        "astId": 29143,
        "contract": "contracts/collateral/KWBTC/BKWBTCFeed.sol:BKWBTCFeed",
        "label": "windowSize",
        "offset": 0,
        "slot": "7",
        "type": "t_uint256"
      },
      {
        "astId": 2501,
        "contract": "contracts/collateral/KWBTC/BKWBTCFeed.sol:BKWBTCFeed",
        "label": "inclusivePathToKlay",
        "offset": 0,
        "slot": "8",
        "type": "t_array(t_address)dyn_storage"
      }
    ],
    "types": {
      "t_address": {
        "encoding": "inplace",
        "label": "address",
        "numberOfBytes": "20"
      },
      "t_array(t_address)dyn_storage": {
        "base": "t_address",
        "encoding": "dynamic_array",
        "label": "address[]",
        "numberOfBytes": "32"
      },
      "t_bool": {
        "encoding": "inplace",
        "label": "bool",
        "numberOfBytes": "1"
      },
      "t_bytes32": {
        "encoding": "inplace",
        "label": "bytes32",
        "numberOfBytes": "32"
      },
      "t_contract(IAddressBook)6869": {
        "encoding": "inplace",
        "label": "contract IAddressBook",
        "numberOfBytes": "20"
      },
      "t_mapping(t_address,t_bool)": {
        "encoding": "mapping",
        "key": "t_address",
        "label": "mapping(address => bool)",
        "numberOfBytes": "32",
        "value": "t_bool"
      },
      "t_mapping(t_bytes32,t_struct(RoleData)20196_storage)": {
        "encoding": "mapping",
        "key": "t_bytes32",
        "label": "mapping(bytes32 => struct AccessControl.RoleData)",
        "numberOfBytes": "32",
        "value": "t_struct(RoleData)20196_storage"
      },
      "t_struct(RoleData)20196_storage": {
        "encoding": "inplace",
        "label": "struct AccessControl.RoleData",
        "members": [
          {
            "astId": 20193,
            "contract": "contracts/collateral/KWBTC/BKWBTCFeed.sol:BKWBTCFeed",
            "label": "members",
            "offset": 0,
            "slot": "0",
            "type": "t_mapping(t_address,t_bool)"
          },
          {
            "astId": 20195,
            "contract": "contracts/collateral/KWBTC/BKWBTCFeed.sol:BKWBTCFeed",
            "label": "adminRole",
            "offset": 0,
            "slot": "1",
            "type": "t_bytes32"
          }
        ],
        "numberOfBytes": "64"
      },
      "t_uint256": {
        "encoding": "inplace",
        "label": "uint256",
        "numberOfBytes": "32"
      }
    }
  }
}