{
  "address": "0xa730d509940e0a26c1e2180155812811Bb078c5d",
  "abi": [
    {
      "anonymous": false,
      "inputs": [
        {
          "indexed": true,
          "internalType": "bytes32",
          "name": "what",
          "type": "bytes32"
        },
        {
          "indexed": false,
          "internalType": "uint256",
          "name": "data",
          "type": "uint256"
        }
      ],
      "name": "Config",
      "type": "event"
    },
    {
      "anonymous": false,
      "inputs": [
        {
          "indexed": false,
          "internalType": "address",
          "name": "account",
          "type": "address"
        }
      ],
      "name": "Paused",
      "type": "event"
    },
    {
      "anonymous": false,
      "inputs": [
        {
          "indexed": true,
          "internalType": "bytes32",
          "name": "role",
          "type": "bytes32"
        },
        {
          "indexed": true,
          "internalType": "bytes32",
          "name": "previousAdminRole",
          "type": "bytes32"
        },
        {
          "indexed": true,
          "internalType": "bytes32",
          "name": "newAdminRole",
          "type": "bytes32"
        }
      ],
      "name": "RoleAdminChanged",
      "type": "event"
    },
    {
      "anonymous": false,
      "inputs": [
        {
          "indexed": true,
          "internalType": "bytes32",
          "name": "role",
          "type": "bytes32"
        },
        {
          "indexed": true,
          "internalType": "address",
          "name": "account",
          "type": "address"
        },
        {
          "indexed": true,
          "internalType": "address",
          "name": "sender",
          "type": "address"
        }
      ],
      "name": "RoleGranted",
      "type": "event"
    },
    {
      "anonymous": false,
      "inputs": [
        {
          "indexed": true,
          "internalType": "bytes32",
          "name": "role",
          "type": "bytes32"
        },
        {
          "indexed": true,
          "internalType": "address",
          "name": "account",
          "type": "address"
        },
        {
          "indexed": true,
          "internalType": "address",
          "name": "sender",
          "type": "address"
        }
      ],
      "name": "RoleRevoked",
      "type": "event"
    },
    {
      "anonymous": false,
      "inputs": [
        {
          "indexed": false,
          "internalType": "address",
          "name": "account",
          "type": "address"
        }
      ],
      "name": "Unpaused",
      "type": "event"
    },
    {
      "inputs": [],
      "name": "DEFAULT_ADMIN_ROLE",
      "outputs": [
        {
          "internalType": "bytes32",
          "name": "",
          "type": "bytes32"
        }
      ],
      "stateMutability": "view",
      "type": "function"
    },
    {
      "inputs": [],
      "name": "__BKXRPSchedule_init",
      "outputs": [],
      "stateMutability": "nonpayable",
      "type": "function"
    },
    {
      "inputs": [],
      "name": "__LinearDecreaseSchedule_init",
      "outputs": [],
      "stateMutability": "nonpayable",
      "type": "function"
    },
    {
      "inputs": [
        {
          "internalType": "bytes32",
          "name": "what",
          "type": "bytes32"
        },
        {
          "internalType": "uint256",
          "name": "data",
          "type": "uint256"
        }
      ],
      "name": "config",
      "outputs": [],
      "stateMutability": "nonpayable",
      "type": "function"
    },
    {
      "inputs": [
        {
          "internalType": "bytes32",
          "name": "role",
          "type": "bytes32"
        }
      ],
      "name": "getRoleAdmin",
      "outputs": [
        {
          "internalType": "bytes32",
          "name": "",
          "type": "bytes32"
        }
      ],
      "stateMutability": "view",
      "type": "function"
    },
    {
      "inputs": [
        {
          "internalType": "bytes32",
          "name": "role",
          "type": "bytes32"
        },
        {
          "internalType": "address",
          "name": "account",
          "type": "address"
        }
      ],
      "name": "grantRole",
      "outputs": [],
      "stateMutability": "nonpayable",
      "type": "function"
    },
    {
      "inputs": [
        {
          "internalType": "bytes32",
          "name": "role",
          "type": "bytes32"
        },
        {
          "internalType": "address",
          "name": "account",
          "type": "address"
        }
      ],
      "name": "hasRole",
      "outputs": [
        {
          "internalType": "bool",
          "name": "",
          "type": "bool"
        }
      ],
      "stateMutability": "view",
      "type": "function"
    },
    {
      "inputs": [],
      "name": "pause",
      "outputs": [],
      "stateMutability": "nonpayable",
      "type": "function"
    },
    {
      "inputs": [],
      "name": "paused",
      "outputs": [
        {
          "internalType": "bool",
          "name": "",
          "type": "bool"
        }
      ],
      "stateMutability": "view",
      "type": "function"
    },
    {
      "inputs": [
        {
          "internalType": "uint256",
          "name": "top",
          "type": "uint256"
        },
        {
          "internalType": "uint256",
          "name": "dur",
          "type": "uint256"
        }
      ],
      "name": "price",
      "outputs": [
        {
          "internalType": "uint256",
          "name": "",
          "type": "uint256"
        }
      ],
      "stateMutability": "view",
      "type": "function"
    },
    {
      "inputs": [
        {
          "internalType": "bytes32",
          "name": "role",
          "type": "bytes32"
        },
        {
          "internalType": "address",
          "name": "account",
          "type": "address"
        }
      ],
      "name": "renounceRole",
      "outputs": [],
      "stateMutability": "nonpayable",
      "type": "function"
    },
    {
      "inputs": [
        {
          "internalType": "bytes32",
          "name": "role",
          "type": "bytes32"
        },
        {
          "internalType": "address",
          "name": "account",
          "type": "address"
        }
      ],
      "name": "revokeRole",
      "outputs": [],
      "stateMutability": "nonpayable",
      "type": "function"
    },
    {
      "inputs": [],
      "name": "tau",
      "outputs": [
        {
          "internalType": "uint256",
          "name": "",
          "type": "uint256"
        }
      ],
      "stateMutability": "view",
      "type": "function"
    },
    {
      "inputs": [
        {
          "internalType": "address",
          "name": "newOwner",
          "type": "address"
        }
      ],
      "name": "transferOwnership",
      "outputs": [],
      "stateMutability": "nonpayable",
      "type": "function"
    },
    {
      "inputs": [],
      "name": "unpause",
      "outputs": [],
      "stateMutability": "nonpayable",
      "type": "function"
    }
  ],
  "transactionHash": "0x8f1d6d87d1b3adc08a8b4de9b521ecaccc239b956bbbc674214719629cdf5757",
  "args": [],
  "solcInputHash": "daac9cba34dfabe5953ff704314717f0",
  "bytecode": "0x608060405234801561001057600080fd5b50610c1d806100206000396000f3fe608060405234801561001057600080fd5b50600436106100f55760003560e01c80635c975abb11610097578063cfc4af5511610066578063cfc4af55146101ad578063d547741f146101b6578063e0bed041146101c9578063f2fde38b146101dc576100f5565b80635c975abb146101735780638456cb591461018a57806391d1485414610192578063a217fddf146101a5576100f5565b806336568abe116100d357806336568abe1461013d5780633f4ba83a14610150578063487a2395146101585780634b2f8a4f1461016b576100f5565b806321f5fdaf146100fa578063248a9ca3146101045780632f2ff15d1461012a575b600080fd5b6101026101ef565b005b610117610112366004610ac9565b610276565b6040519081526020015b60405180910390f35b610102610138366004610ae1565b61028f565b61010261014b366004610ae1565b6102b1565b61010261032f565b610117610166366004610b0c565b6103cd565b610102610422565b60025460ff165b6040519015158152602001610121565b61010261048b565b61017a6101a0366004610ae1565b610522565b610117600081565b61011760035481565b6101026101c4366004610ae1565b61054d565b6101026101d7366004610b0c565b61056a565b6101026101ea366004610aaf565b610677565b600054610100900460ff16806102045750303b155b80610212575060005460ff16155b6102375760405162461bcd60e51b815260040161022e90610b2d565b60405180910390fd5b600054610100900460ff16158015610259576000805461ffff19166101011790555b6102616106ad565b8015610273576000805461ff00191690555b50565b600081815260016020819052604090912001545b919050565b61029882610276565b6102a28133610744565b6102ac83836107a8565b505050565b6001600160a01b03811633146103215760405162461bcd60e51b815260206004820152602f60248201527f416363657373436f6e74726f6c3a2063616e206f6e6c792072656e6f756e636560448201526e103937b632b9903337b91039b2b63360891b606482015260840161022e565b61032b8282610813565b5050565b60025460ff166103785760405162461bcd60e51b815260206004820152601460248201527314185d5cd8589b194e881b9bdd081c185d5cd95960621b604482015260640161022e565b653830bab9b2b960d11b61038c8133610744565b6002805460ff191690556040513381527f5db9ee0a495bf2e6ff9c91a7834c1ba4fdd244a5e8aa4e537bd38aeae4b073aa906020015b60405180910390a150565b600060035482106103e05750600061041c565b600354610419906b033b2e3c9fd0803ce80000006103fe8583610bba565b6104089190610b9b565b6104129190610b7b565b849061087a565b90505b92915050565b600054610100900460ff16806104375750303b155b80610445575060005460ff16155b6104615760405162461bcd60e51b815260040161022e90610b2d565b600054610100900460ff16158015610483576000805461ffff19166101011790555b6102616101ef565b60025460ff16156104d15760405162461bcd60e51b815260206004820152601060248201526f14185d5cd8589b194e881c185d5cd95960821b604482015260640161022e565b653830bab9b2b960d11b6104e58133610744565b6002805460ff191660011790556040513381527f62e78cea01bee320cd4e420270b5ea74000d11b0c9f74754ebdbfc544b05a258906020016103c2565b60009182526001602090815260408084206001600160a01b0393909316845291905290205460ff1690565b61055682610276565b6105608133610744565b6102ac8383610813565b61057c6430b236b4b760d91b33610744565b60025460ff16156105c25760405162461bcd60e51b815260206004820152601060248201526f14185d5cd8589b194e881c185d5cd95960821b604482015260640161022e565b816274617560e81b14156105da576003819055610639565b60405162461bcd60e51b815260206004820152602e60248201527f4c696e65617244656372656173653a636f6e6669673a3a646174612d756e726560448201526d636f676e697a65642d706172616d60901b606482015260840161022e565b817f15f23b9b90ae47d0682e013c5e063c9071659d3d2a5d7f6dcd77aa4b665dd25e8260405161066b91815260200190565b60405180910390a25050565b6106896437bbb732b960d91b33610744565b61069b6437bbb732b960d91b826107a8565b6102736437bbb732b960d91b33610813565b600054610100900460ff16806106c25750303b155b806106d0575060005460ff16155b6106ec5760405162461bcd60e51b815260040161022e90610b2d565b600054610100900460ff1615801561070e576000805461ffff19166101011790555b6107166108ff565b610731653830bab9b2b960d11b6437bbb732b960d91b610968565b610261653830bab9b2b960d11b336109bd565b61074e8282610522565b61032b5760405162461bcd60e51b815260206004820152602560248201527f416363657373436f6e74726f6c3a5f636865636b526f6c653a696e76616c696460448201526420726f6c6560d81b606482015260840161022e565b6107b28282610522565b61032b5760008281526001602081815260408084206001600160a01b0386168086529252808420805460ff19169093179092559051339285917f2f8788117e7eff1d82e926ec794901d17c78024a50270940304540a733656f0d9190a45050565b61081d8282610522565b1561032b5760008281526001602090815260408083206001600160a01b0385168085529252808320805460ff1916905551339285917ff6391f5c32d9c69d2a47ea670b442974b53935d1edc7fd64eb21e047a839171b9190a45050565b60006108868284610b9b565b905081158061089d57508261089b8383610b7b565b145b6108e95760405162461bcd60e51b815260206004820152601b60248201527f5761645261794d6174683a3a20726d756c3a206f766572666c6f770000000000604482015260640161022e565b6104196b033b2e3c9fd0803ce800000082610b7b565b600054610100900460ff16806109145750303b155b80610922575060005460ff16155b61093e5760405162461bcd60e51b815260040161022e90610b2d565b600054610100900460ff16158015610960576000805461ffff19166101011790555b6102616109c7565b600061097383610276565b6000848152600160208190526040808320909101859055519192508391839186917fbd79b86ffe0ab8e8776151514217cd7cacd52c909f66475c3af44e129f0b00ff9190a4505050565b61032b82826107a8565b600054610100900460ff16806109dc5750303b155b806109ea575060005460ff16155b610a065760405162461bcd60e51b815260040161022e90610b2d565b600054610100900460ff16158015610a28576000805461ffff19166101011790555b610a3a6437bbb732b960d91b336109bd565b610a546430b236b4b760d91b6437bbb732b960d91b610968565b610a716737b832b930ba37b960c11b6437bbb732b960d91b610968565b610a836430b236b4b760d91b336109bd565b6102616737b832b930ba37b960c11b336109bd565b80356001600160a01b038116811461028a57600080fd5b600060208284031215610ac0578081fd5b61041982610a98565b600060208284031215610ada578081fd5b5035919050565b60008060408385031215610af3578081fd5b82359150610b0360208401610a98565b90509250929050565b60008060408385031215610b1e578182fd5b50508035926020909101359150565b6020808252602e908201527f496e697469616c697a61626c653a20636f6e747261637420697320616c72656160408201526d191e481a5b9a5d1a585b1a5e995960921b606082015260800190565b600082610b9657634e487b7160e01b81526012600452602481fd5b500490565b6000816000190483118215151615610bb557610bb5610bd1565b500290565b600082821015610bcc57610bcc610bd1565b500390565b634e487b7160e01b600052601160045260246000fdfea2646970667358221220f50b372ce6b9f28831ecb073f30edc89fe9647bd6728e5476270cc31b67d317964736f6c63430008030033",
  "devdoc": {
    "kind": "dev",
    "methods": {
      "price(uint256,uint256)": {
        "params": {
          "dur": "current seconds since the start of the auction",
          "top": "Initial price"
        }
      }
    },
    "version": 1
  },
  "userdoc": {
    "kind": "user",
    "methods": {
      "price(uint256,uint256)": {
        "notice": "Price calculation when price is decreased linearly in proportion to time"
      }
    },
    "version": 1
  },
  "storageLayout": {
    "storage": [
      {
        "astId": 23220,
        "contract": "contracts/collateral/KXRP/BKXRPSchedule.sol:BKXRPSchedule",
        "label": "_initialized",
        "offset": 0,
        "slot": "0",
        "type": "t_bool"
      },
      {
        "astId": 23223,
        "contract": "contracts/collateral/KXRP/BKXRPSchedule.sol:BKXRPSchedule",
        "label": "_initializing",
        "offset": 1,
        "slot": "0",
        "type": "t_bool"
      },
      {
        "astId": 20166,
        "contract": "contracts/collateral/KXRP/BKXRPSchedule.sol:BKXRPSchedule",
        "label": "_roles",
        "offset": 0,
        "slot": "1",
        "type": "t_mapping(t_bytes32,t_struct(RoleData)20161_storage)"
      },
      {
        "astId": 20556,
        "contract": "contracts/collateral/KXRP/BKXRPSchedule.sol:BKXRPSchedule",
        "label": "_paused",
        "offset": 0,
        "slot": "2",
        "type": "t_bool"
      },
      {
        "astId": 25197,
        "contract": "contracts/collateral/KXRP/BKXRPSchedule.sol:BKXRPSchedule",
        "label": "tau",
        "offset": 0,
        "slot": "3",
        "type": "t_uint256"
      }
    ],
    "types": {
      "t_address": {
        "encoding": "inplace",
        "label": "address",
        "numberOfBytes": "20"
      },
      "t_bool": {
        "encoding": "inplace",
        "label": "bool",
        "numberOfBytes": "1"
      },
      "t_bytes32": {
        "encoding": "inplace",
        "label": "bytes32",
        "numberOfBytes": "32"
      },
      "t_mapping(t_address,t_bool)": {
        "encoding": "mapping",
        "key": "t_address",
        "label": "mapping(address => bool)",
        "numberOfBytes": "32",
        "value": "t_bool"
      },
      "t_mapping(t_bytes32,t_struct(RoleData)20161_storage)": {
        "encoding": "mapping",
        "key": "t_bytes32",
        "label": "mapping(bytes32 => struct AccessControl.RoleData)",
        "numberOfBytes": "32",
        "value": "t_struct(RoleData)20161_storage"
      },
      "t_struct(RoleData)20161_storage": {
        "encoding": "inplace",
        "label": "struct AccessControl.RoleData",
        "members": [
          {
            "astId": 20158,
            "contract": "contracts/collateral/KXRP/BKXRPSchedule.sol:BKXRPSchedule",
            "label": "members",
            "offset": 0,
            "slot": "0",
            "type": "t_mapping(t_address,t_bool)"
          },
          {
            "astId": 20160,
            "contract": "contracts/collateral/KXRP/BKXRPSchedule.sol:BKXRPSchedule",
            "label": "adminRole",
            "offset": 0,
            "slot": "1",
            "type": "t_bytes32"
          }
        ],
        "numberOfBytes": "64"
      },
      "t_uint256": {
        "encoding": "inplace",
        "label": "uint256",
        "numberOfBytes": "32"
      }
    }
  }
}