{
  "address": "0x3779487910040b7c749FBeaac0D401DdbDbBB543",
  "abi": [
    {
      "anonymous": false,
      "inputs": [
        {
          "indexed": true,
          "internalType": "address",
          "name": "owner",
          "type": "address"
        },
        {
          "indexed": true,
          "internalType": "address",
          "name": "spender",
          "type": "address"
        },
        {
          "indexed": false,
          "internalType": "uint256",
          "name": "value",
          "type": "uint256"
        }
      ],
      "name": "Approval",
      "type": "event"
    },
    {
      "anonymous": false,
      "inputs": [
        {
          "indexed": false,
          "internalType": "address",
          "name": "account",
          "type": "address"
        }
      ],
      "name": "Paused",
      "type": "event"
    },
    {
      "anonymous": false,
      "inputs": [
        {
          "indexed": true,
          "internalType": "bytes32",
          "name": "role",
          "type": "bytes32"
        },
        {
          "indexed": true,
          "internalType": "bytes32",
          "name": "previousAdminRole",
          "type": "bytes32"
        },
        {
          "indexed": true,
          "internalType": "bytes32",
          "name": "newAdminRole",
          "type": "bytes32"
        }
      ],
      "name": "RoleAdminChanged",
      "type": "event"
    },
    {
      "anonymous": false,
      "inputs": [
        {
          "indexed": true,
          "internalType": "bytes32",
          "name": "role",
          "type": "bytes32"
        },
        {
          "indexed": true,
          "internalType": "address",
          "name": "account",
          "type": "address"
        },
        {
          "indexed": true,
          "internalType": "address",
          "name": "sender",
          "type": "address"
        }
      ],
      "name": "RoleGranted",
      "type": "event"
    },
    {
      "anonymous": false,
      "inputs": [
        {
          "indexed": true,
          "internalType": "bytes32",
          "name": "role",
          "type": "bytes32"
        },
        {
          "indexed": true,
          "internalType": "address",
          "name": "account",
          "type": "address"
        },
        {
          "indexed": true,
          "internalType": "address",
          "name": "sender",
          "type": "address"
        }
      ],
      "name": "RoleRevoked",
      "type": "event"
    },
    {
      "anonymous": false,
      "inputs": [
        {
          "indexed": false,
          "internalType": "address",
          "name": "from",
          "type": "address"
        },
        {
          "indexed": false,
          "internalType": "address",
          "name": "to",
          "type": "address"
        },
        {
          "indexed": false,
          "internalType": "uint256",
          "name": "tokenAmount",
          "type": "uint256"
        },
        {
          "indexed": false,
          "internalType": "uint256",
          "name": "bondAmount",
          "type": "uint256"
        }
      ],
      "name": "Stake",
      "type": "event"
    },
    {
      "anonymous": false,
      "inputs": [
        {
          "indexed": true,
          "internalType": "address",
          "name": "from",
          "type": "address"
        },
        {
          "indexed": true,
          "internalType": "address",
          "name": "to",
          "type": "address"
        },
        {
          "indexed": false,
          "internalType": "uint256",
          "name": "value",
          "type": "uint256"
        }
      ],
      "name": "Transfer",
      "type": "event"
    },
    {
      "anonymous": false,
      "inputs": [
        {
          "indexed": false,
          "internalType": "address",
          "name": "account",
          "type": "address"
        }
      ],
      "name": "Unpaused",
      "type": "event"
    },
    {
      "anonymous": false,
      "inputs": [
        {
          "indexed": false,
          "internalType": "address",
          "name": "from",
          "type": "address"
        },
        {
          "indexed": false,
          "internalType": "address",
          "name": "to",
          "type": "address"
        },
        {
          "indexed": false,
          "internalType": "uint256",
          "name": "tokenAmount",
          "type": "uint256"
        },
        {
          "indexed": false,
          "internalType": "uint256",
          "name": "bondAmount",
          "type": "uint256"
        }
      ],
      "name": "Unstake",
      "type": "event"
    },
    {
      "inputs": [],
      "name": "DEFAULT_ADMIN_ROLE",
      "outputs": [
        {
          "internalType": "bytes32",
          "name": "",
          "type": "bytes32"
        }
      ],
      "stateMutability": "view",
      "type": "function"
    },
    {
      "inputs": [],
      "name": "__BKXRP_init",
      "outputs": [],
      "stateMutability": "nonpayable",
      "type": "function"
    },
    {
      "inputs": [
        {
          "internalType": "string",
          "name": "name_",
          "type": "string"
        },
        {
          "internalType": "string",
          "name": "symbol_",
          "type": "string"
        },
        {
          "internalType": "uint8",
          "name": "decimals_",
          "type": "uint8"
        }
      ],
      "name": "__BaseBond_init",
      "outputs": [],
      "stateMutability": "nonpayable",
      "type": "function"
    },
    {
      "inputs": [
        {
          "internalType": "address",
          "name": "owner",
          "type": "address"
        },
        {
          "internalType": "address",
          "name": "spender",
          "type": "address"
        }
      ],
      "name": "allowance",
      "outputs": [
        {
          "internalType": "uint256",
          "name": "",
          "type": "uint256"
        }
      ],
      "stateMutability": "view",
      "type": "function"
    },
    {
      "inputs": [
        {
          "internalType": "address",
          "name": "spender",
          "type": "address"
        },
        {
          "internalType": "uint256",
          "name": "value",
          "type": "uint256"
        }
      ],
      "name": "approve",
      "outputs": [
        {
          "internalType": "bool",
          "name": "",
          "type": "bool"
        }
      ],
      "stateMutability": "nonpayable",
      "type": "function"
    },
    {
      "inputs": [
        {
          "internalType": "address",
          "name": "account",
          "type": "address"
        }
      ],
      "name": "balanceOf",
      "outputs": [
        {
          "internalType": "uint256",
          "name": "",
          "type": "uint256"
        }
      ],
      "stateMutability": "view",
      "type": "function"
    },
    {
      "inputs": [
        {
          "internalType": "address",
          "name": "account",
          "type": "address"
        },
        {
          "internalType": "uint256",
          "name": "value",
          "type": "uint256"
        }
      ],
      "name": "burn",
      "outputs": [
        {
          "internalType": "bool",
          "name": "",
          "type": "bool"
        }
      ],
      "stateMutability": "nonpayable",
      "type": "function"
    },
    {
      "inputs": [
        {
          "internalType": "bytes32",
          "name": "what",
          "type": "bytes32"
        },
        {
          "internalType": "address",
          "name": "data",
          "type": "address"
        }
      ],
      "name": "config",
      "outputs": [],
      "stateMutability": "nonpayable",
      "type": "function"
    },
    {
      "inputs": [],
      "name": "decimals",
      "outputs": [
        {
          "internalType": "uint8",
          "name": "",
          "type": "uint8"
        }
      ],
      "stateMutability": "view",
      "type": "function"
    },
    {
      "inputs": [
        {
          "internalType": "uint256",
          "name": "tokenAmount",
          "type": "uint256"
        }
      ],
      "name": "fromTokenAmount",
      "outputs": [
        {
          "internalType": "uint256",
          "name": "bondAmount",
          "type": "uint256"
        }
      ],
      "stateMutability": "view",
      "type": "function"
    },
    {
      "inputs": [
        {
          "internalType": "bytes32",
          "name": "role",
          "type": "bytes32"
        }
      ],
      "name": "getRoleAdmin",
      "outputs": [
        {
          "internalType": "bytes32",
          "name": "",
          "type": "bytes32"
        }
      ],
      "stateMutability": "view",
      "type": "function"
    },
    {
      "inputs": [
        {
          "internalType": "bytes32",
          "name": "role",
          "type": "bytes32"
        },
        {
          "internalType": "address",
          "name": "account",
          "type": "address"
        }
      ],
      "name": "grantRole",
      "outputs": [],
      "stateMutability": "nonpayable",
      "type": "function"
    },
    {
      "inputs": [
        {
          "internalType": "bytes32",
          "name": "role",
          "type": "bytes32"
        },
        {
          "internalType": "address",
          "name": "account",
          "type": "address"
        }
      ],
      "name": "hasRole",
      "outputs": [
        {
          "internalType": "bool",
          "name": "",
          "type": "bool"
        }
      ],
      "stateMutability": "view",
      "type": "function"
    },
    {
      "inputs": [
        {
          "internalType": "address",
          "name": "account",
          "type": "address"
        },
        {
          "internalType": "uint256",
          "name": "amount",
          "type": "uint256"
        }
      ],
      "name": "mint",
      "outputs": [
        {
          "internalType": "bool",
          "name": "",
          "type": "bool"
        }
      ],
      "stateMutability": "nonpayable",
      "type": "function"
    },
    {
      "inputs": [],
      "name": "name",
      "outputs": [
        {
          "internalType": "string",
          "name": "",
          "type": "string"
        }
      ],
      "stateMutability": "view",
      "type": "function"
    },
    {
      "inputs": [],
      "name": "pause",
      "outputs": [],
      "stateMutability": "nonpayable",
      "type": "function"
    },
    {
      "inputs": [],
      "name": "paused",
      "outputs": [
        {
          "internalType": "bool",
          "name": "",
          "type": "bool"
        }
      ],
      "stateMutability": "view",
      "type": "function"
    },
    {
      "inputs": [
        {
          "internalType": "bytes32",
          "name": "role",
          "type": "bytes32"
        },
        {
          "internalType": "address",
          "name": "account",
          "type": "address"
        }
      ],
      "name": "renounceRole",
      "outputs": [],
      "stateMutability": "nonpayable",
      "type": "function"
    },
    {
      "inputs": [
        {
          "internalType": "bytes32",
          "name": "role",
          "type": "bytes32"
        },
        {
          "internalType": "address",
          "name": "account",
          "type": "address"
        }
      ],
      "name": "revokeRole",
      "outputs": [],
      "stateMutability": "nonpayable",
      "type": "function"
    },
    {
      "inputs": [
        {
          "internalType": "address",
          "name": "recipient",
          "type": "address"
        },
        {
          "internalType": "uint256",
          "name": "amount",
          "type": "uint256"
        }
      ],
      "name": "safeTransfer",
      "outputs": [],
      "stateMutability": "nonpayable",
      "type": "function"
    },
    {
      "inputs": [
        {
          "internalType": "address",
          "name": "recipient",
          "type": "address"
        },
        {
          "internalType": "uint256",
          "name": "amount",
          "type": "uint256"
        },
        {
          "internalType": "bytes",
          "name": "data",
          "type": "bytes"
        }
      ],
      "name": "safeTransfer",
      "outputs": [],
      "stateMutability": "nonpayable",
      "type": "function"
    },
    {
      "inputs": [
        {
          "internalType": "address",
          "name": "sender",
          "type": "address"
        },
        {
          "internalType": "address",
          "name": "recipient",
          "type": "address"
        },
        {
          "internalType": "uint256",
          "name": "amount",
          "type": "uint256"
        }
      ],
      "name": "safeTransferFrom",
      "outputs": [],
      "stateMutability": "nonpayable",
      "type": "function"
    },
    {
      "inputs": [
        {
          "internalType": "address",
          "name": "sender",
          "type": "address"
        },
        {
          "internalType": "address",
          "name": "recipient",
          "type": "address"
        },
        {
          "internalType": "uint256",
          "name": "amount",
          "type": "uint256"
        },
        {
          "internalType": "bytes",
          "name": "data",
          "type": "bytes"
        }
      ],
      "name": "safeTransferFrom",
      "outputs": [],
      "stateMutability": "nonpayable",
      "type": "function"
    },
    {
      "inputs": [
        {
          "internalType": "address",
          "name": "to",
          "type": "address"
        },
        {
          "internalType": "uint256",
          "name": "tokenAmount",
          "type": "uint256"
        }
      ],
      "name": "stake",
      "outputs": [
        {
          "internalType": "uint256",
          "name": "bondAmount",
          "type": "uint256"
        }
      ],
      "stateMutability": "nonpayable",
      "type": "function"
    },
    {
      "inputs": [
        {
          "internalType": "bytes4",
          "name": "interfaceId",
          "type": "bytes4"
        }
      ],
      "name": "supportsInterface",
      "outputs": [
        {
          "internalType": "bool",
          "name": "",
          "type": "bool"
        }
      ],
      "stateMutability": "view",
      "type": "function"
    },
    {
      "inputs": [],
      "name": "symbol",
      "outputs": [
        {
          "internalType": "string",
          "name": "",
          "type": "string"
        }
      ],
      "stateMutability": "view",
      "type": "function"
    },
    {
      "inputs": [
        {
          "internalType": "uint256",
          "name": "bondAmount",
          "type": "uint256"
        }
      ],
      "name": "toTokenAmount",
      "outputs": [
        {
          "internalType": "uint256",
          "name": "tokenAmount",
          "type": "uint256"
        }
      ],
      "stateMutability": "view",
      "type": "function"
    },
    {
      "inputs": [],
      "name": "token",
      "outputs": [
        {
          "internalType": "contract IKIP7",
          "name": "",
          "type": "address"
        }
      ],
      "stateMutability": "view",
      "type": "function"
    },
    {
      "inputs": [],
      "name": "totalSupply",
      "outputs": [
        {
          "internalType": "uint256",
          "name": "",
          "type": "uint256"
        }
      ],
      "stateMutability": "view",
      "type": "function"
    },
    {
      "inputs": [
        {
          "internalType": "address",
          "name": "recipient",
          "type": "address"
        },
        {
          "internalType": "uint256",
          "name": "amount",
          "type": "uint256"
        }
      ],
      "name": "transfer",
      "outputs": [
        {
          "internalType": "bool",
          "name": "",
          "type": "bool"
        }
      ],
      "stateMutability": "nonpayable",
      "type": "function"
    },
    {
      "inputs": [
        {
          "internalType": "address",
          "name": "sender",
          "type": "address"
        },
        {
          "internalType": "address",
          "name": "recipient",
          "type": "address"
        },
        {
          "internalType": "uint256",
          "name": "amount",
          "type": "uint256"
        }
      ],
      "name": "transferFrom",
      "outputs": [
        {
          "internalType": "bool",
          "name": "",
          "type": "bool"
        }
      ],
      "stateMutability": "nonpayable",
      "type": "function"
    },
    {
      "inputs": [
        {
          "internalType": "address",
          "name": "newOwner",
          "type": "address"
        }
      ],
      "name": "transferOwnership",
      "outputs": [],
      "stateMutability": "nonpayable",
      "type": "function"
    },
    {
      "inputs": [],
      "name": "unpause",
      "outputs": [],
      "stateMutability": "nonpayable",
      "type": "function"
    },
    {
      "inputs": [
        {
          "internalType": "address",
          "name": "to",
          "type": "address"
        },
        {
          "internalType": "uint256",
          "name": "bondAmount",
          "type": "uint256"
        }
      ],
      "name": "unstake",
      "outputs": [
        {
          "internalType": "uint256",
          "name": "tokenAmount",
          "type": "uint256"
        }
      ],
      "stateMutability": "nonpayable",
      "type": "function"
    },
    {
      "inputs": [],
      "name": "yieldFactory",
      "outputs": [
        {
          "internalType": "contract IYieldFactory",
          "name": "",
          "type": "address"
        }
      ],
      "stateMutability": "view",
      "type": "function"
    }
  ],
  "transactionHash": "0x2d3c0f0e6587bd0bf8e2496e67469c7e40640e0119b8033ebaf6a49abb73e7a5",
  "args": [],
  "solcInputHash": "e831a5bfc8ef039172564e394c8a43c3",
  "bytecode": "0x608060405234801561001057600080fd5b50612476806100206000396000f3fe608060405234801561001057600080fd5b50600436106102115760003560e01c806370a0823111610125578063adc9772e116100ad578063d547741f1161007c578063d547741f14610472578063dd62ed3e14610485578063eb795549146104be578063f2fde38b146104d1578063fc0c546a146104e457610211565b8063adc9772e14610426578063b88d4fde14610439578063c2a672e01461044c578063d366f3b91461045f57610211565b806391d14854116100f457806391d14854146103dd57806395d89b41146103f05780639dc29fac146103f8578063a217fddf1461040b578063a9059cbb1461041357610211565b806370a08231146103865780637214956f146103af5780637f1c942d146103c25780638456cb59146103d557610211565b8063248a9ca3116101a85780633f4ba83a116101775780633f4ba83a1461033a57806340c10f1914610342578063423f6cef1461035557806342842e0e146103685780635c975abb1461037b57610211565b8063248a9ca3146102dc5780632f2ff15d146102ff578063313ce5671461031257806336568abe1461032757610211565b806316fd84f7116101e457806316fd84f714610270578063174e4ea6146102a057806318160ddd146102c157806323b872dd146102c957610211565b806301ffc9a714610216578063025238ff1461023e57806306fdde0314610248578063095ea7b31461025d575b600080fd5b61022961022436600461217e565b6104f7565b60405190151581526020015b60405180910390f35b61024661051a565b005b6102506105e5565b60405161023591906122d0565b61022961026b36600461209f565b610677565b6009546102889061010090046001600160a01b031681565b6040516001600160a01b039091168152602001610235565b6102b36102ae366004612144565b6106b5565b604051908152602001610235565b6004546102b3565b6102296102d7366004611ffe565b610770565b6102b36102ea366004612144565b60009081526008602052604090206001015490565b61024661030d36600461215c565b6107ae565b60075460405160ff9091168152602001610235565b61024661033536600461215c565b6107d9565b610246610857565b61022961035036600461209f565b6108f5565b61024661036336600461209f565b61093f565b610246610376366004611ffe565b610959565b60095460ff16610229565b6102b3610394366004611fb2565b6001600160a01b031660009081526002602052604090205490565b6102b36103bd366004612144565b610974565b6102466103d03660046121b6565b610a1e565b610246610aaa565b6102296103eb36600461215c565b610b1e565b610250610b49565b61022961040636600461209f565b610b58565b6102b3600081565b61022961042136600461209f565b610b99565b6102b361043436600461209f565b610bce565b610246610447366004612039565b610df1565b6102b361045a36600461209f565b610e7d565b61024661046d36600461215c565b611003565b61024661048036600461215c565b6110f8565b6102b3610493366004611fcc565b6001600160a01b03918216600090815260036020908152604080832093909416825291909152205490565b6102466104cc3660046120c8565b61111e565b6102466104df366004611fb2565b6111a7565b600a54610288906001600160a01b031681565b6001600160e01b0319811660009081526001602052604090205460ff165b919050565b600054610100900460ff168061052f5750303b155b8061053d575060005460ff16155b6105625760405162461bcd60e51b81526004016105599061230d565b60405180910390fd5b600054610100900460ff16158015610584576000805461ffff19166101011790555b6105d06040518060400160405280600b81526020016a0626f6e646564204b5852560ac1b815250604051806040016040528060058152602001640624b5852560dc1b8152506006610a1e565b80156105e2576000805461ff00191690555b50565b6060600580546105f4906123c9565b80601f0160208091040260200160405190810160405280929190818152602001828054610620906123c9565b801561066d5780601f106106425761010080835404028352916020019161066d565b820191906000526020600020905b81548152906001019060200180831161065057829003601f168201915b5050505050905090565b600061068560095460ff1690565b156106a25760405162461bcd60e51b8152600401610559906122e3565b6106ac83836111dd565b90505b92915050565b600080600960019054906101000a90046001600160a01b03166001600160a01b0316631a39d8ef6040518163ffffffff1660e01b815260040160206040518083038186803b15801561070657600080fd5b505afa15801561071a573d6000803e3d6000fd5b505050506040513d601f19601f8201168201806040525081019061073e9190612230565b9050600081116107505782915061076a565b60045461075d8285612393565b6107679190612373565b91505b50919050565b600061077e60095460ff1690565b1561079b5760405162461bcd60e51b8152600401610559906122e3565b6107a68484846111ea565b949350505050565b6000828152600860205260409020600101546107ca813361123c565b6107d483836112a0565b505050565b6001600160a01b03811633146108495760405162461bcd60e51b815260206004820152602f60248201527f416363657373436f6e74726f6c3a2063616e206f6e6c792072656e6f756e636560448201526e103937b632b9903337b91039b2b63360891b6064820152608401610559565b6108538282611309565b5050565b60095460ff166108a05760405162461bcd60e51b815260206004820152601460248201527314185d5cd8589b194e881b9bdd081c185d5cd95960621b6044820152606401610559565b653830bab9b2b960d11b6108b4813361123c565b6009805460ff191690556040513381527f5db9ee0a495bf2e6ff9c91a7834c1ba4fdd244a5e8aa4e537bd38aeae4b073aa906020015b60405180910390a150565b60006109096430b236b4b760d91b3361123c565b60095460ff161561092c5760405162461bcd60e51b8152600401610559906122e3565b6109368383611370565b50600192915050565b61085382826040518060200160405280600081525061111e565b6107d483838360405180602001604052806000815250610df1565b600080600960019054906101000a90046001600160a01b03166001600160a01b0316631a39d8ef6040518163ffffffff1660e01b815260040160206040518083038186803b1580156109c557600080fd5b505afa1580156109d9573d6000803e3d6000fd5b505050506040513d601f19601f820116820180604052508101906109fd9190612230565b905060008111610a0f5782915061076a565b806004548461075d9190612393565b600054610100900460ff1680610a335750303b155b80610a41575060005460ff16155b610a5d5760405162461bcd60e51b81526004016105599061230d565b600054610100900460ff16158015610a7f576000805461ffff19166101011790555b610a8a84848461146e565b610a926114da565b8015610aa4576000805461ff00191690555b50505050565b60095460ff1615610acd5760405162461bcd60e51b8152600401610559906122e3565b653830bab9b2b960d11b610ae1813361123c565b6009805460ff191660011790556040513381527f62e78cea01bee320cd4e420270b5ea74000d11b0c9f74754ebdbfc544b05a258906020016108ea565b60009182526008602090815260408084206001600160a01b0393909316845291905290205460ff1690565b6060600680546105f4906123c9565b6000610b6c6430b236b4b760d91b3361123c565b60095460ff1615610b8f5760405162461bcd60e51b8152600401610559906122e3565b6109368383611571565b6000610ba760095460ff1690565b15610bc45760405162461bcd60e51b8152600401610559906122e3565b6106ac8383611662565b6000610bdc60095460ff1690565b15610bf95760405162461bcd60e51b8152600401610559906122e3565b60008211610c09575060006106af565b610c1282610974565b9050610c1e8382611370565b600a546040516323b872dd60e01b8152336004820152306024820152604481018490526001600160a01b03909116906323b872dd90606401602060405180830381600087803b158015610c7057600080fd5b505af1158015610c84573d6000803e3d6000fd5b505050506040513d601f19601f82011682018060405250810190610ca8919061211d565b50600a5460095460405163095ea7b360e01b81526001600160a01b03610100909204821660048201526024810185905291169063095ea7b390604401602060405180830381600087803b158015610cfe57600080fd5b505af1158015610d12573d6000803e3d6000fd5b505050506040513d601f19601f82011682018060405250810190610d36919061211d565b5060095460405163534a7e1d60e11b8152600481018490526101009091046001600160a01b03169063a694fc3a90602401600060405180830381600087803b158015610d8157600080fd5b505af1158015610d95573d6000803e3d6000fd5b5050604080513381526001600160a01b0387166020820152908101859052606081018490527f63602d0ecc7b3a0ef7ff1a116e23056662d64280355ba8031b6d0d767c4b4458925060800190505b60405180910390a192915050565b610dfc848484610770565b50610e098484848461166f565b610aa4576040805162461bcd60e51b81526020600482015260248101919091527f4b4950373a3a736166655472616e7366657246726f6d3a207472616e7366657260448201527f20746f206e6f6e204b495037526563656976657220696d706c656d656e7465726064820152608401610559565b6000610e8b60095460ff1690565b15610ea85760405162461bcd60e51b8152600401610559906122e3565b60008211610eb8575060006106af565b610ec1826106b5565b9050610ecd3383611571565b6009546040516305c2fbcf60e31b8152600481018390526101009091046001600160a01b031690632e17de7890602401600060405180830381600087803b158015610f1757600080fd5b505af1158015610f2b573d6000803e3d6000fd5b5050600a5460405163a9059cbb60e01b81526001600160a01b03878116600483015260248201869052909116925063a9059cbb9150604401602060405180830381600087803b158015610f7d57600080fd5b505af1158015610f91573d6000803e3d6000fd5b505050506040513d601f19601f82011682018060405250810190610fb5919061211d565b50604080513381526001600160a01b0385166020820152908101829052606081018390527f18edd09e80386cd99df397e2e0d87d2bb259423eae08645e776321a36fe680ef90608001610de3565b6110156430b236b4b760d91b3361123c565b60095460ff16156110385760405162461bcd60e51b8152600401610559906122e3565b816b7969656c64466163746f727960a01b14156110745760098054610100600160a81b0319166101006001600160a01b03841602179055610853565b81643a37b5b2b760d91b14156110a457600a80546001600160a01b0319166001600160a01b038316179055610853565b60405162461bcd60e51b8152602060048201526024808201527f42617365426f6e643a3a636f6e6669673a20756e7265636f676e697a65642d706044820152636172616d60e01b6064820152608401610559565b600082815260086020526040902060010154611114813361123c565b6107d48383611309565b6111288383610b99565b506111353384848461166f565b6107d45760405162461bcd60e51b815260206004820152603c60248201527f4b4950373a3a736166655472616e736665723a207472616e7366657220746f2060448201527f6e6f6e204b495037526563656976657220696d706c656d656e746572000000006064820152608401610559565b6111b96437bbb732b960d91b3361123c565b6111cb6437bbb732b960d91b826112a0565b6105e26437bbb732b960d91b33611309565b600061093633848461172d565b60006111f7848484611865565b6001600160a01b03841660009081526003602090815260408083203380855292529091205461123291869161122d9086906123b2565b61172d565b5060019392505050565b6112468282610b1e565b6108535760405162461bcd60e51b815260206004820152602560248201527f416363657373436f6e74726f6c3a5f636865636b526f6c653a696e76616c696460448201526420726f6c6560d81b6064820152608401610559565b6112aa8282610b1e565b6108535760008281526008602090815260408083206001600160a01b0385168085529252808320805460ff1916600117905551339285917f2f8788117e7eff1d82e926ec794901d17c78024a50270940304540a733656f0d9190a45050565b6113138282610b1e565b156108535760008281526008602090815260408083206001600160a01b0385168085529252808320805460ff1916905551339285917ff6391f5c32d9c69d2a47ea670b442974b53935d1edc7fd64eb21e047a839171b9190a45050565b6001600160a01b0382166113dc5760405162461bcd60e51b815260206004820152602d60248201527f4b495037457874656e6465643a3a5f6d696e743a206d696e7420746f2074686560448201526c207a65726f206164647265737360981b6064820152608401610559565b806004546113ea919061235b565b6004556001600160a01b03821660009081526002602052604090205461141190829061235b565b6001600160a01b0383166000818152600260205260408082209390935591519091907fddf252ad1be2c89b69c2b068fc378daa952ba7f163c4a11628f55a4df523b3ef906114629085815260200190565b60405180910390a35050565b600054610100900460ff16806114835750303b155b80611491575060005460ff16155b6114ad5760405162461bcd60e51b81526004016105599061230d565b600054610100900460ff161580156114cf576000805461ffff19166101011790555b610a8a8484846119e7565b600054610100900460ff16806114ef5750303b155b806114fd575060005460ff16155b6115195760405162461bcd60e51b81526004016105599061230d565b600054610100900460ff1615801561153b576000805461ffff19166101011790555b611543611a5b565b61155e653830bab9b2b960d11b6437bbb732b960d91b611ac4565b6105d0653830bab9b2b960d11b33611b0f565b6001600160a01b0382166115df5760405162461bcd60e51b815260206004820152602f60248201527f4b495037457874656e6465643a3a5f6275726e3a206275726e2066726f6d207460448201526e6865207a65726f206164647265737360881b6064820152608401610559565b806004546115ed91906123b2565b6004556001600160a01b0382166000908152600260205260409020546116149082906123b2565b6001600160a01b0383166000818152600260205260408082209390935591517fddf252ad1be2c89b69c2b068fc378daa952ba7f163c4a11628f55a4df523b3ef906114629085815260200190565b6000610936338484611865565b60006001600160a01b0384163b611688575060016107a6565b604051634e8c461160e11b81526000906001600160a01b03861690639d188c22906116bd9033908a9089908990600401612293565b602060405180830381600087803b1580156116d757600080fd5b505af11580156116eb573d6000803e3d6000fd5b505050506040513d601f19601f8201168201806040525081019061170f919061219a565b6001600160e01b031916634e8c461160e11b14915050949350505050565b6001600160a01b0383166117995760405162461bcd60e51b815260206004820152602d60248201527f4b4950373a3a5f617070726f76653a20617070726f76652066726f6d2074686560448201526c207a65726f206164647265737360981b6064820152608401610559565b6001600160a01b0382166118035760405162461bcd60e51b815260206004820152602b60248201527f4b4950373a3a5f617070726f76653a20617070726f766520746f20746865207a60448201526a65726f206164647265737360a81b6064820152608401610559565b6001600160a01b0383811660008181526003602090815260408083209487168084529482529182902085905590518481527f8c5be1e5ebec7d5bd14f71427d1e84f3dd0314c0f7b2291e5b200ac8c7c3b92591015b60405180910390a3505050565b6001600160a01b0383166118d35760405162461bcd60e51b815260206004820152602f60248201527f4b4950373a3a5f7472616e736665723a207472616e736665722066726f6d207460448201526e6865207a65726f206164647265737360881b6064820152608401610559565b6001600160a01b03821661193f5760405162461bcd60e51b815260206004820152602d60248201527f4b4950373a3a5f7472616e736665723a207472616e7366657220746f2074686560448201526c207a65726f206164647265737360981b6064820152608401610559565b6001600160a01b0383166000908152600260205260409020546119639082906123b2565b6001600160a01b03808516600090815260026020526040808220939093559084168152205461199390829061235b565b6001600160a01b0380841660008181526002602052604090819020939093559151908516907fddf252ad1be2c89b69c2b068fc378daa952ba7f163c4a11628f55a4df523b3ef906118589085815260200190565b600054610100900460ff16806119fc5750303b155b80611a0a575060005460ff16155b611a265760405162461bcd60e51b81526004016105599061230d565b600054610100900460ff16158015611a48576000805461ffff19166101011790555b611a50611b19565b610a92848484611b8a565b600054610100900460ff1680611a705750303b155b80611a7e575060005460ff16155b611a9a5760405162461bcd60e51b81526004016105599061230d565b600054610100900460ff16158015611abc576000805461ffff19166101011790555b6105d0611c32565b600082815260086020526040808220600101805490849055905190918391839186917fbd79b86ffe0ab8e8776151514217cd7cacd52c909f66475c3af44e129f0b00ff9190a4505050565b61085382826112a0565b600054610100900460ff1680611b2e5750303b155b80611b3c575060005460ff16155b611b585760405162461bcd60e51b81526004016105599061230d565b600054610100900460ff16158015611b7a576000805461ffff19166101011790555b611b82611d03565b6105d0611d74565b600054610100900460ff1680611b9f5750303b155b80611bad575060005460ff16155b611bc95760405162461bcd60e51b81526004016105599061230d565b600054610100900460ff16158015611beb576000805461ffff19166101011790555b8351611bfe906005906020870190611e7b565b508251611c12906006906020860190611e7b565b506007805460ff191660ff8416179055610a9263a219a02560e01b611de1565b600054610100900460ff1680611c475750303b155b80611c55575060005460ff16155b611c715760405162461bcd60e51b81526004016105599061230d565b600054610100900460ff16158015611c93576000805461ffff19166101011790555b611ca56437bbb732b960d91b33611b0f565b611cbf6430b236b4b760d91b6437bbb732b960d91b611ac4565b611cdc6737b832b930ba37b960c11b6437bbb732b960d91b611ac4565b611cee6430b236b4b760d91b33611b0f565b6105d06737b832b930ba37b960c11b33611b0f565b600054610100900460ff1680611d185750303b155b80611d26575060005460ff16155b611d425760405162461bcd60e51b81526004016105599061230d565b600054610100900460ff16158015611d64576000805461ffff19166101011790555b6105d06301ffc9a760e01b611de1565b600054610100900460ff1680611d895750303b155b80611d97575060005460ff16155b611db35760405162461bcd60e51b81526004016105599061230d565b600054610100900460ff16158015611dd5576000805461ffff19166101011790555b6105d0636578737160e01b5b6001600160e01b03198082161415611e535760405162461bcd60e51b815260206004820152602f60248201527f4b495031333a3a5f7265676973746572496e746572666163653a20696e76616c60448201526e1a59081a5b9d195c999858d9481a59608a1b6064820152608401610559565b6001600160e01b0319166000908152600160208190526040909120805460ff19169091179055565b828054611e87906123c9565b90600052602060002090601f016020900481019282611ea95760008555611eef565b82601f10611ec257805160ff1916838001178555611eef565b82800160010185558215611eef579182015b82811115611eef578251825591602001919060010190611ed4565b50611efb929150611eff565b5090565b5b80821115611efb5760008155600101611f00565b80356001600160a01b038116811461051557600080fd5b600082601f830112611f3b578081fd5b813567ffffffffffffffff80821115611f5657611f56612414565b604051601f8301601f19908116603f01168101908282118183101715611f7e57611f7e612414565b81604052838152866020858801011115611f96578485fd5b8360208701602083013792830160200193909352509392505050565b600060208284031215611fc3578081fd5b6106ac82611f14565b60008060408385031215611fde578081fd5b611fe783611f14565b9150611ff560208401611f14565b90509250929050565b600080600060608486031215612012578081fd5b61201b84611f14565b925061202960208501611f14565b9150604084013590509250925092565b6000806000806080858703121561204e578081fd5b61205785611f14565b935061206560208601611f14565b925060408501359150606085013567ffffffffffffffff811115612087578182fd5b61209387828801611f2b565b91505092959194509250565b600080604083850312156120b1578182fd5b6120ba83611f14565b946020939093013593505050565b6000806000606084860312156120dc578283fd5b6120e584611f14565b925060208401359150604084013567ffffffffffffffff811115612107578182fd5b61211386828701611f2b565b9150509250925092565b60006020828403121561212e578081fd5b8151801515811461213d578182fd5b9392505050565b600060208284031215612155578081fd5b5035919050565b6000806040838503121561216e578182fd5b82359150611ff560208401611f14565b60006020828403121561218f578081fd5b813561213d8161242a565b6000602082840312156121ab578081fd5b815161213d8161242a565b6000806000606084860312156121ca578283fd5b833567ffffffffffffffff808211156121e1578485fd5b6121ed87838801611f2b565b94506020860135915080821115612202578384fd5b5061220f86828701611f2b565b925050604084013560ff81168114612225578182fd5b809150509250925092565b600060208284031215612241578081fd5b5051919050565b60008151808452815b8181101561226d57602081850181015186830182015201612251565b8181111561227e5782602083870101525b50601f01601f19169290920160200192915050565b6001600160a01b03858116825284166020820152604081018390526080606082018190526000906122c690830184612248565b9695505050505050565b6000602082526106ac6020830184612248565b60208082526010908201526f14185d5cd8589b194e881c185d5cd95960821b604082015260600190565b6020808252602e908201527f496e697469616c697a61626c653a20636f6e747261637420697320616c72656160408201526d191e481a5b9a5d1a585b1a5e995960921b606082015260800190565b6000821982111561236e5761236e6123fe565b500190565b60008261238e57634e487b7160e01b81526012600452602481fd5b500490565b60008160001904831182151516156123ad576123ad6123fe565b500290565b6000828210156123c4576123c46123fe565b500390565b600181811c908216806123dd57607f821691505b6020821081141561076a57634e487b7160e01b600052602260045260246000fd5b634e487b7160e01b600052601160045260246000fd5b634e487b7160e01b600052604160045260246000fd5b6001600160e01b0319811681146105e257600080fdfea26469706673582212200c8ee05f073d682e07a8f5bf5fe2cb0d7c3f2c05d9cad19a3344c204326377b064736f6c63430008030033",
  "devdoc": {
    "kind": "dev",
    "methods": {},
    "version": 1
  },
  "userdoc": {
    "kind": "user",
    "methods": {
      "fromTokenAmount(uint256)": {
        "notice": "Calculate bond amount corresponding to the given token amount"
      },
      "stake(address,uint256)": {
        "notice": "Stake token to this contract and return bond."
      },
      "toTokenAmount(uint256)": {
        "notice": "Calculate token amount corresponding to the given bond amount"
      },
      "unstake(address,uint256)": {
        "notice": "Untake to return staked token."
      }
    },
    "version": 1
  },
  "storageLayout": {
    "storage": [
      {
        "astId": 23243,
        "contract": "contracts/collateral/KXRP/BKXRP.sol:BKXRP",
        "label": "_initialized",
        "offset": 0,
        "slot": "0",
        "type": "t_bool"
      },
      {
        "astId": 23246,
        "contract": "contracts/collateral/KXRP/BKXRP.sol:BKXRP",
        "label": "_initializing",
        "offset": 1,
        "slot": "0",
        "type": "t_bool"
      },
      {
        "astId": 21198,
        "contract": "contracts/collateral/KXRP/BKXRP.sol:BKXRP",
        "label": "_supportedInterfaces",
        "offset": 0,
        "slot": "1",
        "type": "t_mapping(t_bytes4,t_bool)"
      },
      {
        "astId": 21262,
        "contract": "contracts/collateral/KXRP/BKXRP.sol:BKXRP",
        "label": "_balances",
        "offset": 0,
        "slot": "2",
        "type": "t_mapping(t_address,t_uint256)"
      },
      {
        "astId": 21268,
        "contract": "contracts/collateral/KXRP/BKXRP.sol:BKXRP",
        "label": "_allowances",
        "offset": 0,
        "slot": "3",
        "type": "t_mapping(t_address,t_mapping(t_address,t_uint256))"
      },
      {
        "astId": 21270,
        "contract": "contracts/collateral/KXRP/BKXRP.sol:BKXRP",
        "label": "_totalSupply",
        "offset": 0,
        "slot": "4",
        "type": "t_uint256"
      },
      {
        "astId": 21650,
        "contract": "contracts/collateral/KXRP/BKXRP.sol:BKXRP",
        "label": "_name",
        "offset": 0,
        "slot": "5",
        "type": "t_string_storage"
      },
      {
        "astId": 21652,
        "contract": "contracts/collateral/KXRP/BKXRP.sol:BKXRP",
        "label": "_symbol",
        "offset": 0,
        "slot": "6",
        "type": "t_string_storage"
      },
      {
        "astId": 21654,
        "contract": "contracts/collateral/KXRP/BKXRP.sol:BKXRP",
        "label": "_decimals",
        "offset": 0,
        "slot": "7",
        "type": "t_uint8"
      },
      {
        "astId": 20189,
        "contract": "contracts/collateral/KXRP/BKXRP.sol:BKXRP",
        "label": "_roles",
        "offset": 0,
        "slot": "8",
        "type": "t_mapping(t_bytes32,t_struct(RoleData)20184_storage)"
      },
      {
        "astId": 20579,
        "contract": "contracts/collateral/KXRP/BKXRP.sol:BKXRP",
        "label": "_paused",
        "offset": 0,
        "slot": "9",
        "type": "t_bool"
      },
      {
        "astId": 18729,
        "contract": "contracts/collateral/KXRP/BKXRP.sol:BKXRP",
        "label": "yieldFactory",
        "offset": 1,
        "slot": "9",
        "type": "t_contract(IYieldFactory)9658"
      },
      {
        "astId": 18732,
        "contract": "contracts/collateral/KXRP/BKXRP.sol:BKXRP",
        "label": "token",
        "offset": 0,
        "slot": "10",
        "type": "t_contract(IKIP7)9900"
      }
    ],
    "types": {
      "t_address": {
        "encoding": "inplace",
        "label": "address",
        "numberOfBytes": "20"
      },
      "t_bool": {
        "encoding": "inplace",
        "label": "bool",
        "numberOfBytes": "1"
      },
      "t_bytes32": {
        "encoding": "inplace",
        "label": "bytes32",
        "numberOfBytes": "32"
      },
      "t_bytes4": {
        "encoding": "inplace",
        "label": "bytes4",
        "numberOfBytes": "4"
      },
      "t_contract(IKIP7)9900": {
        "encoding": "inplace",
        "label": "contract IKIP7",
        "numberOfBytes": "20"
      },
      "t_contract(IYieldFactory)9658": {
        "encoding": "inplace",
        "label": "contract IYieldFactory",
        "numberOfBytes": "20"
      },
      "t_mapping(t_address,t_bool)": {
        "encoding": "mapping",
        "key": "t_address",
        "label": "mapping(address => bool)",
        "numberOfBytes": "32",
        "value": "t_bool"
      },
      "t_mapping(t_address,t_mapping(t_address,t_uint256))": {
        "encoding": "mapping",
        "key": "t_address",
        "label": "mapping(address => mapping(address => uint256))",
        "numberOfBytes": "32",
        "value": "t_mapping(t_address,t_uint256)"
      },
      "t_mapping(t_address,t_uint256)": {
        "encoding": "mapping",
        "key": "t_address",
        "label": "mapping(address => uint256)",
        "numberOfBytes": "32",
        "value": "t_uint256"
      },
      "t_mapping(t_bytes32,t_struct(RoleData)20184_storage)": {
        "encoding": "mapping",
        "key": "t_bytes32",
        "label": "mapping(bytes32 => struct AccessControl.RoleData)",
        "numberOfBytes": "32",
        "value": "t_struct(RoleData)20184_storage"
      },
      "t_mapping(t_bytes4,t_bool)": {
        "encoding": "mapping",
        "key": "t_bytes4",
        "label": "mapping(bytes4 => bool)",
        "numberOfBytes": "32",
        "value": "t_bool"
      },
      "t_string_storage": {
        "encoding": "bytes",
        "label": "string",
        "numberOfBytes": "32"
      },
      "t_struct(RoleData)20184_storage": {
        "encoding": "inplace",
        "label": "struct AccessControl.RoleData",
        "members": [
          {
            "astId": 20181,
            "contract": "contracts/collateral/KXRP/BKXRP.sol:BKXRP",
            "label": "members",
            "offset": 0,
            "slot": "0",
            "type": "t_mapping(t_address,t_bool)"
          },
          {
            "astId": 20183,
            "contract": "contracts/collateral/KXRP/BKXRP.sol:BKXRP",
            "label": "adminRole",
            "offset": 0,
            "slot": "1",
            "type": "t_bytes32"
          }
        ],
        "numberOfBytes": "64"
      },
      "t_uint256": {
        "encoding": "inplace",
        "label": "uint256",
        "numberOfBytes": "32"
      },
      "t_uint8": {
        "encoding": "inplace",
        "label": "uint8",
        "numberOfBytes": "1"
      }
    }
  }
}