{
  "address": "0x76F5bba8d9529B2800f825DF778FdCCaA9686207",
  "abi": [
    {
      "anonymous": false,
      "inputs": [
        {
          "indexed": false,
          "internalType": "address",
          "name": "account",
          "type": "address"
        }
      ],
      "name": "Paused",
      "type": "event"
    },
    {
      "anonymous": false,
      "inputs": [
        {
          "indexed": true,
          "internalType": "bytes32",
          "name": "role",
          "type": "bytes32"
        },
        {
          "indexed": true,
          "internalType": "bytes32",
          "name": "previousAdminRole",
          "type": "bytes32"
        },
        {
          "indexed": true,
          "internalType": "bytes32",
          "name": "newAdminRole",
          "type": "bytes32"
        }
      ],
      "name": "RoleAdminChanged",
      "type": "event"
    },
    {
      "anonymous": false,
      "inputs": [
        {
          "indexed": true,
          "internalType": "bytes32",
          "name": "role",
          "type": "bytes32"
        },
        {
          "indexed": true,
          "internalType": "address",
          "name": "account",
          "type": "address"
        },
        {
          "indexed": true,
          "internalType": "address",
          "name": "sender",
          "type": "address"
        }
      ],
      "name": "RoleGranted",
      "type": "event"
    },
    {
      "anonymous": false,
      "inputs": [
        {
          "indexed": true,
          "internalType": "bytes32",
          "name": "role",
          "type": "bytes32"
        },
        {
          "indexed": true,
          "internalType": "address",
          "name": "account",
          "type": "address"
        },
        {
          "indexed": true,
          "internalType": "address",
          "name": "sender",
          "type": "address"
        }
      ],
      "name": "RoleRevoked",
      "type": "event"
    },
    {
      "anonymous": false,
      "inputs": [
        {
          "indexed": false,
          "internalType": "address",
          "name": "account",
          "type": "address"
        }
      ],
      "name": "Unpaused",
      "type": "event"
    },
    {
      "inputs": [],
      "name": "DEFAULT_ADMIN_ROLE",
      "outputs": [
        {
          "internalType": "bytes32",
          "name": "",
          "type": "bytes32"
        }
      ],
      "stateMutability": "view",
      "type": "function"
    },
    {
      "inputs": [],
      "name": "__Configurator_init",
      "outputs": [],
      "stateMutability": "nonpayable",
      "type": "function"
    },
    {
      "inputs": [],
      "name": "addressBook",
      "outputs": [
        {
          "internalType": "contract IAddressBook",
          "name": "",
          "type": "address"
        }
      ],
      "stateMutability": "view",
      "type": "function"
    },
    {
      "inputs": [],
      "name": "adjustAllocPoints",
      "outputs": [],
      "stateMutability": "nonpayable",
      "type": "function"
    },
    {
      "inputs": [],
      "name": "collateralTypeList",
      "outputs": [
        {
          "internalType": "bytes32[]",
          "name": "",
          "type": "bytes32[]"
        }
      ],
      "stateMutability": "view",
      "type": "function"
    },
    {
      "inputs": [
        {
          "internalType": "bytes32",
          "name": "what",
          "type": "bytes32"
        },
        {
          "internalType": "address",
          "name": "data",
          "type": "address"
        }
      ],
      "name": "config",
      "outputs": [],
      "stateMutability": "nonpayable",
      "type": "function"
    },
    {
      "inputs": [
        {
          "internalType": "bytes32",
          "name": "what",
          "type": "bytes32"
        },
        {
          "internalType": "uint256",
          "name": "data",
          "type": "uint256"
        }
      ],
      "name": "config",
      "outputs": [],
      "stateMutability": "nonpayable",
      "type": "function"
    },
    {
      "inputs": [],
      "name": "fee",
      "outputs": [
        {
          "internalType": "uint256",
          "name": "",
          "type": "uint256"
        }
      ],
      "stateMutability": "view",
      "type": "function"
    },
    {
      "inputs": [
        {
          "internalType": "bytes32",
          "name": "role",
          "type": "bytes32"
        }
      ],
      "name": "getRoleAdmin",
      "outputs": [
        {
          "internalType": "bytes32",
          "name": "",
          "type": "bytes32"
        }
      ],
      "stateMutability": "view",
      "type": "function"
    },
    {
      "inputs": [
        {
          "internalType": "bytes32",
          "name": "role",
          "type": "bytes32"
        },
        {
          "internalType": "address",
          "name": "account",
          "type": "address"
        }
      ],
      "name": "grantRole",
      "outputs": [],
      "stateMutability": "nonpayable",
      "type": "function"
    },
    {
      "inputs": [
        {
          "internalType": "bytes32",
          "name": "role",
          "type": "bytes32"
        },
        {
          "internalType": "address",
          "name": "account",
          "type": "address"
        }
      ],
      "name": "hasRole",
      "outputs": [
        {
          "internalType": "bool",
          "name": "",
          "type": "bool"
        }
      ],
      "stateMutability": "view",
      "type": "function"
    },
    {
      "inputs": [],
      "name": "pause",
      "outputs": [],
      "stateMutability": "nonpayable",
      "type": "function"
    },
    {
      "inputs": [],
      "name": "paused",
      "outputs": [
        {
          "internalType": "bool",
          "name": "",
          "type": "bool"
        }
      ],
      "stateMutability": "view",
      "type": "function"
    },
    {
      "inputs": [
        {
          "internalType": "bytes32",
          "name": "collateralType",
          "type": "bytes32"
        },
        {
          "internalType": "address",
          "name": "token",
          "type": "address"
        },
        {
          "internalType": "address",
          "name": "bond",
          "type": "address"
        },
        {
          "internalType": "address",
          "name": "bondAuctionHouse",
          "type": "address"
        },
        {
          "internalType": "address",
          "name": "bondFeed",
          "type": "address"
        },
        {
          "internalType": "address",
          "name": "bondIssuedKsdPool",
          "type": "address"
        },
        {
          "internalType": "address",
          "name": "bondSchedule",
          "type": "address"
        },
        {
          "internalType": "address",
          "name": "gateway",
          "type": "address"
        },
        {
          "internalType": "address",
          "name": "yieldFactory",
          "type": "address"
        }
      ],
      "name": "registerCollateral",
      "outputs": [],
      "stateMutability": "nonpayable",
      "type": "function"
    },
    {
      "inputs": [
        {
          "internalType": "bytes32",
          "name": "role",
          "type": "bytes32"
        },
        {
          "internalType": "address",
          "name": "account",
          "type": "address"
        }
      ],
      "name": "renounceRole",
      "outputs": [],
      "stateMutability": "nonpayable",
      "type": "function"
    },
    {
      "inputs": [
        {
          "internalType": "bytes32",
          "name": "role",
          "type": "bytes32"
        },
        {
          "internalType": "address",
          "name": "account",
          "type": "address"
        }
      ],
      "name": "revokeRole",
      "outputs": [],
      "stateMutability": "nonpayable",
      "type": "function"
    },
    {
      "inputs": [],
      "name": "totalIssuedKsdAllocPoint",
      "outputs": [
        {
          "internalType": "uint256",
          "name": "",
          "type": "uint256"
        }
      ],
      "stateMutability": "view",
      "type": "function"
    },
    {
      "inputs": [
        {
          "internalType": "address",
          "name": "newOwner",
          "type": "address"
        }
      ],
      "name": "transferOwnership",
      "outputs": [],
      "stateMutability": "nonpayable",
      "type": "function"
    },
    {
      "inputs": [],
      "name": "unpause",
      "outputs": [],
      "stateMutability": "nonpayable",
      "type": "function"
    },
    {
      "inputs": [
        {
          "internalType": "bytes32",
          "name": "collateralType",
          "type": "bytes32"
        }
      ],
      "name": "unregisterCollateral",
      "outputs": [],
      "stateMutability": "nonpayable",
      "type": "function"
    }
  ],
  "transactionHash": "0x658ca7b290d3b73befda17b1029e8fd78d8b552f46d50f84be56272b30e31169",
  "args": [],
  "solcInputHash": "de4f5741dec2c2b2fd1b551e118f3df0",
  "bytecode": "0x608060405234801561001057600080fd5b50611c56806100206000396000f3fe608060405234801561001057600080fd5b506004361061012c5760003560e01c806391d14854116100ad578063d547741f11610071578063d547741f14610239578063ddca3f431461024c578063e0bed04114610255578063f2fde38b14610268578063f5887cdd1461027b5761012c565b806391d14854146101e35780639d1d2be9146101f6578063a217fddf14610209578063c5581b9d14610211578063d366f3b9146102265761012c565b806336568abe116100f457806336568abe146101965780633f4ba83a146101a95780634854441c146101b15780635c975abb146101c45780638456cb59146101db5761012c565b806313f63ee41461013157806318bba1971461013b578063216886ee14610143578063248a9ca31461015f5780632f2ff15d14610183575b600080fd5b6101396102ab565b005b610139610766565b61014c60045481565b6040519081526020015b60405180910390f35b61014c61016d36600461192e565b6000908152600160208190526040909120015490565b610139610191366004611946565b6107e4565b6101396101a4366004611946565b610810565b61013961088e565b6101396101bf366004611975565b61092c565b60025460ff165b6040519015158152602001610156565b610139610e1c565b6101cb6101f1366004611946565b610e90565b61013961020436600461192e565b610ebd565b61014c600081565b6102196113a8565b6040516101569190611a91565b610139610234366004611946565b611400565b610139610247366004611946565b6114a6565b61014c60055481565b610139610263366004611a27565b6114cd565b6101396102763660046118f6565b611529565b6002546102939061010090046001600160a01b031681565b6040516001600160a01b039091168152602001610156565b60025460ff16156102d75760405162461bcd60e51b81526004016102ce90611af4565b60405180910390fd5b600080600380548060200260200160405190810160405280929190818152602001828054801561032657602002820191906000526020600020905b815481526020019060010190808311610312575b5050505050905060008151905060008167ffffffffffffffff81111561035c57634e487b7160e01b600052604160045260246000fd5b604051908082528060200260200182016040528015610385578160200160208202803683370190505b50905060005b828110156105345760008482815181106103b557634e487b7160e01b600052603260045260246000fd5b60200260200101519050600080600260019054906101000a90046001600160a01b03166001600160a01b03166356397c356040518163ffffffff1660e01b815260040160206040518083038186803b15801561041057600080fd5b505afa158015610424573d6000803e3d6000fd5b505050506040513d601f19601f820116820180604052508101906104489190611912565b6001600160a01b0316637d5422a7846040518263ffffffff1660e01b815260040161047591815260200190565b60c06040518083038186803b15801561048d57600080fd5b505afa1580156104a1573d6000803e3d6000fd5b505050506040513d601f19601f820116820180604052508101906104c59190611a48565b505050925092505060006104e2828461155f90919063ffffffff16565b90506104ee818a611b6c565b98508086868151811061051157634e487b7160e01b600052603260045260246000fd5b60200260200101818152505050505050808061052c90611bda565b91505061038b565b5060005b8281101561075f57600084828151811061056257634e487b7160e01b600052603260045260246000fd5b60200260200101519050600083838151811061058e57634e487b7160e01b600052603260045260246000fd5b60200260200101519050600087826004546105a99190611ba4565b6105b39190611b84565b60025460405163f084b66960e01b81526004810186905270189bdb99125cdcdd595912dcd9141bdbdb607a1b60248201529192506000916101009091046001600160a01b03169063f084b6699060440160206040518083038186803b15801561061b57600080fd5b505afa15801561062f573d6000803e3d6000fd5b505050506040513d601f19601f820116820180604052508101906106539190611912565b9050600260019054906101000a90046001600160a01b03166001600160a01b031663e127f9466040518163ffffffff1660e01b815260040160206040518083038186803b1580156106a357600080fd5b505afa1580156106b7573d6000803e3d6000fd5b505050506040513d601f19601f820116820180604052508101906106db9190611912565b600554604051638308d7e960e01b81526001600160a01b038481166004830152602482018690526044820192909252911690638308d7e990606401600060405180830381600087803b15801561073057600080fd5b505af1158015610744573d6000803e3d6000fd5b5050505050505050808061075790611bda565b915050610538565b5050505050565b600054610100900460ff168061077b5750303b155b80610789575060005460ff16155b6107a55760405162461bcd60e51b81526004016102ce90611b1e565b600054610100900460ff161580156107c7576000805461ffff19166101011790555b6107cf611633565b80156107e1576000805461ff00191690555b50565b60008281526001602081905260409091200154610801813361169c565b61080b8383611700565b505050565b6001600160a01b03811633146108805760405162461bcd60e51b815260206004820152602f60248201527f416363657373436f6e74726f6c3a2063616e206f6e6c792072656e6f756e636560448201526e103937b632b9903337b91039b2b63360891b60648201526084016102ce565b61088a828261176b565b5050565b60025460ff166108d75760405162461bcd60e51b815260206004820152601460248201527314185d5cd8589b194e881b9bdd081c185d5cd95960621b60448201526064016102ce565b653830bab9b2b960d11b6108eb813361169c565b6002805460ff191690556040513381527f5db9ee0a495bf2e6ff9c91a7834c1ba4fdd244a5e8aa4e537bd38aeae4b073aa906020015b60405180910390a150565b61093e6430b236b4b760d91b3361169c565b60025460ff16156109615760405162461bcd60e51b81526004016102ce90611af4565b60008060038054806020026020016040519081016040528092919081815260200182805480156109b057602002820191906000526020600020905b81548152602001906001019080831161099c575b505083519394506000925050505b81811015610a0c5783806109f857508c8382815181106109ee57634e487b7160e01b600052603260045260246000fd5b6020026020010151145b935080610a0481611bda565b9150506109be565b5082610a4857600380546001810182556000919091527fc2575a0e9e593c00f959f8c92f12db2869c3395a3b0502d05e2516446f71f85b018c90555b600260019054906101000a90046001600160a01b03166001600160a01b031663a9345fa88d643a37b5b2b760d91b8e6040518463ffffffff1660e01b8152600401610a9593929190611ad5565b600060405180830381600087803b158015610aaf57600080fd5b505af1158015610ac3573d6000803e3d6000fd5b50506002546040516315268bf560e31b81526101009091046001600160a01b0316925063a9345fa89150610b06908f9063189bdb9960e21b908f90600401611ad5565b600060405180830381600087803b158015610b2057600080fd5b505af1158015610b34573d6000803e3d6000fd5b50506002546040516315268bf560e31b81526101009091046001600160a01b0316925063a9345fa89150610b83908f906f626f6e6441756374696f6e486f75736560801b908e90600401611ad5565b600060405180830381600087803b158015610b9d57600080fd5b505af1158015610bb1573d6000803e3d6000fd5b50506002546040516315268bf560e31b81526101009091046001600160a01b0316925063a9345fa89150610bf8908f9067189bdb991199595960c21b908d90600401611ad5565b600060405180830381600087803b158015610c1257600080fd5b505af1158015610c26573d6000803e3d6000fd5b50506002546040516315268bf560e31b81526101009091046001600160a01b0316925063a9345fa89150610c76908f9070189bdb99125cdcdd595912dcd9141bdbdb607a1b908c90600401611ad5565b600060405180830381600087803b158015610c9057600080fd5b505af1158015610ca4573d6000803e3d6000fd5b50506002546040516315268bf560e31b81526101009091046001600160a01b0316925063a9345fa89150610cef908f906b626f6e645363686564756c6560a01b908b90600401611ad5565b600060405180830381600087803b158015610d0957600080fd5b505af1158015610d1d573d6000803e3d6000fd5b50506002546040516315268bf560e31b81526101009091046001600160a01b0316925063a9345fa89150610d63908f90666761746577617960c81b908a90600401611ad5565b600060405180830381600087803b158015610d7d57600080fd5b505af1158015610d91573d6000803e3d6000fd5b50506002546040516315268bf560e31b81526101009091046001600160a01b0316925063a9345fa89150610ddc908f906b7969656c64466163746f727960a01b908990600401611ad5565b600060405180830381600087803b158015610df657600080fd5b505af1158015610e0a573d6000803e3d6000fd5b50505050505050505050505050505050565b60025460ff1615610e3f5760405162461bcd60e51b81526004016102ce90611af4565b653830bab9b2b960d11b610e53813361169c565b6002805460ff191660011790556040513381527f62e78cea01bee320cd4e420270b5ea74000d11b0c9f74754ebdbfc544b05a25890602001610921565b60008281526001602090815260408083206001600160a01b038516845290915290205460ff165b92915050565b610ecf6430b236b4b760d91b3361169c565b60025460ff1615610ef25760405162461bcd60e51b81526004016102ce90611af4565b60035460005b81811015610fe2578260038281548110610f2257634e487b7160e01b600052603260045260246000fd5b90600052602060002001541415610fd0576003610f40600184611bc3565b81548110610f5e57634e487b7160e01b600052603260045260246000fd5b906000526020600020015460038281548110610f8a57634e487b7160e01b600052603260045260246000fd5b6000918252602090912001556003805480610fb557634e487b7160e01b600052603160045260246000fd5b60019003818190600052602060002001600090559055610fe2565b80610fda81611bda565b915050610ef8565b506002546040516315268bf560e31b81526101009091046001600160a01b03169063a9345fa890611024908590643a37b5b2b760d91b90600090600401611ad5565b600060405180830381600087803b15801561103e57600080fd5b505af1158015611052573d6000803e3d6000fd5b50506002546040516315268bf560e31b81526101009091046001600160a01b0316925063a9345fa8915061109690859063189bdb9960e21b90600090600401611ad5565b600060405180830381600087803b1580156110b057600080fd5b505af11580156110c4573d6000803e3d6000fd5b50506002546040516315268bf560e31b81526101009091046001600160a01b0316925063a9345fa891506111149085906f626f6e6441756374696f6e486f75736560801b90600090600401611ad5565b600060405180830381600087803b15801561112e57600080fd5b505af1158015611142573d6000803e3d6000fd5b50506002546040516315268bf560e31b81526101009091046001600160a01b0316925063a9345fa8915061118a90859067189bdb991199595960c21b90600090600401611ad5565b600060405180830381600087803b1580156111a457600080fd5b505af11580156111b8573d6000803e3d6000fd5b50506002546040516315268bf560e31b81526101009091046001600160a01b0316925063a9345fa8915061120990859070189bdb99125cdcdd595912dcd9141bdbdb607a1b90600090600401611ad5565b600060405180830381600087803b15801561122357600080fd5b505af1158015611237573d6000803e3d6000fd5b50506002546040516315268bf560e31b81526101009091046001600160a01b0316925063a9345fa891506112839085906b626f6e645363686564756c6560a01b90600090600401611ad5565b600060405180830381600087803b15801561129d57600080fd5b505af11580156112b1573d6000803e3d6000fd5b50506002546040516315268bf560e31b81526101009091046001600160a01b0316925063a9345fa891506112f8908590666761746577617960c81b90600090600401611ad5565b600060405180830381600087803b15801561131257600080fd5b505af1158015611326573d6000803e3d6000fd5b50506002546040516315268bf560e31b81526101009091046001600160a01b0316925063a9345fa891506113729085906b7969656c64466163746f727960a01b90600090600401611ad5565b600060405180830381600087803b15801561138c57600080fd5b505af11580156113a0573d6000803e3d6000fd5b505050505050565b606060038054806020026020016040519081016040528092919081815260200182805480156113f657602002820191906000526020600020905b8154815260200190600101908083116113e2575b5050505050905090565b6114126430b236b4b760d91b3361169c565b816a61646472657373426f6f6b60a81b141561144d5760028054610100600160a81b0319166101006001600160a01b0384160217905561088a565b60405162461bcd60e51b815260206004820152602860248201527f436f6e666967757261746f723a3a636f6e6669673a20756e7265636f676e697a60448201526765642d706172616d60c01b60648201526084016102ce565b600082815260016020819052604090912001546114c3813361169c565b61080b838361176b565b6114df6430b236b4b760d91b3361169c565b817f746f74616c4973737565644b7364416c6c6f63506f696e740000000000000000141561151157600481905561088a565b816266656560e81b141561144d57600581905561088a565b61153b6437bbb732b960d91b3361169c565b61154d6437bbb732b960d91b82611700565b6107e16437bbb732b960d91b3361176b565b600082158061156c575081155b1561157957506000610eb7565b8161159160026b033b2e3c9fd0803ce8000000611b84565b61159d90600019611bc3565b6115a79190611b84565b8311156115f65760405162461bcd60e51b815260206004820152601c60248201527f5761645261794d6174683a3a7261794d756c3a206f766572666c6f770000000060448201526064016102ce565b6b033b2e3c9fd0803ce800000061160e600282611b84565b6116188486611ba4565b6116229190611b6c565b61162c9190611b84565b9392505050565b600054610100900460ff16806116485750303b155b80611656575060005460ff16155b6116725760405162461bcd60e51b81526004016102ce90611b1e565b600054610100900460ff16158015611694576000805461ffff19166101011790555b6107cf6117d2565b6116a68282610e90565b61088a5760405162461bcd60e51b815260206004820152602560248201527f416363657373436f6e74726f6c3a5f636865636b526f6c653a696e76616c696460448201526420726f6c6560d81b60648201526084016102ce565b61170a8282610e90565b61088a5760008281526001602081815260408084206001600160a01b0386168086529252808420805460ff19169093179092559051339285917f2f8788117e7eff1d82e926ec794901d17c78024a50270940304540a733656f0d9190a45050565b6117758282610e90565b1561088a5760008281526001602090815260408083206001600160a01b0385168085529252808320805460ff1916905551339285917ff6391f5c32d9c69d2a47ea670b442974b53935d1edc7fd64eb21e047a839171b9190a45050565b600054610100900460ff16806117e75750303b155b806117f5575060005460ff16155b6118115760405162461bcd60e51b81526004016102ce90611b1e565b600054610100900460ff16158015611833576000805461ffff19166101011790555b6118456437bbb732b960d91b3361189f565b61185f6430b236b4b760d91b6437bbb732b960d91b6118a9565b61187c6737b832b930ba37b960c11b6437bbb732b960d91b6118a9565b61188e6430b236b4b760d91b3361189f565b6107cf6737b832b930ba37b960c11b335b61088a8282611700565b6000828152600160208190526040808320909101805490849055905190918391839186917fbd79b86ffe0ab8e8776151514217cd7cacd52c909f66475c3af44e129f0b00ff9190a4505050565b600060208284031215611907578081fd5b813561162c81611c0b565b600060208284031215611923578081fd5b815161162c81611c0b565b60006020828403121561193f578081fd5b5035919050565b60008060408385031215611958578081fd5b82359150602083013561196a81611c0b565b809150509250929050565b60008060008060008060008060006101208a8c031215611993578485fd5b8935985060208a01356119a581611c0b565b975060408a01356119b581611c0b565b965060608a01356119c581611c0b565b955060808a01356119d581611c0b565b945060a08a01356119e581611c0b565b935060c08a01356119f581611c0b565b925060e08a0135611a0581611c0b565b91506101008a0135611a1681611c0b565b809150509295985092959850929598565b60008060408385031215611a39578182fd5b50508035926020909101359150565b60008060008060008060c08789031215611a60578182fd5b865195506020870151945060408701519350606087015192506080870151915060a087015190509295509295509295565b6020808252825182820181905260009190848201906040850190845b81811015611ac957835183529284019291840191600101611aad565b50909695505050505050565b92835260208301919091526001600160a01b0316604082015260600190565b60208082526010908201526f14185d5cd8589b194e881c185d5cd95960821b604082015260600190565b6020808252602e908201527f496e697469616c697a61626c653a20636f6e747261637420697320616c72656160408201526d191e481a5b9a5d1a585b1a5e995960921b606082015260800190565b60008219821115611b7f57611b7f611bf5565b500190565b600082611b9f57634e487b7160e01b81526012600452602481fd5b500490565b6000816000190483118215151615611bbe57611bbe611bf5565b500290565b600082821015611bd557611bd5611bf5565b500390565b6000600019821415611bee57611bee611bf5565b5060010190565b634e487b7160e01b600052601160045260246000fd5b6001600160a01b03811681146107e157600080fdfea2646970667358221220c9a3d60da2107596d7cf15444b80c7f7ec4ef3069570e39956395e848732297864736f6c63430008030033",
  "devdoc": {
    "kind": "dev",
    "methods": {},
    "version": 1
  },
  "userdoc": {
    "kind": "user",
    "methods": {},
    "version": 1
  },
  "storageLayout": {
    "storage": [
      {
        "astId": 24885,
        "contract": "contracts/utils/Configurator.sol:Configurator",
        "label": "_initialized",
        "offset": 0,
        "slot": "0",
        "type": "t_bool"
      },
      {
        "astId": 24888,
        "contract": "contracts/utils/Configurator.sol:Configurator",
        "label": "_initializing",
        "offset": 1,
        "slot": "0",
        "type": "t_bool"
      },
      {
        "astId": 21831,
        "contract": "contracts/utils/Configurator.sol:Configurator",
        "label": "_roles",
        "offset": 0,
        "slot": "1",
        "type": "t_mapping(t_bytes32,t_struct(RoleData)21826_storage)"
      },
      {
        "astId": 22221,
        "contract": "contracts/utils/Configurator.sol:Configurator",
        "label": "_paused",
        "offset": 0,
        "slot": "2",
        "type": "t_bool"
      },
      {
        "astId": 35505,
        "contract": "contracts/utils/Configurator.sol:Configurator",
        "label": "addressBook",
        "offset": 1,
        "slot": "2",
        "type": "t_contract(IAddressBook)6869"
      },
      {
        "astId": 35508,
        "contract": "contracts/utils/Configurator.sol:Configurator",
        "label": "_collateralTypeList",
        "offset": 0,
        "slot": "3",
        "type": "t_array(t_bytes32)dyn_storage"
      },
      {
        "astId": 35510,
        "contract": "contracts/utils/Configurator.sol:Configurator",
        "label": "totalIssuedKsdAllocPoint",
        "offset": 0,
        "slot": "4",
        "type": "t_uint256"
      },
      {
        "astId": 35512,
        "contract": "contracts/utils/Configurator.sol:Configurator",
        "label": "fee",
        "offset": 0,
        "slot": "5",
        "type": "t_uint256"
      }
    ],
    "types": {
      "t_address": {
        "encoding": "inplace",
        "label": "address",
        "numberOfBytes": "20"
      },
      "t_array(t_bytes32)dyn_storage": {
        "base": "t_bytes32",
        "encoding": "dynamic_array",
        "label": "bytes32[]",
        "numberOfBytes": "32"
      },
      "t_bool": {
        "encoding": "inplace",
        "label": "bool",
        "numberOfBytes": "1"
      },
      "t_bytes32": {
        "encoding": "inplace",
        "label": "bytes32",
        "numberOfBytes": "32"
      },
      "t_contract(IAddressBook)6869": {
        "encoding": "inplace",
        "label": "contract IAddressBook",
        "numberOfBytes": "20"
      },
      "t_mapping(t_address,t_bool)": {
        "encoding": "mapping",
        "key": "t_address",
        "label": "mapping(address => bool)",
        "numberOfBytes": "32",
        "value": "t_bool"
      },
      "t_mapping(t_bytes32,t_struct(RoleData)21826_storage)": {
        "encoding": "mapping",
        "key": "t_bytes32",
        "label": "mapping(bytes32 => struct AccessControl.RoleData)",
        "numberOfBytes": "32",
        "value": "t_struct(RoleData)21826_storage"
      },
      "t_struct(RoleData)21826_storage": {
        "encoding": "inplace",
        "label": "struct AccessControl.RoleData",
        "members": [
          {
            "astId": 21823,
            "contract": "contracts/utils/Configurator.sol:Configurator",
            "label": "members",
            "offset": 0,
            "slot": "0",
            "type": "t_mapping(t_address,t_bool)"
          },
          {
            "astId": 21825,
            "contract": "contracts/utils/Configurator.sol:Configurator",
            "label": "adminRole",
            "offset": 0,
            "slot": "1",
            "type": "t_bytes32"
          }
        ],
        "numberOfBytes": "64"
      },
      "t_uint256": {
        "encoding": "inplace",
        "label": "uint256",
        "numberOfBytes": "32"
      }
    }
  }
}