{
  "address": "0x2930c336D59407c0830cF853De325eDA73Dd8CB5",
  "abi": [
    {
      "inputs": [
        {
          "internalType": "address",
          "name": "",
          "type": "address"
        }
      ],
      "name": "balanceOf",
      "outputs": [
        {
          "internalType": "uint256",
          "name": "",
          "type": "uint256"
        }
      ],
      "stateMutability": "view",
      "type": "function"
    },
    {
      "inputs": [],
      "name": "totalSupply",
      "outputs": [
        {
          "internalType": "uint256",
          "name": "",
          "type": "uint256"
        }
      ],
      "stateMutability": "view",
      "type": "function"
    }
  ],
  "transactionHash": "0xaf62a4fc3fd7533b08e90805f88466d4d6cb22b7cd155129ac234235f329558d",
  "args": [],
  "solcInputHash": "55681ae17e7a07ac2e2779a20244fd0c",
  "bytecode": "0x608060405234801561001057600080fd5b5060d08061001f6000396000f3fe6080604052348015600f57600080fd5b506004361060325760003560e01c806318160ddd14603757806370a08231146051575b600080fd5b603f60005481565b60405190815260200160405180910390f35b603f605c366004606e565b60016020526000908152604090205481565b600060208284031215607e578081fd5b81356001600160a01b03811681146093578182fd5b939250505056fea26469706673582212203b00aa64a0bcce6b259c14c115f7a7728011be90bcbd21b0d8ab4b1b6b407a9e64736f6c63430008030033",
  "devdoc": {
    "kind": "dev",
    "methods": {},
    "version": 1
  },
  "userdoc": {
    "kind": "user",
    "methods": {},
    "version": 1
  },
  "storageLayout": {
    "storage": [
      {
        "astId": 34095,
        "contract": "contracts/reward/pool/DeadStakingPool.sol:DeadStakingPool",
        "label": "totalSupply",
        "offset": 0,
        "slot": "0",
        "type": "t_uint256"
      },
      {
        "astId": 34100,
        "contract": "contracts/reward/pool/DeadStakingPool.sol:DeadStakingPool",
        "label": "balanceOf",
        "offset": 0,
        "slot": "1",
        "type": "t_mapping(t_address,t_uint256)"
      }
    ],
    "types": {
      "t_address": {
        "encoding": "inplace",
        "label": "address",
        "numberOfBytes": "20"
      },
      "t_mapping(t_address,t_uint256)": {
        "encoding": "mapping",
        "key": "t_address",
        "label": "mapping(address => uint256)",
        "numberOfBytes": "32",
        "value": "t_uint256"
      },
      "t_uint256": {
        "encoding": "inplace",
        "label": "uint256",
        "numberOfBytes": "32"
      }
    }
  }
}