{
  "address": "0xE3701b8ddc44322d1704498cEe5E6c084491A011",
  "abi": [
    {
      "anonymous": false,
      "inputs": [
        {
          "indexed": false,
          "internalType": "address",
          "name": "account",
          "type": "address"
        }
      ],
      "name": "Paused",
      "type": "event"
    },
    {
      "anonymous": false,
      "inputs": [
        {
          "indexed": true,
          "internalType": "bytes32",
          "name": "role",
          "type": "bytes32"
        },
        {
          "indexed": true,
          "internalType": "bytes32",
          "name": "previousAdminRole",
          "type": "bytes32"
        },
        {
          "indexed": true,
          "internalType": "bytes32",
          "name": "newAdminRole",
          "type": "bytes32"
        }
      ],
      "name": "RoleAdminChanged",
      "type": "event"
    },
    {
      "anonymous": false,
      "inputs": [
        {
          "indexed": true,
          "internalType": "bytes32",
          "name": "role",
          "type": "bytes32"
        },
        {
          "indexed": true,
          "internalType": "address",
          "name": "account",
          "type": "address"
        },
        {
          "indexed": true,
          "internalType": "address",
          "name": "sender",
          "type": "address"
        }
      ],
      "name": "RoleGranted",
      "type": "event"
    },
    {
      "anonymous": false,
      "inputs": [
        {
          "indexed": true,
          "internalType": "bytes32",
          "name": "role",
          "type": "bytes32"
        },
        {
          "indexed": true,
          "internalType": "address",
          "name": "account",
          "type": "address"
        },
        {
          "indexed": true,
          "internalType": "address",
          "name": "sender",
          "type": "address"
        }
      ],
      "name": "RoleRevoked",
      "type": "event"
    },
    {
      "anonymous": false,
      "inputs": [
        {
          "indexed": false,
          "internalType": "address",
          "name": "account",
          "type": "address"
        }
      ],
      "name": "Unpaused",
      "type": "event"
    },
    {
      "inputs": [],
      "name": "DEFAULT_ADMIN_ROLE",
      "outputs": [
        {
          "internalType": "bytes32",
          "name": "",
          "type": "bytes32"
        }
      ],
      "stateMutability": "view",
      "type": "function"
    },
    {
      "inputs": [],
      "name": "__Emergency_init",
      "outputs": [],
      "stateMutability": "nonpayable",
      "type": "function"
    },
    {
      "inputs": [],
      "name": "bklay",
      "outputs": [
        {
          "internalType": "address",
          "name": "",
          "type": "address"
        }
      ],
      "stateMutability": "view",
      "type": "function"
    },
    {
      "inputs": [
        {
          "internalType": "bytes32",
          "name": "collateralType",
          "type": "bytes32"
        },
        {
          "internalType": "bytes32",
          "name": "what",
          "type": "bytes32"
        },
        {
          "internalType": "address",
          "name": "data",
          "type": "address"
        }
      ],
      "name": "config",
      "outputs": [],
      "stateMutability": "nonpayable",
      "type": "function"
    },
    {
      "inputs": [
        {
          "internalType": "bytes32",
          "name": "what",
          "type": "bytes32"
        },
        {
          "internalType": "address",
          "name": "data",
          "type": "address"
        }
      ],
      "name": "config",
      "outputs": [],
      "stateMutability": "nonpayable",
      "type": "function"
    },
    {
      "inputs": [],
      "name": "dksd",
      "outputs": [
        {
          "internalType": "address",
          "name": "",
          "type": "address"
        }
      ],
      "stateMutability": "view",
      "type": "function"
    },
    {
      "inputs": [
        {
          "internalType": "bytes32",
          "name": "role",
          "type": "bytes32"
        }
      ],
      "name": "getRoleAdmin",
      "outputs": [
        {
          "internalType": "bytes32",
          "name": "",
          "type": "bytes32"
        }
      ],
      "stateMutability": "view",
      "type": "function"
    },
    {
      "inputs": [
        {
          "internalType": "bytes32",
          "name": "role",
          "type": "bytes32"
        },
        {
          "internalType": "address",
          "name": "account",
          "type": "address"
        }
      ],
      "name": "grantRole",
      "outputs": [],
      "stateMutability": "nonpayable",
      "type": "function"
    },
    {
      "inputs": [
        {
          "internalType": "bytes32",
          "name": "role",
          "type": "bytes32"
        },
        {
          "internalType": "address",
          "name": "account",
          "type": "address"
        }
      ],
      "name": "hasRole",
      "outputs": [
        {
          "internalType": "bool",
          "name": "",
          "type": "bool"
        }
      ],
      "stateMutability": "view",
      "type": "function"
    },
    {
      "inputs": [],
      "name": "kokoa",
      "outputs": [
        {
          "internalType": "address",
          "name": "",
          "type": "address"
        }
      ],
      "stateMutability": "view",
      "type": "function"
    },
    {
      "inputs": [],
      "name": "ksd",
      "outputs": [
        {
          "internalType": "address",
          "name": "",
          "type": "address"
        }
      ],
      "stateMutability": "view",
      "type": "function"
    },
    {
      "inputs": [],
      "name": "ledger",
      "outputs": [
        {
          "internalType": "address",
          "name": "",
          "type": "address"
        }
      ],
      "stateMutability": "view",
      "type": "function"
    },
    {
      "inputs": [],
      "name": "liquidator",
      "outputs": [
        {
          "internalType": "address",
          "name": "",
          "type": "address"
        }
      ],
      "stateMutability": "view",
      "type": "function"
    },
    {
      "inputs": [],
      "name": "minusBank",
      "outputs": [
        {
          "internalType": "address",
          "name": "",
          "type": "address"
        }
      ],
      "stateMutability": "view",
      "type": "function"
    },
    {
      "inputs": [],
      "name": "oracle",
      "outputs": [
        {
          "internalType": "address",
          "name": "",
          "type": "address"
        }
      ],
      "stateMutability": "view",
      "type": "function"
    },
    {
      "inputs": [],
      "name": "pause",
      "outputs": [],
      "stateMutability": "nonpayable",
      "type": "function"
    },
    {
      "inputs": [],
      "name": "pauseAll",
      "outputs": [],
      "stateMutability": "nonpayable",
      "type": "function"
    },
    {
      "inputs": [
        {
          "internalType": "bytes32",
          "name": "collateralType",
          "type": "bytes32"
        }
      ],
      "name": "pauseCollateral",
      "outputs": [],
      "stateMutability": "nonpayable",
      "type": "function"
    },
    {
      "inputs": [],
      "name": "paused",
      "outputs": [
        {
          "internalType": "bool",
          "name": "",
          "type": "bool"
        }
      ],
      "stateMutability": "view",
      "type": "function"
    },
    {
      "inputs": [
        {
          "internalType": "bytes32",
          "name": "role",
          "type": "bytes32"
        },
        {
          "internalType": "address",
          "name": "account",
          "type": "address"
        }
      ],
      "name": "renounceRole",
      "outputs": [],
      "stateMutability": "nonpayable",
      "type": "function"
    },
    {
      "inputs": [
        {
          "internalType": "bytes32",
          "name": "role",
          "type": "bytes32"
        },
        {
          "internalType": "address",
          "name": "account",
          "type": "address"
        }
      ],
      "name": "revokeRole",
      "outputs": [],
      "stateMutability": "nonpayable",
      "type": "function"
    },
    {
      "inputs": [],
      "name": "skokoa",
      "outputs": [
        {
          "internalType": "address",
          "name": "",
          "type": "address"
        }
      ],
      "stateMutability": "view",
      "type": "function"
    },
    {
      "inputs": [
        {
          "internalType": "address",
          "name": "newOwner",
          "type": "address"
        }
      ],
      "name": "transferOwnership",
      "outputs": [],
      "stateMutability": "nonpayable",
      "type": "function"
    },
    {
      "inputs": [],
      "name": "unpause",
      "outputs": [],
      "stateMutability": "nonpayable",
      "type": "function"
    },
    {
      "inputs": [],
      "name": "when",
      "outputs": [
        {
          "internalType": "uint256",
          "name": "",
          "type": "uint256"
        }
      ],
      "stateMutability": "view",
      "type": "function"
    }
  ],
  "transactionHash": "0xfc5ae77a41c37219aed918eef4ce5593f5093cc74c70f18a2e93a8d17f1c0f0c",
  "args": [],
  "solcInputHash": "daac9cba34dfabe5953ff704314717f0",
  "bytecode": "0x608060405234801561001057600080fd5b50611218806100206000396000f3fe608060405234801561001057600080fd5b50600436106101735760003560e01c806391d14854116100de578063c647e0dd11610097578063e017335511610071578063e017335514610306578063e2b0caef14610319578063f2fde38b14610322578063f724aaa71461033557610173565b8063c647e0dd146102cd578063d366f3b9146102e0578063d547741f146102f357610173565b806391d1485414610266578063a217fddf14610279578063a333330914610281578063a6d5f10314610294578063a9345fa8146102a7578063b38e66f1146102ba57610173565b8063595c6a6711610130578063595c6a671461020c5780635c975abb146102145780636717446e1461022b5780636abaa908146102335780637dc0d1d01461024b5780638456cb591461025e57610173565b8063248a9ca3146101785780632f2ff15d1461019e57806336568abe146101b35780633f4ba83a146101c65780634046ebae146101ce57806356397c35146101f9575b600080fd5b61018b6101863660046110f3565b610348565b6040519081526020015b60405180910390f35b6101b16101ac36600461110b565b610361565b005b6101b16101c136600461110b565b610383565b6101b1610406565b6008546101e1906001600160a01b031681565b6040516001600160a01b039091168152602001610195565b6007546101e1906001600160a01b031681565b6101b16104a4565b60025460ff165b6040519015158152602001610195565b6101b161088a565b6002546101e19061010090046001600160a01b031681565b600a546101e1906001600160a01b031681565b6101b1610908565b61021b61027436600461110b565b61097c565b61018b600081565b6003546101e1906001600160a01b031681565b6004546101e1906001600160a01b031681565b6101b16102b5366004611136565b6109a7565b6005546101e1906001600160a01b031681565b6009546101e1906001600160a01b031681565b6101b16102ee36600461110b565b610a73565b6101b161030136600461110b565b610c66565b6006546101e1906001600160a01b031681565b61018b600c5481565b6101b16103303660046110d2565b610c83565b6101b16103433660046110f3565b610cb9565b600081815260016020819052604090912001545b919050565b61036a82610348565b6103748133610d55565b61037e8383610db9565b505050565b6001600160a01b03811633146103f85760405162461bcd60e51b815260206004820152602f60248201527f416363657373436f6e74726f6c3a2063616e206f6e6c792072656e6f756e636560448201526e103937b632b9903337b91039b2b63360891b60648201526084015b60405180910390fd5b6104028282610e24565b5050565b60025460ff1661044f5760405162461bcd60e51b815260206004820152601460248201527314185d5cd8589b194e881b9bdd081c185d5cd95960621b60448201526064016103ef565b653830bab9b2b960d11b6104638133610d55565b6002805460ff191690556040513381527f5db9ee0a495bf2e6ff9c91a7834c1ba4fdd244a5e8aa4e537bd38aeae4b073aa906020015b60405180910390a150565b6104b66437bbb732b960d91b33610d55565b60025460ff16156104d95760405162461bcd60e51b81526004016103ef9061116a565b42600c556104ed636b6c617960e01b610cb9565b600260019054906101000a90046001600160a01b03166001600160a01b0316638456cb596040518163ffffffff1660e01b8152600401600060405180830381600087803b15801561053d57600080fd5b505af1158015610551573d6000803e3d6000fd5b50505050600360009054906101000a90046001600160a01b03166001600160a01b0316638456cb596040518163ffffffff1660e01b8152600401600060405180830381600087803b1580156105a557600080fd5b505af11580156105b9573d6000803e3d6000fd5b50506004805460408051638456cb5960e01b815290516001600160a01b039092169450638456cb599350808301926000929182900301818387803b15801561060057600080fd5b505af1158015610614573d6000803e3d6000fd5b50505050600560009054906101000a90046001600160a01b03166001600160a01b0316638456cb596040518163ffffffff1660e01b8152600401600060405180830381600087803b15801561066857600080fd5b505af115801561067c573d6000803e3d6000fd5b50505050600660009054906101000a90046001600160a01b03166001600160a01b0316638456cb596040518163ffffffff1660e01b8152600401600060405180830381600087803b1580156106d057600080fd5b505af11580156106e4573d6000803e3d6000fd5b50505050600760009054906101000a90046001600160a01b03166001600160a01b0316638456cb596040518163ffffffff1660e01b8152600401600060405180830381600087803b15801561073857600080fd5b505af115801561074c573d6000803e3d6000fd5b50505050600860009054906101000a90046001600160a01b03166001600160a01b0316638456cb596040518163ffffffff1660e01b8152600401600060405180830381600087803b1580156107a057600080fd5b505af11580156107b4573d6000803e3d6000fd5b50505050600960009054906101000a90046001600160a01b03166001600160a01b0316638456cb596040518163ffffffff1660e01b8152600401600060405180830381600087803b15801561080857600080fd5b505af115801561081c573d6000803e3d6000fd5b50505050600a60009054906101000a90046001600160a01b03166001600160a01b0316638456cb596040518163ffffffff1660e01b8152600401600060405180830381600087803b15801561087057600080fd5b505af1158015610884573d6000803e3d6000fd5b50505050565b600054610100900460ff168061089f5750303b155b806108ad575060005460ff16155b6108c95760405162461bcd60e51b81526004016103ef90611194565b600054610100900460ff161580156108eb576000805461ffff19166101011790555b6108f3610e8b565b8015610905576000805461ff00191690555b50565b60025460ff161561092b5760405162461bcd60e51b81526004016103ef9061116a565b653830bab9b2b960d11b61093f8133610d55565b6002805460ff191660011790556040513381527f62e78cea01bee320cd4e420270b5ea74000d11b0c9f74754ebdbfc544b05a25890602001610499565b60009182526001602090815260408084206001600160a01b0393909316845291905290205460ff1690565b6109b96437bbb732b960d91b33610d55565b60025460ff16156109dc5760405162461bcd60e51b81526004016103ef9061116a565b816b61756374696f6e486f75736560a01b1415610a1f576000838152600b6020526040902080546001600160a01b0319166001600160a01b03831617905561037e565b60405162461bcd60e51b8152602060048201526024808201527f456d657267656e63793a3a636f6e6669673a756e7265636f676e697a65642d706044820152636172616d60e01b60648201526084016103ef565b610a856437bbb732b960d91b33610d55565b60025460ff1615610aa85760405162461bcd60e51b81526004016103ef9061116a565b81646b6f6b6f6160d81b1415610add5760028054610100600160a81b0319166101006001600160a01b03841602179055610402565b8165736b6f6b6f6160d01b1415610b0e57600380546001600160a01b0319166001600160a01b038316179055610402565b81621adcd960ea1b1415610b3c57600480546001600160a01b0319166001600160a01b038316179055610402565b8163191adcd960e21b1415610b6b57600580546001600160a01b0319166001600160a01b038316179055610402565b8164626b6c617960d81b1415610b9b57600680546001600160a01b0319166001600160a01b038316179055610402565b81653632b233b2b960d11b1415610bcc57600780546001600160a01b0319166001600160a01b038316179055610402565b81693634b8bab4b230ba37b960b11b1415610c0157600880546001600160a01b0319166001600160a01b038316179055610402565b81686d696e757342616e6b60b81b1415610c3557600980546001600160a01b0319166001600160a01b038316179055610402565b81656f7261636c6560d01b1415610a1f57600a80546001600160a01b0319166001600160a01b038316179055610402565b610c6f82610348565b610c798133610d55565b61037e8383610e24565b610c956437bbb732b960d91b33610d55565b610ca76437bbb732b960d91b82610db9565b6109056437bbb732b960d91b33610e24565b610ccb6437bbb732b960d91b33610d55565b60025460ff1615610cee5760405162461bcd60e51b81526004016103ef9061116a565b6000818152600b6020526040808220548151638456cb5960e01b815291516001600160a01b0390911692638456cb59926004808201939182900301818387803b158015610d3a57600080fd5b505af1158015610d4e573d6000803e3d6000fd5b5050505050565b610d5f828261097c565b6104025760405162461bcd60e51b815260206004820152602560248201527f416363657373436f6e74726f6c3a5f636865636b526f6c653a696e76616c696460448201526420726f6c6560d81b60648201526084016103ef565b610dc3828261097c565b6104025760008281526001602081815260408084206001600160a01b0386168086529252808420805460ff19169093179092559051339285917f2f8788117e7eff1d82e926ec794901d17c78024a50270940304540a733656f0d9190a45050565b610e2e828261097c565b156104025760008281526001602090815260408083206001600160a01b0385168085529252808320805460ff1916905551339285917ff6391f5c32d9c69d2a47ea670b442974b53935d1edc7fd64eb21e047a839171b9190a45050565b600054610100900460ff1680610ea05750303b155b80610eae575060005460ff16155b610eca5760405162461bcd60e51b81526004016103ef90611194565b600054610100900460ff16158015610eec576000805461ffff19166101011790555b610ef4610f22565b610f0f653830bab9b2b960d11b6437bbb732b960d91b610f8b565b6108f3653830bab9b2b960d11b33610fe0565b600054610100900460ff1680610f375750303b155b80610f45575060005460ff16155b610f615760405162461bcd60e51b81526004016103ef90611194565b600054610100900460ff16158015610f83576000805461ffff19166101011790555b6108f3610fea565b6000610f9683610348565b6000848152600160208190526040808320909101859055519192508391839186917fbd79b86ffe0ab8e8776151514217cd7cacd52c909f66475c3af44e129f0b00ff9190a4505050565b6104028282610db9565b600054610100900460ff1680610fff5750303b155b8061100d575060005460ff16155b6110295760405162461bcd60e51b81526004016103ef90611194565b600054610100900460ff1615801561104b576000805461ffff19166101011790555b61105d6437bbb732b960d91b33610fe0565b6110776430b236b4b760d91b6437bbb732b960d91b610f8b565b6110946737b832b930ba37b960c11b6437bbb732b960d91b610f8b565b6110a66430b236b4b760d91b33610fe0565b6108f36737b832b930ba37b960c11b33610fe0565b80356001600160a01b038116811461035c57600080fd5b6000602082840312156110e3578081fd5b6110ec826110bb565b9392505050565b600060208284031215611104578081fd5b5035919050565b6000806040838503121561111d578081fd5b8235915061112d602084016110bb565b90509250929050565b60008060006060848603121561114a578081fd5b8335925060208401359150611161604085016110bb565b90509250925092565b60208082526010908201526f14185d5cd8589b194e881c185d5cd95960821b604082015260600190565b6020808252602e908201527f496e697469616c697a61626c653a20636f6e747261637420697320616c72656160408201526d191e481a5b9a5d1a585b1a5e995960921b60608201526080019056fea2646970667358221220f2b01fd64d972a384b3850d02daa8f8da712484a42e352c3eabceea126fe460e64736f6c63430008030033",
  "devdoc": {
    "kind": "dev",
    "methods": {},
    "version": 1
  },
  "userdoc": {
    "kind": "user",
    "methods": {
      "pauseAll()": {
        "notice": "pause all registered contracts Therefore, this contract should have admin permission to pause other contract"
      }
    },
    "notice": "stops other contract and fix some state of contracts This code is a subset of MakerDAO's Emergency module.",
    "version": 1
  },
  "storageLayout": {
    "storage": [
      {
        "astId": 23220,
        "contract": "contracts/emergency/Emergency.sol:Emergency",
        "label": "_initialized",
        "offset": 0,
        "slot": "0",
        "type": "t_bool"
      },
      {
        "astId": 23223,
        "contract": "contracts/emergency/Emergency.sol:Emergency",
        "label": "_initializing",
        "offset": 1,
        "slot": "0",
        "type": "t_bool"
      },
      {
        "astId": 20166,
        "contract": "contracts/emergency/Emergency.sol:Emergency",
        "label": "_roles",
        "offset": 0,
        "slot": "1",
        "type": "t_mapping(t_bytes32,t_struct(RoleData)20161_storage)"
      },
      {
        "astId": 20556,
        "contract": "contracts/emergency/Emergency.sol:Emergency",
        "label": "_paused",
        "offset": 0,
        "slot": "2",
        "type": "t_bool"
      },
      {
        "astId": 3251,
        "contract": "contracts/emergency/Emergency.sol:Emergency",
        "label": "kokoa",
        "offset": 1,
        "slot": "2",
        "type": "t_address"
      },
      {
        "astId": 3253,
        "contract": "contracts/emergency/Emergency.sol:Emergency",
        "label": "skokoa",
        "offset": 0,
        "slot": "3",
        "type": "t_address"
      },
      {
        "astId": 3255,
        "contract": "contracts/emergency/Emergency.sol:Emergency",
        "label": "ksd",
        "offset": 0,
        "slot": "4",
        "type": "t_address"
      },
      {
        "astId": 3257,
        "contract": "contracts/emergency/Emergency.sol:Emergency",
        "label": "dksd",
        "offset": 0,
        "slot": "5",
        "type": "t_address"
      },
      {
        "astId": 3259,
        "contract": "contracts/emergency/Emergency.sol:Emergency",
        "label": "bklay",
        "offset": 0,
        "slot": "6",
        "type": "t_address"
      },
      {
        "astId": 3261,
        "contract": "contracts/emergency/Emergency.sol:Emergency",
        "label": "ledger",
        "offset": 0,
        "slot": "7",
        "type": "t_address"
      },
      {
        "astId": 3263,
        "contract": "contracts/emergency/Emergency.sol:Emergency",
        "label": "liquidator",
        "offset": 0,
        "slot": "8",
        "type": "t_address"
      },
      {
        "astId": 3265,
        "contract": "contracts/emergency/Emergency.sol:Emergency",
        "label": "minusBank",
        "offset": 0,
        "slot": "9",
        "type": "t_address"
      },
      {
        "astId": 3267,
        "contract": "contracts/emergency/Emergency.sol:Emergency",
        "label": "oracle",
        "offset": 0,
        "slot": "10",
        "type": "t_address"
      },
      {
        "astId": 3271,
        "contract": "contracts/emergency/Emergency.sol:Emergency",
        "label": "auctionHouse",
        "offset": 0,
        "slot": "11",
        "type": "t_mapping(t_bytes32,t_address)"
      },
      {
        "astId": 3273,
        "contract": "contracts/emergency/Emergency.sol:Emergency",
        "label": "when",
        "offset": 0,
        "slot": "12",
        "type": "t_uint256"
      }
    ],
    "types": {
      "t_address": {
        "encoding": "inplace",
        "label": "address",
        "numberOfBytes": "20"
      },
      "t_bool": {
        "encoding": "inplace",
        "label": "bool",
        "numberOfBytes": "1"
      },
      "t_bytes32": {
        "encoding": "inplace",
        "label": "bytes32",
        "numberOfBytes": "32"
      },
      "t_mapping(t_address,t_bool)": {
        "encoding": "mapping",
        "key": "t_address",
        "label": "mapping(address => bool)",
        "numberOfBytes": "32",
        "value": "t_bool"
      },
      "t_mapping(t_bytes32,t_address)": {
        "encoding": "mapping",
        "key": "t_bytes32",
        "label": "mapping(bytes32 => address)",
        "numberOfBytes": "32",
        "value": "t_address"
      },
      "t_mapping(t_bytes32,t_struct(RoleData)20161_storage)": {
        "encoding": "mapping",
        "key": "t_bytes32",
        "label": "mapping(bytes32 => struct AccessControl.RoleData)",
        "numberOfBytes": "32",
        "value": "t_struct(RoleData)20161_storage"
      },
      "t_struct(RoleData)20161_storage": {
        "encoding": "inplace",
        "label": "struct AccessControl.RoleData",
        "members": [
          {
            "astId": 20158,
            "contract": "contracts/emergency/Emergency.sol:Emergency",
            "label": "members",
            "offset": 0,
            "slot": "0",
            "type": "t_mapping(t_address,t_bool)"
          },
          {
            "astId": 20160,
            "contract": "contracts/emergency/Emergency.sol:Emergency",
            "label": "adminRole",
            "offset": 0,
            "slot": "1",
            "type": "t_bytes32"
          }
        ],
        "numberOfBytes": "64"
      },
      "t_uint256": {
        "encoding": "inplace",
        "label": "uint256",
        "numberOfBytes": "32"
      }
    }
  }
}