{
  "address": "0x10EE6a2cA32F8575301057aA2A078C2A75f268a8",
  "abi": [
    {
      "anonymous": false,
      "inputs": [
        {
          "indexed": true,
          "internalType": "bytes32",
          "name": "role",
          "type": "bytes32"
        },
        {
          "indexed": true,
          "internalType": "bytes32",
          "name": "previousAdminRole",
          "type": "bytes32"
        },
        {
          "indexed": true,
          "internalType": "bytes32",
          "name": "newAdminRole",
          "type": "bytes32"
        }
      ],
      "name": "RoleAdminChanged",
      "type": "event"
    },
    {
      "anonymous": false,
      "inputs": [
        {
          "indexed": true,
          "internalType": "bytes32",
          "name": "role",
          "type": "bytes32"
        },
        {
          "indexed": true,
          "internalType": "address",
          "name": "account",
          "type": "address"
        },
        {
          "indexed": true,
          "internalType": "address",
          "name": "sender",
          "type": "address"
        }
      ],
      "name": "RoleGranted",
      "type": "event"
    },
    {
      "anonymous": false,
      "inputs": [
        {
          "indexed": true,
          "internalType": "bytes32",
          "name": "role",
          "type": "bytes32"
        },
        {
          "indexed": true,
          "internalType": "address",
          "name": "account",
          "type": "address"
        },
        {
          "indexed": true,
          "internalType": "address",
          "name": "sender",
          "type": "address"
        }
      ],
      "name": "RoleRevoked",
      "type": "event"
    },
    {
      "inputs": [],
      "name": "DEFAULT_ADMIN_ROLE",
      "outputs": [
        {
          "internalType": "bytes32",
          "name": "",
          "type": "bytes32"
        }
      ],
      "stateMutability": "view",
      "type": "function"
    },
    {
      "inputs": [
        {
          "internalType": "contract IKokoaRewardManager",
          "name": "_kokoaRewardManager",
          "type": "address"
        },
        {
          "internalType": "contract IKSDRewardManager",
          "name": "_ksdRewardManager",
          "type": "address"
        },
        {
          "internalType": "contract ISKokoaToken",
          "name": "_sKokoa",
          "type": "address"
        },
        {
          "internalType": "contract ILedger",
          "name": "_ledger",
          "type": "address"
        }
      ],
      "name": "__Helpr_init",
      "outputs": [],
      "stateMutability": "nonpayable",
      "type": "function"
    },
    {
      "inputs": [
        {
          "internalType": "address",
          "name": "tokenA",
          "type": "address"
        },
        {
          "internalType": "uint256",
          "name": "amountA",
          "type": "uint256"
        },
        {
          "internalType": "address",
          "name": "tokenB",
          "type": "address"
        },
        {
          "internalType": "uint256",
          "name": "amountB",
          "type": "uint256"
        }
      ],
      "name": "addKctLiquidity",
      "outputs": [],
      "stateMutability": "nonpayable",
      "type": "function"
    },
    {
      "inputs": [
        {
          "internalType": "address",
          "name": "tokenA",
          "type": "address"
        },
        {
          "internalType": "uint256",
          "name": "amountA",
          "type": "uint256"
        },
        {
          "internalType": "address",
          "name": "tokenB",
          "type": "address"
        },
        {
          "internalType": "uint256",
          "name": "amountB",
          "type": "uint256"
        }
      ],
      "name": "addKctLiquidityWithPausedA",
      "outputs": [],
      "stateMutability": "nonpayable",
      "type": "function"
    },
    {
      "inputs": [
        {
          "internalType": "address",
          "name": "tokenA",
          "type": "address"
        },
        {
          "internalType": "uint256",
          "name": "amountA",
          "type": "uint256"
        },
        {
          "internalType": "address",
          "name": "tokenB",
          "type": "address"
        },
        {
          "internalType": "uint256",
          "name": "amountB",
          "type": "uint256"
        }
      ],
      "name": "addKctLiquidityWithPausedAll",
      "outputs": [],
      "stateMutability": "nonpayable",
      "type": "function"
    },
    {
      "inputs": [
        {
          "internalType": "address",
          "name": "tokenA",
          "type": "address"
        },
        {
          "internalType": "uint256",
          "name": "amountA",
          "type": "uint256"
        },
        {
          "internalType": "address",
          "name": "tokenB",
          "type": "address"
        },
        {
          "internalType": "uint256",
          "name": "amountB",
          "type": "uint256"
        }
      ],
      "name": "addKctLiquidityWithPausedB",
      "outputs": [],
      "stateMutability": "nonpayable",
      "type": "function"
    },
    {
      "inputs": [
        {
          "internalType": "address",
          "name": "token",
          "type": "address"
        },
        {
          "internalType": "uint256",
          "name": "amount",
          "type": "uint256"
        }
      ],
      "name": "addKlayLiquidity",
      "outputs": [],
      "stateMutability": "payable",
      "type": "function"
    },
    {
      "inputs": [
        {
          "internalType": "address",
          "name": "token",
          "type": "address"
        },
        {
          "internalType": "uint256",
          "name": "amount",
          "type": "uint256"
        }
      ],
      "name": "addKlayLiquidityWithPaused",
      "outputs": [],
      "stateMutability": "payable",
      "type": "function"
    },
    {
      "inputs": [],
      "name": "addressBook",
      "outputs": [
        {
          "internalType": "contract IAddressBook",
          "name": "",
          "type": "address"
        }
      ],
      "stateMutability": "view",
      "type": "function"
    },
    {
      "inputs": [],
      "name": "bklay",
      "outputs": [
        {
          "internalType": "contract IBKlay",
          "name": "",
          "type": "address"
        }
      ],
      "stateMutability": "view",
      "type": "function"
    },
    {
      "inputs": [
        {
          "internalType": "bytes32",
          "name": "what",
          "type": "bytes32"
        },
        {
          "internalType": "address",
          "name": "data",
          "type": "address"
        }
      ],
      "name": "config",
      "outputs": [],
      "stateMutability": "nonpayable",
      "type": "function"
    },
    {
      "inputs": [
        {
          "internalType": "address",
          "name": "tokenA",
          "type": "address"
        },
        {
          "internalType": "uint256",
          "name": "amountA",
          "type": "uint256"
        },
        {
          "internalType": "address",
          "name": "tokenB",
          "type": "address"
        },
        {
          "internalType": "uint256",
          "name": "amountB",
          "type": "uint256"
        }
      ],
      "name": "createKctPool",
      "outputs": [],
      "stateMutability": "nonpayable",
      "type": "function"
    },
    {
      "inputs": [
        {
          "internalType": "address",
          "name": "tokenA",
          "type": "address"
        },
        {
          "internalType": "uint256",
          "name": "amountA",
          "type": "uint256"
        },
        {
          "internalType": "address",
          "name": "tokenB",
          "type": "address"
        },
        {
          "internalType": "uint256",
          "name": "amountB",
          "type": "uint256"
        }
      ],
      "name": "createKctPoolWithPausedA",
      "outputs": [],
      "stateMutability": "nonpayable",
      "type": "function"
    },
    {
      "inputs": [
        {
          "internalType": "address",
          "name": "tokenA",
          "type": "address"
        },
        {
          "internalType": "uint256",
          "name": "amountA",
          "type": "uint256"
        },
        {
          "internalType": "address",
          "name": "tokenB",
          "type": "address"
        },
        {
          "internalType": "uint256",
          "name": "amountB",
          "type": "uint256"
        }
      ],
      "name": "createKctPoolWithPausedAll",
      "outputs": [],
      "stateMutability": "nonpayable",
      "type": "function"
    },
    {
      "inputs": [
        {
          "internalType": "address",
          "name": "tokenA",
          "type": "address"
        },
        {
          "internalType": "uint256",
          "name": "amountA",
          "type": "uint256"
        },
        {
          "internalType": "address",
          "name": "tokenB",
          "type": "address"
        },
        {
          "internalType": "uint256",
          "name": "amountB",
          "type": "uint256"
        }
      ],
      "name": "createKctPoolWithPausedB",
      "outputs": [],
      "stateMutability": "nonpayable",
      "type": "function"
    },
    {
      "inputs": [
        {
          "internalType": "address",
          "name": "token",
          "type": "address"
        },
        {
          "internalType": "uint256",
          "name": "amount",
          "type": "uint256"
        }
      ],
      "name": "createKlayPool",
      "outputs": [],
      "stateMutability": "payable",
      "type": "function"
    },
    {
      "inputs": [
        {
          "internalType": "address",
          "name": "token",
          "type": "address"
        },
        {
          "internalType": "uint256",
          "name": "amount",
          "type": "uint256"
        }
      ],
      "name": "createKlayPoolWithPaused",
      "outputs": [],
      "stateMutability": "payable",
      "type": "function"
    },
    {
      "inputs": [],
      "name": "dksd",
      "outputs": [
        {
          "internalType": "contract IKIP7",
          "name": "",
          "type": "address"
        }
      ],
      "stateMutability": "view",
      "type": "function"
    },
    {
      "inputs": [],
      "name": "factory",
      "outputs": [
        {
          "internalType": "contract IKlaytnFactory",
          "name": "",
          "type": "address"
        }
      ],
      "stateMutability": "view",
      "type": "function"
    },
    {
      "inputs": [
        {
          "internalType": "address",
          "name": "_user",
          "type": "address"
        },
        {
          "internalType": "bytes32[]",
          "name": "_collateralTypes",
          "type": "bytes32[]"
        }
      ],
      "name": "getAccountCollateralInfos",
      "outputs": [
        {
          "components": [
            {
              "internalType": "bytes32",
              "name": "collateralType",
              "type": "bytes32"
            },
            {
              "internalType": "uint256",
              "name": "lockedCollateral",
              "type": "uint256"
            },
            {
              "internalType": "uint256",
              "name": "loan",
              "type": "uint256"
            }
          ],
          "internalType": "struct Helper.AccountCollateralInfo[]",
          "name": "accountCollateralInfos",
          "type": "tuple[]"
        }
      ],
      "stateMutability": "view",
      "type": "function"
    },
    {
      "inputs": [],
      "name": "getDksdApr",
      "outputs": [
        {
          "internalType": "uint256",
          "name": "dksdApr",
          "type": "uint256"
        }
      ],
      "stateMutability": "view",
      "type": "function"
    },
    {
      "inputs": [
        {
          "internalType": "address",
          "name": "_user",
          "type": "address"
        }
      ],
      "name": "getKokoaClaimableRewards",
      "outputs": [
        {
          "components": [
            {
              "internalType": "address",
              "name": "addr",
              "type": "address"
            },
            {
              "internalType": "uint256",
              "name": "value",
              "type": "uint256"
            }
          ],
          "internalType": "struct Helper.AddressUint256Pair[]",
          "name": "claimableRewards",
          "type": "tuple[]"
        }
      ],
      "stateMutability": "view",
      "type": "function"
    },
    {
      "inputs": [
        {
          "internalType": "address",
          "name": "_user",
          "type": "address"
        }
      ],
      "name": "getKokoaClaimableRewardsWithBonus",
      "outputs": [
        {
          "components": [
            {
              "internalType": "address",
              "name": "addr",
              "type": "address"
            },
            {
              "internalType": "uint256",
              "name": "value",
              "type": "uint256"
            }
          ],
          "internalType": "struct Helper.AddressUint256Pair[]",
          "name": "claimableRewards",
          "type": "tuple[]"
        }
      ],
      "stateMutability": "view",
      "type": "function"
    },
    {
      "inputs": [
        {
          "internalType": "address",
          "name": "_user",
          "type": "address"
        },
        {
          "internalType": "bytes32[]",
          "name": "_collateralTypes",
          "type": "bytes32[]"
        }
      ],
      "name": "getKsdClaimableRefunds",
      "outputs": [
        {
          "components": [
            {
              "internalType": "bytes32",
              "name": "collateralType",
              "type": "bytes32"
            },
            {
              "internalType": "uint256",
              "name": "value",
              "type": "uint256"
            }
          ],
          "internalType": "struct Helper.Bytes32Uint256Pair[]",
          "name": "claimableRefunds",
          "type": "tuple[]"
        }
      ],
      "stateMutability": "view",
      "type": "function"
    },
    {
      "inputs": [
        {
          "internalType": "address",
          "name": "_user",
          "type": "address"
        }
      ],
      "name": "getKsdClaimableRewards",
      "outputs": [
        {
          "components": [
            {
              "internalType": "address",
              "name": "addr",
              "type": "address"
            },
            {
              "internalType": "uint256",
              "name": "value",
              "type": "uint256"
            }
          ],
          "internalType": "struct Helper.AddressUint256Pair[]",
          "name": "claimableRewards",
          "type": "tuple[]"
        }
      ],
      "stateMutability": "view",
      "type": "function"
    },
    {
      "inputs": [
        {
          "internalType": "address",
          "name": "_user",
          "type": "address"
        }
      ],
      "name": "getLatestKlayUnstakeHistory",
      "outputs": [
        {
          "components": [
            {
              "internalType": "uint256",
              "name": "index",
              "type": "uint256"
            },
            {
              "internalType": "uint256",
              "name": "amount",
              "type": "uint256"
            },
            {
              "internalType": "uint256",
              "name": "completionTime",
              "type": "uint256"
            },
            {
              "internalType": "bool",
              "name": "isClaimed",
              "type": "bool"
            }
          ],
          "internalType": "struct Helper.UnstakeRecord[]",
          "name": "unstakeHistory",
          "type": "tuple[]"
        }
      ],
      "stateMutability": "view",
      "type": "function"
    },
    {
      "inputs": [
        {
          "internalType": "address",
          "name": "_user",
          "type": "address"
        }
      ],
      "name": "getLatestKokoaUnstakeHistory",
      "outputs": [
        {
          "components": [
            {
              "internalType": "uint256",
              "name": "index",
              "type": "uint256"
            },
            {
              "internalType": "uint256",
              "name": "amount",
              "type": "uint256"
            },
            {
              "internalType": "uint256",
              "name": "completionTime",
              "type": "uint256"
            },
            {
              "internalType": "bool",
              "name": "isClaimed",
              "type": "bool"
            }
          ],
          "internalType": "struct Helper.UnstakeRecord[]",
          "name": "unstakeHistory",
          "type": "tuple[]"
        }
      ],
      "stateMutability": "view",
      "type": "function"
    },
    {
      "inputs": [
        {
          "internalType": "address[]",
          "name": "_lpPools",
          "type": "address[]"
        }
      ],
      "name": "getLpPoolInfos",
      "outputs": [
        {
          "components": [
            {
              "internalType": "address",
              "name": "addr",
              "type": "address"
            },
            {
              "internalType": "uint256",
              "name": "totalSupply",
              "type": "uint256"
            },
            {
              "internalType": "address",
              "name": "lpTokenAddress",
              "type": "address"
            },
            {
              "internalType": "uint256",
              "name": "lpTokenTotalSupply",
              "type": "uint256"
            }
          ],
          "internalType": "struct Helper.LpPoolInfo[]",
          "name": "lpPoolInfos",
          "type": "tuple[]"
        }
      ],
      "stateMutability": "view",
      "type": "function"
    },
    {
      "inputs": [
        {
          "internalType": "bytes32",
          "name": "role",
          "type": "bytes32"
        }
      ],
      "name": "getRoleAdmin",
      "outputs": [
        {
          "internalType": "bytes32",
          "name": "",
          "type": "bytes32"
        }
      ],
      "stateMutability": "view",
      "type": "function"
    },
    {
      "inputs": [
        {
          "internalType": "uint256",
          "name": "kokoaPrice",
          "type": "uint256"
        }
      ],
      "name": "getSKokoaKsdApr",
      "outputs": [
        {
          "internalType": "uint256",
          "name": "skokoaApr",
          "type": "uint256"
        }
      ],
      "stateMutability": "view",
      "type": "function"
    },
    {
      "inputs": [
        {
          "internalType": "bytes32",
          "name": "role",
          "type": "bytes32"
        },
        {
          "internalType": "address",
          "name": "account",
          "type": "address"
        }
      ],
      "name": "grantRole",
      "outputs": [],
      "stateMutability": "nonpayable",
      "type": "function"
    },
    {
      "inputs": [
        {
          "internalType": "bytes32",
          "name": "role",
          "type": "bytes32"
        },
        {
          "internalType": "address",
          "name": "account",
          "type": "address"
        }
      ],
      "name": "hasRole",
      "outputs": [
        {
          "internalType": "bool",
          "name": "",
          "type": "bool"
        }
      ],
      "stateMutability": "view",
      "type": "function"
    },
    {
      "inputs": [],
      "name": "kokoaRewardManager",
      "outputs": [
        {
          "internalType": "contract IKokoaRewardManager",
          "name": "",
          "type": "address"
        }
      ],
      "stateMutability": "view",
      "type": "function"
    },
    {
      "inputs": [],
      "name": "ksdRewardManager",
      "outputs": [
        {
          "internalType": "contract IKSDRewardManager",
          "name": "",
          "type": "address"
        }
      ],
      "stateMutability": "view",
      "type": "function"
    },
    {
      "inputs": [],
      "name": "ledger",
      "outputs": [
        {
          "internalType": "contract ILedger",
          "name": "",
          "type": "address"
        }
      ],
      "stateMutability": "view",
      "type": "function"
    },
    {
      "inputs": [
        {
          "internalType": "address",
          "name": "deployed",
          "type": "address"
        }
      ],
      "name": "pause",
      "outputs": [],
      "stateMutability": "nonpayable",
      "type": "function"
    },
    {
      "inputs": [
        {
          "internalType": "bytes32",
          "name": "role",
          "type": "bytes32"
        },
        {
          "internalType": "address",
          "name": "account",
          "type": "address"
        }
      ],
      "name": "renounceRole",
      "outputs": [],
      "stateMutability": "nonpayable",
      "type": "function"
    },
    {
      "inputs": [
        {
          "internalType": "bytes32",
          "name": "role",
          "type": "bytes32"
        },
        {
          "internalType": "address",
          "name": "account",
          "type": "address"
        }
      ],
      "name": "revokeRole",
      "outputs": [],
      "stateMutability": "nonpayable",
      "type": "function"
    },
    {
      "inputs": [],
      "name": "sKokoa",
      "outputs": [
        {
          "internalType": "contract ISKokoaToken",
          "name": "",
          "type": "address"
        }
      ],
      "stateMutability": "view",
      "type": "function"
    },
    {
      "inputs": [],
      "name": "skokoa",
      "outputs": [
        {
          "internalType": "contract IKIP7",
          "name": "",
          "type": "address"
        }
      ],
      "stateMutability": "view",
      "type": "function"
    },
    {
      "inputs": [
        {
          "internalType": "address[]",
          "name": "_tokens",
          "type": "address[]"
        },
        {
          "internalType": "address[]",
          "name": "_lpPools",
          "type": "address[]"
        },
        {
          "internalType": "uint256",
          "name": "kokoaPrice",
          "type": "uint256"
        }
      ],
      "name": "statusQuery",
      "outputs": [
        {
          "components": [
            {
              "internalType": "address",
              "name": "addr",
              "type": "address"
            },
            {
              "internalType": "uint256",
              "name": "value",
              "type": "uint256"
            }
          ],
          "internalType": "struct Helper.AddressUint256Pair[]",
          "name": "totalSupplies",
          "type": "tuple[]"
        },
        {
          "components": [
            {
              "internalType": "address",
              "name": "addr",
              "type": "address"
            },
            {
              "internalType": "uint256",
              "name": "totalSupply",
              "type": "uint256"
            },
            {
              "internalType": "address",
              "name": "lpTokenAddress",
              "type": "address"
            },
            {
              "internalType": "uint256",
              "name": "lpTokenTotalSupply",
              "type": "uint256"
            }
          ],
          "internalType": "struct Helper.LpPoolInfo[]",
          "name": "lpPoolInfos",
          "type": "tuple[]"
        },
        {
          "internalType": "uint256",
          "name": "dksdApr",
          "type": "uint256"
        },
        {
          "internalType": "uint256",
          "name": "skokoaApr",
          "type": "uint256"
        }
      ],
      "stateMutability": "view",
      "type": "function"
    },
    {
      "inputs": [
        {
          "internalType": "address",
          "name": "newOwner",
          "type": "address"
        }
      ],
      "name": "transferOwnership",
      "outputs": [],
      "stateMutability": "nonpayable",
      "type": "function"
    },
    {
      "inputs": [
        {
          "internalType": "address",
          "name": "deployed",
          "type": "address"
        }
      ],
      "name": "unpause",
      "outputs": [],
      "stateMutability": "nonpayable",
      "type": "function"
    },
    {
      "inputs": [
        {
          "internalType": "address",
          "name": "_user",
          "type": "address"
        },
        {
          "internalType": "address[]",
          "name": "_tokens",
          "type": "address[]"
        },
        {
          "internalType": "address[]",
          "name": "_spenders",
          "type": "address[]"
        }
      ],
      "name": "userAllowanceQuery",
      "outputs": [
        {
          "components": [
            {
              "internalType": "address",
              "name": "addr",
              "type": "address"
            },
            {
              "internalType": "uint256",
              "name": "value",
              "type": "uint256"
            }
          ],
          "internalType": "struct Helper.AddressUint256Pair[]",
          "name": "allowances",
          "type": "tuple[]"
        }
      ],
      "stateMutability": "view",
      "type": "function"
    },
    {
      "inputs": [
        {
          "internalType": "address",
          "name": "_user",
          "type": "address"
        },
        {
          "internalType": "address[]",
          "name": "_tokens",
          "type": "address[]"
        }
      ],
      "name": "userBalanceQuery",
      "outputs": [
        {
          "components": [
            {
              "internalType": "address",
              "name": "addr",
              "type": "address"
            },
            {
              "internalType": "uint256",
              "name": "value",
              "type": "uint256"
            }
          ],
          "internalType": "struct Helper.AddressUint256Pair[]",
          "name": "balances",
          "type": "tuple[]"
        }
      ],
      "stateMutability": "view",
      "type": "function"
    },
    {
      "inputs": [
        {
          "internalType": "address",
          "name": "_user",
          "type": "address"
        },
        {
          "internalType": "bytes32[]",
          "name": "_collateralTypes",
          "type": "bytes32[]"
        }
      ],
      "name": "userDataQuery",
      "outputs": [
        {
          "components": [
            {
              "internalType": "address",
              "name": "addr",
              "type": "address"
            },
            {
              "internalType": "uint256",
              "name": "value",
              "type": "uint256"
            }
          ],
          "internalType": "struct Helper.AddressUint256Pair[]",
          "name": "kokoaClaimableRewards",
          "type": "tuple[]"
        },
        {
          "components": [
            {
              "internalType": "uint256",
              "name": "index",
              "type": "uint256"
            },
            {
              "internalType": "uint256",
              "name": "amount",
              "type": "uint256"
            },
            {
              "internalType": "uint256",
              "name": "completionTime",
              "type": "uint256"
            },
            {
              "internalType": "bool",
              "name": "isClaimed",
              "type": "bool"
            }
          ],
          "internalType": "struct Helper.UnstakeRecord[]",
          "name": "kokoaUnstakeHistories",
          "type": "tuple[]"
        },
        {
          "components": [
            {
              "internalType": "address",
              "name": "addr",
              "type": "address"
            },
            {
              "internalType": "uint256",
              "name": "value",
              "type": "uint256"
            }
          ],
          "internalType": "struct Helper.AddressUint256Pair[]",
          "name": "ksdClaimableRewards",
          "type": "tuple[]"
        },
        {
          "components": [
            {
              "internalType": "bytes32",
              "name": "collateralType",
              "type": "bytes32"
            },
            {
              "internalType": "uint256",
              "name": "lockedCollateral",
              "type": "uint256"
            },
            {
              "internalType": "uint256",
              "name": "loan",
              "type": "uint256"
            }
          ],
          "internalType": "struct Helper.AccountCollateralInfo[]",
          "name": "accountCollateralInfos",
          "type": "tuple[]"
        },
        {
          "components": [
            {
              "internalType": "uint256",
              "name": "index",
              "type": "uint256"
            },
            {
              "internalType": "uint256",
              "name": "amount",
              "type": "uint256"
            },
            {
              "internalType": "uint256",
              "name": "completionTime",
              "type": "uint256"
            },
            {
              "internalType": "bool",
              "name": "isClaimed",
              "type": "bool"
            }
          ],
          "internalType": "struct Helper.UnstakeRecord[]",
          "name": "klayUnstakeHistories",
          "type": "tuple[]"
        },
        {
          "components": [
            {
              "internalType": "address",
              "name": "addr",
              "type": "address"
            },
            {
              "internalType": "uint256",
              "name": "value",
              "type": "uint256"
            }
          ],
          "internalType": "struct Helper.AddressUint256Pair[]",
          "name": "kokoaClaimableRewardsWithBonus",
          "type": "tuple[]"
        },
        {
          "components": [
            {
              "internalType": "bytes32",
              "name": "collateralType",
              "type": "bytes32"
            },
            {
              "internalType": "uint256",
              "name": "value",
              "type": "uint256"
            }
          ],
          "internalType": "struct Helper.Bytes32Uint256Pair[]",
          "name": "ksdClaimableRefunds",
          "type": "tuple[]"
        }
      ],
      "stateMutability": "view",
      "type": "function"
    },
    {
      "inputs": [
        {
          "internalType": "address",
          "name": "_token",
          "type": "address"
        },
        {
          "internalType": "address",
          "name": "_recipient",
          "type": "address"
        }
      ],
      "name": "withdrawAllToken",
      "outputs": [],
      "stateMutability": "nonpayable",
      "type": "function"
    },
    {
      "stateMutability": "payable",
      "type": "receive"
    }
  ],
  "transactionHash": "0x94788741de1de86d3d6cdba54c9ee8e3441be2e2b17f75893c496ecbfa1900e5",
  "args": [],
  "solcInputHash": "de4f5741dec2c2b2fd1b551e118f3df0",
  "bytecode": "0x608060405234801561001057600080fd5b506150df806100206000396000f3fe60806040526004361061028c5760003560e01c806387fad2731161015a578063d366f3b9116100c1578063e33674001161007a578063e336740014610820578063e6b7929114610840578063f2fde38b14610853578063f4ca202514610873578063f5887cdd14610893578063fd9ea8e5146108b357610293565b8063d366f3b914610753578063d547741f14610773578063e017335514610793578063e0509086146107b3578063e127f946146107d3578063e25d2e29146107f357610293565b8063acc5ed4911610113578063acc5ed4914610683578063b38e66f1146106a3578063c2c37f04146106c3578063c45a0155146106e3578063ceaded6514610703578063d05f70711461073357610293565b806387fad273146105d85780638bf2c994146105eb57806391d14854146105fe578063a217fddf1461062e578063a333330914610643578063a6c1f6791461066357610293565b806356397c35116101fe578063680ed01e116101b7578063680ed01e146105185780636d1565521461052b5780636f3ed0b314610558578063727750401461057857806376a67a51146105985780637f4ed023146105b857610293565b806356397c351461044057806357b001f9146104785780635a21af5a146104985780635fcb5c89146104b857806364d3e090146104d85780636546d448146104f857610293565b80632f2ff15d116102505780632f2ff15d1461037e57806333b3ea131461039e57806336568abe146103be5780633aeebedb146103de57806346df4c6b146103fe5780634b41aedf1461042b57610293565b80630838db13146102985780630d77c45e146102ce578063175de272146102fb57806321f106841461031d578063248a9ca31461035057610293565b3661029357005b600080fd5b3480156102a457600080fd5b506102b86102b33660046147e5565b6108d3565b6040516102c59190614e75565b60405180910390f35b3480156102da57600080fd5b506102ee6102e9366004614926565b610b3c565b6040516102c59190614f58565b34801561030757600080fd5b5061031b61031636600461498a565b610d78565b005b34801561032957600080fd5b5061033d610338366004614926565b610ee8565b6040516102c59796959493929190614ec1565b34801561035c57600080fd5b5061037061036b366004614ba8565b610f51565b6040519081526020016102c5565b34801561038a57600080fd5b5061031b610399366004614bc0565b610f6a565b3480156103aa57600080fd5b5061031b6103b936600461498a565b610f8c565b3480156103ca57600080fd5b5061031b6103d9366004614bc0565b611420565b3480156103ea57600080fd5b5061031b6103f936600461481d565b61149e565b34801561040a57600080fd5b5061041e6104193660046147e5565b611669565b6040516102c59190614f7e565b34801561043757600080fd5b5061037061189b565b34801561044c57600080fd5b50600554610460906001600160a01b031681565b6040516001600160a01b0390911681526020016102c5565b34801561048457600080fd5b5061031b6104933660046147e5565b611ce1565b3480156104a457600080fd5b506102b86104b33660046147e5565b611d49565b3480156104c457600080fd5b50600454610460906001600160a01b031681565b3480156104e457600080fd5b5061031b6104f336600461498a565b611fa5565b34801561050457600080fd5b5061031b61051336600461498a565b612051565b61031b61052636600461495f565b6122db565b34801561053757600080fd5b5061054b610546366004614a19565b6123a1565b6040516102c59190614f6b565b34801561056457600080fd5b5061031b61057336600461498a565b612631565b34801561058457600080fd5b506102b86105933660046147e5565b6126f5565b3480156105a457600080fd5b5061031b6105b33660046147e5565b612957565b3480156105c457600080fd5b5061041e6105d33660046147e5565b6129a4565b61031b6105e636600461495f565b612d1a565b61031b6105f936600461495f565b612ea9565b34801561060a57600080fd5b5061061e610619366004614bc0565b612f18565b60405190151581526020016102c5565b34801561063a57600080fd5b50610370600081565b34801561064f57600080fd5b50600954610460906001600160a01b031681565b34801561066f57600080fd5b506102b861067e366004614855565b612f43565b34801561068f57600080fd5b5061037061069e366004614ba8565b61315a565b3480156106af57600080fd5b50600854610460906001600160a01b031681565b3480156106cf57600080fd5b5061031b6106de36600461498a565b61367b565b3480156106ef57600080fd5b50600654610460906001600160a01b031681565b34801561070f57600080fd5b5061072361071e366004614a58565b613727565b6040516102c59493929190614e88565b34801561073f57600080fd5b50600354610460906001600160a01b031681565b34801561075f57600080fd5b5061031b61076e366004614bc0565b613908565b34801561077f57600080fd5b5061031b61078e366004614bc0565b613a65565b34801561079f57600080fd5b50600754610460906001600160a01b031681565b3480156107bf57600080fd5b5061031b6107ce36600461498a565b613a82565b3480156107df57600080fd5b50600254610460906001600160a01b031681565b3480156107ff57600080fd5b5061081361080e366004614926565b613af3565b6040516102c59190614e62565b34801561082c57600080fd5b506102b861083b3660046148a7565b613d91565b61031b61084e36600461495f565b613f9c565b34801561085f57600080fd5b5061031b61086e3660046147e5565b614315565b34801561087f57600080fd5b5061031b61088e366004614be4565b61434e565b34801561089f57600080fd5b50600a54610460906001600160a01b031681565b3480156108bf57600080fd5b5061031b6108ce36600461498a565b614419565b60606000600260009054906101000a90046001600160a01b03166001600160a01b031663f71db5436040518163ffffffff1660e01b815260040160006040518083038186803b15801561092557600080fd5b505afa158015610939573d6000803e3d6000fd5b505050506040513d6000823e601f3d908101601f191682016040526109619190810190614ac8565b905080516001600160401b0381111561098a57634e487b7160e01b600052604160045260246000fd5b6040519080825280602002602001820160405280156109cf57816020015b60408051808201909152600080825260208201528152602001906001900390816109a85790505b50915060005b8151811015610b35576040518060400160405280838381518110610a0957634e487b7160e01b600052603260045260246000fd5b60200260200101516001600160a01b03168152602001600260009054906101000a90046001600160a01b03166001600160a01b0316634e9a471e858581518110610a6357634e487b7160e01b600052603260045260246000fd5b60209081029190910101516040516001600160e01b031960e084901b1681526001600160a01b03918216600482015290891660248201526001604482015260640160206040518083038186803b158015610abc57600080fd5b505afa158015610ad0573d6000803e3d6000fd5b505050506040513d601f19601f82011682018060405250810190610af49190614c3f565b815250838281518110610b1757634e487b7160e01b600052603260045260246000fd5b60200260200101819052508080610b2d9061504d565b9150506109d5565b5050919050565b6060816001600160401b03811115610b6457634e487b7160e01b600052604160045260246000fd5b604051908082528060200260200182016040528015610ba957816020015b6040805180820190915260008082526020820152815260200190600190039081610b825790505b5090506000600a60009054906101000a90046001600160a01b03166001600160a01b03166371ccecb66040518163ffffffff1660e01b815260040160206040518083038186803b158015610bfc57600080fd5b505afa158015610c10573d6000803e3d6000fd5b505050506040513d601f19601f82011682018060405250810190610c349190614801565b905060005b83811015610d6f576040518060400160405280868684818110610c6c57634e487b7160e01b600052603260045260246000fd5b905060200201358152602001836001600160a01b03166370bdefc1888886818110610ca757634e487b7160e01b600052603260045260246000fd5b905060200201358a6040518363ffffffff1660e01b8152600401610cde9291909182526001600160a01b0316602082015260400190565b60206040518083038186803b158015610cf657600080fd5b505afa158015610d0a573d6000803e3d6000fd5b505050506040513d601f19601f82011682018060405250810190610d2e9190614c3f565b815250838281518110610d5157634e487b7160e01b600052603260045260246000fd5b60200260200101819052508080610d679061504d565b915050610c39565b50509392505050565b610d8a6437bbb732b960d91b3361448a565b836001600160a01b0316633f4ba83a6040518163ffffffff1660e01b8152600401600060405180830381600087803b158015610dc557600080fd5b505af1158015610dd9573d6000803e3d6000fd5b50505050816001600160a01b0316633f4ba83a6040518163ffffffff1660e01b8152600401600060405180830381600087803b158015610e1857600080fd5b505af1158015610e2c573d6000803e3d6000fd5b50505050610e3c84848484610f8c565b836001600160a01b0316638456cb596040518163ffffffff1660e01b8152600401600060405180830381600087803b158015610e7757600080fd5b505af1158015610e8b573d6000803e3d6000fd5b50505050816001600160a01b0316638456cb596040518163ffffffff1660e01b8152600401600060405180830381600087803b158015610eca57600080fd5b505af1158015610ede573d6000803e3d6000fd5b5050505050505050565b6060806060806060806060610efc8a6126f5565b9650610f078a6129a4565b9550610f128a611d49565b9450610f1f8a8a8a613af3565b9350610f2a8a611669565b9250610f358a6108d3565b9150610f428a8a8a610b3c565b90509397509397509397909450565b600081815260016020819052604090912001545b919050565b610f7382610f51565b610f7d813361448a565b610f8783836144ee565b505050565b610f9e6437bbb732b960d91b3361448a565b6040516323b872dd60e01b81526001600160a01b038516906323b872dd90610fce90339030908890600401614e3e565b602060405180830381600087803b158015610fe857600080fd5b505af1158015610ffc573d6000803e3d6000fd5b505050506040513d601f19601f820116820180604052508101906110209190614b8e565b506040516323b872dd60e01b81526001600160a01b038316906323b872dd9061105190339030908690600401614e3e565b602060405180830381600087803b15801561106b57600080fd5b505af115801561107f573d6000803e3d6000fd5b505050506040513d601f19601f820116820180604052508101906110a39190614b8e565b5060065460405163fd435cb960e01b81526001600160a01b0386811660048301528481166024830152600092169063fd435cb99060440160206040518083038186803b1580156110f257600080fd5b505afa158015611106573d6000803e3d6000fd5b505050506040513d601f19601f8201168201806040525081019061112a9190614801565b60405163095ea7b360e01b81526001600160a01b038083166004830152602482018790529192509086169063095ea7b390604401602060405180830381600087803b15801561117857600080fd5b505af115801561118c573d6000803e3d6000fd5b505050506040513d601f19601f820116820180604052508101906111b09190614b8e565b5060405163095ea7b360e01b81526001600160a01b0382811660048301526024820184905284169063095ea7b390604401602060405180830381600087803b1580156111fb57600080fd5b505af115801561120f573d6000803e3d6000fd5b505050506040513d601f19601f820116820180604052508101906112339190614b8e565b506000816001600160a01b0316630fc63d106040518163ffffffff1660e01b815260040160206040518083038186803b15801561126f57600080fd5b505afa158015611283573d6000803e3d6000fd5b505050506040513d601f19601f820116820180604052508101906112a79190614801565b90506000826001600160a01b0316635f64b55b6040518163ffffffff1660e01b815260040160206040518083038186803b1580156112e457600080fd5b505afa1580156112f8573d6000803e3d6000fd5b505050506040513d601f19601f8201168201806040525081019061131c9190614801565b9050816001600160a01b0316876001600160a01b03161480156113505750806001600160a01b0316856001600160a01b0316145b6113b65760405162461bcd60e51b815260206004820152602c60248201527f48656c7065723a3a6164644b63744c69717569646974793a20696e76616c696460448201526b103a37b5b2b71037b93232b960a11b60648201526084015b60405180910390fd5b6040516355f553db60e11b815260048101879052602481018590526001600160a01b0384169063abeaa7b690604401600060405180830381600087803b1580156113ff57600080fd5b505af1158015611413573d6000803e3d6000fd5b5050505050505050505050565b6001600160a01b03811633146114905760405162461bcd60e51b815260206004820152602f60248201527f416363657373436f6e74726f6c3a2063616e206f6e6c792072656e6f756e636560448201526e103937b632b9903337b91039b2b63360891b60648201526084016113ad565b61149a8282614559565b5050565b6114b06437bbb732b960d91b3361448a565b60006001600160a01b03831661151a576040516001600160a01b03831690303190600081818185875af1925050503d806000811461150a576040519150601f19603f3d011682016040523d82523d6000602084013e61150f565b606091505b50508091505061161c565b6040516370a0823160e01b81523060048201526001600160a01b0384169063a9059cbb90849083906370a082319060240160206040518083038186803b15801561156357600080fd5b505afa158015611577573d6000803e3d6000fd5b505050506040513d601f19601f8201168201806040525081019061159b9190614c3f565b6040516001600160e01b031960e085901b1681526001600160a01b0390921660048301526024820152604401602060405180830381600087803b1580156115e157600080fd5b505af11580156115f5573d6000803e3d6000fd5b505050506040513d601f19601f820116820180604052508101906116199190614b8e565b90505b80610f875760405162461bcd60e51b815260206004820181905260248201527f48656c7065723a3a7769746864726177416c6c546f6b656e3a206661696c656460448201526064016113ad565b60075460405163d575d53b60e01b81526001600160a01b03838116600483015260609260009291169063d575d53b9060240160206040518083038186803b1580156116b357600080fd5b505afa1580156116c7573d6000803e3d6000fd5b505050506040513d601f19601f820116820180604052508101906116eb9190614c3f565b905060006116fa8260146145c0565b9050806001600160401b0381111561172257634e487b7160e01b600052604160045260246000fd5b60405190808252806020026020018201604052801561178057816020015b61176d60405180608001604052806000815260200160008152602001600081526020016000151581525090565b8152602001906001900390816117405790505b50925060005b8181101561189357600061179a8285615036565b60075460405163919e4da560e01b81526001600160a01b038981166004830152602482018490529293506000928392839291169063919e4da59060440160806040518083038186803b1580156117ef57600080fd5b505afa158015611803573d6000803e3d6000fd5b505050506040513d601f19601f8201168201806040525081019061182791906149d1565b93509350935050604051806080016040528085815260200184815260200183815260200182151581525088868151811061187157634e487b7160e01b600052603260045260246000fd5b602002602001018190525050505050808061188b9061504d565b915050611786565b505050919050565b600080600360009054906101000a90046001600160a01b03166001600160a01b031663916226a76040518163ffffffff1660e01b815260040160206040518083038186803b1580156118ec57600080fd5b505afa158015611900573d6000803e3d6000fd5b505050506040513d601f19601f820116820180604052508101906119249190614c3f565b90506000600360009054906101000a90046001600160a01b03166001600160a01b031663e8f239cd6040518163ffffffff1660e01b815260040160206040518083038186803b15801561197657600080fd5b505afa15801561198a573d6000803e3d6000fd5b505050506040513d601f19601f820116820180604052508101906119ae9190614c3f565b90506000600360009054906101000a90046001600160a01b03166001600160a01b031663cc78b6236040518163ffffffff1660e01b815260040160206040518083038186803b158015611a0057600080fd5b505afa158015611a14573d6000803e3d6000fd5b505050506040513d601f19601f82011682018060405250810190611a389190614c3f565b90506000600360009054906101000a90046001600160a01b03166001600160a01b0316631bf9a9896040518163ffffffff1660e01b815260040160206040518083038186803b158015611a8a57600080fd5b505afa158015611a9e573d6000803e3d6000fd5b505050506040513d601f19601f82011682018060405250810190611ac29190614c3f565b11611ad35760009350505050611cde565b600354604051635983241b60e01b81526004810183905260009182916001600160a01b0390911690635983241b90602401604080518083038186803b158015611b1b57600080fd5b505afa158015611b2f573d6000803e3d6000fd5b505050506040513d601f19601f82011682018060405250810190611b539190614c57565b90925090506000611b648342615036565b90508015801590611bef5750600854604080516318160ddd60e01b815290516000926001600160a01b0316916318160ddd916004808301926020929190829003018186803b158015611bb557600080fd5b505afa158015611bc9573d6000803e3d6000fd5b505050506040513d601f19601f82011682018060405250810190611bed9190614c3f565b115b15611cd257600081611c018488615036565b611c0f906301e13380615017565b611c199190614ff7565b9050611cca611c29886064615017565b600860009054906101000a90046001600160a01b03166001600160a01b03166318160ddd6040518163ffffffff1660e01b815260040160206040518083038186803b158015611c7757600080fd5b505afa158015611c8b573d6000803e3d6000fd5b505050506040513d601f19601f82011682018060405250810190611caf9190614c3f565b611cbb84612710615017565b611cc59190614ff7565b6145c0565b975050611cd7565b600096505b5050505050505b90565b611cf36437bbb732b960d91b3361448a565b806001600160a01b0316633f4ba83a6040518163ffffffff1660e01b8152600401600060405180830381600087803b158015611d2e57600080fd5b505af1158015611d42573d6000803e3d6000fd5b5050505050565b60606000600360009054906101000a90046001600160a01b03166001600160a01b031663f71db5436040518163ffffffff1660e01b815260040160006040518083038186803b158015611d9b57600080fd5b505afa158015611daf573d6000803e3d6000fd5b505050506040513d6000823e601f3d908101601f19168201604052611dd79190810190614ac8565b905080516001600160401b03811115611e0057634e487b7160e01b600052604160045260246000fd5b604051908082528060200260200182016040528015611e4557816020015b6040805180820190915260008082526020820152815260200190600190039081611e1e5790505b50915060005b8151811015610b35576040518060400160405280838381518110611e7f57634e487b7160e01b600052603260045260246000fd5b60200260200101516001600160a01b03168152602001600360009054906101000a90046001600160a01b03166001600160a01b031663d26abffa858581518110611ed957634e487b7160e01b600052603260045260246000fd5b6020026020010151886040518363ffffffff1660e01b8152600401611f149291906001600160a01b0392831681529116602082015260400190565b60206040518083038186803b158015611f2c57600080fd5b505afa158015611f40573d6000803e3d6000fd5b505050506040513d601f19601f82011682018060405250810190611f649190614c3f565b815250838281518110611f8757634e487b7160e01b600052603260045260246000fd5b60200260200101819052508080611f9d9061504d565b915050611e4b565b611fb76437bbb732b960d91b3361448a565b816001600160a01b0316633f4ba83a6040518163ffffffff1660e01b8152600401600060405180830381600087803b158015611ff257600080fd5b505af1158015612006573d6000803e3d6000fd5b5050505061201684848484610f8c565b816001600160a01b0316638456cb596040518163ffffffff1660e01b8152600401600060405180830381600087803b158015610eca57600080fd5b6120636437bbb732b960d91b3361448a565b6040516323b872dd60e01b81526001600160a01b038516906323b872dd9061209390339030908890600401614e3e565b602060405180830381600087803b1580156120ad57600080fd5b505af11580156120c1573d6000803e3d6000fd5b505050506040513d601f19601f820116820180604052508101906120e59190614b8e565b506040516323b872dd60e01b81526001600160a01b038316906323b872dd9061211690339030908690600401614e3e565b602060405180830381600087803b15801561213057600080fd5b505af1158015612144573d6000803e3d6000fd5b505050506040513d601f19601f820116820180604052508101906121689190614b8e565b5060065460405163095ea7b360e01b81526001600160a01b039182166004820152602481018590529085169063095ea7b390604401602060405180830381600087803b1580156121b757600080fd5b505af11580156121cb573d6000803e3d6000fd5b505050506040513d601f19601f820116820180604052508101906121ef9190614b8e565b5060065460405163095ea7b360e01b81526001600160a01b039182166004820152602481018390529083169063095ea7b390604401602060405180830381600087803b15801561223e57600080fd5b505af1158015612252573d6000803e3d6000fd5b505050506040513d601f19601f820116820180604052508101906122769190614b8e565b5060065460405163ea2ac4e160e01b81526001600160a01b03868116600483015260248201869052848116604483015260648201849052601e60848301529091169063ea2ac4e19060a401600060405180830381600087803b158015610eca57600080fd5b6122ed6437bbb732b960d91b3361448a565b816001600160a01b0316633f4ba83a6040518163ffffffff1660e01b8152600401600060405180830381600087803b15801561232857600080fd5b505af115801561233c573d6000803e3d6000fd5b5050505061234a8282612d1a565b816001600160a01b0316638456cb596040518163ffffffff1660e01b8152600401600060405180830381600087803b15801561238557600080fd5b505af1158015612399573d6000803e3d6000fd5b505050505050565b6060816001600160401b038111156123c957634e487b7160e01b600052604160045260246000fd5b60405190808252806020026020018201604052801561241b57816020015b6040805160808101825260008082526020808301829052928201819052606082015282526000199092019101816123e75790505b50905060005b8281101561262a57600084848381811061244b57634e487b7160e01b600052603260045260246000fd5b905060200201602081019061246091906147e5565b90506000816001600160a01b031663fc0c546a6040518163ffffffff1660e01b815260040160206040518083038186803b15801561249d57600080fd5b505afa1580156124b1573d6000803e3d6000fd5b505050506040513d601f19601f820116820180604052508101906124d59190614801565b90506040518060800160405280836001600160a01b03168152602001836001600160a01b03166318160ddd6040518163ffffffff1660e01b815260040160206040518083038186803b15801561252a57600080fd5b505afa15801561253e573d6000803e3d6000fd5b505050506040513d601f19601f820116820180604052508101906125629190614c3f565b8152602001826001600160a01b03168152602001826001600160a01b03166318160ddd6040518163ffffffff1660e01b815260040160206040518083038186803b1580156125af57600080fd5b505afa1580156125c3573d6000803e3d6000fd5b505050506040513d601f19601f820116820180604052508101906125e79190614c3f565b81525084848151811061260a57634e487b7160e01b600052603260045260246000fd5b6020026020010181905250505080806126229061504d565b915050612421565b5092915050565b6126436437bbb732b960d91b3361448a565b836001600160a01b0316633f4ba83a6040518163ffffffff1660e01b8152600401600060405180830381600087803b15801561267e57600080fd5b505af1158015612692573d6000803e3d6000fd5b50505050816001600160a01b0316633f4ba83a6040518163ffffffff1660e01b8152600401600060405180830381600087803b1580156126d157600080fd5b505af11580156126e5573d6000803e3d6000fd5b50505050610e3c84848484612051565b60606000600260009054906101000a90046001600160a01b03166001600160a01b031663f71db5436040518163ffffffff1660e01b815260040160006040518083038186803b15801561274757600080fd5b505afa15801561275b573d6000803e3d6000fd5b505050506040513d6000823e601f3d908101601f191682016040526127839190810190614ac8565b905080516001600160401b038111156127ac57634e487b7160e01b600052604160045260246000fd5b6040519080825280602002602001820160405280156127f157816020015b60408051808201909152600080825260208201528152602001906001900390816127ca5790505b50915060005b8151811015610b3557604051806040016040528083838151811061282b57634e487b7160e01b600052603260045260246000fd5b60200260200101516001600160a01b03168152602001600260009054906101000a90046001600160a01b03166001600160a01b0316634e9a471e85858151811061288557634e487b7160e01b600052603260045260246000fd5b60209081029190910101516040516001600160e01b031960e084901b1681526001600160a01b03918216600482015290891660248201526000604482015260640160206040518083038186803b1580156128de57600080fd5b505afa1580156128f2573d6000803e3d6000fd5b505050506040513d601f19601f820116820180604052508101906129169190614c3f565b81525083828151811061293957634e487b7160e01b600052603260045260246000fd5b6020026020010181905250808061294f9061504d565b9150506127f7565b6129696437bbb732b960d91b3361448a565b806001600160a01b0316638456cb596040518163ffffffff1660e01b8152600401600060405180830381600087803b158015611d2e57600080fd5b6004805460405163099f463b60e01b81526001600160a01b0384811693820193909352606092600092169063099f463b9060240160206040518083038186803b1580156129f057600080fd5b505afa158015612a04573d6000803e3d6000fd5b505050506040513d601f19601f82011682018060405250810190612a289190614c3f565b90506000612a378260146145c0565b9050806001600160401b03811115612a5f57634e487b7160e01b600052604160045260246000fd5b604051908082528060200260200182016040528015612abd57816020015b612aaa60405180608001604052806000815260200160008152602001600081526020016000151581525090565b815260200190600190039081612a7d5790505b5092506000600460009054906101000a90046001600160a01b03166001600160a01b0316636c6925f96040518163ffffffff1660e01b815260040160206040518083038186803b158015612b1057600080fd5b505afa158015612b24573d6000803e3d6000fd5b505050506040513d601f19601f82011682018060405250810190612b489190614c3f565b905060005b82811015612d115760006001612b638387615036565b612b6d9190615036565b6004805460405163919e4da560e01b81526001600160a01b038b8116938201939093526024810184905292935060009283928392169063919e4da590604401604080518083038186803b158015612bc357600080fd5b505afa158015612bd7573d6000803e3d6000fd5b505050506040513d601f19601f82011682018060405250810190612bfb9190614c57565b90925090506000612c0c8784614fdf565b600480546040516369c12cb760e01b81526001600160a01b038f81169382019390935292935016906369c12cb79060240160206040518083038186803b158015612c5557600080fd5b505afa158015612c69573d6000803e3d6000fd5b505050506040513d601f19601f82011682018060405250810190612c8d9190614c3f565b612c98866001614fdf565b11612ca65760019350612cab565b600093505b60405180608001604052808681526020018381526020018281526020018515158152508a8781518110612cee57634e487b7160e01b600052603260045260246000fd5b602002602001018190525050505050508080612d099061504d565b915050612b4d565b50505050919050565b612d2c6437bbb732b960d91b3361448a565b6040516323b872dd60e01b81526001600160a01b038316906323b872dd90612d5c90339030908690600401614e3e565b602060405180830381600087803b158015612d7657600080fd5b505af1158015612d8a573d6000803e3d6000fd5b505050506040513d601f19601f82011682018060405250810190612dae9190614b8e565b5060065460405163095ea7b360e01b81526001600160a01b039182166004820152602481018390529083169063095ea7b390604401602060405180830381600087803b158015612dfd57600080fd5b505af1158015612e11573d6000803e3d6000fd5b505050506040513d601f19601f82011682018060405250810190612e359190614b8e565b50600654604051636c5e074d60e11b81526001600160a01b03848116600483015260248201849052601e60448301529091169063d8bc0e9a9034906064016000604051808303818588803b158015612e8c57600080fd5b505af1158015612ea0573d6000803e3d6000fd5b50505050505050565b612ebb6437bbb732b960d91b3361448a565b816001600160a01b0316633f4ba83a6040518163ffffffff1660e01b8152600401600060405180830381600087803b158015612ef657600080fd5b505af1158015612f0a573d6000803e3d6000fd5b5050505061234a8282613f9c565b60009182526001602090815260408084206001600160a01b0393909316845291905290205460ff1690565b6060612f50826001614fdf565b6001600160401b03811115612f7557634e487b7160e01b600052604160045260246000fd5b604051908082528060200260200182016040528015612fba57816020015b6040805180820190915260008082526020820152815260200190600190039081612f935790505b50905060005b82811015613107576040518060400160405280858584818110612ff357634e487b7160e01b600052603260045260246000fd5b905060200201602081019061300891906147e5565b6001600160a01b0316815260200185858481811061303657634e487b7160e01b600052603260045260246000fd5b905060200201602081019061304b91906147e5565b6040516370a0823160e01b81526001600160a01b03898116600483015291909116906370a082319060240160206040518083038186803b15801561308e57600080fd5b505afa1580156130a2573d6000803e3d6000fd5b505050506040513d601f19601f820116820180604052508101906130c69190614c3f565b8152508282815181106130e957634e487b7160e01b600052603260045260246000fd5b602002602001018190525080806130ff9061504d565b915050612fc0565b5060408051808201909152600081526001600160a01b038516316020820152815182908490811061314857634e487b7160e01b600052603260045260246000fd5b60200260200101819052509392505050565b600080600360009054906101000a90046001600160a01b03166001600160a01b031663916226a76040518163ffffffff1660e01b815260040160206040518083038186803b1580156131ab57600080fd5b505afa1580156131bf573d6000803e3d6000fd5b505050506040513d601f19601f820116820180604052508101906131e39190614c3f565b90506000600360009054906101000a90046001600160a01b03166001600160a01b031663e8f239cd6040518163ffffffff1660e01b815260040160206040518083038186803b15801561323557600080fd5b505afa158015613249573d6000803e3d6000fd5b505050506040513d601f19601f8201168201806040525081019061326d9190614c3f565b90506000600360009054906101000a90046001600160a01b03166001600160a01b031663cc78b6236040518163ffffffff1660e01b815260040160206040518083038186803b1580156132bf57600080fd5b505afa1580156132d3573d6000803e3d6000fd5b505050506040513d601f19601f820116820180604052508101906132f79190614c3f565b90506000600360009054906101000a90046001600160a01b03166001600160a01b0316631bf9a9896040518163ffffffff1660e01b815260040160206040518083038186803b15801561334957600080fd5b505afa15801561335d573d6000803e3d6000fd5b505050506040513d601f19601f820116820180604052508101906133819190614c3f565b116133925760009350505050610f65565b600354604051635983241b60e01b81526004810183905260009182916001600160a01b0390911690635983241b90602401604080518083038186803b1580156133da57600080fd5b505afa1580156133ee573d6000803e3d6000fd5b505050506040513d601f19601f820116820180604052508101906134129190614c57565b909250905060006134238342615036565b905080158015906134c45750600088600960009054906101000a90046001600160a01b03166001600160a01b03166318160ddd6040518163ffffffff1660e01b815260040160206040518083038186803b15801561348057600080fd5b505afa158015613494573d6000803e3d6000fd5b505050506040513d601f19601f820116820180604052508101906134b89190614c3f565b6134c29190615017565b115b1561366b576000816134d68488615036565b6134e4906301e13380615017565b6134ee9190614ff7565b90506000613598606489600860009054906101000a90046001600160a01b03166001600160a01b03166318160ddd6040518163ffffffff1660e01b815260040160206040518083038186803b15801561354657600080fd5b505afa15801561355a573d6000803e3d6000fd5b505050506040513d601f19601f8201168201806040525081019061357e9190614c3f565b6135889190615017565b6135929190614ff7565b836145c0565b905060006135a68284615036565b90508a600960009054906101000a90046001600160a01b03166001600160a01b03166318160ddd6040518163ffffffff1660e01b815260040160206040518083038186803b1580156135f757600080fd5b505afa15801561360b573d6000803e3d6000fd5b505050506040513d601f19601f8201168201806040525081019061362f9190614c3f565b6136399190615017565b61364582612710615017565b61365790670de0b6b3a7640000615017565b6136619190614ff7565b9950505050613670565b600096505b505050505050919050565b61368d6437bbb732b960d91b3361448a565b836001600160a01b0316633f4ba83a6040518163ffffffff1660e01b8152600401600060405180830381600087803b1580156136c857600080fd5b505af11580156136dc573d6000803e3d6000fd5b505050506136ec84848484612051565b836001600160a01b0316638456cb596040518163ffffffff1660e01b8152600401600060405180830381600087803b158015610eca57600080fd5b606080600080876001600160401b0381111561375357634e487b7160e01b600052604160045260246000fd5b60405190808252806020026020018201604052801561379857816020015b60408051808201909152600080825260208201528152602001906001900390816137715790505b50935060005b888110156138da5760405180604001604052808b8b848181106137d157634e487b7160e01b600052603260045260246000fd5b90506020020160208101906137e691906147e5565b6001600160a01b031681526020018b8b8481811061381457634e487b7160e01b600052603260045260246000fd5b905060200201602081019061382991906147e5565b6001600160a01b03166318160ddd6040518163ffffffff1660e01b815260040160206040518083038186803b15801561386157600080fd5b505afa158015613875573d6000803e3d6000fd5b505050506040513d601f19601f820116820180604052508101906138999190614c3f565b8152508582815181106138bc57634e487b7160e01b600052603260045260246000fd5b602002602001018190525080806138d29061504d565b91505061379e565b506138e587876123a1565b92506138ef61189b565b91506138fa8561315a565b905095509550955095915050565b61391a6437bbb732b960d91b3361448a565b8166666163746f727960c81b141561394c57600680546001600160a01b0319166001600160a01b03831617905561149a565b8164626b6c617960d81b141561397c57600780546001600160a01b0319166001600160a01b03831617905561149a565b8163191adcd960e21b14156139ab57600880546001600160a01b0319166001600160a01b03831617905561149a565b8165736b6f6b6f6160d01b14156139dc57600980546001600160a01b0319166001600160a01b03831617905561149a565b816a61646472657373426f6f6b60a81b1415613a1257600a80546001600160a01b0319166001600160a01b03831617905561149a565b60405162461bcd60e51b815260206004820152602260248201527f48656c7065723a3a636f6e6669673a20756e7265636f676e697a65642d706172604482015261616d60f01b60648201526084016113ad565b613a6e82610f51565b613a78813361448a565b610f878383614559565b613a946437bbb732b960d91b3361448a565b816001600160a01b0316633f4ba83a6040518163ffffffff1660e01b8152600401600060405180830381600087803b158015613acf57600080fd5b505af1158015613ae3573d6000803e3d6000fd5b5050505061201684848484612051565b6060816001600160401b03811115613b1b57634e487b7160e01b600052604160045260246000fd5b604051908082528060200260200182016040528015613b6657816020015b6040805160608101825260008082526020808301829052928201528252600019909201910181613b395790505b50905060005b82811015613d89576005546000906001600160a01b0316637d5422a7868685818110613ba857634e487b7160e01b600052603260045260246000fd5b905060200201356040518263ffffffff1660e01b8152600401613bcd91815260200190565b60c06040518083038186803b158015613be557600080fd5b505afa158015613bf9573d6000803e3d6000fd5b505050506040513d601f19601f82011682018060405250810190613c1d9190614c7a565b505060055491945060009350839250506001600160a01b031663b75baf79888887818110613c5b57634e487b7160e01b600052603260045260246000fd5b905060200201358a6040518363ffffffff1660e01b8152600401613c929291909182526001600160a01b0316602082015260400190565b604080518083038186803b158015613ca957600080fd5b505afa158015613cbd573d6000803e3d6000fd5b505050506040513d601f19601f82011682018060405250810190613ce19190614c57565b915091506040518060600160405280888887818110613d1057634e487b7160e01b600052603260045260246000fd5b9050602002013581526020018381526020016b033b2e3c9fd0803ce80000008584613d3b9190615017565b613d459190614ff7565b815250858581518110613d6857634e487b7160e01b600052603260045260246000fd5b60200260200101819052505050508080613d819061504d565b915050613b6c565b509392505050565b6060836001600160401b03811115613db957634e487b7160e01b600052604160045260246000fd5b604051908082528060200260200182016040528015613dfe57816020015b6040805180820190915260008082526020820152815260200190600190039081613dd75790505b50905060005b84811015613f92576040518060400160405280878784818110613e3757634e487b7160e01b600052603260045260246000fd5b9050602002016020810190613e4c91906147e5565b6001600160a01b03168152602001878784818110613e7a57634e487b7160e01b600052603260045260246000fd5b9050602002016020810190613e8f91906147e5565b6001600160a01b031663dd62ed3e8a888887818110613ebe57634e487b7160e01b600052603260045260246000fd5b9050602002016020810190613ed391906147e5565b6040516001600160e01b031960e085901b1681526001600160a01b0392831660048201529116602482015260440160206040518083038186803b158015613f1957600080fd5b505afa158015613f2d573d6000803e3d6000fd5b505050506040513d601f19601f82011682018060405250810190613f519190614c3f565b815250828281518110613f7457634e487b7160e01b600052603260045260246000fd5b60200260200101819052508080613f8a9061504d565b915050613e04565b5095945050505050565b613fae6437bbb732b960d91b3361448a565b6040516323b872dd60e01b81526001600160a01b038316906323b872dd90613fde90339030908690600401614e3e565b602060405180830381600087803b158015613ff857600080fd5b505af115801561400c573d6000803e3d6000fd5b505050506040513d601f19601f820116820180604052508101906140309190614b8e565b5060065460405163fd435cb960e01b81526000600482018190526001600160a01b0385811660248401529092169063fd435cb99060440160206040518083038186803b15801561407f57600080fd5b505afa158015614093573d6000803e3d6000fd5b505050506040513d601f19601f820116820180604052508101906140b79190614801565b60405163095ea7b360e01b81526001600160a01b038083166004830152602482018590529192509084169063095ea7b390604401602060405180830381600087803b15801561410557600080fd5b505af1158015614119573d6000803e3d6000fd5b505050506040513d601f19601f8201168201806040525081019061413d9190614b8e565b506000816001600160a01b0316630fc63d106040518163ffffffff1660e01b815260040160206040518083038186803b15801561417957600080fd5b505afa15801561418d573d6000803e3d6000fd5b505050506040513d601f19601f820116820180604052508101906141b19190614801565b90506000826001600160a01b0316635f64b55b6040518163ffffffff1660e01b815260040160206040518083038186803b1580156141ee57600080fd5b505afa158015614202573d6000803e3d6000fd5b505050506040513d601f19601f820116820180604052508101906142269190614801565b90506001600160a01b0382161580156142505750806001600160a01b0316856001600160a01b0316145b6142b25760405162461bcd60e51b815260206004820152602d60248201527f48656c7065723a3a6164644b6c61794c69717569646974793a20696e76616c6960448201526c32103a37b5b2b71037b93232b960991b60648201526084016113ad565b604051631b72122d60e11b8152600481018590526001600160a01b038416906336e4245a9034906024016000604051808303818588803b1580156142f557600080fd5b505af1158015614309573d6000803e3d6000fd5b50505050505050505050565b6143276437bbb732b960d91b3361448a565b6143396437bbb732b960d91b826144ee565b61434b6437bbb732b960d91b33614559565b50565b600054610100900460ff16806143635750303b155b80614371575060005460ff16155b61438d5760405162461bcd60e51b81526004016113ad90614f91565b600054610100900460ff161580156143af576000805461ffff19166101011790555b600280546001600160a01b038088166001600160a01b031992831617909255600380548784169083161790556004805486841690831617905560058054928516929091169190911790556144016145d8565b8015611d42576000805461ff00191690555050505050565b61442b6437bbb732b960d91b3361448a565b836001600160a01b0316633f4ba83a6040518163ffffffff1660e01b8152600401600060405180830381600087803b15801561446657600080fd5b505af115801561447a573d6000803e3d6000fd5b505050506136ec84848484610f8c565b6144948282612f18565b61149a5760405162461bcd60e51b815260206004820152602560248201527f416363657373436f6e74726f6c3a5f636865636b526f6c653a696e76616c696460448201526420726f6c6560d81b60648201526084016113ad565b6144f88282612f18565b61149a5760008281526001602081815260408084206001600160a01b0386168086529252808420805460ff19169093179092559051339285917f2f8788117e7eff1d82e926ec794901d17c78024a50270940304540a733656f0d9190a45050565b6145638282612f18565b1561149a5760008281526001602090815260408083206001600160a01b0385168085529252808320805460ff1916905551339285917ff6391f5c32d9c69d2a47ea670b442974b53935d1edc7fd64eb21e047a839171b9190a45050565b60008183106145cf57816145d1565b825b9392505050565b600054610100900460ff16806145ed5750303b155b806145fb575060005460ff16155b6146175760405162461bcd60e51b81526004016113ad90614f91565b600054610100900460ff16158015614639576000805461ffff19166101011790555b614641614655565b801561434b576000805461ff001916905550565b600054610100900460ff168061466a5750303b155b80614678575060005460ff16155b6146945760405162461bcd60e51b81526004016113ad90614f91565b600054610100900460ff161580156146b6576000805461ffff19166101011790555b6146c86437bbb732b960d91b33614722565b6146e26430b236b4b760d91b6437bbb732b960d91b61472c565b6146ff6737b832b930ba37b960c11b6437bbb732b960d91b61472c565b6147116430b236b4b760d91b33614722565b6146416737b832b930ba37b960c11b335b61149a82826144ee565b600061473783610f51565b6000848152600160208190526040808320909101859055519192508391839186917fbd79b86ffe0ab8e8776151514217cd7cacd52c909f66475c3af44e129f0b00ff9190a4505050565b8051610f6581615094565b60008083601f84011261479d578081fd5b5081356001600160401b038111156147b3578182fd5b6020830191508360208260051b85010111156147ce57600080fd5b9250929050565b80518015158114610f6557600080fd5b6000602082840312156147f6578081fd5b81356145d181615094565b600060208284031215614812578081fd5b81516145d181615094565b6000806040838503121561482f578081fd5b823561483a81615094565b9150602083013561484a81615094565b809150509250929050565b600080600060408486031215614869578081fd5b833561487481615094565b925060208401356001600160401b0381111561488e578182fd5b61489a8682870161478c565b9497909650939450505050565b6000806000806000606086880312156148be578081fd5b85356148c981615094565b945060208601356001600160401b03808211156148e4578283fd5b6148f089838a0161478c565b90965094506040880135915080821115614908578283fd5b506149158882890161478c565b969995985093965092949392505050565b60008060006040848603121561493a578283fd5b833561494581615094565b925060208401356001600160401b0381111561488e578283fd5b60008060408385031215614971578182fd5b823561497c81615094565b946020939093013593505050565b6000806000806080858703121561499f578384fd5b84356149aa81615094565b93506020850135925060408501356149c181615094565b9396929550929360600135925050565b600080600080608085870312156149e6578384fd5b84516149f181615094565b6020860151604087015191955093509150614a0e606086016147d5565b905092959194509250565b60008060208385031215614a2b578182fd5b82356001600160401b03811115614a40578283fd5b614a4c8582860161478c565b90969095509350505050565b600080600080600060608688031215614a6f578283fd5b85356001600160401b0380821115614a85578485fd5b614a9189838a0161478c565b90975095506020880135915080821115614aa9578485fd5b50614ab68882890161478c565b96999598509660400135949350505050565b60006020808385031215614ada578182fd5b82516001600160401b0380821115614af0578384fd5b818501915085601f830112614b03578384fd5b815181811115614b1557614b1561507e565b8060051b604051601f19603f83011681018181108582111715614b3a57614b3a61507e565b604052828152858101935084860182860187018a1015614b58578788fd5b8795505b83861015614b8157614b6d81614781565b855260019590950194938601938601614b5c565b5098975050505050505050565b600060208284031215614b9f578081fd5b6145d1826147d5565b600060208284031215614bb9578081fd5b5035919050565b60008060408385031215614bd2578182fd5b82359150602083013561484a81615094565b60008060008060808587031215614bf9578182fd5b8435614c0481615094565b93506020850135614c1481615094565b92506040850135614c2481615094565b91506060850135614c3481615094565b939692955090935050565b600060208284031215614c50578081fd5b5051919050565b60008060408385031215614c69578182fd5b505080516020909101519092909150565b60008060008060008060c08789031215614c92578384fd5b865195506020870151945060408701519350606087015192506080870151915060a087015190509295509295509295565b6000815180845260208085019450808401835b83811015614d085781518051885283810151848901526040908101519088015260609096019590820190600101614cd6565b509495945050505050565b6000815180845260208085019450808401835b83811015614d0857815180516001600160a01b031688528301518388015260409096019590820190600101614d26565b6000815180845260208085019450808401835b83811015614d08578151805188528301518388015260409096019590820190600101614d69565b6000815180845260208085019450808401835b83811015614d0857815180516001600160a01b03908116895284820151858a0152604080830151909116908901526060908101519088015260809096019590820190600101614da3565b6000815180845260208085019450808401835b83811015614d085781518051885283810151848901526040808201519089015260609081015115159088015260809096019590820190600101614e00565b6001600160a01b039384168152919092166020820152604081019190915260600190565b6000602082526145d16020830184614cc3565b6000602082526145d16020830184614d13565b600060808252614e9b6080830187614d13565b8281036020840152614ead8187614d90565b604084019590955250506060015292915050565b600060e08252614ed460e083018a614d13565b8281036020840152614ee6818a614ded565b90508281036040840152614efa8189614d13565b90508281036060840152614f0e8188614cc3565b90508281036080840152614f228187614ded565b905082810360a0840152614f368186614d13565b905082810360c0840152614f4a8185614d56565b9a9950505050505050505050565b6000602082526145d16020830184614d56565b6000602082526145d16020830184614d90565b6000602082526145d16020830184614ded565b6020808252602e908201527f496e697469616c697a61626c653a20636f6e747261637420697320616c72656160408201526d191e481a5b9a5d1a585b1a5e995960921b606082015260800190565b60008219821115614ff257614ff2615068565b500190565b60008261501257634e487b7160e01b81526012600452602481fd5b500490565b600081600019048311821515161561503157615031615068565b500290565b60008282101561504857615048615068565b500390565b600060001982141561506157615061615068565b5060010190565b634e487b7160e01b600052601160045260246000fd5b634e487b7160e01b600052604160045260246000fd5b6001600160a01b038116811461434b57600080fdfea26469706673582212201d6f469a69f75ef9bc823bf00d36a7b9c83db36367e2c2d68a25929308d20f1764736f6c63430008030033",
  "devdoc": {
    "kind": "dev",
    "methods": {},
    "version": 1
  },
  "userdoc": {
    "kind": "user",
    "methods": {},
    "version": 1
  },
  "storageLayout": {
    "storage": [
      {
        "astId": 24885,
        "contract": "contracts/utils/Helper.sol:Helper",
        "label": "_initialized",
        "offset": 0,
        "slot": "0",
        "type": "t_bool"
      },
      {
        "astId": 24888,
        "contract": "contracts/utils/Helper.sol:Helper",
        "label": "_initializing",
        "offset": 1,
        "slot": "0",
        "type": "t_bool"
      },
      {
        "astId": 21831,
        "contract": "contracts/utils/Helper.sol:Helper",
        "label": "_roles",
        "offset": 0,
        "slot": "1",
        "type": "t_mapping(t_bytes32,t_struct(RoleData)21826_storage)"
      },
      {
        "astId": 36071,
        "contract": "contracts/utils/Helper.sol:Helper",
        "label": "kokoaRewardManager",
        "offset": 0,
        "slot": "2",
        "type": "t_contract(IKokoaRewardManager)8454"
      },
      {
        "astId": 36074,
        "contract": "contracts/utils/Helper.sol:Helper",
        "label": "ksdRewardManager",
        "offset": 0,
        "slot": "3",
        "type": "t_contract(IKSDRewardManager)7872"
      },
      {
        "astId": 36077,
        "contract": "contracts/utils/Helper.sol:Helper",
        "label": "sKokoa",
        "offset": 0,
        "slot": "4",
        "type": "t_contract(ISKokoaToken)9279"
      },
      {
        "astId": 36080,
        "contract": "contracts/utils/Helper.sol:Helper",
        "label": "ledger",
        "offset": 0,
        "slot": "5",
        "type": "t_contract(ILedger)8858"
      },
      {
        "astId": 36083,
        "contract": "contracts/utils/Helper.sol:Helper",
        "label": "factory",
        "offset": 0,
        "slot": "6",
        "type": "t_contract(IKlaytnFactory)10820"
      },
      {
        "astId": 36086,
        "contract": "contracts/utils/Helper.sol:Helper",
        "label": "bklay",
        "offset": 0,
        "slot": "7",
        "type": "t_contract(IBKlay)7190"
      },
      {
        "astId": 36089,
        "contract": "contracts/utils/Helper.sol:Helper",
        "label": "dksd",
        "offset": 0,
        "slot": "8",
        "type": "t_contract(IKIP7)9935"
      },
      {
        "astId": 36092,
        "contract": "contracts/utils/Helper.sol:Helper",
        "label": "skokoa",
        "offset": 0,
        "slot": "9",
        "type": "t_contract(IKIP7)9935"
      },
      {
        "astId": 36095,
        "contract": "contracts/utils/Helper.sol:Helper",
        "label": "addressBook",
        "offset": 0,
        "slot": "10",
        "type": "t_contract(IAddressBook)6869"
      }
    ],
    "types": {
      "t_address": {
        "encoding": "inplace",
        "label": "address",
        "numberOfBytes": "20"
      },
      "t_bool": {
        "encoding": "inplace",
        "label": "bool",
        "numberOfBytes": "1"
      },
      "t_bytes32": {
        "encoding": "inplace",
        "label": "bytes32",
        "numberOfBytes": "32"
      },
      "t_contract(IAddressBook)6869": {
        "encoding": "inplace",
        "label": "contract IAddressBook",
        "numberOfBytes": "20"
      },
      "t_contract(IBKlay)7190": {
        "encoding": "inplace",
        "label": "contract IBKlay",
        "numberOfBytes": "20"
      },
      "t_contract(IKIP7)9935": {
        "encoding": "inplace",
        "label": "contract IKIP7",
        "numberOfBytes": "20"
      },
      "t_contract(IKSDRewardManager)7872": {
        "encoding": "inplace",
        "label": "contract IKSDRewardManager",
        "numberOfBytes": "20"
      },
      "t_contract(IKlaytnFactory)10820": {
        "encoding": "inplace",
        "label": "contract IKlaytnFactory",
        "numberOfBytes": "20"
      },
      "t_contract(IKokoaRewardManager)8454": {
        "encoding": "inplace",
        "label": "contract IKokoaRewardManager",
        "numberOfBytes": "20"
      },
      "t_contract(ILedger)8858": {
        "encoding": "inplace",
        "label": "contract ILedger",
        "numberOfBytes": "20"
      },
      "t_contract(ISKokoaToken)9279": {
        "encoding": "inplace",
        "label": "contract ISKokoaToken",
        "numberOfBytes": "20"
      },
      "t_mapping(t_address,t_bool)": {
        "encoding": "mapping",
        "key": "t_address",
        "label": "mapping(address => bool)",
        "numberOfBytes": "32",
        "value": "t_bool"
      },
      "t_mapping(t_bytes32,t_struct(RoleData)21826_storage)": {
        "encoding": "mapping",
        "key": "t_bytes32",
        "label": "mapping(bytes32 => struct AccessControl.RoleData)",
        "numberOfBytes": "32",
        "value": "t_struct(RoleData)21826_storage"
      },
      "t_struct(RoleData)21826_storage": {
        "encoding": "inplace",
        "label": "struct AccessControl.RoleData",
        "members": [
          {
            "astId": 21823,
            "contract": "contracts/utils/Helper.sol:Helper",
            "label": "members",
            "offset": 0,
            "slot": "0",
            "type": "t_mapping(t_address,t_bool)"
          },
          {
            "astId": 21825,
            "contract": "contracts/utils/Helper.sol:Helper",
            "label": "adminRole",
            "offset": 0,
            "slot": "1",
            "type": "t_bytes32"
          }
        ],
        "numberOfBytes": "64"
      }
    }
  }
}