{
  "address": "0xBF3EDcC6c47A296CDBc2b9EA955f7c9d8a9Aef6d",
  "abi": [
    {
      "anonymous": false,
      "inputs": [
        {
          "indexed": false,
          "internalType": "address",
          "name": "account",
          "type": "address"
        }
      ],
      "name": "Paused",
      "type": "event"
    },
    {
      "anonymous": false,
      "inputs": [
        {
          "indexed": true,
          "internalType": "bytes32",
          "name": "role",
          "type": "bytes32"
        },
        {
          "indexed": true,
          "internalType": "bytes32",
          "name": "previousAdminRole",
          "type": "bytes32"
        },
        {
          "indexed": true,
          "internalType": "bytes32",
          "name": "newAdminRole",
          "type": "bytes32"
        }
      ],
      "name": "RoleAdminChanged",
      "type": "event"
    },
    {
      "anonymous": false,
      "inputs": [
        {
          "indexed": true,
          "internalType": "bytes32",
          "name": "role",
          "type": "bytes32"
        },
        {
          "indexed": true,
          "internalType": "address",
          "name": "account",
          "type": "address"
        },
        {
          "indexed": true,
          "internalType": "address",
          "name": "sender",
          "type": "address"
        }
      ],
      "name": "RoleGranted",
      "type": "event"
    },
    {
      "anonymous": false,
      "inputs": [
        {
          "indexed": true,
          "internalType": "bytes32",
          "name": "role",
          "type": "bytes32"
        },
        {
          "indexed": true,
          "internalType": "address",
          "name": "account",
          "type": "address"
        },
        {
          "indexed": true,
          "internalType": "address",
          "name": "sender",
          "type": "address"
        }
      ],
      "name": "RoleRevoked",
      "type": "event"
    },
    {
      "anonymous": false,
      "inputs": [
        {
          "indexed": false,
          "internalType": "address",
          "name": "account",
          "type": "address"
        }
      ],
      "name": "Unpaused",
      "type": "event"
    },
    {
      "inputs": [],
      "name": "COLLATERAL_TYPE",
      "outputs": [
        {
          "internalType": "bytes32",
          "name": "",
          "type": "bytes32"
        }
      ],
      "stateMutability": "pure",
      "type": "function"
    },
    {
      "inputs": [],
      "name": "DEFAULT_ADMIN_ROLE",
      "outputs": [
        {
          "internalType": "bytes32",
          "name": "",
          "type": "bytes32"
        }
      ],
      "stateMutability": "view",
      "type": "function"
    },
    {
      "inputs": [
        {
          "internalType": "address",
          "name": "ledger_",
          "type": "address"
        },
        {
          "internalType": "address",
          "name": "kokoaRewardManager_",
          "type": "address"
        }
      ],
      "name": "__IssuedKSDPool_init",
      "outputs": [],
      "stateMutability": "nonpayable",
      "type": "function"
    },
    {
      "inputs": [
        {
          "internalType": "address",
          "name": "usr",
          "type": "address"
        }
      ],
      "name": "balanceOf",
      "outputs": [
        {
          "internalType": "uint256",
          "name": "",
          "type": "uint256"
        }
      ],
      "stateMutability": "view",
      "type": "function"
    },
    {
      "inputs": [
        {
          "internalType": "bytes32",
          "name": "role",
          "type": "bytes32"
        }
      ],
      "name": "getRoleAdmin",
      "outputs": [
        {
          "internalType": "bytes32",
          "name": "",
          "type": "bytes32"
        }
      ],
      "stateMutability": "view",
      "type": "function"
    },
    {
      "inputs": [
        {
          "internalType": "bytes32",
          "name": "role",
          "type": "bytes32"
        },
        {
          "internalType": "address",
          "name": "account",
          "type": "address"
        }
      ],
      "name": "grantRole",
      "outputs": [],
      "stateMutability": "nonpayable",
      "type": "function"
    },
    {
      "inputs": [
        {
          "internalType": "bytes32",
          "name": "role",
          "type": "bytes32"
        },
        {
          "internalType": "address",
          "name": "account",
          "type": "address"
        }
      ],
      "name": "hasRole",
      "outputs": [
        {
          "internalType": "bool",
          "name": "",
          "type": "bool"
        }
      ],
      "stateMutability": "view",
      "type": "function"
    },
    {
      "inputs": [],
      "name": "ledger",
      "outputs": [
        {
          "internalType": "contract ILedger",
          "name": "",
          "type": "address"
        }
      ],
      "stateMutability": "view",
      "type": "function"
    },
    {
      "inputs": [
        {
          "internalType": "int256",
          "name": "amount",
          "type": "int256"
        },
        {
          "internalType": "address",
          "name": "to",
          "type": "address"
        }
      ],
      "name": "onChanged",
      "outputs": [],
      "stateMutability": "nonpayable",
      "type": "function"
    },
    {
      "inputs": [
        {
          "internalType": "uint256",
          "name": "amount",
          "type": "uint256"
        },
        {
          "internalType": "address",
          "name": "to",
          "type": "address"
        }
      ],
      "name": "onDeposit",
      "outputs": [],
      "stateMutability": "nonpayable",
      "type": "function"
    },
    {
      "inputs": [
        {
          "internalType": "uint256",
          "name": "amount",
          "type": "uint256"
        },
        {
          "internalType": "address",
          "name": "to",
          "type": "address"
        }
      ],
      "name": "onWithdraw",
      "outputs": [],
      "stateMutability": "nonpayable",
      "type": "function"
    },
    {
      "inputs": [],
      "name": "pause",
      "outputs": [],
      "stateMutability": "nonpayable",
      "type": "function"
    },
    {
      "inputs": [],
      "name": "paused",
      "outputs": [
        {
          "internalType": "bool",
          "name": "",
          "type": "bool"
        }
      ],
      "stateMutability": "view",
      "type": "function"
    },
    {
      "inputs": [
        {
          "internalType": "bytes32",
          "name": "role",
          "type": "bytes32"
        },
        {
          "internalType": "address",
          "name": "account",
          "type": "address"
        }
      ],
      "name": "renounceRole",
      "outputs": [],
      "stateMutability": "nonpayable",
      "type": "function"
    },
    {
      "inputs": [
        {
          "internalType": "bytes32",
          "name": "role",
          "type": "bytes32"
        },
        {
          "internalType": "address",
          "name": "account",
          "type": "address"
        }
      ],
      "name": "revokeRole",
      "outputs": [],
      "stateMutability": "nonpayable",
      "type": "function"
    },
    {
      "inputs": [],
      "name": "rewardManger",
      "outputs": [
        {
          "internalType": "contract IKokoaRewardManager",
          "name": "",
          "type": "address"
        }
      ],
      "stateMutability": "view",
      "type": "function"
    },
    {
      "inputs": [],
      "name": "totalSupply",
      "outputs": [
        {
          "internalType": "uint256",
          "name": "",
          "type": "uint256"
        }
      ],
      "stateMutability": "view",
      "type": "function"
    },
    {
      "inputs": [
        {
          "internalType": "address",
          "name": "newOwner",
          "type": "address"
        }
      ],
      "name": "transferOwnership",
      "outputs": [],
      "stateMutability": "nonpayable",
      "type": "function"
    },
    {
      "inputs": [],
      "name": "unpause",
      "outputs": [],
      "stateMutability": "nonpayable",
      "type": "function"
    }
  ],
  "transactionHash": "0x0473c98d495bf94aef8c369c2d62bcf180660d00542a03e8d2dcc11d9d173728",
  "args": [],
  "solcInputHash": "de4f5741dec2c2b2fd1b551e118f3df0",
  "bytecode": "0x608060405234801561001057600080fd5b50610e52806100206000396000f3fe608060405234801561001057600080fd5b50600436106101215760003560e01c806370a08231116100ad578063bea679ac11610071578063bea679ac14610234578063d0d9f8ff14610247578063d547741f1461025a578063f2fde38b1461026d578063f3759d5c1461028057610121565b806370a08231146101eb5780638456cb59146101fe57806391d14854146102065780639c0ca52914610219578063a217fddf1461022c57610121565b806336568abe116100f457806336568abe146101765780633f4ba83a1461018957806356397c35146101915780635c975abb146101c15780636bf34832146101d857610121565b806318160ddd14610126578063248a9ca3146101415780632c214c9d146101545780632f2ff15d14610161575b600080fd5b61012e610293565b6040519081526020015b60405180910390f35b61012e61014f366004610d28565b610336565b636b6c617960e01b61012e565b61017461016f366004610d40565b61034f565b005b610174610184366004610d40565b610371565b6101746103f4565b6002546101a99061010090046001600160a01b031681565b6040516001600160a01b039091168152602001610138565b60025460ff165b6040519015158152602001610138565b6101746101e6366004610cf6565b610492565b61012e6101f9366004610cd5565b610550565b6101746105fe565b6101c8610214366004610d40565b610695565b610174610227366004610d40565b6106c0565b61012e600081565b610174610242366004610d40565b61079b565b6003546101a9906001600160a01b031681565b610174610268366004610d40565b610844565b61017461027b366004610cd5565b610861565b61017461028e366004610d40565b61089a565b600254600090819061010090046001600160a01b0316637d5422a76102bc636b6c617960e01b90565b6040518263ffffffff1660e01b81526004016102da91815260200190565b60c06040518083038186803b1580156102f257600080fd5b505afa158015610306573d6000803e3d6000fd5b505050506040513d601f19601f8201168201806040525081019061032a9190610d85565b50929550505050505090565b600081815260016020819052604090912001545b919050565b61035882610336565b6103628133610944565b61036c83836109a8565b505050565b6001600160a01b03811633146103e65760405162461bcd60e51b815260206004820152602f60248201527f416363657373436f6e74726f6c3a2063616e206f6e6c792072656e6f756e636560448201526e103937b632b9903337b91039b2b63360891b60648201526084015b60405180910390fd5b6103f08282610a13565b5050565b60025460ff1661043d5760405162461bcd60e51b815260206004820152601460248201527314185d5cd8589b194e881b9bdd081c185d5cd95960621b60448201526064016103dd565b653830bab9b2b960d11b6104518133610944565b6002805460ff191690556040513381527f5db9ee0a495bf2e6ff9c91a7834c1ba4fdd244a5e8aa4e537bd38aeae4b073aa906020015b60405180910390a150565b600054610100900460ff16806104a75750303b155b806104b5575060005460ff16155b6104d15760405162461bcd60e51b81526004016103dd90610dce565b600054610100900460ff161580156104f3576000805461ffff19166101011790555b6104fb610a7a565b60028054610100600160a81b0319166101006001600160a01b038681169190910291909117909155600380546001600160a01b031916918416919091179055801561036c576000805461ff0019169055505050565b600254600090819061010090046001600160a01b031663b75baf79610579636b6c617960e01b90565b6040516001600160e01b031960e084901b16815260048101919091526001600160a01b0386166024820152604401604080518083038186803b1580156105be57600080fd5b505afa1580156105d2573d6000803e3d6000fd5b505050506040513d601f19601f820116820180604052508101906105f69190610d62565b949350505050565b60025460ff16156106445760405162461bcd60e51b815260206004820152601060248201526f14185d5cd8589b194e881c185d5cd95960821b60448201526064016103dd565b653830bab9b2b960d11b6106588133610944565b6002805460ff191660011790556040513381527f62e78cea01bee320cd4e420270b5ea74000d11b0c9f74754ebdbfc544b05a25890602001610487565b60009182526001602090815260408084206001600160a01b0393909316845291905290205460ff1690565b60025461010090046001600160a01b031633146107305760405162461bcd60e51b815260206004820152602860248201527f4973737565644b5344506f6f6c3a3a6f6e4368616e6765643a206e6f742061756044820152671d1a1bdc9a5e995960c21b60648201526084016103dd565b600354604051639c0ca52960e01b8152600481018490526001600160a01b03838116602483015290911690639c0ca529906044015b600060405180830381600087803b15801561077f57600080fd5b505af1158015610793573d6000803e3d6000fd5b505050505050565b60025461010090046001600160a01b0316331461080b5760405162461bcd60e51b815260206004820152602860248201527f4973737565644b5344506f6f6c3a3a6f6e4465706f7369743a206e6f742061756044820152671d1a1bdc9a5e995960c21b60648201526084016103dd565b600354604051632fa99e6b60e21b8152600481018490526001600160a01b0383811660248301529091169063bea679ac90604401610765565b61084d82610336565b6108578133610944565b61036c8383610a13565b6108736437bbb732b960d91b33610944565b6108856437bbb732b960d91b826109a8565b6108976437bbb732b960d91b33610a13565b50565b60025461010090046001600160a01b0316331461090b5760405162461bcd60e51b815260206004820152602960248201527f4973737565644b5344506f6f6c3a3a6f6e57697468647261773a206e6f7420616044820152681d5d1a1bdc9a5e995960ba1b60648201526084016103dd565b600354604051633cdd675760e21b8152600481018490526001600160a01b0383811660248301529091169063f3759d5c90604401610765565b61094e8282610695565b6103f05760405162461bcd60e51b815260206004820152602560248201527f416363657373436f6e74726f6c3a5f636865636b526f6c653a696e76616c696460448201526420726f6c6560d81b60648201526084016103dd565b6109b28282610695565b6103f05760008281526001602081815260408084206001600160a01b0386168086529252808420805460ff19169093179092559051339285917f2f8788117e7eff1d82e926ec794901d17c78024a50270940304540a733656f0d9190a45050565b610a1d8282610695565b156103f05760008281526001602090815260408083206001600160a01b0385168085529252808320805460ff1916905551339285917ff6391f5c32d9c69d2a47ea670b442974b53935d1edc7fd64eb21e047a839171b9190a45050565b600054610100900460ff1680610a8f5750303b155b80610a9d575060005460ff16155b610ab95760405162461bcd60e51b81526004016103dd90610dce565b600054610100900460ff16158015610adb576000805461ffff19166101011790555b610ae3610b25565b610afe653830bab9b2b960d11b6437bbb732b960d91b610b8e565b610b11653830bab9b2b960d11b33610be3565b8015610897576000805461ff001916905550565b600054610100900460ff1680610b3a5750303b155b80610b48575060005460ff16155b610b645760405162461bcd60e51b81526004016103dd90610dce565b600054610100900460ff16158015610b86576000805461ffff19166101011790555b610b11610bed565b6000610b9983610336565b6000848152600160208190526040808320909101859055519192508391839186917fbd79b86ffe0ab8e8776151514217cd7cacd52c909f66475c3af44e129f0b00ff9190a4505050565b6103f082826109a8565b600054610100900460ff1680610c025750303b155b80610c10575060005460ff16155b610c2c5760405162461bcd60e51b81526004016103dd90610dce565b600054610100900460ff16158015610c4e576000805461ffff19166101011790555b610c606437bbb732b960d91b33610be3565b610c7a6430b236b4b760d91b6437bbb732b960d91b610b8e565b610c976737b832b930ba37b960c11b6437bbb732b960d91b610b8e565b610ca96430b236b4b760d91b33610be3565b610b116737b832b930ba37b960c11b33610be3565b80356001600160a01b038116811461034a57600080fd5b600060208284031215610ce6578081fd5b610cef82610cbe565b9392505050565b60008060408385031215610d08578081fd5b610d1183610cbe565b9150610d1f60208401610cbe565b90509250929050565b600060208284031215610d39578081fd5b5035919050565b60008060408385031215610d52578182fd5b82359150610d1f60208401610cbe565b60008060408385031215610d74578182fd5b505080516020909101519092909150565b60008060008060008060c08789031215610d9d578182fd5b865195506020870151945060408701519350606087015192506080870151915060a087015190509295509295509295565b6020808252602e908201527f496e697469616c697a61626c653a20636f6e747261637420697320616c72656160408201526d191e481a5b9a5d1a585b1a5e995960921b60608201526080019056fea264697066735822122055c5ae3d49c79b0c0f44b1fc5939617ad552c61b7c4ee77c13e83524c880776d64736f6c63430008030033",
  "devdoc": {
    "kind": "dev",
    "methods": {
      "balanceOf(address)": {
        "params": {
          "usr": "address of user"
        }
      },
      "onChanged(int256,address)": {
        "details": " ledger     . (eng)Only ledger contract should be able to call this function",
        "params": {
          "amount": "amount changed",
          "to": "The address of the user"
        }
      },
      "onDeposit(uint256,address)": {
        "details": " ledger     . (eng)Only ledger contract should be able to call this function",
        "params": {
          "amount": "amount increased",
          "to": "The address of the user"
        }
      },
      "onWithdraw(uint256,address)": {
        "details": " ledger     . (eng)Only ledger contract should be able to call this function",
        "params": {
          "amount": "amount decreased",
          "to": "The address of the user"
        }
      }
    },
    "version": 1
  },
  "userdoc": {
    "kind": "user",
    "methods": {
      "balanceOf(address)": {
        "notice": "   ksd Amount of KSD that a user minted against his collateral asset."
      },
      "onChanged(int256,address)": {
        "notice": "onDeposit onWithdraw wrapperA wrapper function for onDeposit and onWithdraw functions"
      },
      "onDeposit(uint256,address)": {
        "notice": "  ksd     functionThis should be called when the amount of KSD user minted from CDP gets increased"
      },
      "onWithdraw(uint256,address)": {
        "notice": "  ksd     functionThis should be called when the amount of KSD user minted from CDP gets decreased"
      },
      "totalSupply()": {
        "notice": "   ksd   (eng)Total amount of KSD minted from CDP"
      }
    },
    "version": 1
  },
  "storageLayout": {
    "storage": [
      {
        "astId": 24885,
        "contract": "contracts/reward/pool/IssuedKSDPool.sol:IssuedKSDPool",
        "label": "_initialized",
        "offset": 0,
        "slot": "0",
        "type": "t_bool"
      },
      {
        "astId": 24888,
        "contract": "contracts/reward/pool/IssuedKSDPool.sol:IssuedKSDPool",
        "label": "_initializing",
        "offset": 1,
        "slot": "0",
        "type": "t_bool"
      },
      {
        "astId": 21831,
        "contract": "contracts/reward/pool/IssuedKSDPool.sol:IssuedKSDPool",
        "label": "_roles",
        "offset": 0,
        "slot": "1",
        "type": "t_mapping(t_bytes32,t_struct(RoleData)21826_storage)"
      },
      {
        "astId": 22221,
        "contract": "contracts/reward/pool/IssuedKSDPool.sol:IssuedKSDPool",
        "label": "_paused",
        "offset": 0,
        "slot": "2",
        "type": "t_bool"
      },
      {
        "astId": 33975,
        "contract": "contracts/reward/pool/IssuedKSDPool.sol:IssuedKSDPool",
        "label": "ledger",
        "offset": 1,
        "slot": "2",
        "type": "t_contract(ILedger)8858"
      },
      {
        "astId": 33978,
        "contract": "contracts/reward/pool/IssuedKSDPool.sol:IssuedKSDPool",
        "label": "rewardManger",
        "offset": 0,
        "slot": "3",
        "type": "t_contract(IKokoaRewardManager)8454"
      }
    ],
    "types": {
      "t_address": {
        "encoding": "inplace",
        "label": "address",
        "numberOfBytes": "20"
      },
      "t_bool": {
        "encoding": "inplace",
        "label": "bool",
        "numberOfBytes": "1"
      },
      "t_bytes32": {
        "encoding": "inplace",
        "label": "bytes32",
        "numberOfBytes": "32"
      },
      "t_contract(IKokoaRewardManager)8454": {
        "encoding": "inplace",
        "label": "contract IKokoaRewardManager",
        "numberOfBytes": "20"
      },
      "t_contract(ILedger)8858": {
        "encoding": "inplace",
        "label": "contract ILedger",
        "numberOfBytes": "20"
      },
      "t_mapping(t_address,t_bool)": {
        "encoding": "mapping",
        "key": "t_address",
        "label": "mapping(address => bool)",
        "numberOfBytes": "32",
        "value": "t_bool"
      },
      "t_mapping(t_bytes32,t_struct(RoleData)21826_storage)": {
        "encoding": "mapping",
        "key": "t_bytes32",
        "label": "mapping(bytes32 => struct AccessControl.RoleData)",
        "numberOfBytes": "32",
        "value": "t_struct(RoleData)21826_storage"
      },
      "t_struct(RoleData)21826_storage": {
        "encoding": "inplace",
        "label": "struct AccessControl.RoleData",
        "members": [
          {
            "astId": 21823,
            "contract": "contracts/reward/pool/IssuedKSDPool.sol:IssuedKSDPool",
            "label": "members",
            "offset": 0,
            "slot": "0",
            "type": "t_mapping(t_address,t_bool)"
          },
          {
            "astId": 21825,
            "contract": "contracts/reward/pool/IssuedKSDPool.sol:IssuedKSDPool",
            "label": "adminRole",
            "offset": 0,
            "slot": "1",
            "type": "t_bytes32"
          }
        ],
        "numberOfBytes": "64"
      }
    }
  }
}