{
  "address": "0xa2aC7D27435023122579A677f940Aa2122BAf558",
  "abi": [
    {
      "anonymous": false,
      "inputs": [
        {
          "indexed": false,
          "internalType": "address",
          "name": "account",
          "type": "address"
        }
      ],
      "name": "Paused",
      "type": "event"
    },
    {
      "anonymous": false,
      "inputs": [
        {
          "indexed": true,
          "internalType": "bytes32",
          "name": "role",
          "type": "bytes32"
        },
        {
          "indexed": true,
          "internalType": "bytes32",
          "name": "previousAdminRole",
          "type": "bytes32"
        },
        {
          "indexed": true,
          "internalType": "bytes32",
          "name": "newAdminRole",
          "type": "bytes32"
        }
      ],
      "name": "RoleAdminChanged",
      "type": "event"
    },
    {
      "anonymous": false,
      "inputs": [
        {
          "indexed": true,
          "internalType": "bytes32",
          "name": "role",
          "type": "bytes32"
        },
        {
          "indexed": true,
          "internalType": "address",
          "name": "account",
          "type": "address"
        },
        {
          "indexed": true,
          "internalType": "address",
          "name": "sender",
          "type": "address"
        }
      ],
      "name": "RoleGranted",
      "type": "event"
    },
    {
      "anonymous": false,
      "inputs": [
        {
          "indexed": true,
          "internalType": "bytes32",
          "name": "role",
          "type": "bytes32"
        },
        {
          "indexed": true,
          "internalType": "address",
          "name": "account",
          "type": "address"
        },
        {
          "indexed": true,
          "internalType": "address",
          "name": "sender",
          "type": "address"
        }
      ],
      "name": "RoleRevoked",
      "type": "event"
    },
    {
      "anonymous": false,
      "inputs": [
        {
          "indexed": false,
          "internalType": "address",
          "name": "account",
          "type": "address"
        }
      ],
      "name": "Unpaused",
      "type": "event"
    },
    {
      "inputs": [],
      "name": "COLLATERAL_TYPE",
      "outputs": [
        {
          "internalType": "bytes32",
          "name": "",
          "type": "bytes32"
        }
      ],
      "stateMutability": "view",
      "type": "function"
    },
    {
      "inputs": [],
      "name": "DEFAULT_ADMIN_ROLE",
      "outputs": [
        {
          "internalType": "bytes32",
          "name": "",
          "type": "bytes32"
        }
      ],
      "stateMutability": "view",
      "type": "function"
    },
    {
      "inputs": [],
      "name": "__BaseYieldFactory_init",
      "outputs": [],
      "stateMutability": "nonpayable",
      "type": "function"
    },
    {
      "inputs": [],
      "name": "__KETHYieldFactory_init",
      "outputs": [],
      "stateMutability": "nonpayable",
      "type": "function"
    },
    {
      "inputs": [],
      "name": "applyProfitAll",
      "outputs": [],
      "stateMutability": "nonpayable",
      "type": "function"
    },
    {
      "inputs": [
        {
          "internalType": "bytes32",
          "name": "what",
          "type": "bytes32"
        },
        {
          "internalType": "address",
          "name": "data",
          "type": "address"
        }
      ],
      "name": "config",
      "outputs": [],
      "stateMutability": "nonpayable",
      "type": "function"
    },
    {
      "inputs": [
        {
          "internalType": "bytes32",
          "name": "role",
          "type": "bytes32"
        }
      ],
      "name": "getRoleAdmin",
      "outputs": [
        {
          "internalType": "bytes32",
          "name": "",
          "type": "bytes32"
        }
      ],
      "stateMutability": "view",
      "type": "function"
    },
    {
      "inputs": [
        {
          "internalType": "bytes32",
          "name": "role",
          "type": "bytes32"
        },
        {
          "internalType": "address",
          "name": "account",
          "type": "address"
        }
      ],
      "name": "grantRole",
      "outputs": [],
      "stateMutability": "nonpayable",
      "type": "function"
    },
    {
      "inputs": [
        {
          "internalType": "bytes32",
          "name": "role",
          "type": "bytes32"
        },
        {
          "internalType": "address",
          "name": "account",
          "type": "address"
        }
      ],
      "name": "hasRole",
      "outputs": [
        {
          "internalType": "bool",
          "name": "",
          "type": "bool"
        }
      ],
      "stateMutability": "view",
      "type": "function"
    },
    {
      "inputs": [],
      "name": "ksd",
      "outputs": [
        {
          "internalType": "contract IKIP7",
          "name": "",
          "type": "address"
        }
      ],
      "stateMutability": "view",
      "type": "function"
    },
    {
      "inputs": [],
      "name": "ksdRefundManager",
      "outputs": [
        {
          "internalType": "contract IKsdRefundManager",
          "name": "",
          "type": "address"
        }
      ],
      "stateMutability": "view",
      "type": "function"
    },
    {
      "inputs": [],
      "name": "ksdRewardManager",
      "outputs": [
        {
          "internalType": "contract IDistributor",
          "name": "",
          "type": "address"
        }
      ],
      "stateMutability": "view",
      "type": "function"
    },
    {
      "inputs": [],
      "name": "pause",
      "outputs": [],
      "stateMutability": "nonpayable",
      "type": "function"
    },
    {
      "inputs": [],
      "name": "paused",
      "outputs": [
        {
          "internalType": "bool",
          "name": "",
          "type": "bool"
        }
      ],
      "stateMutability": "view",
      "type": "function"
    },
    {
      "inputs": [
        {
          "internalType": "bytes32",
          "name": "role",
          "type": "bytes32"
        },
        {
          "internalType": "address",
          "name": "account",
          "type": "address"
        }
      ],
      "name": "renounceRole",
      "outputs": [],
      "stateMutability": "nonpayable",
      "type": "function"
    },
    {
      "inputs": [
        {
          "internalType": "bytes32",
          "name": "role",
          "type": "bytes32"
        },
        {
          "internalType": "address",
          "name": "account",
          "type": "address"
        }
      ],
      "name": "revokeRole",
      "outputs": [],
      "stateMutability": "nonpayable",
      "type": "function"
    },
    {
      "inputs": [],
      "name": "sortedYieldList",
      "outputs": [
        {
          "internalType": "address[]",
          "name": "",
          "type": "address[]"
        }
      ],
      "stateMutability": "view",
      "type": "function"
    },
    {
      "inputs": [
        {
          "internalType": "uint256",
          "name": "tokenAmount",
          "type": "uint256"
        }
      ],
      "name": "stake",
      "outputs": [],
      "stateMutability": "nonpayable",
      "type": "function"
    },
    {
      "inputs": [],
      "name": "token",
      "outputs": [
        {
          "internalType": "address",
          "name": "",
          "type": "address"
        }
      ],
      "stateMutability": "view",
      "type": "function"
    },
    {
      "inputs": [],
      "name": "totalAmount",
      "outputs": [
        {
          "internalType": "uint256",
          "name": "",
          "type": "uint256"
        }
      ],
      "stateMutability": "view",
      "type": "function"
    },
    {
      "inputs": [],
      "name": "totalValue",
      "outputs": [
        {
          "internalType": "uint256",
          "name": "",
          "type": "uint256"
        }
      ],
      "stateMutability": "view",
      "type": "function"
    },
    {
      "inputs": [
        {
          "internalType": "address",
          "name": "newOwner",
          "type": "address"
        }
      ],
      "name": "transferOwnership",
      "outputs": [],
      "stateMutability": "nonpayable",
      "type": "function"
    },
    {
      "inputs": [],
      "name": "unpause",
      "outputs": [],
      "stateMutability": "nonpayable",
      "type": "function"
    },
    {
      "inputs": [
        {
          "internalType": "uint256",
          "name": "tokenAmount",
          "type": "uint256"
        }
      ],
      "name": "unstake",
      "outputs": [],
      "stateMutability": "nonpayable",
      "type": "function"
    },
    {
      "inputs": [],
      "name": "yield",
      "outputs": [
        {
          "internalType": "address",
          "name": "",
          "type": "address"
        }
      ],
      "stateMutability": "view",
      "type": "function"
    },
    {
      "inputs": [],
      "name": "yieldManager",
      "outputs": [
        {
          "internalType": "contract IYieldManager",
          "name": "",
          "type": "address"
        }
      ],
      "stateMutability": "view",
      "type": "function"
    }
  ],
  "transactionHash": "0xc2f6d533cffd2223864710fca544667c23ae4ddbef8e5df2d85a4ed0b68741ba",
  "args": [],
  "solcInputHash": "daac9cba34dfabe5953ff704314717f0",
  "bytecode": "0x608060405234801561001057600080fd5b50611952806100206000396000f3fe608060405234801561001057600080fd5b506004361061018e5760003560e01c806380b7af18116100de578063b46d02c711610097578063d4c3eea011610071578063d4c3eea014610312578063d547741f1461031a578063f2fde38b1461032d578063fc0c546a146103405761018e565b8063b46d02c714610193578063d05f7071146102ec578063d366f3b9146102ff5761018e565b806380b7af181461028b5780638456cb591461029e57806391d14854146102a6578063a217fddf146102b9578063a694fc3a146102c1578063a6d5f103146102d45761018e565b80632f2ff15d1161014b57806352e7fd611161012557806352e7fd61146102445780635c975abb1461024c5780635cafb9d31461026357806371ccecb6146102785761018e565b80632f2ff15d1461021657806336568abe146102295780633f4ba83a1461023c5761018e565b8063123713f1146101935780631a39d8ef1461019d578063248a9ca3146101b857806328593984146101cb5780632c214c9d146101f65780632e17de7814610203575b600080fd5b61019b610353565b005b6101a56103da565b6040519081526020015b60405180910390f35b6101a56101c63660046117c6565b6104b1565b6006546101de906001600160a01b031681565b6040516001600160a01b0390911681526020016101af565b630968aa8960e31b6101a5565b61019b6102113660046117c6565b6104ca565b61019b6102243660046117de565b610756565b61019b6102373660046117de565b610773565b61019b6107f1565b61019b61088f565b60025460ff165b60405190151581526020016101af565b61026b610b43565b6040516101af9190611821565b6003546101de906001600160a01b031681565b6007546101de906001600160a01b031681565b61019b610e24565b6102536102b43660046117de565b610ebb565b6101a5600081565b61019b6102cf3660046117c6565b610ee6565b6002546101de9061010090046001600160a01b031681565b6004546101de906001600160a01b031681565b61019b61030d3660046117de565b61107f565b6101a5611274565b61019b6103283660046117de565b611344565b61019b61033b366004611785565b611361565b6005546101de906001600160a01b031681565b600054610100900460ff16806103685750303b155b80610376575060005460ff16155b61039b5760405162461bcd60e51b81526004016103929061186e565b60405180910390fd5b600054610100900460ff161580156103bd576000805461ffff19166101011790555b6103c5611397565b80156103d7576000805461ff00191690555b50565b6000806103e561142e565b90506000805b82518110156104aa5782818151811061041457634e487b7160e01b600052603260045260246000fd5b60200260200101516001600160a01b0316631a39d8ef6040518163ffffffff1660e01b815260040160206040518083038186803b15801561045457600080fd5b505afa158015610468573d6000803e3d6000fd5b505050506040513d601f19601f8201168201806040525081019061048c9190611809565b61049690836118bc565b9150806104a2816118eb565b9150506103eb565b5091505090565b600081815260016020819052604090912001545b919050565b6104dc6430b236b4b760d91b3361149f565b60006104e6610b43565b90508160005b825181101561070257816104ff57610702565b600083828151811061052157634e487b7160e01b600052603260045260246000fd5b6020026020010151905082816001600160a01b0316631a39d8ef6040518163ffffffff1660e01b815260040160206040518083038186803b15801561056557600080fd5b505afa158015610579573d6000803e3d6000fd5b505050506040513d601f19601f8201168201806040525081019061059d9190611809565b1061060f576040516305c2fbcf60e31b8152600481018490526001600160a01b03821690632e17de7890602401600060405180830381600087803b1580156105e457600080fd5b505af11580156105f8573d6000803e3d6000fd5b50505050828361060891906118d4565b92506106ef565b6000816001600160a01b0316631a39d8ef6040518163ffffffff1660e01b815260040160206040518083038186803b15801561064a57600080fd5b505afa15801561065e573d6000803e3d6000fd5b505050506040513d601f19601f820116820180604052508101906106829190611809565b6040516305c2fbcf60e31b8152600481018290529091506001600160a01b03831690632e17de7890602401600060405180830381600087803b1580156106c757600080fd5b505af11580156106db573d6000803e3d6000fd5b5050505080846106eb91906118d4565b9350505b50806106fa816118eb565b9150506104ec565b5080156107515760405162461bcd60e51b815260206004820152601f60248201527f426173655969656c64466163746f72793a3a756e7374616b653a206661696c006044820152606401610392565b505050565b61075f826104b1565b610769813361149f565b6107518383611503565b6001600160a01b03811633146107e35760405162461bcd60e51b815260206004820152602f60248201527f416363657373436f6e74726f6c3a2063616e206f6e6c792072656e6f756e636560448201526e103937b632b9903337b91039b2b63360891b6064820152608401610392565b6107ed828261156e565b5050565b60025460ff1661083a5760405162461bcd60e51b815260206004820152601460248201527314185d5cd8589b194e881b9bdd081c185d5cd95960621b6044820152606401610392565b653830bab9b2b960d11b61084e813361149f565b6002805460ff191690556040513381527f5db9ee0a495bf2e6ff9c91a7834c1ba4fdd244a5e8aa4e537bd38aeae4b073aa906020015b60405180910390a150565b600061089961142e565b90506000805b8251811015610a3c5760008382815181106108ca57634e487b7160e01b600052603260045260246000fd5b60200260200101516001600160a01b031663cf712f6f6040518163ffffffff1660e01b8152600401602060405180830381600087803b15801561090c57600080fd5b505af1158015610920573d6000803e3d6000fd5b505050506040513d601f19601f820116820180604052508101906109449190611809565b9050600260019054906101000a90046001600160a01b03166001600160a01b03166323b872dd85848151811061098a57634e487b7160e01b600052603260045260246000fd5b60209081029190910101516040516001600160e01b031960e084901b1681526001600160a01b03909116600482015230602482015260448101849052606401602060405180830381600087803b1580156109e357600080fd5b505af11580156109f7573d6000803e3d6000fd5b505050506040513d601f19601f82011682018060405250810190610a1b91906117a6565b50610a2681846118bc565b9250508080610a34906118eb565b91505061089f565b506000630968aa8960e31b60025460075460405163095ea7b360e01b81526001600160a01b03918216600482015260248101869052929350610100909104169063095ea7b390604401602060405180830381600087803b158015610a9f57600080fd5b505af1158015610ab3573d6000803e3d6000fd5b505050506040513d601f19601f82011682018060405250810190610ad791906117a6565b5060075460405163eae1c14d60e01b815260048101839052602481018490526001600160a01b039091169063eae1c14d906044015b600060405180830381600087803b158015610b2657600080fd5b505af1158015610b3a573d6000803e3d6000fd5b50505050505050565b6040805160018082528183019092526060916000919060208083019080368337505060065482519293506001600160a01b031691839150600090610b9757634e487b7160e01b600052603260045260246000fd5b60200260200101906001600160a01b031690816001600160a01b03168152505060005b8151811015610e1e576000828281518110610be557634e487b7160e01b600052603260045260246000fd5b60200260200101516001600160a01b031663df63c8b66040518163ffffffff1660e01b815260040160206040518083038186803b158015610c2557600080fd5b505afa158015610c39573d6000803e3d6000fd5b505050506040513d601f19601f82011682018060405250810190610c5d9190611809565b90506000610c6c8360016118bc565b90505b8351811015610e09576000848281518110610c9a57634e487b7160e01b600052603260045260246000fd5b60200260200101516001600160a01b031663df63c8b66040518163ffffffff1660e01b815260040160206040518083038186803b158015610cda57600080fd5b505afa158015610cee573d6000803e3d6000fd5b505050506040513d601f19601f82011682018060405250810190610d129190611809565b905080831115610df6578092506000858381518110610d4157634e487b7160e01b600052603260045260246000fd5b60200260200101519050858581518110610d6b57634e487b7160e01b600052603260045260246000fd5b6020026020010151868481518110610d9357634e487b7160e01b600052603260045260246000fd5b60200260200101906001600160a01b031690816001600160a01b03168152505080868681518110610dd457634e487b7160e01b600052603260045260246000fd5b60200260200101906001600160a01b031690816001600160a01b031681525050505b5080610e01816118eb565b915050610c6f565b50508080610e16906118eb565b915050610bba565b50905090565b60025460ff1615610e6a5760405162461bcd60e51b815260206004820152601060248201526f14185d5cd8589b194e881c185d5cd95960821b6044820152606401610392565b653830bab9b2b960d11b610e7e813361149f565b6002805460ff191660011790556040513381527f62e78cea01bee320cd4e420270b5ea74000d11b0c9f74754ebdbfc544b05a25890602001610884565b60009182526001602090815260408084206001600160a01b0393909316845291905290205460ff1690565b610ef86430b236b4b760d91b3361149f565b6005546040516323b872dd60e01b8152336004820152306024820152604481018390526001600160a01b03909116906323b872dd90606401602060405180830381600087803b158015610f4a57600080fd5b505af1158015610f5e573d6000803e3d6000fd5b505050506040513d601f19601f82011682018060405250810190610f8291906117a6565b5060055460065460405163095ea7b360e01b81526001600160a01b0391821660048201526024810184905291169063095ea7b390604401602060405180830381600087803b158015610fd357600080fd5b505af1158015610fe7573d6000803e3d6000fd5b505050506040513d601f19601f8201168201806040525081019061100b91906117a6565b506000611016610b43565b90506000816001835161102991906118d4565b8151811061104757634e487b7160e01b600052603260045260246000fd5b60200260200101519050806001600160a01b031663a694fc3a846040518263ffffffff1660e01b8152600401610b0c91815260200190565b6110916430b236b4b760d91b3361149f565b60025460ff16156110d75760405162461bcd60e51b815260206004820152601060248201526f14185d5cd8589b194e881c185d5cd95960821b6044820152606401610392565b81621adcd960ea1b141561110a5760028054610100600160a81b0319166101006001600160a01b038416021790556107ed565b816f35b9b22932b33ab73226b0b730b3b2b960811b141561114557600380546001600160a01b0319166001600160a01b0383161790556107ed565b816f35b9b22932bbb0b93226b0b730b3b2b960811b141561118057600480546001600160a01b0319166001600160a01b0383161790556107ed565b81643a37b5b2b760d91b14156111b057600580546001600160a01b0319166001600160a01b0383161790556107ed565b81641e5a595b1960da1b14156111e057600680546001600160a01b0319166001600160a01b0383161790556107ed565b816b3cb4b2b63226b0b730b3b2b960a11b141561121757600780546001600160a01b0319166001600160a01b0383161790556107ed565b60405162461bcd60e51b815260206004820152602c60248201527f426173655969656c64466163746f72793a3a636f6e6669673a20756e7265636f60448201526b676e697a65642d706172616d60a01b6064820152608401610392565b60008061127f61142e565b90506000805b82518110156104aa578281815181106112ae57634e487b7160e01b600052603260045260246000fd5b60200260200101516001600160a01b031663d4c3eea06040518163ffffffff1660e01b815260040160206040518083038186803b1580156112ee57600080fd5b505afa158015611302573d6000803e3d6000fd5b505050506040513d601f19601f820116820180604052508101906113269190611809565b61133090836118bc565b91508061133c816118eb565b915050611285565b61134d826104b1565b611357813361149f565b610751838361156e565b6113736437bbb732b960d91b3361149f565b6113856437bbb732b960d91b82611503565b6103d76437bbb732b960d91b3361156e565b600054610100900460ff16806113ac5750303b155b806113ba575060005460ff16155b6113d65760405162461bcd60e51b81526004016103929061186e565b600054610100900460ff161580156113f8576000805461ffff19166101011790555b6114006115d5565b61141b653830bab9b2b960d11b6437bbb732b960d91b61163e565b6103c5653830bab9b2b960d11b33611693565b6040805160018082528183019092526060916000919060208083019080368337505060065482519293506001600160a01b03169183915060009061148257634e487b7160e01b600052603260045260246000fd5b6001600160a01b0390921660209283029190910190910152905090565b6114a98282610ebb565b6107ed5760405162461bcd60e51b815260206004820152602560248201527f416363657373436f6e74726f6c3a5f636865636b526f6c653a696e76616c696460448201526420726f6c6560d81b6064820152608401610392565b61150d8282610ebb565b6107ed5760008281526001602081815260408084206001600160a01b0386168086529252808420805460ff19169093179092559051339285917f2f8788117e7eff1d82e926ec794901d17c78024a50270940304540a733656f0d9190a45050565b6115788282610ebb565b156107ed5760008281526001602090815260408083206001600160a01b0385168085529252808320805460ff1916905551339285917ff6391f5c32d9c69d2a47ea670b442974b53935d1edc7fd64eb21e047a839171b9190a45050565b600054610100900460ff16806115ea5750303b155b806115f8575060005460ff16155b6116145760405162461bcd60e51b81526004016103929061186e565b600054610100900460ff16158015611636576000805461ffff19166101011790555b6103c561169d565b6000611649836104b1565b6000848152600160208190526040808320909101859055519192508391839186917fbd79b86ffe0ab8e8776151514217cd7cacd52c909f66475c3af44e129f0b00ff9190a4505050565b6107ed8282611503565b600054610100900460ff16806116b25750303b155b806116c0575060005460ff16155b6116dc5760405162461bcd60e51b81526004016103929061186e565b600054610100900460ff161580156116fe576000805461ffff19166101011790555b6117106437bbb732b960d91b33611693565b61172a6430b236b4b760d91b6437bbb732b960d91b61163e565b6117476737b832b930ba37b960c11b6437bbb732b960d91b61163e565b6117596430b236b4b760d91b33611693565b6103c56737b832b930ba37b960c11b33611693565b80356001600160a01b03811681146104c557600080fd5b600060208284031215611796578081fd5b61179f8261176e565b9392505050565b6000602082840312156117b7578081fd5b8151801515811461179f578182fd5b6000602082840312156117d7578081fd5b5035919050565b600080604083850312156117f0578081fd5b823591506118006020840161176e565b90509250929050565b60006020828403121561181a578081fd5b5051919050565b6020808252825182820181905260009190848201906040850190845b818110156118625783516001600160a01b03168352928401929184019160010161183d565b50909695505050505050565b6020808252602e908201527f496e697469616c697a61626c653a20636f6e747261637420697320616c72656160408201526d191e481a5b9a5d1a585b1a5e995960921b606082015260800190565b600082198211156118cf576118cf611906565b500190565b6000828210156118e6576118e6611906565b500390565b60006000198214156118ff576118ff611906565b5060010190565b634e487b7160e01b600052601160045260246000fdfea264697066735822122028fa918db45d5360e51e54095e76537dd640d3ba3692320e124a6af1a237209c64736f6c63430008030033",
  "devdoc": {
    "details": "Independent strategies are called yield.",
    "kind": "dev",
    "methods": {
      "stake(uint256)": {
        "params": {
          "tokenAmount": "Amount of token to stake"
        }
      },
      "unstake(uint256)": {
        "params": {
          "tokenAmount": "Amount of token to unstake"
        }
      }
    },
    "title": "Management of strategies to operate the deposited token.",
    "version": 1
  },
  "userdoc": {
    "kind": "user",
    "methods": {
      "applyProfitAll()": {
        "notice": "In all yields, call claimReward function."
      },
      "stake(uint256)": {
        "notice": "Add collateral to staking yield"
      },
      "unstake(uint256)": {
        "notice": "Remove token from yield."
      }
    },
    "notice": "Each strategy can stake token.",
    "version": 1
  },
  "storageLayout": {
    "storage": [
      {
        "astId": 23220,
        "contract": "contracts/collateral/KETH/KETHYieldFactory.sol:KETHYieldFactory",
        "label": "_initialized",
        "offset": 0,
        "slot": "0",
        "type": "t_bool"
      },
      {
        "astId": 23223,
        "contract": "contracts/collateral/KETH/KETHYieldFactory.sol:KETHYieldFactory",
        "label": "_initializing",
        "offset": 1,
        "slot": "0",
        "type": "t_bool"
      },
      {
        "astId": 20166,
        "contract": "contracts/collateral/KETH/KETHYieldFactory.sol:KETHYieldFactory",
        "label": "_roles",
        "offset": 0,
        "slot": "1",
        "type": "t_mapping(t_bytes32,t_struct(RoleData)20161_storage)"
      },
      {
        "astId": 20556,
        "contract": "contracts/collateral/KETH/KETHYieldFactory.sol:KETHYieldFactory",
        "label": "_paused",
        "offset": 0,
        "slot": "2",
        "type": "t_bool"
      },
      {
        "astId": 39294,
        "contract": "contracts/collateral/KETH/KETHYieldFactory.sol:KETHYieldFactory",
        "label": "ksd",
        "offset": 1,
        "slot": "2",
        "type": "t_contract(IKIP7)9881"
      },
      {
        "astId": 39297,
        "contract": "contracts/collateral/KETH/KETHYieldFactory.sol:KETHYieldFactory",
        "label": "ksdRefundManager",
        "offset": 0,
        "slot": "3",
        "type": "t_contract(IKsdRefundManager)8504"
      },
      {
        "astId": 39300,
        "contract": "contracts/collateral/KETH/KETHYieldFactory.sol:KETHYieldFactory",
        "label": "ksdRewardManager",
        "offset": 0,
        "slot": "4",
        "type": "t_contract(IDistributor)7358"
      },
      {
        "astId": 39303,
        "contract": "contracts/collateral/KETH/KETHYieldFactory.sol:KETHYieldFactory",
        "label": "token",
        "offset": 0,
        "slot": "5",
        "type": "t_address"
      },
      {
        "astId": 39305,
        "contract": "contracts/collateral/KETH/KETHYieldFactory.sol:KETHYieldFactory",
        "label": "yield",
        "offset": 0,
        "slot": "6",
        "type": "t_address"
      },
      {
        "astId": 39308,
        "contract": "contracts/collateral/KETH/KETHYieldFactory.sol:KETHYieldFactory",
        "label": "yieldManager",
        "offset": 0,
        "slot": "7",
        "type": "t_contract(IYieldManager)9728"
      }
    ],
    "types": {
      "t_address": {
        "encoding": "inplace",
        "label": "address",
        "numberOfBytes": "20"
      },
      "t_bool": {
        "encoding": "inplace",
        "label": "bool",
        "numberOfBytes": "1"
      },
      "t_bytes32": {
        "encoding": "inplace",
        "label": "bytes32",
        "numberOfBytes": "32"
      },
      "t_contract(IDistributor)7358": {
        "encoding": "inplace",
        "label": "contract IDistributor",
        "numberOfBytes": "20"
      },
      "t_contract(IKIP7)9881": {
        "encoding": "inplace",
        "label": "contract IKIP7",
        "numberOfBytes": "20"
      },
      "t_contract(IKsdRefundManager)8504": {
        "encoding": "inplace",
        "label": "contract IKsdRefundManager",
        "numberOfBytes": "20"
      },
      "t_contract(IYieldManager)9728": {
        "encoding": "inplace",
        "label": "contract IYieldManager",
        "numberOfBytes": "20"
      },
      "t_mapping(t_address,t_bool)": {
        "encoding": "mapping",
        "key": "t_address",
        "label": "mapping(address => bool)",
        "numberOfBytes": "32",
        "value": "t_bool"
      },
      "t_mapping(t_bytes32,t_struct(RoleData)20161_storage)": {
        "encoding": "mapping",
        "key": "t_bytes32",
        "label": "mapping(bytes32 => struct AccessControl.RoleData)",
        "numberOfBytes": "32",
        "value": "t_struct(RoleData)20161_storage"
      },
      "t_struct(RoleData)20161_storage": {
        "encoding": "inplace",
        "label": "struct AccessControl.RoleData",
        "members": [
          {
            "astId": 20158,
            "contract": "contracts/collateral/KETH/KETHYieldFactory.sol:KETHYieldFactory",
            "label": "members",
            "offset": 0,
            "slot": "0",
            "type": "t_mapping(t_address,t_bool)"
          },
          {
            "astId": 20160,
            "contract": "contracts/collateral/KETH/KETHYieldFactory.sol:KETHYieldFactory",
            "label": "adminRole",
            "offset": 0,
            "slot": "1",
            "type": "t_bytes32"
          }
        ],
        "numberOfBytes": "64"
      }
    }
  }
}