{
  "address": "0x928aD307DaF3F6F618254EF33aC66301231ecD8a",
  "abi": [
    {
      "anonymous": false,
      "inputs": [
        {
          "indexed": false,
          "internalType": "address",
          "name": "account",
          "type": "address"
        }
      ],
      "name": "Paused",
      "type": "event"
    },
    {
      "anonymous": false,
      "inputs": [
        {
          "indexed": true,
          "internalType": "bytes32",
          "name": "role",
          "type": "bytes32"
        },
        {
          "indexed": true,
          "internalType": "bytes32",
          "name": "previousAdminRole",
          "type": "bytes32"
        },
        {
          "indexed": true,
          "internalType": "bytes32",
          "name": "newAdminRole",
          "type": "bytes32"
        }
      ],
      "name": "RoleAdminChanged",
      "type": "event"
    },
    {
      "anonymous": false,
      "inputs": [
        {
          "indexed": true,
          "internalType": "bytes32",
          "name": "role",
          "type": "bytes32"
        },
        {
          "indexed": true,
          "internalType": "address",
          "name": "account",
          "type": "address"
        },
        {
          "indexed": true,
          "internalType": "address",
          "name": "sender",
          "type": "address"
        }
      ],
      "name": "RoleGranted",
      "type": "event"
    },
    {
      "anonymous": false,
      "inputs": [
        {
          "indexed": true,
          "internalType": "bytes32",
          "name": "role",
          "type": "bytes32"
        },
        {
          "indexed": true,
          "internalType": "address",
          "name": "account",
          "type": "address"
        },
        {
          "indexed": true,
          "internalType": "address",
          "name": "sender",
          "type": "address"
        }
      ],
      "name": "RoleRevoked",
      "type": "event"
    },
    {
      "anonymous": false,
      "inputs": [
        {
          "indexed": false,
          "internalType": "address",
          "name": "account",
          "type": "address"
        }
      ],
      "name": "Unpaused",
      "type": "event"
    },
    {
      "stateMutability": "payable",
      "type": "fallback"
    },
    {
      "inputs": [],
      "name": "DEFAULT_ADMIN_ROLE",
      "outputs": [
        {
          "internalType": "bytes32",
          "name": "",
          "type": "bytes32"
        }
      ],
      "stateMutability": "view",
      "type": "function"
    },
    {
      "inputs": [],
      "name": "__Taker_init",
      "outputs": [],
      "stateMutability": "nonpayable",
      "type": "function"
    },
    {
      "inputs": [],
      "name": "auctionHouse",
      "outputs": [
        {
          "internalType": "contract IAuctionHouse",
          "name": "",
          "type": "address"
        }
      ],
      "stateMutability": "view",
      "type": "function"
    },
    {
      "inputs": [],
      "name": "bKlay",
      "outputs": [
        {
          "internalType": "contract IBKlay",
          "name": "",
          "type": "address"
        }
      ],
      "stateMutability": "view",
      "type": "function"
    },
    {
      "inputs": [],
      "name": "claimKlay",
      "outputs": [],
      "stateMutability": "nonpayable",
      "type": "function"
    },
    {
      "inputs": [
        {
          "internalType": "bytes32",
          "name": "what",
          "type": "bytes32"
        },
        {
          "internalType": "address",
          "name": "data",
          "type": "address"
        }
      ],
      "name": "config",
      "outputs": [],
      "stateMutability": "nonpayable",
      "type": "function"
    },
    {
      "inputs": [
        {
          "internalType": "bytes32",
          "name": "what",
          "type": "bytes32"
        },
        {
          "internalType": "uint256",
          "name": "data",
          "type": "uint256"
        }
      ],
      "name": "config",
      "outputs": [],
      "stateMutability": "nonpayable",
      "type": "function"
    },
    {
      "inputs": [
        {
          "internalType": "uint256",
          "name": "id",
          "type": "uint256"
        }
      ],
      "name": "debugAuction",
      "outputs": [
        {
          "internalType": "uint256",
          "name": "price",
          "type": "uint256"
        },
        {
          "internalType": "uint256",
          "name": "klayPriceMin",
          "type": "uint256"
        },
        {
          "internalType": "uint256",
          "name": "maxKsdAmount",
          "type": "uint256"
        },
        {
          "internalType": "uint256",
          "name": "klayAmount",
          "type": "uint256"
        },
        {
          "internalType": "uint256",
          "name": "ksdAmount",
          "type": "uint256"
        },
        {
          "internalType": "uint256",
          "name": "bKlayAmount",
          "type": "uint256"
        }
      ],
      "stateMutability": "view",
      "type": "function"
    },
    {
      "inputs": [
        {
          "internalType": "uint256",
          "name": "amount",
          "type": "uint256"
        }
      ],
      "name": "exitKsdGateway",
      "outputs": [],
      "stateMutability": "nonpayable",
      "type": "function"
    },
    {
      "inputs": [
        {
          "internalType": "bytes32",
          "name": "role",
          "type": "bytes32"
        }
      ],
      "name": "getRoleAdmin",
      "outputs": [
        {
          "internalType": "bytes32",
          "name": "",
          "type": "bytes32"
        }
      ],
      "stateMutability": "view",
      "type": "function"
    },
    {
      "inputs": [
        {
          "internalType": "bytes32",
          "name": "role",
          "type": "bytes32"
        },
        {
          "internalType": "address",
          "name": "account",
          "type": "address"
        }
      ],
      "name": "grantRole",
      "outputs": [],
      "stateMutability": "nonpayable",
      "type": "function"
    },
    {
      "inputs": [
        {
          "internalType": "bytes32",
          "name": "role",
          "type": "bytes32"
        },
        {
          "internalType": "address",
          "name": "account",
          "type": "address"
        }
      ],
      "name": "hasRole",
      "outputs": [
        {
          "internalType": "bool",
          "name": "",
          "type": "bool"
        }
      ],
      "stateMutability": "view",
      "type": "function"
    },
    {
      "inputs": [
        {
          "internalType": "bytes32",
          "name": "colType",
          "type": "bytes32"
        },
        {
          "internalType": "uint256",
          "name": "id",
          "type": "uint256"
        }
      ],
      "name": "isProfitable",
      "outputs": [
        {
          "internalType": "bool",
          "name": "",
          "type": "bool"
        }
      ],
      "stateMutability": "view",
      "type": "function"
    },
    {
      "inputs": [
        {
          "internalType": "uint256",
          "name": "amount",
          "type": "uint256"
        }
      ],
      "name": "joinKsdGateway",
      "outputs": [],
      "stateMutability": "nonpayable",
      "type": "function"
    },
    {
      "inputs": [],
      "name": "klayGateway",
      "outputs": [
        {
          "internalType": "contract IKlayGateway",
          "name": "",
          "type": "address"
        }
      ],
      "stateMutability": "view",
      "type": "function"
    },
    {
      "inputs": [],
      "name": "klayKsdPool",
      "outputs": [
        {
          "internalType": "contract IKlaytnExchange",
          "name": "",
          "type": "address"
        }
      ],
      "stateMutability": "view",
      "type": "function"
    },
    {
      "inputs": [],
      "name": "klayswap",
      "outputs": [
        {
          "internalType": "contract IKlaytnFactory",
          "name": "",
          "type": "address"
        }
      ],
      "stateMutability": "view",
      "type": "function"
    },
    {
      "inputs": [],
      "name": "ksd",
      "outputs": [
        {
          "internalType": "contract IKIP7",
          "name": "",
          "type": "address"
        }
      ],
      "stateMutability": "view",
      "type": "function"
    },
    {
      "inputs": [],
      "name": "ksdGateway",
      "outputs": [
        {
          "internalType": "contract IKSDGateway",
          "name": "",
          "type": "address"
        }
      ],
      "stateMutability": "view",
      "type": "function"
    },
    {
      "inputs": [],
      "name": "ledger",
      "outputs": [
        {
          "internalType": "contract ILedger",
          "name": "",
          "type": "address"
        }
      ],
      "stateMutability": "view",
      "type": "function"
    },
    {
      "inputs": [],
      "name": "minProfitRate",
      "outputs": [
        {
          "internalType": "uint256",
          "name": "",
          "type": "uint256"
        }
      ],
      "stateMutability": "view",
      "type": "function"
    },
    {
      "inputs": [
        {
          "internalType": "address",
          "name": "account",
          "type": "address"
        },
        {
          "internalType": "uint256",
          "name": "klayAmount",
          "type": "uint256"
        },
        {
          "internalType": "uint256",
          "name": "fee",
          "type": "uint256"
        },
        {
          "internalType": "bytes",
          "name": "data",
          "type": "bytes"
        }
      ],
      "name": "onFlashLoan",
      "outputs": [
        {
          "internalType": "bool",
          "name": "",
          "type": "bool"
        }
      ],
      "stateMutability": "nonpayable",
      "type": "function"
    },
    {
      "inputs": [],
      "name": "otcFund",
      "outputs": [
        {
          "internalType": "contract IOtcFund",
          "name": "",
          "type": "address"
        }
      ],
      "stateMutability": "view",
      "type": "function"
    },
    {
      "inputs": [],
      "name": "pause",
      "outputs": [],
      "stateMutability": "nonpayable",
      "type": "function"
    },
    {
      "inputs": [],
      "name": "paused",
      "outputs": [
        {
          "internalType": "bool",
          "name": "",
          "type": "bool"
        }
      ],
      "stateMutability": "view",
      "type": "function"
    },
    {
      "inputs": [],
      "name": "pendingKlay",
      "outputs": [
        {
          "internalType": "uint256",
          "name": "",
          "type": "uint256"
        },
        {
          "internalType": "uint256",
          "name": "",
          "type": "uint256"
        }
      ],
      "stateMutability": "view",
      "type": "function"
    },
    {
      "inputs": [
        {
          "internalType": "bytes32",
          "name": "role",
          "type": "bytes32"
        },
        {
          "internalType": "address",
          "name": "account",
          "type": "address"
        }
      ],
      "name": "renounceRole",
      "outputs": [],
      "stateMutability": "nonpayable",
      "type": "function"
    },
    {
      "inputs": [
        {
          "internalType": "bytes32",
          "name": "role",
          "type": "bytes32"
        },
        {
          "internalType": "address",
          "name": "account",
          "type": "address"
        }
      ],
      "name": "revokeRole",
      "outputs": [],
      "stateMutability": "nonpayable",
      "type": "function"
    },
    {
      "inputs": [
        {
          "internalType": "uint256",
          "name": "amount",
          "type": "uint256"
        }
      ],
      "name": "stakeKlayGateway",
      "outputs": [],
      "stateMutability": "nonpayable",
      "type": "function"
    },
    {
      "inputs": [
        {
          "internalType": "bytes32",
          "name": "colType",
          "type": "bytes32"
        },
        {
          "internalType": "uint256",
          "name": "id",
          "type": "uint256"
        }
      ],
      "name": "takeAndExchange",
      "outputs": [],
      "stateMutability": "nonpayable",
      "type": "function"
    },
    {
      "inputs": [
        {
          "internalType": "address",
          "name": "newOwner",
          "type": "address"
        }
      ],
      "name": "transferOwnership",
      "outputs": [],
      "stateMutability": "nonpayable",
      "type": "function"
    },
    {
      "inputs": [],
      "name": "unpause",
      "outputs": [],
      "stateMutability": "nonpayable",
      "type": "function"
    },
    {
      "inputs": [
        {
          "internalType": "uint256",
          "name": "amount",
          "type": "uint256"
        }
      ],
      "name": "unstakeBKlay",
      "outputs": [],
      "stateMutability": "nonpayable",
      "type": "function"
    },
    {
      "inputs": [
        {
          "internalType": "uint256",
          "name": "amount",
          "type": "uint256"
        }
      ],
      "name": "unstakeKlayGateway",
      "outputs": [],
      "stateMutability": "nonpayable",
      "type": "function"
    },
    {
      "inputs": [
        {
          "internalType": "uint256",
          "name": "amount",
          "type": "uint256"
        }
      ],
      "name": "withdrawAKlayAndSwap",
      "outputs": [
        {
          "internalType": "uint256",
          "name": "klayAmount",
          "type": "uint256"
        }
      ],
      "stateMutability": "nonpayable",
      "type": "function"
    },
    {
      "inputs": [
        {
          "internalType": "address",
          "name": "to",
          "type": "address"
        },
        {
          "internalType": "uint256",
          "name": "amount",
          "type": "uint256"
        }
      ],
      "name": "withdrawKlay",
      "outputs": [],
      "stateMutability": "nonpayable",
      "type": "function"
    },
    {
      "inputs": [
        {
          "internalType": "contract IKIP7",
          "name": "token",
          "type": "address"
        },
        {
          "internalType": "address",
          "name": "to",
          "type": "address"
        },
        {
          "internalType": "uint256",
          "name": "amount",
          "type": "uint256"
        }
      ],
      "name": "withdrawToken",
      "outputs": [],
      "stateMutability": "nonpayable",
      "type": "function"
    },
    {
      "stateMutability": "payable",
      "type": "receive"
    }
  ],
  "transactionHash": "0xab57230ce2c8809a53e1447e7b1389642579f3395157f66d563a45a3b30e87d0",
  "args": [],
  "solcInputHash": "de4f5741dec2c2b2fd1b551e118f3df0",
  "bytecode": "0x608060405234801561001057600080fd5b506129b7806100206000396000f3fe60806040526004361061021e5760003560e01c8063aa8de47811610123578063e0a4486b116100ab578063ed9152c81161006f578063ed9152c814610660578063f223fab414610680578063f2fde38b146106a0578063f695a42c146106c0578063ffee9995146106e057610225565b8063e0a4486b146105c1578063e0bed041146105e1578063e90daa9b14610601578063e910276a14610621578063ea144e681461063657610225565b8063cbef8369116100f2578063cbef8369146104f4578063d366f3b914610514578063d42ac96514610534578063d547741f14610554578063df748cd71461057457610225565b8063aa8de4781461046f578063b3ad42ff1461048f578063bed4df20146104b4578063c647849a146104d457610225565b806356397c35116101a657806391d148541161017557806391d14854146103da5780639708a9c8146103fa5780639caee1131461041a578063a217fddf1461043a578063a6d5f1031461044f57610225565b806356397c351461036d5780635c975abb1461038d57806376332348146103a55780638456cb59146103c557610225565b80632eff4ea9116101ed5780632eff4ea9146102c05780632f2ff15d146102f857806336568abe146103185780633f4ba83a1461033857806343c0d1e41461034d57610225565b806301e336671461022757806315a42d591461024757806322eacb471461027c578063248a9ca3146102a057610225565b3661022557005b005b34801561023357600080fd5b5061022561024236600461270e565b6106f5565b34801561025357600080fd5b506102676102623660046126ed565b610889565b60405190151581526020015b60405180910390f35b34801561028857600080fd5b50610292600b5481565b604051908152602001610273565b3480156102ac57600080fd5b506102926102bb3660046126a6565b6108b7565b3480156102cc57600080fd5b506005546102e0906001600160a01b031681565b6040516001600160a01b039091168152602001610273565b34801561030457600080fd5b506102256103133660046126be565b6108d0565b34801561032457600080fd5b506102256103333660046126be565b6108ed565b34801561034457600080fd5b50610225610970565b34801561035957600080fd5b50600a546102e0906001600160a01b031681565b34801561037957600080fd5b506006546102e0906001600160a01b031681565b34801561039957600080fd5b5060025460ff16610267565b3480156103b157600080fd5b506102256103c0366004612594565b610a0e565b3480156103d157600080fd5b50610225610aea565b3480156103e657600080fd5b506102676103f53660046126be565b610b81565b34801561040657600080fd5b506102256104153660046126a6565b610bac565b34801561042657600080fd5b506102676104353660046125bf565b610c24565b34801561044657600080fd5b50610292600081565b34801561045b57600080fd5b506003546102e0906001600160a01b031681565b34801561047b57600080fd5b5061022561048a3660046126a6565b610d00565b34801561049b57600080fd5b506002546102e09061010090046001600160a01b031681565b3480156104c057600080fd5b506102256104cf3660046126ed565b610d7e565b3480156104e057600080fd5b506102256104ef3660046126a6565b610df0565b34801561050057600080fd5b5061022561050f3660046126a6565b610e32565b34801561052057600080fd5b5061022561052f3660046126be565b610f08565b34801561054057600080fd5b506009546102e0906001600160a01b031681565b34801561056057600080fd5b5061022561056f3660046126be565b611133565b34801561058057600080fd5b5061059461058f3660046126a6565b611150565b604080519687526020870195909552938501929092526060840152608083015260a082015260c001610273565b3480156105cd57600080fd5b506008546102e0906001600160a01b031681565b3480156105ed57600080fd5b506102256105fc3660046126ed565b61160c565b34801561060d57600080fd5b5061022561061c3660046126a6565b611640565b34801561062d57600080fd5b50610225611683565b34801561064257600080fd5b5061064b611701565b60408051928352602083019190915201610273565b34801561066c57600080fd5b506007546102e0906001600160a01b031681565b34801561068c57600080fd5b506004546102e0906001600160a01b031681565b3480156106ac57600080fd5b506102256106bb366004612571565b611793565b3480156106cc57600080fd5b506102926106db3660046126a6565b6117c9565b3480156106ec57600080fd5b506102256118ef565b6107076430b236b4b760d91b336119ac565b80610802576040516370a0823160e01b81523060048201526001600160a01b0384169063a9059cbb90849083906370a082319060240160206040518083038186803b15801561075557600080fd5b505afa158015610769573d6000803e3d6000fd5b505050506040513d601f19601f8201168201806040525081019061078d919061274e565b6040518363ffffffff1660e01b81526004016107aa9291906127b4565b602060405180830381600087803b1580156107c457600080fd5b505af11580156107d8573d6000803e3d6000fd5b505050506040513d601f19601f820116820180604052508101906107fc9190612650565b50610884565b60405163a9059cbb60e01b81526001600160a01b0384169063a9059cbb9061083090859085906004016127b4565b602060405180830381600087803b15801561084a57600080fd5b505af115801561085e573d6000803e3d6000fd5b505050506040513d601f19601f820116820180604052508101906108829190612650565b505b505050565b6000636b6c617960e01b831461089e57600080fd5b60006108a983611a10565b151593505050505b92915050565b600081815260016020819052604090912001545b919050565b6108d9826108b7565b6108e381336119ac565b6108848383611ef8565b6001600160a01b03811633146109625760405162461bcd60e51b815260206004820152602f60248201527f416363657373436f6e74726f6c3a2063616e206f6e6c792072656e6f756e636560448201526e103937b632b9903337b91039b2b63360891b60648201526084015b60405180910390fd5b61096c8282611f63565b5050565b60025460ff166109b95760405162461bcd60e51b815260206004820152601460248201527314185d5cd8589b194e881b9bdd081c185d5cd95960621b6044820152606401610959565b653830bab9b2b960d11b6109cd81336119ac565b6002805460ff191690556040513381527f5db9ee0a495bf2e6ff9c91a7834c1ba4fdd244a5e8aa4e537bd38aeae4b073aa906020015b60405180910390a150565b610a206430b236b4b760d91b336119ac565b80610a8a576040516000906001600160a01b038416903031908381818185875af1925050503d8060008114610a71576040519150601f19603f3d011682016040523d82523d6000602084013e610a76565b606091505b5050905080610a8457600080fd5b5061096c565b6000826001600160a01b03168260405160006040518083038185875af1925050503d8060008114610ad7576040519150601f19603f3d011682016040523d82523d6000602084013e610adc565b606091505b505090508061088457600080fd5b60025460ff1615610b305760405162461bcd60e51b815260206004820152601060248201526f14185d5cd8589b194e881c185d5cd95960821b6044820152606401610959565b653830bab9b2b960d11b610b4481336119ac565b6002805460ff191660011790556040513381527f62e78cea01bee320cd4e420270b5ea74000d11b0c9f74754ebdbfc544b05a25890602001610a03565b60009182526001602090815260408084206001600160a01b0393909316845291905290205460ff1690565b610bbe6430b236b4b760d91b336119ac565b60048054604051633b4da69f60e01b81526001600160a01b0390911691633b4da69f91610bef9130918691016127b4565b600060405180830381600087803b158015610c0957600080fd5b505af1158015610c1d573d6000803e3d6000fd5b5050505050565b6008546000906001600160a01b03163314610c3e57600080fd5b60008080610c4e85870187612789565b925092509250610c6083898484611fca565b60025461010090046001600160a01b031663a9059cbb8a610c818a8c6128e8565b6040518363ffffffff1660e01b8152600401610c9e9291906127b4565b602060405180830381600087803b158015610cb857600080fd5b505af1158015610ccc573d6000803e3d6000fd5b505050506040513d601f19601f82011682018060405250810190610cf09190612650565b5060019998505050505050505050565b610d126430b236b4b760d91b336119ac565b600560009054906101000a90046001600160a01b03166001600160a01b0316633a4b66f1826040518263ffffffff1660e01b81526004016000604051808303818588803b158015610d6257600080fd5b505af1158015610d76573d6000803e3d6000fd5b505050505050565b610d936737b832b930ba37b960c11b336119ac565b636b6c617960e01b8214610da657600080fd5b6000806000610db484611a10565b9250925092508260001415610dcb5750505061096c565b30318311610de457610ddf84848484611fca565b610c1d565b610c1d84848484612212565b610e026430b236b4b760d91b336119ac565b600554604051626405b560e41b8152600481018390526001600160a01b03909116906306405b5090602401610bef565b610e476737b832b930ba37b960c11b336119ac565b6002546040516370a0823160e01b81523060048201526101009091046001600160a01b0316906370a082319060240160206040518083038186803b158015610e8e57600080fd5b505afa158015610ea2573d6000803e3d6000fd5b505050506040513d601f19601f82011682018060405250810190610ec6919061274e565b811115610ed257600080fd5b60025460405163238be93f60e01b81526101009091046001600160a01b03169063238be93f90610bef90309085906004016127b4565b610f1a6430b236b4b760d91b336119ac565b8164624b6c617960d81b1415610f4f5760028054610100600160a81b0319166101006001600160a01b0384160217905561096c565b81621adcd960ea1b1415610f7d57600380546001600160a01b0319166001600160a01b03831617905561096c565b81696b73644761746577617960b01b1415610fb257600480546001600160a01b0319166001600160a01b03831617905561096c565b816a6b6c61794761746577617960a81b1415610fe857600580546001600160a01b0319166001600160a01b03831617905561096c565b81653632b233b2b960d11b141561101957600680546001600160a01b0319166001600160a01b03831617905561096c565b816b61756374696f6e486f75736560a01b141561105057600780546001600160a01b0319166001600160a01b03831617905561096c565b81661bdd18d19d5b9960ca1b141561108257600880546001600160a01b0319166001600160a01b03831617905561096c565b816706b6c6179737761760c41b14156110b557600980546001600160a01b0319166001600160a01b03831617905561096c565b816a1adb185e52dcd9141bdbdb60aa1b14156110eb57600a80546001600160a01b0319166001600160a01b03831617905561096c565b60405162461bcd60e51b815260206004820181905260248201527f54616b65723a3a636f6e6669673a756e7265636f676e697a65642d706172616d6044820152606401610959565b61113c826108b7565b61114681336119ac565b6108848383611f63565b600080600080600080600080600080600760009054906101000a90046001600160a01b03166001600160a01b0316635c622a0e8c6040518263ffffffff1660e01b81526004016111a291815260200190565b60806040518083038186803b1580156111ba57600080fd5b505afa1580156111ce573d6000803e3d6000fd5b505050506040513d601f19601f820116820180604052508101906111f2919061266a565b93509350935093508299506000600760009054906101000a90046001600160a01b03166001600160a01b031663be4df7d66040518163ffffffff1660e01b815260040160206040518083038186803b15801561124d57600080fd5b505afa158015611261573d6000803e3d6000fd5b505050506040513d601f19601f82011682018060405250810190611285919061274e565b90508415611297575050505050611603565b633b9aca00600b548c6112aa9190612920565b6112b49190612900565b99506000600a60009054906101000a90046001600160a01b03166001600160a01b031663ddca3f436040518163ffffffff1660e01b815260040160206040518083038186803b15801561130657600080fd5b505afa15801561131a573d6000803e3d6000fd5b505050506040513d601f19601f8201168201806040525081019061133e919061274e565b905061134c8161271061293f565b6113588c612710612920565b6113629190612900565b600a5460408051631a595f6560e01b81528151939e5060009384936001600160a01b031692631a595f659260048082019391829003018186803b1580156113a857600080fd5b505afa1580156113bc573d6000803e3d6000fd5b505050506040513d601f19601f820116820180604052508101906113e09190612766565b9150915060006113fa676765c793fa10079d601b1b6122c0565b6114038f6122c0565b61140c846122c0565b611415866122c0565b61141f9190612920565b6114299190612920565b6114339190612900565b905081811061144a57505050505050505050611603565b611454818361293f565b9a508e61146c676765c793fa10079d601b1b8d612920565b6114769190612900565b995061148d8f886114879190612920565b87612319565b9c508c6114a5676765c793fa10079d601b1b8d612920565b106114e8576114bf676765c793fa10079d601b1b8e612900565b6114ca9060016128e8565b9a506114d68f8e612900565b6114e19060016128e8565b9950611571565b8486116114fd57505050505050505050611603565b611507858761293f565b61151c676765c793fa10079d601b1b8d612920565b1061157157676765c793fa10079d601b1b611537868861293f565b6115419190612900565b61154c9060016128e8565b9a508e611559868861293f565b6115639190612900565b61156e9060016128e8565b99505b600a5460035460405163603acc2160e11b81526001600160a01b039283169263c0759842926115a7929116908f906004016127b4565b60206040518083038186803b1580156115bf57600080fd5b505afa1580156115d3573d6000803e3d6000fd5b505050506040513d601f19601f820116820180604052508101906115f7919061274e565b9b505050505050505050505b91939550919395565b61161e6430b236b4b760d91b336119ac565b816c6d696e50726f6669745261746560981b14156110eb57600b81905561096c565b6116526430b236b4b760d91b336119ac565b6004805460405163ef693bed60e01b81526001600160a01b039091169163ef693bed91610bef9130918691016127b4565b600054610100900460ff16806116985750303b155b806116a6575060005460ff16155b6116c25760405162461bcd60e51b81526004016109599061289a565b600054610100900460ff161580156116e4576000805461ffff19166101011790555b6116ec612331565b80156116fe576000805461ff00191690555b50565b600254604051631b6e4c4160e31b81523060048201526000918291829182916101009091046001600160a01b03169063db72620890602401604080518083038186803b15801561175057600080fd5b505afa158015611764573d6000803e3d6000fd5b505050506040513d601f19601f820116820180604052508101906117889190612766565b909450925050509091565b6117a56437bbb732b960d91b336119ac565b6117b76437bbb732b960d91b82611ef8565b6116fe6437bbb732b960d91b33611f63565b60006117e06737b832b930ba37b960c11b336119ac565b50303160018211801561187157506002546040516370a0823160e01b81523060048201526101009091046001600160a01b0316906370a082319060240160206040518083038186803b15801561183557600080fd5b505afa158015611849573d6000803e3d6000fd5b505050506040513d601f19601f8201168201806040525081019061186d919061274e565b8211155b61187a57600080fd5b600254604051630ec6646960e31b81526101009091046001600160a01b0316906376332348906118b090309086906004016127b4565b600060405180830381600087803b1580156118ca57600080fd5b505af11580156118de573d6000803e3d6000fd5b506108b1925083915050303161293f565b600254604051631b6e4c4160e31b815230600482015260009161010090046001600160a01b03169063db72620890602401604080518083038186803b15801561193757600080fd5b505afa15801561194b573d6000803e3d6000fd5b505050506040513d601f19601f8201168201806040525081019061196f9190612766565b50905080156116fe576002546040516305b9352d60e21b81523060048201526101009091046001600160a01b0316906316e4d4b490602401610bef565b6119b68282610b81565b61096c5760405162461bcd60e51b815260206004820152602560248201527f416363657373436f6e74726f6c3a5f636865636b526f6c653a696e76616c696460448201526420726f6c6560d81b6064820152608401610959565b600754604051632e31150760e11b8152600481018390526000918291829182918291829182916001600160a01b031690635c622a0e9060240160806040518083038186803b158015611a6157600080fd5b505afa158015611a75573d6000803e3d6000fd5b505050506040513d601f19601f82011682018060405250810190611a99919061266a565b93509350935093506000600760009054906101000a90046001600160a01b03166001600160a01b031663be4df7d66040518163ffffffff1660e01b815260040160206040518083038186803b158015611af157600080fd5b505afa158015611b05573d6000803e3d6000fd5b505050506040513d601f19601f82011682018060405250810190611b29919061274e565b90508415611b465760008060009750975097505050505050611ef1565b6000633b9aca00600b5486611b5b9190612920565b611b659190612900565b90506000600a60009054906101000a90046001600160a01b03166001600160a01b031663ddca3f436040518163ffffffff1660e01b815260040160206040518083038186803b158015611bb757600080fd5b505afa158015611bcb573d6000803e3d6000fd5b505050506040513d601f19601f82011682018060405250810190611bef919061274e565b9050611bfd8161271061293f565b611c0983612710612920565b611c139190612900565b600a5460408051631a595f6560e01b8152815193955060009384936001600160a01b031692631a595f659260048082019391829003018186803b158015611c5957600080fd5b505afa158015611c6d573d6000803e3d6000fd5b505050506040513d601f19601f82011682018060405250810190611c919190612766565b915091506000611cab676765c793fa10079d601b1b6122c0565b611cb4866122c0565b611cbd846122c0565b611cc6866122c0565b611cd09190612920565b611cda9190612920565b611ce49190612900565b9050818110611d075760008060009c509c509c5050505050505050505050611ef1565b611d11818361293f565b9b5088611d29676765c793fa10079d601b1b8e612920565b611d339190612900565b9a506000611d4a611d448b8b612920565b89612319565b905080611d62676765c793fa10079d601b1b8f612920565b10611da557611d7c676765c793fa10079d601b1b82612900565b611d879060016128e8565b9c50611d938a82612900565b611d9e9060016128e8565b9b50611e3b565b868811611dc75760008060009d509d509d505050505050505050505050611ef1565b611dd1878961293f565b611de6676765c793fa10079d601b1b8f612920565b10611e3b57676765c793fa10079d601b1b611e01888a61293f565b611e0b9190612900565b611e169060016128e8565b9c5089611e23888a61293f565b611e2d9190612900565b611e389060016128e8565b9b505b600a60009054906101000a90046001600160a01b03166001600160a01b031663c0759842600360009054906101000a90046001600160a01b03168f6040518363ffffffff1660e01b8152600401611e939291906127b4565b60206040518083038186803b158015611eab57600080fd5b505afa158015611ebf573d6000803e3d6000fd5b505050506040513d601f19601f82011682018060405250810190611ee3919061274e565b9d5050505050505050505050505b9193909250565b611f028282610b81565b61096c5760008281526001602081815260408084206001600160a01b0386168086529252808420805460ff19169093179092559051339285917f2f8788117e7eff1d82e926ec794901d17c78024a50270940304540a733656f0d9190a45050565b611f6d8282610b81565b1561096c5760008281526001602090815260408083206001600160a01b0385168085529252808320805460ff1916905551339285917ff6391f5c32d9c69d2a47ea670b442974b53935d1edc7fd64eb21e047a839171b9190a45050565b600954600354604080516000815260208101918290526353e03f4960e11b9091526001600160a01b039283169263a7c07e9292879261201292909116908790602481016127cd565b6000604051808303818588803b15801561202b57600080fd5b505af115801561203f573d6000803e3d6000fd5b505060048054604051633b4da69f60e01b81526001600160a01b039091169450633b4da69f9350612075925030918791016127b4565b600060405180830381600087803b15801561208f57600080fd5b505af11580156120a3573d6000803e3d6000fd5b50506007546040516381a794cb60e01b81526004810188905260248101859052600019604482015230606482015260a06084820152600060a48201526001600160a01b0390911692506381a794cb915060c401600060405180830381600087803b15801561211057600080fd5b505af1158015612124573d6000803e3d6000fd5b5050600554600654604051634907582f60e01b8152636b6c617960e01b60048201523060248201526001600160a01b0392831694506306405b509350911690634907582f9060440160206040518083038186803b15801561218457600080fd5b505afa158015612198573d6000803e3d6000fd5b505050506040513d601f19601f820116820180604052508101906121bc919061274e565b6040518263ffffffff1660e01b81526004016121da91815260200190565b600060405180830381600087803b1580156121f457600080fd5b505af1158015612208573d6000803e3d6000fd5b5050505050505050565b6040805160208101869052808201849052606080820184905282518083039091018152608082019283905260085463701195a160e11b909352916001600160a01b03169063e0232b429061226e90309088908690608401612830565b602060405180830381600087803b15801561228857600080fd5b505af115801561229c573d6000803e3d6000fd5b505050506040513d601f19601f82011682018060405250810190610d769190612650565b60008060026122d08460016128e8565b6122da9190612900565b90508291505b81811015612313579050806002816122f88186612900565b61230291906128e8565b61230c9190612900565b90506122e0565b50919050565b60008183101561232a5750816108b1565b50806108b1565b600054610100900460ff16806123465750303b155b80612354575060005460ff16155b6123705760405162461bcd60e51b81526004016109599061289a565b600054610100900460ff16158015612392576000805461ffff19166101011790555b61239a6123c8565b6123b5653830bab9b2b960d11b6437bbb732b960d91b612431565b6116ec653830bab9b2b960d11b33612486565b600054610100900460ff16806123dd5750303b155b806123eb575060005460ff16155b6124075760405162461bcd60e51b81526004016109599061289a565b600054610100900460ff16158015612429576000805461ffff19166101011790555b6116ec612490565b600061243c836108b7565b6000848152600160208190526040808320909101859055519192508391839186917fbd79b86ffe0ab8e8776151514217cd7cacd52c909f66475c3af44e129f0b00ff9190a4505050565b61096c8282611ef8565b600054610100900460ff16806124a55750303b155b806124b3575060005460ff16155b6124cf5760405162461bcd60e51b81526004016109599061289a565b600054610100900460ff161580156124f1576000805461ffff19166101011790555b6125036437bbb732b960d91b33612486565b61251d6430b236b4b760d91b6437bbb732b960d91b612431565b61253a6737b832b930ba37b960c11b6437bbb732b960d91b612431565b61254c6430b236b4b760d91b33612486565b6116ec6737b832b930ba37b960c11b33612486565b805180151581146108cb57600080fd5b600060208284031215612582578081fd5b813561258d8161296c565b9392505050565b600080604083850312156125a6578081fd5b82356125b18161296c565b946020939093013593505050565b6000806000806000608086880312156125d6578081fd5b85356125e18161296c565b94506020860135935060408601359250606086013567ffffffffffffffff8082111561260b578283fd5b818801915088601f83011261261e578283fd5b81358181111561262c578384fd5b89602082850101111561263d578384fd5b9699959850939650602001949392505050565b600060208284031215612661578081fd5b61258d82612561565b6000806000806080858703121561267f578384fd5b61268885612561565b60208601516040870151606090970151919890975090945092505050565b6000602082840312156126b7578081fd5b5035919050565b600080604083850312156126d0578182fd5b8235915060208301356126e28161296c565b809150509250929050565b600080604083850312156126ff578182fd5b50508035926020909101359150565b600080600060608486031215612722578283fd5b833561272d8161296c565b9250602084013561273d8161296c565b929592945050506040919091013590565b60006020828403121561275f578081fd5b5051919050565b60008060408385031215612778578182fd5b505080516020909101519092909150565b60008060006060848603121561279d578283fd5b505081359360208301359350604090920135919050565b6001600160a01b03929092168252602082015260400190565b6001600160a01b038481168252602080830185905260606040840181905284519084018190526000928583019290916080860190855b81811015612821578551851683529483019491830191600101612803565b50909998505050505050505050565b600060018060a01b038516825260208481840152606060408401528351806060850152825b8181101561287157858101830151858201608001528201612855565b818111156128825783608083870101525b50601f01601f19169290920160800195945050505050565b6020808252602e908201527f496e697469616c697a61626c653a20636f6e747261637420697320616c72656160408201526d191e481a5b9a5d1a585b1a5e995960921b606082015260800190565b600082198211156128fb576128fb612956565b500190565b60008261291b57634e487b7160e01b81526012600452602481fd5b500490565b600081600019048311821515161561293a5761293a612956565b500290565b60008282101561295157612951612956565b500390565b634e487b7160e01b600052601160045260246000fd5b6001600160a01b03811681146116fe57600080fdfea26469706673582212207f0fdf4c4165a2fceffd1b4c093f3677fd08e0aa2a308019bbc4d3d6c8c7439964736f6c63430008030033",
  "devdoc": {
    "kind": "dev",
    "methods": {},
    "version": 1
  },
  "userdoc": {
    "kind": "user",
    "methods": {
      "onFlashLoan(address,uint256,uint256,bytes)": {
        "notice": "action flash loan"
      }
    },
    "version": 1
  },
  "storageLayout": {
    "storage": [
      {
        "astId": 24885,
        "contract": "contracts/keep/KlayAuctionTaker.sol:KlayAuctionTaker",
        "label": "_initialized",
        "offset": 0,
        "slot": "0",
        "type": "t_bool"
      },
      {
        "astId": 24888,
        "contract": "contracts/keep/KlayAuctionTaker.sol:KlayAuctionTaker",
        "label": "_initializing",
        "offset": 1,
        "slot": "0",
        "type": "t_bool"
      },
      {
        "astId": 21831,
        "contract": "contracts/keep/KlayAuctionTaker.sol:KlayAuctionTaker",
        "label": "_roles",
        "offset": 0,
        "slot": "1",
        "type": "t_mapping(t_bytes32,t_struct(RoleData)21826_storage)"
      },
      {
        "astId": 22221,
        "contract": "contracts/keep/KlayAuctionTaker.sol:KlayAuctionTaker",
        "label": "_paused",
        "offset": 0,
        "slot": "2",
        "type": "t_bool"
      },
      {
        "astId": 10843,
        "contract": "contracts/keep/KlayAuctionTaker.sol:KlayAuctionTaker",
        "label": "bKlay",
        "offset": 1,
        "slot": "2",
        "type": "t_contract(IBKlay)7190"
      },
      {
        "astId": 10846,
        "contract": "contracts/keep/KlayAuctionTaker.sol:KlayAuctionTaker",
        "label": "ksd",
        "offset": 0,
        "slot": "3",
        "type": "t_contract(IKIP7)9935"
      },
      {
        "astId": 10849,
        "contract": "contracts/keep/KlayAuctionTaker.sol:KlayAuctionTaker",
        "label": "ksdGateway",
        "offset": 0,
        "slot": "4",
        "type": "t_contract(IKSDGateway)7622"
      },
      {
        "astId": 10852,
        "contract": "contracts/keep/KlayAuctionTaker.sol:KlayAuctionTaker",
        "label": "klayGateway",
        "offset": 0,
        "slot": "5",
        "type": "t_contract(IKlayGateway)7997"
      },
      {
        "astId": 10855,
        "contract": "contracts/keep/KlayAuctionTaker.sol:KlayAuctionTaker",
        "label": "ledger",
        "offset": 0,
        "slot": "6",
        "type": "t_contract(ILedger)8858"
      },
      {
        "astId": 10858,
        "contract": "contracts/keep/KlayAuctionTaker.sol:KlayAuctionTaker",
        "label": "auctionHouse",
        "offset": 0,
        "slot": "7",
        "type": "t_contract(IAuctionHouse)7061"
      },
      {
        "astId": 10861,
        "contract": "contracts/keep/KlayAuctionTaker.sol:KlayAuctionTaker",
        "label": "otcFund",
        "offset": 0,
        "slot": "8",
        "type": "t_contract(IOtcFund)9036"
      },
      {
        "astId": 10864,
        "contract": "contracts/keep/KlayAuctionTaker.sol:KlayAuctionTaker",
        "label": "klayswap",
        "offset": 0,
        "slot": "9",
        "type": "t_contract(IKlaytnFactory)10820"
      },
      {
        "astId": 10867,
        "contract": "contracts/keep/KlayAuctionTaker.sol:KlayAuctionTaker",
        "label": "klayKsdPool",
        "offset": 0,
        "slot": "10",
        "type": "t_contract(IKlaytnExchange)10726"
      },
      {
        "astId": 10869,
        "contract": "contracts/keep/KlayAuctionTaker.sol:KlayAuctionTaker",
        "label": "minProfitRate",
        "offset": 0,
        "slot": "11",
        "type": "t_uint256"
      }
    ],
    "types": {
      "t_address": {
        "encoding": "inplace",
        "label": "address",
        "numberOfBytes": "20"
      },
      "t_bool": {
        "encoding": "inplace",
        "label": "bool",
        "numberOfBytes": "1"
      },
      "t_bytes32": {
        "encoding": "inplace",
        "label": "bytes32",
        "numberOfBytes": "32"
      },
      "t_contract(IAuctionHouse)7061": {
        "encoding": "inplace",
        "label": "contract IAuctionHouse",
        "numberOfBytes": "20"
      },
      "t_contract(IBKlay)7190": {
        "encoding": "inplace",
        "label": "contract IBKlay",
        "numberOfBytes": "20"
      },
      "t_contract(IKIP7)9935": {
        "encoding": "inplace",
        "label": "contract IKIP7",
        "numberOfBytes": "20"
      },
      "t_contract(IKSDGateway)7622": {
        "encoding": "inplace",
        "label": "contract IKSDGateway",
        "numberOfBytes": "20"
      },
      "t_contract(IKlayGateway)7997": {
        "encoding": "inplace",
        "label": "contract IKlayGateway",
        "numberOfBytes": "20"
      },
      "t_contract(IKlaytnExchange)10726": {
        "encoding": "inplace",
        "label": "contract IKlaytnExchange",
        "numberOfBytes": "20"
      },
      "t_contract(IKlaytnFactory)10820": {
        "encoding": "inplace",
        "label": "contract IKlaytnFactory",
        "numberOfBytes": "20"
      },
      "t_contract(ILedger)8858": {
        "encoding": "inplace",
        "label": "contract ILedger",
        "numberOfBytes": "20"
      },
      "t_contract(IOtcFund)9036": {
        "encoding": "inplace",
        "label": "contract IOtcFund",
        "numberOfBytes": "20"
      },
      "t_mapping(t_address,t_bool)": {
        "encoding": "mapping",
        "key": "t_address",
        "label": "mapping(address => bool)",
        "numberOfBytes": "32",
        "value": "t_bool"
      },
      "t_mapping(t_bytes32,t_struct(RoleData)21826_storage)": {
        "encoding": "mapping",
        "key": "t_bytes32",
        "label": "mapping(bytes32 => struct AccessControl.RoleData)",
        "numberOfBytes": "32",
        "value": "t_struct(RoleData)21826_storage"
      },
      "t_struct(RoleData)21826_storage": {
        "encoding": "inplace",
        "label": "struct AccessControl.RoleData",
        "members": [
          {
            "astId": 21823,
            "contract": "contracts/keep/KlayAuctionTaker.sol:KlayAuctionTaker",
            "label": "members",
            "offset": 0,
            "slot": "0",
            "type": "t_mapping(t_address,t_bool)"
          },
          {
            "astId": 21825,
            "contract": "contracts/keep/KlayAuctionTaker.sol:KlayAuctionTaker",
            "label": "adminRole",
            "offset": 0,
            "slot": "1",
            "type": "t_bytes32"
          }
        ],
        "numberOfBytes": "64"
      },
      "t_uint256": {
        "encoding": "inplace",
        "label": "uint256",
        "numberOfBytes": "32"
      }
    }
  }
}