{
  "address": "0x779d423a06e6E7D1187897A157Ed4312472AEc5A",
  "abi": [
    {
      "anonymous": false,
      "inputs": [
        {
          "indexed": false,
          "internalType": "address",
          "name": "account",
          "type": "address"
        }
      ],
      "name": "Paused",
      "type": "event"
    },
    {
      "anonymous": false,
      "inputs": [
        {
          "indexed": true,
          "internalType": "bytes32",
          "name": "role",
          "type": "bytes32"
        },
        {
          "indexed": true,
          "internalType": "bytes32",
          "name": "previousAdminRole",
          "type": "bytes32"
        },
        {
          "indexed": true,
          "internalType": "bytes32",
          "name": "newAdminRole",
          "type": "bytes32"
        }
      ],
      "name": "RoleAdminChanged",
      "type": "event"
    },
    {
      "anonymous": false,
      "inputs": [
        {
          "indexed": true,
          "internalType": "bytes32",
          "name": "role",
          "type": "bytes32"
        },
        {
          "indexed": true,
          "internalType": "address",
          "name": "account",
          "type": "address"
        },
        {
          "indexed": true,
          "internalType": "address",
          "name": "sender",
          "type": "address"
        }
      ],
      "name": "RoleGranted",
      "type": "event"
    },
    {
      "anonymous": false,
      "inputs": [
        {
          "indexed": true,
          "internalType": "bytes32",
          "name": "role",
          "type": "bytes32"
        },
        {
          "indexed": true,
          "internalType": "address",
          "name": "account",
          "type": "address"
        },
        {
          "indexed": true,
          "internalType": "address",
          "name": "sender",
          "type": "address"
        }
      ],
      "name": "RoleRevoked",
      "type": "event"
    },
    {
      "anonymous": false,
      "inputs": [
        {
          "indexed": false,
          "internalType": "address",
          "name": "account",
          "type": "address"
        }
      ],
      "name": "Unpaused",
      "type": "event"
    },
    {
      "inputs": [],
      "name": "DEFAULT_ADMIN_ROLE",
      "outputs": [
        {
          "internalType": "bytes32",
          "name": "",
          "type": "bytes32"
        }
      ],
      "stateMutability": "view",
      "type": "function"
    },
    {
      "inputs": [],
      "name": "__KlaySwapBridge_init",
      "outputs": [],
      "stateMutability": "nonpayable",
      "type": "function"
    },
    {
      "inputs": [
        {
          "internalType": "bytes32",
          "name": "what",
          "type": "bytes32"
        },
        {
          "internalType": "address",
          "name": "data",
          "type": "address"
        }
      ],
      "name": "config",
      "outputs": [],
      "stateMutability": "nonpayable",
      "type": "function"
    },
    {
      "inputs": [
        {
          "internalType": "address",
          "name": "tokenA",
          "type": "address"
        },
        {
          "internalType": "uint256",
          "name": "amountA",
          "type": "uint256"
        },
        {
          "internalType": "address",
          "name": "tokenB",
          "type": "address"
        },
        {
          "internalType": "uint256",
          "name": "amountB",
          "type": "uint256"
        },
        {
          "internalType": "address[]",
          "name": "path",
          "type": "address[]"
        }
      ],
      "name": "exchangeKctNeg",
      "outputs": [],
      "stateMutability": "nonpayable",
      "type": "function"
    },
    {
      "inputs": [
        {
          "internalType": "address",
          "name": "tokenA",
          "type": "address"
        },
        {
          "internalType": "uint256",
          "name": "amountA",
          "type": "uint256"
        },
        {
          "internalType": "address",
          "name": "tokenB",
          "type": "address"
        },
        {
          "internalType": "uint256",
          "name": "amountB",
          "type": "uint256"
        },
        {
          "internalType": "address[]",
          "name": "path",
          "type": "address[]"
        }
      ],
      "name": "exchangeKctPos",
      "outputs": [],
      "stateMutability": "nonpayable",
      "type": "function"
    },
    {
      "inputs": [
        {
          "internalType": "address",
          "name": "token",
          "type": "address"
        },
        {
          "internalType": "uint256",
          "name": "amount",
          "type": "uint256"
        },
        {
          "internalType": "address[]",
          "name": "path",
          "type": "address[]"
        }
      ],
      "name": "exchangeKlayNeg",
      "outputs": [],
      "stateMutability": "payable",
      "type": "function"
    },
    {
      "inputs": [
        {
          "internalType": "address",
          "name": "token",
          "type": "address"
        },
        {
          "internalType": "uint256",
          "name": "amount",
          "type": "uint256"
        },
        {
          "internalType": "address[]",
          "name": "path",
          "type": "address[]"
        }
      ],
      "name": "exchangeKlayPos",
      "outputs": [],
      "stateMutability": "payable",
      "type": "function"
    },
    {
      "inputs": [],
      "name": "factory",
      "outputs": [
        {
          "internalType": "contract IKlaytnFactory",
          "name": "",
          "type": "address"
        }
      ],
      "stateMutability": "view",
      "type": "function"
    },
    {
      "inputs": [
        {
          "internalType": "bytes32",
          "name": "role",
          "type": "bytes32"
        }
      ],
      "name": "getRoleAdmin",
      "outputs": [
        {
          "internalType": "bytes32",
          "name": "",
          "type": "bytes32"
        }
      ],
      "stateMutability": "view",
      "type": "function"
    },
    {
      "inputs": [
        {
          "internalType": "bytes32",
          "name": "role",
          "type": "bytes32"
        },
        {
          "internalType": "address",
          "name": "account",
          "type": "address"
        }
      ],
      "name": "grantRole",
      "outputs": [],
      "stateMutability": "nonpayable",
      "type": "function"
    },
    {
      "inputs": [
        {
          "internalType": "bytes32",
          "name": "role",
          "type": "bytes32"
        },
        {
          "internalType": "address",
          "name": "account",
          "type": "address"
        }
      ],
      "name": "hasRole",
      "outputs": [
        {
          "internalType": "bool",
          "name": "",
          "type": "bool"
        }
      ],
      "stateMutability": "view",
      "type": "function"
    },
    {
      "inputs": [],
      "name": "ksd",
      "outputs": [
        {
          "internalType": "contract IKIP7",
          "name": "",
          "type": "address"
        }
      ],
      "stateMutability": "view",
      "type": "function"
    },
    {
      "inputs": [],
      "name": "ksdRewardManager",
      "outputs": [
        {
          "internalType": "contract IDistributor",
          "name": "",
          "type": "address"
        }
      ],
      "stateMutability": "view",
      "type": "function"
    },
    {
      "inputs": [],
      "name": "pause",
      "outputs": [],
      "stateMutability": "nonpayable",
      "type": "function"
    },
    {
      "inputs": [],
      "name": "paused",
      "outputs": [
        {
          "internalType": "bool",
          "name": "",
          "type": "bool"
        }
      ],
      "stateMutability": "view",
      "type": "function"
    },
    {
      "inputs": [
        {
          "internalType": "bytes32",
          "name": "role",
          "type": "bytes32"
        },
        {
          "internalType": "address",
          "name": "account",
          "type": "address"
        }
      ],
      "name": "renounceRole",
      "outputs": [],
      "stateMutability": "nonpayable",
      "type": "function"
    },
    {
      "inputs": [
        {
          "internalType": "bytes32",
          "name": "role",
          "type": "bytes32"
        },
        {
          "internalType": "address",
          "name": "account",
          "type": "address"
        }
      ],
      "name": "revokeRole",
      "outputs": [],
      "stateMutability": "nonpayable",
      "type": "function"
    },
    {
      "inputs": [
        {
          "internalType": "address",
          "name": "tokenA",
          "type": "address"
        },
        {
          "internalType": "address",
          "name": "tokenB",
          "type": "address"
        }
      ],
      "name": "tokenToPool",
      "outputs": [
        {
          "internalType": "address",
          "name": "pool",
          "type": "address"
        }
      ],
      "stateMutability": "view",
      "type": "function"
    },
    {
      "inputs": [
        {
          "internalType": "address",
          "name": "newOwner",
          "type": "address"
        }
      ],
      "name": "transferOwnership",
      "outputs": [],
      "stateMutability": "nonpayable",
      "type": "function"
    },
    {
      "inputs": [],
      "name": "unpause",
      "outputs": [],
      "stateMutability": "nonpayable",
      "type": "function"
    },
    {
      "stateMutability": "payable",
      "type": "receive"
    }
  ],
  "transactionHash": "0x8491fc32850144d2aace8f385394efe22b79efffde57c4c5e2fe043031e1f8f2",
  "args": [],
  "solcInputHash": "daac9cba34dfabe5953ff704314717f0",
  "bytecode": "0x608060405234801561001057600080fd5b5061197d806100206000396000f3fe6080604052600436106101235760003560e01c8063a217fddf116100a0578063d05f707111610064578063d05f707114610310578063d366f3b914610330578063d547741f14610350578063f2fde38b14610370578063fd435cb9146103905761012a565b8063a217fddf14610276578063a40cdc8e1461028b578063a6d5f103146102a0578063a7c07e92146102dd578063c45a0155146102f05761012a565b806352f28c17116100e757806352f28c17146101dd5780635a3acc50146101fd5780635c975abb1461021d5780638456cb591461024157806391d14854146102565761012a565b80631b2ba1141461012f578063248a9ca3146101445780632f2ff15d1461018857806336568abe146101a85780633f4ba83a146101c85761012a565b3661012a57005b600080fd5b61014261013d366004611732565b6103b0565b005b34801561015057600080fd5b5061017561015f3660046117ac565b6000908152600160208190526040909120015490565b6040519081526020015b60405180910390f35b34801561019457600080fd5b506101426101a33660046117c4565b6105b2565b3480156101b457600080fd5b506101426101c33660046117c4565b6105de565b3480156101d457600080fd5b50610142610661565b3480156101e957600080fd5b506101426101f83660046116b8565b6106ff565b34801561020957600080fd5b506101426102183660046116b8565b610a13565b34801561022957600080fd5b5060025460ff165b604051901515815260200161017f565b34801561024d57600080fd5b50610142610dab565b34801561026257600080fd5b506102316102713660046117c4565b610e42565b34801561028257600080fd5b50610175600081565b34801561029757600080fd5b50610142610e6f565b3480156102ac57600080fd5b506002546102c59061010090046001600160a01b031681565b6040516001600160a01b03909116815260200161017f565b6101426102eb366004611732565b610eed565b3480156102fc57600080fd5b506003546102c5906001600160a01b031681565b34801561031c57600080fd5b506004546102c5906001600160a01b031681565b34801561033c57600080fd5b5061014261034b3660046117c4565b611035565b34801561035c57600080fd5b5061014261036b3660046117c4565b611141565b34801561037c57600080fd5b5061014261038b366004611641565b611168565b34801561039c57600080fd5b506102c56103ab366004611680565b61119e565b6040516370a0823160e01b81523060048201526000906001600160a01b038616906370a082319060240160206040518083038186803b1580156103f257600080fd5b505afa158015610406573d6000803e3d6000fd5b505050506040513d601f19601f8201168201806040525081019061042a91906117e8565b6003546040516306cae84560e21b81529192506001600160a01b031690631b2ba11490349061046390899089908990899060040161188f565b6000604051808303818588803b15801561047c57600080fd5b505af1158015610490573d6000803e3d6000fd5b50506040516370a0823160e01b8152306004820152600093506001600160a01b03891692506370a08231915060240160206040518083038186803b1580156104d757600080fd5b505afa1580156104eb573d6000803e3d6000fd5b505050506040513d601f19601f8201168201806040525081019061050f91906117e8565b90506001600160a01b03861663a9059cbb3361052b858561190f565b6040516001600160e01b031960e085901b1681526001600160a01b0390921660048301526024820152604401602060405180830381600087803b15801561057157600080fd5b505af1158015610585573d6000803e3d6000fd5b505050506040513d601f19601f820116820180604052508101906105a9919061178c565b50505050505050565b600082815260016020819052604090912001546105cf8133611299565b6105d983836112fd565b505050565b6001600160a01b03811633146106535760405162461bcd60e51b815260206004820152602f60248201527f416363657373436f6e74726f6c3a2063616e206f6e6c792072656e6f756e636560448201526e103937b632b9903337b91039b2b63360891b60648201526084015b60405180910390fd5b61065d8282611368565b5050565b60025460ff166106aa5760405162461bcd60e51b815260206004820152601460248201527314185d5cd8589b194e881b9bdd081c185d5cd95960621b604482015260640161064a565b653830bab9b2b960d11b6106be8133611299565b6002805460ff191690556040513381527f5db9ee0a495bf2e6ff9c91a7834c1ba4fdd244a5e8aa4e537bd38aeae4b073aa906020015b60405180910390a150565b6040516323b872dd60e01b8152336004820152306024820152604481018690526001600160a01b038716906323b872dd90606401602060405180830381600087803b15801561074d57600080fd5b505af1158015610761573d6000803e3d6000fd5b505050506040513d601f19601f82011682018060405250810190610785919061178c565b5060035460405163095ea7b360e01b81526001600160a01b039182166004820152602481018790529087169063095ea7b390604401602060405180830381600087803b1580156107d457600080fd5b505af11580156107e8573d6000803e3d6000fd5b505050506040513d601f19601f8201168201806040525081019061080c919061178c565b506040516370a0823160e01b81523060048201526000906001600160a01b038616906370a082319060240160206040518083038186803b15801561084f57600080fd5b505afa158015610863573d6000803e3d6000fd5b505050506040513d601f19601f8201168201806040525081019061088791906117e8565b6003546040516352f28c1760e01b81529192506001600160a01b0316906352f28c17906108c2908a908a908a908a908a908a90600401611848565b600060405180830381600087803b1580156108dc57600080fd5b505af11580156108f0573d6000803e3d6000fd5b50506040516370a0823160e01b8152306004820152600092506001600160a01b03881691506370a082319060240160206040518083038186803b15801561093657600080fd5b505afa15801561094a573d6000803e3d6000fd5b505050506040513d601f19601f8201168201806040525081019061096e91906117e8565b90506001600160a01b03861663a9059cbb3361098a858561190f565b6040516001600160e01b031960e085901b1681526001600160a01b0390921660048301526024820152604401602060405180830381600087803b1580156109d057600080fd5b505af11580156109e4573d6000803e3d6000fd5b505050506040513d601f19601f82011682018060405250810190610a08919061178c565b505050505050505050565b6040516323b872dd60e01b8152336004820152306024820152604481018690526001600160a01b038716906323b872dd90606401602060405180830381600087803b158015610a6157600080fd5b505af1158015610a75573d6000803e3d6000fd5b505050506040513d601f19601f82011682018060405250810190610a99919061178c565b5060035460405163095ea7b360e01b81526001600160a01b039182166004820152602481018790529087169063095ea7b390604401602060405180830381600087803b158015610ae857600080fd5b505af1158015610afc573d6000803e3d6000fd5b505050506040513d601f19601f82011682018060405250810190610b20919061178c565b506040516370a0823160e01b81523060048201526000906001600160a01b038816906370a082319060240160206040518083038186803b158015610b6357600080fd5b505afa158015610b77573d6000803e3d6000fd5b505050506040513d601f19601f82011682018060405250810190610b9b91906117e8565b6003546040516305a3acc560e41b81529192506001600160a01b031690635a3acc5090610bd6908a908a908a908a908a908a90600401611848565b600060405180830381600087803b158015610bf057600080fd5b505af1158015610c04573d6000803e3d6000fd5b50506040516370a0823160e01b8152306004820152600092506001600160a01b038a1691506370a082319060240160206040518083038186803b158015610c4a57600080fd5b505afa158015610c5e573d6000803e3d6000fd5b505050506040513d601f19601f82011682018060405250810190610c8291906117e8565b60405163a9059cbb60e01b8152336004820152602481018790529091506001600160a01b0387169063a9059cbb90604401602060405180830381600087803b158015610ccd57600080fd5b505af1158015610ce1573d6000803e3d6000fd5b505050506040513d601f19601f82011682018060405250810190610d05919061178c565b506000610d12828461190f565b610d1c908961190f565b60405163a9059cbb60e01b8152336004820152602481018290529091506001600160a01b038a169063a9059cbb90604401602060405180830381600087803b158015610d6757600080fd5b505af1158015610d7b573d6000803e3d6000fd5b505050506040513d601f19601f82011682018060405250810190610d9f919061178c565b50505050505050505050565b60025460ff1615610df15760405162461bcd60e51b815260206004820152601060248201526f14185d5cd8589b194e881c185d5cd95960821b604482015260640161064a565b653830bab9b2b960d11b610e058133611299565b6002805460ff191660011790556040513381527f62e78cea01bee320cd4e420270b5ea74000d11b0c9f74754ebdbfc544b05a258906020016106f4565b60008281526001602090815260408083206001600160a01b038516845290915290205460ff165b92915050565b600054610100900460ff1680610e845750303b155b80610e92575060005460ff16155b610eae5760405162461bcd60e51b815260040161064a906118c1565b600054610100900460ff16158015610ed0576000805461ffff19166101011790555b610ed86113cf565b8015610eea576000805461ff00191690555b50565b6003546040516353e03f4960e11b81523031916001600160a01b03169063a7c07e92903490610f2690899089908990899060040161188f565b6000604051808303818588803b158015610f3f57600080fd5b505af1158015610f53573d6000803e3d6000fd5b505060405163a9059cbb60e01b815233600482015260248101889052303193506001600160a01b038916925063a9059cbb9150604401602060405180830381600087803b158015610fa357600080fd5b505af1158015610fb7573d6000803e3d6000fd5b505050506040513d601f19601f82011682018060405250810190610fdb919061178c565b506000610fe8828461190f565b610ff2903461190f565b60405190915033908290600081818185875af1925050503d8060008114610d9f576040519150601f19603f3d011682016040523d82523d6000602084013e610d9f565b6110476430b236b4b760d91b33611299565b81621adcd960ea1b141561107a5760028054610100600160a81b0319166101006001600160a01b0384160217905561065d565b8166666163746f727960c81b14156110ac57600380546001600160a01b0319166001600160a01b03831617905561065d565b816f35b9b22932bbb0b93226b0b730b3b2b960811b14156110e757600480546001600160a01b0319166001600160a01b03831617905561065d565b60405162461bcd60e51b815260206004820152602960248201527f6b6c6179537761704272696467653a3a636f6e6669673a756e7265636f676e696044820152687a65642d706172616d60b81b606482015260840161064a565b6000828152600160208190526040909120015461115e8133611299565b6105d98383611368565b61117a6437bbb732b960d91b33611299565b61118c6437bbb732b960d91b826112fd565b610eea6437bbb732b960d91b33611368565b60035460405163fd435cb960e01b81526001600160a01b0384811660048301528381166024830152600092169063fd435cb99060440160206040518083038186803b1580156111ec57600080fd5b505afa158015611200573d6000803e3d6000fd5b505050506040513d601f19601f820116820180604052508101906112249190611664565b90506001600160a01b038116610e695760405162461bcd60e51b815260206004820152603460248201527f4b6c6179537761704272696467653a3a746f6b656e546f506f6f6c3a20706f6f6044820152731b081a5cc81b9bdd081a5b9a5d1a585b1a5e995960621b606482015260840161064a565b6112a38282610e42565b61065d5760405162461bcd60e51b815260206004820152602560248201527f416363657373436f6e74726f6c3a5f636865636b526f6c653a696e76616c696460448201526420726f6c6560d81b606482015260840161064a565b6113078282610e42565b61065d5760008281526001602081815260408084206001600160a01b0386168086529252808420805460ff19169093179092559051339285917f2f8788117e7eff1d82e926ec794901d17c78024a50270940304540a733656f0d9190a45050565b6113728282610e42565b1561065d5760008281526001602090815260408083206001600160a01b0385168085529252808320805460ff1916905551339285917ff6391f5c32d9c69d2a47ea670b442974b53935d1edc7fd64eb21e047a839171b9190a45050565b600054610100900460ff16806113e45750303b155b806113f2575060005460ff16155b61140e5760405162461bcd60e51b815260040161064a906118c1565b600054610100900460ff16158015611430576000805461ffff19166101011790555b611438611466565b611453653830bab9b2b960d11b6437bbb732b960d91b6114cf565b610ed8653830bab9b2b960d11b3361151c565b600054610100900460ff168061147b5750303b155b80611489575060005460ff16155b6114a55760405162461bcd60e51b815260040161064a906118c1565b600054610100900460ff161580156114c7576000805461ffff19166101011790555b610ed8611526565b6000828152600160208190526040808320909101805490849055905190918391839186917fbd79b86ffe0ab8e8776151514217cd7cacd52c909f66475c3af44e129f0b00ff9190a4505050565b61065d82826112fd565b600054610100900460ff168061153b5750303b155b80611549575060005460ff16155b6115655760405162461bcd60e51b815260040161064a906118c1565b600054610100900460ff16158015611587576000805461ffff19166101011790555b6115996437bbb732b960d91b3361151c565b6115b36430b236b4b760d91b6437bbb732b960d91b6114cf565b6115d06737b832b930ba37b960c11b6437bbb732b960d91b6114cf565b6115e26430b236b4b760d91b3361151c565b610ed86737b832b930ba37b960c11b3361151c565b60008083601f840112611608578182fd5b50813567ffffffffffffffff81111561161f578182fd5b6020830191508360208260051b850101111561163a57600080fd5b9250929050565b600060208284031215611652578081fd5b813561165d81611932565b9392505050565b600060208284031215611675578081fd5b815161165d81611932565b60008060408385031215611692578081fd5b823561169d81611932565b915060208301356116ad81611932565b809150509250929050565b60008060008060008060a087890312156116d0578182fd5b86356116db81611932565b95506020870135945060408701356116f281611932565b935060608701359250608087013567ffffffffffffffff811115611714578283fd5b61172089828a016115f7565b979a9699509497509295939492505050565b60008060008060608587031215611747578384fd5b843561175281611932565b935060208501359250604085013567ffffffffffffffff811115611774578283fd5b611780878288016115f7565b95989497509550505050565b60006020828403121561179d578081fd5b8151801515811461165d578182fd5b6000602082840312156117bd578081fd5b5035919050565b600080604083850312156117d6578182fd5b8235915060208301356116ad81611932565b6000602082840312156117f9578081fd5b5051919050565b60008284526020808501945082825b8581101561183d57813561182281611932565b6001600160a01b03168752958201959082019060010161180f565b509495945050505050565b6001600160a01b03878116825260208201879052851660408201526060810184905260a0608082018190526000906118839083018486611800565b98975050505050505050565b600060018060a01b0386168252846020830152606060408301526118b7606083018486611800565b9695505050505050565b6020808252602e908201527f496e697469616c697a61626c653a20636f6e747261637420697320616c72656160408201526d191e481a5b9a5d1a585b1a5e995960921b606082015260800190565b60008282101561192d57634e487b7160e01b81526011600452602481fd5b500390565b6001600160a01b0381168114610eea57600080fdfea2646970667358221220bb441f543a54acb636c82a9bd3a286359685b5f616f2ed38cf1f7d2a191ae81164736f6c63430008030033",
  "devdoc": {
    "details": "Klayswap is an AMM DEX protocol running on Klaytn",
    "kind": "dev",
    "methods": {
      "exchangeKctNeg(address,uint256,address,uint256,address[])": {
        "details": "\"I want to pay {amountA} amount of tokenA in exchange for at least {amountB} amount of tokenB\"      e.g., suppose amountA = 100 and amountB = 200            If the pool is able to send 200 tokenB in exchange for 98 tokenA, the exchange will take place and the user will pay 98 tokenA in exchange for 200 tokenB.            if the pool demands {msg.sender} 101 tokenA in exchange for 200 tokenB, the exchange will not take place.",
        "params": {
          "amountA": "The maximum amount of tokenA that {msg.sender} is willing to pay",
          "amountB": "The exact amount of the tokenB that {msg.sender} wants to receive              (i.e., If the pool demands {msg.sender} to pay more than {msg.value} tokenA, it is a deal breaker) {msg.sender} will pay the amount of tokenA just enough to buy {amountB} amount of the tokenB, and the remaining tokenA will be returned to {msg.sender}.",
          "path": "Path to replace tokenA with tokenB in klayswap.",
          "tokenA": "The address of the token {msg.sender} wants to pay",
          "tokenB": "TokenB address"
        }
      },
      "exchangeKctPos(address,uint256,address,uint256,address[])": {
        "details": "\"I want to pay {amountA} amount of tokenA in exchange for at least {amountB} amount of tokenB\"      e.g., suppose amountA = 100 and amountB = 200            if the pool is able to pay 250 tokenB, the deal is valid. So msg.sender will pay 100 tokenA and receive 250 tokenB            if the pool is not able to pay 250 tokenB, the exchange does not take place",
        "params": {
          "amountA": "The exact amount of tokenA msg.sender wants to pay",
          "amountB": "Minimum amount of tokenB that {msg.sender} wants to receive                (i.e., if msg.sender cannot receive this amount of tokenB, it's a deal breaker)",
          "path": "Path to replace tokenA with tokenB in klayswap.",
          "tokenA": "The address of the token {msg.sender} wants to pay",
          "tokenB": "TokenB address"
        }
      },
      "exchangeKlayNeg(address,uint256,address[])": {
        "details": "\"I want to pay up to {msg.value} amount of Klay in exchange for {amount} amount of token\"      e.g., suppose {msg.value} = 100 and amount = 200            If the pool is able to send 200 tokens in exchange for 98 Klay, the exchange will take place and the user will pay 98 Klay in exchange for 200 tokens.            if the pool demands {msg.sender} 101 Klay in exchange for 200 tokens, the exchange will not take place.msg.value: The maximum amount of Klay that {msg.sender} is willing to pay",
        "params": {
          "amount": "The exact amount of the token that {msg.sender} wants to receive              (i.e., If the pool demands {msg.sender} to pay more than {msg.value}, it is a deal breaker) {msg.sender} will pay the amount of Klay just enough to buy {amount} amount of the token, and the remaining Klay will be returned to {msg.sender}.",
          "path": "Path to replace tokenA with tokenB in klayswap.",
          "token": "Address of token {msg.sender} wants to buy"
        }
      },
      "exchangeKlayPos(address,uint256,address[])": {
        "details": "\"I want to pay {msg.value} amount of Klay in exchange for at least {amountB} amount of token\"      e.g., suppose {msg.value} = 100 and amount = 200            if the pool is able to pay 250 tokens, the deal is valid. So msg.sender will pay 100 Klay and receive 250 tokenB            if the pool is not able to pay 250 tokens, the exchange does not take placemsg.value: The exact amount of Klay that {msg.sender} wants to pay",
        "params": {
          "amount": "Minimum amount of token that account wants to receive                (i.e., if msg.sender cannot receive this amount of tokenB, it's a deal breaker)",
          "path": "Path to replace tokenA with tokenB in klayswap.",
          "token": "Address of token {msg.sender} wants to buy"
        }
      },
      "tokenToPool(address,address)": {
        "params": {
          "tokenA": "Address of tokenA.",
          "tokenB": "Address of tokenB."
        },
        "returns": {
          "pool": "Address of the pool."
        }
      }
    },
    "title": "Interaction contract with klaySwap.",
    "version": 1
  },
  "userdoc": {
    "kind": "user",
    "methods": {
      "config(bytes32,address)": {
        "notice": "Initialize interface variables."
      },
      "exchangeKctPos(address,uint256,address,uint256,address[])": {
        "notice": "Exchange tokenA for tokenB."
      },
      "exchangeKlayNeg(address,uint256,address[])": {
        "notice": "Exchange Klay for tokenB."
      },
      "exchangeKlayPos(address,uint256,address[])": {
        "notice": "Exchange Klay for token."
      },
      "tokenToPool(address,address)": {
        "notice": "Get pool(exchange) address from tokens."
      }
    },
    "notice": "This contract utilizes the exchange functions of klaySwap.",
    "version": 1
  },
  "storageLayout": {
    "storage": [
      {
        "astId": 23220,
        "contract": "contracts/utils/KlaySwapBridge.sol:KlaySwapBridge",
        "label": "_initialized",
        "offset": 0,
        "slot": "0",
        "type": "t_bool"
      },
      {
        "astId": 23223,
        "contract": "contracts/utils/KlaySwapBridge.sol:KlaySwapBridge",
        "label": "_initializing",
        "offset": 1,
        "slot": "0",
        "type": "t_bool"
      },
      {
        "astId": 20166,
        "contract": "contracts/utils/KlaySwapBridge.sol:KlaySwapBridge",
        "label": "_roles",
        "offset": 0,
        "slot": "1",
        "type": "t_mapping(t_bytes32,t_struct(RoleData)20161_storage)"
      },
      {
        "astId": 20556,
        "contract": "contracts/utils/KlaySwapBridge.sol:KlaySwapBridge",
        "label": "_paused",
        "offset": 0,
        "slot": "2",
        "type": "t_bool"
      },
      {
        "astId": 36231,
        "contract": "contracts/utils/KlaySwapBridge.sol:KlaySwapBridge",
        "label": "ksd",
        "offset": 1,
        "slot": "2",
        "type": "t_contract(IKIP7)9881"
      },
      {
        "astId": 36234,
        "contract": "contracts/utils/KlaySwapBridge.sol:KlaySwapBridge",
        "label": "factory",
        "offset": 0,
        "slot": "3",
        "type": "t_contract(IKlaytnFactory)10766"
      },
      {
        "astId": 36237,
        "contract": "contracts/utils/KlaySwapBridge.sol:KlaySwapBridge",
        "label": "ksdRewardManager",
        "offset": 0,
        "slot": "4",
        "type": "t_contract(IDistributor)7358"
      }
    ],
    "types": {
      "t_address": {
        "encoding": "inplace",
        "label": "address",
        "numberOfBytes": "20"
      },
      "t_bool": {
        "encoding": "inplace",
        "label": "bool",
        "numberOfBytes": "1"
      },
      "t_bytes32": {
        "encoding": "inplace",
        "label": "bytes32",
        "numberOfBytes": "32"
      },
      "t_contract(IDistributor)7358": {
        "encoding": "inplace",
        "label": "contract IDistributor",
        "numberOfBytes": "20"
      },
      "t_contract(IKIP7)9881": {
        "encoding": "inplace",
        "label": "contract IKIP7",
        "numberOfBytes": "20"
      },
      "t_contract(IKlaytnFactory)10766": {
        "encoding": "inplace",
        "label": "contract IKlaytnFactory",
        "numberOfBytes": "20"
      },
      "t_mapping(t_address,t_bool)": {
        "encoding": "mapping",
        "key": "t_address",
        "label": "mapping(address => bool)",
        "numberOfBytes": "32",
        "value": "t_bool"
      },
      "t_mapping(t_bytes32,t_struct(RoleData)20161_storage)": {
        "encoding": "mapping",
        "key": "t_bytes32",
        "label": "mapping(bytes32 => struct AccessControl.RoleData)",
        "numberOfBytes": "32",
        "value": "t_struct(RoleData)20161_storage"
      },
      "t_struct(RoleData)20161_storage": {
        "encoding": "inplace",
        "label": "struct AccessControl.RoleData",
        "members": [
          {
            "astId": 20158,
            "contract": "contracts/utils/KlaySwapBridge.sol:KlaySwapBridge",
            "label": "members",
            "offset": 0,
            "slot": "0",
            "type": "t_mapping(t_address,t_bool)"
          },
          {
            "astId": 20160,
            "contract": "contracts/utils/KlaySwapBridge.sol:KlaySwapBridge",
            "label": "adminRole",
            "offset": 0,
            "slot": "1",
            "type": "t_bytes32"
          }
        ],
        "numberOfBytes": "64"
      }
    }
  }
}