{
  "address": "0xED42F4f12965677063eC3262f293945c3ddF6556",
  "abi": [
    {
      "anonymous": false,
      "inputs": [
        {
          "indexed": false,
          "internalType": "address",
          "name": "account",
          "type": "address"
        }
      ],
      "name": "Paused",
      "type": "event"
    },
    {
      "anonymous": false,
      "inputs": [
        {
          "indexed": true,
          "internalType": "bytes32",
          "name": "role",
          "type": "bytes32"
        },
        {
          "indexed": true,
          "internalType": "bytes32",
          "name": "previousAdminRole",
          "type": "bytes32"
        },
        {
          "indexed": true,
          "internalType": "bytes32",
          "name": "newAdminRole",
          "type": "bytes32"
        }
      ],
      "name": "RoleAdminChanged",
      "type": "event"
    },
    {
      "anonymous": false,
      "inputs": [
        {
          "indexed": true,
          "internalType": "bytes32",
          "name": "role",
          "type": "bytes32"
        },
        {
          "indexed": true,
          "internalType": "address",
          "name": "account",
          "type": "address"
        },
        {
          "indexed": true,
          "internalType": "address",
          "name": "sender",
          "type": "address"
        }
      ],
      "name": "RoleGranted",
      "type": "event"
    },
    {
      "anonymous": false,
      "inputs": [
        {
          "indexed": true,
          "internalType": "bytes32",
          "name": "role",
          "type": "bytes32"
        },
        {
          "indexed": true,
          "internalType": "address",
          "name": "account",
          "type": "address"
        },
        {
          "indexed": true,
          "internalType": "address",
          "name": "sender",
          "type": "address"
        }
      ],
      "name": "RoleRevoked",
      "type": "event"
    },
    {
      "anonymous": false,
      "inputs": [
        {
          "indexed": false,
          "internalType": "address",
          "name": "account",
          "type": "address"
        }
      ],
      "name": "Unpaused",
      "type": "event"
    },
    {
      "inputs": [],
      "name": "DEFAULT_ADMIN_ROLE",
      "outputs": [
        {
          "internalType": "bytes32",
          "name": "",
          "type": "bytes32"
        }
      ],
      "stateMutability": "view",
      "type": "function"
    },
    {
      "inputs": [],
      "name": "__Feed_init",
      "outputs": [],
      "stateMutability": "nonpayable",
      "type": "function"
    },
    {
      "inputs": [],
      "name": "__KlayFeed_init",
      "outputs": [],
      "stateMutability": "nonpayable",
      "type": "function"
    },
    {
      "inputs": [],
      "name": "clear",
      "outputs": [],
      "stateMutability": "nonpayable",
      "type": "function"
    },
    {
      "inputs": [],
      "name": "getPrice",
      "outputs": [
        {
          "internalType": "uint256",
          "name": "",
          "type": "uint256"
        },
        {
          "internalType": "bool",
          "name": "",
          "type": "bool"
        }
      ],
      "stateMutability": "view",
      "type": "function"
    },
    {
      "inputs": [
        {
          "internalType": "bytes32",
          "name": "role",
          "type": "bytes32"
        }
      ],
      "name": "getRoleAdmin",
      "outputs": [
        {
          "internalType": "bytes32",
          "name": "",
          "type": "bytes32"
        }
      ],
      "stateMutability": "view",
      "type": "function"
    },
    {
      "inputs": [
        {
          "internalType": "bytes32",
          "name": "role",
          "type": "bytes32"
        },
        {
          "internalType": "address",
          "name": "account",
          "type": "address"
        }
      ],
      "name": "grantRole",
      "outputs": [],
      "stateMutability": "nonpayable",
      "type": "function"
    },
    {
      "inputs": [
        {
          "internalType": "bytes32",
          "name": "role",
          "type": "bytes32"
        },
        {
          "internalType": "address",
          "name": "account",
          "type": "address"
        }
      ],
      "name": "hasRole",
      "outputs": [
        {
          "internalType": "bool",
          "name": "",
          "type": "bool"
        }
      ],
      "stateMutability": "view",
      "type": "function"
    },
    {
      "inputs": [],
      "name": "pause",
      "outputs": [],
      "stateMutability": "nonpayable",
      "type": "function"
    },
    {
      "inputs": [],
      "name": "paused",
      "outputs": [
        {
          "internalType": "bool",
          "name": "",
          "type": "bool"
        }
      ],
      "stateMutability": "view",
      "type": "function"
    },
    {
      "inputs": [],
      "name": "price",
      "outputs": [
        {
          "internalType": "uint256",
          "name": "",
          "type": "uint256"
        }
      ],
      "stateMutability": "view",
      "type": "function"
    },
    {
      "inputs": [
        {
          "internalType": "bytes32",
          "name": "role",
          "type": "bytes32"
        },
        {
          "internalType": "address",
          "name": "account",
          "type": "address"
        }
      ],
      "name": "renounceRole",
      "outputs": [],
      "stateMutability": "nonpayable",
      "type": "function"
    },
    {
      "inputs": [
        {
          "internalType": "bytes32",
          "name": "role",
          "type": "bytes32"
        },
        {
          "internalType": "address",
          "name": "account",
          "type": "address"
        }
      ],
      "name": "revokeRole",
      "outputs": [],
      "stateMutability": "nonpayable",
      "type": "function"
    },
    {
      "inputs": [
        {
          "internalType": "uint256",
          "name": "_price",
          "type": "uint256"
        }
      ],
      "name": "set",
      "outputs": [],
      "stateMutability": "nonpayable",
      "type": "function"
    },
    {
      "inputs": [
        {
          "internalType": "address",
          "name": "newOwner",
          "type": "address"
        }
      ],
      "name": "transferOwnership",
      "outputs": [],
      "stateMutability": "nonpayable",
      "type": "function"
    },
    {
      "inputs": [],
      "name": "unpause",
      "outputs": [],
      "stateMutability": "nonpayable",
      "type": "function"
    },
    {
      "inputs": [],
      "name": "valid",
      "outputs": [
        {
          "internalType": "bool",
          "name": "",
          "type": "bool"
        }
      ],
      "stateMutability": "view",
      "type": "function"
    }
  ],
  "transactionHash": "0x7e67fa6261a42d836faea09fff8dd0b2cc0825cfd937ed2e1ffd8e8c6697b3c1",
  "args": [],
  "solcInputHash": "daac9cba34dfabe5953ff704314717f0",
  "bytecode": "0x608060405234801561001057600080fd5b50610a7e806100206000396000f3fe608060405234801561001057600080fd5b506004361061010b5760003560e01c806382ed09a0116100a2578063a035b1fe11610071578063a035b1fe146101e6578063a217fddf146101ef578063c1991219146101f7578063d547741f14610209578063f2fde38b1461021c5761010b565b806382ed09a0146101a05780638456cb59146101a857806391d14854146101b057806398d5fdca146101c35761010b565b80633f4ba83a116100de5780633f4ba83a1461016657806352efea6e1461016e5780635c975abb1461017657806360fe47b11461018d5761010b565b806317dc4aa014610110578063248a9ca31461011a5780632f2ff15d1461014057806336568abe14610153575b600080fd5b61011861022f565b005b61012d6101283660046109b7565b6102b6565b6040519081526020015b60405180910390f35b61011861014e3660046109cf565b6102cf565b6101186101613660046109cf565b6102f1565b61011861036f565b61011861040d565b60025460ff165b6040519015158152602001610137565b61011861019b3660046109b7565b61042c565b61011861049b565b610118610504565b61017d6101be3660046109cf565b61059b565b600354600254610100900460ff1660408051928352901515602083015201610137565b61012d60035481565b61012d600081565b60025461017d90610100900460ff1681565b6101186102173660046109cf565b6105c6565b61011861022a366004610996565b6105e3565b600054610100900460ff16806102445750303b155b80610252575060005460ff16155b6102775760405162461bcd60e51b815260040161026e906109fa565b60405180910390fd5b600054610100900460ff16158015610299576000805461ffff19166101011790555b6102a1610619565b80156102b3576000805461ff00191690555b50565b600081815260016020819052604090912001545b919050565b6102d8826102b6565b6102e281336106b0565b6102ec8383610714565b505050565b6001600160a01b03811633146103615760405162461bcd60e51b815260206004820152602f60248201527f416363657373436f6e74726f6c3a2063616e206f6e6c792072656e6f756e636560448201526e103937b632b9903337b91039b2b63360891b606482015260840161026e565b61036b828261077f565b5050565b60025460ff166103b85760405162461bcd60e51b815260206004820152601460248201527314185d5cd8589b194e881b9bdd081c185d5cd95960621b604482015260640161026e565b653830bab9b2b960d11b6103cc81336106b0565b6002805460ff191690556040513381527f5db9ee0a495bf2e6ff9c91a7834c1ba4fdd244a5e8aa4e537bd38aeae4b073aa906020015b60405180910390a150565b61041f6437bbb732b960d91b336106b0565b6002805461ff0019169055565b6104416737b832b930ba37b960c11b336106b0565b60025460ff16156104875760405162461bcd60e51b815260206004820152601060248201526f14185d5cd8589b194e881c185d5cd95960821b604482015260640161026e565b6003556002805461ff001916610100179055565b600054610100900460ff16806104b05750303b155b806104be575060005460ff16155b6104da5760405162461bcd60e51b815260040161026e906109fa565b600054610100900460ff161580156104fc576000805461ffff19166101011790555b6102a161022f565b60025460ff161561054a5760405162461bcd60e51b815260206004820152601060248201526f14185d5cd8589b194e881c185d5cd95960821b604482015260640161026e565b653830bab9b2b960d11b61055e81336106b0565b6002805460ff191660011790556040513381527f62e78cea01bee320cd4e420270b5ea74000d11b0c9f74754ebdbfc544b05a25890602001610402565b60009182526001602090815260408084206001600160a01b0393909316845291905290205460ff1690565b6105cf826102b6565b6105d981336106b0565b6102ec838361077f565b6105f56437bbb732b960d91b336106b0565b6106076437bbb732b960d91b82610714565b6102b36437bbb732b960d91b3361077f565b600054610100900460ff168061062e5750303b155b8061063c575060005460ff16155b6106585760405162461bcd60e51b815260040161026e906109fa565b600054610100900460ff1615801561067a576000805461ffff19166101011790555b6106826107e6565b61069d653830bab9b2b960d11b6437bbb732b960d91b61084f565b6102a1653830bab9b2b960d11b336108a4565b6106ba828261059b565b61036b5760405162461bcd60e51b815260206004820152602560248201527f416363657373436f6e74726f6c3a5f636865636b526f6c653a696e76616c696460448201526420726f6c6560d81b606482015260840161026e565b61071e828261059b565b61036b5760008281526001602081815260408084206001600160a01b0386168086529252808420805460ff19169093179092559051339285917f2f8788117e7eff1d82e926ec794901d17c78024a50270940304540a733656f0d9190a45050565b610789828261059b565b1561036b5760008281526001602090815260408083206001600160a01b0385168085529252808320805460ff1916905551339285917ff6391f5c32d9c69d2a47ea670b442974b53935d1edc7fd64eb21e047a839171b9190a45050565b600054610100900460ff16806107fb5750303b155b80610809575060005460ff16155b6108255760405162461bcd60e51b815260040161026e906109fa565b600054610100900460ff16158015610847576000805461ffff19166101011790555b6102a16108ae565b600061085a836102b6565b6000848152600160208190526040808320909101859055519192508391839186917fbd79b86ffe0ab8e8776151514217cd7cacd52c909f66475c3af44e129f0b00ff9190a4505050565b61036b8282610714565b600054610100900460ff16806108c35750303b155b806108d1575060005460ff16155b6108ed5760405162461bcd60e51b815260040161026e906109fa565b600054610100900460ff1615801561090f576000805461ffff19166101011790555b6109216437bbb732b960d91b336108a4565b61093b6430b236b4b760d91b6437bbb732b960d91b61084f565b6109586737b832b930ba37b960c11b6437bbb732b960d91b61084f565b61096a6430b236b4b760d91b336108a4565b6102a16737b832b930ba37b960c11b336108a4565b80356001600160a01b03811681146102ca57600080fd5b6000602082840312156109a7578081fd5b6109b08261097f565b9392505050565b6000602082840312156109c8578081fd5b5035919050565b600080604083850312156109e1578081fd5b823591506109f16020840161097f565b90509250929050565b6020808252602e908201527f496e697469616c697a61626c653a20636f6e747261637420697320616c72656160408201526d191e481a5b9a5d1a585b1a5e995960921b60608201526080019056fea264697066735822122052721ea53f7e8a9d41ca9a7edfad7ed9265d6662c9d4a369a0045090167364cb64736f6c63430008030033",
  "devdoc": {
    "kind": "dev",
    "methods": {
      "clear()": {
        "details": "it is should be called by only governance (EOA for now)."
      },
      "getPrice()": {
        "returns": {
          "_0": "value of price, validation check"
        }
      },
      "set(uint256)": {
        "details": "it should be called by only whitelisted operator",
        "params": {
          "_price": "value of price to set"
        }
      }
    },
    "version": 1
  },
  "userdoc": {
    "kind": "user",
    "methods": {
      "clear()": {
        "notice": "make price invalid"
      },
      "getPrice()": {
        "notice": "get price"
      },
      "set(uint256)": {
        "notice": "set price"
      }
    },
    "version": 1
  },
  "storageLayout": {
    "storage": [
      {
        "astId": 23220,
        "contract": "contracts/oracle/feed/KlayFeed.sol:KlayFeed",
        "label": "_initialized",
        "offset": 0,
        "slot": "0",
        "type": "t_bool"
      },
      {
        "astId": 23223,
        "contract": "contracts/oracle/feed/KlayFeed.sol:KlayFeed",
        "label": "_initializing",
        "offset": 1,
        "slot": "0",
        "type": "t_bool"
      },
      {
        "astId": 20166,
        "contract": "contracts/oracle/feed/KlayFeed.sol:KlayFeed",
        "label": "_roles",
        "offset": 0,
        "slot": "1",
        "type": "t_mapping(t_bytes32,t_struct(RoleData)20161_storage)"
      },
      {
        "astId": 20556,
        "contract": "contracts/oracle/feed/KlayFeed.sol:KlayFeed",
        "label": "_paused",
        "offset": 0,
        "slot": "2",
        "type": "t_bool"
      },
      {
        "astId": 29379,
        "contract": "contracts/oracle/feed/KlayFeed.sol:KlayFeed",
        "label": "valid",
        "offset": 1,
        "slot": "2",
        "type": "t_bool"
      },
      {
        "astId": 29381,
        "contract": "contracts/oracle/feed/KlayFeed.sol:KlayFeed",
        "label": "price",
        "offset": 0,
        "slot": "3",
        "type": "t_uint256"
      }
    ],
    "types": {
      "t_address": {
        "encoding": "inplace",
        "label": "address",
        "numberOfBytes": "20"
      },
      "t_bool": {
        "encoding": "inplace",
        "label": "bool",
        "numberOfBytes": "1"
      },
      "t_bytes32": {
        "encoding": "inplace",
        "label": "bytes32",
        "numberOfBytes": "32"
      },
      "t_mapping(t_address,t_bool)": {
        "encoding": "mapping",
        "key": "t_address",
        "label": "mapping(address => bool)",
        "numberOfBytes": "32",
        "value": "t_bool"
      },
      "t_mapping(t_bytes32,t_struct(RoleData)20161_storage)": {
        "encoding": "mapping",
        "key": "t_bytes32",
        "label": "mapping(bytes32 => struct AccessControl.RoleData)",
        "numberOfBytes": "32",
        "value": "t_struct(RoleData)20161_storage"
      },
      "t_struct(RoleData)20161_storage": {
        "encoding": "inplace",
        "label": "struct AccessControl.RoleData",
        "members": [
          {
            "astId": 20158,
            "contract": "contracts/oracle/feed/KlayFeed.sol:KlayFeed",
            "label": "members",
            "offset": 0,
            "slot": "0",
            "type": "t_mapping(t_address,t_bool)"
          },
          {
            "astId": 20160,
            "contract": "contracts/oracle/feed/KlayFeed.sol:KlayFeed",
            "label": "adminRole",
            "offset": 0,
            "slot": "1",
            "type": "t_bytes32"
          }
        ],
        "numberOfBytes": "64"
      },
      "t_uint256": {
        "encoding": "inplace",
        "label": "uint256",
        "numberOfBytes": "32"
      }
    }
  }
}