{
  "address": "0xFF12b921D493B7407a3b182f35FD5f23d6d1E46a",
  "abi": [
    {
      "anonymous": false,
      "inputs": [
        {
          "indexed": false,
          "internalType": "address",
          "name": "account",
          "type": "address"
        }
      ],
      "name": "Paused",
      "type": "event"
    },
    {
      "anonymous": false,
      "inputs": [
        {
          "indexed": true,
          "internalType": "bytes32",
          "name": "role",
          "type": "bytes32"
        },
        {
          "indexed": true,
          "internalType": "bytes32",
          "name": "previousAdminRole",
          "type": "bytes32"
        },
        {
          "indexed": true,
          "internalType": "bytes32",
          "name": "newAdminRole",
          "type": "bytes32"
        }
      ],
      "name": "RoleAdminChanged",
      "type": "event"
    },
    {
      "anonymous": false,
      "inputs": [
        {
          "indexed": true,
          "internalType": "bytes32",
          "name": "role",
          "type": "bytes32"
        },
        {
          "indexed": true,
          "internalType": "address",
          "name": "account",
          "type": "address"
        },
        {
          "indexed": true,
          "internalType": "address",
          "name": "sender",
          "type": "address"
        }
      ],
      "name": "RoleGranted",
      "type": "event"
    },
    {
      "anonymous": false,
      "inputs": [
        {
          "indexed": true,
          "internalType": "bytes32",
          "name": "role",
          "type": "bytes32"
        },
        {
          "indexed": true,
          "internalType": "address",
          "name": "account",
          "type": "address"
        },
        {
          "indexed": true,
          "internalType": "address",
          "name": "sender",
          "type": "address"
        }
      ],
      "name": "RoleRevoked",
      "type": "event"
    },
    {
      "anonymous": false,
      "inputs": [
        {
          "indexed": false,
          "internalType": "address",
          "name": "account",
          "type": "address"
        }
      ],
      "name": "Unpaused",
      "type": "event"
    },
    {
      "inputs": [],
      "name": "DEFAULT_ADMIN_ROLE",
      "outputs": [
        {
          "internalType": "bytes32",
          "name": "",
          "type": "bytes32"
        }
      ],
      "stateMutability": "view",
      "type": "function"
    },
    {
      "inputs": [],
      "name": "KLAY_COLLATERAL_TYPE",
      "outputs": [
        {
          "internalType": "bytes32",
          "name": "",
          "type": "bytes32"
        }
      ],
      "stateMutability": "view",
      "type": "function"
    },
    {
      "inputs": [],
      "name": "__KlayGateway_init",
      "outputs": [],
      "stateMutability": "nonpayable",
      "type": "function"
    },
    {
      "inputs": [],
      "name": "aklay",
      "outputs": [
        {
          "internalType": "contract IKIP7",
          "name": "",
          "type": "address"
        }
      ],
      "stateMutability": "view",
      "type": "function"
    },
    {
      "inputs": [],
      "name": "bKlay",
      "outputs": [
        {
          "internalType": "contract IBKlay",
          "name": "",
          "type": "address"
        }
      ],
      "stateMutability": "view",
      "type": "function"
    },
    {
      "inputs": [
        {
          "internalType": "uint256",
          "name": "collateralAmount",
          "type": "uint256"
        },
        {
          "internalType": "uint256",
          "name": "loanAmount",
          "type": "uint256"
        }
      ],
      "name": "borrow",
      "outputs": [],
      "stateMutability": "nonpayable",
      "type": "function"
    },
    {
      "inputs": [
        {
          "internalType": "address",
          "name": "usr",
          "type": "address"
        }
      ],
      "name": "claimKlay",
      "outputs": [],
      "stateMutability": "nonpayable",
      "type": "function"
    },
    {
      "inputs": [
        {
          "internalType": "bytes32",
          "name": "what",
          "type": "bytes32"
        },
        {
          "internalType": "address",
          "name": "data",
          "type": "address"
        }
      ],
      "name": "config",
      "outputs": [],
      "stateMutability": "nonpayable",
      "type": "function"
    },
    {
      "inputs": [
        {
          "internalType": "bytes32",
          "name": "what",
          "type": "bytes32"
        },
        {
          "internalType": "uint256",
          "name": "data",
          "type": "uint256"
        }
      ],
      "name": "config",
      "outputs": [],
      "stateMutability": "nonpayable",
      "type": "function"
    },
    {
      "inputs": [
        {
          "internalType": "bytes32",
          "name": "role",
          "type": "bytes32"
        }
      ],
      "name": "getRoleAdmin",
      "outputs": [
        {
          "internalType": "bytes32",
          "name": "",
          "type": "bytes32"
        }
      ],
      "stateMutability": "view",
      "type": "function"
    },
    {
      "inputs": [
        {
          "internalType": "bytes32",
          "name": "role",
          "type": "bytes32"
        },
        {
          "internalType": "address",
          "name": "account",
          "type": "address"
        }
      ],
      "name": "grantRole",
      "outputs": [],
      "stateMutability": "nonpayable",
      "type": "function"
    },
    {
      "inputs": [
        {
          "internalType": "bytes32",
          "name": "role",
          "type": "bytes32"
        },
        {
          "internalType": "address",
          "name": "account",
          "type": "address"
        }
      ],
      "name": "hasRole",
      "outputs": [
        {
          "internalType": "bool",
          "name": "",
          "type": "bool"
        }
      ],
      "stateMutability": "view",
      "type": "function"
    },
    {
      "inputs": [
        {
          "internalType": "address",
          "name": "",
          "type": "address"
        }
      ],
      "name": "isAllow",
      "outputs": [
        {
          "internalType": "bool",
          "name": "",
          "type": "bool"
        }
      ],
      "stateMutability": "view",
      "type": "function"
    },
    {
      "inputs": [],
      "name": "ksdGateway",
      "outputs": [
        {
          "internalType": "contract IKSDGateway",
          "name": "",
          "type": "address"
        }
      ],
      "stateMutability": "view",
      "type": "function"
    },
    {
      "inputs": [],
      "name": "ledger",
      "outputs": [
        {
          "internalType": "contract ILedger",
          "name": "",
          "type": "address"
        }
      ],
      "stateMutability": "view",
      "type": "function"
    },
    {
      "inputs": [],
      "name": "pause",
      "outputs": [],
      "stateMutability": "nonpayable",
      "type": "function"
    },
    {
      "inputs": [],
      "name": "paused",
      "outputs": [
        {
          "internalType": "bool",
          "name": "",
          "type": "bool"
        }
      ],
      "stateMutability": "view",
      "type": "function"
    },
    {
      "inputs": [
        {
          "internalType": "bytes32",
          "name": "role",
          "type": "bytes32"
        },
        {
          "internalType": "address",
          "name": "account",
          "type": "address"
        }
      ],
      "name": "renounceRole",
      "outputs": [],
      "stateMutability": "nonpayable",
      "type": "function"
    },
    {
      "inputs": [
        {
          "internalType": "uint256",
          "name": "collateralAmount",
          "type": "uint256"
        },
        {
          "internalType": "uint256",
          "name": "loanAmount",
          "type": "uint256"
        }
      ],
      "name": "repay",
      "outputs": [],
      "stateMutability": "nonpayable",
      "type": "function"
    },
    {
      "inputs": [
        {
          "internalType": "uint256",
          "name": "collateralAmount",
          "type": "uint256"
        }
      ],
      "name": "repayAll",
      "outputs": [],
      "stateMutability": "nonpayable",
      "type": "function"
    },
    {
      "inputs": [
        {
          "internalType": "uint256",
          "name": "collateralAmount",
          "type": "uint256"
        }
      ],
      "name": "repayAllAndUnstake",
      "outputs": [],
      "stateMutability": "nonpayable",
      "type": "function"
    },
    {
      "inputs": [
        {
          "internalType": "uint256",
          "name": "collateralAmount",
          "type": "uint256"
        },
        {
          "internalType": "uint256",
          "name": "loanAmount",
          "type": "uint256"
        }
      ],
      "name": "repayAndUnstake",
      "outputs": [],
      "stateMutability": "nonpayable",
      "type": "function"
    },
    {
      "inputs": [
        {
          "internalType": "bytes32",
          "name": "role",
          "type": "bytes32"
        },
        {
          "internalType": "address",
          "name": "account",
          "type": "address"
        }
      ],
      "name": "revokeRole",
      "outputs": [],
      "stateMutability": "nonpayable",
      "type": "function"
    },
    {
      "inputs": [
        {
          "internalType": "address",
          "name": "account",
          "type": "address"
        },
        {
          "internalType": "bool",
          "name": "bool_",
          "type": "bool"
        }
      ],
      "name": "setBKlayAccess",
      "outputs": [],
      "stateMutability": "nonpayable",
      "type": "function"
    },
    {
      "inputs": [],
      "name": "skokoa",
      "outputs": [
        {
          "internalType": "contract IKIP7",
          "name": "",
          "type": "address"
        }
      ],
      "stateMutability": "view",
      "type": "function"
    },
    {
      "inputs": [],
      "name": "skokoaLimit",
      "outputs": [
        {
          "internalType": "uint256",
          "name": "",
          "type": "uint256"
        }
      ],
      "stateMutability": "view",
      "type": "function"
    },
    {
      "inputs": [],
      "name": "stake",
      "outputs": [],
      "stateMutability": "payable",
      "type": "function"
    },
    {
      "inputs": [
        {
          "internalType": "uint256",
          "name": "amount",
          "type": "uint256"
        }
      ],
      "name": "stakeAKlay",
      "outputs": [],
      "stateMutability": "nonpayable",
      "type": "function"
    },
    {
      "inputs": [
        {
          "internalType": "uint256",
          "name": "aklayAmount",
          "type": "uint256"
        },
        {
          "internalType": "uint256",
          "name": "ksdAmount",
          "type": "uint256"
        }
      ],
      "name": "stakeAKlayAndBorrow",
      "outputs": [],
      "stateMutability": "nonpayable",
      "type": "function"
    },
    {
      "inputs": [
        {
          "internalType": "uint256",
          "name": "amount",
          "type": "uint256"
        }
      ],
      "name": "stakeAndBorrow",
      "outputs": [],
      "stateMutability": "payable",
      "type": "function"
    },
    {
      "inputs": [
        {
          "internalType": "address",
          "name": "newOwner",
          "type": "address"
        }
      ],
      "name": "transferOwnership",
      "outputs": [],
      "stateMutability": "nonpayable",
      "type": "function"
    },
    {
      "inputs": [],
      "name": "unpause",
      "outputs": [],
      "stateMutability": "nonpayable",
      "type": "function"
    },
    {
      "inputs": [
        {
          "internalType": "uint256",
          "name": "amount",
          "type": "uint256"
        }
      ],
      "name": "unstake",
      "outputs": [],
      "stateMutability": "nonpayable",
      "type": "function"
    },
    {
      "inputs": [
        {
          "internalType": "uint256",
          "name": "amount",
          "type": "uint256"
        }
      ],
      "name": "unstakeInBKlay",
      "outputs": [],
      "stateMutability": "nonpayable",
      "type": "function"
    }
  ],
  "transactionHash": "0x0f5188e80659d09a83d6d5b76a34f4397b39624648b9d3ac073bb95208a5c140",
  "args": [],
  "solcInputHash": "daac9cba34dfabe5953ff704314717f0",
  "bytecode": "0x608060405234801561001057600080fd5b50612062806100206000396000f3fe6080604052600436106101f95760003560e01c80635bab28fa1161010d578063cca52a76116100a0578063df7a1cea1161006f578063df7a1cea14610588578063e0bed041146105a8578063f223fab4146105c8578063f2fde38b146105e8578063f9893c4314610608576101f9565b8063cca52a7614610508578063d366f3b914610528578063d547741f14610548578063d8aed14514610568576101f9565b806391d14854116100dc57806391d1485414610493578063a217fddf146104b3578063a3333309146104c8578063b3ad42ff146104e8576101f9565b80635bab28fa146104335780635c975abb1461045357806372f1527f1461046b5780638456cb591461047e576101f9565b80632e17de7811610190578063366804631161015f57806336680463146103a4578063375ccd1f146103c45780633a4b66f1146103d95780633f4ba83a146103e157806356397c35146103f6576101f9565b80632e17de78146103245780632f2ff15d146103445780633221be541461036457806336568abe14610384576101f9565b80631b1f24e7116101cc5780631b1f24e71461028e5780631bbe5215146102ae578063248a9ca3146102c45780632684b406146102e4576101f9565b806306405b50146101fe5780630dac8084146102205780630ecbcdab1461024e57806316e4d4b41461026e575b600080fd5b34801561020a57600080fd5b5061021e610219366004611ddf565b610628565b005b34801561022c57600080fd5b5061023b636b6c617960e01b81565b6040519081526020015b60405180910390f35b34801561025a57600080fd5b5061021e610269366004611e22565b6109a7565b34801561027a57600080fd5b5061021e610289366004611d73565b610aba565b34801561029a57600080fd5b5061021e6102a9366004611e22565b610b1f565b3480156102ba57600080fd5b5061023b60075481565b3480156102d057600080fd5b5061023b6102df366004611ddf565b610b55565b3480156102f057600080fd5b506103146102ff366004611d73565b60086020526000908152604090205460ff1681565b6040519015158152602001610245565b34801561033057600080fd5b5061021e61033f366004611ddf565b610b6e565b34801561035057600080fd5b5061021e61035f366004611df7565b610d37565b34801561037057600080fd5b5061021e61037f366004611ddf565b610d59565b34801561039057600080fd5b5061021e61039f366004611df7565b610fb1565b3480156103b057600080fd5b5061021e6103bf366004611ddf565b61102b565b3480156103d057600080fd5b5061021e611228565b61021e6112a6565b3480156103ed57600080fd5b5061021e61139e565b34801561040257600080fd5b5060025461041b9061010090046001600160a01b031681565b6040516001600160a01b039091168152602001610245565b34801561043f57600080fd5b5061021e61044e366004611e22565b61143c565b34801561045f57600080fd5b5060025460ff16610314565b61021e610479366004611ddf565b611472565b34801561048a57600080fd5b5061021e6114a7565b34801561049f57600080fd5b506103146104ae366004611df7565b61151b565b3480156104bf57600080fd5b5061023b600081565b3480156104d457600080fd5b5060065461041b906001600160a01b031681565b3480156104f457600080fd5b5060045461041b906001600160a01b031681565b34801561051457600080fd5b5061021e610523366004611ddf565b611546565b34801561053457600080fd5b5061021e610543366004611df7565b61157b565b34801561055457600080fd5b5061021e610563366004611df7565b611703565b34801561057457600080fd5b5061021e610583366004611e22565b611720565b34801561059457600080fd5b5060055461041b906001600160a01b031681565b3480156105b457600080fd5b5061021e6105c3366004611e22565b611811565b3480156105d457600080fd5b5060035461041b906001600160a01b031681565b3480156105f457600080fd5b5061021e610603366004611d73565b611866565b34801561061457600080fd5b5061021e610623366004611d8d565b61189c565b60025460ff16156106545760405162461bcd60e51b815260040161064b90611f20565b60405180910390fd5b3360009081526008602052604090205460ff16806106ee57506007546006546040516370a0823160e01b81523360048201526001600160a01b03909116906370a082319060240160206040518083038186803b1580156106b357600080fd5b505afa1580156106c7573d6000803e3d6000fd5b505050506040513d601f19601f820116820180604052508101906106eb9190611e43565b10155b6107535760405162461bcd60e51b815260206004820152603060248201527f4b6c6179476174657761793a3a20756e7374616b65496e424b6c61793a20696e60448201526f3b30b634b21036b9b39739b2b73232b960811b606482015260840161064b565b600254604051634907582f60e01b8152636b6c617960e01b6004820152336024820152829161010090046001600160a01b031690634907582f9060440160206040518083038186803b1580156107a857600080fd5b505afa1580156107bc573d6000803e3d6000fd5b505050506040513d601f19601f820116820180604052508101906107e09190611e43565b101561088757600254604051634907582f60e01b8152636b6c617960e01b60048201523360248201526108879161010090046001600160a01b031690634907582f906044015b60206040518083038186803b15801561083e57600080fd5b505afa158015610852573d6000803e3d6000fd5b505050506040513d601f19601f820116820180604052508101906108769190611e43565b6108809083611fd7565b6000611720565b60025461010090046001600160a01b031663d295927a636b6c617960e01b336108af856118fc565b6108b890611fee565b6040516001600160e01b031960e086901b16815260048101939093526001600160a01b0390911660248301526044820152606401600060405180830381600087803b15801561090657600080fd5b505af115801561091a573d6000803e3d6000fd5b50506004805460405163a9059cbb60e01b81523392810192909252602482018590526001600160a01b0316925063a9059cbb9150604401602060405180830381600087803b15801561096b57600080fd5b505af115801561097f573d6000803e3d6000fd5b505050506040513d601f19601f820116820180604052508101906109a39190611dc3565b5050565b60025460ff16156109ca5760405162461bcd60e51b815260040161064b90611f20565b60025461010090046001600160a01b0316630d0a1d92636b6c617960e01b3380806109f4886118fc565b6109fd886118fc565b6040518763ffffffff1660e01b8152600401610a1e96959493929190611eeb565b600060405180830381600087803b158015610a3857600080fd5b505af1158015610a4c573d6000803e3d6000fd5b505060035460405163ed53be2960e01b81526001600160a01b03909116925063ed53be299150610a8490339081908690600401611ec7565b600060405180830381600087803b158015610a9e57600080fd5b505af1158015610ab2573d6000803e3d6000fd5b505050505050565b600480546040516305b9352d60e21b81526001600160a01b03848116938201939093529116906316e4d4b4906024015b600060405180830381600087803b158015610b0457600080fd5b505af1158015610b18573d6000803e3d6000fd5b5050505050565b60025460ff1615610b425760405162461bcd60e51b815260040161064b90611f20565b610b4b8261102b565b6109a382826109a7565b600081815260016020819052604090912001545b919050565b60025460ff1615610b915760405162461bcd60e51b815260040161064b90611f20565b600254604051634907582f60e01b8152636b6c617960e01b6004820152336024820152829161010090046001600160a01b031690634907582f9060440160206040518083038186803b158015610be657600080fd5b505afa158015610bfa573d6000803e3d6000fd5b505050506040513d601f19601f82011682018060405250810190610c1e9190611e43565b1015610c6857600254604051634907582f60e01b8152636b6c617960e01b6004820152336024820152610c689161010090046001600160a01b031690634907582f90604401610826565b60025461010090046001600160a01b031663d295927a636b6c617960e01b33610c90856118fc565b610c9990611fee565b6040516001600160e01b031960e086901b16815260048101939093526001600160a01b0390911660248301526044820152606401600060405180830381600087803b158015610ce757600080fd5b505af1158015610cfb573d6000803e3d6000fd5b50506004805460405163238be93f60e01b81523392810192909252602482018590526001600160a01b0316925063238be93f9150604401610aea565b610d4082610b55565b610d4a813361196a565b610d5483836119ce565b505050565b60025460ff1615610d7c5760405162461bcd60e51b815260040161064b90611f20565b600254604051637d5422a760e01b8152636b6c617960e01b600482015260009161010090046001600160a01b031690637d5422a79060240160c06040518083038186803b158015610dcc57600080fd5b505afa158015610de0573d6000803e3d6000fd5b505050506040513d601f19601f82011682018060405250810190610e049190611e7e565b505060025460405163b75baf7960e01b8152636b6c617960e01b60048201523360248201529295506000945061010090046001600160a01b0316925063b75baf79916044019050604080518083038186803b158015610e6257600080fd5b505afa158015610e76573d6000803e3d6000fd5b505050506040513d601f19601f82011682018060405250810190610e9a9190611e5b565b915060009050610eaa8284611a39565b60035460405163109b40d560e11b81529192506001600160a01b03169063213681aa90610edf90339081908690600401611ec7565b600060405180830381600087803b158015610ef957600080fd5b505af1158015610f0d573d6000803e3d6000fd5b505060025461010090046001600160a01b03169150630d0a1d929050636b6c617960e01b338080610f3d8a6118fc565b610f4690611fee565b610f4f886118fc565b610f5890611fee565b6040518763ffffffff1660e01b8152600401610f7996959493929190611eeb565b600060405180830381600087803b158015610f9357600080fd5b505af1158015610fa7573d6000803e3d6000fd5b5050505050505050565b6001600160a01b03811633146110215760405162461bcd60e51b815260206004820152602f60248201527f416363657373436f6e74726f6c3a2063616e206f6e6c792072656e6f756e636560448201526e103937b632b9903337b91039b2b63360891b606482015260840161064b565b6109a38282611ac5565b60025460ff161561104e5760405162461bcd60e51b815260040161064b90611f20565b60025461010090046001600160a01b031663d295927a636b6c617960e01b33611076856118fc565b6040516001600160e01b031960e086901b16815260048101939093526001600160a01b0390911660248301526044820152606401600060405180830381600087803b1580156110c457600080fd5b505af11580156110d8573d6000803e3d6000fd5b50506005546040516323b872dd60e01b81526001600160a01b0390911692506323b872dd915061111090339030908690600401611ec7565b602060405180830381600087803b15801561112a57600080fd5b505af115801561113e573d6000803e3d6000fd5b505050506040513d601f19601f820116820180604052508101906111629190611dc3565b506005546004805460405163095ea7b360e01b81526001600160a01b0391821692810192909252602482018490529091169063095ea7b390604401602060405180830381600087803b1580156111b757600080fd5b505af11580156111cb573d6000803e3d6000fd5b505050506040513d601f19601f820116820180604052508101906111ef9190611dc3565b5060048054604051638d19a9af60e01b81523092810192909252602482018390526001600160a01b031690638d19a9af90604401610aea565b600054610100900460ff168061123d5750303b155b8061124b575060005460ff16155b6112675760405162461bcd60e51b815260040161064b90611f4a565b600054610100900460ff16158015611289576000805461ffff19166101011790555b611291611b2c565b80156112a3576000805461ff00191690555b50565b60025460ff16156112c95760405162461bcd60e51b815260040161064b90611f20565b60025461010090046001600160a01b031663d295927a636b6c617960e01b336112f1346118fc565b6040516001600160e01b031960e086901b16815260048101939093526001600160a01b0390911660248301526044820152606401600060405180830381600087803b15801561133f57600080fd5b505af1158015611353573d6000803e3d6000fd5b505060048054604051632b89466d60e21b815230928101929092526001600160a01b0316925063ae2519b4915034906024016000604051808303818588803b158015610b0457600080fd5b60025460ff166113e75760405162461bcd60e51b815260206004820152601460248201527314185d5cd8589b194e881b9bdd081c185d5cd95960621b604482015260640161064b565b653830bab9b2b960d11b6113fb813361196a565b6002805460ff191690556040513381527f5db9ee0a495bf2e6ff9c91a7834c1ba4fdd244a5e8aa4e537bd38aeae4b073aa906020015b60405180910390a150565b60025460ff161561145f5760405162461bcd60e51b815260040161064b90611f20565b6114698282611720565b6109a382610b6e565b60025460ff16156114955760405162461bcd60e51b815260040161064b90611f20565b61149d6112a6565b6112a334826109a7565b60025460ff16156114ca5760405162461bcd60e51b815260040161064b90611f20565b653830bab9b2b960d11b6114de813361196a565b6002805460ff191660011790556040513381527f62e78cea01bee320cd4e420270b5ea74000d11b0c9f74754ebdbfc544b05a25890602001611431565b60009182526001602090815260408084206001600160a01b0393909316845291905290205460ff1690565b60025460ff16156115695760405162461bcd60e51b815260040161064b90611f20565b61157281610d59565b6112a381610b6e565b61158d6430b236b4b760d91b3361196a565b60025460ff16156115b05760405162461bcd60e51b815260040161064b90611f20565b81653632b233b2b960d11b14156115e65760028054610100600160a81b0319166101006001600160a01b038416021790556109a3565b81696b73644761746577617960b01b141561161b57600380546001600160a01b0319166001600160a01b0383161790556109a3565b8164624b6c617960d81b141561164b57600480546001600160a01b0319166001600160a01b0383161790556109a3565b8164616b6c617960d81b141561167b57600580546001600160a01b0319166001600160a01b0383161790556109a3565b8165736b6f6b6f6160d01b14156116ac57600680546001600160a01b0319166001600160a01b0383161790556109a3565b60405162461bcd60e51b815260206004820152602660248201527f4b6c6179476174657761793a3a636f6e6669673a756e7265636f676e697a65646044820152652d706172616d60d01b606482015260840161064b565b61170c82610b55565b611716813361196a565b610d548383611ac5565b60025460ff16156117435760405162461bcd60e51b815260040161064b90611f20565b60035460405163109b40d560e11b81526001600160a01b039091169063213681aa9061177790339081908690600401611ec7565b600060405180830381600087803b15801561179157600080fd5b505af11580156117a5573d6000803e3d6000fd5b505060025461010090046001600160a01b03169150630d0a1d929050636b6c617960e01b3380806117d5886118fc565b6117de90611fee565b6117e7886118fc565b6117f090611fee565b6040518763ffffffff1660e01b8152600401610a8496959493929190611eeb565b6118236430b236b4b760d91b3361196a565b60025460ff16156118465760405162461bcd60e51b815260040161064b90611f20565b816a1cdadbdadbd8531a5b5a5d60aa1b14156116ac5760078190556109a3565b6118786437bbb732b960d91b3361196a565b61188a6437bbb732b960d91b826119ce565b6112a36437bbb732b960d91b33611ac5565b6118ae6430b236b4b760d91b3361196a565b60025460ff16156118d15760405162461bcd60e51b815260040161064b90611f20565b6001600160a01b03919091166000908152600860205260409020805460ff1916911515919091179055565b60006001600160ff1b038211156119665760405162461bcd60e51b815260206004820152602860248201527f53616665436173743a2076616c756520646f65736e27742066697420696e2061604482015267371034b73a191a9b60c11b606482015260840161064b565b5090565b611974828261151b565b6109a35760405162461bcd60e51b815260206004820152602560248201527f416363657373436f6e74726f6c3a5f636865636b526f6c653a696e76616c696460448201526420726f6c6560d81b606482015260840161064b565b6119d8828261151b565b6109a35760008281526001602081815260408084206001600160a01b0386168086529252808420805460ff19169093179092559051339285917f2f8788117e7eff1d82e926ec794901d17c78024a50270940304540a733656f0d9190a45050565b6000611a458284611fb8565b9050811580611a5c575082611a5a8383611f98565b145b611aa85760405162461bcd60e51b815260206004820152601b60248201527f5761645261794d6174683a3a20726d756c3a206f766572666c6f770000000000604482015260640161064b565b611abe6b033b2e3c9fd0803ce800000082611f98565b9392505050565b611acf828261151b565b156109a35760008281526001602090815260408083206001600160a01b0385168085529252808320805460ff1916905551339285917ff6391f5c32d9c69d2a47ea670b442974b53935d1edc7fd64eb21e047a839171b9190a45050565b600054610100900460ff1680611b415750303b155b80611b4f575060005460ff16155b611b6b5760405162461bcd60e51b815260040161064b90611f4a565b600054610100900460ff16158015611b8d576000805461ffff19166101011790555b611b95611bc3565b611bb0653830bab9b2b960d11b6437bbb732b960d91b611c2c565b611291653830bab9b2b960d11b33611c81565b600054610100900460ff1680611bd85750303b155b80611be6575060005460ff16155b611c025760405162461bcd60e51b815260040161064b90611f4a565b600054610100900460ff16158015611c24576000805461ffff19166101011790555b611291611c8b565b6000611c3783610b55565b6000848152600160208190526040808320909101859055519192508391839186917fbd79b86ffe0ab8e8776151514217cd7cacd52c909f66475c3af44e129f0b00ff9190a4505050565b6109a382826119ce565b600054610100900460ff1680611ca05750303b155b80611cae575060005460ff16155b611cca5760405162461bcd60e51b815260040161064b90611f4a565b600054610100900460ff16158015611cec576000805461ffff19166101011790555b611cfe6437bbb732b960d91b33611c81565b611d186430b236b4b760d91b6437bbb732b960d91b611c2c565b611d356737b832b930ba37b960c11b6437bbb732b960d91b611c2c565b611d476430b236b4b760d91b33611c81565b6112916737b832b930ba37b960c11b33611c81565b80356001600160a01b0381168114610b6957600080fd5b600060208284031215611d84578081fd5b611abe82611d5c565b60008060408385031215611d9f578081fd5b611da883611d5c565b91506020830135611db88161201e565b809150509250929050565b600060208284031215611dd4578081fd5b8151611abe8161201e565b600060208284031215611df0578081fd5b5035919050565b60008060408385031215611e09578182fd5b82359150611e1960208401611d5c565b90509250929050565b60008060408385031215611e34578182fd5b50508035926020909101359150565b600060208284031215611e54578081fd5b5051919050565b60008060408385031215611e6d578182fd5b505080516020909101519092909150565b60008060008060008060c08789031215611e96578182fd5b865195506020870151945060408701519350606087015192506080870151915060a087015190509295509295509295565b6001600160a01b039384168152919092166020820152604081019190915260600190565b9586526001600160a01b039485166020870152928416604086015292166060840152608083019190915260a082015260c00190565b60208082526010908201526f14185d5cd8589b194e881c185d5cd95960821b604082015260600190565b6020808252602e908201527f496e697469616c697a61626c653a20636f6e747261637420697320616c72656160408201526d191e481a5b9a5d1a585b1a5e995960921b606082015260800190565b600082611fb357634e487b7160e01b81526012600452602481fd5b500490565b6000816000190483118215151615611fd257611fd2612008565b500290565b600082821015611fe957611fe9612008565b500390565b6000600160ff1b82141561200457612004612008565b0390565b634e487b7160e01b600052601160045260246000fd5b80151581146112a357600080fdfea2646970667358221220ba2a033a18c81e7bfa541a895faf97405acbdc1d5d1108627e87e5b3d985028064736f6c63430008030033",
  "devdoc": {
    "kind": "dev",
    "methods": {
      "borrow(uint256,uint256)": {
        "details": "Currently, the only collateral is klay.Ledger decides whether or not to verify the stability of a secured loan or not.Loan history recorded on ledger.",
        "params": {
          "collateralAmount": "Amount of collateral to be collateralized.",
          "loanAmount": "Amount of ksd to borrow (loan)."
        }
      },
      "claimKlay(address)": {
        "details": "It takes 7 days for unstaked klay to be returned.If you do not claim by 14 days after unstaking, it will be automatically staking again.",
        "params": {
          "usr": "Who will execute the claim."
        }
      },
      "repay(uint256,uint256)": {
        "details": "Record on ledge.",
        "params": {
          "collateralAmount": "Amount of klay that was entrusted as collateral.",
          "loanAmount": "Amount of ksd borrowed (loan)."
        }
      },
      "repayAll(uint256)": {
        "details": "Record on ledge.",
        "params": {
          "collateralAmount": "Amount of klay that was entrusted as collateral."
        }
      },
      "repayAllAndUnstake(uint256)": {
        "details": "Unstake is executed after repay is executed.The claim function must be called to return the unstaked klay.",
        "params": {
          "collateralAmount": "Amount of klay that was entrusted as collateral."
        }
      },
      "repayAndUnstake(uint256,uint256)": {
        "details": "Unstake is executed after repay is executed.The claim function must be called to return the unstaked klay.",
        "params": {
          "collateralAmount": "Amount of klay that was entrusted as collateral.",
          "loanAmount": "Amount of ksd borrowed (loan)."
        }
      },
      "stake()": {
        "details": "As much as the received klay, bklay is mint and treated as collateral.Payable."
      },
      "stakeAKlay(uint256)": {
        "details": "As much as the received aklay, bklay is mint and treated as collateral.Payable.",
        "params": {
          "amount": "amount of aklay to stake"
        }
      },
      "stakeAKlayAndBorrow(uint256,uint256)": {
        "params": {
          "aklayAmount": "Amount of aklay to stake.",
          "ksdAmount": "Amount of ksd to borrow (loan)."
        }
      },
      "stakeAndBorrow(uint256)": {
        "params": {
          "amount": "Amount of ksd to borrow (loan)."
        }
      },
      "unstake(uint256)": {
        "details": "Record on ledge.Unstaking is carried out in the bklay contract.",
        "params": {
          "amount": "Amount of klay you want to return."
        }
      },
      "unstakeInBKlay(uint256)": {
        "details": "Record on ledge.Unstaking is carried out in the bklay contract.",
        "params": {
          "amount": "Amount of klay you want to return."
        }
      }
    },
    "title": "Klay input/output contract",
    "version": 1
  },
  "userdoc": {
    "kind": "user",
    "methods": {
      "borrow(uint256,uint256)": {
        "notice": "Loan ksd with klay as collateral."
      },
      "claimKlay(address)": {
        "notice": "Return a returnable klay to the user."
      },
      "config(bytes32,address)": {
        "notice": "Initialize interface variable."
      },
      "config(bytes32,uint256)": {
        "notice": "Initialize interface variable."
      },
      "repay(uint256,uint256)": {
        "notice": "Return ksd and unlock collateral (klay)."
      },
      "repayAll(uint256)": {
        "notice": "Return ksd and unlock collateral (klay)."
      },
      "repayAllAndUnstake(uint256)": {
        "notice": "Execute repay and unstake functions at the same time."
      },
      "repayAndUnstake(uint256,uint256)": {
        "notice": "Execute repay and unstake functions at the same time."
      },
      "setBKlayAccess(address,bool)": {
        "notice": "access of withdaw BKlay directly"
      },
      "stake()": {
        "notice": "Send klay to bklay contract, record on ledge."
      },
      "stakeAKlay(uint256)": {
        "notice": "Send aklay to bklay contract, record on ledge."
      },
      "stakeAKlayAndBorrow(uint256,uint256)": {
        "notice": "Execute stake and borrow functions at the same time."
      },
      "stakeAndBorrow(uint256)": {
        "notice": "Execute stake and borrow functions at the same time."
      },
      "unstake(uint256)": {
        "notice": "Execute unstake to get the entrusted klay back."
      },
      "unstakeInBKlay(uint256)": {
        "notice": "Execute unstake to get BKlay back."
      }
    },
    "notice": "Functions to be called by user",
    "version": 1
  },
  "storageLayout": {
    "storage": [
      {
        "astId": 23220,
        "contract": "contracts/lending/gateway/KlayGateway.sol:KlayGateway",
        "label": "_initialized",
        "offset": 0,
        "slot": "0",
        "type": "t_bool"
      },
      {
        "astId": 23223,
        "contract": "contracts/lending/gateway/KlayGateway.sol:KlayGateway",
        "label": "_initializing",
        "offset": 1,
        "slot": "0",
        "type": "t_bool"
      },
      {
        "astId": 20166,
        "contract": "contracts/lending/gateway/KlayGateway.sol:KlayGateway",
        "label": "_roles",
        "offset": 0,
        "slot": "1",
        "type": "t_mapping(t_bytes32,t_struct(RoleData)20161_storage)"
      },
      {
        "astId": 20556,
        "contract": "contracts/lending/gateway/KlayGateway.sol:KlayGateway",
        "label": "_paused",
        "offset": 0,
        "slot": "2",
        "type": "t_bool"
      },
      {
        "astId": 19566,
        "contract": "contracts/lending/gateway/KlayGateway.sol:KlayGateway",
        "label": "ledger",
        "offset": 1,
        "slot": "2",
        "type": "t_contract(ILedger)8804"
      },
      {
        "astId": 19569,
        "contract": "contracts/lending/gateway/KlayGateway.sol:KlayGateway",
        "label": "ksdGateway",
        "offset": 0,
        "slot": "3",
        "type": "t_contract(IKSDGateway)7603"
      },
      {
        "astId": 19572,
        "contract": "contracts/lending/gateway/KlayGateway.sol:KlayGateway",
        "label": "bKlay",
        "offset": 0,
        "slot": "4",
        "type": "t_contract(IBKlay)7171"
      },
      {
        "astId": 19575,
        "contract": "contracts/lending/gateway/KlayGateway.sol:KlayGateway",
        "label": "aklay",
        "offset": 0,
        "slot": "5",
        "type": "t_contract(IKIP7)9881"
      },
      {
        "astId": 19578,
        "contract": "contracts/lending/gateway/KlayGateway.sol:KlayGateway",
        "label": "skokoa",
        "offset": 0,
        "slot": "6",
        "type": "t_contract(IKIP7)9881"
      },
      {
        "astId": 19580,
        "contract": "contracts/lending/gateway/KlayGateway.sol:KlayGateway",
        "label": "skokoaLimit",
        "offset": 0,
        "slot": "7",
        "type": "t_uint256"
      },
      {
        "astId": 19584,
        "contract": "contracts/lending/gateway/KlayGateway.sol:KlayGateway",
        "label": "isAllow",
        "offset": 0,
        "slot": "8",
        "type": "t_mapping(t_address,t_bool)"
      }
    ],
    "types": {
      "t_address": {
        "encoding": "inplace",
        "label": "address",
        "numberOfBytes": "20"
      },
      "t_bool": {
        "encoding": "inplace",
        "label": "bool",
        "numberOfBytes": "1"
      },
      "t_bytes32": {
        "encoding": "inplace",
        "label": "bytes32",
        "numberOfBytes": "32"
      },
      "t_contract(IBKlay)7171": {
        "encoding": "inplace",
        "label": "contract IBKlay",
        "numberOfBytes": "20"
      },
      "t_contract(IKIP7)9881": {
        "encoding": "inplace",
        "label": "contract IKIP7",
        "numberOfBytes": "20"
      },
      "t_contract(IKSDGateway)7603": {
        "encoding": "inplace",
        "label": "contract IKSDGateway",
        "numberOfBytes": "20"
      },
      "t_contract(ILedger)8804": {
        "encoding": "inplace",
        "label": "contract ILedger",
        "numberOfBytes": "20"
      },
      "t_mapping(t_address,t_bool)": {
        "encoding": "mapping",
        "key": "t_address",
        "label": "mapping(address => bool)",
        "numberOfBytes": "32",
        "value": "t_bool"
      },
      "t_mapping(t_bytes32,t_struct(RoleData)20161_storage)": {
        "encoding": "mapping",
        "key": "t_bytes32",
        "label": "mapping(bytes32 => struct AccessControl.RoleData)",
        "numberOfBytes": "32",
        "value": "t_struct(RoleData)20161_storage"
      },
      "t_struct(RoleData)20161_storage": {
        "encoding": "inplace",
        "label": "struct AccessControl.RoleData",
        "members": [
          {
            "astId": 20158,
            "contract": "contracts/lending/gateway/KlayGateway.sol:KlayGateway",
            "label": "members",
            "offset": 0,
            "slot": "0",
            "type": "t_mapping(t_address,t_bool)"
          },
          {
            "astId": 20160,
            "contract": "contracts/lending/gateway/KlayGateway.sol:KlayGateway",
            "label": "adminRole",
            "offset": 0,
            "slot": "1",
            "type": "t_bytes32"
          }
        ],
        "numberOfBytes": "64"
      },
      "t_uint256": {
        "encoding": "inplace",
        "label": "uint256",
        "numberOfBytes": "32"
      }
    }
  }
}