{
  "address": "0xBa98e798EEA70d7e3385bE16605B647D6998ef46",
  "abi": [
    {
      "anonymous": false,
      "inputs": [
        {
          "indexed": false,
          "internalType": "address",
          "name": "account",
          "type": "address"
        }
      ],
      "name": "Paused",
      "type": "event"
    },
    {
      "anonymous": false,
      "inputs": [
        {
          "indexed": true,
          "internalType": "bytes32",
          "name": "role",
          "type": "bytes32"
        },
        {
          "indexed": true,
          "internalType": "bytes32",
          "name": "previousAdminRole",
          "type": "bytes32"
        },
        {
          "indexed": true,
          "internalType": "bytes32",
          "name": "newAdminRole",
          "type": "bytes32"
        }
      ],
      "name": "RoleAdminChanged",
      "type": "event"
    },
    {
      "anonymous": false,
      "inputs": [
        {
          "indexed": true,
          "internalType": "bytes32",
          "name": "role",
          "type": "bytes32"
        },
        {
          "indexed": true,
          "internalType": "address",
          "name": "account",
          "type": "address"
        },
        {
          "indexed": true,
          "internalType": "address",
          "name": "sender",
          "type": "address"
        }
      ],
      "name": "RoleGranted",
      "type": "event"
    },
    {
      "anonymous": false,
      "inputs": [
        {
          "indexed": true,
          "internalType": "bytes32",
          "name": "role",
          "type": "bytes32"
        },
        {
          "indexed": true,
          "internalType": "address",
          "name": "account",
          "type": "address"
        },
        {
          "indexed": true,
          "internalType": "address",
          "name": "sender",
          "type": "address"
        }
      ],
      "name": "RoleRevoked",
      "type": "event"
    },
    {
      "anonymous": false,
      "inputs": [
        {
          "indexed": false,
          "internalType": "address",
          "name": "account",
          "type": "address"
        }
      ],
      "name": "Unpaused",
      "type": "event"
    },
    {
      "inputs": [],
      "name": "DEFAULT_ADMIN_ROLE",
      "outputs": [
        {
          "internalType": "bytes32",
          "name": "",
          "type": "bytes32"
        }
      ],
      "stateMutability": "view",
      "type": "function"
    },
    {
      "inputs": [],
      "name": "__YieldFactory_init",
      "outputs": [],
      "stateMutability": "nonpayable",
      "type": "function"
    },
    {
      "inputs": [],
      "name": "aklay",
      "outputs": [
        {
          "internalType": "contract IKIP7",
          "name": "",
          "type": "address"
        }
      ],
      "stateMutability": "view",
      "type": "function"
    },
    {
      "inputs": [],
      "name": "aklayYield",
      "outputs": [
        {
          "internalType": "contract IAKlayYield",
          "name": "",
          "type": "address"
        }
      ],
      "stateMutability": "view",
      "type": "function"
    },
    {
      "inputs": [],
      "name": "applyProfitAll",
      "outputs": [],
      "stateMutability": "nonpayable",
      "type": "function"
    },
    {
      "inputs": [],
      "name": "claim",
      "outputs": [],
      "stateMutability": "nonpayable",
      "type": "function"
    },
    {
      "inputs": [
        {
          "internalType": "bytes32",
          "name": "what",
          "type": "bytes32"
        },
        {
          "internalType": "address",
          "name": "data",
          "type": "address"
        }
      ],
      "name": "config",
      "outputs": [],
      "stateMutability": "nonpayable",
      "type": "function"
    },
    {
      "inputs": [
        {
          "internalType": "bytes32",
          "name": "role",
          "type": "bytes32"
        }
      ],
      "name": "getRoleAdmin",
      "outputs": [
        {
          "internalType": "bytes32",
          "name": "",
          "type": "bytes32"
        }
      ],
      "stateMutability": "view",
      "type": "function"
    },
    {
      "inputs": [
        {
          "internalType": "bytes32",
          "name": "role",
          "type": "bytes32"
        },
        {
          "internalType": "address",
          "name": "account",
          "type": "address"
        }
      ],
      "name": "grantRole",
      "outputs": [],
      "stateMutability": "nonpayable",
      "type": "function"
    },
    {
      "inputs": [
        {
          "internalType": "bytes32",
          "name": "role",
          "type": "bytes32"
        },
        {
          "internalType": "address",
          "name": "account",
          "type": "address"
        }
      ],
      "name": "hasRole",
      "outputs": [
        {
          "internalType": "bool",
          "name": "",
          "type": "bool"
        }
      ],
      "stateMutability": "view",
      "type": "function"
    },
    {
      "inputs": [],
      "name": "ksd",
      "outputs": [
        {
          "internalType": "contract IKIP7",
          "name": "",
          "type": "address"
        }
      ],
      "stateMutability": "view",
      "type": "function"
    },
    {
      "inputs": [],
      "name": "ksdRewardManager",
      "outputs": [
        {
          "internalType": "contract IDistributor",
          "name": "",
          "type": "address"
        }
      ],
      "stateMutability": "view",
      "type": "function"
    },
    {
      "inputs": [],
      "name": "pause",
      "outputs": [],
      "stateMutability": "nonpayable",
      "type": "function"
    },
    {
      "inputs": [],
      "name": "paused",
      "outputs": [
        {
          "internalType": "bool",
          "name": "",
          "type": "bool"
        }
      ],
      "stateMutability": "view",
      "type": "function"
    },
    {
      "inputs": [],
      "name": "pending",
      "outputs": [
        {
          "internalType": "uint256",
          "name": "completed",
          "type": "uint256"
        },
        {
          "internalType": "uint256",
          "name": "yet",
          "type": "uint256"
        }
      ],
      "stateMutability": "view",
      "type": "function"
    },
    {
      "inputs": [
        {
          "internalType": "bytes32",
          "name": "role",
          "type": "bytes32"
        },
        {
          "internalType": "address",
          "name": "account",
          "type": "address"
        }
      ],
      "name": "renounceRole",
      "outputs": [],
      "stateMutability": "nonpayable",
      "type": "function"
    },
    {
      "inputs": [
        {
          "internalType": "bytes32",
          "name": "role",
          "type": "bytes32"
        },
        {
          "internalType": "address",
          "name": "account",
          "type": "address"
        }
      ],
      "name": "revokeRole",
      "outputs": [],
      "stateMutability": "nonpayable",
      "type": "function"
    },
    {
      "inputs": [],
      "name": "sortedYieldList",
      "outputs": [
        {
          "internalType": "address[]",
          "name": "yieldList",
          "type": "address[]"
        }
      ],
      "stateMutability": "view",
      "type": "function"
    },
    {
      "inputs": [],
      "name": "stake",
      "outputs": [],
      "stateMutability": "payable",
      "type": "function"
    },
    {
      "inputs": [
        {
          "internalType": "uint256",
          "name": "amount",
          "type": "uint256"
        }
      ],
      "name": "stakeAKlay",
      "outputs": [],
      "stateMutability": "nonpayable",
      "type": "function"
    },
    {
      "inputs": [],
      "name": "totalStaked",
      "outputs": [
        {
          "internalType": "uint256",
          "name": "",
          "type": "uint256"
        }
      ],
      "stateMutability": "view",
      "type": "function"
    },
    {
      "inputs": [
        {
          "internalType": "address",
          "name": "newOwner",
          "type": "address"
        }
      ],
      "name": "transferOwnership",
      "outputs": [],
      "stateMutability": "nonpayable",
      "type": "function"
    },
    {
      "inputs": [],
      "name": "unpause",
      "outputs": [],
      "stateMutability": "nonpayable",
      "type": "function"
    },
    {
      "inputs": [
        {
          "internalType": "uint256",
          "name": "amount",
          "type": "uint256"
        }
      ],
      "name": "unstake",
      "outputs": [],
      "stateMutability": "nonpayable",
      "type": "function"
    },
    {
      "inputs": [
        {
          "internalType": "address",
          "name": "to",
          "type": "address"
        },
        {
          "internalType": "uint256",
          "name": "amount",
          "type": "uint256"
        }
      ],
      "name": "withdrawKlay",
      "outputs": [],
      "stateMutability": "nonpayable",
      "type": "function"
    },
    {
      "inputs": [
        {
          "internalType": "address",
          "name": "to",
          "type": "address"
        },
        {
          "internalType": "uint256",
          "name": "amount",
          "type": "uint256"
        }
      ],
      "name": "withdrawToken",
      "outputs": [],
      "stateMutability": "nonpayable",
      "type": "function"
    },
    {
      "inputs": [],
      "name": "yieldManager",
      "outputs": [
        {
          "internalType": "contract IYieldManager",
          "name": "",
          "type": "address"
        }
      ],
      "stateMutability": "view",
      "type": "function"
    }
  ],
  "transactionHash": "0xdc08be1ba782a8ccbadbb89fa366fbb1a6939a6ab968487fe7b092427d91307e",
  "args": [],
  "solcInputHash": "7143d4257b2f9c06c8cf0d6af99b242a",
  "bytecode": "0x608060405234801561001057600080fd5b506122f4806100206000396000f3fe60806040526004361061019c5760003560e01c806376332348116100ec578063a6d5f1031161008a578063d547741f11610064578063d547741f14610450578063df7a1cea14610470578063e20ccec314610490578063f2fde38b146104ba5761019c565b8063a6d5f103146103f0578063d05f707114610410578063d366f3b9146104305761019c565b80638456cb59116100c65780638456cb591461038657806391d148541461039b5780639e281a98146103bb578063a217fddf146103db5761019c565b8063763323481461033057806380b7af1814610350578063817b1cd2146103705761019c565b80633f4ba83a116101595780634e71d92d116101335780634e71d92d146102c057806352e7fd61146102d55780635c975abb146102ea5780635cafb9d31461030e5761019c565b80633f4ba83a1461025e578063407f6a3614610273578063476954b1146102885761019c565b8063248a9ca3146101a15780632e17de78146101d45780632f2ff15d146101f657806336568abe1461021657806336680463146102365780633a4b66f114610256575b600080fd5b3480156101ad57600080fd5b506101c16101bc36600461205f565b6104da565b6040519081526020015b60405180910390f35b3480156101e057600080fd5b506101f46101ef36600461205f565b6104f3565b005b34801561020257600080fd5b506101f4610211366004612077565b610878565b34801561022257600080fd5b506101f4610231366004612077565b610895565b34801561024257600080fd5b506101f461025136600461205f565b610913565b6101f4610aee565b34801561026a57600080fd5b506101f4610bae565b34801561027f57600080fd5b506101f4610c4c565b34801561029457600080fd5b506007546102a8906001600160a01b031681565b6040516001600160a01b0390911681526020016101cb565b3480156102cc57600080fd5b506101f4610cca565b3480156102e157600080fd5b506101f4610d6f565b3480156102f657600080fd5b5060025460ff165b60405190151581526020016101cb565b34801561031a57600080fd5b50610323611075565b6040516101cb91906120dd565b34801561033c57600080fd5b506101f461034b366004612016565b611350565b34801561035c57600080fd5b50600a546102a8906001600160a01b031681565b34801561037c57600080fd5b506101c160035481565b34801561039257600080fd5b506101f46115db565b3480156103a757600080fd5b506102fe6103b6366004612077565b611672565b3480156103c757600080fd5b506101f46103d6366004612016565b61169d565b3480156103e757600080fd5b506101c1600081565b3480156103fc57600080fd5b506008546102a8906001600160a01b031681565b34801561041c57600080fd5b506009546102a8906001600160a01b031681565b34801561043c57600080fd5b506101f461044b366004612077565b611910565b34801561045c57600080fd5b506101f461046b366004612077565b611ac6565b34801561047c57600080fd5b506006546102a8906001600160a01b031681565b34801561049c57600080fd5b506104a5611ae3565b604080519283526020830191909152016101cb565b3480156104c657600080fd5b506101f46104d5366004611ff5565b611bcf565b600081815260016020819052604090912001545b919050565b6105056430b236b4b760d91b33611c05565b8060035410156105735760405162461bcd60e51b815260206004820152602e60248201527f5969656c64466163746f72793a3a756e7374616b653a696e76616c696420756e60448201526d1cdd185ada5b99c8185b5bdd5b9d60921b60648201526084015b60405180910390fd5b600061057d611075565b90508160035461058d9190612276565b6003558160005b825181101561082457816105a757610824565b818382815181106105c857634e487b7160e01b600052603260045260246000fd5b60200260200101516001600160a01b031663817b1cd26040518163ffffffff1660e01b815260040160206040518083038186803b15801561060857600080fd5b505afa15801561061c573d6000803e3d6000fd5b505050506040513d601f19601f8201168201806040525081019061064091906120a2565b106106df5782818151811061066557634e487b7160e01b600052603260045260246000fd5b60200260200101516001600160a01b0316632e17de78836040518263ffffffff1660e01b815260040161069a91815260200190565b600060405180830381600087803b1580156106b457600080fd5b505af11580156106c8573d6000803e3d6000fd5b5050505081826106d89190612276565b9150610812565b600083828151811061070157634e487b7160e01b600052603260045260246000fd5b60200260200101516001600160a01b031663817b1cd26040518163ffffffff1660e01b815260040160206040518083038186803b15801561074157600080fd5b505afa158015610755573d6000803e3d6000fd5b505050506040513d601f19601f8201168201806040525081019061077991906120a2565b905083828151811061079b57634e487b7160e01b600052603260045260246000fd5b60200260200101516001600160a01b0316632e17de78826040518263ffffffff1660e01b81526004016107d091815260200190565b600060405180830381600087803b1580156107ea57600080fd5b505af11580156107fe573d6000803e3d6000fd5b50505050808361080e9190612276565b9250505b8061081c8161228d565b915050610594565b5080156108735760405162461bcd60e51b815260206004820152601b60248201527f5969656c64466163746f72793a3a756e7374616b653a206661696c0000000000604482015260640161056a565b505050565b610881826104da565b61088b8133611c05565b6108738383611c69565b6001600160a01b03811633146109055760405162461bcd60e51b815260206004820152602f60248201527f416363657373436f6e74726f6c3a2063616e206f6e6c792072656e6f756e636560448201526e103937b632b9903337b91039b2b63360891b606482015260840161056a565b61090f8282611cd4565b5050565b6109256430b236b4b760d91b33611c05565b600061092f611075565b9050600081600183516109429190612276565b8151811061096057634e487b7160e01b600052603260045260246000fd5b60209081029190910101516006546040516323b872dd60e01b8152336004820152306024820152604481018690529192506001600160a01b0316906323b872dd90606401602060405180830381600087803b1580156109be57600080fd5b505af11580156109d2573d6000803e3d6000fd5b505050506040513d601f19601f820116820180604052508101906109f6919061203f565b5060065460405163095ea7b360e01b81526001600160a01b038381166004830152602482018690529091169063095ea7b390604401602060405180830381600087803b158015610a4557600080fd5b505af1158015610a59573d6000803e3d6000fd5b505050506040513d601f19601f82011682018060405250810190610a7d919061203f565b50604051633668046360e01b8152600481018490526001600160a01b03821690633668046390602401600060405180830381600087803b158015610ac057600080fd5b505af1158015610ad4573d6000803e3d6000fd5b5050505082600354610ae6919061221f565b600355505050565b610b006430b236b4b760d91b33611c05565b6000610b0a611075565b905060008160018351610b1d9190612276565b81518110610b3b57634e487b7160e01b600052603260045260246000fd5b60200260200101519050806001600160a01b0316633a4b66f1346040518263ffffffff1660e01b81526004016000604051808303818588803b158015610b8057600080fd5b505af1158015610b94573d6000803e3d6000fd5b505050505034600354610ba7919061221f565b6003555050565b60025460ff16610bf75760405162461bcd60e51b815260206004820152601460248201527314185d5cd8589b194e881b9bdd081c185d5cd95960621b604482015260640161056a565b653830bab9b2b960d11b610c0b8133611c05565b6002805460ff191690556040513381527f5db9ee0a495bf2e6ff9c91a7834c1ba4fdd244a5e8aa4e537bd38aeae4b073aa906020015b60405180910390a150565b600054610100900460ff1680610c615750303b155b80610c6f575060005460ff16155b610c8b5760405162461bcd60e51b815260040161056a9061217d565b600054610100900460ff16158015610cad576000805461ffff19166101011790555b610cb5611d3b565b8015610cc7576000805461ff00191690555b50565b6000610cd4611dd2565b905060005b815181101561090f57818181518110610d0257634e487b7160e01b600052603260045260246000fd5b60200260200101516001600160a01b0316634e71d92d6040518163ffffffff1660e01b8152600401600060405180830381600087803b158015610d4457600080fd5b505af1158015610d58573d6000803e3d6000fd5b505050508080610d679061228d565b915050610cd9565b600660009054906101000a90046001600160a01b03166001600160a01b031663dcc9def56040518163ffffffff1660e01b8152600401600060405180830381600087803b158015610dbf57600080fd5b505af1158015610dd3573d6000803e3d6000fd5b505050506000610de1611dd2565b90506000805b8251811015610f76576000838281518110610e1257634e487b7160e01b600052603260045260246000fd5b60200260200101516001600160a01b031663cf712f6f6040518163ffffffff1660e01b8152600401602060405180830381600087803b158015610e5457600080fd5b505af1158015610e68573d6000803e3d6000fd5b505050506040513d601f19601f82011682018060405250810190610e8c91906120a2565b60085485519192506001600160a01b0316906323b872dd90869085908110610ec457634e487b7160e01b600052603260045260246000fd5b60209081029190910101516040516001600160e01b031960e084901b1681526001600160a01b03909116600482015230602482015260448101849052606401602060405180830381600087803b158015610f1d57600080fd5b505af1158015610f31573d6000803e3d6000fd5b505050506040513d601f19601f82011682018060405250810190610f55919061203f565b50610f60818461221f565b9250508080610f6e9061228d565b915050610de7565b50600854600a5460405163095ea7b360e01b81526001600160a01b03918216600482015260248101849052636b6c617960e01b92919091169063095ea7b390604401602060405180830381600087803b158015610fd257600080fd5b505af1158015610fe6573d6000803e3d6000fd5b505050506040513d601f19601f8201168201806040525081019061100a919061203f565b50600a5460405163eae1c14d60e01b815260048101839052602481018490526001600160a01b039091169063eae1c14d90604401600060405180830381600087803b15801561105857600080fd5b505af115801561106c573d6000803e3d6000fd5b50505050505050565b60408051600180825281830190925260609160208083019080368337505060075482519293506001600160a01b0316918391506000906110c557634e487b7160e01b600052603260045260246000fd5b60200260200101906001600160a01b031690816001600160a01b03168152505060005b815181101561134c57600082828151811061111357634e487b7160e01b600052603260045260246000fd5b60200260200101516001600160a01b031663df63c8b66040518163ffffffff1660e01b815260040160206040518083038186803b15801561115357600080fd5b505afa158015611167573d6000803e3d6000fd5b505050506040513d601f19601f8201168201806040525081019061118b91906120a2565b9050600061119a83600161221f565b90505b83518110156113375760008482815181106111c857634e487b7160e01b600052603260045260246000fd5b60200260200101516001600160a01b031663df63c8b66040518163ffffffff1660e01b815260040160206040518083038186803b15801561120857600080fd5b505afa15801561121c573d6000803e3d6000fd5b505050506040513d601f19601f8201168201806040525081019061124091906120a2565b90508083111561132457809250600085838151811061126f57634e487b7160e01b600052603260045260246000fd5b6020026020010151905085858151811061129957634e487b7160e01b600052603260045260246000fd5b60200260200101518684815181106112c157634e487b7160e01b600052603260045260246000fd5b60200260200101906001600160a01b031690816001600160a01b0316815250508086868151811061130257634e487b7160e01b600052603260045260246000fd5b60200260200101906001600160a01b031690816001600160a01b031681525050505b508061132f8161228d565b91505061119d565b505080806113449061228d565b9150506110e8565b5090565b6113626430b236b4b760d91b33611c05565b8060035410156113845760405162461bcd60e51b815260040161056a9061212a565b600061138e611075565b90506000805b82518110156115c3576000600354858584815181106113c357634e487b7160e01b600052603260045260246000fd5b60200260200101516001600160a01b031663817b1cd26040518163ffffffff1660e01b815260040160206040518083038186803b15801561140357600080fd5b505afa158015611417573d6000803e3d6000fd5b505050506040513d601f19601f8201168201806040525081019061143b91906120a2565b6114459190612257565b61144f9190612237565b90508061145c57506115b1565b83828151811061147c57634e487b7160e01b600052603260045260246000fd5b60200260200101516001600160a01b031663817b1cd26040518163ffffffff1660e01b815260040160206040518083038186803b1580156114bc57600080fd5b505afa1580156114d0573d6000803e3d6000fd5b505050506040513d601f19601f820116820180604052508101906114f491906120a2565b8111156115135760405162461bcd60e51b815260040161056a9061212a565b83828151811061153357634e487b7160e01b600052603260045260246000fd5b6020908102919091010151604051639cbaca3b60e01b81526001600160a01b0388811660048301526024820184905290911690639cbaca3b90604401600060405180830381600087803b15801561158957600080fd5b505af115801561159d573d6000803e3d6000fd5b5050505080836115ad919061221f565b9250505b806115bb8161228d565b915050611394565b50806003546115d29190612276565b60035550505050565b60025460ff16156116215760405162461bcd60e51b815260206004820152601060248201526f14185d5cd8589b194e881c185d5cd95960821b604482015260640161056a565b653830bab9b2b960d11b6116358133611c05565b6002805460ff191660011790556040513381527f62e78cea01bee320cd4e420270b5ea74000d11b0c9f74754ebdbfc544b05a25890602001610c41565b60009182526001602090815260408084206001600160a01b0393909316845291905290205460ff1690565b6116af6430b236b4b760d91b33611c05565b8060035410156116d15760405162461bcd60e51b815260040161056a906121cb565b60006116db611075565b90506000805b82518110156115c35760006003548585848151811061171057634e487b7160e01b600052603260045260246000fd5b60200260200101516001600160a01b031663817b1cd26040518163ffffffff1660e01b815260040160206040518083038186803b15801561175057600080fd5b505afa158015611764573d6000803e3d6000fd5b505050506040513d601f19601f8201168201806040525081019061178891906120a2565b6117929190612257565b61179c9190612237565b9050806117a957506118fe565b8382815181106117c957634e487b7160e01b600052603260045260246000fd5b60200260200101516001600160a01b031663817b1cd26040518163ffffffff1660e01b815260040160206040518083038186803b15801561180957600080fd5b505afa15801561181d573d6000803e3d6000fd5b505050506040513d601f19601f8201168201806040525081019061184191906120a2565b8111156118605760405162461bcd60e51b815260040161056a906121cb565b83828151811061188057634e487b7160e01b600052603260045260246000fd5b602090810291909101015160405163083965f560e11b81526001600160a01b0388811660048301526024820184905290911690631072cbea90604401600060405180830381600087803b1580156118d657600080fd5b505af11580156118ea573d6000803e3d6000fd5b5050505080836118fa919061221f565b9250505b806119088161228d565b9150506116e1565b6119226430b236b4b760d91b33611c05565b60025460ff16156119685760405162461bcd60e51b815260206004820152601060248201526f14185d5cd8589b194e881c185d5cd95960821b604482015260640161056a565b8164616b6c617960d81b141561199857600680546001600160a01b0319166001600160a01b03831617905561090f565b8169185adb185e565a595b1960b21b14156119cd57600780546001600160a01b0319166001600160a01b03831617905561090f565b81621adcd960ea1b14156119fb57600880546001600160a01b0319166001600160a01b03831617905561090f565b816f35b9b22932bbb0b93226b0b730b3b2b960811b1415611a3657600980546001600160a01b0319166001600160a01b03831617905561090f565b816b3cb4b2b63226b0b730b3b2b960a11b1415611a6d57600a80546001600160a01b0319166001600160a01b03831617905561090f565b60405162461bcd60e51b815260206004820152602860248201527f5969656c64466163746f72793a3a636f6e6669673a20756e7265636f676e697a60448201526765642d706172616d60c01b606482015260840161056a565b611acf826104da565b611ad98133611c05565b6108738383611cd4565b60008080611aef611dd2565b905060005b8151811015611bc957600080838381518110611b2057634e487b7160e01b600052603260045260246000fd5b60200260200101516001600160a01b031663e20ccec36040518163ffffffff1660e01b8152600401604080518083038186803b158015611b5f57600080fd5b505afa158015611b73573d6000803e3d6000fd5b505050506040513d601f19601f82011682018060405250810190611b9791906120ba565b9092509050611ba6828761221f565b9550611bb2818661221f565b945050508080611bc19061228d565b915050611af4565b50509091565b611be16437bbb732b960d91b33611c05565b611bf36437bbb732b960d91b82611c69565b610cc76437bbb732b960d91b33611cd4565b611c0f8282611672565b61090f5760405162461bcd60e51b815260206004820152602560248201527f416363657373436f6e74726f6c3a5f636865636b526f6c653a696e76616c696460448201526420726f6c6560d81b606482015260840161056a565b611c738282611672565b61090f5760008281526001602081815260408084206001600160a01b0386168086529252808420805460ff19169093179092559051339285917f2f8788117e7eff1d82e926ec794901d17c78024a50270940304540a733656f0d9190a45050565b611cde8282611672565b1561090f5760008281526001602090815260408083206001600160a01b0385168085529252808320805460ff1916905551339285917ff6391f5c32d9c69d2a47ea670b442974b53935d1edc7fd64eb21e047a839171b9190a45050565b600054610100900460ff1680611d505750303b155b80611d5e575060005460ff16155b611d7a5760405162461bcd60e51b815260040161056a9061217d565b600054610100900460ff16158015611d9c576000805461ffff19166101011790555b611da4611e45565b611dbf653830bab9b2b960d11b6437bbb732b960d91b611eae565b610cb5653830bab9b2b960d11b33611f03565b60408051600180825281830190925260609160208083019080368337505060075482519293506001600160a01b031691839150600090611e2257634e487b7160e01b600052603260045260246000fd5b60200260200101906001600160a01b031690816001600160a01b03168152505090565b600054610100900460ff1680611e5a5750303b155b80611e68575060005460ff16155b611e845760405162461bcd60e51b815260040161056a9061217d565b600054610100900460ff16158015611ea6576000805461ffff19166101011790555b610cb5611f0d565b6000611eb9836104da565b6000848152600160208190526040808320909101859055519192508391839186917fbd79b86ffe0ab8e8776151514217cd7cacd52c909f66475c3af44e129f0b00ff9190a4505050565b61090f8282611c69565b600054610100900460ff1680611f225750303b155b80611f30575060005460ff16155b611f4c5760405162461bcd60e51b815260040161056a9061217d565b600054610100900460ff16158015611f6e576000805461ffff19166101011790555b611f806437bbb732b960d91b33611f03565b611f9a6430b236b4b760d91b6437bbb732b960d91b611eae565b611fb76737b832b930ba37b960c11b6437bbb732b960d91b611eae565b611fc96430b236b4b760d91b33611f03565b610cb56737b832b930ba37b960c11b33611f03565b80356001600160a01b03811681146104ee57600080fd5b600060208284031215612006578081fd5b61200f82611fde565b9392505050565b60008060408385031215612028578081fd5b61203183611fde565b946020939093013593505050565b600060208284031215612050578081fd5b8151801515811461200f578182fd5b600060208284031215612070578081fd5b5035919050565b60008060408385031215612089578182fd5b8235915061209960208401611fde565b90509250929050565b6000602082840312156120b3578081fd5b5051919050565b600080604083850312156120cc578182fd5b505080516020909101519092909150565b6020808252825182820181905260009190848201906040850190845b8181101561211e5783516001600160a01b0316835292840192918401916001016120f9565b50909695505050505050565b60208082526033908201527f5969656c64466163746f72793a3a77697468647261774b6c61793a696e76616c6040820152721a59081d5b9cdd185ada5b99c8185b5bdd5b9d606a1b606082015260800190565b6020808252602e908201527f496e697469616c697a61626c653a20636f6e747261637420697320616c72656160408201526d191e481a5b9a5d1a585b1a5e995960921b606082015260800190565b60208082526034908201527f5969656c64466163746f72793a3a7769746864726177546f6b656e3a696e76616040820152731b1a59081d5b9cdd185ada5b99c8185b5bdd5b9d60621b606082015260800190565b60008219821115612232576122326122a8565b500190565b60008261225257634e487b7160e01b81526012600452602481fd5b500490565b6000816000190483118215151615612271576122716122a8565b500290565b600082821015612288576122886122a8565b500390565b60006000198214156122a1576122a16122a8565b5060010190565b634e487b7160e01b600052601160045260246000fdfea264697066735822122032b7eb08f89480bf102814bf91c45d78d1d9f4784b764e50904cbbe525a0cbb264736f6c63430008030033",
  "devdoc": {
    "details": "Independent strategies are called yield.",
    "kind": "dev",
    "methods": {
      "stake()": {
        "details": "payable."
      },
      "unstake(uint256)": {
        "details": "If the klay to unstake is insufficient for the yield, unstake from another yield.",
        "params": {
          "amount": "Amount of unstake klay for unstaking."
        }
      },
      "withdrawKlay(address,uint256)": {
        "details": " yield      ",
        "params": {
          "amount": "Amount of bklay to unstake(burn).",
          "to": "receiver."
        }
      },
      "withdrawToken(address,uint256)": {
        "details": " yield      ",
        "params": {
          "amount": "Amount of bklay to unstake(burn).",
          "to": "receiver."
        }
      }
    },
    "title": "Management of strategies to operate the deposited klay.",
    "version": 1
  },
  "userdoc": {
    "kind": "user",
    "methods": {
      "applyProfitAll()": {
        "notice": "In all yields, call claimReward function."
      },
      "claim()": {
        "notice": "Claim on every yield."
      },
      "pending()": {
        "notice": "Claim on every yield."
      },
      "stake()": {
        "notice": "Add klay to staking yield."
      },
      "stakeAKlay(uint256)": {
        "notice": "Add Token to staking yield. (klay, aklay, ...)"
      },
      "unstake(uint256)": {
        "notice": "Remove klay from unstaking yield."
      },
      "withdrawKlay(address,uint256)": {
        "notice": "yieldFactory aKLAY   klay     "
      },
      "withdrawToken(address,uint256)": {
        "notice": "yieldFactory aKLAY      "
      }
    },
    "notice": "Each strategy can stake klay.",
    "version": 1
  },
  "storageLayout": {
    "storage": [
      {
        "astId": 25502,
        "contract": "contracts/yield/KlayYieldFactory.sol:KlayYieldFactory",
        "label": "_initialized",
        "offset": 0,
        "slot": "0",
        "type": "t_bool"
      },
      {
        "astId": 25505,
        "contract": "contracts/yield/KlayYieldFactory.sol:KlayYieldFactory",
        "label": "_initializing",
        "offset": 1,
        "slot": "0",
        "type": "t_bool"
      },
      {
        "astId": 22448,
        "contract": "contracts/yield/KlayYieldFactory.sol:KlayYieldFactory",
        "label": "_roles",
        "offset": 0,
        "slot": "1",
        "type": "t_mapping(t_bytes32,t_struct(RoleData)22443_storage)"
      },
      {
        "astId": 22838,
        "contract": "contracts/yield/KlayYieldFactory.sol:KlayYieldFactory",
        "label": "_paused",
        "offset": 0,
        "slot": "2",
        "type": "t_bool"
      },
      {
        "astId": 43768,
        "contract": "contracts/yield/KlayYieldFactory.sol:KlayYieldFactory",
        "label": "totalStaked",
        "offset": 0,
        "slot": "3",
        "type": "t_uint256"
      },
      {
        "astId": 43772,
        "contract": "contracts/yield/KlayYieldFactory.sol:KlayYieldFactory",
        "label": "__legacy1",
        "offset": 0,
        "slot": "4",
        "type": "t_mapping(t_address,t_bool)"
      },
      {
        "astId": 43775,
        "contract": "contracts/yield/KlayYieldFactory.sol:KlayYieldFactory",
        "label": "__legacy2",
        "offset": 0,
        "slot": "5",
        "type": "t_array(t_address)dyn_storage"
      },
      {
        "astId": 43778,
        "contract": "contracts/yield/KlayYieldFactory.sol:KlayYieldFactory",
        "label": "aklay",
        "offset": 0,
        "slot": "6",
        "type": "t_contract(IKIP7)10487"
      },
      {
        "astId": 43781,
        "contract": "contracts/yield/KlayYieldFactory.sol:KlayYieldFactory",
        "label": "aklayYield",
        "offset": 0,
        "slot": "7",
        "type": "t_contract(IAKlayYield)7257"
      },
      {
        "astId": 43784,
        "contract": "contracts/yield/KlayYieldFactory.sol:KlayYieldFactory",
        "label": "ksd",
        "offset": 0,
        "slot": "8",
        "type": "t_contract(IKIP7)10487"
      },
      {
        "astId": 43787,
        "contract": "contracts/yield/KlayYieldFactory.sol:KlayYieldFactory",
        "label": "ksdRewardManager",
        "offset": 0,
        "slot": "9",
        "type": "t_contract(IDistributor)7904"
      },
      {
        "astId": 43790,
        "contract": "contracts/yield/KlayYieldFactory.sol:KlayYieldFactory",
        "label": "yieldManager",
        "offset": 0,
        "slot": "10",
        "type": "t_contract(IYieldManager)10334"
      }
    ],
    "types": {
      "t_address": {
        "encoding": "inplace",
        "label": "address",
        "numberOfBytes": "20"
      },
      "t_array(t_address)dyn_storage": {
        "base": "t_address",
        "encoding": "dynamic_array",
        "label": "address[]",
        "numberOfBytes": "32"
      },
      "t_bool": {
        "encoding": "inplace",
        "label": "bool",
        "numberOfBytes": "1"
      },
      "t_bytes32": {
        "encoding": "inplace",
        "label": "bytes32",
        "numberOfBytes": "32"
      },
      "t_contract(IAKlayYield)7257": {
        "encoding": "inplace",
        "label": "contract IAKlayYield",
        "numberOfBytes": "20"
      },
      "t_contract(IDistributor)7904": {
        "encoding": "inplace",
        "label": "contract IDistributor",
        "numberOfBytes": "20"
      },
      "t_contract(IKIP7)10487": {
        "encoding": "inplace",
        "label": "contract IKIP7",
        "numberOfBytes": "20"
      },
      "t_contract(IYieldManager)10334": {
        "encoding": "inplace",
        "label": "contract IYieldManager",
        "numberOfBytes": "20"
      },
      "t_mapping(t_address,t_bool)": {
        "encoding": "mapping",
        "key": "t_address",
        "label": "mapping(address => bool)",
        "numberOfBytes": "32",
        "value": "t_bool"
      },
      "t_mapping(t_bytes32,t_struct(RoleData)22443_storage)": {
        "encoding": "mapping",
        "key": "t_bytes32",
        "label": "mapping(bytes32 => struct AccessControl.RoleData)",
        "numberOfBytes": "32",
        "value": "t_struct(RoleData)22443_storage"
      },
      "t_struct(RoleData)22443_storage": {
        "encoding": "inplace",
        "label": "struct AccessControl.RoleData",
        "members": [
          {
            "astId": 22440,
            "contract": "contracts/yield/KlayYieldFactory.sol:KlayYieldFactory",
            "label": "members",
            "offset": 0,
            "slot": "0",
            "type": "t_mapping(t_address,t_bool)"
          },
          {
            "astId": 22442,
            "contract": "contracts/yield/KlayYieldFactory.sol:KlayYieldFactory",
            "label": "adminRole",
            "offset": 0,
            "slot": "1",
            "type": "t_bytes32"
          }
        ],
        "numberOfBytes": "64"
      },
      "t_uint256": {
        "encoding": "inplace",
        "label": "uint256",
        "numberOfBytes": "32"
      }
    }
  }
}