{
  "address": "0x642D0e87d820dBb1D605cE8770C7EE58c90b0B5B",
  "abi": [
    {
      "anonymous": false,
      "inputs": [
        {
          "indexed": true,
          "internalType": "address",
          "name": "pool",
          "type": "address"
        },
        {
          "indexed": true,
          "internalType": "address",
          "name": "user",
          "type": "address"
        },
        {
          "indexed": false,
          "internalType": "uint256",
          "name": "amount",
          "type": "uint256"
        }
      ],
      "name": "ClaimReward",
      "type": "event"
    },
    {
      "anonymous": false,
      "inputs": [
        {
          "indexed": true,
          "internalType": "address",
          "name": "pool",
          "type": "address"
        },
        {
          "indexed": false,
          "internalType": "uint256",
          "name": "amount",
          "type": "uint256"
        },
        {
          "indexed": true,
          "internalType": "address",
          "name": "to",
          "type": "address"
        }
      ],
      "name": "Deposit",
      "type": "event"
    },
    {
      "anonymous": false,
      "inputs": [],
      "name": "LogInit",
      "type": "event"
    },
    {
      "anonymous": false,
      "inputs": [
        {
          "indexed": true,
          "internalType": "uint256",
          "name": "pid",
          "type": "uint256"
        },
        {
          "indexed": false,
          "internalType": "uint256",
          "name": "allocPoint",
          "type": "uint256"
        },
        {
          "indexed": true,
          "internalType": "address",
          "name": "lpToken",
          "type": "address"
        },
        {
          "indexed": false,
          "internalType": "uint256",
          "name": "fee",
          "type": "uint256"
        }
      ],
      "name": "LogPoolAddition",
      "type": "event"
    },
    {
      "anonymous": false,
      "inputs": [
        {
          "indexed": true,
          "internalType": "address",
          "name": "pool",
          "type": "address"
        },
        {
          "indexed": false,
          "internalType": "uint256",
          "name": "allocPoint",
          "type": "uint256"
        },
        {
          "indexed": false,
          "internalType": "uint256",
          "name": "fee",
          "type": "uint256"
        }
      ],
      "name": "LogSetPool",
      "type": "event"
    },
    {
      "anonymous": false,
      "inputs": [
        {
          "indexed": true,
          "internalType": "address",
          "name": "pool",
          "type": "address"
        },
        {
          "indexed": false,
          "internalType": "uint256",
          "name": "lastRewardTimestamp",
          "type": "uint256"
        },
        {
          "indexed": false,
          "internalType": "uint256",
          "name": "lpSupply",
          "type": "uint256"
        },
        {
          "indexed": false,
          "internalType": "uint256",
          "name": "accRewardPerShare",
          "type": "uint256"
        }
      ],
      "name": "LogUpdatePool",
      "type": "event"
    },
    {
      "anonymous": false,
      "inputs": [
        {
          "indexed": false,
          "internalType": "address",
          "name": "account",
          "type": "address"
        }
      ],
      "name": "Paused",
      "type": "event"
    },
    {
      "anonymous": false,
      "inputs": [
        {
          "indexed": true,
          "internalType": "bytes32",
          "name": "role",
          "type": "bytes32"
        },
        {
          "indexed": true,
          "internalType": "bytes32",
          "name": "previousAdminRole",
          "type": "bytes32"
        },
        {
          "indexed": true,
          "internalType": "bytes32",
          "name": "newAdminRole",
          "type": "bytes32"
        }
      ],
      "name": "RoleAdminChanged",
      "type": "event"
    },
    {
      "anonymous": false,
      "inputs": [
        {
          "indexed": true,
          "internalType": "bytes32",
          "name": "role",
          "type": "bytes32"
        },
        {
          "indexed": true,
          "internalType": "address",
          "name": "account",
          "type": "address"
        },
        {
          "indexed": true,
          "internalType": "address",
          "name": "sender",
          "type": "address"
        }
      ],
      "name": "RoleGranted",
      "type": "event"
    },
    {
      "anonymous": false,
      "inputs": [
        {
          "indexed": true,
          "internalType": "bytes32",
          "name": "role",
          "type": "bytes32"
        },
        {
          "indexed": true,
          "internalType": "address",
          "name": "account",
          "type": "address"
        },
        {
          "indexed": true,
          "internalType": "address",
          "name": "sender",
          "type": "address"
        }
      ],
      "name": "RoleRevoked",
      "type": "event"
    },
    {
      "anonymous": false,
      "inputs": [
        {
          "indexed": false,
          "internalType": "address",
          "name": "account",
          "type": "address"
        }
      ],
      "name": "Unpaused",
      "type": "event"
    },
    {
      "anonymous": false,
      "inputs": [
        {
          "indexed": true,
          "internalType": "address",
          "name": "pool",
          "type": "address"
        },
        {
          "indexed": false,
          "internalType": "uint256",
          "name": "amount",
          "type": "uint256"
        },
        {
          "indexed": true,
          "internalType": "address",
          "name": "to",
          "type": "address"
        }
      ],
      "name": "Withdraw",
      "type": "event"
    },
    {
      "inputs": [],
      "name": "DEFAULT_ADMIN_ROLE",
      "outputs": [
        {
          "internalType": "bytes32",
          "name": "",
          "type": "bytes32"
        }
      ],
      "stateMutability": "view",
      "type": "function"
    },
    {
      "inputs": [
        {
          "internalType": "address",
          "name": "kokoa_",
          "type": "address"
        },
        {
          "internalType": "address",
          "name": "rewardTokenVesting_",
          "type": "address"
        }
      ],
      "name": "__KokoaRewardManager_init",
      "outputs": [],
      "stateMutability": "nonpayable",
      "type": "function"
    },
    {
      "inputs": [],
      "name": "accRewardPrecision",
      "outputs": [
        {
          "internalType": "uint256",
          "name": "",
          "type": "uint256"
        }
      ],
      "stateMutability": "pure",
      "type": "function"
    },
    {
      "inputs": [
        {
          "internalType": "uint256",
          "name": "allocPoint",
          "type": "uint256"
        },
        {
          "internalType": "address",
          "name": "pool",
          "type": "address"
        },
        {
          "internalType": "uint256",
          "name": "fee",
          "type": "uint256"
        }
      ],
      "name": "add",
      "outputs": [],
      "stateMutability": "nonpayable",
      "type": "function"
    },
    {
      "inputs": [
        {
          "internalType": "address",
          "name": "pool",
          "type": "address"
        },
        {
          "internalType": "address",
          "name": "to",
          "type": "address"
        }
      ],
      "name": "claimReward",
      "outputs": [
        {
          "internalType": "bool",
          "name": "success",
          "type": "bool"
        }
      ],
      "stateMutability": "nonpayable",
      "type": "function"
    },
    {
      "inputs": [],
      "name": "claimRewardAll",
      "outputs": [
        {
          "internalType": "bool",
          "name": "success",
          "type": "bool"
        }
      ],
      "stateMutability": "nonpayable",
      "type": "function"
    },
    {
      "inputs": [
        {
          "internalType": "address",
          "name": "usr",
          "type": "address"
        }
      ],
      "name": "claimRewardAllByOther",
      "outputs": [
        {
          "internalType": "bool",
          "name": "success",
          "type": "bool"
        }
      ],
      "stateMutability": "nonpayable",
      "type": "function"
    },
    {
      "inputs": [
        {
          "internalType": "address",
          "name": "pool",
          "type": "address"
        }
      ],
      "name": "claimRewardAndStake",
      "outputs": [
        {
          "internalType": "bool",
          "name": "success",
          "type": "bool"
        }
      ],
      "stateMutability": "nonpayable",
      "type": "function"
    },
    {
      "inputs": [],
      "name": "claimRewardAndStakeAll",
      "outputs": [
        {
          "internalType": "bool",
          "name": "success",
          "type": "bool"
        }
      ],
      "stateMutability": "nonpayable",
      "type": "function"
    },
    {
      "inputs": [
        {
          "internalType": "address",
          "name": "pool",
          "type": "address"
        },
        {
          "internalType": "address",
          "name": "usr",
          "type": "address"
        }
      ],
      "name": "claimRewardAndStakeByOther",
      "outputs": [
        {
          "internalType": "bool",
          "name": "success",
          "type": "bool"
        }
      ],
      "stateMutability": "nonpayable",
      "type": "function"
    },
    {
      "inputs": [
        {
          "internalType": "address",
          "name": "pool",
          "type": "address"
        },
        {
          "internalType": "address",
          "name": "usr",
          "type": "address"
        }
      ],
      "name": "claimRewardByOther",
      "outputs": [
        {
          "internalType": "bool",
          "name": "success",
          "type": "bool"
        }
      ],
      "stateMutability": "nonpayable",
      "type": "function"
    },
    {
      "inputs": [
        {
          "internalType": "address",
          "name": "pool",
          "type": "address"
        },
        {
          "internalType": "address",
          "name": "usr",
          "type": "address"
        },
        {
          "internalType": "bool",
          "name": "bonus",
          "type": "bool"
        }
      ],
      "name": "claimableReward",
      "outputs": [
        {
          "internalType": "uint256",
          "name": "claimable",
          "type": "uint256"
        }
      ],
      "stateMutability": "view",
      "type": "function"
    },
    {
      "inputs": [
        {
          "internalType": "bytes32",
          "name": "what",
          "type": "bytes32"
        },
        {
          "internalType": "address",
          "name": "data",
          "type": "address"
        }
      ],
      "name": "config",
      "outputs": [],
      "stateMutability": "nonpayable",
      "type": "function"
    },
    {
      "inputs": [
        {
          "internalType": "bytes32",
          "name": "role",
          "type": "bytes32"
        }
      ],
      "name": "getRoleAdmin",
      "outputs": [
        {
          "internalType": "bytes32",
          "name": "",
          "type": "bytes32"
        }
      ],
      "stateMutability": "view",
      "type": "function"
    },
    {
      "inputs": [
        {
          "internalType": "bytes32",
          "name": "role",
          "type": "bytes32"
        },
        {
          "internalType": "address",
          "name": "account",
          "type": "address"
        }
      ],
      "name": "grantRole",
      "outputs": [],
      "stateMutability": "nonpayable",
      "type": "function"
    },
    {
      "inputs": [
        {
          "internalType": "bytes32",
          "name": "role",
          "type": "bytes32"
        },
        {
          "internalType": "address",
          "name": "account",
          "type": "address"
        }
      ],
      "name": "hasRole",
      "outputs": [
        {
          "internalType": "bool",
          "name": "",
          "type": "bool"
        }
      ],
      "stateMutability": "view",
      "type": "function"
    },
    {
      "inputs": [],
      "name": "incinerator",
      "outputs": [
        {
          "internalType": "address",
          "name": "",
          "type": "address"
        }
      ],
      "stateMutability": "view",
      "type": "function"
    },
    {
      "inputs": [],
      "name": "kokoa",
      "outputs": [
        {
          "internalType": "contract IKIP7",
          "name": "",
          "type": "address"
        }
      ],
      "stateMutability": "view",
      "type": "function"
    },
    {
      "inputs": [
        {
          "internalType": "address[]",
          "name": "pools",
          "type": "address[]"
        }
      ],
      "name": "massUpdatePools",
      "outputs": [],
      "stateMutability": "nonpayable",
      "type": "function"
    },
    {
      "inputs": [
        {
          "internalType": "int256",
          "name": "amount",
          "type": "int256"
        },
        {
          "internalType": "address",
          "name": "to",
          "type": "address"
        }
      ],
      "name": "onChanged",
      "outputs": [],
      "stateMutability": "nonpayable",
      "type": "function"
    },
    {
      "inputs": [
        {
          "internalType": "uint256",
          "name": "amount",
          "type": "uint256"
        },
        {
          "internalType": "address",
          "name": "to",
          "type": "address"
        }
      ],
      "name": "onDeposit",
      "outputs": [],
      "stateMutability": "nonpayable",
      "type": "function"
    },
    {
      "inputs": [
        {
          "internalType": "uint256",
          "name": "amount",
          "type": "uint256"
        },
        {
          "internalType": "address",
          "name": "to",
          "type": "address"
        }
      ],
      "name": "onWithdraw",
      "outputs": [],
      "stateMutability": "nonpayable",
      "type": "function"
    },
    {
      "inputs": [],
      "name": "pause",
      "outputs": [],
      "stateMutability": "nonpayable",
      "type": "function"
    },
    {
      "inputs": [],
      "name": "paused",
      "outputs": [
        {
          "internalType": "bool",
          "name": "",
          "type": "bool"
        }
      ],
      "stateMutability": "view",
      "type": "function"
    },
    {
      "inputs": [
        {
          "internalType": "address",
          "name": "",
          "type": "address"
        }
      ],
      "name": "poolInfo",
      "outputs": [
        {
          "internalType": "uint256",
          "name": "accRewardPerShare",
          "type": "uint256"
        },
        {
          "internalType": "uint256",
          "name": "lastRewardTimestamp",
          "type": "uint256"
        },
        {
          "internalType": "uint256",
          "name": "allocPoint",
          "type": "uint256"
        },
        {
          "internalType": "bool",
          "name": "init",
          "type": "bool"
        },
        {
          "internalType": "uint256",
          "name": "fee",
          "type": "uint256"
        }
      ],
      "stateMutability": "view",
      "type": "function"
    },
    {
      "inputs": [],
      "name": "poolLength",
      "outputs": [
        {
          "internalType": "uint256",
          "name": "",
          "type": "uint256"
        }
      ],
      "stateMutability": "view",
      "type": "function"
    },
    {
      "inputs": [],
      "name": "pop",
      "outputs": [],
      "stateMutability": "nonpayable",
      "type": "function"
    },
    {
      "inputs": [
        {
          "internalType": "bytes32",
          "name": "role",
          "type": "bytes32"
        },
        {
          "internalType": "address",
          "name": "account",
          "type": "address"
        }
      ],
      "name": "renounceRole",
      "outputs": [],
      "stateMutability": "nonpayable",
      "type": "function"
    },
    {
      "inputs": [
        {
          "internalType": "bytes32",
          "name": "role",
          "type": "bytes32"
        },
        {
          "internalType": "address",
          "name": "account",
          "type": "address"
        }
      ],
      "name": "revokeRole",
      "outputs": [],
      "stateMutability": "nonpayable",
      "type": "function"
    },
    {
      "inputs": [
        {
          "internalType": "uint256",
          "name": "",
          "type": "uint256"
        }
      ],
      "name": "rewardPool",
      "outputs": [
        {
          "internalType": "contract IRewardPool",
          "name": "",
          "type": "address"
        }
      ],
      "stateMutability": "view",
      "type": "function"
    },
    {
      "inputs": [],
      "name": "rewardPools",
      "outputs": [
        {
          "internalType": "address[]",
          "name": "pools",
          "type": "address[]"
        }
      ],
      "stateMutability": "view",
      "type": "function"
    },
    {
      "inputs": [],
      "name": "rewardTokenVesting",
      "outputs": [
        {
          "internalType": "contract ITokenVesting",
          "name": "",
          "type": "address"
        }
      ],
      "stateMutability": "view",
      "type": "function"
    },
    {
      "inputs": [
        {
          "internalType": "address",
          "name": "pool",
          "type": "address"
        },
        {
          "internalType": "uint256",
          "name": "allocPoint",
          "type": "uint256"
        },
        {
          "internalType": "uint256",
          "name": "fee",
          "type": "uint256"
        }
      ],
      "name": "set",
      "outputs": [],
      "stateMutability": "nonpayable",
      "type": "function"
    },
    {
      "inputs": [],
      "name": "skokoa",
      "outputs": [
        {
          "internalType": "contract IStakingPool",
          "name": "",
          "type": "address"
        }
      ],
      "stateMutability": "view",
      "type": "function"
    },
    {
      "inputs": [],
      "name": "totalAllocPoint",
      "outputs": [
        {
          "internalType": "uint256",
          "name": "",
          "type": "uint256"
        }
      ],
      "stateMutability": "view",
      "type": "function"
    },
    {
      "inputs": [
        {
          "internalType": "address",
          "name": "newOwner",
          "type": "address"
        }
      ],
      "name": "transferOwnership",
      "outputs": [],
      "stateMutability": "nonpayable",
      "type": "function"
    },
    {
      "inputs": [],
      "name": "unpause",
      "outputs": [],
      "stateMutability": "nonpayable",
      "type": "function"
    },
    {
      "inputs": [
        {
          "internalType": "address",
          "name": "pool",
          "type": "address"
        }
      ],
      "name": "updatePool",
      "outputs": [],
      "stateMutability": "nonpayable",
      "type": "function"
    },
    {
      "inputs": [
        {
          "internalType": "address",
          "name": "",
          "type": "address"
        },
        {
          "internalType": "address",
          "name": "",
          "type": "address"
        }
      ],
      "name": "userInfo",
      "outputs": [
        {
          "internalType": "int256",
          "name": "rewardDebt",
          "type": "int256"
        },
        {
          "internalType": "uint256",
          "name": "claimedReward",
          "type": "uint256"
        }
      ],
      "stateMutability": "view",
      "type": "function"
    },
    {
      "inputs": [],
      "name": "version",
      "outputs": [
        {
          "internalType": "uint256",
          "name": "",
          "type": "uint256"
        }
      ],
      "stateMutability": "view",
      "type": "function"
    }
  ],
  "transactionHash": "0xa32d6768ee63939f2078568eedb3c313227697a030d1411091ffc1e5923ccc98",
  "args": [],
  "solcInputHash": "2970c11c048d41724b49e0b344470d88",
  "bytecode": "0x608060405234801561001057600080fd5b50612eec806100206000396000f3fe608060405234801561001057600080fd5b50600436106102485760003560e01c80638456cb591161013b578063b9955e39116100b8578063eaa648d91161007c578063eaa648d914610541578063f2fde38b14610554578063f3759d5c14610567578063f71db5431461057a578063f80a5fd21461058f57610248565b8063b9955e39146104e2578063bea679ac146104f5578063c3554aef14610508578063d366f3b91461051b578063d547741f1461052e57610248565b8063a217fddf116100ff578063a217fddf14610499578063a3333309146104a1578063a4ece52c146104b4578063a80c3c58146104bc578063b1f0657f146104cf57610248565b80638456cb59146103f55780638d608833146103fd57806391d14854146104055780639a7b5f11146104185780639c0ca5291461048657610248565b80634953c782116101c95780636abaa9081161018d5780636abaa908146103995780636e0a6bba146103b15780637706c4ba146103bc5780637b46c54f146103cf5780638308d7e9146103e257610248565b80634953c782146103585780634e9a471e1461036b57806354fd4d501461037e5780635c975abb14610386578063637830ca1461039157610248565b80632f2ff15d116102105780632f2ff15d146102f257806336568abe14610307578063387f9c011461031a57806339eaed291461033d5780633f4ba83a1461035057610248565b8063081e3eda1461024d5780630f208beb1461026457806317caf6f1146102ab5780631d44810d146102b4578063248a9ca3146102df575b600080fd5b6005545b6040519081526020015b60405180910390f35b6102966102723660046129f1565b60066020908152600092835260408084209091529082529020805460019091015482565b6040805192835260208301919091520161025b565b61025160075481565b6009546102c7906001600160a01b031681565b6040516001600160a01b03909116815260200161025b565b6102516102ed366004612b27565b6105a2565b610305610300366004612b3f565b6105bb565b005b610305610315366004612b3f565b6105dd565b61032d6103283660046129f1565b610660565b604051901515815260200161025b565b61030561034b366004612a9b565b61070f565b610305610791565b61032d6103663660046129f1565b61082f565b610251610379366004612a23565b6108c2565b610251600181565b60025460ff1661032d565b61032d610c39565b6002546102c79061010090046001600160a01b031681565b64e8d4a51000610251565b6102c76103ca366004612b27565b610d34565b6103056103dd3660046129d0565b610d5e565b6103056103f0366004612a69565b610d8d565b610305610ee1565b61032d610f55565b61032d610413366004612b3f565b611195565b61045c6104263660046129d0565b60046020819052600091825260409091208054600182015460028301546003840154939094015491939092909160ff9091169085565b6040805195865260208601949094529284019190915215156060830152608082015260a00161025b565b610305610494366004612b3f565b6111c0565b610251600081565b6008546102c7906001600160a01b031681565b61030561122b565b61032d6104ca3660046129d0565b611415565b6103056104dd3660046129f1565b611524565b6103056104f0366004612b79565b6115e2565b610305610503366004612b3f565b6117a3565b6003546102c7906001600160a01b031681565b610305610529366004612b3f565b6118d9565b61030561053c366004612b3f565b6119d4565b61032d61054f3660046129d0565b6119f1565b6103056105623660046129d0565b611b5f565b610305610575366004612b3f565b611b95565b610582611cc1565b60405161025b9190612bad565b61032d61059d3660046129f1565b611daf565b600081815260016020819052604090912001545b919050565b6105c4826105a2565b6105ce8133611f32565b6105d88383611f96565b505050565b6001600160a01b03811633146106525760405162461bcd60e51b815260206004820152602f60248201527f416363657373436f6e74726f6c3a2063616e206f6e6c792072656e6f756e636560448201526e103937b632b9903337b91039b2b63360891b60648201526084015b60405180910390fd5b61065c8282612001565b5050565b600061066e60025460ff1690565b1561068b5760405162461bcd60e51b815260040161064990612c57565b61069d6430b236b4b760d91b33611f32565b6001600160a01b038316600090815260046020818152604092839020835160a08101855281548152600182015492810192909252600281015493820193909352600383015460ff16151560608201529101546080820181905261070590859085908190612068565b9150505b92915050565b60025460ff16156107325760405162461bcd60e51b815260040161064990612c57565b8060005b8181101561078b5761077b84848381811061076157634e487b7160e01b600052603260045260246000fd5b905060200201602081019061077691906129d0565b612373565b61078481612e5d565b9050610736565b50505050565b60025460ff166107da5760405162461bcd60e51b815260206004820152601460248201527314185d5cd8589b194e881b9bdd081c185d5cd95960621b6044820152606401610649565b653830bab9b2b960d11b6107ee8133611f32565b6002805460ff191690556040513381527f5db9ee0a495bf2e6ff9c91a7834c1ba4fdd244a5e8aa4e537bd38aeae4b073aa906020015b60405180910390a150565b600061083d60025460ff1690565b1561085a5760405162461bcd60e51b815260040161064990612c57565b6001600160a01b038316600090815260046020818152604092839020835160a08101855281548152600182015492810192909252600281015493820193909352600383015460ff16151560608201529101546080820181905261070590859033908690612068565b60006108d060025460ff1690565b156108ed5760405162461bcd60e51b815260040161064990612c57565b6001600160a01b03841660009081526004602052604090206003015460ff1661097e5760405162461bcd60e51b815260206004820152603c60248201527f4b6f6b6f615265776172644d616e616765723a3a636c61696d61626c6552657760448201527f6172643a20706f6f6c206973206e6f7420696e697469616c697a6564000000006064820152608401610649565b6001600160a01b038085166000818152600460208181526040808420815160a08101835281548152600182015481850152600282015481840152600382015460ff161515606082015290840154608082015285855260068352818520968a168552958252808420865182516318160ddd60e01b81529251919690959490936318160ddd9380830193919290829003018186803b158015610a1d57600080fd5b505afa158015610a31573d6000803e3d6000fd5b505050506040513d601f19601f82011682018060405250810190610a559190612b61565b9050836020015142118015610a6957508015155b15610b4357600354602085015160405163a1ac471760e01b815260048101919091524260248201526000916001600160a01b03169063a1ac47179060440160206040518083038186803b158015610abf57600080fd5b505afa158015610ad3573d6000803e3d6000fd5b505050506040513d601f19601f82011682018060405250810190610af79190612b61565b90506000600754866040015183610b0e9190612de8565b610b189190612dc8565b905082610b2a64e8d4a5100083612de8565b610b349190612dc8565b610b3e9085612db0565b935050505b6040516370a0823160e01b81526001600160a01b038881166004830152600091908a16906370a082319060240160206040518083038186803b158015610b8857600080fd5b505afa158015610b9c573d6000803e3d6000fd5b505050506040513d601f19601f82011682018060405250810190610bc09190612b61565b8454909150610bfa90610beb64e8d4a51000610bdc8786612de8565b610be69190612dc8565b6126b9565b610bf59190612e07565b612723565b955086610c2d576127108560800151612710610c169190612e46565b610c209088612de8565b610c2a9190612dc8565b95505b50505050509392505050565b6000610c4760025460ff1690565b15610c645760405162461bcd60e51b815260040161064990612c57565b50600160005b600554811015610d3057600060058281548110610c9757634e487b7160e01b600052603260045260246000fd5b60009182526020808320909101546001600160a01b031680835260048083526040808520815160a08101835281548152600182015495810195909552600281015491850191909152600381015460ff1615156060850152015460808301819052909350909190610d0c90849033908190612068565b9050848015610d185750805b94505050508080610d2890612e5d565b915050610c6a565b5090565b60058181548110610d4457600080fd5b6000918252602090912001546001600160a01b0316905081565b60025460ff1615610d815760405162461bcd60e51b815260040161064990612c57565b610d8a81612373565b50565b610d9f6430b236b4b760d91b33611f32565b6001600160a01b03831660009081526004602052604090206003015460ff16610e235760405162461bcd60e51b815260206004820152603060248201527f4b6f6b6f615265776172644d616e616765723a3a7365743a20706f6f6c20697360448201526f081b9bdd081a5b9a5d1a585b1a5e995960821b6064820152608401610649565b612710811115610e455760405162461bcd60e51b815260040161064990612d25565b6001600160a01b0383166000908152600460205260409020600201546007548391610e6f91612e46565b610e799190612db0565b6007556001600160a01b0383166000818152600460208181526040928390206002810187905590910184905581518581529081018490527f6dd4644973608d04233550086430be78f05e73522701680db76fb37a206473d791015b60405180910390a2505050565b60025460ff1615610f045760405162461bcd60e51b815260040161064990612c57565b653830bab9b2b960d11b610f188133611f32565b6002805460ff191660011790556040513381527f62e78cea01bee320cd4e420270b5ea74000d11b0c9f74754ebdbfc544b05a25890602001610824565b6000610f6360025460ff1690565b15610f805760405162461bcd60e51b815260040161064990612c57565b506001600080805b60055481101561102357600060058281548110610fb557634e487b7160e01b600052603260045260246000fd5b6000918252602090912001546001600160a01b03169050610fd8813360016108c2565b925082610fe55750611011565b610fef8385612db0565b935060006110008233306000612068565b905085801561100c5750805b955050505b8061101b81612e5d565b915050610f88565b50826110975760405162461bcd60e51b815260206004820152603960248201527f4b6f6b6f615265776172644d616e616765723a3a636c61696d5265776172644160448201527f6e645374616b65416c6c3a20636c61696d206661696c757265000000000000006064820152608401610649565b81156111905760025460085460405163095ea7b360e01b81526001600160a01b03918216600482015260248101859052610100909204169063095ea7b390604401602060405180830381600087803b1580156110f257600080fd5b505af1158015611106573d6000803e3d6000fd5b505050506040513d601f19601f8201168201806040525081019061112a9190612b0b565b506008546040516356e4bb9760e11b8152336004820152602481018490526001600160a01b039091169063adc9772e90604401600060405180830381600087803b15801561117757600080fd5b505af115801561118b573d6000803e3d6000fd5b505050505b505090565b60009182526001602090815260408084206001600160a01b0393909316845291905290205460ff1690565b3360009081526004602052604090206003015460ff166111f25760405162461bcd60e51b815260040161064990612bfa565b600082131561120d5761120d61120783612723565b826117a3565b600082121561065c5761065c611225610bf584612e78565b82611b95565b61123d6430b236b4b760d91b33611f32565b600580546000919061125190600190612e46565b8154811061126f57634e487b7160e01b600052603260045260246000fd5b60009182526020808320909101546001600160a01b0316808352600490915260409091206003015490915060ff166113025760405162461bcd60e51b815260206004820152603060248201527f4b6f6b6f615265776172644d616e616765723a3a706f703a20706f6f6c20697360448201526f081b9bdd081a5b9a5d1a585b1a5e995960821b6064820152608401610649565b6001600160a01b03811660009081526004602052604090206002015460075461132b9190612e46565b6007556005805490818061134f57634e487b7160e01b600052603160045260246000fd5b60008281526020808220830160001990810180546001600160a01b03191690559092019092556001600160a01b03841682526004908190526040822082815560018181018490556002820184905560038201805460ff191690559101919091556113b99082612e46565b6005541461065c5760405162461bcd60e51b815260206004820152602360248201527f4b6f6b6f615265776172644d616e616765723a3a706f703a706f70206661696c60448201526275726560e81b6064820152608401610649565b600061142360025460ff1690565b156114405760405162461bcd60e51b815260040161064990612c57565b6114526430b236b4b760d91b33611f32565b50600160005b60055481101561151e5760006005828154811061148557634e487b7160e01b600052603260045260246000fd5b60009182526020808320909101546001600160a01b031680835260048083526040808520815160a08101835281548152600182015495810195909552600281015491850191909152600381015460ff16151560608501520154608083018190529093509091906114fa90849088908190612068565b90508480156115065750805b9450505050808061151690612e5d565b915050611458565b50919050565b600054610100900460ff16806115395750303b155b80611547575060005460ff16155b6115635760405162461bcd60e51b815260040161064990612c81565b600054610100900460ff16158015611585576000805461ffff19166101011790555b61158d612775565b60028054610100600160a81b0319166101006001600160a01b038681169190910291909117909155600380546001600160a01b03191691841691909117905580156105d8576000805461ff0019169055505050565b6115f46430b236b4b760d91b33611f32565b6001600160a01b03821660009081526004602052604090206003015460ff16156116775760405162461bcd60e51b815260206004820152602e60248201527f4b6f6b6f615265776172644d616e616765723a3a6164643a20706f6f6c20697360448201526d08185b1c9958591e48185919195960921b6064820152608401610649565b6127108111156116995760405162461bcd60e51b815260040161064990612d25565b826007546116a79190612db0565b60075560058054600180820183557f036b6384b5eca791c62761152d0c79bb0604c104a5fb6f4eb0703f3154bb3db090910180546001600160a01b0319166001600160a01b0386169081179091556040805160a08101825260008082524260208084019182528385018b815260608501888152608086018b8152888652600493849052969094209451855591518488015590516002840155905160038301805460ff1916911515919091179055915191015591546117659190612e46565b60408051868152602081018590527f49557ceef3d96292d21ba3d53e9f3fe30e7dc2e6d8b84d257678a4a851bf37ee910160405180910390a3505050565b3360009081526004602052604090206003015460ff166117d55760405162461bcd60e51b815260040161064990612bfa565b60025460ff16156117f85760405162461bcd60e51b815260040161064990612c57565b61180133612373565b336000818152600460208181526040808420815160a08101835281548152600182015481850152600282015481840152600382015460ff16151560608201529301546080840152938352600681528383206001600160a01b03861684529052919020815161187a9064e8d4a5100090610bdc9087612de8565b81600001600082825461188d9190612d6f565b90915550506040518481526001600160a01b0384169033907fe31c7b8d08ee7db0afa68782e1028ef92305caeea8626633ad44d413e30f6b2f906020015b60405180910390a350505050565b6118eb6430b236b4b760d91b33611f32565b60025460ff161561190e5760405162461bcd60e51b815260040161064990612c57565b8165736b6f6b6f6160d01b141561193f57600880546001600160a01b0319166001600160a01b03831617905561065c565b816a34b731b4b732b930ba37b960a91b141561197557600980546001600160a01b0319166001600160a01b03831617905561065c565b60405162461bcd60e51b815260206004820152602e60248201527f4b6f6b6f615265776172644d616e616765723a3a636f6e6669673a20756e726560448201526d636f676e697a65642d706172616d60901b6064820152608401610649565b6119dd826105a2565b6119e78133611f32565b6105d88383612001565b60006119ff60025460ff1690565b15611a1c5760405162461bcd60e51b815260040161064990612c57565b6000611a2a833360016108c2565b905080611a3b5760009150506105b6565b611a488333306000612068565b915081611a675760405162461bcd60e51b815260040161064990612ccf565b60025460085460405163095ea7b360e01b81526001600160a01b03918216600482015260248101849052610100909204169063095ea7b390604401602060405180830381600087803b158015611abc57600080fd5b505af1158015611ad0573d6000803e3d6000fd5b505050506040513d601f19601f82011682018060405250810190611af49190612b0b565b506008546040516356e4bb9760e11b8152336004820152602481018390526001600160a01b039091169063adc9772e90604401600060405180830381600087803b158015611b4157600080fd5b505af1158015611b55573d6000803e3d6000fd5b5050505050919050565b611b716437bbb732b960d91b33611f32565b611b836437bbb732b960d91b82611f96565b610d8a6437bbb732b960d91b33612001565b3360009081526004602052604090206003015460ff16611bc75760405162461bcd60e51b815260040161064990612bfa565b60025460ff1615611bea5760405162461bcd60e51b815260040161064990612c57565b611bf333612373565b336000818152600460208181526040808420815160a08101835281548152600182015481850152600282015481840152600382015460ff16151560608201529301546080840152938352600681528383206001600160a01b038616845290529190208151611c6c9064e8d4a5100090610bdc9087612de8565b816000016000828254611c7f9190612e07565b90915550506040518481526001600160a01b0384169033907f56c54ba9bd38d8fd62012e42c7ee564519b09763c426d331b3661b537ead19b2906020016118cb565b60055460609067ffffffffffffffff811115611ced57634e487b7160e01b600052604160045260246000fd5b604051908082528060200260200182016040528015611d16578160200160208202803683370190505b50905060005b600554811015610d305760058181548110611d4757634e487b7160e01b600052603260045260246000fd5b9060005260206000200160009054906101000a90046001600160a01b0316828281518110611d8557634e487b7160e01b600052603260045260246000fd5b6001600160a01b039092166020928302919091019091015280611da781612e5d565b915050611d1c565b6000611dbd60025460ff1690565b15611dda5760405162461bcd60e51b815260040161064990612c57565b611dec6430b236b4b760d91b33611f32565b6000611dfa848460016108c2565b905080611e0b576000915050610709565b611e188484306000612068565b915081611e375760405162461bcd60e51b815260040161064990612ccf565b60025460085460405163095ea7b360e01b81526001600160a01b03918216600482015260248101849052610100909204169063095ea7b390604401602060405180830381600087803b158015611e8c57600080fd5b505af1158015611ea0573d6000803e3d6000fd5b505050506040513d601f19601f82011682018060405250810190611ec49190612b0b565b506008546040516356e4bb9760e11b81526001600160a01b038581166004830152602482018490529091169063adc9772e90604401600060405180830381600087803b158015611f1357600080fd5b505af1158015611f27573d6000803e3d6000fd5b505050505092915050565b611f3c8282611195565b61065c5760405162461bcd60e51b815260206004820152602560248201527f416363657373436f6e74726f6c3a5f636865636b526f6c653a696e76616c696460448201526420726f6c6560d81b6064820152608401610649565b611fa08282611195565b61065c5760008281526001602081815260408084206001600160a01b0386168086529252808420805460ff19169093179092559051339285917f2f8788117e7eff1d82e926ec794901d17c78024a50270940304540a733656f0d9190a45050565b61200b8282611195565b1561065c5760008281526001602090815260408083206001600160a01b0385168085529252808320805460ff1916905551339285917ff6391f5c32d9c69d2a47ea670b442974b53935d1edc7fd64eb21e047a839171b9190a45050565b600061207385612373565b6001600160a01b038581166000818152600460208181526040808420815160a08101835281548152600182015481850152600282015481840152600382015460ff161515606082015290840154608082015285855260068352818520968b168086529690925280842090516370a0823160e01b8152928301959095529392906370a082319060240160206040518083038186803b15801561211357600080fd5b505afa158015612127573d6000803e3d6000fd5b505050506040513d601f19601f8201168201806040525081019061214b9190612b61565b9050600061216864e8d4a51000856000015184610bdc9190612de8565b9050600061217f846000015483610bf59190612e07565b9050806121945760009550505050505061236b565b81845560025461010090046001600160a01b031663a9059cbb896127106121bb8b82612e46565b6121c59086612de8565b6121cf9190612dc8565b6040516001600160e01b031960e085901b1681526001600160a01b0390921660048301526024820152604401602060405180830381600087803b15801561221557600080fd5b505af1158015612229573d6000803e3d6000fd5b505050506040513d601f19601f8201168201806040525081019061224d9190612b0b565b508615612309576002546009546001600160a01b0361010090920482169163a9059cbb911661271061227f8b86612de8565b6122899190612dc8565b6040516001600160e01b031960e085901b1681526001600160a01b0390921660048301526024820152604401602060405180830381600087803b1580156122cf57600080fd5b505af11580156122e3573d6000803e3d6000fd5b505050506040513d601f19601f820116820180604052508101906123079190612b0b565b505b8084600101546123199190612db0565b60018501556040518181526001600160a01b03808b1691908c16907f7e77f685b38c861064cb08f2776eb5dfd3c82f652ed9f21221b8c53b75628e519060200160405180910390a36001955050505050505b949350505050565b6001600160a01b03811660009081526004602052604090206003015460ff166124045760405162461bcd60e51b815260206004820152603860248201527f4b6f6b6f615265776172644d616e616765723a3a5f757064617465506f6f6c3a60448201527f20706f6f6c206973206e6f7420696e697469616c697a656400000000000000006064820152608401610649565b6001600160a01b038116600090815260046020818152604092839020835160a081018552815481526001820154928101839052600282015494810194909452600381015460ff161515606085015290910154608083015242111561065c576000826001600160a01b03166318160ddd6040518163ffffffff1660e01b815260040160206040518083038186803b15801561249d57600080fd5b505afa1580156124b1573d6000803e3d6000fd5b505050506040513d601f19601f820116820180604052508101906124d59190612b61565b9050801561261e57600360009054906101000a90046001600160a01b03166001600160a01b03166386d1a69f6040518163ffffffff1660e01b8152600401600060405180830381600087803b15801561252d57600080fd5b505af1158015612541573d6000803e3d6000fd5b5050600354602085015160405163a1ac471760e01b81526004810191909152426024820152600093506001600160a01b03909116915063a1ac47179060440160206040518083038186803b15801561259857600080fd5b505afa1580156125ac573d6000803e3d6000fd5b505050506040513d601f19601f820116820180604052508101906125d09190612b61565b905060006007548460400151836125e79190612de8565b6125f19190612dc8565b90508261260364e8d4a5100083612de8565b61260d9190612dc8565b84516126199190612db0565b845250505b4260208381019182526001600160a01b0385166000818152600480845260409182902087518082559551600182018190558389015160028301556060808a015160038401805460ff191691151591909117905560808a01519290930191909155825190815293840186905290830193909352917ffa4534c55db3b65cd96eafe03e5ce9fd87638590f49d5907978ff8489ea66ecb9101610ed4565b60006001600160ff1b03821115610d305760405162461bcd60e51b815260206004820152602860248201527f53616665436173743a2076616c756520646f65736e27742066697420696e2061604482015267371034b73a191a9b60c11b6064820152608401610649565b600080821215610d305760405162461bcd60e51b815260206004820181905260248201527f53616665436173743a2076616c7565206d75737420626520706f7369746976656044820152606401610649565b600054610100900460ff168061278a5750303b155b80612798575060005460ff16155b6127b45760405162461bcd60e51b815260040161064990612c81565b600054610100900460ff161580156127d6576000805461ffff19166101011790555b6127de612820565b6127f9653830bab9b2b960d11b6437bbb732b960d91b612889565b61280c653830bab9b2b960d11b336128de565b8015610d8a576000805461ff001916905550565b600054610100900460ff16806128355750303b155b80612843575060005460ff16155b61285f5760405162461bcd60e51b815260040161064990612c81565b600054610100900460ff16158015612881576000805461ffff19166101011790555b61280c6128e8565b6000612894836105a2565b6000848152600160208190526040808320909101859055519192508391839186917fbd79b86ffe0ab8e8776151514217cd7cacd52c909f66475c3af44e129f0b00ff9190a4505050565b61065c8282611f96565b600054610100900460ff16806128fd5750303b155b8061290b575060005460ff16155b6129275760405162461bcd60e51b815260040161064990612c81565b600054610100900460ff16158015612949576000805461ffff19166101011790555b61295b6437bbb732b960d91b336128de565b6129756430b236b4b760d91b6437bbb732b960d91b612889565b6129926737b832b930ba37b960c11b6437bbb732b960d91b612889565b6129a46430b236b4b760d91b336128de565b61280c6737b832b930ba37b960c11b336128de565b80356001600160a01b03811681146105b657600080fd5b6000602082840312156129e1578081fd5b6129ea826129b9565b9392505050565b60008060408385031215612a03578081fd5b612a0c836129b9565b9150612a1a602084016129b9565b90509250929050565b600080600060608486031215612a37578081fd5b612a40846129b9565b9250612a4e602085016129b9565b91506040840135612a5e81612ea8565b809150509250925092565b600080600060608486031215612a7d578283fd5b612a86846129b9565b95602085013595506040909401359392505050565b60008060208385031215612aad578182fd5b823567ffffffffffffffff80821115612ac4578384fd5b818501915085601f830112612ad7578384fd5b813581811115612ae5578485fd5b8660208260051b8501011115612af9578485fd5b60209290920196919550909350505050565b600060208284031215612b1c578081fd5b81516129ea81612ea8565b600060208284031215612b38578081fd5b5035919050565b60008060408385031215612b51578182fd5b82359150612a1a602084016129b9565b600060208284031215612b72578081fd5b5051919050565b600080600060608486031215612b8d578283fd5b83359250612b9d602085016129b9565b9150604084013590509250925092565b6020808252825182820181905260009190848201906040850190845b81811015612bee5783516001600160a01b031683529284019291840191600101612bc9565b50909695505050505050565b60208082526037908201527f4b6f6b6f615265776172644d616e616765723a3a6f6e6c79526577617264506f60408201527f6f6c3a20696e76616c69642072657761726420706f6f6c000000000000000000606082015260800190565b60208082526010908201526f14185d5cd8589b194e881c185d5cd95960821b604082015260600190565b6020808252602e908201527f496e697469616c697a61626c653a20636f6e747261637420697320616c72656160408201526d191e481a5b9a5d1a585b1a5e995960921b606082015260800190565b60208082526036908201527f4b6f6b6f615265776172644d616e616765723a3a636c61696d526577617264416040820152756e645374616b653a20636c61696d206661696c75726560501b606082015260800190565b6020808252602a908201527f4b6f6b6f615265776172644d616e616765723a3a6164643a20696e76616c69646040820152692066656520726174696f60b01b606082015260800190565b600080821280156001600160ff1b0384900385131615612d9157612d91612e92565b600160ff1b8390038412811615612daa57612daa612e92565b50500190565b60008219821115612dc357612dc3612e92565b500190565b600082612de357634e487b7160e01b81526012600452602481fd5b500490565b6000816000190483118215151615612e0257612e02612e92565b500290565b60008083128015600160ff1b850184121615612e2557612e25612e92565b6001600160ff1b0384018313811615612e4057612e40612e92565b50500390565b600082821015612e5857612e58612e92565b500390565b6000600019821415612e7157612e71612e92565b5060010190565b6000600160ff1b821415612e8e57612e8e612e92565b0390565b634e487b7160e01b600052601160045260246000fd5b8015158114610d8a57600080fdfea2646970667358221220f84e2083ef7e172c1bfba4b06ee068560b04f29c9206e8936992cc624610753664736f6c63430008030033",
  "devdoc": {
    "details": "It manages all kokoa rewards. Its base code is from sushiswap. Therefore, the way to distribute reward is very similar to sushiswap. The main difference between sushiswap and KokoaRewardManager lies in staking. Sushiswap forces to stake token, but KokoaRewardManager does not own token. It just expect registered pool to call onDeposit/onWithdraw/onChanged, and get balance and totalSupply of pool to calculate how to distribute reward. Additionally, unlike SushiSwap where SUSHI tokens for liquidity mining are generated blockwise, Kokoa Reward Manager mints the Kokoa tokens for reward in advance, and distributes them according to the vesting logic",
    "kind": "dev",
    "methods": {
      "add(uint256,address,uint256)": {
        "details": "it should be called by the governance (initially, admin EOA).",
        "params": {
          "pool": "address of pool to register"
        }
      },
      "claimReward(address,address)": {
        "params": {
          "pool": "address of pool",
          "to": "receiver address of kokoa reward"
        }
      },
      "claimableReward(address,address,bool)": {
        "params": {
          "bonus": "calculate fee",
          "pool": "address of a reward pool",
          "usr": "address of user"
        }
      },
      "massUpdatePools(address[])": {
        "params": {
          "pools": "address list of pools to update"
        }
      },
      "onChanged(int256,address)": {
        "details": "    .  msg.sender == pool (eng)Only Reward Pools should be able to call this function",
        "params": {
          "amount": "amount changed",
          "to": "address of user"
        }
      },
      "onDeposit(uint256,address)": {
        "details": "    .  msg.sender == pool (eng)Only Reward Pools should be able to call this function",
        "params": {
          "amount": "amount increased",
          "to": "address of user"
        }
      },
      "onWithdraw(uint256,address)": {
        "details": "    .  msg.sender == pool (eng)Only Reward Pools should be able to call this function",
        "params": {
          "amount": "amount decreased",
          "to": "address of user"
        }
      },
      "set(address,uint256,uint256)": {
        "details": "it should be called by the governance (initially, admin EOA).",
        "params": {
          "allocPoint": "a weight parameter for Kokoa distribution",
          "pool": "address of pool to register"
        }
      },
      "updatePool(address)": {
        "details": " _updatePool ,     staking  , reward claim             .  sushiswap    . (eng)It calls _updatePool function.       _updatePool is a function that should be called before whenever a user's stake is changed or one claims reward       So updatePool will not be called in any other circumstances, but we still implemented this part because it's in SushiSwap code",
        "params": {
          "pool": "address of pool to update"
        }
      }
    },
    "title": "A manager for distributing kokoa reward.",
    "version": 1
  },
  "userdoc": {
    "kind": "user",
    "methods": {
      "accRewardPrecision()": {
        "notice": "reward     ,       ."
      },
      "claimReward(address,address)": {
        "notice": "  kokoa reward claim  function"
      },
      "claimableReward(address,address,bool)": {
        "notice": "returns amount of Kokoa reward a user is able to claim from a pool (i.e., 'claimable' reward)"
      },
      "massUpdatePools(address[])": {
        "notice": "   updatePool . (eng)Do updatePool for multiple pools"
      },
      "onChanged(int256,address)": {
        "notice": "onDeposit onWithdraw wrapperA wrapper function for onDeposit and onWithdraw"
      },
      "onDeposit(uint256,address)": {
        "notice": " pool  staking   ,   reward    .When the amount a user staked in a pool is increased, this function should be called in order to keep track of the reward"
      },
      "onWithdraw(uint256,address)": {
        "notice": " pool  staking   ,   reward    .When the amount a user staked in a pool is decreased, this function should be called in order to keep track of the reward"
      },
      "poolInfo(address)": {
        "notice": "pool info"
      },
      "poolLength()": {
        "notice": "number of registered pools"
      },
      "rewardPool(uint256)": {
        "notice": "registered pool"
      },
      "rewardPools()": {
        "notice": "all registered pools"
      },
      "set(address,uint256,uint256)": {
        "notice": "   kokoa reward  .Adjust the reward ratio of the selected pool"
      },
      "totalAllocPoint()": {
        "notice": "total allocation point"
      },
      "updatePool(address)": {
        "notice": "  reward   .Update the amount of reward of a pool that should be distributed to its users"
      },
      "userInfo(address,address)": {
        "notice": "user info."
      }
    },
    "version": 1
  },
  "storageLayout": {
    "storage": [
      {
        "astId": 25013,
        "contract": "contracts/reward/KokoaRewardManager.sol:KokoaRewardManager",
        "label": "_initialized",
        "offset": 0,
        "slot": "0",
        "type": "t_bool"
      },
      {
        "astId": 25016,
        "contract": "contracts/reward/KokoaRewardManager.sol:KokoaRewardManager",
        "label": "_initializing",
        "offset": 1,
        "slot": "0",
        "type": "t_bool"
      },
      {
        "astId": 21959,
        "contract": "contracts/reward/KokoaRewardManager.sol:KokoaRewardManager",
        "label": "_roles",
        "offset": 0,
        "slot": "1",
        "type": "t_mapping(t_bytes32,t_struct(RoleData)21954_storage)"
      },
      {
        "astId": 22349,
        "contract": "contracts/reward/KokoaRewardManager.sol:KokoaRewardManager",
        "label": "_paused",
        "offset": 0,
        "slot": "2",
        "type": "t_bool"
      },
      {
        "astId": 32734,
        "contract": "contracts/reward/KokoaRewardManager.sol:KokoaRewardManager",
        "label": "kokoa",
        "offset": 1,
        "slot": "2",
        "type": "t_contract(IKIP7)9935"
      },
      {
        "astId": 32737,
        "contract": "contracts/reward/KokoaRewardManager.sol:KokoaRewardManager",
        "label": "rewardTokenVesting",
        "offset": 0,
        "slot": "3",
        "type": "t_contract(ITokenVesting)9578"
      },
      {
        "astId": 32743,
        "contract": "contracts/reward/KokoaRewardManager.sol:KokoaRewardManager",
        "label": "poolInfo",
        "offset": 0,
        "slot": "4",
        "type": "t_mapping(t_address,t_struct(PoolInfo)8211_storage)"
      },
      {
        "astId": 32748,
        "contract": "contracts/reward/KokoaRewardManager.sol:KokoaRewardManager",
        "label": "rewardPool",
        "offset": 0,
        "slot": "5",
        "type": "t_array(t_contract(IRewardPool)9128)dyn_storage"
      },
      {
        "astId": 32756,
        "contract": "contracts/reward/KokoaRewardManager.sol:KokoaRewardManager",
        "label": "userInfo",
        "offset": 0,
        "slot": "6",
        "type": "t_mapping(t_address,t_mapping(t_address,t_struct(UserInfo)8216_storage))"
      },
      {
        "astId": 32759,
        "contract": "contracts/reward/KokoaRewardManager.sol:KokoaRewardManager",
        "label": "totalAllocPoint",
        "offset": 0,
        "slot": "7",
        "type": "t_uint256"
      },
      {
        "astId": 32765,
        "contract": "contracts/reward/KokoaRewardManager.sol:KokoaRewardManager",
        "label": "skokoa",
        "offset": 0,
        "slot": "8",
        "type": "t_contract(IStakingPool)9379"
      },
      {
        "astId": 32767,
        "contract": "contracts/reward/KokoaRewardManager.sol:KokoaRewardManager",
        "label": "incinerator",
        "offset": 0,
        "slot": "9",
        "type": "t_address"
      }
    ],
    "types": {
      "t_address": {
        "encoding": "inplace",
        "label": "address",
        "numberOfBytes": "20"
      },
      "t_array(t_contract(IRewardPool)9128)dyn_storage": {
        "base": "t_contract(IRewardPool)9128",
        "encoding": "dynamic_array",
        "label": "contract IRewardPool[]",
        "numberOfBytes": "32"
      },
      "t_bool": {
        "encoding": "inplace",
        "label": "bool",
        "numberOfBytes": "1"
      },
      "t_bytes32": {
        "encoding": "inplace",
        "label": "bytes32",
        "numberOfBytes": "32"
      },
      "t_contract(IKIP7)9935": {
        "encoding": "inplace",
        "label": "contract IKIP7",
        "numberOfBytes": "20"
      },
      "t_contract(IRewardPool)9128": {
        "encoding": "inplace",
        "label": "contract IRewardPool",
        "numberOfBytes": "20"
      },
      "t_contract(IStakingPool)9379": {
        "encoding": "inplace",
        "label": "contract IStakingPool",
        "numberOfBytes": "20"
      },
      "t_contract(ITokenVesting)9578": {
        "encoding": "inplace",
        "label": "contract ITokenVesting",
        "numberOfBytes": "20"
      },
      "t_int256": {
        "encoding": "inplace",
        "label": "int256",
        "numberOfBytes": "32"
      },
      "t_mapping(t_address,t_bool)": {
        "encoding": "mapping",
        "key": "t_address",
        "label": "mapping(address => bool)",
        "numberOfBytes": "32",
        "value": "t_bool"
      },
      "t_mapping(t_address,t_mapping(t_address,t_struct(UserInfo)8216_storage))": {
        "encoding": "mapping",
        "key": "t_address",
        "label": "mapping(address => mapping(address => struct IKokoaRewardManager.UserInfo))",
        "numberOfBytes": "32",
        "value": "t_mapping(t_address,t_struct(UserInfo)8216_storage)"
      },
      "t_mapping(t_address,t_struct(PoolInfo)8211_storage)": {
        "encoding": "mapping",
        "key": "t_address",
        "label": "mapping(address => struct IKokoaRewardManager.PoolInfo)",
        "numberOfBytes": "32",
        "value": "t_struct(PoolInfo)8211_storage"
      },
      "t_mapping(t_address,t_struct(UserInfo)8216_storage)": {
        "encoding": "mapping",
        "key": "t_address",
        "label": "mapping(address => struct IKokoaRewardManager.UserInfo)",
        "numberOfBytes": "32",
        "value": "t_struct(UserInfo)8216_storage"
      },
      "t_mapping(t_bytes32,t_struct(RoleData)21954_storage)": {
        "encoding": "mapping",
        "key": "t_bytes32",
        "label": "mapping(bytes32 => struct AccessControl.RoleData)",
        "numberOfBytes": "32",
        "value": "t_struct(RoleData)21954_storage"
      },
      "t_struct(PoolInfo)8211_storage": {
        "encoding": "inplace",
        "label": "struct IKokoaRewardManager.PoolInfo",
        "members": [
          {
            "astId": 8202,
            "contract": "contracts/reward/KokoaRewardManager.sol:KokoaRewardManager",
            "label": "accRewardPerShare",
            "offset": 0,
            "slot": "0",
            "type": "t_uint256"
          },
          {
            "astId": 8204,
            "contract": "contracts/reward/KokoaRewardManager.sol:KokoaRewardManager",
            "label": "lastRewardTimestamp",
            "offset": 0,
            "slot": "1",
            "type": "t_uint256"
          },
          {
            "astId": 8206,
            "contract": "contracts/reward/KokoaRewardManager.sol:KokoaRewardManager",
            "label": "allocPoint",
            "offset": 0,
            "slot": "2",
            "type": "t_uint256"
          },
          {
            "astId": 8208,
            "contract": "contracts/reward/KokoaRewardManager.sol:KokoaRewardManager",
            "label": "init",
            "offset": 0,
            "slot": "3",
            "type": "t_bool"
          },
          {
            "astId": 8210,
            "contract": "contracts/reward/KokoaRewardManager.sol:KokoaRewardManager",
            "label": "fee",
            "offset": 0,
            "slot": "4",
            "type": "t_uint256"
          }
        ],
        "numberOfBytes": "160"
      },
      "t_struct(RoleData)21954_storage": {
        "encoding": "inplace",
        "label": "struct AccessControl.RoleData",
        "members": [
          {
            "astId": 21951,
            "contract": "contracts/reward/KokoaRewardManager.sol:KokoaRewardManager",
            "label": "members",
            "offset": 0,
            "slot": "0",
            "type": "t_mapping(t_address,t_bool)"
          },
          {
            "astId": 21953,
            "contract": "contracts/reward/KokoaRewardManager.sol:KokoaRewardManager",
            "label": "adminRole",
            "offset": 0,
            "slot": "1",
            "type": "t_bytes32"
          }
        ],
        "numberOfBytes": "64"
      },
      "t_struct(UserInfo)8216_storage": {
        "encoding": "inplace",
        "label": "struct IKokoaRewardManager.UserInfo",
        "members": [
          {
            "astId": 8213,
            "contract": "contracts/reward/KokoaRewardManager.sol:KokoaRewardManager",
            "label": "rewardDebt",
            "offset": 0,
            "slot": "0",
            "type": "t_int256"
          },
          {
            "astId": 8215,
            "contract": "contracts/reward/KokoaRewardManager.sol:KokoaRewardManager",
            "label": "claimedReward",
            "offset": 0,
            "slot": "1",
            "type": "t_uint256"
          }
        ],
        "numberOfBytes": "64"
      },
      "t_uint256": {
        "encoding": "inplace",
        "label": "uint256",
        "numberOfBytes": "32"
      }
    }
  }
}