{
  "address": "0x2b54eC2B3C7B7790311236D24324De3CD7CdB21b",
  "abi": [
    {
      "anonymous": false,
      "inputs": [
        {
          "indexed": true,
          "internalType": "address",
          "name": "owner",
          "type": "address"
        },
        {
          "indexed": true,
          "internalType": "address",
          "name": "spender",
          "type": "address"
        },
        {
          "indexed": false,
          "internalType": "uint256",
          "name": "value",
          "type": "uint256"
        }
      ],
      "name": "Approval",
      "type": "event"
    },
    {
      "anonymous": false,
      "inputs": [
        {
          "indexed": false,
          "internalType": "address",
          "name": "account",
          "type": "address"
        }
      ],
      "name": "Paused",
      "type": "event"
    },
    {
      "anonymous": false,
      "inputs": [
        {
          "indexed": true,
          "internalType": "bytes32",
          "name": "role",
          "type": "bytes32"
        },
        {
          "indexed": true,
          "internalType": "bytes32",
          "name": "previousAdminRole",
          "type": "bytes32"
        },
        {
          "indexed": true,
          "internalType": "bytes32",
          "name": "newAdminRole",
          "type": "bytes32"
        }
      ],
      "name": "RoleAdminChanged",
      "type": "event"
    },
    {
      "anonymous": false,
      "inputs": [
        {
          "indexed": true,
          "internalType": "bytes32",
          "name": "role",
          "type": "bytes32"
        },
        {
          "indexed": true,
          "internalType": "address",
          "name": "account",
          "type": "address"
        },
        {
          "indexed": true,
          "internalType": "address",
          "name": "sender",
          "type": "address"
        }
      ],
      "name": "RoleGranted",
      "type": "event"
    },
    {
      "anonymous": false,
      "inputs": [
        {
          "indexed": true,
          "internalType": "bytes32",
          "name": "role",
          "type": "bytes32"
        },
        {
          "indexed": true,
          "internalType": "address",
          "name": "account",
          "type": "address"
        },
        {
          "indexed": true,
          "internalType": "address",
          "name": "sender",
          "type": "address"
        }
      ],
      "name": "RoleRevoked",
      "type": "event"
    },
    {
      "anonymous": false,
      "inputs": [
        {
          "indexed": true,
          "internalType": "address",
          "name": "from",
          "type": "address"
        },
        {
          "indexed": true,
          "internalType": "address",
          "name": "to",
          "type": "address"
        },
        {
          "indexed": false,
          "internalType": "uint256",
          "name": "value",
          "type": "uint256"
        }
      ],
      "name": "Transfer",
      "type": "event"
    },
    {
      "anonymous": false,
      "inputs": [
        {
          "indexed": false,
          "internalType": "address",
          "name": "account",
          "type": "address"
        }
      ],
      "name": "Unpaused",
      "type": "event"
    },
    {
      "inputs": [],
      "name": "DEFAULT_ADMIN_ROLE",
      "outputs": [
        {
          "internalType": "bytes32",
          "name": "",
          "type": "bytes32"
        }
      ],
      "stateMutability": "view",
      "type": "function"
    },
    {
      "inputs": [],
      "name": "__KokoaToken_init",
      "outputs": [],
      "stateMutability": "nonpayable",
      "type": "function"
    },
    {
      "inputs": [
        {
          "internalType": "address",
          "name": "owner",
          "type": "address"
        },
        {
          "internalType": "address",
          "name": "spender",
          "type": "address"
        }
      ],
      "name": "allowance",
      "outputs": [
        {
          "internalType": "uint256",
          "name": "",
          "type": "uint256"
        }
      ],
      "stateMutability": "view",
      "type": "function"
    },
    {
      "inputs": [
        {
          "internalType": "address",
          "name": "spender",
          "type": "address"
        },
        {
          "internalType": "uint256",
          "name": "value",
          "type": "uint256"
        }
      ],
      "name": "approve",
      "outputs": [
        {
          "internalType": "bool",
          "name": "",
          "type": "bool"
        }
      ],
      "stateMutability": "nonpayable",
      "type": "function"
    },
    {
      "inputs": [
        {
          "internalType": "address",
          "name": "account",
          "type": "address"
        }
      ],
      "name": "balanceOf",
      "outputs": [
        {
          "internalType": "uint256",
          "name": "",
          "type": "uint256"
        }
      ],
      "stateMutability": "view",
      "type": "function"
    },
    {
      "inputs": [
        {
          "internalType": "address",
          "name": "account",
          "type": "address"
        },
        {
          "internalType": "uint256",
          "name": "value",
          "type": "uint256"
        }
      ],
      "name": "burn",
      "outputs": [
        {
          "internalType": "bool",
          "name": "",
          "type": "bool"
        }
      ],
      "stateMutability": "nonpayable",
      "type": "function"
    },
    {
      "inputs": [],
      "name": "decimals",
      "outputs": [
        {
          "internalType": "uint8",
          "name": "",
          "type": "uint8"
        }
      ],
      "stateMutability": "view",
      "type": "function"
    },
    {
      "inputs": [
        {
          "internalType": "bytes32",
          "name": "role",
          "type": "bytes32"
        }
      ],
      "name": "getRoleAdmin",
      "outputs": [
        {
          "internalType": "bytes32",
          "name": "",
          "type": "bytes32"
        }
      ],
      "stateMutability": "view",
      "type": "function"
    },
    {
      "inputs": [
        {
          "internalType": "bytes32",
          "name": "role",
          "type": "bytes32"
        },
        {
          "internalType": "address",
          "name": "account",
          "type": "address"
        }
      ],
      "name": "grantRole",
      "outputs": [],
      "stateMutability": "nonpayable",
      "type": "function"
    },
    {
      "inputs": [
        {
          "internalType": "bytes32",
          "name": "role",
          "type": "bytes32"
        },
        {
          "internalType": "address",
          "name": "account",
          "type": "address"
        }
      ],
      "name": "hasRole",
      "outputs": [
        {
          "internalType": "bool",
          "name": "",
          "type": "bool"
        }
      ],
      "stateMutability": "view",
      "type": "function"
    },
    {
      "inputs": [
        {
          "internalType": "address",
          "name": "account",
          "type": "address"
        },
        {
          "internalType": "uint256",
          "name": "amount",
          "type": "uint256"
        }
      ],
      "name": "mint",
      "outputs": [
        {
          "internalType": "bool",
          "name": "",
          "type": "bool"
        }
      ],
      "stateMutability": "nonpayable",
      "type": "function"
    },
    {
      "inputs": [],
      "name": "name",
      "outputs": [
        {
          "internalType": "string",
          "name": "",
          "type": "string"
        }
      ],
      "stateMutability": "view",
      "type": "function"
    },
    {
      "inputs": [],
      "name": "pause",
      "outputs": [],
      "stateMutability": "nonpayable",
      "type": "function"
    },
    {
      "inputs": [],
      "name": "paused",
      "outputs": [
        {
          "internalType": "bool",
          "name": "",
          "type": "bool"
        }
      ],
      "stateMutability": "view",
      "type": "function"
    },
    {
      "inputs": [
        {
          "internalType": "bytes32",
          "name": "role",
          "type": "bytes32"
        },
        {
          "internalType": "address",
          "name": "account",
          "type": "address"
        }
      ],
      "name": "renounceRole",
      "outputs": [],
      "stateMutability": "nonpayable",
      "type": "function"
    },
    {
      "inputs": [
        {
          "internalType": "bytes32",
          "name": "role",
          "type": "bytes32"
        },
        {
          "internalType": "address",
          "name": "account",
          "type": "address"
        }
      ],
      "name": "revokeRole",
      "outputs": [],
      "stateMutability": "nonpayable",
      "type": "function"
    },
    {
      "inputs": [
        {
          "internalType": "address",
          "name": "recipient",
          "type": "address"
        },
        {
          "internalType": "uint256",
          "name": "amount",
          "type": "uint256"
        }
      ],
      "name": "safeTransfer",
      "outputs": [],
      "stateMutability": "nonpayable",
      "type": "function"
    },
    {
      "inputs": [
        {
          "internalType": "address",
          "name": "recipient",
          "type": "address"
        },
        {
          "internalType": "uint256",
          "name": "amount",
          "type": "uint256"
        },
        {
          "internalType": "bytes",
          "name": "data",
          "type": "bytes"
        }
      ],
      "name": "safeTransfer",
      "outputs": [],
      "stateMutability": "nonpayable",
      "type": "function"
    },
    {
      "inputs": [
        {
          "internalType": "address",
          "name": "sender",
          "type": "address"
        },
        {
          "internalType": "address",
          "name": "recipient",
          "type": "address"
        },
        {
          "internalType": "uint256",
          "name": "amount",
          "type": "uint256"
        }
      ],
      "name": "safeTransferFrom",
      "outputs": [],
      "stateMutability": "nonpayable",
      "type": "function"
    },
    {
      "inputs": [
        {
          "internalType": "address",
          "name": "sender",
          "type": "address"
        },
        {
          "internalType": "address",
          "name": "recipient",
          "type": "address"
        },
        {
          "internalType": "uint256",
          "name": "amount",
          "type": "uint256"
        },
        {
          "internalType": "bytes",
          "name": "data",
          "type": "bytes"
        }
      ],
      "name": "safeTransferFrom",
      "outputs": [],
      "stateMutability": "nonpayable",
      "type": "function"
    },
    {
      "inputs": [
        {
          "internalType": "bytes4",
          "name": "interfaceId",
          "type": "bytes4"
        }
      ],
      "name": "supportsInterface",
      "outputs": [
        {
          "internalType": "bool",
          "name": "",
          "type": "bool"
        }
      ],
      "stateMutability": "view",
      "type": "function"
    },
    {
      "inputs": [],
      "name": "symbol",
      "outputs": [
        {
          "internalType": "string",
          "name": "",
          "type": "string"
        }
      ],
      "stateMutability": "view",
      "type": "function"
    },
    {
      "inputs": [],
      "name": "totalSupply",
      "outputs": [
        {
          "internalType": "uint256",
          "name": "",
          "type": "uint256"
        }
      ],
      "stateMutability": "view",
      "type": "function"
    },
    {
      "inputs": [
        {
          "internalType": "address",
          "name": "recipient",
          "type": "address"
        },
        {
          "internalType": "uint256",
          "name": "amount",
          "type": "uint256"
        }
      ],
      "name": "transfer",
      "outputs": [
        {
          "internalType": "bool",
          "name": "",
          "type": "bool"
        }
      ],
      "stateMutability": "nonpayable",
      "type": "function"
    },
    {
      "inputs": [
        {
          "internalType": "address",
          "name": "sender",
          "type": "address"
        },
        {
          "internalType": "address",
          "name": "recipient",
          "type": "address"
        },
        {
          "internalType": "uint256",
          "name": "amount",
          "type": "uint256"
        }
      ],
      "name": "transferFrom",
      "outputs": [
        {
          "internalType": "bool",
          "name": "",
          "type": "bool"
        }
      ],
      "stateMutability": "nonpayable",
      "type": "function"
    },
    {
      "inputs": [
        {
          "internalType": "address",
          "name": "newOwner",
          "type": "address"
        }
      ],
      "name": "transferOwnership",
      "outputs": [],
      "stateMutability": "nonpayable",
      "type": "function"
    },
    {
      "inputs": [],
      "name": "unpause",
      "outputs": [],
      "stateMutability": "nonpayable",
      "type": "function"
    }
  ],
  "transactionHash": "0x3cdd007e79dbca3f7bca9f45be01de409e44212e0167388650133a16a3107e13",
  "args": [],
  "solcInputHash": "345c004667461390ef2e622d49f1ab38",
  "bytecode": "0x608060405234801561001057600080fd5b50611bf1806100206000396000f3fe608060405234801561001057600080fd5b50600436106101a95760003560e01c80635c975abb116100f9578063a9059cbb11610097578063dd62ed3e11610071578063dd62ed3e1461036f578063eb795549146103a8578063f1e81c80146103bb578063f2fde38b146103c3576101a9565b8063a9059cbb14610336578063b88d4fde14610349578063d547741f1461035c576101a9565b806391d14854116100d357806391d148541461030057806395d89b41146103135780639dc29fac1461031b578063a217fddf1461032e576101a9565b80635c975abb146102c457806370a08231146102cf5780638456cb59146102f8576101a9565b80632f2ff15d116101665780633f4ba83a116101405780633f4ba83a1461028357806340c10f191461028b578063423f6cef1461029e57806342842e0e146102b1576101a9565b80632f2ff15d14610246578063313ce5671461025b57806336568abe14610270576101a9565b806301ffc9a7146101ae57806306fdde03146101d6578063095ea7b3146101eb57806318160ddd146101fe57806323b872dd14610210578063248a9ca314610223575b600080fd5b6101c16101bc3660046119c4565b6103d6565b60405190151581526020015b60405180910390f35b6101de6103f9565b6040516101cd9190611a84565b6101c16101f936600461190c565b61048b565b6004545b6040519081526020016101cd565b6101c161021e36600461186b565b6104d0565b61020261023136600461198a565b60009081526008602052604090206001015490565b6102596102543660046119a2565b61050e565b005b60075460405160ff90911681526020016101cd565b61025961027e3660046119a2565b610539565b6102596105b7565b6101c161029936600461190c565b610655565b6102596102ac36600461190c565b61069f565b6102596102bf36600461186b565b6106b9565b60095460ff166101c1565b6102026102dd36600461181f565b6001600160a01b031660009081526002602052604090205490565b6102596106d4565b6101c161030e3660046119a2565b610748565b6101de610773565b6101c161032936600461190c565b610782565b610202600081565b6101c161034436600461190c565b6107c3565b6102596103573660046118a6565b6107f8565b61025961036a3660046119a2565b61088a565b61020261037d366004611839565b6001600160a01b03918216600090815260036020908152604080832093909416825291909152205490565b6102596103b6366004611935565b6108b0565b610259610939565b6102596103d136600461181f565b6109f5565b6001600160e01b0319811660009081526001602052604090205460ff165b919050565b60606005805461040890611b3e565b80601f016020809104026020016040519081016040528092919081815260200182805461043490611b3e565b80156104815780601f1061045657610100808354040283529160200191610481565b820191906000526020600020905b81548152906001019060200180831161046457829003601f168201915b5050505050905090565b600061049960095460ff1690565b156104bf5760405162461bcd60e51b81526004016104b690611a97565b60405180910390fd5b6104c98383610a2b565b9392505050565b60006104de60095460ff1690565b156104fb5760405162461bcd60e51b81526004016104b690611a97565b610506848484610a38565b949350505050565b60008281526008602052604090206001015461052a8133610a8a565b6105348383610aee565b505050565b6001600160a01b03811633146105a95760405162461bcd60e51b815260206004820152602f60248201527f416363657373436f6e74726f6c3a2063616e206f6e6c792072656e6f756e636560448201526e103937b632b9903337b91039b2b63360891b60648201526084016104b6565b6105b38282610b57565b5050565b60095460ff166106005760405162461bcd60e51b815260206004820152601460248201527314185d5cd8589b194e881b9bdd081c185d5cd95960621b60448201526064016104b6565b653830bab9b2b960d11b6106148133610a8a565b6009805460ff191690556040513381527f5db9ee0a495bf2e6ff9c91a7834c1ba4fdd244a5e8aa4e537bd38aeae4b073aa906020015b60405180910390a150565b60006106696430b236b4b760d91b33610a8a565b60095460ff161561068c5760405162461bcd60e51b81526004016104b690611a97565b6106968383610bbe565b50600192915050565b6105b38282604051806020016040528060008152506108b0565b610534838383604051806020016040528060008152506107f8565b60095460ff16156106f75760405162461bcd60e51b81526004016104b690611a97565b653830bab9b2b960d11b61070b8133610a8a565b6009805460ff191660011790556040513381527f62e78cea01bee320cd4e420270b5ea74000d11b0c9f74754ebdbfc544b05a2589060200161064a565b60009182526008602090815260408084206001600160a01b0393909316845291905290205460ff1690565b60606006805461040890611b3e565b60006107966430b236b4b760d91b33610a8a565b60095460ff16156107b95760405162461bcd60e51b81526004016104b690611a97565b6106968383610cbc565b60006107d160095460ff1690565b156107ee5760405162461bcd60e51b81526004016104b690611a97565b6104c98383610dad565b6108038484846104d0565b5061081084848484610dba565b610884576040805162461bcd60e51b81526020600482015260248101919091527f4b4950373a3a736166655472616e7366657246726f6d3a207472616e7366657260448201527f20746f206e6f6e204b495037526563656976657220696d706c656d656e74657260648201526084016104b6565b50505050565b6000828152600860205260409020600101546108a68133610a8a565b6105348383610b57565b6108ba83836107c3565b506108c733848484610dba565b6105345760405162461bcd60e51b815260206004820152603c60248201527f4b4950373a3a736166655472616e736665723a207472616e7366657220746f2060448201527f6e6f6e204b495037526563656976657220696d706c656d656e7465720000000060648201526084016104b6565b600054610100900460ff168061094e5750303b155b8061095c575060005460ff16155b6109785760405162461bcd60e51b81526004016104b690611ac1565b600054610100900460ff1615801561099a576000805461ffff19166101011790555b6109e0604051806040016040528060058152602001644b6f6b6f6160d81b815250604051806040016040528060058152602001644b4f4b4f4160d81b8152506012610e78565b80156109f2576000805461ff00191690555b50565b610a076437bbb732b960d91b33610a8a565b610a196437bbb732b960d91b82610aee565b6109f26437bbb732b960d91b33610b57565b6000610696338484610f03565b6000610a4584848461103b565b6001600160a01b038416600090815260036020908152604080832033808552925290912054610a80918691610a7b908690611b27565b610f03565b5060019392505050565b610a948282610748565b6105b35760405162461bcd60e51b815260206004820152602560248201527f416363657373436f6e74726f6c3a5f636865636b526f6c653a696e76616c696460448201526420726f6c6560d81b60648201526084016104b6565b610af88282610748565b6105b35760008281526008602090815260408083206001600160a01b0385168085529252808320805460ff1916600117905551339285917f2f8788117e7eff1d82e926ec794901d17c78024a50270940304540a733656f0d9190a45050565b610b618282610748565b156105b35760008281526008602090815260408083206001600160a01b0385168085529252808320805460ff1916905551339285917ff6391f5c32d9c69d2a47ea670b442974b53935d1edc7fd64eb21e047a839171b9190a45050565b6001600160a01b038216610c2a5760405162461bcd60e51b815260206004820152602d60248201527f4b495037457874656e6465643a3a5f6d696e743a206d696e7420746f2074686560448201526c207a65726f206164647265737360981b60648201526084016104b6565b80600454610c389190611b0f565b6004556001600160a01b038216600090815260026020526040902054610c5f908290611b0f565b6001600160a01b0383166000818152600260205260408082209390935591519091907fddf252ad1be2c89b69c2b068fc378daa952ba7f163c4a11628f55a4df523b3ef90610cb09085815260200190565b60405180910390a35050565b6001600160a01b038216610d2a5760405162461bcd60e51b815260206004820152602f60248201527f4b495037457874656e6465643a3a5f6275726e3a206275726e2066726f6d207460448201526e6865207a65726f206164647265737360881b60648201526084016104b6565b80600454610d389190611b27565b6004556001600160a01b038216600090815260026020526040902054610d5f908290611b27565b6001600160a01b0383166000818152600260205260408082209390935591517fddf252ad1be2c89b69c2b068fc378daa952ba7f163c4a11628f55a4df523b3ef90610cb09085815260200190565b600061069633848461103b565b60006001600160a01b0384163b610dd357506001610506565b604051634e8c461160e11b81526000906001600160a01b03861690639d188c2290610e089033908a9089908990600401611a47565b602060405180830381600087803b158015610e2257600080fd5b505af1158015610e36573d6000803e3d6000fd5b505050506040513d601f19601f82011682018060405250810190610e5a91906119e0565b6001600160e01b031916634e8c461160e11b14915050949350505050565b600054610100900460ff1680610e8d5750303b155b80610e9b575060005460ff16155b610eb75760405162461bcd60e51b81526004016104b690611ac1565b600054610100900460ff16158015610ed9576000805461ffff19166101011790555b610ee48484846111bd565b610eec611231565b8015610884576000805461ff001916905550505050565b6001600160a01b038316610f6f5760405162461bcd60e51b815260206004820152602d60248201527f4b4950373a3a5f617070726f76653a20617070726f76652066726f6d2074686560448201526c207a65726f206164647265737360981b60648201526084016104b6565b6001600160a01b038216610fd95760405162461bcd60e51b815260206004820152602b60248201527f4b4950373a3a5f617070726f76653a20617070726f766520746f20746865207a60448201526a65726f206164647265737360a81b60648201526084016104b6565b6001600160a01b0383811660008181526003602090815260408083209487168084529482529182902085905590518481527f8c5be1e5ebec7d5bd14f71427d1e84f3dd0314c0f7b2291e5b200ac8c7c3b92591015b60405180910390a3505050565b6001600160a01b0383166110a95760405162461bcd60e51b815260206004820152602f60248201527f4b4950373a3a5f7472616e736665723a207472616e736665722066726f6d207460448201526e6865207a65726f206164647265737360881b60648201526084016104b6565b6001600160a01b0382166111155760405162461bcd60e51b815260206004820152602d60248201527f4b4950373a3a5f7472616e736665723a207472616e7366657220746f2074686560448201526c207a65726f206164647265737360981b60648201526084016104b6565b6001600160a01b038316600090815260026020526040902054611139908290611b27565b6001600160a01b038085166000908152600260205260408082209390935590841681522054611169908290611b0f565b6001600160a01b0380841660008181526002602052604090819020939093559151908516907fddf252ad1be2c89b69c2b068fc378daa952ba7f163c4a11628f55a4df523b3ef9061102e9085815260200190565b600054610100900460ff16806111d25750303b155b806111e0575060005460ff16155b6111fc5760405162461bcd60e51b81526004016104b690611ac1565b600054610100900460ff1615801561121e576000805461ffff19166101011790555b6112266112c8565b610eec848484611339565b600054610100900460ff16806112465750303b155b80611254575060005460ff16155b6112705760405162461bcd60e51b81526004016104b690611ac1565b600054610100900460ff16158015611292576000805461ffff19166101011790555b61129a6113e1565b6112b5653830bab9b2b960d11b6437bbb732b960d91b61144a565b6109e0653830bab9b2b960d11b33611495565b600054610100900460ff16806112dd5750303b155b806112eb575060005460ff16155b6113075760405162461bcd60e51b81526004016104b690611ac1565b600054610100900460ff16158015611329576000805461ffff19166101011790555b61133161149f565b6109e0611510565b600054610100900460ff168061134e5750303b155b8061135c575060005460ff16155b6113785760405162461bcd60e51b81526004016104b690611ac1565b600054610100900460ff1615801561139a576000805461ffff19166101011790555b83516113ad9060059060208701906116e8565b5082516113c19060069060208601906116e8565b506007805460ff191660ff8416179055610eec63a219a02560e01b61157d565b600054610100900460ff16806113f65750303b155b80611404575060005460ff16155b6114205760405162461bcd60e51b81526004016104b690611ac1565b600054610100900460ff16158015611442576000805461ffff19166101011790555b6109e0611617565b600082815260086020526040808220600101805490849055905190918391839186917fbd79b86ffe0ab8e8776151514217cd7cacd52c909f66475c3af44e129f0b00ff9190a4505050565b6105b38282610aee565b600054610100900460ff16806114b45750303b155b806114c2575060005460ff16155b6114de5760405162461bcd60e51b81526004016104b690611ac1565b600054610100900460ff16158015611500576000805461ffff19166101011790555b6109e06301ffc9a760e01b61157d565b600054610100900460ff16806115255750303b155b80611533575060005460ff16155b61154f5760405162461bcd60e51b81526004016104b690611ac1565b600054610100900460ff16158015611571576000805461ffff19166101011790555b6109e0636578737160e01b5b6001600160e01b031980821614156115ef5760405162461bcd60e51b815260206004820152602f60248201527f4b495031333a3a5f7265676973746572496e746572666163653a20696e76616c60448201526e1a59081a5b9d195c999858d9481a59608a1b60648201526084016104b6565b6001600160e01b0319166000908152600160208190526040909120805460ff19169091179055565b600054610100900460ff168061162c5750303b155b8061163a575060005460ff16155b6116565760405162461bcd60e51b81526004016104b690611ac1565b600054610100900460ff16158015611678576000805461ffff19166101011790555b61168a6437bbb732b960d91b33611495565b6116a46430b236b4b760d91b6437bbb732b960d91b61144a565b6116c16737b832b930ba37b960c11b6437bbb732b960d91b61144a565b6116d36430b236b4b760d91b33611495565b6109e06737b832b930ba37b960c11b33611495565b8280546116f490611b3e565b90600052602060002090601f016020900481019282611716576000855561175c565b82601f1061172f57805160ff191683800117855561175c565b8280016001018555821561175c579182015b8281111561175c578251825591602001919060010190611741565b5061176892915061176c565b5090565b5b80821115611768576000815560010161176d565b80356001600160a01b03811681146103f457600080fd5b600082601f8301126117a8578081fd5b813567ffffffffffffffff808211156117c3576117c3611b8f565b604051601f8301601f19908116603f011681019082821181831017156117eb576117eb611b8f565b81604052838152866020858801011115611803578485fd5b8360208701602083013792830160200193909352509392505050565b600060208284031215611830578081fd5b6104c982611781565b6000806040838503121561184b578081fd5b61185483611781565b915061186260208401611781565b90509250929050565b60008060006060848603121561187f578081fd5b61188884611781565b925061189660208501611781565b9150604084013590509250925092565b600080600080608085870312156118bb578081fd5b6118c485611781565b93506118d260208601611781565b925060408501359150606085013567ffffffffffffffff8111156118f4578182fd5b61190087828801611798565b91505092959194509250565b6000806040838503121561191e578182fd5b61192783611781565b946020939093013593505050565b600080600060608486031215611949578283fd5b61195284611781565b925060208401359150604084013567ffffffffffffffff811115611974578182fd5b61198086828701611798565b9150509250925092565b60006020828403121561199b578081fd5b5035919050565b600080604083850312156119b4578182fd5b8235915061186260208401611781565b6000602082840312156119d5578081fd5b81356104c981611ba5565b6000602082840312156119f1578081fd5b81516104c981611ba5565b60008151808452815b81811015611a2157602081850181015186830182015201611a05565b81811115611a325782602083870101525b50601f01601f19169290920160200192915050565b6001600160a01b0385811682528416602082015260408101839052608060608201819052600090611a7a908301846119fc565b9695505050505050565b6000602082526104c960208301846119fc565b60208082526010908201526f14185d5cd8589b194e881c185d5cd95960821b604082015260600190565b6020808252602e908201527f496e697469616c697a61626c653a20636f6e747261637420697320616c72656160408201526d191e481a5b9a5d1a585b1a5e995960921b606082015260800190565b60008219821115611b2257611b22611b79565b500190565b600082821015611b3957611b39611b79565b500390565b600181811c90821680611b5257607f821691505b60208210811415611b7357634e487b7160e01b600052602260045260246000fd5b50919050565b634e487b7160e01b600052601160045260246000fd5b634e487b7160e01b600052604160045260246000fd5b6001600160e01b0319811681146109f257600080fdfea264697066735822122018387d058107f6c937c2a076d87b8377e3679e2966015154efa61977dede6f1164736f6c63430008030033",
  "devdoc": {
    "kind": "dev",
    "methods": {},
    "title": "A governance token",
    "version": 1
  },
  "userdoc": {
    "kind": "user",
    "methods": {},
    "version": 1
  },
  "storageLayout": {
    "storage": [
      {
        "astId": 12898,
        "contract": "contracts/governance/KokoaToken.sol:KokoaToken",
        "label": "_initialized",
        "offset": 0,
        "slot": "0",
        "type": "t_bool"
      },
      {
        "astId": 12901,
        "contract": "contracts/governance/KokoaToken.sol:KokoaToken",
        "label": "_initializing",
        "offset": 1,
        "slot": "0",
        "type": "t_bool"
      },
      {
        "astId": 10853,
        "contract": "contracts/governance/KokoaToken.sol:KokoaToken",
        "label": "_supportedInterfaces",
        "offset": 0,
        "slot": "1",
        "type": "t_mapping(t_bytes4,t_bool)"
      },
      {
        "astId": 10917,
        "contract": "contracts/governance/KokoaToken.sol:KokoaToken",
        "label": "_balances",
        "offset": 0,
        "slot": "2",
        "type": "t_mapping(t_address,t_uint256)"
      },
      {
        "astId": 10923,
        "contract": "contracts/governance/KokoaToken.sol:KokoaToken",
        "label": "_allowances",
        "offset": 0,
        "slot": "3",
        "type": "t_mapping(t_address,t_mapping(t_address,t_uint256))"
      },
      {
        "astId": 10925,
        "contract": "contracts/governance/KokoaToken.sol:KokoaToken",
        "label": "_totalSupply",
        "offset": 0,
        "slot": "4",
        "type": "t_uint256"
      },
      {
        "astId": 11305,
        "contract": "contracts/governance/KokoaToken.sol:KokoaToken",
        "label": "_name",
        "offset": 0,
        "slot": "5",
        "type": "t_string_storage"
      },
      {
        "astId": 11307,
        "contract": "contracts/governance/KokoaToken.sol:KokoaToken",
        "label": "_symbol",
        "offset": 0,
        "slot": "6",
        "type": "t_string_storage"
      },
      {
        "astId": 11309,
        "contract": "contracts/governance/KokoaToken.sol:KokoaToken",
        "label": "_decimals",
        "offset": 0,
        "slot": "7",
        "type": "t_uint8"
      },
      {
        "astId": 9953,
        "contract": "contracts/governance/KokoaToken.sol:KokoaToken",
        "label": "_roles",
        "offset": 0,
        "slot": "8",
        "type": "t_mapping(t_bytes32,t_struct(RoleData)9948_storage)"
      },
      {
        "astId": 10343,
        "contract": "contracts/governance/KokoaToken.sol:KokoaToken",
        "label": "_paused",
        "offset": 0,
        "slot": "9",
        "type": "t_bool"
      }
    ],
    "types": {
      "t_address": {
        "encoding": "inplace",
        "label": "address",
        "numberOfBytes": "20"
      },
      "t_bool": {
        "encoding": "inplace",
        "label": "bool",
        "numberOfBytes": "1"
      },
      "t_bytes32": {
        "encoding": "inplace",
        "label": "bytes32",
        "numberOfBytes": "32"
      },
      "t_bytes4": {
        "encoding": "inplace",
        "label": "bytes4",
        "numberOfBytes": "4"
      },
      "t_mapping(t_address,t_bool)": {
        "encoding": "mapping",
        "key": "t_address",
        "label": "mapping(address => bool)",
        "numberOfBytes": "32",
        "value": "t_bool"
      },
      "t_mapping(t_address,t_mapping(t_address,t_uint256))": {
        "encoding": "mapping",
        "key": "t_address",
        "label": "mapping(address => mapping(address => uint256))",
        "numberOfBytes": "32",
        "value": "t_mapping(t_address,t_uint256)"
      },
      "t_mapping(t_address,t_uint256)": {
        "encoding": "mapping",
        "key": "t_address",
        "label": "mapping(address => uint256)",
        "numberOfBytes": "32",
        "value": "t_uint256"
      },
      "t_mapping(t_bytes32,t_struct(RoleData)9948_storage)": {
        "encoding": "mapping",
        "key": "t_bytes32",
        "label": "mapping(bytes32 => struct AccessControl.RoleData)",
        "numberOfBytes": "32",
        "value": "t_struct(RoleData)9948_storage"
      },
      "t_mapping(t_bytes4,t_bool)": {
        "encoding": "mapping",
        "key": "t_bytes4",
        "label": "mapping(bytes4 => bool)",
        "numberOfBytes": "32",
        "value": "t_bool"
      },
      "t_string_storage": {
        "encoding": "bytes",
        "label": "string",
        "numberOfBytes": "32"
      },
      "t_struct(RoleData)9948_storage": {
        "encoding": "inplace",
        "label": "struct AccessControl.RoleData",
        "members": [
          {
            "astId": 9945,
            "contract": "contracts/governance/KokoaToken.sol:KokoaToken",
            "label": "members",
            "offset": 0,
            "slot": "0",
            "type": "t_mapping(t_address,t_bool)"
          },
          {
            "astId": 9947,
            "contract": "contracts/governance/KokoaToken.sol:KokoaToken",
            "label": "adminRole",
            "offset": 0,
            "slot": "1",
            "type": "t_bytes32"
          }
        ],
        "numberOfBytes": "64"
      },
      "t_uint256": {
        "encoding": "inplace",
        "label": "uint256",
        "numberOfBytes": "32"
      },
      "t_uint8": {
        "encoding": "inplace",
        "label": "uint8",
        "numberOfBytes": "1"
      }
    }
  }
}