{
  "address": "0x17871169C52541bca33BaCD7F4830173CB7aa691",
  "abi": [
    {
      "anonymous": false,
      "inputs": [
        {
          "indexed": false,
          "internalType": "address",
          "name": "kspLpToken",
          "type": "address"
        },
        {
          "indexed": false,
          "internalType": "address",
          "name": "from",
          "type": "address"
        },
        {
          "indexed": false,
          "internalType": "address",
          "name": "to",
          "type": "address"
        },
        {
          "indexed": false,
          "internalType": "uint256",
          "name": "amount",
          "type": "uint256"
        },
        {
          "indexed": false,
          "internalType": "uint256",
          "name": "minMintAmount",
          "type": "uint256"
        }
      ],
      "name": "MigrateFromKSP",
      "type": "event"
    },
    {
      "anonymous": false,
      "inputs": [
        {
          "indexed": true,
          "internalType": "bytes32",
          "name": "role",
          "type": "bytes32"
        },
        {
          "indexed": true,
          "internalType": "bytes32",
          "name": "previousAdminRole",
          "type": "bytes32"
        },
        {
          "indexed": true,
          "internalType": "bytes32",
          "name": "newAdminRole",
          "type": "bytes32"
        }
      ],
      "name": "RoleAdminChanged",
      "type": "event"
    },
    {
      "anonymous": false,
      "inputs": [
        {
          "indexed": true,
          "internalType": "bytes32",
          "name": "role",
          "type": "bytes32"
        },
        {
          "indexed": true,
          "internalType": "address",
          "name": "account",
          "type": "address"
        },
        {
          "indexed": true,
          "internalType": "address",
          "name": "sender",
          "type": "address"
        }
      ],
      "name": "RoleGranted",
      "type": "event"
    },
    {
      "anonymous": false,
      "inputs": [
        {
          "indexed": true,
          "internalType": "bytes32",
          "name": "role",
          "type": "bytes32"
        },
        {
          "indexed": true,
          "internalType": "address",
          "name": "account",
          "type": "address"
        },
        {
          "indexed": true,
          "internalType": "address",
          "name": "sender",
          "type": "address"
        }
      ],
      "name": "RoleRevoked",
      "type": "event"
    },
    {
      "inputs": [],
      "name": "DEFAULT_ADMIN_ROLE",
      "outputs": [
        {
          "internalType": "bytes32",
          "name": "",
          "type": "bytes32"
        }
      ],
      "stateMutability": "view",
      "type": "function"
    },
    {
      "inputs": [],
      "name": "N_ALL_COINS",
      "outputs": [
        {
          "internalType": "uint256",
          "name": "",
          "type": "uint256"
        }
      ],
      "stateMutability": "view",
      "type": "function"
    },
    {
      "inputs": [
        {
          "internalType": "address",
          "name": "_i4iKSDDeposit",
          "type": "address"
        },
        {
          "internalType": "address",
          "name": "_ksd4EyeLpStakingPool",
          "type": "address"
        }
      ],
      "name": "__KSD4EYELpMigrator_init",
      "outputs": [],
      "stateMutability": "nonpayable",
      "type": "function"
    },
    {
      "inputs": [
        {
          "internalType": "address",
          "name": "kspLpToken",
          "type": "address"
        },
        {
          "internalType": "uint256",
          "name": "amount",
          "type": "uint256"
        }
      ],
      "name": "calcMigrateFromKSP",
      "outputs": [
        {
          "internalType": "uint256",
          "name": "",
          "type": "uint256"
        }
      ],
      "stateMutability": "view",
      "type": "function"
    },
    {
      "inputs": [
        {
          "internalType": "bytes32",
          "name": "what",
          "type": "bytes32"
        },
        {
          "internalType": "address",
          "name": "data",
          "type": "address"
        }
      ],
      "name": "config",
      "outputs": [],
      "stateMutability": "nonpayable",
      "type": "function"
    },
    {
      "inputs": [
        {
          "internalType": "bytes32",
          "name": "role",
          "type": "bytes32"
        }
      ],
      "name": "getRoleAdmin",
      "outputs": [
        {
          "internalType": "bytes32",
          "name": "",
          "type": "bytes32"
        }
      ],
      "stateMutability": "view",
      "type": "function"
    },
    {
      "inputs": [
        {
          "internalType": "bytes32",
          "name": "role",
          "type": "bytes32"
        },
        {
          "internalType": "address",
          "name": "account",
          "type": "address"
        }
      ],
      "name": "grantRole",
      "outputs": [],
      "stateMutability": "nonpayable",
      "type": "function"
    },
    {
      "inputs": [
        {
          "internalType": "bytes32",
          "name": "role",
          "type": "bytes32"
        },
        {
          "internalType": "address",
          "name": "account",
          "type": "address"
        }
      ],
      "name": "hasRole",
      "outputs": [
        {
          "internalType": "bool",
          "name": "",
          "type": "bool"
        }
      ],
      "stateMutability": "view",
      "type": "function"
    },
    {
      "inputs": [],
      "name": "i4iKSDDeposit",
      "outputs": [
        {
          "internalType": "contract IMetaPoolDeposit",
          "name": "",
          "type": "address"
        }
      ],
      "stateMutability": "view",
      "type": "function"
    },
    {
      "inputs": [],
      "name": "ksd4EyeLpStakingPool",
      "outputs": [
        {
          "internalType": "address",
          "name": "",
          "type": "address"
        }
      ],
      "stateMutability": "view",
      "type": "function"
    },
    {
      "inputs": [
        {
          "internalType": "address",
          "name": "kspLpToken",
          "type": "address"
        },
        {
          "internalType": "address",
          "name": "to",
          "type": "address"
        },
        {
          "internalType": "uint256",
          "name": "amount",
          "type": "uint256"
        },
        {
          "internalType": "uint256",
          "name": "minMintAmount",
          "type": "uint256"
        }
      ],
      "name": "migrateFromKSP",
      "outputs": [],
      "stateMutability": "nonpayable",
      "type": "function"
    },
    {
      "inputs": [
        {
          "internalType": "bytes32",
          "name": "role",
          "type": "bytes32"
        },
        {
          "internalType": "address",
          "name": "account",
          "type": "address"
        }
      ],
      "name": "renounceRole",
      "outputs": [],
      "stateMutability": "nonpayable",
      "type": "function"
    },
    {
      "inputs": [
        {
          "internalType": "bytes32",
          "name": "role",
          "type": "bytes32"
        },
        {
          "internalType": "address",
          "name": "account",
          "type": "address"
        }
      ],
      "name": "revokeRole",
      "outputs": [],
      "stateMutability": "nonpayable",
      "type": "function"
    },
    {
      "inputs": [
        {
          "internalType": "address",
          "name": "newOwner",
          "type": "address"
        }
      ],
      "name": "transferOwnership",
      "outputs": [],
      "stateMutability": "nonpayable",
      "type": "function"
    }
  ],
  "transactionHash": "0x0f118ad87e2598c24bd310c0bd98fdbe75c760bd2e6a33650c868941efeaed10",
  "args": [],
  "solcInputHash": "de4f5741dec2c2b2fd1b551e118f3df0",
  "bytecode": "0x608060405234801561001057600080fd5b50611696806100206000396000f3fe608060405234801561001057600080fd5b50600436106100ea5760003560e01c8063b25b8dd21161008c578063daf4f2a211610066578063daf4f2a2146101e5578063f0f6aeba146101f8578063f1cdcac41461020b578063f2fde38b1461021e576100ea565b8063b25b8dd2146101ac578063d366f3b9146101bf578063d547741f146101d2576100ea565b806336568abe116100c857806336568abe146101435780638b2f62891461015657806391d1485414610181578063a217fddf146101a4576100ea565b8063248a9ca3146100ef57806328cc61d5146101265780632f2ff15d1461012e575b600080fd5b6101136100fd3660046114e8565b6000908152600160208190526040909120015490565b6040519081526020015b60405180910390f35b610113600481565b61014161013c366004611500565b610231565b005b610141610151366004611500565b61025d565b600254610169906001600160a01b031681565b6040516001600160a01b03909116815260200161011d565b61019461018f366004611500565b6102e0565b604051901515815260200161011d565b610113600081565b6101136101ba36600461149d565b61030d565b6101416101cd366004611500565b61079c565b6101416101e0366004611500565b610883565b6101416101f3366004611458565b6108aa565b610141610206366004611420565b611184565b600354610169906001600160a01b031681565b61014161022c3660046113e1565b611272565b6000828152600160208190526040909120015461024e81336112ab565b610258838361130f565b505050565b6001600160a01b03811633146102d25760405162461bcd60e51b815260206004820152602f60248201527f416363657373436f6e74726f6c3a2063616e206f6e6c792072656e6f756e636560448201526e103937b632b9903337b91039b2b63360891b60648201526084015b60405180910390fd5b6102dc828261137a565b5050565b60008281526001602090815260408083206001600160a01b038516845290915290205460ff165b92915050565b60008161031c57506000610307565b6000836001600160a01b0316630fc63d106040518163ffffffff1660e01b815260040160206040518083038186803b15801561035757600080fd5b505afa15801561036b573d6000803e3d6000fd5b505050506040513d601f19601f8201168201806040525081019061038f9190611404565b90506000846001600160a01b0316635f64b55b6040518163ffffffff1660e01b815260040160206040518083038186803b1580156103cc57600080fd5b505afa1580156103e0573d6000803e3d6000fd5b505050506040513d601f19601f820116820180604052508101906104049190611404565b9050600080866001600160a01b0316631a595f656040518163ffffffff1660e01b8152600401604080518083038186803b15801561044157600080fd5b505afa158015610455573d6000803e3d6000fd5b505050506040513d601f19601f82011682018060405250810190610479919061153c565b915091506000876001600160a01b03166318160ddd6040518163ffffffff1660e01b815260040160206040518083038186803b1580156104b857600080fd5b505afa1580156104cc573d6000803e3d6000fd5b505050506040513d601f19601f820116820180604052508101906104f09190611524565b9050808711156105615760405162461bcd60e51b815260206004820152603660248201527f4b5344344559454c704d69677261746f723a3a2063616c634d696772617465466044820152751c9bdb52d4d40e881a5b9d985b1a5908185b5bdd5b9d60521b60648201526084016102c9565b60008161056e89866115ff565b61057891906115df565b90506000826105878a866115ff565b61059191906115df565b60408051600480825260a0820190925291925060009190602082016080803683370190505060025460405163b54c45a960e01b81526001600160a01b038b8116600483015292935085928492169063b54c45a99060240160206040518083038186803b15801561060057600080fd5b505afa158015610614573d6000803e3d6000fd5b505050506040513d601f19601f820116820180604052508101906106389190611524565b8151811061065657634e487b7160e01b600052603260045260246000fd5b602090810291909101015260025460405163b54c45a960e01b81526001600160a01b0389811660048301528492849291169063b54c45a99060240160206040518083038186803b1580156106a957600080fd5b505afa1580156106bd573d6000803e3d6000fd5b505050506040513d601f19601f820116820180604052508101906106e19190611524565b815181106106ff57634e487b7160e01b600052603260045260246000fd5b6020908102919091010152600254604051635bf2741f60e01b81526001600160a01b0390911690635bf2741f9061073d908490600190600401611599565b60206040518083038186803b15801561075557600080fd5b505afa158015610769573d6000803e3d6000fd5b505050506040513d601f19601f8201168201806040525081019061078d9190611524565b9b9a5050505050505050505050565b6107ae6430b236b4b760d91b336112ab565b816c1a4d1a52d4d111195c1bdcda5d609a1b14156107e657600280546001600160a01b0319166001600160a01b0383161790556102dc565b81731adcd90d115e59531c14dd185ada5b99d41bdbdb60621b141561082557600380546001600160a01b0319166001600160a01b0383161790556102dc565b60405162461bcd60e51b815260206004820152602d60248201527f4b5344344559454c704d69677261746f723a3a636f6e6669673a20756e72656360448201526c6f676e697a65642d706172616d60981b60648201526084016102c9565b600082815260016020819052604090912001546108a081336112ab565b610258838361137a565b816108b45761117e565b6040516323b872dd60e01b8152336004820152306024820152604481018390526001600160a01b038516906323b872dd90606401602060405180830381600087803b15801561090257600080fd5b505af1158015610916573d6000803e3d6000fd5b505050506040513d601f19601f8201168201806040525081019061093a91906114c8565b506000846001600160a01b0316630fc63d106040518163ffffffff1660e01b815260040160206040518083038186803b15801561097657600080fd5b505afa15801561098a573d6000803e3d6000fd5b505050506040513d601f19601f820116820180604052508101906109ae9190611404565b90506000856001600160a01b0316635f64b55b6040518163ffffffff1660e01b815260040160206040518083038186803b1580156109eb57600080fd5b505afa1580156109ff573d6000803e3d6000fd5b505050506040513d601f19601f82011682018060405250810190610a239190611404565b6040516370a0823160e01b81523060048201529091506000906001600160a01b038416906370a082319060240160206040518083038186803b158015610a6857600080fd5b505afa158015610a7c573d6000803e3d6000fd5b505050506040513d601f19601f82011682018060405250810190610aa09190611524565b6040516370a0823160e01b81523060048201529091506000906001600160a01b038416906370a082319060240160206040518083038186803b158015610ae557600080fd5b505afa158015610af9573d6000803e3d6000fd5b505050506040513d601f19601f82011682018060405250810190610b1d9190611524565b604051639c8f9f2360e01b8152600481018890529091506001600160a01b03891690639c8f9f2390602401600060405180830381600087803b158015610b6257600080fd5b505af1158015610b76573d6000803e3d6000fd5b50506040516370a0823160e01b8152306004820152600092508491506001600160a01b038716906370a082319060240160206040518083038186803b158015610bbe57600080fd5b505afa158015610bd2573d6000803e3d6000fd5b505050506040513d601f19601f82011682018060405250810190610bf69190611524565b610c00919061161e565b6040516370a0823160e01b815230600482015290915060009083906001600160a01b038716906370a082319060240160206040518083038186803b158015610c4757600080fd5b505afa158015610c5b573d6000803e3d6000fd5b505050506040513d601f19601f82011682018060405250810190610c7f9190611524565b610c89919061161e565b60025460405163095ea7b360e01b81526001600160a01b0391821660048201526024810185905291925087169063095ea7b390604401602060405180830381600087803b158015610cd957600080fd5b505af1158015610ced573d6000803e3d6000fd5b505050506040513d601f19601f82011682018060405250810190610d1191906114c8565b5060025460405163095ea7b360e01b81526001600160a01b039182166004820152602481018390529086169063095ea7b390604401602060405180830381600087803b158015610d6057600080fd5b505af1158015610d74573d6000803e3d6000fd5b505050506040513d601f19601f82011682018060405250810190610d9891906114c8565b5060408051600480825260a08201909252600091602082016080803683370190505060025460405163b54c45a960e01b81526001600160a01b038a8116600483015292935085928492169063b54c45a99060240160206040518083038186803b158015610e0457600080fd5b505afa158015610e18573d6000803e3d6000fd5b505050506040513d601f19601f82011682018060405250810190610e3c9190611524565b81518110610e5a57634e487b7160e01b600052603260045260246000fd5b602090810291909101015260025460405163b54c45a960e01b81526001600160a01b0388811660048301528492849291169063b54c45a99060240160206040518083038186803b158015610ead57600080fd5b505afa158015610ec1573d6000803e3d6000fd5b505050506040513d601f19601f82011682018060405250810190610ee59190611524565b81518110610f0357634e487b7160e01b600052603260045260246000fd5b60209081029190910101526002546040516318b7662d60e31b81526000916001600160a01b03169063c5bb316890610f419085908d906004016115bd565b602060405180830381600087803b158015610f5b57600080fd5b505af1158015610f6f573d6000803e3d6000fd5b505050506040513d601f19601f82011682018060405250810190610f939190611524565b9050600260009054906101000a90046001600160a01b03166001600160a01b031663fc0c546a6040518163ffffffff1660e01b815260040160206040518083038186803b158015610fe357600080fd5b505afa158015610ff7573d6000803e3d6000fd5b505050506040513d601f19601f8201168201806040525081019061101b9190611404565b60035460405163095ea7b360e01b81526001600160a01b0391821660048201526024810184905291169063095ea7b390604401602060405180830381600087803b15801561106857600080fd5b505af115801561107c573d6000803e3d6000fd5b505050506040513d601f19601f820116820180604052508101906110a091906114c8565b506003546040516356e4bb9760e11b81526001600160a01b038d81166004830152602482018490529091169063adc9772e90604401600060405180830381600087803b1580156110ef57600080fd5b505af1158015611103573d6000803e3d6000fd5b505050507f904dca18cf1e74d3140ddcf4eeda4ddb2a295ad51459dfa7e2f2848d49ca0a718c338d8d8d60405161116d9594939291906001600160a01b03958616815293851660208501529190931660408301526060820192909252608081019190915260a00190565b60405180910390a150505050505050505b50505050565b600054610100900460ff16806111995750303b155b806111a7575060005460ff16155b61120a5760405162461bcd60e51b815260206004820152602e60248201527f496e697469616c697a61626c653a20636f6e747261637420697320616c72656160448201526d191e481a5b9a5d1a585b1a5e995960921b60648201526084016102c9565b600054610100900460ff1615801561122c576000805461ffff19166101011790555b600280546001600160a01b038086166001600160a01b03199283161790925560038054928516929091169190911790558015610258576000805461ff0019169055505050565b6112846437bbb732b960d91b336112ab565b6112966437bbb732b960d91b8261130f565b6112a86437bbb732b960d91b3361137a565b50565b6112b582826102e0565b6102dc5760405162461bcd60e51b815260206004820152602560248201527f416363657373436f6e74726f6c3a5f636865636b526f6c653a696e76616c696460448201526420726f6c6560d81b60648201526084016102c9565b61131982826102e0565b6102dc5760008281526001602081815260408084206001600160a01b0386168086529252808420805460ff19169093179092559051339285917f2f8788117e7eff1d82e926ec794901d17c78024a50270940304540a733656f0d9190a45050565b61138482826102e0565b156102dc5760008281526001602090815260408083206001600160a01b0385168085529252808320805460ff1916905551339285917ff6391f5c32d9c69d2a47ea670b442974b53935d1edc7fd64eb21e047a839171b9190a45050565b6000602082840312156113f2578081fd5b81356113fd8161164b565b9392505050565b600060208284031215611415578081fd5b81516113fd8161164b565b60008060408385031215611432578081fd5b823561143d8161164b565b9150602083013561144d8161164b565b809150509250929050565b6000806000806080858703121561146d578182fd5b84356114788161164b565b935060208501356114888161164b565b93969395505050506040820135916060013590565b600080604083850312156114af578182fd5b82356114ba8161164b565b946020939093013593505050565b6000602082840312156114d9578081fd5b815180151581146113fd578182fd5b6000602082840312156114f9578081fd5b5035919050565b60008060408385031215611512578182fd5b82359150602083013561144d8161164b565b600060208284031215611535578081fd5b5051919050565b6000806040838503121561154e578182fd5b505080516020909101519092909150565b6000815180845260208085019450808401835b8381101561158e57815187529582019590820190600101611572565b509495945050505050565b6000604082526115ac604083018561155f565b905082151560208301529392505050565b6000604082526115d0604083018561155f565b90508260208301529392505050565b6000826115fa57634e487b7160e01b81526012600452602481fd5b500490565b600081600019048311821515161561161957611619611635565b500290565b60008282101561163057611630611635565b500390565b634e487b7160e01b600052601160045260246000fd5b6001600160a01b03811681146112a857600080fdfea264697066735822122064ce4e4dea924d5c17918d23e11495abb88ab42787140786e4ea4daee77d3ddb64736f6c63430008030033",
  "devdoc": {
    "kind": "dev",
    "methods": {},
    "version": 1
  },
  "userdoc": {
    "kind": "user",
    "methods": {},
    "version": 1
  },
  "storageLayout": {
    "storage": [
      {
        "astId": 24885,
        "contract": "contracts/utils/KSD4EYELpMigrator.sol:KSD4EYELpMigrator",
        "label": "_initialized",
        "offset": 0,
        "slot": "0",
        "type": "t_bool"
      },
      {
        "astId": 24888,
        "contract": "contracts/utils/KSD4EYELpMigrator.sol:KSD4EYELpMigrator",
        "label": "_initializing",
        "offset": 1,
        "slot": "0",
        "type": "t_bool"
      },
      {
        "astId": 21831,
        "contract": "contracts/utils/KSD4EYELpMigrator.sol:KSD4EYELpMigrator",
        "label": "_roles",
        "offset": 0,
        "slot": "1",
        "type": "t_mapping(t_bytes32,t_struct(RoleData)21826_storage)"
      },
      {
        "astId": 38012,
        "contract": "contracts/utils/KSD4EYELpMigrator.sol:KSD4EYELpMigrator",
        "label": "i4iKSDDeposit",
        "offset": 0,
        "slot": "2",
        "type": "t_contract(IMetaPoolDeposit)9817"
      },
      {
        "astId": 38014,
        "contract": "contracts/utils/KSD4EYELpMigrator.sol:KSD4EYELpMigrator",
        "label": "ksd4EyeLpStakingPool",
        "offset": 0,
        "slot": "3",
        "type": "t_address"
      }
    ],
    "types": {
      "t_address": {
        "encoding": "inplace",
        "label": "address",
        "numberOfBytes": "20"
      },
      "t_bool": {
        "encoding": "inplace",
        "label": "bool",
        "numberOfBytes": "1"
      },
      "t_bytes32": {
        "encoding": "inplace",
        "label": "bytes32",
        "numberOfBytes": "32"
      },
      "t_contract(IMetaPoolDeposit)9817": {
        "encoding": "inplace",
        "label": "contract IMetaPoolDeposit",
        "numberOfBytes": "20"
      },
      "t_mapping(t_address,t_bool)": {
        "encoding": "mapping",
        "key": "t_address",
        "label": "mapping(address => bool)",
        "numberOfBytes": "32",
        "value": "t_bool"
      },
      "t_mapping(t_bytes32,t_struct(RoleData)21826_storage)": {
        "encoding": "mapping",
        "key": "t_bytes32",
        "label": "mapping(bytes32 => struct AccessControl.RoleData)",
        "numberOfBytes": "32",
        "value": "t_struct(RoleData)21826_storage"
      },
      "t_struct(RoleData)21826_storage": {
        "encoding": "inplace",
        "label": "struct AccessControl.RoleData",
        "members": [
          {
            "astId": 21823,
            "contract": "contracts/utils/KSD4EYELpMigrator.sol:KSD4EYELpMigrator",
            "label": "members",
            "offset": 0,
            "slot": "0",
            "type": "t_mapping(t_address,t_bool)"
          },
          {
            "astId": 21825,
            "contract": "contracts/utils/KSD4EYELpMigrator.sol:KSD4EYELpMigrator",
            "label": "adminRole",
            "offset": 0,
            "slot": "1",
            "type": "t_bytes32"
          }
        ],
        "numberOfBytes": "64"
      }
    }
  }
}