{
  "address": "0x281c249F83A5056aDEcaB8893722A2caBF8223A9",
  "abi": [
    {
      "anonymous": false,
      "inputs": [
        {
          "indexed": true,
          "internalType": "address",
          "name": "owner",
          "type": "address"
        },
        {
          "indexed": true,
          "internalType": "address",
          "name": "spender",
          "type": "address"
        },
        {
          "indexed": false,
          "internalType": "uint256",
          "name": "value",
          "type": "uint256"
        }
      ],
      "name": "Approval",
      "type": "event"
    },
    {
      "anonymous": false,
      "inputs": [
        {
          "indexed": false,
          "internalType": "address",
          "name": "minter",
          "type": "address"
        },
        {
          "indexed": false,
          "internalType": "address",
          "name": "borrower",
          "type": "address"
        },
        {
          "indexed": false,
          "internalType": "uint256",
          "name": "amount",
          "type": "uint256"
        }
      ],
      "name": "FlashMint",
      "type": "event"
    },
    {
      "anonymous": false,
      "inputs": [
        {
          "indexed": false,
          "internalType": "address",
          "name": "account",
          "type": "address"
        }
      ],
      "name": "Paused",
      "type": "event"
    },
    {
      "anonymous": false,
      "inputs": [
        {
          "indexed": true,
          "internalType": "bytes32",
          "name": "role",
          "type": "bytes32"
        },
        {
          "indexed": true,
          "internalType": "bytes32",
          "name": "previousAdminRole",
          "type": "bytes32"
        },
        {
          "indexed": true,
          "internalType": "bytes32",
          "name": "newAdminRole",
          "type": "bytes32"
        }
      ],
      "name": "RoleAdminChanged",
      "type": "event"
    },
    {
      "anonymous": false,
      "inputs": [
        {
          "indexed": true,
          "internalType": "bytes32",
          "name": "role",
          "type": "bytes32"
        },
        {
          "indexed": true,
          "internalType": "address",
          "name": "account",
          "type": "address"
        },
        {
          "indexed": true,
          "internalType": "address",
          "name": "sender",
          "type": "address"
        }
      ],
      "name": "RoleGranted",
      "type": "event"
    },
    {
      "anonymous": false,
      "inputs": [
        {
          "indexed": true,
          "internalType": "bytes32",
          "name": "role",
          "type": "bytes32"
        },
        {
          "indexed": true,
          "internalType": "address",
          "name": "account",
          "type": "address"
        },
        {
          "indexed": true,
          "internalType": "address",
          "name": "sender",
          "type": "address"
        }
      ],
      "name": "RoleRevoked",
      "type": "event"
    },
    {
      "anonymous": false,
      "inputs": [
        {
          "indexed": true,
          "internalType": "address",
          "name": "from",
          "type": "address"
        },
        {
          "indexed": true,
          "internalType": "address",
          "name": "to",
          "type": "address"
        },
        {
          "indexed": false,
          "internalType": "uint256",
          "name": "value",
          "type": "uint256"
        }
      ],
      "name": "Transfer",
      "type": "event"
    },
    {
      "anonymous": false,
      "inputs": [
        {
          "indexed": false,
          "internalType": "address",
          "name": "account",
          "type": "address"
        }
      ],
      "name": "Unpaused",
      "type": "event"
    },
    {
      "inputs": [],
      "name": "DEFAULT_ADMIN_ROLE",
      "outputs": [
        {
          "internalType": "bytes32",
          "name": "",
          "type": "bytes32"
        }
      ],
      "stateMutability": "view",
      "type": "function"
    },
    {
      "inputs": [],
      "name": "DOMAIN_TYPEHASH",
      "outputs": [
        {
          "internalType": "bytes32",
          "name": "",
          "type": "bytes32"
        }
      ],
      "stateMutability": "view",
      "type": "function"
    },
    {
      "inputs": [],
      "name": "PERMIT_TYPEHASH",
      "outputs": [
        {
          "internalType": "bytes32",
          "name": "",
          "type": "bytes32"
        }
      ],
      "stateMutability": "view",
      "type": "function"
    },
    {
      "inputs": [
        {
          "internalType": "uint256",
          "name": "chainId_",
          "type": "uint256"
        }
      ],
      "name": "__KSD_init",
      "outputs": [],
      "stateMutability": "nonpayable",
      "type": "function"
    },
    {
      "inputs": [
        {
          "internalType": "address",
          "name": "owner",
          "type": "address"
        },
        {
          "internalType": "address",
          "name": "spender",
          "type": "address"
        }
      ],
      "name": "allowance",
      "outputs": [
        {
          "internalType": "uint256",
          "name": "",
          "type": "uint256"
        }
      ],
      "stateMutability": "view",
      "type": "function"
    },
    {
      "inputs": [
        {
          "internalType": "address",
          "name": "spender",
          "type": "address"
        },
        {
          "internalType": "uint256",
          "name": "value",
          "type": "uint256"
        }
      ],
      "name": "approve",
      "outputs": [
        {
          "internalType": "bool",
          "name": "",
          "type": "bool"
        }
      ],
      "stateMutability": "nonpayable",
      "type": "function"
    },
    {
      "inputs": [
        {
          "internalType": "address",
          "name": "account",
          "type": "address"
        }
      ],
      "name": "balanceOf",
      "outputs": [
        {
          "internalType": "uint256",
          "name": "",
          "type": "uint256"
        }
      ],
      "stateMutability": "view",
      "type": "function"
    },
    {
      "inputs": [
        {
          "internalType": "address",
          "name": "account",
          "type": "address"
        },
        {
          "internalType": "uint256",
          "name": "value",
          "type": "uint256"
        }
      ],
      "name": "burn",
      "outputs": [
        {
          "internalType": "bool",
          "name": "",
          "type": "bool"
        }
      ],
      "stateMutability": "nonpayable",
      "type": "function"
    },
    {
      "inputs": [],
      "name": "chainId",
      "outputs": [
        {
          "internalType": "uint256",
          "name": "",
          "type": "uint256"
        }
      ],
      "stateMutability": "view",
      "type": "function"
    },
    {
      "inputs": [],
      "name": "decimals",
      "outputs": [
        {
          "internalType": "uint8",
          "name": "",
          "type": "uint8"
        }
      ],
      "stateMutability": "view",
      "type": "function"
    },
    {
      "inputs": [
        {
          "internalType": "address",
          "name": "account",
          "type": "address"
        },
        {
          "internalType": "uint256",
          "name": "amount",
          "type": "uint256"
        },
        {
          "internalType": "bytes",
          "name": "data",
          "type": "bytes"
        }
      ],
      "name": "flashMint",
      "outputs": [],
      "stateMutability": "nonpayable",
      "type": "function"
    },
    {
      "inputs": [
        {
          "internalType": "bytes32",
          "name": "role",
          "type": "bytes32"
        }
      ],
      "name": "getRoleAdmin",
      "outputs": [
        {
          "internalType": "bytes32",
          "name": "",
          "type": "bytes32"
        }
      ],
      "stateMutability": "view",
      "type": "function"
    },
    {
      "inputs": [
        {
          "internalType": "bytes32",
          "name": "role",
          "type": "bytes32"
        },
        {
          "internalType": "address",
          "name": "account",
          "type": "address"
        }
      ],
      "name": "grantRole",
      "outputs": [],
      "stateMutability": "nonpayable",
      "type": "function"
    },
    {
      "inputs": [
        {
          "internalType": "bytes32",
          "name": "role",
          "type": "bytes32"
        },
        {
          "internalType": "address",
          "name": "account",
          "type": "address"
        }
      ],
      "name": "hasRole",
      "outputs": [
        {
          "internalType": "bool",
          "name": "",
          "type": "bool"
        }
      ],
      "stateMutability": "view",
      "type": "function"
    },
    {
      "inputs": [
        {
          "internalType": "address",
          "name": "account",
          "type": "address"
        },
        {
          "internalType": "uint256",
          "name": "amount",
          "type": "uint256"
        }
      ],
      "name": "mint",
      "outputs": [
        {
          "internalType": "bool",
          "name": "",
          "type": "bool"
        }
      ],
      "stateMutability": "nonpayable",
      "type": "function"
    },
    {
      "inputs": [],
      "name": "name",
      "outputs": [
        {
          "internalType": "string",
          "name": "",
          "type": "string"
        }
      ],
      "stateMutability": "view",
      "type": "function"
    },
    {
      "inputs": [],
      "name": "pause",
      "outputs": [],
      "stateMutability": "nonpayable",
      "type": "function"
    },
    {
      "inputs": [],
      "name": "paused",
      "outputs": [
        {
          "internalType": "bool",
          "name": "",
          "type": "bool"
        }
      ],
      "stateMutability": "view",
      "type": "function"
    },
    {
      "inputs": [
        {
          "internalType": "address",
          "name": "holder",
          "type": "address"
        },
        {
          "internalType": "address",
          "name": "spender",
          "type": "address"
        },
        {
          "internalType": "uint256",
          "name": "nonce",
          "type": "uint256"
        },
        {
          "internalType": "uint256",
          "name": "expiry",
          "type": "uint256"
        },
        {
          "internalType": "bool",
          "name": "allowed",
          "type": "bool"
        },
        {
          "internalType": "uint8",
          "name": "v",
          "type": "uint8"
        },
        {
          "internalType": "bytes32",
          "name": "r",
          "type": "bytes32"
        },
        {
          "internalType": "bytes32",
          "name": "s",
          "type": "bytes32"
        }
      ],
      "name": "permit",
      "outputs": [],
      "stateMutability": "nonpayable",
      "type": "function"
    },
    {
      "inputs": [
        {
          "internalType": "bytes32",
          "name": "role",
          "type": "bytes32"
        },
        {
          "internalType": "address",
          "name": "account",
          "type": "address"
        }
      ],
      "name": "renounceRole",
      "outputs": [],
      "stateMutability": "nonpayable",
      "type": "function"
    },
    {
      "inputs": [
        {
          "internalType": "bytes32",
          "name": "role",
          "type": "bytes32"
        },
        {
          "internalType": "address",
          "name": "account",
          "type": "address"
        }
      ],
      "name": "revokeRole",
      "outputs": [],
      "stateMutability": "nonpayable",
      "type": "function"
    },
    {
      "inputs": [
        {
          "internalType": "address",
          "name": "recipient",
          "type": "address"
        },
        {
          "internalType": "uint256",
          "name": "amount",
          "type": "uint256"
        }
      ],
      "name": "safeTransfer",
      "outputs": [],
      "stateMutability": "nonpayable",
      "type": "function"
    },
    {
      "inputs": [
        {
          "internalType": "address",
          "name": "recipient",
          "type": "address"
        },
        {
          "internalType": "uint256",
          "name": "amount",
          "type": "uint256"
        },
        {
          "internalType": "bytes",
          "name": "data",
          "type": "bytes"
        }
      ],
      "name": "safeTransfer",
      "outputs": [],
      "stateMutability": "nonpayable",
      "type": "function"
    },
    {
      "inputs": [
        {
          "internalType": "address",
          "name": "sender",
          "type": "address"
        },
        {
          "internalType": "address",
          "name": "recipient",
          "type": "address"
        },
        {
          "internalType": "uint256",
          "name": "amount",
          "type": "uint256"
        }
      ],
      "name": "safeTransferFrom",
      "outputs": [],
      "stateMutability": "nonpayable",
      "type": "function"
    },
    {
      "inputs": [
        {
          "internalType": "address",
          "name": "sender",
          "type": "address"
        },
        {
          "internalType": "address",
          "name": "recipient",
          "type": "address"
        },
        {
          "internalType": "uint256",
          "name": "amount",
          "type": "uint256"
        },
        {
          "internalType": "bytes",
          "name": "data",
          "type": "bytes"
        }
      ],
      "name": "safeTransferFrom",
      "outputs": [],
      "stateMutability": "nonpayable",
      "type": "function"
    },
    {
      "inputs": [
        {
          "internalType": "bytes4",
          "name": "interfaceId",
          "type": "bytes4"
        }
      ],
      "name": "supportsInterface",
      "outputs": [
        {
          "internalType": "bool",
          "name": "",
          "type": "bool"
        }
      ],
      "stateMutability": "view",
      "type": "function"
    },
    {
      "inputs": [],
      "name": "symbol",
      "outputs": [
        {
          "internalType": "string",
          "name": "",
          "type": "string"
        }
      ],
      "stateMutability": "view",
      "type": "function"
    },
    {
      "inputs": [],
      "name": "totalSupply",
      "outputs": [
        {
          "internalType": "uint256",
          "name": "",
          "type": "uint256"
        }
      ],
      "stateMutability": "view",
      "type": "function"
    },
    {
      "inputs": [
        {
          "internalType": "address",
          "name": "recipient",
          "type": "address"
        },
        {
          "internalType": "uint256",
          "name": "amount",
          "type": "uint256"
        }
      ],
      "name": "transfer",
      "outputs": [
        {
          "internalType": "bool",
          "name": "",
          "type": "bool"
        }
      ],
      "stateMutability": "nonpayable",
      "type": "function"
    },
    {
      "inputs": [
        {
          "internalType": "address",
          "name": "sender",
          "type": "address"
        },
        {
          "internalType": "address",
          "name": "recipient",
          "type": "address"
        },
        {
          "internalType": "uint256",
          "name": "amount",
          "type": "uint256"
        }
      ],
      "name": "transferFrom",
      "outputs": [
        {
          "internalType": "bool",
          "name": "",
          "type": "bool"
        }
      ],
      "stateMutability": "nonpayable",
      "type": "function"
    },
    {
      "inputs": [
        {
          "internalType": "address",
          "name": "newOwner",
          "type": "address"
        }
      ],
      "name": "transferOwnership",
      "outputs": [],
      "stateMutability": "nonpayable",
      "type": "function"
    },
    {
      "inputs": [],
      "name": "unpause",
      "outputs": [],
      "stateMutability": "nonpayable",
      "type": "function"
    },
    {
      "inputs": [],
      "name": "version",
      "outputs": [
        {
          "internalType": "string",
          "name": "",
          "type": "string"
        }
      ],
      "stateMutability": "view",
      "type": "function"
    }
  ],
  "transactionHash": "0x9de2fb1ee5e41b48beb7a5509847129fc9656e33cd3c7590e1ae029a13a24be6",
  "args": [],
  "solcInputHash": "daac9cba34dfabe5953ff704314717f0",
  "bytecode": "0x608060405234801561001057600080fd5b50612372806100206000396000f3fe608060405234801561001057600080fd5b50600436106101fb5760003560e01c806354fd4d501161011a5780639dc29fac116100ad578063d547741f1161007c578063d547741f1461044a578063dd62ed3e1461045d578063e067da1c14610496578063eb795549146104a9578063f2fde38b146104bc576101fb565b80639dc29fac14610409578063a217fddf1461041c578063a9059cbb14610424578063b88d4fde14610437576101fb565b80638fcbaf0c116100e95780638fcbaf0c146103d357806391d14854146103e657806395d89b41146103f95780639a8a059214610401576101fb565b806354fd4d50146103775780635c975abb1461039757806370a08231146103a25780638456cb59146103cb576101fb565b806330adf81f116101925780633f4ba83a116101615780633f4ba83a1461033657806340c10f191461033e578063423f6cef1461035157806342842e0e14610364576101fb565b806330adf81f146102d4578063313ce567146102fb57806336568abe146103105780633ea2146514610323576101fb565b806320606b70116101ce57806320606b701461026257806323b872dd14610289578063248a9ca31461029c5780632f2ff15d146102bf576101fb565b806301ffc9a71461020057806306fdde0314610228578063095ea7b31461023d57806318160ddd14610250575b600080fd5b61021361020e3660046120e2565b6104cf565b60405190151581526020015b60405180910390f35b6102306104f2565b60405161021f91906121ea565b61021361024b366004611fa8565b610584565b6004545b60405190815260200161021f565b6102547f8b73c3c69bb8fe3d512ecc4cf759cc79239f7b179b0ffacaa9a75d522b39400f81565b610213610297366004611e80565b6105c9565b6102546102aa3660046120a8565b60009081526008602052604090206001015490565b6102d26102cd3660046120c0565b610607565b005b6102547fea2aa0a1be11a07ed86d755c93467f4f82362b452371d1ba94d1715123511acb81565b60075460405160ff909116815260200161021f565b6102d261031e3660046120c0565b610632565b6102d2610331366004611fd1565b6106b0565b6102d26107ed565b61021361034c366004611fa8565b61088b565b6102d261035f366004611fa8565b6108d5565b6102d2610372366004611e80565b6108ef565b610230604051806040016040528060018152602001603160f81b81525081565b60095460ff16610213565b6102546103b0366004611e34565b6001600160a01b031660009081526002602052604090205490565b6102d261090a565b6102d26103e1366004611f21565b61097e565b6102136103f43660046120c0565b610d35565b610230610d60565b600b54610254565b610213610417366004611fa8565b610d6f565b610254600081565b610213610432366004611fa8565b610db0565b6102d2610445366004611ebb565b610de5565b6102d26104583660046120c0565b610e77565b61025461046b366004611e4e565b6001600160a01b03918216600090815260036020908152604080832093909416825291909152205490565b6102d26104a43660046120a8565b610e9d565b6102d26104b7366004612053565b610f6a565b6102d26104ca366004611e34565b610ff3565b6001600160e01b0319811660009081526001602052604090205460ff165b919050565b606060058054610501906122a4565b80601f016020809104026020016040519081016040528092919081815260200182805461052d906122a4565b801561057a5780601f1061054f5761010080835404028352916020019161057a565b820191906000526020600020905b81548152906001019060200180831161055d57829003601f168201915b5050505050905090565b600061059260095460ff1690565b156105b85760405162461bcd60e51b81526004016105af906121fd565b60405180910390fd5b6105c2838361102c565b9392505050565b60006105d760095460ff1690565b156105f45760405162461bcd60e51b81526004016105af906121fd565b6105ff848484611039565b949350505050565b600082815260086020526040902060010154610623813361108b565b61062d83836110ef565b505050565b6001600160a01b03811633146106a25760405162461bcd60e51b815260206004820152602f60248201527f416363657373436f6e74726f6c3a2063616e206f6e6c792072656e6f756e636560448201526e103937b632b9903337b91039b2b63360891b60648201526084016105af565b6106ac8282611158565b5050565b6106c56737b832b930ba37b960c11b3361108b565b6004546106d285856111bf565b60405163dba57ed960e01b81526001600160a01b0386169063dba57ed9906107049030908890889088906004016121a2565b600060405180830381600087803b15801561071e57600080fd5b505af1158015610732573d6000803e3d6000fd5b5050505061074085856112bd565b806004541461079d5760405162461bcd60e51b815260206004820152602360248201527f4b53443a3a666c6173684d696e743a20746f74616c537570706c79206368616e60448201526219d95960ea1b60648201526084016105af565b604080513381526001600160a01b03871660208201529081018590527f3f332df59082df85f837e54e7adcd25276bb7f09b6b151ff017fcdb187d605b39060600160405180910390a15050505050565b60095460ff166108365760405162461bcd60e51b815260206004820152601460248201527314185d5cd8589b194e881b9bdd081c185d5cd95960621b60448201526064016105af565b653830bab9b2b960d11b61084a813361108b565b6009805460ff191690556040513381527f5db9ee0a495bf2e6ff9c91a7834c1ba4fdd244a5e8aa4e537bd38aeae4b073aa906020015b60405180910390a150565b600061089f6430b236b4b760d91b3361108b565b60095460ff16156108c25760405162461bcd60e51b81526004016105af906121fd565b6108cc83836111bf565b50600192915050565b6106ac828260405180602001604052806000815250610f6a565b61062d83838360405180602001604052806000815250610de5565b60095460ff161561092d5760405162461bcd60e51b81526004016105af906121fd565b653830bab9b2b960d11b610941813361108b565b6009805460ff191660011790556040513381527f62e78cea01bee320cd4e420270b5ea74000d11b0c9f74754ebdbfc544b05a25890602001610880565b60007f8b73c3c69bb8fe3d512ecc4cf759cc79239f7b179b0ffacaa9a75d522b39400f6109a96104f2565b805160209182012060408051808201825260018152603160f81b90840152600b54815180850195909552848201929092527fc89efdaa54c0f20c7adf612882df0950f5a951637e0307cdcb4c672f298b8bc6606085015260808401919091523060a0808501919091528151808503909101815260c0840182528051908301207fea2aa0a1be11a07ed86d755c93467f4f82362b452371d1ba94d1715123511acb60e08501526001600160a01b038d81166101008601528c1661012085015261014084018b905261016084018a905288151561018080860191909152825180860390910181526101a085019092528151919092012061190160f01b6101c08401526101c283018290526101e283015291506000906102020160408051601f19818403018152919052805160209091012090506001600160a01b038a16610b305760405162461bcd60e51b815260206004820152601e60248201527f4b53443a3a7065726d69743a20696e76616c69642d616464726573732d30000060448201526064016105af565b60408051600081526020810180835283905260ff871691810191909152606081018590526080810184905260019060a0016020604051602081039080840390855afa158015610b83573d6000803e3d6000fd5b505050602060405103516001600160a01b03168a6001600160a01b031614610bed5760405162461bcd60e51b815260206004820152601b60248201527f4b53443a3a7065726d69743a20696e76616c69642d7065726d6974000000000060448201526064016105af565b861580610bfa5750864211155b610c465760405162461bcd60e51b815260206004820152601b60248201527f4b53443a3a7065726d69743a207065726d69742d65787069726564000000000060448201526064016105af565b6001600160a01b038a166000908152600a60205260408120805491610c6a836122df565b919050558814610cbc5760405162461bcd60e51b815260206004820152601a60248201527f4b53443a3a7065726d69743a20696e76616c69642d6e6f6e636500000000000060448201526064016105af565b600086610cca576000610cce565b6000195b9050610cdb8b8b836113ae565b896001600160a01b03168b6001600160a01b03167f8c5be1e5ebec7d5bd14f71427d1e84f3dd0314c0f7b2291e5b200ac8c7c3b92583604051610d2091815260200190565b60405180910390a35050505050505050505050565b60009182526008602090815260408084206001600160a01b0393909316845291905290205460ff1690565b606060068054610501906122a4565b6000610d836430b236b4b760d91b3361108b565b60095460ff1615610da65760405162461bcd60e51b81526004016105af906121fd565b6108cc83836112bd565b6000610dbe60095460ff1690565b15610ddb5760405162461bcd60e51b81526004016105af906121fd565b6105c283836114e6565b610df08484846105c9565b50610dfd848484846114f3565b610e71576040805162461bcd60e51b81526020600482015260248101919091527f4b4950373a3a736166655472616e7366657246726f6d3a207472616e7366657260448201527f20746f206e6f6e204b495037526563656976657220696d706c656d656e74657260648201526084016105af565b50505050565b600082815260086020526040902060010154610e93813361108b565b61062d8383611158565b600054610100900460ff1680610eb25750303b155b80610ec0575060005460ff16155b610edc5760405162461bcd60e51b81526004016105af90612227565b600054610100900460ff16158015610efe576000805461ffff19166101011790555b610f506040518060400160405280601381526020017225b7b5b7b09029ba30b13632902237b63630b960691b8152506040518060400160405280600381526020016212d4d160ea1b81525060126115b1565b600b82905580156106ac576000805461ff00191690555050565b610f748383610db0565b50610f81338484846114f3565b61062d5760405162461bcd60e51b815260206004820152603c60248201527f4b4950373a3a736166655472616e736665723a207472616e7366657220746f2060448201527f6e6f6e204b495037526563656976657220696d706c656d656e7465720000000060648201526084016105af565b6110056437bbb732b960d91b3361108b565b6110176437bbb732b960d91b826110ef565b6110296437bbb732b960d91b33611158565b50565b60006108cc3384846113ae565b600061104684848461163c565b6001600160a01b03841660009081526003602090815260408083203380855292529091205461108191869161107c90869061228d565b6113ae565b5060019392505050565b6110958282610d35565b6106ac5760405162461bcd60e51b815260206004820152602560248201527f416363657373436f6e74726f6c3a5f636865636b526f6c653a696e76616c696460448201526420726f6c6560d81b60648201526084016105af565b6110f98282610d35565b6106ac5760008281526008602090815260408083206001600160a01b0385168085529252808320805460ff1916600117905551339285917f2f8788117e7eff1d82e926ec794901d17c78024a50270940304540a733656f0d9190a45050565b6111628282610d35565b156106ac5760008281526008602090815260408083206001600160a01b0385168085529252808320805460ff1916905551339285917ff6391f5c32d9c69d2a47ea670b442974b53935d1edc7fd64eb21e047a839171b9190a45050565b6001600160a01b03821661122b5760405162461bcd60e51b815260206004820152602d60248201527f4b495037457874656e6465643a3a5f6d696e743a206d696e7420746f2074686560448201526c207a65726f206164647265737360981b60648201526084016105af565b806004546112399190612275565b6004556001600160a01b038216600090815260026020526040902054611260908290612275565b6001600160a01b0383166000818152600260205260408082209390935591519091907fddf252ad1be2c89b69c2b068fc378daa952ba7f163c4a11628f55a4df523b3ef906112b19085815260200190565b60405180910390a35050565b6001600160a01b03821661132b5760405162461bcd60e51b815260206004820152602f60248201527f4b495037457874656e6465643a3a5f6275726e3a206275726e2066726f6d207460448201526e6865207a65726f206164647265737360881b60648201526084016105af565b80600454611339919061228d565b6004556001600160a01b03821660009081526002602052604090205461136090829061228d565b6001600160a01b0383166000818152600260205260408082209390935591517fddf252ad1be2c89b69c2b068fc378daa952ba7f163c4a11628f55a4df523b3ef906112b19085815260200190565b6001600160a01b03831661141a5760405162461bcd60e51b815260206004820152602d60248201527f4b4950373a3a5f617070726f76653a20617070726f76652066726f6d2074686560448201526c207a65726f206164647265737360981b60648201526084016105af565b6001600160a01b0382166114845760405162461bcd60e51b815260206004820152602b60248201527f4b4950373a3a5f617070726f76653a20617070726f766520746f20746865207a60448201526a65726f206164647265737360a81b60648201526084016105af565b6001600160a01b0383811660008181526003602090815260408083209487168084529482529182902085905590518481527f8c5be1e5ebec7d5bd14f71427d1e84f3dd0314c0f7b2291e5b200ac8c7c3b92591015b60405180910390a3505050565b60006108cc33848461163c565b60006001600160a01b0384163b61150c575060016105ff565b604051634e8c461160e11b81526000906001600160a01b03861690639d188c22906115419033908a9089908990600401612165565b602060405180830381600087803b15801561155b57600080fd5b505af115801561156f573d6000803e3d6000fd5b505050506040513d601f19601f8201168201806040525081019061159391906120fe565b6001600160e01b031916634e8c461160e11b14915050949350505050565b600054610100900460ff16806115c65750303b155b806115d4575060005460ff16155b6115f05760405162461bcd60e51b81526004016105af90612227565b600054610100900460ff16158015611612576000805461ffff19166101011790555b61161d8484846117be565b611625611832565b8015610e71576000805461ff001916905550505050565b6001600160a01b0383166116aa5760405162461bcd60e51b815260206004820152602f60248201527f4b4950373a3a5f7472616e736665723a207472616e736665722066726f6d207460448201526e6865207a65726f206164647265737360881b60648201526084016105af565b6001600160a01b0382166117165760405162461bcd60e51b815260206004820152602d60248201527f4b4950373a3a5f7472616e736665723a207472616e7366657220746f2074686560448201526c207a65726f206164647265737360981b60648201526084016105af565b6001600160a01b03831660009081526002602052604090205461173a90829061228d565b6001600160a01b03808516600090815260026020526040808220939093559084168152205461176a908290612275565b6001600160a01b0380841660008181526002602052604090819020939093559151908516907fddf252ad1be2c89b69c2b068fc378daa952ba7f163c4a11628f55a4df523b3ef906114d99085815260200190565b600054610100900460ff16806117d35750303b155b806117e1575060005460ff16155b6117fd5760405162461bcd60e51b81526004016105af90612227565b600054610100900460ff1615801561181f576000805461ffff19166101011790555b6118276118dd565b61162584848461194e565b600054610100900460ff16806118475750303b155b80611855575060005460ff16155b6118715760405162461bcd60e51b81526004016105af90612227565b600054610100900460ff16158015611893576000805461ffff19166101011790555b61189b6119f6565b6118b6653830bab9b2b960d11b6437bbb732b960d91b611a5f565b6118c9653830bab9b2b960d11b33611aaa565b8015611029576000805461ff001916905550565b600054610100900460ff16806118f25750303b155b80611900575060005460ff16155b61191c5760405162461bcd60e51b81526004016105af90612227565b600054610100900460ff1615801561193e576000805461ffff19166101011790555b611946611ab4565b6118c9611b25565b600054610100900460ff16806119635750303b155b80611971575060005460ff16155b61198d5760405162461bcd60e51b81526004016105af90612227565b600054610100900460ff161580156119af576000805461ffff19166101011790555b83516119c2906005906020870190611cfd565b5082516119d6906006906020860190611cfd565b506007805460ff191660ff841617905561162563a219a02560e01b611b92565b600054610100900460ff1680611a0b5750303b155b80611a19575060005460ff16155b611a355760405162461bcd60e51b81526004016105af90612227565b600054610100900460ff16158015611a57576000805461ffff19166101011790555b6118c9611c2c565b600082815260086020526040808220600101805490849055905190918391839186917fbd79b86ffe0ab8e8776151514217cd7cacd52c909f66475c3af44e129f0b00ff9190a4505050565b6106ac82826110ef565b600054610100900460ff1680611ac95750303b155b80611ad7575060005460ff16155b611af35760405162461bcd60e51b81526004016105af90612227565b600054610100900460ff16158015611b15576000805461ffff19166101011790555b6118c96301ffc9a760e01b611b92565b600054610100900460ff1680611b3a5750303b155b80611b48575060005460ff16155b611b645760405162461bcd60e51b81526004016105af90612227565b600054610100900460ff16158015611b86576000805461ffff19166101011790555b6118c9636578737160e01b5b6001600160e01b03198082161415611c045760405162461bcd60e51b815260206004820152602f60248201527f4b495031333a3a5f7265676973746572496e746572666163653a20696e76616c60448201526e1a59081a5b9d195c999858d9481a59608a1b60648201526084016105af565b6001600160e01b0319166000908152600160208190526040909120805460ff19169091179055565b600054610100900460ff1680611c415750303b155b80611c4f575060005460ff16155b611c6b5760405162461bcd60e51b81526004016105af90612227565b600054610100900460ff16158015611c8d576000805461ffff19166101011790555b611c9f6437bbb732b960d91b33611aaa565b611cb96430b236b4b760d91b6437bbb732b960d91b611a5f565b611cd66737b832b930ba37b960c11b6437bbb732b960d91b611a5f565b611ce86430b236b4b760d91b33611aaa565b6118c96737b832b930ba37b960c11b33611aaa565b828054611d09906122a4565b90600052602060002090601f016020900481019282611d2b5760008555611d71565b82601f10611d4457805160ff1916838001178555611d71565b82800160010185558215611d71579182015b82811115611d71578251825591602001919060010190611d56565b50611d7d929150611d81565b5090565b5b80821115611d7d5760008155600101611d82565b80356001600160a01b03811681146104ed57600080fd5b600082601f830112611dbd578081fd5b813567ffffffffffffffff80821115611dd857611dd8612310565b604051601f8301601f19908116603f01168101908282118183101715611e0057611e00612310565b81604052838152866020858801011115611e18578485fd5b8360208701602083013792830160200193909352509392505050565b600060208284031215611e45578081fd5b6105c282611d96565b60008060408385031215611e60578081fd5b611e6983611d96565b9150611e7760208401611d96565b90509250929050565b600080600060608486031215611e94578081fd5b611e9d84611d96565b9250611eab60208501611d96565b9150604084013590509250925092565b60008060008060808587031215611ed0578081fd5b611ed985611d96565b9350611ee760208601611d96565b925060408501359150606085013567ffffffffffffffff811115611f09578182fd5b611f1587828801611dad565b91505092959194509250565b600080600080600080600080610100898b031215611f3d578384fd5b611f4689611d96565b9750611f5460208a01611d96565b9650604089013595506060890135945060808901358015158114611f76578485fd5b935060a089013560ff81168114611f8b578384fd5b979a969950949793969295929450505060c08201359160e0013590565b60008060408385031215611fba578182fd5b611fc383611d96565b946020939093013593505050565b60008060008060608587031215611fe6578384fd5b611fef85611d96565b935060208501359250604085013567ffffffffffffffff80821115612012578384fd5b818701915087601f830112612025578384fd5b813581811115612033578485fd5b886020828501011115612044578485fd5b95989497505060200194505050565b600080600060608486031215612067578283fd5b61207084611d96565b925060208401359150604084013567ffffffffffffffff811115612092578182fd5b61209e86828701611dad565b9150509250925092565b6000602082840312156120b9578081fd5b5035919050565b600080604083850312156120d2578182fd5b82359150611e7760208401611d96565b6000602082840312156120f3578081fd5b81356105c281612326565b60006020828403121561210f578081fd5b81516105c281612326565b60008151808452815b8181101561213f57602081850181015186830182015201612123565b818111156121505782602083870101525b50601f01601f19169290920160200192915050565b6001600160a01b03858116825284166020820152604081018390526080606082018190526000906121989083018461211a565b9695505050505050565b6001600160a01b0385168152602081018490526060604082018190528101829052600082846080840137818301608090810191909152601f909201601f191601019392505050565b6000602082526105c2602083018461211a565b60208082526010908201526f14185d5cd8589b194e881c185d5cd95960821b604082015260600190565b6020808252602e908201527f496e697469616c697a61626c653a20636f6e747261637420697320616c72656160408201526d191e481a5b9a5d1a585b1a5e995960921b606082015260800190565b60008219821115612288576122886122fa565b500190565b60008282101561229f5761229f6122fa565b500390565b600181811c908216806122b857607f821691505b602082108114156122d957634e487b7160e01b600052602260045260246000fd5b50919050565b60006000198214156122f3576122f36122fa565b5060010190565b634e487b7160e01b600052601160045260246000fd5b634e487b7160e01b600052604160045260246000fd5b6001600160e01b03198116811461102957600080fdfea2646970667358221220bedbe5322535da618c1b004ac964b118cb8445d2fe16a110613d78bc6917299564736f6c63430008030033",
  "devdoc": {
    "kind": "dev",
    "methods": {},
    "title": "Kokoa stable token",
    "version": 1
  },
  "userdoc": {
    "kind": "user",
    "methods": {},
    "notice": "Stable token called 'KSD'",
    "version": 1
  },
  "storageLayout": {
    "storage": [
      {
        "astId": 23220,
        "contract": "contracts/lending/KSD.sol:KSD",
        "label": "_initialized",
        "offset": 0,
        "slot": "0",
        "type": "t_bool"
      },
      {
        "astId": 23223,
        "contract": "contracts/lending/KSD.sol:KSD",
        "label": "_initializing",
        "offset": 1,
        "slot": "0",
        "type": "t_bool"
      },
      {
        "astId": 21175,
        "contract": "contracts/lending/KSD.sol:KSD",
        "label": "_supportedInterfaces",
        "offset": 0,
        "slot": "1",
        "type": "t_mapping(t_bytes4,t_bool)"
      },
      {
        "astId": 21239,
        "contract": "contracts/lending/KSD.sol:KSD",
        "label": "_balances",
        "offset": 0,
        "slot": "2",
        "type": "t_mapping(t_address,t_uint256)"
      },
      {
        "astId": 21245,
        "contract": "contracts/lending/KSD.sol:KSD",
        "label": "_allowances",
        "offset": 0,
        "slot": "3",
        "type": "t_mapping(t_address,t_mapping(t_address,t_uint256))"
      },
      {
        "astId": 21247,
        "contract": "contracts/lending/KSD.sol:KSD",
        "label": "_totalSupply",
        "offset": 0,
        "slot": "4",
        "type": "t_uint256"
      },
      {
        "astId": 21627,
        "contract": "contracts/lending/KSD.sol:KSD",
        "label": "_name",
        "offset": 0,
        "slot": "5",
        "type": "t_string_storage"
      },
      {
        "astId": 21629,
        "contract": "contracts/lending/KSD.sol:KSD",
        "label": "_symbol",
        "offset": 0,
        "slot": "6",
        "type": "t_string_storage"
      },
      {
        "astId": 21631,
        "contract": "contracts/lending/KSD.sol:KSD",
        "label": "_decimals",
        "offset": 0,
        "slot": "7",
        "type": "t_uint8"
      },
      {
        "astId": 20166,
        "contract": "contracts/lending/KSD.sol:KSD",
        "label": "_roles",
        "offset": 0,
        "slot": "8",
        "type": "t_mapping(t_bytes32,t_struct(RoleData)20161_storage)"
      },
      {
        "astId": 20556,
        "contract": "contracts/lending/KSD.sol:KSD",
        "label": "_paused",
        "offset": 0,
        "slot": "9",
        "type": "t_bool"
      },
      {
        "astId": 15689,
        "contract": "contracts/lending/KSD.sol:KSD",
        "label": "_nonces",
        "offset": 0,
        "slot": "10",
        "type": "t_mapping(t_address,t_uint256)"
      },
      {
        "astId": 15699,
        "contract": "contracts/lending/KSD.sol:KSD",
        "label": "_chainId",
        "offset": 0,
        "slot": "11",
        "type": "t_uint256"
      }
    ],
    "types": {
      "t_address": {
        "encoding": "inplace",
        "label": "address",
        "numberOfBytes": "20"
      },
      "t_bool": {
        "encoding": "inplace",
        "label": "bool",
        "numberOfBytes": "1"
      },
      "t_bytes32": {
        "encoding": "inplace",
        "label": "bytes32",
        "numberOfBytes": "32"
      },
      "t_bytes4": {
        "encoding": "inplace",
        "label": "bytes4",
        "numberOfBytes": "4"
      },
      "t_mapping(t_address,t_bool)": {
        "encoding": "mapping",
        "key": "t_address",
        "label": "mapping(address => bool)",
        "numberOfBytes": "32",
        "value": "t_bool"
      },
      "t_mapping(t_address,t_mapping(t_address,t_uint256))": {
        "encoding": "mapping",
        "key": "t_address",
        "label": "mapping(address => mapping(address => uint256))",
        "numberOfBytes": "32",
        "value": "t_mapping(t_address,t_uint256)"
      },
      "t_mapping(t_address,t_uint256)": {
        "encoding": "mapping",
        "key": "t_address",
        "label": "mapping(address => uint256)",
        "numberOfBytes": "32",
        "value": "t_uint256"
      },
      "t_mapping(t_bytes32,t_struct(RoleData)20161_storage)": {
        "encoding": "mapping",
        "key": "t_bytes32",
        "label": "mapping(bytes32 => struct AccessControl.RoleData)",
        "numberOfBytes": "32",
        "value": "t_struct(RoleData)20161_storage"
      },
      "t_mapping(t_bytes4,t_bool)": {
        "encoding": "mapping",
        "key": "t_bytes4",
        "label": "mapping(bytes4 => bool)",
        "numberOfBytes": "32",
        "value": "t_bool"
      },
      "t_string_storage": {
        "encoding": "bytes",
        "label": "string",
        "numberOfBytes": "32"
      },
      "t_struct(RoleData)20161_storage": {
        "encoding": "inplace",
        "label": "struct AccessControl.RoleData",
        "members": [
          {
            "astId": 20158,
            "contract": "contracts/lending/KSD.sol:KSD",
            "label": "members",
            "offset": 0,
            "slot": "0",
            "type": "t_mapping(t_address,t_bool)"
          },
          {
            "astId": 20160,
            "contract": "contracts/lending/KSD.sol:KSD",
            "label": "adminRole",
            "offset": 0,
            "slot": "1",
            "type": "t_bytes32"
          }
        ],
        "numberOfBytes": "64"
      },
      "t_uint256": {
        "encoding": "inplace",
        "label": "uint256",
        "numberOfBytes": "32"
      },
      "t_uint8": {
        "encoding": "inplace",
        "label": "uint8",
        "numberOfBytes": "1"
      }
    }
  }
}