{
  "address": "0xB4A234Ebe159f6848C1486Bd4A3AA7b3F4187598",
  "abi": [
    {
      "anonymous": false,
      "inputs": [
        {
          "indexed": false,
          "internalType": "address",
          "name": "account",
          "type": "address"
        }
      ],
      "name": "Paused",
      "type": "event"
    },
    {
      "anonymous": false,
      "inputs": [
        {
          "indexed": true,
          "internalType": "bytes32",
          "name": "role",
          "type": "bytes32"
        },
        {
          "indexed": true,
          "internalType": "bytes32",
          "name": "previousAdminRole",
          "type": "bytes32"
        },
        {
          "indexed": true,
          "internalType": "bytes32",
          "name": "newAdminRole",
          "type": "bytes32"
        }
      ],
      "name": "RoleAdminChanged",
      "type": "event"
    },
    {
      "anonymous": false,
      "inputs": [
        {
          "indexed": true,
          "internalType": "bytes32",
          "name": "role",
          "type": "bytes32"
        },
        {
          "indexed": true,
          "internalType": "address",
          "name": "account",
          "type": "address"
        },
        {
          "indexed": true,
          "internalType": "address",
          "name": "sender",
          "type": "address"
        }
      ],
      "name": "RoleGranted",
      "type": "event"
    },
    {
      "anonymous": false,
      "inputs": [
        {
          "indexed": true,
          "internalType": "bytes32",
          "name": "role",
          "type": "bytes32"
        },
        {
          "indexed": true,
          "internalType": "address",
          "name": "account",
          "type": "address"
        },
        {
          "indexed": true,
          "internalType": "address",
          "name": "sender",
          "type": "address"
        }
      ],
      "name": "RoleRevoked",
      "type": "event"
    },
    {
      "anonymous": false,
      "inputs": [
        {
          "indexed": false,
          "internalType": "address",
          "name": "account",
          "type": "address"
        }
      ],
      "name": "Unpaused",
      "type": "event"
    },
    {
      "inputs": [],
      "name": "DEFAULT_ADMIN_ROLE",
      "outputs": [
        {
          "internalType": "bytes32",
          "name": "",
          "type": "bytes32"
        }
      ],
      "stateMutability": "view",
      "type": "function"
    },
    {
      "inputs": [],
      "name": "__KSDGateway_init",
      "outputs": [],
      "stateMutability": "nonpayable",
      "type": "function"
    },
    {
      "inputs": [
        {
          "internalType": "bytes32",
          "name": "what",
          "type": "bytes32"
        },
        {
          "internalType": "address",
          "name": "data",
          "type": "address"
        }
      ],
      "name": "config",
      "outputs": [],
      "stateMutability": "nonpayable",
      "type": "function"
    },
    {
      "inputs": [
        {
          "internalType": "address",
          "name": "usr",
          "type": "address"
        },
        {
          "internalType": "uint256",
          "name": "wad",
          "type": "uint256"
        }
      ],
      "name": "exit",
      "outputs": [],
      "stateMutability": "nonpayable",
      "type": "function"
    },
    {
      "inputs": [
        {
          "internalType": "address",
          "name": "ksdOwner",
          "type": "address"
        },
        {
          "internalType": "address",
          "name": "usr",
          "type": "address"
        },
        {
          "internalType": "uint256",
          "name": "wad",
          "type": "uint256"
        }
      ],
      "name": "exitFrom",
      "outputs": [],
      "stateMutability": "nonpayable",
      "type": "function"
    },
    {
      "inputs": [
        {
          "internalType": "bytes32",
          "name": "role",
          "type": "bytes32"
        }
      ],
      "name": "getRoleAdmin",
      "outputs": [
        {
          "internalType": "bytes32",
          "name": "",
          "type": "bytes32"
        }
      ],
      "stateMutability": "view",
      "type": "function"
    },
    {
      "inputs": [
        {
          "internalType": "bytes32",
          "name": "role",
          "type": "bytes32"
        },
        {
          "internalType": "address",
          "name": "account",
          "type": "address"
        }
      ],
      "name": "grantRole",
      "outputs": [],
      "stateMutability": "nonpayable",
      "type": "function"
    },
    {
      "inputs": [
        {
          "internalType": "bytes32",
          "name": "role",
          "type": "bytes32"
        },
        {
          "internalType": "address",
          "name": "account",
          "type": "address"
        }
      ],
      "name": "hasRole",
      "outputs": [
        {
          "internalType": "bool",
          "name": "",
          "type": "bool"
        }
      ],
      "stateMutability": "view",
      "type": "function"
    },
    {
      "inputs": [
        {
          "internalType": "address",
          "name": "usr",
          "type": "address"
        },
        {
          "internalType": "uint256",
          "name": "wad",
          "type": "uint256"
        }
      ],
      "name": "join",
      "outputs": [],
      "stateMutability": "nonpayable",
      "type": "function"
    },
    {
      "inputs": [
        {
          "internalType": "address",
          "name": "ksdOwner",
          "type": "address"
        },
        {
          "internalType": "address",
          "name": "usr",
          "type": "address"
        },
        {
          "internalType": "uint256",
          "name": "wad",
          "type": "uint256"
        }
      ],
      "name": "joinFrom",
      "outputs": [],
      "stateMutability": "nonpayable",
      "type": "function"
    },
    {
      "inputs": [],
      "name": "ksd",
      "outputs": [
        {
          "internalType": "contract IKIP7Extended",
          "name": "",
          "type": "address"
        }
      ],
      "stateMutability": "view",
      "type": "function"
    },
    {
      "inputs": [],
      "name": "ledger",
      "outputs": [
        {
          "internalType": "contract ILedger",
          "name": "",
          "type": "address"
        }
      ],
      "stateMutability": "view",
      "type": "function"
    },
    {
      "inputs": [],
      "name": "pause",
      "outputs": [],
      "stateMutability": "nonpayable",
      "type": "function"
    },
    {
      "inputs": [],
      "name": "paused",
      "outputs": [
        {
          "internalType": "bool",
          "name": "",
          "type": "bool"
        }
      ],
      "stateMutability": "view",
      "type": "function"
    },
    {
      "inputs": [
        {
          "internalType": "bytes32",
          "name": "role",
          "type": "bytes32"
        },
        {
          "internalType": "address",
          "name": "account",
          "type": "address"
        }
      ],
      "name": "renounceRole",
      "outputs": [],
      "stateMutability": "nonpayable",
      "type": "function"
    },
    {
      "inputs": [
        {
          "internalType": "bytes32",
          "name": "role",
          "type": "bytes32"
        },
        {
          "internalType": "address",
          "name": "account",
          "type": "address"
        }
      ],
      "name": "revokeRole",
      "outputs": [],
      "stateMutability": "nonpayable",
      "type": "function"
    },
    {
      "inputs": [
        {
          "internalType": "address",
          "name": "newOwner",
          "type": "address"
        }
      ],
      "name": "transferOwnership",
      "outputs": [],
      "stateMutability": "nonpayable",
      "type": "function"
    },
    {
      "inputs": [],
      "name": "unpause",
      "outputs": [],
      "stateMutability": "nonpayable",
      "type": "function"
    }
  ],
  "transactionHash": "0xc72740772fa4980a97af3ffc340766fc2143c7f6020682f1fd31a4d857a1fb3b",
  "args": [],
  "solcInputHash": "daac9cba34dfabe5953ff704314717f0",
  "bytecode": "0x608060405234801561001057600080fd5b50610fb6806100206000396000f3fe608060405234801561001057600080fd5b50600436106101165760003560e01c80638456cb59116100a2578063d366f3b911610071578063d366f3b91461021c578063d547741f1461022f578063ed53be2914610242578063ef693bed14610255578063f2fde38b1461026857610116565b80638456cb59146101e657806391d14854146101ee578063a217fddf14610201578063a6d5f1031461020957610116565b80633b4da69f116100e95780633b4da69f1461017c5780633f4ba83a1461018f5780634ef0d4971461019757806356397c351461019f5780635c975abb146101cf57610116565b8063213681aa1461011b578063248a9ca3146101305780632f2ff15d1461015657806336568abe14610169575b600080fd5b61012e610129366004610dd0565b61027b565b005b61014361013e366004610e54565b6103a3565b6040519081526020015b60405180910390f35b61012e610164366004610e6c565b6103bc565b61012e610177366004610e6c565b6103de565b61012e61018a366004610e0b565b610461565b61012e61056f565b61012e61060d565b6002546101b79061010090046001600160a01b031681565b6040516001600160a01b03909116815260200161014d565b60025460ff165b604051901515815260200161014d565b61012e61068b565b6101d66101fc366004610e6c565b6106ff565b610143600081565b6003546101b7906001600160a01b031681565b61012e61022a366004610e6c565b61072a565b61012e61023d366004610e6c565b610819565b61012e610250366004610dd0565b610836565b61012e610263366004610e0b565b610922565b61012e610276366004610daf565b6109fc565b61028d6430b236b4b760d91b33610a32565b60025461010090046001600160a01b0316632db8083030846102b0856001610f33565b6102c6906b033b2e3c9fd0803ce8000000610f4b565b6040518463ffffffff1660e01b81526004016102e493929190610e97565b600060405180830381600087803b1580156102fe57600080fd5b505af1158015610312573d6000803e3d6000fd5b5050600354604051632770a7eb60e21b81526001600160a01b038781166004830152602482018690529091169250639dc29fac91506044015b602060405180830381600087803b15801561036557600080fd5b505af1158015610379573d6000803e3d6000fd5b505050506040513d601f19601f8201168201806040525081019061039d9190610e34565b50505050565b600081815260016020819052604090912001545b919050565b6103c5826103a3565b6103cf8133610a32565b6103d98383610a96565b505050565b6001600160a01b03811633146104535760405162461bcd60e51b815260206004820152602f60248201527f416363657373436f6e74726f6c3a2063616e206f6e6c792072656e6f756e636560448201526e103937b632b9903337b91039b2b63360891b60648201526084015b60405180910390fd5b61045d8282610b01565b5050565b60025461010090046001600160a01b0316632db808303084610484856001610f33565b61049a906b033b2e3c9fd0803ce8000000610f4b565b6040518463ffffffff1660e01b81526004016104b893929190610e97565b600060405180830381600087803b1580156104d257600080fd5b505af11580156104e6573d6000803e3d6000fd5b5050600354604051632770a7eb60e21b8152336004820152602481018590526001600160a01b039091169250639dc29fac91506044015b602060405180830381600087803b15801561053757600080fd5b505af115801561054b573d6000803e3d6000fd5b505050506040513d601f19601f820116820180604052508101906103d99190610e34565b60025460ff166105b85760405162461bcd60e51b815260206004820152601460248201527314185d5cd8589b194e881b9bdd081c185d5cd95960621b604482015260640161044a565b653830bab9b2b960d11b6105cc8133610a32565b6002805460ff191690556040513381527f5db9ee0a495bf2e6ff9c91a7834c1ba4fdd244a5e8aa4e537bd38aeae4b073aa906020015b60405180910390a150565b600054610100900460ff16806106225750303b155b80610630575060005460ff16155b61064c5760405162461bcd60e51b815260040161044a90610ee5565b600054610100900460ff1615801561066e576000805461ffff19166101011790555b610676610b68565b8015610688576000805461ff00191690555b50565b60025460ff16156106ae5760405162461bcd60e51b815260040161044a90610ebb565b653830bab9b2b960d11b6106c28133610a32565b6002805460ff191660011790556040513381527f62e78cea01bee320cd4e420270b5ea74000d11b0c9f74754ebdbfc544b05a25890602001610602565b60009182526001602090815260408084206001600160a01b0393909316845291905290205460ff1690565b61073c6430b236b4b760d91b33610a32565b60025460ff161561075f5760405162461bcd60e51b815260040161044a90610ebb565b81653632b233b2b960d11b14156107955760028054610100600160a81b0319166101006001600160a01b0384160217905561045d565b81621adcd960ea1b14156107c357600380546001600160a01b0319166001600160a01b03831617905561045d565b60405162461bcd60e51b815260206004820152602560248201527f4b5344476174657761793a3a636f6e6669673a756e7265636f676e697a65642d604482015264706172616d60d81b606482015260840161044a565b610822826103a3565b61082c8133610a32565b6103d98383610b01565b60025460ff16156108595760405162461bcd60e51b815260040161044a90610ebb565b61086b6430b236b4b760d91b33610a32565b60025461010090046001600160a01b0316632db808308430610899856b033b2e3c9fd0803ce8000000610f4b565b6040518463ffffffff1660e01b81526004016108b793929190610e97565b600060405180830381600087803b1580156108d157600080fd5b505af11580156108e5573d6000803e3d6000fd5b50506003546040516340c10f1960e01b81526001600160a01b0386811660048301526024820186905290911692506340c10f19915060440161034b565b60025460ff16156109455760405162461bcd60e51b815260040161044a90610ebb565b60025461010090046001600160a01b0316632db808303330610973856b033b2e3c9fd0803ce8000000610f4b565b6040518463ffffffff1660e01b815260040161099193929190610e97565b600060405180830381600087803b1580156109ab57600080fd5b505af11580156109bf573d6000803e3d6000fd5b50506003546040516340c10f1960e01b81526001600160a01b0386811660048301526024820186905290911692506340c10f19915060440161051d565b610a0e6437bbb732b960d91b33610a32565b610a206437bbb732b960d91b82610a96565b6106886437bbb732b960d91b33610b01565b610a3c82826106ff565b61045d5760405162461bcd60e51b815260206004820152602560248201527f416363657373436f6e74726f6c3a5f636865636b526f6c653a696e76616c696460448201526420726f6c6560d81b606482015260840161044a565b610aa082826106ff565b61045d5760008281526001602081815260408084206001600160a01b0386168086529252808420805460ff19169093179092559051339285917f2f8788117e7eff1d82e926ec794901d17c78024a50270940304540a733656f0d9190a45050565b610b0b82826106ff565b1561045d5760008281526001602090815260408083206001600160a01b0385168085529252808320805460ff1916905551339285917ff6391f5c32d9c69d2a47ea670b442974b53935d1edc7fd64eb21e047a839171b9190a45050565b600054610100900460ff1680610b7d5750303b155b80610b8b575060005460ff16155b610ba75760405162461bcd60e51b815260040161044a90610ee5565b600054610100900460ff16158015610bc9576000805461ffff19166101011790555b610bd1610bff565b610bec653830bab9b2b960d11b6437bbb732b960d91b610c68565b610676653830bab9b2b960d11b33610cbd565b600054610100900460ff1680610c145750303b155b80610c22575060005460ff16155b610c3e5760405162461bcd60e51b815260040161044a90610ee5565b600054610100900460ff16158015610c60576000805461ffff19166101011790555b610676610cc7565b6000610c73836103a3565b6000848152600160208190526040808320909101859055519192508391839186917fbd79b86ffe0ab8e8776151514217cd7cacd52c909f66475c3af44e129f0b00ff9190a4505050565b61045d8282610a96565b600054610100900460ff1680610cdc5750303b155b80610cea575060005460ff16155b610d065760405162461bcd60e51b815260040161044a90610ee5565b600054610100900460ff16158015610d28576000805461ffff19166101011790555b610d3a6437bbb732b960d91b33610cbd565b610d546430b236b4b760d91b6437bbb732b960d91b610c68565b610d716737b832b930ba37b960c11b6437bbb732b960d91b610c68565b610d836430b236b4b760d91b33610cbd565b6106766737b832b930ba37b960c11b33610cbd565b80356001600160a01b03811681146103b757600080fd5b600060208284031215610dc0578081fd5b610dc982610d98565b9392505050565b600080600060608486031215610de4578182fd5b610ded84610d98565b9250610dfb60208501610d98565b9150604084013590509250925092565b60008060408385031215610e1d578182fd5b610e2683610d98565b946020939093013593505050565b600060208284031215610e45578081fd5b81518015158114610dc9578182fd5b600060208284031215610e65578081fd5b5035919050565b60008060408385031215610e7e578182fd5b82359150610e8e60208401610d98565b90509250929050565b6001600160a01b039384168152919092166020820152604081019190915260600190565b60208082526010908201526f14185d5cd8589b194e881c185d5cd95960821b604082015260600190565b6020808252602e908201527f496e697469616c697a61626c653a20636f6e747261637420697320616c72656160408201526d191e481a5b9a5d1a585b1a5e995960921b606082015260800190565b60008219821115610f4657610f46610f6a565b500190565b6000816000190483118215151615610f6557610f65610f6a565b500290565b634e487b7160e01b600052601160045260246000fdfea2646970667358221220ceeb1eb7b942b7a42be37e8263c7664270adc2870577db808f1196f865250ff264736f6c63430008030033",
  "devdoc": {
    "kind": "dev",
    "methods": {
      "exit(address,uint256)": {
        "params": {
          "usr": "Who issues ksd.",
          "wad": "Amount of ksd token."
        }
      },
      "exitFrom(address,address,uint256)": {
        "details": "Acting on behalf (Transaction through ksd owner)",
        "params": {
          "ksdOwner": "Someone who will provide ksd from ledger to issue ksd.",
          "usr": "Who issues ksd.",
          "wad": "Amount of ksd token."
        }
      },
      "join(address,uint256)": {
        "params": {
          "usr": "Target receiving ksd from ledger.",
          "wad": "Amount of ksd token."
        }
      },
      "joinFrom(address,address,uint256)": {
        "details": "Acting on behalf.",
        "params": {
          "ksdOwner": "The owner of the ksd to burn.",
          "usr": "Target receiving ksd from ledger.",
          "wad": "Amount of ksd token."
        }
      }
    },
    "title": "KSD input/output contract",
    "version": 1
  },
  "userdoc": {
    "kind": "user",
    "methods": {
      "config(bytes32,address)": {
        "notice": "Initialize interface variable."
      },
      "exit(address,uint256)": {
        "notice": "Ksd mint & borrow ksd (loan)"
      },
      "exitFrom(address,address,uint256)": {
        "notice": "Ksd mint & borrow ksd (loan)"
      },
      "join(address,uint256)": {
        "notice": "Ksd redemption & ksd burn"
      },
      "joinFrom(address,address,uint256)": {
        "notice": "Ksd redemption & ksd burn."
      }
    },
    "notice": "A collection of functions related to KSD move",
    "version": 1
  },
  "storageLayout": {
    "storage": [
      {
        "astId": 23220,
        "contract": "contracts/lending/KSDGatway.sol:KSDGateway",
        "label": "_initialized",
        "offset": 0,
        "slot": "0",
        "type": "t_bool"
      },
      {
        "astId": 23223,
        "contract": "contracts/lending/KSDGatway.sol:KSDGateway",
        "label": "_initializing",
        "offset": 1,
        "slot": "0",
        "type": "t_bool"
      },
      {
        "astId": 20166,
        "contract": "contracts/lending/KSDGatway.sol:KSDGateway",
        "label": "_roles",
        "offset": 0,
        "slot": "1",
        "type": "t_mapping(t_bytes32,t_struct(RoleData)20161_storage)"
      },
      {
        "astId": 20556,
        "contract": "contracts/lending/KSDGatway.sol:KSDGateway",
        "label": "_paused",
        "offset": 0,
        "slot": "2",
        "type": "t_bool"
      },
      {
        "astId": 15945,
        "contract": "contracts/lending/KSDGatway.sol:KSDGateway",
        "label": "ledger",
        "offset": 1,
        "slot": "2",
        "type": "t_contract(ILedger)8804"
      },
      {
        "astId": 15948,
        "contract": "contracts/lending/KSDGatway.sol:KSDGateway",
        "label": "ksd",
        "offset": 0,
        "slot": "3",
        "type": "t_contract(IKIP7Extended)9928"
      }
    ],
    "types": {
      "t_address": {
        "encoding": "inplace",
        "label": "address",
        "numberOfBytes": "20"
      },
      "t_bool": {
        "encoding": "inplace",
        "label": "bool",
        "numberOfBytes": "1"
      },
      "t_bytes32": {
        "encoding": "inplace",
        "label": "bytes32",
        "numberOfBytes": "32"
      },
      "t_contract(IKIP7Extended)9928": {
        "encoding": "inplace",
        "label": "contract IKIP7Extended",
        "numberOfBytes": "20"
      },
      "t_contract(ILedger)8804": {
        "encoding": "inplace",
        "label": "contract ILedger",
        "numberOfBytes": "20"
      },
      "t_mapping(t_address,t_bool)": {
        "encoding": "mapping",
        "key": "t_address",
        "label": "mapping(address => bool)",
        "numberOfBytes": "32",
        "value": "t_bool"
      },
      "t_mapping(t_bytes32,t_struct(RoleData)20161_storage)": {
        "encoding": "mapping",
        "key": "t_bytes32",
        "label": "mapping(bytes32 => struct AccessControl.RoleData)",
        "numberOfBytes": "32",
        "value": "t_struct(RoleData)20161_storage"
      },
      "t_struct(RoleData)20161_storage": {
        "encoding": "inplace",
        "label": "struct AccessControl.RoleData",
        "members": [
          {
            "astId": 20158,
            "contract": "contracts/lending/KSDGatway.sol:KSDGateway",
            "label": "members",
            "offset": 0,
            "slot": "0",
            "type": "t_mapping(t_address,t_bool)"
          },
          {
            "astId": 20160,
            "contract": "contracts/lending/KSDGatway.sol:KSDGateway",
            "label": "adminRole",
            "offset": 0,
            "slot": "1",
            "type": "t_bytes32"
          }
        ],
        "numberOfBytes": "64"
      }
    }
  }
}