{
  "address": "0xe1088F8975b440cb2D361AE7653bBE4614a50376",
  "abi": [
    {
      "anonymous": false,
      "inputs": [
        {
          "indexed": false,
          "internalType": "address",
          "name": "account",
          "type": "address"
        }
      ],
      "name": "Paused",
      "type": "event"
    },
    {
      "anonymous": false,
      "inputs": [
        {
          "indexed": true,
          "internalType": "bytes32",
          "name": "role",
          "type": "bytes32"
        },
        {
          "indexed": true,
          "internalType": "bytes32",
          "name": "previousAdminRole",
          "type": "bytes32"
        },
        {
          "indexed": true,
          "internalType": "bytes32",
          "name": "newAdminRole",
          "type": "bytes32"
        }
      ],
      "name": "RoleAdminChanged",
      "type": "event"
    },
    {
      "anonymous": false,
      "inputs": [
        {
          "indexed": true,
          "internalType": "bytes32",
          "name": "role",
          "type": "bytes32"
        },
        {
          "indexed": true,
          "internalType": "address",
          "name": "account",
          "type": "address"
        },
        {
          "indexed": true,
          "internalType": "address",
          "name": "sender",
          "type": "address"
        }
      ],
      "name": "RoleGranted",
      "type": "event"
    },
    {
      "anonymous": false,
      "inputs": [
        {
          "indexed": true,
          "internalType": "bytes32",
          "name": "role",
          "type": "bytes32"
        },
        {
          "indexed": true,
          "internalType": "address",
          "name": "account",
          "type": "address"
        },
        {
          "indexed": true,
          "internalType": "address",
          "name": "sender",
          "type": "address"
        }
      ],
      "name": "RoleRevoked",
      "type": "event"
    },
    {
      "anonymous": false,
      "inputs": [
        {
          "indexed": true,
          "internalType": "address",
          "name": "from",
          "type": "address"
        },
        {
          "indexed": true,
          "internalType": "address",
          "name": "to",
          "type": "address"
        },
        {
          "indexed": false,
          "internalType": "uint256",
          "name": "amount",
          "type": "uint256"
        }
      ],
      "name": "Stake",
      "type": "event"
    },
    {
      "anonymous": false,
      "inputs": [
        {
          "indexed": false,
          "internalType": "address",
          "name": "account",
          "type": "address"
        }
      ],
      "name": "Unpaused",
      "type": "event"
    },
    {
      "anonymous": false,
      "inputs": [
        {
          "indexed": true,
          "internalType": "address",
          "name": "from",
          "type": "address"
        },
        {
          "indexed": true,
          "internalType": "address",
          "name": "to",
          "type": "address"
        },
        {
          "indexed": false,
          "internalType": "uint256",
          "name": "amount",
          "type": "uint256"
        }
      ],
      "name": "Unstake",
      "type": "event"
    },
    {
      "inputs": [],
      "name": "DEFAULT_ADMIN_ROLE",
      "outputs": [
        {
          "internalType": "bytes32",
          "name": "",
          "type": "bytes32"
        }
      ],
      "stateMutability": "view",
      "type": "function"
    },
    {
      "inputs": [
        {
          "internalType": "address",
          "name": "token",
          "type": "address"
        },
        {
          "internalType": "address",
          "name": "kokoaRewardManager",
          "type": "address"
        }
      ],
      "name": "__KSDKUsdcLpStakingPool_init",
      "outputs": [],
      "stateMutability": "nonpayable",
      "type": "function"
    },
    {
      "inputs": [
        {
          "internalType": "address",
          "name": "token_",
          "type": "address"
        },
        {
          "internalType": "address",
          "name": "kokoaRewardManager_",
          "type": "address"
        }
      ],
      "name": "__TokenStakingPool_init",
      "outputs": [],
      "stateMutability": "nonpayable",
      "type": "function"
    },
    {
      "inputs": [
        {
          "internalType": "address",
          "name": "",
          "type": "address"
        }
      ],
      "name": "balanceOf",
      "outputs": [
        {
          "internalType": "uint256",
          "name": "",
          "type": "uint256"
        }
      ],
      "stateMutability": "view",
      "type": "function"
    },
    {
      "inputs": [
        {
          "internalType": "bytes32",
          "name": "what",
          "type": "bytes32"
        },
        {
          "internalType": "address",
          "name": "data",
          "type": "address"
        }
      ],
      "name": "config",
      "outputs": [],
      "stateMutability": "nonpayable",
      "type": "function"
    },
    {
      "inputs": [
        {
          "internalType": "bytes32",
          "name": "role",
          "type": "bytes32"
        }
      ],
      "name": "getRoleAdmin",
      "outputs": [
        {
          "internalType": "bytes32",
          "name": "",
          "type": "bytes32"
        }
      ],
      "stateMutability": "view",
      "type": "function"
    },
    {
      "inputs": [
        {
          "internalType": "bytes32",
          "name": "role",
          "type": "bytes32"
        },
        {
          "internalType": "address",
          "name": "account",
          "type": "address"
        }
      ],
      "name": "grantRole",
      "outputs": [],
      "stateMutability": "nonpayable",
      "type": "function"
    },
    {
      "inputs": [
        {
          "internalType": "bytes32",
          "name": "role",
          "type": "bytes32"
        },
        {
          "internalType": "address",
          "name": "account",
          "type": "address"
        }
      ],
      "name": "hasRole",
      "outputs": [
        {
          "internalType": "bool",
          "name": "",
          "type": "bool"
        }
      ],
      "stateMutability": "view",
      "type": "function"
    },
    {
      "inputs": [],
      "name": "kokoaRewardManager",
      "outputs": [
        {
          "internalType": "contract IKokoaRewardManager",
          "name": "",
          "type": "address"
        }
      ],
      "stateMutability": "view",
      "type": "function"
    },
    {
      "inputs": [
        {
          "internalType": "address",
          "name": "migrator",
          "type": "address"
        },
        {
          "internalType": "uint256",
          "name": "minNewLpAmount",
          "type": "uint256"
        }
      ],
      "name": "migrate",
      "outputs": [],
      "stateMutability": "nonpayable",
      "type": "function"
    },
    {
      "inputs": [],
      "name": "pause",
      "outputs": [],
      "stateMutability": "nonpayable",
      "type": "function"
    },
    {
      "inputs": [],
      "name": "paused",
      "outputs": [
        {
          "internalType": "bool",
          "name": "",
          "type": "bool"
        }
      ],
      "stateMutability": "view",
      "type": "function"
    },
    {
      "inputs": [
        {
          "internalType": "bytes32",
          "name": "role",
          "type": "bytes32"
        },
        {
          "internalType": "address",
          "name": "account",
          "type": "address"
        }
      ],
      "name": "renounceRole",
      "outputs": [],
      "stateMutability": "nonpayable",
      "type": "function"
    },
    {
      "inputs": [
        {
          "internalType": "bytes32",
          "name": "role",
          "type": "bytes32"
        },
        {
          "internalType": "address",
          "name": "account",
          "type": "address"
        }
      ],
      "name": "revokeRole",
      "outputs": [],
      "stateMutability": "nonpayable",
      "type": "function"
    },
    {
      "inputs": [
        {
          "internalType": "address",
          "name": "to",
          "type": "address"
        },
        {
          "internalType": "uint256",
          "name": "amount",
          "type": "uint256"
        }
      ],
      "name": "stake",
      "outputs": [],
      "stateMutability": "nonpayable",
      "type": "function"
    },
    {
      "inputs": [],
      "name": "token",
      "outputs": [
        {
          "internalType": "contract IKIP7",
          "name": "",
          "type": "address"
        }
      ],
      "stateMutability": "view",
      "type": "function"
    },
    {
      "inputs": [],
      "name": "totalSupply",
      "outputs": [
        {
          "internalType": "uint256",
          "name": "",
          "type": "uint256"
        }
      ],
      "stateMutability": "view",
      "type": "function"
    },
    {
      "inputs": [
        {
          "internalType": "address",
          "name": "newOwner",
          "type": "address"
        }
      ],
      "name": "transferOwnership",
      "outputs": [],
      "stateMutability": "nonpayable",
      "type": "function"
    },
    {
      "inputs": [],
      "name": "unpause",
      "outputs": [],
      "stateMutability": "nonpayable",
      "type": "function"
    },
    {
      "inputs": [
        {
          "internalType": "address",
          "name": "to",
          "type": "address"
        },
        {
          "internalType": "uint256",
          "name": "amount",
          "type": "uint256"
        }
      ],
      "name": "unstake",
      "outputs": [],
      "stateMutability": "nonpayable",
      "type": "function"
    }
  ],
  "transactionHash": "0x84b54e3eb75f181f1bd9c28ce66d8e1cfd7a5deea059773769e6ee350748f46a",
  "args": [],
  "solcInputHash": "de4f5741dec2c2b2fd1b551e118f3df0",
  "bytecode": "0x608060405234801561001057600080fd5b506110eb806100206000396000f3fe608060405234801561001057600080fd5b506004361061012c5760003560e01c8063a217fddf116100ad578063d547741f11610071578063d547741f14610249578063e127f9461461025c578063e8fc7ead14610287578063f2fde38b1461029a578063fc0c546a146102ad5761012c565b8063a217fddf146101f5578063ad68ebf7146101fd578063adc9772e14610210578063c2a672e014610223578063d366f3b9146102365761012c565b80633f4ba83a116100f45780633f4ba83a1461019b5780635c975abb146101a357806370a08231146101ba5780638456cb59146101da57806391d14854146101e25761012c565b806312e8ef9a1461013157806318160ddd14610146578063248a9ca3146101625780632f2ff15d1461017557806336568abe14610188575b600080fd5b61014461013f366004610f43565b6102c5565b005b61014f60045481565b6040519081526020015b60405180910390f35b61014f610170366004610fbe565b61038d565b610144610183366004610fd6565b6103a6565b610144610196366004610fd6565b6103c3565b610144610441565b60025460ff165b6040519015158152602001610159565b61014f6101c8366004610f22565b60056020526000908152604090205481565b6101446104df565b6101aa6101f0366004610fd6565b610553565b61014f600081565b61014461020b366004610f75565b61057e565b61014461021e366004610f75565b6106de565b610144610231366004610f75565b610889565b610144610244366004610fd6565b610a16565b610144610257366004610fd6565b610aba565b60035461026f906001600160a01b031681565b6040516001600160a01b039091168152602001610159565b610144610295366004610f43565b610ad7565b6101446102a8366004610f22565b610b58565b60025461026f9061010090046001600160a01b031681565b600054610100900460ff16806102da5750303b155b806102e8575060005460ff16155b61030d5760405162461bcd60e51b815260040161030490611022565b60405180910390fd5b600054610100900460ff1615801561032f576000805461ffff19166101011790555b610337610b91565b60028054610100600160a81b0319166101006001600160a01b038681169190910291909117909155600380546001600160a01b0319169184169190911790558015610388576000805461ff00191690555b505050565b600081815260016020819052604090912001545b919050565b6103af8261038d565b6103b98133610c3c565b6103888383610ca0565b6001600160a01b03811633146104335760405162461bcd60e51b815260206004820152602f60248201527f416363657373436f6e74726f6c3a2063616e206f6e6c792072656e6f756e636560448201526e103937b632b9903337b91039b2b63360891b6064820152608401610304565b61043d8282610d0b565b5050565b60025460ff1661048a5760405162461bcd60e51b815260206004820152601460248201527314185d5cd8589b194e881b9bdd081c185d5cd95960621b6044820152606401610304565b653830bab9b2b960d11b61049e8133610c3c565b6002805460ff191690556040513381527f5db9ee0a495bf2e6ff9c91a7834c1ba4fdd244a5e8aa4e537bd38aeae4b073aa906020015b60405180910390a150565b60025460ff16156105025760405162461bcd60e51b815260040161030490610ff8565b653830bab9b2b960d11b6105168133610c3c565b6002805460ff191660011790556040513381527f62e78cea01bee320cd4e420270b5ea74000d11b0c9f74754ebdbfc544b05a258906020016104d4565b60009182526001602090815260408084206001600160a01b0393909316845291905290205460ff1690565b336000908152600560205260409020546105983082610889565b60025460405163095ea7b360e01b81526001600160a01b038581166004830152602482018490526101009092049091169063095ea7b390604401602060405180830381600087803b1580156105ec57600080fd5b505af1158015610600573d6000803e3d6000fd5b505050506040513d601f19601f820116820180604052508101906106249190610f9e565b6106615760405162461bcd60e51b815260206004820152600e60248201526d185c1c1c9bdd994819985a5b195960921b6044820152606401610304565b600254604051636d7a795160e11b81526101009091046001600160a01b039081166004830152336024830152604482018390526064820184905284169063daf4f2a290608401600060405180830381600087803b1580156106c157600080fd5b505af11580156106d5573d6000803e3d6000fd5b50505050505050565b60025460ff16156107015760405162461bcd60e51b815260040161030490610ff8565b600354604051632fa99e6b60e21b8152600481018390526001600160a01b0384811660248301529091169063bea679ac90604401600060405180830381600087803b15801561074f57600080fd5b505af1158015610763573d6000803e3d6000fd5b50506002546040516323b872dd60e01b8152336004820152306024820152604481018590526101009091046001600160a01b031692506323b872dd9150606401602060405180830381600087803b1580156107bd57600080fd5b505af11580156107d1573d6000803e3d6000fd5b505050506040513d601f19601f820116820180604052508101906107f59190610f9e565b506001600160a01b03821660009081526005602052604090205461081a908290611070565b6001600160a01b038316600090815260056020526040902055600454610841908290611070565b6004556040518181526001600160a01b0383169033907f99039fcf0a98f484616c5196ee8b2ecfa971babf0b519848289ea4db381f85f7906020015b60405180910390a35050565b60025460ff16156108ac5760405162461bcd60e51b815260040161030490610ff8565b600354604051633cdd675760e21b8152600481018390523360248201526001600160a01b039091169063f3759d5c90604401600060405180830381600087803b1580156108f857600080fd5b505af115801561090c573d6000803e3d6000fd5b505060025460405163a9059cbb60e01b81526001600160a01b03868116600483015260248201869052610100909204909116925063a9059cbb9150604401602060405180830381600087803b15801561096457600080fd5b505af1158015610978573d6000803e3d6000fd5b505050506040513d601f19601f8201168201806040525081019061099c9190610f9e565b50336000908152600560205260409020546109b8908290611088565b336000908152600560205260409020556004546109d6908290611088565b6004556040518181526001600160a01b0383169033907f390b1276974b9463e5d66ab10df69b6f3d7b930eb066a0e66df327edd2cc811c9060200161087d565b610a286437bbb732b960d91b33610c3c565b81643a37b5b2b760d91b1415610a5d5760028054610100600160a81b0319166101006001600160a01b0384160217905561043d565b60405162461bcd60e51b815260206004820152602c60248201527f546f6b656e5374616b696e67506f6f6c3a3a636f6e6669673a20756e7265636f60448201526b676e697a65642d706172616d60a01b6064820152608401610304565b610ac38261038d565b610acd8133610c3c565b6103888383610d0b565b600054610100900460ff1680610aec5750303b155b80610afa575060005460ff16155b610b165760405162461bcd60e51b815260040161030490611022565b600054610100900460ff16158015610b38576000805461ffff19166101011790555b610b4283836102c5565b8015610388576000805461ff0019169055505050565b610b6a6437bbb732b960d91b33610c3c565b610b7c6437bbb732b960d91b82610ca0565b610b8e6437bbb732b960d91b33610d0b565b50565b600054610100900460ff1680610ba65750303b155b80610bb4575060005460ff16155b610bd05760405162461bcd60e51b815260040161030490611022565b600054610100900460ff16158015610bf2576000805461ffff19166101011790555b610bfa610d72565b610c15653830bab9b2b960d11b6437bbb732b960d91b610ddb565b610c28653830bab9b2b960d11b33610e30565b8015610b8e576000805461ff001916905550565b610c468282610553565b61043d5760405162461bcd60e51b815260206004820152602560248201527f416363657373436f6e74726f6c3a5f636865636b526f6c653a696e76616c696460448201526420726f6c6560d81b6064820152608401610304565b610caa8282610553565b61043d5760008281526001602081815260408084206001600160a01b0386168086529252808420805460ff19169093179092559051339285917f2f8788117e7eff1d82e926ec794901d17c78024a50270940304540a733656f0d9190a45050565b610d158282610553565b1561043d5760008281526001602090815260408083206001600160a01b0385168085529252808320805460ff1916905551339285917ff6391f5c32d9c69d2a47ea670b442974b53935d1edc7fd64eb21e047a839171b9190a45050565b600054610100900460ff1680610d875750303b155b80610d95575060005460ff16155b610db15760405162461bcd60e51b815260040161030490611022565b600054610100900460ff16158015610dd3576000805461ffff19166101011790555b610c28610e3a565b6000610de68361038d565b6000848152600160208190526040808320909101859055519192508391839186917fbd79b86ffe0ab8e8776151514217cd7cacd52c909f66475c3af44e129f0b00ff9190a4505050565b61043d8282610ca0565b600054610100900460ff1680610e4f5750303b155b80610e5d575060005460ff16155b610e795760405162461bcd60e51b815260040161030490611022565b600054610100900460ff16158015610e9b576000805461ffff19166101011790555b610ead6437bbb732b960d91b33610e30565b610ec76430b236b4b760d91b6437bbb732b960d91b610ddb565b610ee46737b832b930ba37b960c11b6437bbb732b960d91b610ddb565b610ef66430b236b4b760d91b33610e30565b610c286737b832b930ba37b960c11b33610e30565b80356001600160a01b03811681146103a157600080fd5b600060208284031215610f33578081fd5b610f3c82610f0b565b9392505050565b60008060408385031215610f55578081fd5b610f5e83610f0b565b9150610f6c60208401610f0b565b90509250929050565b60008060408385031215610f87578182fd5b610f9083610f0b565b946020939093013593505050565b600060208284031215610faf578081fd5b81518015158114610f3c578182fd5b600060208284031215610fcf578081fd5b5035919050565b60008060408385031215610fe8578182fd5b82359150610f6c60208401610f0b565b60208082526010908201526f14185d5cd8589b194e881c185d5cd95960821b604082015260600190565b6020808252602e908201527f496e697469616c697a61626c653a20636f6e747261637420697320616c72656160408201526d191e481a5b9a5d1a585b1a5e995960921b606082015260800190565b600082198211156110835761108361109f565b500190565b60008282101561109a5761109a61109f565b500390565b634e487b7160e01b600052601160045260246000fdfea2646970667358221220a8165c5cb4e867dad4d4a6982547107679dea73c558409ad2f335cb15ed3a45764736f6c63430008030033",
  "devdoc": {
    "kind": "dev",
    "methods": {},
    "version": 1
  },
  "userdoc": {
    "kind": "user",
    "methods": {
      "stake(address,uint256)": {
        "notice": "stake token"
      },
      "unstake(address,uint256)": {
        "notice": "unstake token"
      }
    },
    "version": 1
  },
  "storageLayout": {
    "storage": [
      {
        "astId": 24885,
        "contract": "contracts/reward/pool/KSDKUsdcLpStakingPool.sol:KSDKUsdcLpStakingPool",
        "label": "_initialized",
        "offset": 0,
        "slot": "0",
        "type": "t_bool"
      },
      {
        "astId": 24888,
        "contract": "contracts/reward/pool/KSDKUsdcLpStakingPool.sol:KSDKUsdcLpStakingPool",
        "label": "_initializing",
        "offset": 1,
        "slot": "0",
        "type": "t_bool"
      },
      {
        "astId": 21831,
        "contract": "contracts/reward/pool/KSDKUsdcLpStakingPool.sol:KSDKUsdcLpStakingPool",
        "label": "_roles",
        "offset": 0,
        "slot": "1",
        "type": "t_mapping(t_bytes32,t_struct(RoleData)21826_storage)"
      },
      {
        "astId": 22221,
        "contract": "contracts/reward/pool/KSDKUsdcLpStakingPool.sol:KSDKUsdcLpStakingPool",
        "label": "_paused",
        "offset": 0,
        "slot": "2",
        "type": "t_bool"
      },
      {
        "astId": 34502,
        "contract": "contracts/reward/pool/KSDKUsdcLpStakingPool.sol:KSDKUsdcLpStakingPool",
        "label": "token",
        "offset": 1,
        "slot": "2",
        "type": "t_contract(IKIP7)9935"
      },
      {
        "astId": 34505,
        "contract": "contracts/reward/pool/KSDKUsdcLpStakingPool.sol:KSDKUsdcLpStakingPool",
        "label": "kokoaRewardManager",
        "offset": 0,
        "slot": "3",
        "type": "t_contract(IKokoaRewardManager)8454"
      },
      {
        "astId": 34508,
        "contract": "contracts/reward/pool/KSDKUsdcLpStakingPool.sol:KSDKUsdcLpStakingPool",
        "label": "totalSupply",
        "offset": 0,
        "slot": "4",
        "type": "t_uint256"
      },
      {
        "astId": 34513,
        "contract": "contracts/reward/pool/KSDKUsdcLpStakingPool.sol:KSDKUsdcLpStakingPool",
        "label": "balanceOf",
        "offset": 0,
        "slot": "5",
        "type": "t_mapping(t_address,t_uint256)"
      }
    ],
    "types": {
      "t_address": {
        "encoding": "inplace",
        "label": "address",
        "numberOfBytes": "20"
      },
      "t_bool": {
        "encoding": "inplace",
        "label": "bool",
        "numberOfBytes": "1"
      },
      "t_bytes32": {
        "encoding": "inplace",
        "label": "bytes32",
        "numberOfBytes": "32"
      },
      "t_contract(IKIP7)9935": {
        "encoding": "inplace",
        "label": "contract IKIP7",
        "numberOfBytes": "20"
      },
      "t_contract(IKokoaRewardManager)8454": {
        "encoding": "inplace",
        "label": "contract IKokoaRewardManager",
        "numberOfBytes": "20"
      },
      "t_mapping(t_address,t_bool)": {
        "encoding": "mapping",
        "key": "t_address",
        "label": "mapping(address => bool)",
        "numberOfBytes": "32",
        "value": "t_bool"
      },
      "t_mapping(t_address,t_uint256)": {
        "encoding": "mapping",
        "key": "t_address",
        "label": "mapping(address => uint256)",
        "numberOfBytes": "32",
        "value": "t_uint256"
      },
      "t_mapping(t_bytes32,t_struct(RoleData)21826_storage)": {
        "encoding": "mapping",
        "key": "t_bytes32",
        "label": "mapping(bytes32 => struct AccessControl.RoleData)",
        "numberOfBytes": "32",
        "value": "t_struct(RoleData)21826_storage"
      },
      "t_struct(RoleData)21826_storage": {
        "encoding": "inplace",
        "label": "struct AccessControl.RoleData",
        "members": [
          {
            "astId": 21823,
            "contract": "contracts/reward/pool/KSDKUsdcLpStakingPool.sol:KSDKUsdcLpStakingPool",
            "label": "members",
            "offset": 0,
            "slot": "0",
            "type": "t_mapping(t_address,t_bool)"
          },
          {
            "astId": 21825,
            "contract": "contracts/reward/pool/KSDKUsdcLpStakingPool.sol:KSDKUsdcLpStakingPool",
            "label": "adminRole",
            "offset": 0,
            "slot": "1",
            "type": "t_bytes32"
          }
        ],
        "numberOfBytes": "64"
      },
      "t_uint256": {
        "encoding": "inplace",
        "label": "uint256",
        "numberOfBytes": "32"
      }
    }
  }
}