{
  "address": "0x0496166296EF8E2CD6F5CDE0dA8aD68FA8C794b7",
  "abi": [
    {
      "anonymous": false,
      "inputs": [
        {
          "indexed": false,
          "internalType": "bytes32",
          "name": "collateralType",
          "type": "bytes32"
        },
        {
          "indexed": false,
          "internalType": "address",
          "name": "from",
          "type": "address"
        },
        {
          "indexed": false,
          "internalType": "uint256",
          "name": "amount",
          "type": "uint256"
        }
      ],
      "name": "Claim",
      "type": "event"
    },
    {
      "anonymous": false,
      "inputs": [
        {
          "indexed": false,
          "internalType": "bytes32",
          "name": "collateralType",
          "type": "bytes32"
        },
        {
          "indexed": false,
          "internalType": "uint256",
          "name": "amount",
          "type": "uint256"
        },
        {
          "indexed": false,
          "internalType": "address",
          "name": "to",
          "type": "address"
        }
      ],
      "name": "Deposit",
      "type": "event"
    },
    {
      "anonymous": false,
      "inputs": [
        {
          "indexed": false,
          "internalType": "address",
          "name": "account",
          "type": "address"
        }
      ],
      "name": "Paused",
      "type": "event"
    },
    {
      "anonymous": false,
      "inputs": [
        {
          "indexed": false,
          "internalType": "bytes32",
          "name": "collateralType",
          "type": "bytes32"
        },
        {
          "indexed": false,
          "internalType": "uint256",
          "name": "timestamp",
          "type": "uint256"
        },
        {
          "indexed": false,
          "internalType": "uint256",
          "name": "refundAmount",
          "type": "uint256"
        },
        {
          "indexed": false,
          "internalType": "uint256",
          "name": "totalLoan",
          "type": "uint256"
        },
        {
          "indexed": false,
          "internalType": "uint256",
          "name": "accRewardPerShare",
          "type": "uint256"
        }
      ],
      "name": "Refund",
      "type": "event"
    },
    {
      "anonymous": false,
      "inputs": [
        {
          "indexed": true,
          "internalType": "bytes32",
          "name": "role",
          "type": "bytes32"
        },
        {
          "indexed": true,
          "internalType": "bytes32",
          "name": "previousAdminRole",
          "type": "bytes32"
        },
        {
          "indexed": true,
          "internalType": "bytes32",
          "name": "newAdminRole",
          "type": "bytes32"
        }
      ],
      "name": "RoleAdminChanged",
      "type": "event"
    },
    {
      "anonymous": false,
      "inputs": [
        {
          "indexed": true,
          "internalType": "bytes32",
          "name": "role",
          "type": "bytes32"
        },
        {
          "indexed": true,
          "internalType": "address",
          "name": "account",
          "type": "address"
        },
        {
          "indexed": true,
          "internalType": "address",
          "name": "sender",
          "type": "address"
        }
      ],
      "name": "RoleGranted",
      "type": "event"
    },
    {
      "anonymous": false,
      "inputs": [
        {
          "indexed": true,
          "internalType": "bytes32",
          "name": "role",
          "type": "bytes32"
        },
        {
          "indexed": true,
          "internalType": "address",
          "name": "account",
          "type": "address"
        },
        {
          "indexed": true,
          "internalType": "address",
          "name": "sender",
          "type": "address"
        }
      ],
      "name": "RoleRevoked",
      "type": "event"
    },
    {
      "anonymous": false,
      "inputs": [
        {
          "indexed": false,
          "internalType": "address",
          "name": "account",
          "type": "address"
        }
      ],
      "name": "Unpaused",
      "type": "event"
    },
    {
      "anonymous": false,
      "inputs": [
        {
          "indexed": false,
          "internalType": "bytes32",
          "name": "collateralType",
          "type": "bytes32"
        },
        {
          "indexed": false,
          "internalType": "uint256",
          "name": "amount",
          "type": "uint256"
        },
        {
          "indexed": false,
          "internalType": "address",
          "name": "to",
          "type": "address"
        }
      ],
      "name": "Withdraw",
      "type": "event"
    },
    {
      "inputs": [],
      "name": "DEFAULT_ADMIN_ROLE",
      "outputs": [
        {
          "internalType": "bytes32",
          "name": "",
          "type": "bytes32"
        }
      ],
      "stateMutability": "view",
      "type": "function"
    },
    {
      "inputs": [],
      "name": "__KsdRefundManager_init",
      "outputs": [],
      "stateMutability": "nonpayable",
      "type": "function"
    },
    {
      "inputs": [
        {
          "internalType": "bytes32",
          "name": "collateralType",
          "type": "bytes32"
        },
        {
          "internalType": "address",
          "name": "to",
          "type": "address"
        }
      ],
      "name": "claim",
      "outputs": [],
      "stateMutability": "nonpayable",
      "type": "function"
    },
    {
      "inputs": [
        {
          "internalType": "bytes32",
          "name": "collateralType",
          "type": "bytes32"
        },
        {
          "internalType": "address",
          "name": "usr",
          "type": "address"
        }
      ],
      "name": "claimByOther",
      "outputs": [],
      "stateMutability": "nonpayable",
      "type": "function"
    },
    {
      "inputs": [
        {
          "internalType": "bytes32",
          "name": "collateralType",
          "type": "bytes32"
        },
        {
          "internalType": "address",
          "name": "usr",
          "type": "address"
        }
      ],
      "name": "claimableAmount",
      "outputs": [
        {
          "internalType": "uint256",
          "name": "",
          "type": "uint256"
        }
      ],
      "stateMutability": "view",
      "type": "function"
    },
    {
      "inputs": [
        {
          "internalType": "bytes32",
          "name": "what",
          "type": "bytes32"
        },
        {
          "internalType": "address",
          "name": "data",
          "type": "address"
        }
      ],
      "name": "config",
      "outputs": [],
      "stateMutability": "nonpayable",
      "type": "function"
    },
    {
      "inputs": [
        {
          "internalType": "bytes32",
          "name": "role",
          "type": "bytes32"
        }
      ],
      "name": "getRoleAdmin",
      "outputs": [
        {
          "internalType": "bytes32",
          "name": "",
          "type": "bytes32"
        }
      ],
      "stateMutability": "view",
      "type": "function"
    },
    {
      "inputs": [
        {
          "internalType": "bytes32",
          "name": "role",
          "type": "bytes32"
        },
        {
          "internalType": "address",
          "name": "account",
          "type": "address"
        }
      ],
      "name": "grantRole",
      "outputs": [],
      "stateMutability": "nonpayable",
      "type": "function"
    },
    {
      "inputs": [
        {
          "internalType": "bytes32",
          "name": "role",
          "type": "bytes32"
        },
        {
          "internalType": "address",
          "name": "account",
          "type": "address"
        }
      ],
      "name": "hasRole",
      "outputs": [
        {
          "internalType": "bool",
          "name": "",
          "type": "bool"
        }
      ],
      "stateMutability": "view",
      "type": "function"
    },
    {
      "inputs": [],
      "name": "ksd",
      "outputs": [
        {
          "internalType": "contract IKIP7",
          "name": "",
          "type": "address"
        }
      ],
      "stateMutability": "view",
      "type": "function"
    },
    {
      "inputs": [],
      "name": "ledger",
      "outputs": [
        {
          "internalType": "contract ILedger",
          "name": "",
          "type": "address"
        }
      ],
      "stateMutability": "view",
      "type": "function"
    },
    {
      "inputs": [
        {
          "internalType": "bytes32",
          "name": "collateralType",
          "type": "bytes32"
        },
        {
          "internalType": "int256",
          "name": "amount",
          "type": "int256"
        },
        {
          "internalType": "address",
          "name": "to",
          "type": "address"
        }
      ],
      "name": "onChanged",
      "outputs": [],
      "stateMutability": "nonpayable",
      "type": "function"
    },
    {
      "inputs": [
        {
          "internalType": "bytes32",
          "name": "collateralType",
          "type": "bytes32"
        },
        {
          "internalType": "uint256",
          "name": "amount",
          "type": "uint256"
        },
        {
          "internalType": "address",
          "name": "to",
          "type": "address"
        }
      ],
      "name": "onDeposit",
      "outputs": [],
      "stateMutability": "nonpayable",
      "type": "function"
    },
    {
      "inputs": [
        {
          "internalType": "bytes32",
          "name": "collateralType",
          "type": "bytes32"
        },
        {
          "internalType": "uint256",
          "name": "amount",
          "type": "uint256"
        },
        {
          "internalType": "address",
          "name": "to",
          "type": "address"
        }
      ],
      "name": "onWithdraw",
      "outputs": [],
      "stateMutability": "nonpayable",
      "type": "function"
    },
    {
      "inputs": [],
      "name": "pause",
      "outputs": [],
      "stateMutability": "nonpayable",
      "type": "function"
    },
    {
      "inputs": [],
      "name": "paused",
      "outputs": [
        {
          "internalType": "bool",
          "name": "",
          "type": "bool"
        }
      ],
      "stateMutability": "view",
      "type": "function"
    },
    {
      "inputs": [
        {
          "internalType": "bytes32",
          "name": "",
          "type": "bytes32"
        }
      ],
      "name": "poolInfo",
      "outputs": [
        {
          "internalType": "uint256",
          "name": "accAmountPerShare",
          "type": "uint256"
        }
      ],
      "stateMutability": "view",
      "type": "function"
    },
    {
      "inputs": [
        {
          "internalType": "bytes32",
          "name": "collateralType",
          "type": "bytes32"
        },
        {
          "internalType": "uint256",
          "name": "refundAmount",
          "type": "uint256"
        }
      ],
      "name": "refund",
      "outputs": [],
      "stateMutability": "nonpayable",
      "type": "function"
    },
    {
      "inputs": [
        {
          "internalType": "bytes32",
          "name": "role",
          "type": "bytes32"
        },
        {
          "internalType": "address",
          "name": "account",
          "type": "address"
        }
      ],
      "name": "renounceRole",
      "outputs": [],
      "stateMutability": "nonpayable",
      "type": "function"
    },
    {
      "inputs": [
        {
          "internalType": "bytes32",
          "name": "role",
          "type": "bytes32"
        },
        {
          "internalType": "address",
          "name": "account",
          "type": "address"
        }
      ],
      "name": "revokeRole",
      "outputs": [],
      "stateMutability": "nonpayable",
      "type": "function"
    },
    {
      "inputs": [
        {
          "internalType": "address",
          "name": "newOwner",
          "type": "address"
        }
      ],
      "name": "transferOwnership",
      "outputs": [],
      "stateMutability": "nonpayable",
      "type": "function"
    },
    {
      "inputs": [],
      "name": "unpause",
      "outputs": [],
      "stateMutability": "nonpayable",
      "type": "function"
    },
    {
      "inputs": [
        {
          "internalType": "bytes32",
          "name": "",
          "type": "bytes32"
        },
        {
          "internalType": "address",
          "name": "",
          "type": "address"
        }
      ],
      "name": "userInfo",
      "outputs": [
        {
          "internalType": "int256",
          "name": "debt",
          "type": "int256"
        },
        {
          "internalType": "uint256",
          "name": "claimedAmount",
          "type": "uint256"
        }
      ],
      "stateMutability": "view",
      "type": "function"
    },
    {
      "inputs": [],
      "name": "version",
      "outputs": [
        {
          "internalType": "uint256",
          "name": "",
          "type": "uint256"
        }
      ],
      "stateMutability": "view",
      "type": "function"
    }
  ],
  "transactionHash": "0x49a8adf23b4fb5c6f484bafd222133b82d04af94245d7809f59895f29ec40dd8",
  "args": [],
  "solcInputHash": "2c3e05618fb6b35a6971e0adaeb214a6",
  "bytecode": "0x608060405234801561001057600080fd5b5061166c806100206000396000f3fe608060405234801561001057600080fd5b50600436106101585760003560e01c806370bdefc1116100c3578063a217fddf1161007c578063a217fddf146102fe578063a6d5f10314610306578063d366f3b914610319578063d547741f1461032c578063f2fde38b1461033f578063fc474fe21461035257610158565b806370bdefc1146102955780638456cb59146102a857806384d842c4146102b05780638cebd942146102b857806391d14854146102d857806396c144f0146102eb57610158565b80634b0690a2116101155780634b0690a2146101d957806354fd4d50146101ec57806356397c35146101f4578063567fdba8146102245780635c975abb1461026b578063695eda191461028257610158565b8063248a9ca31461015d5780632ad3fa86146101835780632f2ff15d1461019857806332ced110146101ab57806336568abe146101be5780633f4ba83a146101d1575b600080fd5b61017061016b36600461139f565b610365565b6040519081526020015b60405180910390f35b6101966101913660046113e2565b61037e565b005b6101966101a63660046113b7565b6103d5565b6101966101b93660046113b7565b6103f2565b6101966101cc3660046113b7565b61042d565b6101966104a7565b6101966101e7366004611437565b610545565b610170600181565b60025461020c9061010090046001600160a01b031681565b6040516001600160a01b03909116815260200161017a565b6102566102323660046113b7565b60056020908152600092835260408084209091529082529020805460019091015482565b6040805192835260208301919091520161017a565b60025460ff165b604051901515815260200161017a565b610196610290366004611416565b610658565b6101706102a33660046113b7565b610842565b61019661098c565b610196610a00565b6101706102c636600461139f565b60046020526000908152604090205481565b6102726102e63660046113b7565b610a7e565b6101966102f93660046113b7565b610aa9565b610170600081565b60035461020c906001600160a01b031681565b6101966103273660046113b7565b610ad7565b61019661033a3660046113b7565b610bcd565b61019661034d36600461135e565b610bea565b610196610360366004611437565b610c20565b600081815260016020819052604090912001545b919050565b6103906430b236b4b760d91b33610d19565b60008213156103ac576103ac836103a684610d7d565b83610545565b60008212156103d0576103d0836103ca6103c585611606565b610d7d565b83610c20565b505050565b6103de82610365565b6103e88133610d19565b6103d08383610dd3565b60025460ff161561041e5760405162461bcd60e51b8152600401610415906114b7565b60405180910390fd5b610429828283610e3e565b5050565b6001600160a01b038116331461049d5760405162461bcd60e51b815260206004820152602f60248201527f416363657373436f6e74726f6c3a2063616e206f6e6c792072656e6f756e636560448201526e103937b632b9903337b91039b2b63360891b6064820152608401610415565b6104298282611046565b60025460ff166104f05760405162461bcd60e51b815260206004820152601460248201527314185d5cd8589b194e881b9bdd081c185d5cd95960621b6044820152606401610415565b653830bab9b2b960d11b6105048133610d19565b6002805460ff191690556040513381527f5db9ee0a495bf2e6ff9c91a7834c1ba4fdd244a5e8aa4e537bd38aeae4b073aa906020015b60405180910390a150565b6105576430b236b4b760d91b33610d19565b60025460ff161561057a5760405162461bcd60e51b8152600401610415906114b7565b636b6c617960e01b83141561058e576103d0565b60008381526004602090815260408083208151808401835290548152868452600583528184206001600160a01b038616855290925290912081516105ec9064e8d4a51000906105dd90876115a8565b6105e79190611588565b6110ad565b8160000160008282546105ff919061152f565b909155505060408051868152602081018690526001600160a01b038516918101919091527fdd6949a56c21c08b78f6a73eb8bebc859eff308638c0bc5eb78c017148dd0ee0906060015b60405180910390a15050505050565b60025460ff161561067b5760405162461bcd60e51b8152600401610415906114b7565b6003546040516323b872dd60e01b8152336004820152306024820152604481018390526001600160a01b03909116906323b872dd90606401602060405180830381600087803b1580156106cd57600080fd5b505af11580156106e1573d6000803e3d6000fd5b505050506040513d601f19601f82011682018060405250810190610705919061137f565b506000828152600460208181526040808420815192830182525482526002549051637d5422a760e01b81529283018690529092916101009091046001600160a01b031690637d5422a79060240160c06040518083038186803b15801561076a57600080fd5b505afa15801561077e573d6000803e3d6000fd5b505050506040513d601f19601f820116820180604052508101906107a2919061146e565b5050505091505060008111156107ed57806107c264e8d4a51000856115a8565b6107cc9190611588565b82516107d89190611570565b82526000848152600460205260409020825190555b815160408051868152426020820152808201869052606081018490526080810192909252517f3549f6e4589c91dca2f467e18787ff6dee39f5a7ba9a56e17400ff543752ad539181900360a00190a150505050565b600061085060025460ff1690565b1561086d5760405162461bcd60e51b8152600401610415906114b7565b60008381526004602081815260408084208151808401835290548152878552600583528185206001600160a01b03808916875293528185208151600254935163b75baf7960e01b8152929691959094919361010090049091169163b75baf79916108ed918b918b91019182526001600160a01b0316602082015260400190565b604080518083038186803b15801561090457600080fd5b505afa158015610918573d6000803e3d6000fd5b505050506040513d601f19601f8201168201806040525081019061093c919061144b565b84549092506000915061095864e8d4a510006105dd86866115a8565b61096291906115c7565b905060008113610973576000610975565b805b905061098081610d7d565b98975050505050505050565b60025460ff16156109af5760405162461bcd60e51b8152600401610415906114b7565b653830bab9b2b960d11b6109c38133610d19565b6002805460ff191660011790556040513381527f62e78cea01bee320cd4e420270b5ea74000d11b0c9f74754ebdbfc544b05a2589060200161053a565b600054610100900460ff1680610a155750303b155b80610a23575060005460ff16155b610a3f5760405162461bcd60e51b8152600401610415906114e1565b600054610100900460ff16158015610a61576000805461ffff19166101011790555b610a69611117565b8015610a7b576000805461ff00191690555b50565b60009182526001602090815260408084206001600160a01b0393909316845291905290205460ff1690565b60025460ff1615610acc5760405162461bcd60e51b8152600401610415906114b7565b610429823383610e3e565b610ae96430b236b4b760d91b33610d19565b60025460ff1615610b0c5760405162461bcd60e51b8152600401610415906114b7565b81653632b233b2b960d11b1415610b425760028054610100600160a81b0319166101006001600160a01b03841602179055610429565b81621adcd960ea1b1415610b7057600380546001600160a01b0319166001600160a01b038316179055610429565b60405162461bcd60e51b815260206004820152602c60248201527f4b7364526566756e644d616e616765723a3a636f6e6669673a20756e7265636f60448201526b676e697a65642d706172616d60a01b6064820152608401610415565b610bd682610365565b610be08133610d19565b6103d08383611046565b610bfc6437bbb732b960d91b33610d19565b610c0e6437bbb732b960d91b82610dd3565b610a7b6437bbb732b960d91b33611046565b610c326430b236b4b760d91b33610d19565b60025460ff1615610c555760405162461bcd60e51b8152600401610415906114b7565b636b6c617960e01b831415610c69576103d0565b60008381526004602090815260408083208151808401835290548152868452600583528184206001600160a01b03861685529092529091208151610cb89064e8d4a51000906105dd90876115a8565b816000016000828254610ccb91906115c7565b909155505060408051868152602081018690526001600160a01b038516918101919091527f181177e6e9bbf7d7a45604cf4fdb0444641e20905d8d4daf2a7863036e56dc1590606001610649565b610d238282610a7e565b6104295760405162461bcd60e51b815260206004820152602560248201527f416363657373436f6e74726f6c3a5f636865636b526f6c653a696e76616c696460448201526420726f6c6560d81b6064820152608401610415565b600080821215610dcf5760405162461bcd60e51b815260206004820181905260248201527f53616665436173743a2076616c7565206d75737420626520706f7369746976656044820152606401610415565b5090565b610ddd8282610a7e565b6104295760008281526001602081815260408084206001600160a01b0386168086529252808420805460ff19169093179092559051339285917f2f8788117e7eff1d82e926ec794901d17c78024a50270940304540a733656f0d9190a45050565b60008381526004602081815260408084208151808401835290548152878552600583528185206001600160a01b0380891687529352818520600254925163b75baf7960e01b81529195909490936101009093049092169163b75baf7991610ebb918a918a91019182526001600160a01b0316602082015260400190565b604080518083038186803b158015610ed257600080fd5b505afa158015610ee6573d6000803e3d6000fd5b505050506040513d601f19601f82011682018060405250810190610f0a919061144b565b9150506000610f2864e8d4a510008560000151846105dd91906115a8565b90506000610f3f8460000154836103c591906115c7565b905080610f505750505050506103d0565b81845560035460405163a9059cbb60e01b81526001600160a01b038881166004830152602482018490529091169063a9059cbb90604401602060405180830381600087803b158015610fa157600080fd5b505af1158015610fb5573d6000803e3d6000fd5b505050506040513d601f19601f82011682018060405250810190610fd9919061137f565b5080846001016000828254610fee9190611570565b9091555050604080518981526001600160a01b03891660208201529081018290527f46e470efd1d5601791612d2263f0a4437104a35be37a932cdc59dfe948c8dfbc9060600160405180910390a15050505050505050565b6110508282610a7e565b156104295760008281526001602090815260408083206001600160a01b0385168085529252808320805460ff1916905551339285917ff6391f5c32d9c69d2a47ea670b442974b53935d1edc7fd64eb21e047a839171b9190a45050565b60006001600160ff1b03821115610dcf5760405162461bcd60e51b815260206004820152602860248201527f53616665436173743a2076616c756520646f65736e27742066697420696e2061604482015267371034b73a191a9b60c11b6064820152608401610415565b600054610100900460ff168061112c5750303b155b8061113a575060005460ff16155b6111565760405162461bcd60e51b8152600401610415906114e1565b600054610100900460ff16158015611178576000805461ffff19166101011790555b6111806111ae565b61119b653830bab9b2b960d11b6437bbb732b960d91b611217565b610a69653830bab9b2b960d11b3361126c565b600054610100900460ff16806111c35750303b155b806111d1575060005460ff16155b6111ed5760405162461bcd60e51b8152600401610415906114e1565b600054610100900460ff1615801561120f576000805461ffff19166101011790555b610a69611276565b600061122283610365565b6000848152600160208190526040808320909101859055519192508391839186917fbd79b86ffe0ab8e8776151514217cd7cacd52c909f66475c3af44e129f0b00ff9190a4505050565b6104298282610dd3565b600054610100900460ff168061128b5750303b155b80611299575060005460ff16155b6112b55760405162461bcd60e51b8152600401610415906114e1565b600054610100900460ff161580156112d7576000805461ffff19166101011790555b6112e96437bbb732b960d91b3361126c565b6113036430b236b4b760d91b6437bbb732b960d91b611217565b6113206737b832b930ba37b960c11b6437bbb732b960d91b611217565b6113326430b236b4b760d91b3361126c565b610a696737b832b930ba37b960c11b3361126c565b80356001600160a01b038116811461037957600080fd5b60006020828403121561136f578081fd5b61137882611347565b9392505050565b600060208284031215611390578081fd5b81518015158114611378578182fd5b6000602082840312156113b0578081fd5b5035919050565b600080604083850312156113c9578081fd5b823591506113d960208401611347565b90509250929050565b6000806000606084860312156113f6578081fd5b833592506020840135915061140d60408501611347565b90509250925092565b60008060408385031215611428578182fd5b50508035926020909101359150565b6000806000606084860312156113f6578283fd5b6000806040838503121561145d578182fd5b505080516020909101519092909150565b60008060008060008060c08789031215611486578182fd5b865195506020870151945060408701519350606087015192506080870151915060a087015190509295509295509295565b60208082526010908201526f14185d5cd8589b194e881c185d5cd95960821b604082015260600190565b6020808252602e908201527f496e697469616c697a61626c653a20636f6e747261637420697320616c72656160408201526d191e481a5b9a5d1a585b1a5e995960921b606082015260800190565b600080821280156001600160ff1b038490038513161561155157611551611620565b600160ff1b839003841281161561156a5761156a611620565b50500190565b6000821982111561158357611583611620565b500190565b6000826115a357634e487b7160e01b81526012600452602481fd5b500490565b60008160001904831182151516156115c2576115c2611620565b500290565b60008083128015600160ff1b8501841216156115e5576115e5611620565b6001600160ff1b038401831381161561160057611600611620565b50500390565b6000600160ff1b82141561161c5761161c611620565b0390565b634e487b7160e01b600052601160045260246000fdfea2646970667358221220337faae7b750c500d2c9bfb45da249e8d1955574cad012dec5d62c0c9d08c29664736f6c63430008030033",
  "devdoc": {
    "kind": "dev",
    "methods": {},
    "version": 1
  },
  "userdoc": {
    "kind": "user",
    "methods": {},
    "version": 1
  },
  "storageLayout": {
    "storage": [
      {
        "astId": 25013,
        "contract": "contracts/yield/KsdRefundManager.sol:KsdRefundManager",
        "label": "_initialized",
        "offset": 0,
        "slot": "0",
        "type": "t_bool"
      },
      {
        "astId": 25016,
        "contract": "contracts/yield/KsdRefundManager.sol:KsdRefundManager",
        "label": "_initializing",
        "offset": 1,
        "slot": "0",
        "type": "t_bool"
      },
      {
        "astId": 21959,
        "contract": "contracts/yield/KsdRefundManager.sol:KsdRefundManager",
        "label": "_roles",
        "offset": 0,
        "slot": "1",
        "type": "t_mapping(t_bytes32,t_struct(RoleData)21954_storage)"
      },
      {
        "astId": 22349,
        "contract": "contracts/yield/KsdRefundManager.sol:KsdRefundManager",
        "label": "_paused",
        "offset": 0,
        "slot": "2",
        "type": "t_bool"
      },
      {
        "astId": 43987,
        "contract": "contracts/yield/KsdRefundManager.sol:KsdRefundManager",
        "label": "ledger",
        "offset": 1,
        "slot": "2",
        "type": "t_contract(ILedger)8858"
      },
      {
        "astId": 43990,
        "contract": "contracts/yield/KsdRefundManager.sol:KsdRefundManager",
        "label": "ksd",
        "offset": 0,
        "slot": "3",
        "type": "t_contract(IKIP7)9935"
      },
      {
        "astId": 43995,
        "contract": "contracts/yield/KsdRefundManager.sol:KsdRefundManager",
        "label": "poolInfo",
        "offset": 0,
        "slot": "4",
        "type": "t_mapping(t_bytes32,t_struct(PoolInfo)8495_storage)"
      },
      {
        "astId": 44002,
        "contract": "contracts/yield/KsdRefundManager.sol:KsdRefundManager",
        "label": "userInfo",
        "offset": 0,
        "slot": "5",
        "type": "t_mapping(t_bytes32,t_mapping(t_address,t_struct(UserInfo)8500_storage))"
      }
    ],
    "types": {
      "t_address": {
        "encoding": "inplace",
        "label": "address",
        "numberOfBytes": "20"
      },
      "t_bool": {
        "encoding": "inplace",
        "label": "bool",
        "numberOfBytes": "1"
      },
      "t_bytes32": {
        "encoding": "inplace",
        "label": "bytes32",
        "numberOfBytes": "32"
      },
      "t_contract(IKIP7)9935": {
        "encoding": "inplace",
        "label": "contract IKIP7",
        "numberOfBytes": "20"
      },
      "t_contract(ILedger)8858": {
        "encoding": "inplace",
        "label": "contract ILedger",
        "numberOfBytes": "20"
      },
      "t_int256": {
        "encoding": "inplace",
        "label": "int256",
        "numberOfBytes": "32"
      },
      "t_mapping(t_address,t_bool)": {
        "encoding": "mapping",
        "key": "t_address",
        "label": "mapping(address => bool)",
        "numberOfBytes": "32",
        "value": "t_bool"
      },
      "t_mapping(t_address,t_struct(UserInfo)8500_storage)": {
        "encoding": "mapping",
        "key": "t_address",
        "label": "mapping(address => struct IKsdRefundManager.UserInfo)",
        "numberOfBytes": "32",
        "value": "t_struct(UserInfo)8500_storage"
      },
      "t_mapping(t_bytes32,t_mapping(t_address,t_struct(UserInfo)8500_storage))": {
        "encoding": "mapping",
        "key": "t_bytes32",
        "label": "mapping(bytes32 => mapping(address => struct IKsdRefundManager.UserInfo))",
        "numberOfBytes": "32",
        "value": "t_mapping(t_address,t_struct(UserInfo)8500_storage)"
      },
      "t_mapping(t_bytes32,t_struct(PoolInfo)8495_storage)": {
        "encoding": "mapping",
        "key": "t_bytes32",
        "label": "mapping(bytes32 => struct IKsdRefundManager.PoolInfo)",
        "numberOfBytes": "32",
        "value": "t_struct(PoolInfo)8495_storage"
      },
      "t_mapping(t_bytes32,t_struct(RoleData)21954_storage)": {
        "encoding": "mapping",
        "key": "t_bytes32",
        "label": "mapping(bytes32 => struct AccessControl.RoleData)",
        "numberOfBytes": "32",
        "value": "t_struct(RoleData)21954_storage"
      },
      "t_struct(PoolInfo)8495_storage": {
        "encoding": "inplace",
        "label": "struct IKsdRefundManager.PoolInfo",
        "members": [
          {
            "astId": 8494,
            "contract": "contracts/yield/KsdRefundManager.sol:KsdRefundManager",
            "label": "accAmountPerShare",
            "offset": 0,
            "slot": "0",
            "type": "t_uint256"
          }
        ],
        "numberOfBytes": "32"
      },
      "t_struct(RoleData)21954_storage": {
        "encoding": "inplace",
        "label": "struct AccessControl.RoleData",
        "members": [
          {
            "astId": 21951,
            "contract": "contracts/yield/KsdRefundManager.sol:KsdRefundManager",
            "label": "members",
            "offset": 0,
            "slot": "0",
            "type": "t_mapping(t_address,t_bool)"
          },
          {
            "astId": 21953,
            "contract": "contracts/yield/KsdRefundManager.sol:KsdRefundManager",
            "label": "adminRole",
            "offset": 0,
            "slot": "1",
            "type": "t_bytes32"
          }
        ],
        "numberOfBytes": "64"
      },
      "t_struct(UserInfo)8500_storage": {
        "encoding": "inplace",
        "label": "struct IKsdRefundManager.UserInfo",
        "members": [
          {
            "astId": 8497,
            "contract": "contracts/yield/KsdRefundManager.sol:KsdRefundManager",
            "label": "debt",
            "offset": 0,
            "slot": "0",
            "type": "t_int256"
          },
          {
            "astId": 8499,
            "contract": "contracts/yield/KsdRefundManager.sol:KsdRefundManager",
            "label": "claimedAmount",
            "offset": 0,
            "slot": "1",
            "type": "t_uint256"
          }
        ],
        "numberOfBytes": "64"
      },
      "t_uint256": {
        "encoding": "inplace",
        "label": "uint256",
        "numberOfBytes": "32"
      }
    }
  }
}