{
  "address": "0x97B0Cbc892dA265fEA98905626E207A14b28a037",
  "abi": [
    {
      "anonymous": false,
      "inputs": [
        {
          "indexed": true,
          "internalType": "address",
          "name": "pool",
          "type": "address"
        },
        {
          "indexed": true,
          "internalType": "address",
          "name": "user",
          "type": "address"
        },
        {
          "indexed": false,
          "internalType": "uint256",
          "name": "amount",
          "type": "uint256"
        }
      ],
      "name": "ClaimReward",
      "type": "event"
    },
    {
      "anonymous": false,
      "inputs": [
        {
          "indexed": true,
          "internalType": "address",
          "name": "pool",
          "type": "address"
        },
        {
          "indexed": false,
          "internalType": "uint256",
          "name": "amount",
          "type": "uint256"
        },
        {
          "indexed": true,
          "internalType": "address",
          "name": "to",
          "type": "address"
        }
      ],
      "name": "Deposit",
      "type": "event"
    },
    {
      "anonymous": false,
      "inputs": [
        {
          "indexed": false,
          "internalType": "uint256",
          "name": "now",
          "type": "uint256"
        },
        {
          "indexed": false,
          "internalType": "uint256",
          "name": "amount",
          "type": "uint256"
        }
      ],
      "name": "Distribute",
      "type": "event"
    },
    {
      "anonymous": false,
      "inputs": [],
      "name": "LogInit",
      "type": "event"
    },
    {
      "anonymous": false,
      "inputs": [
        {
          "indexed": true,
          "internalType": "uint256",
          "name": "pid",
          "type": "uint256"
        },
        {
          "indexed": false,
          "internalType": "uint256",
          "name": "allocPoint",
          "type": "uint256"
        },
        {
          "indexed": true,
          "internalType": "address",
          "name": "lpToken",
          "type": "address"
        }
      ],
      "name": "LogPoolAddition",
      "type": "event"
    },
    {
      "anonymous": false,
      "inputs": [
        {
          "indexed": true,
          "internalType": "address",
          "name": "pool",
          "type": "address"
        },
        {
          "indexed": false,
          "internalType": "uint256",
          "name": "allocPoint",
          "type": "uint256"
        }
      ],
      "name": "LogSetPool",
      "type": "event"
    },
    {
      "anonymous": false,
      "inputs": [
        {
          "indexed": true,
          "internalType": "address",
          "name": "pool",
          "type": "address"
        },
        {
          "indexed": false,
          "internalType": "uint256",
          "name": "now",
          "type": "uint256"
        },
        {
          "indexed": false,
          "internalType": "uint256",
          "name": "lpSupply",
          "type": "uint256"
        },
        {
          "indexed": false,
          "internalType": "uint256",
          "name": "accRewardPerShare",
          "type": "uint256"
        }
      ],
      "name": "LogUpdatePool",
      "type": "event"
    },
    {
      "anonymous": false,
      "inputs": [
        {
          "indexed": false,
          "internalType": "address",
          "name": "account",
          "type": "address"
        }
      ],
      "name": "Paused",
      "type": "event"
    },
    {
      "anonymous": false,
      "inputs": [
        {
          "indexed": true,
          "internalType": "bytes32",
          "name": "role",
          "type": "bytes32"
        },
        {
          "indexed": true,
          "internalType": "bytes32",
          "name": "previousAdminRole",
          "type": "bytes32"
        },
        {
          "indexed": true,
          "internalType": "bytes32",
          "name": "newAdminRole",
          "type": "bytes32"
        }
      ],
      "name": "RoleAdminChanged",
      "type": "event"
    },
    {
      "anonymous": false,
      "inputs": [
        {
          "indexed": true,
          "internalType": "bytes32",
          "name": "role",
          "type": "bytes32"
        },
        {
          "indexed": true,
          "internalType": "address",
          "name": "account",
          "type": "address"
        },
        {
          "indexed": true,
          "internalType": "address",
          "name": "sender",
          "type": "address"
        }
      ],
      "name": "RoleGranted",
      "type": "event"
    },
    {
      "anonymous": false,
      "inputs": [
        {
          "indexed": true,
          "internalType": "bytes32",
          "name": "role",
          "type": "bytes32"
        },
        {
          "indexed": true,
          "internalType": "address",
          "name": "account",
          "type": "address"
        },
        {
          "indexed": true,
          "internalType": "address",
          "name": "sender",
          "type": "address"
        }
      ],
      "name": "RoleRevoked",
      "type": "event"
    },
    {
      "anonymous": false,
      "inputs": [
        {
          "indexed": false,
          "internalType": "address",
          "name": "account",
          "type": "address"
        }
      ],
      "name": "Unpaused",
      "type": "event"
    },
    {
      "anonymous": false,
      "inputs": [
        {
          "indexed": true,
          "internalType": "address",
          "name": "pool",
          "type": "address"
        },
        {
          "indexed": false,
          "internalType": "uint256",
          "name": "amount",
          "type": "uint256"
        },
        {
          "indexed": true,
          "internalType": "address",
          "name": "to",
          "type": "address"
        }
      ],
      "name": "Withdraw",
      "type": "event"
    },
    {
      "inputs": [],
      "name": "DEFAULT_ADMIN_ROLE",
      "outputs": [
        {
          "internalType": "bytes32",
          "name": "",
          "type": "bytes32"
        }
      ],
      "stateMutability": "view",
      "type": "function"
    },
    {
      "inputs": [
        {
          "internalType": "address",
          "name": "ksd_",
          "type": "address"
        },
        {
          "internalType": "address",
          "name": "dksd_",
          "type": "address"
        }
      ],
      "name": "__KSDRewardManager_init",
      "outputs": [],
      "stateMutability": "nonpayable",
      "type": "function"
    },
    {
      "inputs": [],
      "name": "__legacy1",
      "outputs": [
        {
          "internalType": "uint256",
          "name": "",
          "type": "uint256"
        }
      ],
      "stateMutability": "view",
      "type": "function"
    },
    {
      "inputs": [],
      "name": "accRewardPrecision",
      "outputs": [
        {
          "internalType": "uint256",
          "name": "",
          "type": "uint256"
        }
      ],
      "stateMutability": "pure",
      "type": "function"
    },
    {
      "inputs": [
        {
          "internalType": "uint256",
          "name": "allocPoint",
          "type": "uint256"
        },
        {
          "internalType": "address",
          "name": "pool",
          "type": "address"
        }
      ],
      "name": "add",
      "outputs": [],
      "stateMutability": "nonpayable",
      "type": "function"
    },
    {
      "inputs": [
        {
          "internalType": "address",
          "name": "pool",
          "type": "address"
        },
        {
          "internalType": "address",
          "name": "to",
          "type": "address"
        }
      ],
      "name": "claimReward",
      "outputs": [
        {
          "internalType": "bool",
          "name": "success",
          "type": "bool"
        }
      ],
      "stateMutability": "nonpayable",
      "type": "function"
    },
    {
      "inputs": [
        {
          "internalType": "address",
          "name": "usr",
          "type": "address"
        }
      ],
      "name": "claimRewardAllByOther",
      "outputs": [
        {
          "internalType": "bool",
          "name": "success",
          "type": "bool"
        }
      ],
      "stateMutability": "nonpayable",
      "type": "function"
    },
    {
      "inputs": [
        {
          "internalType": "address",
          "name": "pool",
          "type": "address"
        },
        {
          "internalType": "address",
          "name": "usr",
          "type": "address"
        }
      ],
      "name": "claimRewardByOther",
      "outputs": [
        {
          "internalType": "bool",
          "name": "success",
          "type": "bool"
        }
      ],
      "stateMutability": "nonpayable",
      "type": "function"
    },
    {
      "inputs": [
        {
          "internalType": "address",
          "name": "pool",
          "type": "address"
        },
        {
          "internalType": "address",
          "name": "usr",
          "type": "address"
        }
      ],
      "name": "claimableReward",
      "outputs": [
        {
          "internalType": "uint256",
          "name": "claimable",
          "type": "uint256"
        }
      ],
      "stateMutability": "view",
      "type": "function"
    },
    {
      "inputs": [
        {
          "internalType": "bytes32",
          "name": "what",
          "type": "bytes32"
        },
        {
          "internalType": "uint256",
          "name": "data",
          "type": "uint256"
        }
      ],
      "name": "config",
      "outputs": [],
      "stateMutability": "nonpayable",
      "type": "function"
    },
    {
      "inputs": [
        {
          "internalType": "uint256",
          "name": "earning",
          "type": "uint256"
        }
      ],
      "name": "distribute",
      "outputs": [],
      "stateMutability": "nonpayable",
      "type": "function"
    },
    {
      "inputs": [],
      "name": "dksd",
      "outputs": [
        {
          "internalType": "contract IDKSD",
          "name": "",
          "type": "address"
        }
      ],
      "stateMutability": "view",
      "type": "function"
    },
    {
      "inputs": [],
      "name": "earnCursor",
      "outputs": [
        {
          "internalType": "uint256",
          "name": "",
          "type": "uint256"
        }
      ],
      "stateMutability": "view",
      "type": "function"
    },
    {
      "inputs": [
        {
          "internalType": "uint256",
          "name": "",
          "type": "uint256"
        }
      ],
      "name": "earnHistories",
      "outputs": [
        {
          "internalType": "uint256",
          "name": "timestamp",
          "type": "uint256"
        },
        {
          "internalType": "uint256",
          "name": "amount",
          "type": "uint256"
        }
      ],
      "stateMutability": "view",
      "type": "function"
    },
    {
      "inputs": [],
      "name": "earnHistoriesLength",
      "outputs": [
        {
          "internalType": "uint256",
          "name": "",
          "type": "uint256"
        }
      ],
      "stateMutability": "view",
      "type": "function"
    },
    {
      "inputs": [],
      "name": "earnSumInRange",
      "outputs": [
        {
          "internalType": "uint256",
          "name": "",
          "type": "uint256"
        }
      ],
      "stateMutability": "view",
      "type": "function"
    },
    {
      "inputs": [
        {
          "internalType": "bytes32",
          "name": "role",
          "type": "bytes32"
        }
      ],
      "name": "getRoleAdmin",
      "outputs": [
        {
          "internalType": "bytes32",
          "name": "",
          "type": "bytes32"
        }
      ],
      "stateMutability": "view",
      "type": "function"
    },
    {
      "inputs": [
        {
          "internalType": "bytes32",
          "name": "role",
          "type": "bytes32"
        },
        {
          "internalType": "address",
          "name": "account",
          "type": "address"
        }
      ],
      "name": "grantRole",
      "outputs": [],
      "stateMutability": "nonpayable",
      "type": "function"
    },
    {
      "inputs": [
        {
          "internalType": "bytes32",
          "name": "role",
          "type": "bytes32"
        },
        {
          "internalType": "address",
          "name": "account",
          "type": "address"
        }
      ],
      "name": "hasRole",
      "outputs": [
        {
          "internalType": "bool",
          "name": "",
          "type": "bool"
        }
      ],
      "stateMutability": "view",
      "type": "function"
    },
    {
      "inputs": [],
      "name": "ksd",
      "outputs": [
        {
          "internalType": "contract IKIP7",
          "name": "",
          "type": "address"
        }
      ],
      "stateMutability": "view",
      "type": "function"
    },
    {
      "inputs": [
        {
          "internalType": "address[]",
          "name": "pools",
          "type": "address[]"
        }
      ],
      "name": "massUpdatePools",
      "outputs": [],
      "stateMutability": "nonpayable",
      "type": "function"
    },
    {
      "inputs": [
        {
          "internalType": "int256",
          "name": "amount",
          "type": "int256"
        },
        {
          "internalType": "address",
          "name": "to",
          "type": "address"
        }
      ],
      "name": "onChanged",
      "outputs": [],
      "stateMutability": "nonpayable",
      "type": "function"
    },
    {
      "inputs": [
        {
          "internalType": "uint256",
          "name": "amount",
          "type": "uint256"
        },
        {
          "internalType": "address",
          "name": "to",
          "type": "address"
        }
      ],
      "name": "onDeposit",
      "outputs": [],
      "stateMutability": "nonpayable",
      "type": "function"
    },
    {
      "inputs": [
        {
          "internalType": "uint256",
          "name": "amount",
          "type": "uint256"
        },
        {
          "internalType": "address",
          "name": "to",
          "type": "address"
        }
      ],
      "name": "onWithdraw",
      "outputs": [],
      "stateMutability": "nonpayable",
      "type": "function"
    },
    {
      "inputs": [],
      "name": "pause",
      "outputs": [],
      "stateMutability": "nonpayable",
      "type": "function"
    },
    {
      "inputs": [],
      "name": "paused",
      "outputs": [
        {
          "internalType": "bool",
          "name": "",
          "type": "bool"
        }
      ],
      "stateMutability": "view",
      "type": "function"
    },
    {
      "inputs": [
        {
          "internalType": "address",
          "name": "",
          "type": "address"
        }
      ],
      "name": "poolInfo",
      "outputs": [
        {
          "internalType": "uint256",
          "name": "accRewardPerShare",
          "type": "uint256"
        },
        {
          "internalType": "uint256",
          "name": "ksdReward",
          "type": "uint256"
        },
        {
          "internalType": "uint256",
          "name": "allocPoint",
          "type": "uint256"
        },
        {
          "internalType": "bool",
          "name": "init",
          "type": "bool"
        }
      ],
      "stateMutability": "view",
      "type": "function"
    },
    {
      "inputs": [],
      "name": "poolLength",
      "outputs": [
        {
          "internalType": "uint256",
          "name": "",
          "type": "uint256"
        }
      ],
      "stateMutability": "view",
      "type": "function"
    },
    {
      "inputs": [],
      "name": "range",
      "outputs": [
        {
          "internalType": "uint256",
          "name": "",
          "type": "uint256"
        }
      ],
      "stateMutability": "view",
      "type": "function"
    },
    {
      "inputs": [
        {
          "internalType": "bytes32",
          "name": "role",
          "type": "bytes32"
        },
        {
          "internalType": "address",
          "name": "account",
          "type": "address"
        }
      ],
      "name": "renounceRole",
      "outputs": [],
      "stateMutability": "nonpayable",
      "type": "function"
    },
    {
      "inputs": [
        {
          "internalType": "bytes32",
          "name": "role",
          "type": "bytes32"
        },
        {
          "internalType": "address",
          "name": "account",
          "type": "address"
        }
      ],
      "name": "revokeRole",
      "outputs": [],
      "stateMutability": "nonpayable",
      "type": "function"
    },
    {
      "inputs": [
        {
          "internalType": "uint256",
          "name": "",
          "type": "uint256"
        }
      ],
      "name": "rewardPool",
      "outputs": [
        {
          "internalType": "contract IRewardPool",
          "name": "",
          "type": "address"
        }
      ],
      "stateMutability": "view",
      "type": "function"
    },
    {
      "inputs": [],
      "name": "rewardPools",
      "outputs": [
        {
          "internalType": "address[]",
          "name": "pools",
          "type": "address[]"
        }
      ],
      "stateMutability": "view",
      "type": "function"
    },
    {
      "inputs": [
        {
          "internalType": "address",
          "name": "pool",
          "type": "address"
        },
        {
          "internalType": "uint256",
          "name": "allocPoint",
          "type": "uint256"
        }
      ],
      "name": "set",
      "outputs": [],
      "stateMutability": "nonpayable",
      "type": "function"
    },
    {
      "inputs": [],
      "name": "targetDksdApr",
      "outputs": [
        {
          "internalType": "uint256",
          "name": "",
          "type": "uint256"
        }
      ],
      "stateMutability": "view",
      "type": "function"
    },
    {
      "inputs": [],
      "name": "totalAllocPoint",
      "outputs": [
        {
          "internalType": "uint256",
          "name": "",
          "type": "uint256"
        }
      ],
      "stateMutability": "view",
      "type": "function"
    },
    {
      "inputs": [
        {
          "internalType": "address",
          "name": "newOwner",
          "type": "address"
        }
      ],
      "name": "transferOwnership",
      "outputs": [],
      "stateMutability": "nonpayable",
      "type": "function"
    },
    {
      "inputs": [],
      "name": "unpause",
      "outputs": [],
      "stateMutability": "nonpayable",
      "type": "function"
    },
    {
      "inputs": [
        {
          "internalType": "address",
          "name": "pool",
          "type": "address"
        }
      ],
      "name": "updatePool",
      "outputs": [],
      "stateMutability": "nonpayable",
      "type": "function"
    },
    {
      "inputs": [
        {
          "internalType": "address",
          "name": "",
          "type": "address"
        },
        {
          "internalType": "address",
          "name": "",
          "type": "address"
        }
      ],
      "name": "userInfo",
      "outputs": [
        {
          "internalType": "int256",
          "name": "rewardDebt",
          "type": "int256"
        },
        {
          "internalType": "uint256",
          "name": "claimedReward",
          "type": "uint256"
        }
      ],
      "stateMutability": "view",
      "type": "function"
    }
  ],
  "transactionHash": "0x1f92b303ce3f9cee5c3d3f334a9eab14eb75da3711ca9ee5b2ebbe500480521e",
  "args": [],
  "solcInputHash": "d34a28551283c47bd0ce48b4e04ea7d0",
  "bytecode": "0x608060405234801561001057600080fd5b5061264f806100206000396000f3fe608060405234801561001057600080fd5b50600436106102485760003560e01c80638456cb591161013b578063bea679ac116100b8578063e8f239cd1161007c578063e8f239cd14610530578063e97206a914610539578063f2fde38b14610542578063f3759d5c14610555578063f71db5431461056857610248565b8063bea679ac146104db578063cc78b623146104ee578063d26abffa146104f7578063d547741f1461050a578063e0bed0411461051d57610248565b80639c0ca529116100ff5780639c0ca52914610482578063a217fddf14610495578063a6d5f1031461049d578063a80c3c58146104b5578063b38e66f1146104c857610248565b80638456cb59146103f1578063916226a7146103f957806391c05b0b1461040257806391d14854146104155780639a7b5f111461042857610248565b8063387f9c01116101c95780635983241b1161018d5780635983241b1461038a5780635c975abb1461039d5780636e0a6bba146103a85780637706c4ba146103b35780637b46c54f146103de57610248565b8063387f9c01146103265780633923a9851461034957806339eaed291461035c5780633f4ba83a1461036f5780634953c7821461037757610248565b8063248a9ca311610210578063248a9ca3146102c55780632b8bbbe8146102d85780632f2ff15d146102ed57806336568abe146103005780633825d8281461031357610248565b8063081e3eda1461024d5780630f208beb1461026457806317caf6f1146102ab5780631a5633ef146102b45780631bf9a989146102bd575b600080fd5b6006545b6040519081526020015b60405180910390f35b610296610272366004612268565b60076020908152600092835260408084209091529082529020805460019091015482565b6040805192835260208301919091520161025b565b61025160085481565b61025160045481565b600b54610251565b6102516102d3366004612353565b61057d565b6102eb6102e636600461236b565b610596565b005b6102eb6102fb36600461236b565b610724565b6102eb61030e36600461236b565b610746565b6102eb61032136600461229a565b6107c4565b610339610334366004612268565b6108eb565b604051901515815260200161025b565b6102eb610357366004612268565b610928565b6102eb61036a3660046122c3565b6109e6565b6102eb610a68565b610339610385366004612268565b610b06565b610296610398366004612353565b610b3c565b60025460ff16610339565b64e8d4a51000610251565b6103c66103c1366004612353565b610b6a565b6040516001600160a01b03909116815260200161025b565b6102eb6103ec36600461224e565b610b94565b6102eb610bc3565b61025160095481565b6102eb610410366004612353565b610c37565b61033961042336600461236b565b610fe5565b61046061043636600461224e565b60056020526000908152604090208054600182015460028301546003909301549192909160ff1684565b604080519485526020850193909352918301521515606082015260800161025b565b6102eb61049036600461236b565b611010565b610251600081565b6002546103c69061010090046001600160a01b031681565b6103396104c336600461224e565b6110a3565b6003546103c6906001600160a01b031681565b6102eb6104e936600461236b565b61114b565b610251600c5481565b610251610505366004612268565b611289565b6102eb61051836600461236b565b61150a565b6102eb61052b36600461238d565b611527565b610251600d5481565b610251600a5481565b6102eb61055036600461224e565b6115f5565b6102eb61056336600461236b565b61162b565b610570611750565b60405161025b91906123c6565b600081815260016020819052604090912001545b919050565b6105a86437bbb732b960d91b33611842565b6001600160a01b03811660009081526005602052604090206003015460ff161561062e5760405162461bcd60e51b815260206004820152602c60248201527f4b53445265776172644d616e616765723a3a6164643a20706f6f6c206973206160448201526b1b1c9958591e48185919195960a21b60648201526084015b60405180910390fd5b8160085461063c9190612521565b60085560068054600180820183557ff652222313e28459528d920b65115c16c04f3efc82aaedc97be59f3f377c0d3f90910180546001600160a01b0319166001600160a01b03851690811790915560408051608081018252600080825260208083018281528385018a815260608501888152878552600590935294909220925183559051828601559151600282015590516003909101805460ff191691151591909117905591546106ed91906125b7565b6040518481527f4710feb78e3bce8d2e3ca2989a8eb2f8bcd32a6a55b4535942c180fc4d2e29529060200160405180910390a35050565b61072d8261057d565b6107378133611842565b61074183836118a6565b505050565b6001600160a01b03811633146107b65760405162461bcd60e51b815260206004820152602f60248201527f416363657373436f6e74726f6c3a2063616e206f6e6c792072656e6f756e636560448201526e103937b632b9903337b91039b2b63360891b6064820152608401610625565b6107c08282611911565b5050565b6107d66437bbb732b960d91b33611842565b6001600160a01b03821660009081526005602052604090206003015460ff166108585760405162461bcd60e51b815260206004820152602e60248201527f4b53445265776172644d616e616765723a3a7365743a20706f6f6c206973206e60448201526d1bdd081a5b9a5d1a585b1a5e995960921b6064820152608401610625565b6001600160a01b0382166000908152600560205260409020600201546008548291610882916125b7565b61088c9190612521565b6008556001600160a01b03821660008181526005602052604090819020600201839055517f57096e403eca2ab85e7ad27527b2efe1598aaf6760715227633947f3652a0f6b906108df9084815260200190565b60405180910390a25050565b60006108f960025460ff1690565b156109165760405162461bcd60e51b815260040161062590612413565b610921838384611978565b9392505050565b600054610100900460ff168061093d5750303b155b8061094b575060005460ff16155b6109675760405162461bcd60e51b81526004016106259061243d565b600054610100900460ff16158015610989576000805461ffff19166101011790555b610991611b96565b60028054610100600160a81b0319166101006001600160a01b038681169190910291909117909155600380546001600160a01b0319169184169190911790558015610741576000805461ff0019169055505050565b60025460ff1615610a095760405162461bcd60e51b815260040161062590612413565b8060005b81811015610a6257610a52848483818110610a3857634e487b7160e01b600052603260045260246000fd5b9050602002016020810190610a4d919061224e565b611c41565b610a5b816125ce565b9050610a0d565b50505050565b60025460ff16610ab15760405162461bcd60e51b815260206004820152601460248201527314185d5cd8589b194e881b9bdd081c185d5cd95960621b6044820152606401610625565b653830bab9b2b960d11b610ac58133611842565b6002805460ff191690556040513381527f5db9ee0a495bf2e6ff9c91a7834c1ba4fdd244a5e8aa4e537bd38aeae4b073aa906020015b60405180910390a150565b6000610b1460025460ff1690565b15610b315760405162461bcd60e51b815260040161062590612413565b610921833384611978565b600b8181548110610b4c57600080fd5b60009182526020909120600290910201805460019091015490915082565b60068181548110610b7a57600080fd5b6000918252602090912001546001600160a01b0316905081565b60025460ff1615610bb75760405162461bcd60e51b815260040161062590612413565b610bc081611c41565b50565b60025460ff1615610be65760405162461bcd60e51b815260040161062590612413565b653830bab9b2b960d11b610bfa8133611842565b6002805460ff191660011790556040513381527f62e78cea01bee320cd4e420270b5ea74000d11b0c9f74754ebdbfc544b05a25890602001610afb565b60008111610c4457610bc0565b6002546040516323b872dd60e01b8152336004820152306024820152604481018390526101009091046001600160a01b0316906323b872dd90606401602060405180830381600087803b158015610c9a57600080fd5b505af1158015610cae573d6000803e3d6000fd5b505050506040513d601f19601f82011682018060405250810190610cd29190612333565b50610cdc81611e5b565b600080600b600c5481548110610d0257634e487b7160e01b600052603260045260246000fd5b90600052602060002090600202016000015442610d1f91906125b7565b90508015610e0e57600081600d546301e13380610d3c9190612559565b610d469190612539565b90506000610df26064600954600360009054906101000a90046001600160a01b03166001600160a01b03166318160ddd6040518163ffffffff1660e01b815260040160206040518083038186803b158015610da057600080fd5b505afa158015610db4573d6000803e3d6000fd5b505050506040513d601f19601f82011682018060405250810190610dd891906123ae565b610de29190612559565b610dec9190612539565b83611fcc565b905081610dff8287612559565b610e099190612539565b935050505b60025460035460405163095ea7b360e01b81526001600160a01b03918216600482015260248101859052610100909204169063095ea7b390604401602060405180830381600087803b158015610e6357600080fd5b505af1158015610e77573d6000803e3d6000fd5b505050506040513d601f19601f82011682018060405250810190610e9b9190612333565b5060035460405163e65a011760e01b8152600481018490526001600160a01b039091169063e65a011790602401600060405180830381600087803b158015610ee257600080fd5b505af1158015610ef6573d6000803e3d6000fd5b5050505060008284610f0891906125b7565b905060005b600654811015610fa557600060068281548110610f3a57634e487b7160e01b600052603260045260246000fd5b60009182526020808320909101546001600160a01b03168083526005909152604090912060085460028201549293509091610f759086612559565b610f7f9190612539565b8160010154610f8e9190612521565b60019091015550610f9e816125ce565b9050610f0d565b5060408051428152602081018690527f9583d1ebe40875c54dbd2e47e758124146366bba1b4a0adf6f4b15a49f896e21910160405180910390a150505050565b60009182526001602090815260408084206001600160a01b0393909316845291905290205460ff1690565b3360009081526005602052604090206003015460ff166110425760405162461bcd60e51b81526004016106259061248b565b60025460ff16156110655760405162461bcd60e51b815260040161062590612413565b60008213156110805761108061107a83611fe2565b8261114b565b60008212156107c0576107c061109d611098846125e9565b611fe2565b8261162b565b60006110b160025460ff1690565b156110ce5760405162461bcd60e51b815260040161062590612413565b50600160005b6006548110156111455760006006828154811061110157634e487b7160e01b600052603260045260246000fd5b60009182526020822001546001600160a01b03169150611122828680611978565b905083801561112e5750805b93505050808061113d906125ce565b9150506110d4565b50919050565b3360009081526005602052604090206003015460ff1661117d5760405162461bcd60e51b81526004016106259061248b565b60025460ff16156111a05760405162461bcd60e51b815260040161062590612413565b6111a933611c41565b33600081815260056020908152604080832081516080810183528154815260018201548185015260028201548184015260039091015460ff1615156060820152938352600782528083206001600160a01b03861684529091529020815161122a9064e8d4a510009061121b9087612559565b6112259190612539565b612034565b81600001600082825461123d91906124e0565b90915550506040518481526001600160a01b0384169033907fe31c7b8d08ee7db0afa68782e1028ef92305caeea8626633ad44d413e30f6b2f906020015b60405180910390a350505050565b600061129760025460ff1690565b156112b45760405162461bcd60e51b815260040161062590612413565b6001600160a01b03831660009081526005602052604090206003015460ff166113455760405162461bcd60e51b815260206004820152603a60248201527f4b53445265776172644d616e616765723a3a636c61696d61626c65526577617260448201527f643a20706f6f6c206973206e6f7420696e697469616c697a65640000000000006064820152608401610625565b6001600160a01b03808416600081815260056020908152604080832081516080810183528154815260018201548185015260028201548184015260039091015460ff1615156060820152848452600783528184209588168452948252808320855182516318160ddd60e01b81529251919590949390926318160ddd9260048083019392829003018186803b1580156113dc57600080fd5b505afa1580156113f0573d6000803e3d6000fd5b505050506040513d601f19601f8201168201806040525081019061141491906123ae565b90506000846020015111801561142957508015155b1561145b5760208401518161144364e8d4a5100083612559565b61144d9190612539565b6114579084612521565b9250505b6040516370a0823160e01b81526001600160a01b038781166004830152600091908916906370a082319060240160206040518083038186803b1580156114a057600080fd5b505afa1580156114b4573d6000803e3d6000fd5b505050506040513d601f19601f820116820180604052508101906114d891906123ae565b84549091506114fe906114f464e8d4a5100061121b8786612559565b6110989190612578565b98975050505050505050565b6115138261057d565b61151d8133611842565b6107418383611911565b6115396430b236b4b760d91b33611842565b60025460ff161561155c5760405162461bcd60e51b815260040161062590612413565b816c3a30b933b2ba2235b9b220b83960991b141561157e5760098190556107c0565b816472616e676560d81b141561159857600a8190556107c0565b60405162461bcd60e51b815260206004820152602c60248201527f4b53445265776172644d616e616765723a3a636f6e6669673a20756e7265636f60448201526b676e697a65642d706172616d60a01b6064820152608401610625565b6116076437bbb732b960d91b33611842565b6116196437bbb732b960d91b826118a6565b610bc06437bbb732b960d91b33611911565b3360009081526005602052604090206003015460ff1661165d5760405162461bcd60e51b81526004016106259061248b565b60025460ff16156116805760405162461bcd60e51b815260040161062590612413565b61168933611c41565b33600081815260056020908152604080832081516080810183528154815260018201548185015260028201548184015260039091015460ff1615156060820152938352600782528083206001600160a01b0386168452909152902081516116fb9064e8d4a510009061121b9087612559565b81600001600082825461170e9190612578565b90915550506040518481526001600160a01b0384169033907f56c54ba9bd38d8fd62012e42c7ee564519b09763c426d331b3661b537ead19b29060200161127b565b60065460609067ffffffffffffffff81111561177c57634e487b7160e01b600052604160045260246000fd5b6040519080825280602002602001820160405280156117a5578160200160208202803683370190505b50905060005b60065481101561183e57600681815481106117d657634e487b7160e01b600052603260045260246000fd5b9060005260206000200160009054906101000a90046001600160a01b031682828151811061181457634e487b7160e01b600052603260045260246000fd5b6001600160a01b039092166020928302919091019091015280611836816125ce565b9150506117ab565b5090565b61184c8282610fe5565b6107c05760405162461bcd60e51b815260206004820152602560248201527f416363657373436f6e74726f6c3a5f636865636b526f6c653a696e76616c696460448201526420726f6c6560d81b6064820152608401610625565b6118b08282610fe5565b6107c05760008281526001602081815260408084206001600160a01b0386168086529252808420805460ff19169093179092559051339285917f2f8788117e7eff1d82e926ec794901d17c78024a50270940304540a733656f0d9190a45050565b61191b8282610fe5565b156107c05760008281526001602090815260408083206001600160a01b0385168085529252808320805460ff1916905551339285917ff6391f5c32d9c69d2a47ea670b442974b53935d1edc7fd64eb21e047a839171b9190a45050565b600061198384611c41565b6001600160a01b03848116600081815260056020908152604080832081516080810183528154815260018201548185015260028201548184015260039091015460ff1615156060820152848452600783528184209589168085529590925280832090516370a0823160e01b8152600481019590955290939092906370a082319060240160206040518083038186803b158015611a1e57600080fd5b505afa158015611a32573d6000803e3d6000fd5b505050506040513d601f19601f82011682018060405250810190611a5691906123ae565b90506000611a7364e8d4a5100085600001518461121b9190612559565b90506000611a8a8460000154836110989190612578565b905080611a9f57600095505050505050610921565b81845560025460405163a9059cbb60e01b81526001600160a01b038981166004830152602482018490526101009092049091169063a9059cbb90604401602060405180830381600087803b158015611af657600080fd5b505af1158015611b0a573d6000803e3d6000fd5b505050506040513d601f19601f82011682018060405250810190611b2e9190612333565b50808460010154611b3f9190612521565b60018501556040518181526001600160a01b03808a1691908b16907f7e77f685b38c861064cb08f2776eb5dfd3c82f652ed9f21221b8c53b75628e519060200160405180910390a350600198975050505050505050565b600054610100900460ff1680611bab5750303b155b80611bb9575060005460ff16155b611bd55760405162461bcd60e51b81526004016106259061243d565b600054610100900460ff16158015611bf7576000805461ffff19166101011790555b611bff61209e565b611c1a653830bab9b2b960d11b6437bbb732b960d91b612107565b611c2d653830bab9b2b960d11b3361215c565b8015610bc0576000805461ff001916905550565b6001600160a01b03811660009081526005602052604090206003015460ff16611ccb5760405162461bcd60e51b815260206004820152603660248201527f4b53445265776172644d616e616765723a3a5f757064617465506f6f6c3a20706044820152751bdbdb081a5cc81b9bdd081a5b9a5d1a585b1a5e995960521b6064820152608401610625565b6001600160a01b038116600081815260056020908152604080832081516080810183528154815260018201548185015260028201548184015260039091015460ff161515606082015281516318160ddd60e01b815291519094926318160ddd9260048082019391829003018186803b158015611d4657600080fd5b505afa158015611d5a573d6000803e3d6000fd5b505050506040513d601f19601f82011682018060405250810190611d7e91906123ae565b905060008260200151118015611d945750600081115b1561074157602082015181611dae64e8d4a5100083612559565b611db89190612539565b8351611dc49190612521565b8352600060208085018281526001600160a01b038716808452600583526040938490208751808255925160018201558488015160028201556060808901516003909201805460ff191692151592909217909155845142815293840187905293830191909152917ffa4534c55db3b65cd96eafe03e5ce9fd87638590f49d5907978ff8489ea66ecb910160405180910390a250505050565b6040805180820190915242815260208101828152600b8054600181018255600091825292517f0175b7a638427703f0dbe7bb9bbf987a2551717b34e79f33b5b1008d1fa01db960029094029384015590517f0175b7a638427703f0dbe7bb9bbf987a2551717b34e79f33b5b1008d1fa01dba90920191909155600d8054839290611ee6908490612521565b9091555050600a54600090611efb90426125b7565b600c5490915060005b82600b8381548110611f2657634e487b7160e01b600052603260045260246000fd5b906000526020600020906002020160000154108015611f515750600c54611f4e906064612521565b82105b15611fa857600b8281548110611f7757634e487b7160e01b600052603260045260246000fd5b90600052602060002090600202016001015481611f949190612521565b905081611fa0816125ce565b925050611f04565b81600c8190555080600d6000828254611fc191906125b7565b909155505050505050565b6000818310611fdb5781610921565b5090919050565b60008082121561183e5760405162461bcd60e51b815260206004820181905260248201527f53616665436173743a2076616c7565206d75737420626520706f7369746976656044820152606401610625565b60006001600160ff1b0382111561183e5760405162461bcd60e51b815260206004820152602860248201527f53616665436173743a2076616c756520646f65736e27742066697420696e2061604482015267371034b73a191a9b60c11b6064820152608401610625565b600054610100900460ff16806120b35750303b155b806120c1575060005460ff16155b6120dd5760405162461bcd60e51b81526004016106259061243d565b600054610100900460ff161580156120ff576000805461ffff19166101011790555b611c2d612166565b60006121128361057d565b6000848152600160208190526040808320909101859055519192508391839186917fbd79b86ffe0ab8e8776151514217cd7cacd52c909f66475c3af44e129f0b00ff9190a4505050565b6107c082826118a6565b600054610100900460ff168061217b5750303b155b80612189575060005460ff16155b6121a55760405162461bcd60e51b81526004016106259061243d565b600054610100900460ff161580156121c7576000805461ffff19166101011790555b6121d96437bbb732b960d91b3361215c565b6121f36430b236b4b760d91b6437bbb732b960d91b612107565b6122106737b832b930ba37b960c11b6437bbb732b960d91b612107565b6122226430b236b4b760d91b3361215c565b611c2d6737b832b930ba37b960c11b3361215c565b80356001600160a01b038116811461059157600080fd5b60006020828403121561225f578081fd5b61092182612237565b6000806040838503121561227a578081fd5b61228383612237565b915061229160208401612237565b90509250929050565b600080604083850312156122ac578182fd5b6122b583612237565b946020939093013593505050565b600080602083850312156122d5578182fd5b823567ffffffffffffffff808211156122ec578384fd5b818501915085601f8301126122ff578384fd5b81358181111561230d578485fd5b8660208260051b8501011115612321578485fd5b60209290920196919550909350505050565b600060208284031215612344578081fd5b81518015158114610921578182fd5b600060208284031215612364578081fd5b5035919050565b6000806040838503121561237d578182fd5b8235915061229160208401612237565b6000806040838503121561239f578182fd5b50508035926020909101359150565b6000602082840312156123bf578081fd5b5051919050565b6020808252825182820181905260009190848201906040850190845b818110156124075783516001600160a01b0316835292840192918401916001016123e2565b50909695505050505050565b60208082526010908201526f14185d5cd8589b194e881c185d5cd95960821b604082015260600190565b6020808252602e908201527f496e697469616c697a61626c653a20636f6e747261637420697320616c72656160408201526d191e481a5b9a5d1a585b1a5e995960921b606082015260800190565b60208082526035908201527f4b53445265776172644d616e616765723a3a6f6e6c79526577617264506f6f6c6040820152740e881a5b9d985b1a59081c995dd85c99081c1bdbdb605a1b606082015260800190565b600080821280156001600160ff1b038490038513161561250257612502612603565b600160ff1b839003841281161561251b5761251b612603565b50500190565b6000821982111561253457612534612603565b500190565b60008261255457634e487b7160e01b81526012600452602481fd5b500490565b600081600019048311821515161561257357612573612603565b500290565b60008083128015600160ff1b85018412161561259657612596612603565b6001600160ff1b03840183138116156125b1576125b1612603565b50500390565b6000828210156125c9576125c9612603565b500390565b60006000198214156125e2576125e2612603565b5060010190565b6000600160ff1b8214156125ff576125ff612603565b0390565b634e487b7160e01b600052601160045260246000fdfea2646970667358221220eb3119c1a5dbf300f1945d167641f8f3796c72ea055ee21a100c57f2c67999cb64736f6c63430008030033",
  "devdoc": {
    "details": "It manages all ksd rewards. It's base code is sushiswap. Therefore, the way to distribute reward is very similar to sushiswap. The main difference between sushiswap and KSDRewardManager lies in staking. Sushiswap forces to stake token, but KSDRewardManager does not own token. It just expect registered pool to call onDeposit/onWithdraw/onChanged, and get balance and totalSupply of pool to calculate how to distribute reward. Additionally, unlike SushiSwap where SUSHI tokens for liquidity mining are generated blockwise, KSDRewardManager only distributes the accumulated yield that the protocol generated. Most of the code here is the same as KokoaRewardManager except the distribution function.",
    "kind": "dev",
    "methods": {
      "distribute(uint256)": {
        "params": {
          "earning": "amount of ksd to distribute onlyOwner (optional)"
        }
      }
    },
    "title": "A manager about ksd rewards.",
    "version": 1
  },
  "userdoc": {
    "events": {
      "Deposit(address,uint256,address)": {
        "notice": "distribute  IDistributor.sol ."
      }
    },
    "kind": "user",
    "methods": {
      "distribute(uint256)": {
        "notice": "distribute ksd reward to pool"
      },
      "poolInfo(address)": {
        "notice": "pool info"
      },
      "poolLength()": {
        "notice": "number of registered pools"
      },
      "rewardPool(uint256)": {
        "notice": "registered pool"
      },
      "rewardPools()": {
        "notice": "all registered pools"
      },
      "userInfo(address,address)": {
        "notice": "user info."
      }
    },
    "version": 1
  },
  "storageLayout": {
    "storage": [
      {
        "astId": 14699,
        "contract": "contracts/reward/KSDRewardManager.sol:KSDRewardManager",
        "label": "_initialized",
        "offset": 0,
        "slot": "0",
        "type": "t_bool"
      },
      {
        "astId": 14702,
        "contract": "contracts/reward/KSDRewardManager.sol:KSDRewardManager",
        "label": "_initializing",
        "offset": 1,
        "slot": "0",
        "type": "t_bool"
      },
      {
        "astId": 11691,
        "contract": "contracts/reward/KSDRewardManager.sol:KSDRewardManager",
        "label": "_roles",
        "offset": 0,
        "slot": "1",
        "type": "t_mapping(t_bytes32,t_struct(RoleData)11686_storage)"
      },
      {
        "astId": 12081,
        "contract": "contracts/reward/KSDRewardManager.sol:KSDRewardManager",
        "label": "_paused",
        "offset": 0,
        "slot": "2",
        "type": "t_bool"
      },
      {
        "astId": 19970,
        "contract": "contracts/reward/KSDRewardManager.sol:KSDRewardManager",
        "label": "ksd",
        "offset": 1,
        "slot": "2",
        "type": "t_contract(IKIP7)5861"
      },
      {
        "astId": 19973,
        "contract": "contracts/reward/KSDRewardManager.sol:KSDRewardManager",
        "label": "dksd",
        "offset": 0,
        "slot": "3",
        "type": "t_contract(IDKSD)3864"
      },
      {
        "astId": 19975,
        "contract": "contracts/reward/KSDRewardManager.sol:KSDRewardManager",
        "label": "__legacy1",
        "offset": 0,
        "slot": "4",
        "type": "t_uint256"
      },
      {
        "astId": 19981,
        "contract": "contracts/reward/KSDRewardManager.sol:KSDRewardManager",
        "label": "poolInfo",
        "offset": 0,
        "slot": "5",
        "type": "t_mapping(t_address,t_struct(PoolInfo)4035_storage)"
      },
      {
        "astId": 19986,
        "contract": "contracts/reward/KSDRewardManager.sol:KSDRewardManager",
        "label": "rewardPool",
        "offset": 0,
        "slot": "6",
        "type": "t_array(t_contract(IRewardPool)5182)dyn_storage"
      },
      {
        "astId": 19994,
        "contract": "contracts/reward/KSDRewardManager.sol:KSDRewardManager",
        "label": "userInfo",
        "offset": 0,
        "slot": "7",
        "type": "t_mapping(t_address,t_mapping(t_address,t_struct(UserInfo)4040_storage))"
      },
      {
        "astId": 19997,
        "contract": "contracts/reward/KSDRewardManager.sol:KSDRewardManager",
        "label": "totalAllocPoint",
        "offset": 0,
        "slot": "8",
        "type": "t_uint256"
      },
      {
        "astId": 20003,
        "contract": "contracts/reward/KSDRewardManager.sol:KSDRewardManager",
        "label": "targetDksdApr",
        "offset": 0,
        "slot": "9",
        "type": "t_uint256"
      },
      {
        "astId": 20006,
        "contract": "contracts/reward/KSDRewardManager.sol:KSDRewardManager",
        "label": "range",
        "offset": 0,
        "slot": "10",
        "type": "t_uint256"
      },
      {
        "astId": 20011,
        "contract": "contracts/reward/KSDRewardManager.sol:KSDRewardManager",
        "label": "earnHistories",
        "offset": 0,
        "slot": "11",
        "type": "t_array(t_struct(EarnHistory)4045_storage)dyn_storage"
      },
      {
        "astId": 20014,
        "contract": "contracts/reward/KSDRewardManager.sol:KSDRewardManager",
        "label": "earnCursor",
        "offset": 0,
        "slot": "12",
        "type": "t_uint256"
      },
      {
        "astId": 20017,
        "contract": "contracts/reward/KSDRewardManager.sol:KSDRewardManager",
        "label": "earnSumInRange",
        "offset": 0,
        "slot": "13",
        "type": "t_uint256"
      }
    ],
    "types": {
      "t_address": {
        "encoding": "inplace",
        "label": "address",
        "numberOfBytes": "20"
      },
      "t_array(t_contract(IRewardPool)5182)dyn_storage": {
        "base": "t_contract(IRewardPool)5182",
        "encoding": "dynamic_array",
        "label": "contract IRewardPool[]",
        "numberOfBytes": "32"
      },
      "t_array(t_struct(EarnHistory)4045_storage)dyn_storage": {
        "base": "t_struct(EarnHistory)4045_storage",
        "encoding": "dynamic_array",
        "label": "struct IKSDRewardManager.EarnHistory[]",
        "numberOfBytes": "32"
      },
      "t_bool": {
        "encoding": "inplace",
        "label": "bool",
        "numberOfBytes": "1"
      },
      "t_bytes32": {
        "encoding": "inplace",
        "label": "bytes32",
        "numberOfBytes": "32"
      },
      "t_contract(IDKSD)3864": {
        "encoding": "inplace",
        "label": "contract IDKSD",
        "numberOfBytes": "20"
      },
      "t_contract(IKIP7)5861": {
        "encoding": "inplace",
        "label": "contract IKIP7",
        "numberOfBytes": "20"
      },
      "t_contract(IRewardPool)5182": {
        "encoding": "inplace",
        "label": "contract IRewardPool",
        "numberOfBytes": "20"
      },
      "t_int256": {
        "encoding": "inplace",
        "label": "int256",
        "numberOfBytes": "32"
      },
      "t_mapping(t_address,t_bool)": {
        "encoding": "mapping",
        "key": "t_address",
        "label": "mapping(address => bool)",
        "numberOfBytes": "32",
        "value": "t_bool"
      },
      "t_mapping(t_address,t_mapping(t_address,t_struct(UserInfo)4040_storage))": {
        "encoding": "mapping",
        "key": "t_address",
        "label": "mapping(address => mapping(address => struct IKSDRewardManager.UserInfo))",
        "numberOfBytes": "32",
        "value": "t_mapping(t_address,t_struct(UserInfo)4040_storage)"
      },
      "t_mapping(t_address,t_struct(PoolInfo)4035_storage)": {
        "encoding": "mapping",
        "key": "t_address",
        "label": "mapping(address => struct IKSDRewardManager.PoolInfo)",
        "numberOfBytes": "32",
        "value": "t_struct(PoolInfo)4035_storage"
      },
      "t_mapping(t_address,t_struct(UserInfo)4040_storage)": {
        "encoding": "mapping",
        "key": "t_address",
        "label": "mapping(address => struct IKSDRewardManager.UserInfo)",
        "numberOfBytes": "32",
        "value": "t_struct(UserInfo)4040_storage"
      },
      "t_mapping(t_bytes32,t_struct(RoleData)11686_storage)": {
        "encoding": "mapping",
        "key": "t_bytes32",
        "label": "mapping(bytes32 => struct AccessControl.RoleData)",
        "numberOfBytes": "32",
        "value": "t_struct(RoleData)11686_storage"
      },
      "t_struct(EarnHistory)4045_storage": {
        "encoding": "inplace",
        "label": "struct IKSDRewardManager.EarnHistory",
        "members": [
          {
            "astId": 4042,
            "contract": "contracts/reward/KSDRewardManager.sol:KSDRewardManager",
            "label": "timestamp",
            "offset": 0,
            "slot": "0",
            "type": "t_uint256"
          },
          {
            "astId": 4044,
            "contract": "contracts/reward/KSDRewardManager.sol:KSDRewardManager",
            "label": "amount",
            "offset": 0,
            "slot": "1",
            "type": "t_uint256"
          }
        ],
        "numberOfBytes": "64"
      },
      "t_struct(PoolInfo)4035_storage": {
        "encoding": "inplace",
        "label": "struct IKSDRewardManager.PoolInfo",
        "members": [
          {
            "astId": 4028,
            "contract": "contracts/reward/KSDRewardManager.sol:KSDRewardManager",
            "label": "accRewardPerShare",
            "offset": 0,
            "slot": "0",
            "type": "t_uint256"
          },
          {
            "astId": 4030,
            "contract": "contracts/reward/KSDRewardManager.sol:KSDRewardManager",
            "label": "ksdReward",
            "offset": 0,
            "slot": "1",
            "type": "t_uint256"
          },
          {
            "astId": 4032,
            "contract": "contracts/reward/KSDRewardManager.sol:KSDRewardManager",
            "label": "allocPoint",
            "offset": 0,
            "slot": "2",
            "type": "t_uint256"
          },
          {
            "astId": 4034,
            "contract": "contracts/reward/KSDRewardManager.sol:KSDRewardManager",
            "label": "init",
            "offset": 0,
            "slot": "3",
            "type": "t_bool"
          }
        ],
        "numberOfBytes": "128"
      },
      "t_struct(RoleData)11686_storage": {
        "encoding": "inplace",
        "label": "struct AccessControl.RoleData",
        "members": [
          {
            "astId": 11683,
            "contract": "contracts/reward/KSDRewardManager.sol:KSDRewardManager",
            "label": "members",
            "offset": 0,
            "slot": "0",
            "type": "t_mapping(t_address,t_bool)"
          },
          {
            "astId": 11685,
            "contract": "contracts/reward/KSDRewardManager.sol:KSDRewardManager",
            "label": "adminRole",
            "offset": 0,
            "slot": "1",
            "type": "t_bytes32"
          }
        ],
        "numberOfBytes": "64"
      },
      "t_struct(UserInfo)4040_storage": {
        "encoding": "inplace",
        "label": "struct IKSDRewardManager.UserInfo",
        "members": [
          {
            "astId": 4037,
            "contract": "contracts/reward/KSDRewardManager.sol:KSDRewardManager",
            "label": "rewardDebt",
            "offset": 0,
            "slot": "0",
            "type": "t_int256"
          },
          {
            "astId": 4039,
            "contract": "contracts/reward/KSDRewardManager.sol:KSDRewardManager",
            "label": "claimedReward",
            "offset": 0,
            "slot": "1",
            "type": "t_uint256"
          }
        ],
        "numberOfBytes": "64"
      },
      "t_uint256": {
        "encoding": "inplace",
        "label": "uint256",
        "numberOfBytes": "32"
      }
    }
  }
}