{
  "address": "0xF6B213163aAbb75e1Ea7Cd5FF05E55aF830B997F",
  "abi": [
    {
      "anonymous": false,
      "inputs": [
        {
          "indexed": false,
          "internalType": "address",
          "name": "account",
          "type": "address"
        }
      ],
      "name": "Paused",
      "type": "event"
    },
    {
      "anonymous": false,
      "inputs": [
        {
          "indexed": true,
          "internalType": "bytes32",
          "name": "role",
          "type": "bytes32"
        },
        {
          "indexed": true,
          "internalType": "bytes32",
          "name": "previousAdminRole",
          "type": "bytes32"
        },
        {
          "indexed": true,
          "internalType": "bytes32",
          "name": "newAdminRole",
          "type": "bytes32"
        }
      ],
      "name": "RoleAdminChanged",
      "type": "event"
    },
    {
      "anonymous": false,
      "inputs": [
        {
          "indexed": true,
          "internalType": "bytes32",
          "name": "role",
          "type": "bytes32"
        },
        {
          "indexed": true,
          "internalType": "address",
          "name": "account",
          "type": "address"
        },
        {
          "indexed": true,
          "internalType": "address",
          "name": "sender",
          "type": "address"
        }
      ],
      "name": "RoleGranted",
      "type": "event"
    },
    {
      "anonymous": false,
      "inputs": [
        {
          "indexed": true,
          "internalType": "bytes32",
          "name": "role",
          "type": "bytes32"
        },
        {
          "indexed": true,
          "internalType": "address",
          "name": "account",
          "type": "address"
        },
        {
          "indexed": true,
          "internalType": "address",
          "name": "sender",
          "type": "address"
        }
      ],
      "name": "RoleRevoked",
      "type": "event"
    },
    {
      "anonymous": false,
      "inputs": [
        {
          "indexed": false,
          "internalType": "address",
          "name": "account",
          "type": "address"
        }
      ],
      "name": "Unpaused",
      "type": "event"
    },
    {
      "inputs": [],
      "name": "COLLATERAL_TYPE",
      "outputs": [
        {
          "internalType": "bytes32",
          "name": "",
          "type": "bytes32"
        }
      ],
      "stateMutability": "view",
      "type": "function"
    },
    {
      "inputs": [],
      "name": "DEFAULT_ADMIN_ROLE",
      "outputs": [
        {
          "internalType": "bytes32",
          "name": "",
          "type": "bytes32"
        }
      ],
      "stateMutability": "view",
      "type": "function"
    },
    {
      "inputs": [],
      "name": "__BaseGateway_init",
      "outputs": [],
      "stateMutability": "nonpayable",
      "type": "function"
    },
    {
      "inputs": [],
      "name": "__KSLPKORCKDAIGateway_init",
      "outputs": [],
      "stateMutability": "nonpayable",
      "type": "function"
    },
    {
      "inputs": [],
      "name": "bond",
      "outputs": [
        {
          "internalType": "contract IBond",
          "name": "",
          "type": "address"
        }
      ],
      "stateMutability": "view",
      "type": "function"
    },
    {
      "inputs": [
        {
          "internalType": "uint256",
          "name": "bondAmount",
          "type": "uint256"
        },
        {
          "internalType": "uint256",
          "name": "loanAmount",
          "type": "uint256"
        }
      ],
      "name": "borrow",
      "outputs": [],
      "stateMutability": "nonpayable",
      "type": "function"
    },
    {
      "inputs": [
        {
          "internalType": "bytes32",
          "name": "what",
          "type": "bytes32"
        },
        {
          "internalType": "address",
          "name": "data",
          "type": "address"
        }
      ],
      "name": "config",
      "outputs": [],
      "stateMutability": "nonpayable",
      "type": "function"
    },
    {
      "inputs": [
        {
          "internalType": "bytes32",
          "name": "what",
          "type": "bytes32"
        },
        {
          "internalType": "uint256",
          "name": "data",
          "type": "uint256"
        }
      ],
      "name": "config",
      "outputs": [],
      "stateMutability": "nonpayable",
      "type": "function"
    },
    {
      "inputs": [
        {
          "internalType": "bytes32",
          "name": "role",
          "type": "bytes32"
        }
      ],
      "name": "getRoleAdmin",
      "outputs": [
        {
          "internalType": "bytes32",
          "name": "",
          "type": "bytes32"
        }
      ],
      "stateMutability": "view",
      "type": "function"
    },
    {
      "inputs": [
        {
          "internalType": "bytes32",
          "name": "role",
          "type": "bytes32"
        },
        {
          "internalType": "address",
          "name": "account",
          "type": "address"
        }
      ],
      "name": "grantRole",
      "outputs": [],
      "stateMutability": "nonpayable",
      "type": "function"
    },
    {
      "inputs": [
        {
          "internalType": "bytes32",
          "name": "role",
          "type": "bytes32"
        },
        {
          "internalType": "address",
          "name": "account",
          "type": "address"
        }
      ],
      "name": "hasRole",
      "outputs": [
        {
          "internalType": "bool",
          "name": "",
          "type": "bool"
        }
      ],
      "stateMutability": "view",
      "type": "function"
    },
    {
      "inputs": [
        {
          "internalType": "address",
          "name": "",
          "type": "address"
        }
      ],
      "name": "isAllow",
      "outputs": [
        {
          "internalType": "bool",
          "name": "",
          "type": "bool"
        }
      ],
      "stateMutability": "view",
      "type": "function"
    },
    {
      "inputs": [],
      "name": "ksdGateway",
      "outputs": [
        {
          "internalType": "contract IKSDGateway",
          "name": "",
          "type": "address"
        }
      ],
      "stateMutability": "view",
      "type": "function"
    },
    {
      "inputs": [],
      "name": "ledger",
      "outputs": [
        {
          "internalType": "contract ILedger",
          "name": "",
          "type": "address"
        }
      ],
      "stateMutability": "view",
      "type": "function"
    },
    {
      "inputs": [],
      "name": "pause",
      "outputs": [],
      "stateMutability": "nonpayable",
      "type": "function"
    },
    {
      "inputs": [],
      "name": "paused",
      "outputs": [
        {
          "internalType": "bool",
          "name": "",
          "type": "bool"
        }
      ],
      "stateMutability": "view",
      "type": "function"
    },
    {
      "inputs": [
        {
          "internalType": "bytes32",
          "name": "role",
          "type": "bytes32"
        },
        {
          "internalType": "address",
          "name": "account",
          "type": "address"
        }
      ],
      "name": "renounceRole",
      "outputs": [],
      "stateMutability": "nonpayable",
      "type": "function"
    },
    {
      "inputs": [
        {
          "internalType": "uint256",
          "name": "bondAmount",
          "type": "uint256"
        },
        {
          "internalType": "uint256",
          "name": "loanAmount",
          "type": "uint256"
        }
      ],
      "name": "repay",
      "outputs": [],
      "stateMutability": "nonpayable",
      "type": "function"
    },
    {
      "inputs": [
        {
          "internalType": "uint256",
          "name": "bondAmount",
          "type": "uint256"
        }
      ],
      "name": "repayAll",
      "outputs": [],
      "stateMutability": "nonpayable",
      "type": "function"
    },
    {
      "inputs": [
        {
          "internalType": "uint256",
          "name": "bondAmount",
          "type": "uint256"
        }
      ],
      "name": "repayAllAndUnstake",
      "outputs": [],
      "stateMutability": "nonpayable",
      "type": "function"
    },
    {
      "inputs": [
        {
          "internalType": "uint256",
          "name": "bondAmount",
          "type": "uint256"
        },
        {
          "internalType": "uint256",
          "name": "loanAmount",
          "type": "uint256"
        }
      ],
      "name": "repayAndUnstake",
      "outputs": [],
      "stateMutability": "nonpayable",
      "type": "function"
    },
    {
      "inputs": [
        {
          "internalType": "bytes32",
          "name": "role",
          "type": "bytes32"
        },
        {
          "internalType": "address",
          "name": "account",
          "type": "address"
        }
      ],
      "name": "revokeRole",
      "outputs": [],
      "stateMutability": "nonpayable",
      "type": "function"
    },
    {
      "inputs": [
        {
          "internalType": "address",
          "name": "account",
          "type": "address"
        },
        {
          "internalType": "bool",
          "name": "bool_",
          "type": "bool"
        }
      ],
      "name": "setBKlayAccess",
      "outputs": [],
      "stateMutability": "nonpayable",
      "type": "function"
    },
    {
      "inputs": [],
      "name": "skokoa",
      "outputs": [
        {
          "internalType": "contract IKIP7",
          "name": "",
          "type": "address"
        }
      ],
      "stateMutability": "view",
      "type": "function"
    },
    {
      "inputs": [],
      "name": "skokoaLimit",
      "outputs": [
        {
          "internalType": "uint256",
          "name": "",
          "type": "uint256"
        }
      ],
      "stateMutability": "view",
      "type": "function"
    },
    {
      "inputs": [],
      "name": "stabilityFeeCollector",
      "outputs": [
        {
          "internalType": "contract IStabilityFeeCollector",
          "name": "",
          "type": "address"
        }
      ],
      "stateMutability": "view",
      "type": "function"
    },
    {
      "inputs": [
        {
          "internalType": "uint256",
          "name": "tokenAmount",
          "type": "uint256"
        }
      ],
      "name": "stake",
      "outputs": [
        {
          "internalType": "uint256",
          "name": "bondAmount",
          "type": "uint256"
        }
      ],
      "stateMutability": "nonpayable",
      "type": "function"
    },
    {
      "inputs": [
        {
          "internalType": "uint256",
          "name": "tokenAmount",
          "type": "uint256"
        },
        {
          "internalType": "uint256",
          "name": "loanAmount",
          "type": "uint256"
        }
      ],
      "name": "stakeAndBorrow",
      "outputs": [],
      "stateMutability": "nonpayable",
      "type": "function"
    },
    {
      "inputs": [],
      "name": "token",
      "outputs": [
        {
          "internalType": "contract IKIP7",
          "name": "",
          "type": "address"
        }
      ],
      "stateMutability": "view",
      "type": "function"
    },
    {
      "inputs": [
        {
          "internalType": "address",
          "name": "newOwner",
          "type": "address"
        }
      ],
      "name": "transferOwnership",
      "outputs": [],
      "stateMutability": "nonpayable",
      "type": "function"
    },
    {
      "inputs": [],
      "name": "unpause",
      "outputs": [],
      "stateMutability": "nonpayable",
      "type": "function"
    },
    {
      "inputs": [
        {
          "internalType": "uint256",
          "name": "bondAmount",
          "type": "uint256"
        }
      ],
      "name": "unstake",
      "outputs": [],
      "stateMutability": "nonpayable",
      "type": "function"
    },
    {
      "inputs": [
        {
          "internalType": "uint256",
          "name": "bondAmount",
          "type": "uint256"
        }
      ],
      "name": "unstakeInBond",
      "outputs": [],
      "stateMutability": "nonpayable",
      "type": "function"
    }
  ],
  "transactionHash": "0xb5a70d84781c57567dacff3b6297d02dfce0dc7f87c51c873f88c22a13e0db72",
  "args": [],
  "solcInputHash": "daac9cba34dfabe5953ff704314717f0",
  "bytecode": "0x608060405234801561001057600080fd5b50611ec1806100206000396000f3fe608060405234801561001057600080fd5b50600436106101fb5760003560e01c806391d148541161011a578063d366f3b9116100ad578063f223fab41161007c578063f223fab41461042a578063f2fde38b1461043d578063f63979cb14610450578063f9893c4314610458578063fc0c546a1461046b576101fb565b8063d366f3b9146103de578063d547741f146103f1578063d8aed14514610404578063e0bed04114610417576101fb565b8063b620195f116100e9578063b620195f1461039d578063ca568854146103b0578063cca52a76146103b8578063d090e676146103cb576101fb565b806391d148541461035c578063a217fddf1461036f578063a333330914610377578063a694fc3a1461038a576101fb565b806336568abe116101925780635bab28fa116101615780635bab28fa146103235780635c975abb1461033657806364c9ec6f146103415780638456cb5914610354576101fb565b806336568abe146102c55780633f4ba83a146102d85780634cdcb77f146102e057806356397c35146102f3576101fb565b80632c214c9d116101ce5780632c214c9d146102775780632e17de781461028c5780632f2ff15d1461029f5780633221be54146102b2576101fb565b80630ecbcdab146102005780631bbe521514610215578063248a9ca3146102315780632684b40614610244575b600080fd5b61021361020e366004611cca565b61047e565b005b61021e60085481565b6040519081526020015b60405180910390f35b61021e61023f366004611c87565b6105a8565b610267610252366004611c1b565b60096020526000908152604090205460ff1681565b6040519015158152602001610228565b6b4b534c504b4f52434b44414960a01b61021e565b61021361029a366004611c87565b6105c1565b6102136102ad366004611c9f565b610870565b6102136102c0366004611c87565b610892565b6102136102d3366004611c9f565b610b0b565b610213610b85565b6102136102ee366004611c87565b610c23565b60025461030b9061010090046001600160a01b031681565b6040516001600160a01b039091168152602001610228565b610213610331366004611cca565b610f47565b60025460ff16610267565b60055461030b906001600160a01b031681565b610213610f7d565b61026761036a366004611c9f565b610ff1565b61021e600081565b60075461030b906001600160a01b031681565b61021e610398366004611c87565b61101c565b6102136103ab366004611cca565b611280565b6102136112ba565b6102136103c6366004611c87565b611338565b60065461030b906001600160a01b031681565b6102136103ec366004611c9f565b61136d565b6102136103ff366004611c9f565b611534565b610213610412366004611cca565b611551565b610213610425366004611cca565b611650565b60035461030b906001600160a01b031681565b61021361044b366004611c1b565b6116a5565b6102136116db565b610213610466366004611c35565b611744565b60045461030b906001600160a01b031681565b60025460ff16156104aa5760405162461bcd60e51b81526004016104a190611d7f565b60405180910390fd5b60025461010090046001600160a01b0316630d0a1d926104d66b4b534c504b4f52434b44414960a01b90565b3333336104e2886117a4565b6104eb886117a4565b6040518763ffffffff1660e01b815260040161050c96959493929190611d4a565b600060405180830381600087803b15801561052657600080fd5b505af115801561053a573d6000803e3d6000fd5b505060035460405163ed53be2960e01b81526001600160a01b03909116925063ed53be29915061057290339081908690600401611d26565b600060405180830381600087803b15801561058c57600080fd5b505af11580156105a0573d6000803e3d6000fd5b505050505050565b600081815260016020819052604090912001545b919050565b60025460ff16156105e45760405162461bcd60e51b81526004016104a190611d7f565b600254819061010090046001600160a01b0316634907582f6106126b4b534c504b4f52434b44414960a01b90565b6040516001600160e01b031960e084901b168152600481019190915233602482015260440160206040518083038186803b15801561064f57600080fd5b505afa158015610663573d6000803e3d6000fd5b505050506040513d601f19601f820116820180604052508101906106879190611ceb565b1015610743576002546107439061010090046001600160a01b0316634907582f6106bd6b4b534c504b4f52434b44414960a01b90565b6040516001600160e01b031960e084901b168152600481019190915233602482015260440160206040518083038186803b1580156106fa57600080fd5b505afa15801561070e573d6000803e3d6000fd5b505050506040513d601f19601f820116820180604052508101906107329190611ceb565b61073c9083611e36565b6000611551565b60025461010090046001600160a01b031663d295927a61076f6b4b534c504b4f52434b44414960a01b90565b33610779856117a4565b61078290611e4d565b6040516001600160e01b031960e086901b16815260048101939093526001600160a01b0390911660248301526044820152606401600060405180830381600087803b1580156107d057600080fd5b505af11580156107e4573d6000803e3d6000fd5b5050600554604051630615339760e51b8152336004820152602481018590526001600160a01b03909116925063c2a672e09150604401602060405180830381600087803b15801561083457600080fd5b505af1158015610848573d6000803e3d6000fd5b505050506040513d601f19601f8201168201806040525081019061086c9190611ceb565b5050565b610879826105a8565b6108838133611812565b61088d8383611876565b505050565b60025460ff16156108b55760405162461bcd60e51b81526004016104a190611d7f565b6006546040516324f3163560e01b81526b4b534c504b4f52434b44414960a01b60048201526000916001600160a01b0316906324f316359060240160206040518083038186803b15801561090857600080fd5b505afa15801561091c573d6000803e3d6000fd5b505050506040513d601f19601f820116820180604052508101906109409190611ceb565b60025490915060009061010090046001600160a01b031663b75baf796109726b4b534c504b4f52434b44414960a01b90565b6040516001600160e01b031960e084901b1681526004810191909152336024820152604401604080518083038186803b1580156109ae57600080fd5b505afa1580156109c2573d6000803e3d6000fd5b505050506040513d601f19601f820116820180604052508101906109e69190611d03565b9150600090506109f682846118e1565b60035460405163109b40d560e11b81529192506001600160a01b03169063213681aa90610a2b90339081908690600401611d26565b600060405180830381600087803b158015610a4557600080fd5b505af1158015610a59573d6000803e3d6000fd5b505060025461010090046001600160a01b03169150630d0a1d929050610a8b6b4b534c504b4f52434b44414960a01b90565b333333610a978a6117a4565b610aa090611e4d565b610aa9886117a4565b610ab290611e4d565b6040518763ffffffff1660e01b8152600401610ad396959493929190611d4a565b600060405180830381600087803b158015610aed57600080fd5b505af1158015610b01573d6000803e3d6000fd5b5050505050505050565b6001600160a01b0381163314610b7b5760405162461bcd60e51b815260206004820152602f60248201527f416363657373436f6e74726f6c3a2063616e206f6e6c792072656e6f756e636560448201526e103937b632b9903337b91039b2b63360891b60648201526084016104a1565b61086c828261196d565b60025460ff16610bce5760405162461bcd60e51b815260206004820152601460248201527314185d5cd8589b194e881b9bdd081c185d5cd95960621b60448201526064016104a1565b653830bab9b2b960d11b610be28133611812565b6002805460ff191690556040513381527f5db9ee0a495bf2e6ff9c91a7834c1ba4fdd244a5e8aa4e537bd38aeae4b073aa906020015b60405180910390a150565b60025460ff1615610c465760405162461bcd60e51b81526004016104a190611d7f565b3360009081526009602052604090205460ff1680610ce057506008546007546040516370a0823160e01b81523360048201526001600160a01b03909116906370a082319060240160206040518083038186803b158015610ca557600080fd5b505afa158015610cb9573d6000803e3d6000fd5b505050506040513d601f19601f82011682018060405250810190610cdd9190611ceb565b10155b610d455760405162461bcd60e51b815260206004820152603060248201527f42617365476174657761793a3a20756e7374616b65496e424b6c61793a20696e60448201526f3b30b634b21036b9b39739b2b73232b960811b60648201526084016104a1565b600254819061010090046001600160a01b0316634907582f610d736b4b534c504b4f52434b44414960a01b90565b6040516001600160e01b031960e084901b168152600481019190915233602482015260440160206040518083038186803b158015610db057600080fd5b505afa158015610dc4573d6000803e3d6000fd5b505050506040513d601f19601f82011682018060405250810190610de89190611ceb565b1015610e1e57600254610e1e9061010090046001600160a01b0316634907582f6106bd6b4b534c504b4f52434b44414960a01b90565b60025461010090046001600160a01b031663d295927a610e4a6b4b534c504b4f52434b44414960a01b90565b33610e54856117a4565b610e5d90611e4d565b6040516001600160e01b031960e086901b16815260048101939093526001600160a01b0390911660248301526044820152606401600060405180830381600087803b158015610eab57600080fd5b505af1158015610ebf573d6000803e3d6000fd5b505060055460405163a9059cbb60e01b8152336004820152602481018590526001600160a01b03909116925063a9059cbb9150604401602060405180830381600087803b158015610f0f57600080fd5b505af1158015610f23573d6000803e3d6000fd5b505050506040513d601f19601f8201168201806040525081019061086c9190611c6b565b60025460ff1615610f6a5760405162461bcd60e51b81526004016104a190611d7f565b610f748282611551565b61086c826105c1565b60025460ff1615610fa05760405162461bcd60e51b81526004016104a190611d7f565b653830bab9b2b960d11b610fb48133611812565b6002805460ff191660011790556040513381527f62e78cea01bee320cd4e420270b5ea74000d11b0c9f74754ebdbfc544b05a25890602001610c18565b60009182526001602090815260408084206001600160a01b0393909316845291905290205460ff1690565b600061102a60025460ff1690565b156110475760405162461bcd60e51b81526004016104a190611d7f565b600480546040516323b872dd60e01b81526001600160a01b03909116916323b872dd9161107a9133913091889101611d26565b602060405180830381600087803b15801561109457600080fd5b505af11580156110a8573d6000803e3d6000fd5b505050506040513d601f19601f820116820180604052508101906110cc9190611c6b565b506004805460055460405163095ea7b360e01b81526001600160a01b039182169381019390935260248301859052169063095ea7b390604401602060405180830381600087803b15801561111f57600080fd5b505af1158015611133573d6000803e3d6000fd5b505050506040513d601f19601f820116820180604052508101906111579190611c6b565b506005546040516356e4bb9760e11b8152306004820152602481018490526001600160a01b039091169063adc9772e90604401602060405180830381600087803b1580156111a457600080fd5b505af11580156111b8573d6000803e3d6000fd5b505050506040513d601f19601f820116820180604052508101906111dc9190611ceb565b60025490915061010090046001600160a01b031663d295927a61120b6b4b534c504b4f52434b44414960a01b90565b33611215856117a4565b6040516001600160e01b031960e086901b16815260048101939093526001600160a01b0390911660248301526044820152606401600060405180830381600087803b15801561126357600080fd5b505af1158015611277573d6000803e3d6000fd5b50505050919050565b60025460ff16156112a35760405162461bcd60e51b81526004016104a190611d7f565b60006112ae8361101c565b905061088d818361047e565b600054610100900460ff16806112cf5750303b155b806112dd575060005460ff16155b6112f95760405162461bcd60e51b81526004016104a190611da9565b600054610100900460ff1615801561131b576000805461ffff19166101011790555b6113236119d4565b8015611335576000805461ff00191690555b50565b60025460ff161561135b5760405162461bcd60e51b81526004016104a190611d7f565b61136481610892565b611335816105c1565b61137f6430b236b4b760d91b33611812565b60025460ff16156113a25760405162461bcd60e51b81526004016104a190611d7f565b81653632b233b2b960d11b14156113d85760028054610100600160a81b0319166101006001600160a01b0384160217905561086c565b81696b73644761746577617960b01b141561140d57600380546001600160a01b0319166001600160a01b03831617905561086c565b81643a37b5b2b760d91b141561143d57600480546001600160a01b0319166001600160a01b03831617905561086c565b8163189bdb9960e21b141561146c57600580546001600160a01b0319166001600160a01b03831617905561086c565b817439ba30b134b634ba3ca332b2a1b7b63632b1ba37b960591b14156114ac57600680546001600160a01b0319166001600160a01b03831617905561086c565b8165736b6f6b6f6160d01b14156114dd57600780546001600160a01b0319166001600160a01b03831617905561086c565b60405162461bcd60e51b815260206004820152602660248201527f42617365476174657761793a3a636f6e6669673a756e7265636f676e697a65646044820152652d706172616d60d01b60648201526084016104a1565b61153d826105a8565b6115478133611812565b61088d838361196d565b60025460ff16156115745760405162461bcd60e51b81526004016104a190611d7f565b60035460405163109b40d560e11b81526001600160a01b039091169063213681aa906115a890339081908690600401611d26565b600060405180830381600087803b1580156115c257600080fd5b505af11580156115d6573d6000803e3d6000fd5b505060025461010090046001600160a01b03169150630d0a1d9290506116086b4b534c504b4f52434b44414960a01b90565b333333611614886117a4565b61161d90611e4d565b611626886117a4565b61162f90611e4d565b6040518763ffffffff1660e01b815260040161057296959493929190611d4a565b6116626430b236b4b760d91b33611812565b60025460ff16156116855760405162461bcd60e51b81526004016104a190611d7f565b816a1cdadbdadbd8531a5b5a5d60aa1b14156114dd57600881905561086c565b6116b76437bbb732b960d91b33611812565b6116c96437bbb732b960d91b82611876565b6113356437bbb732b960d91b3361196d565b600054610100900460ff16806116f05750303b155b806116fe575060005460ff16155b61171a5760405162461bcd60e51b81526004016104a190611da9565b600054610100900460ff1615801561173c576000805461ffff19166101011790555b6113236112ba565b6117566430b236b4b760d91b33611812565b60025460ff16156117795760405162461bcd60e51b81526004016104a190611d7f565b6001600160a01b03919091166000908152600960205260409020805460ff1916911515919091179055565b60006001600160ff1b0382111561180e5760405162461bcd60e51b815260206004820152602860248201527f53616665436173743a2076616c756520646f65736e27742066697420696e2061604482015267371034b73a191a9b60c11b60648201526084016104a1565b5090565b61181c8282610ff1565b61086c5760405162461bcd60e51b815260206004820152602560248201527f416363657373436f6e74726f6c3a5f636865636b526f6c653a696e76616c696460448201526420726f6c6560d81b60648201526084016104a1565b6118808282610ff1565b61086c5760008281526001602081815260408084206001600160a01b0386168086529252808420805460ff19169093179092559051339285917f2f8788117e7eff1d82e926ec794901d17c78024a50270940304540a733656f0d9190a45050565b60006118ed8284611e17565b90508115806119045750826119028383611df7565b145b6119505760405162461bcd60e51b815260206004820152601b60248201527f5761645261794d6174683a3a20726d756c3a206f766572666c6f77000000000060448201526064016104a1565b6119666b033b2e3c9fd0803ce800000082611df7565b9392505050565b6119778282610ff1565b1561086c5760008281526001602090815260408083206001600160a01b0385168085529252808320805460ff1916905551339285917ff6391f5c32d9c69d2a47ea670b442974b53935d1edc7fd64eb21e047a839171b9190a45050565b600054610100900460ff16806119e95750303b155b806119f7575060005460ff16155b611a135760405162461bcd60e51b81526004016104a190611da9565b600054610100900460ff16158015611a35576000805461ffff19166101011790555b611a3d611a6b565b611a58653830bab9b2b960d11b6437bbb732b960d91b611ad4565b611323653830bab9b2b960d11b33611b29565b600054610100900460ff1680611a805750303b155b80611a8e575060005460ff16155b611aaa5760405162461bcd60e51b81526004016104a190611da9565b600054610100900460ff16158015611acc576000805461ffff19166101011790555b611323611b33565b6000611adf836105a8565b6000848152600160208190526040808320909101859055519192508391839186917fbd79b86ffe0ab8e8776151514217cd7cacd52c909f66475c3af44e129f0b00ff9190a4505050565b61086c8282611876565b600054610100900460ff1680611b485750303b155b80611b56575060005460ff16155b611b725760405162461bcd60e51b81526004016104a190611da9565b600054610100900460ff16158015611b94576000805461ffff19166101011790555b611ba66437bbb732b960d91b33611b29565b611bc06430b236b4b760d91b6437bbb732b960d91b611ad4565b611bdd6737b832b930ba37b960c11b6437bbb732b960d91b611ad4565b611bef6430b236b4b760d91b33611b29565b6113236737b832b930ba37b960c11b33611b29565b80356001600160a01b03811681146105bc57600080fd5b600060208284031215611c2c578081fd5b61196682611c04565b60008060408385031215611c47578081fd5b611c5083611c04565b91506020830135611c6081611e7d565b809150509250929050565b600060208284031215611c7c578081fd5b815161196681611e7d565b600060208284031215611c98578081fd5b5035919050565b60008060408385031215611cb1578182fd5b82359150611cc160208401611c04565b90509250929050565b60008060408385031215611cdc578182fd5b50508035926020909101359150565b600060208284031215611cfc578081fd5b5051919050565b60008060408385031215611d15578182fd5b505080516020909101519092909150565b6001600160a01b039384168152919092166020820152604081019190915260600190565b9586526001600160a01b039485166020870152928416604086015292166060840152608083019190915260a082015260c00190565b60208082526010908201526f14185d5cd8589b194e881c185d5cd95960821b604082015260600190565b6020808252602e908201527f496e697469616c697a61626c653a20636f6e747261637420697320616c72656160408201526d191e481a5b9a5d1a585b1a5e995960921b606082015260800190565b600082611e1257634e487b7160e01b81526012600452602481fd5b500490565b6000816000190483118215151615611e3157611e31611e67565b500290565b600082821015611e4857611e48611e67565b500390565b6000600160ff1b821415611e6357611e63611e67565b0390565b634e487b7160e01b600052601160045260246000fd5b801515811461133557600080fdfea26469706673582212204c03148d2123aa47c5aadf03d6527ac60dbf1d4888d6a52b2c4f4ba9a17e208464736f6c63430008030033",
  "devdoc": {
    "kind": "dev",
    "methods": {
      "borrow(uint256,uint256)": {
        "details": "Ledger decides whether or not to verify the stability of a secured loan or not.Loan history recorded on ledger.",
        "params": {
          "bondAmount": "Amount of bond to be collateralized.",
          "loanAmount": "Amount of ksd to borrow (loan)."
        }
      },
      "repay(uint256,uint256)": {
        "details": "Record on ledge.",
        "params": {
          "bondAmount": "Amount of bond that was entrusted as collateral.",
          "loanAmount": "Amount of ksd borrowed (loan)."
        }
      },
      "repayAll(uint256)": {
        "details": "Record on ledge.",
        "params": {
          "bondAmount": "Amount of bond that was entrusted as collateral."
        }
      },
      "repayAllAndUnstake(uint256)": {
        "details": "Unstake is executed after repay is executed.",
        "params": {
          "bondAmount": "Amount of bond that was entrusted as collateral."
        }
      },
      "repayAndUnstake(uint256,uint256)": {
        "details": "Unstake is executed after repay is executed.",
        "params": {
          "bondAmount": "Amount of bond that was entrusted as collateral.",
          "loanAmount": "Amount of ksd borrowed (loan)."
        }
      },
      "stake(uint256)": {
        "details": "User should call approve function of token before calling this function",
        "returns": {
          "bondAmount": "amount of bond token corresponding to staked token"
        }
      },
      "stakeAndBorrow(uint256,uint256)": {
        "details": "User should call approve before calling this function",
        "params": {
          "loanAmount": "Amount of ksd to borrow (loan).",
          "tokenAmount": "Amount of token to stake."
        }
      },
      "unstake(uint256)": {
        "params": {
          "bondAmount": "Amount of bond to unbond."
        }
      },
      "unstakeInBond(uint256)": {
        "params": {
          "bondAmount": "Amount of bond you want to return."
        }
      }
    },
    "version": 1
  },
  "userdoc": {
    "kind": "user",
    "methods": {
      "COLLATERAL_TYPE()": {
        "notice": "collateral type of this gateway"
      },
      "borrow(uint256,uint256)": {
        "notice": "Loan ksd with bond."
      },
      "repay(uint256,uint256)": {
        "notice": "Return ksd and unlock collateral (bond)."
      },
      "repayAll(uint256)": {
        "notice": "Return ksd and unlock collateral (bond)."
      },
      "repayAllAndUnstake(uint256)": {
        "notice": "Execute repayAll and unstake functions at the same time."
      },
      "repayAndUnstake(uint256,uint256)": {
        "notice": "Execute repay and unstake functions at the same time."
      },
      "stake(uint256)": {
        "notice": "Send token to bond contract, record on ledger."
      },
      "stakeAndBorrow(uint256,uint256)": {
        "notice": "Execute stake and borrow functions at the same time."
      },
      "unstake(uint256)": {
        "notice": "Execute unstake to get the entrusted token back."
      },
      "unstakeInBond(uint256)": {
        "notice": "Execute unstake to get the bond back."
      }
    },
    "version": 1
  },
  "storageLayout": {
    "storage": [
      {
        "astId": 23220,
        "contract": "contracts/collateral/KSLPKORCKDAI/KSLPKORCKDAIGateway.sol:KSLPKORCKDAIGateway",
        "label": "_initialized",
        "offset": 0,
        "slot": "0",
        "type": "t_bool"
      },
      {
        "astId": 23223,
        "contract": "contracts/collateral/KSLPKORCKDAI/KSLPKORCKDAIGateway.sol:KSLPKORCKDAIGateway",
        "label": "_initializing",
        "offset": 1,
        "slot": "0",
        "type": "t_bool"
      },
      {
        "astId": 20166,
        "contract": "contracts/collateral/KSLPKORCKDAI/KSLPKORCKDAIGateway.sol:KSLPKORCKDAIGateway",
        "label": "_roles",
        "offset": 0,
        "slot": "1",
        "type": "t_mapping(t_bytes32,t_struct(RoleData)20161_storage)"
      },
      {
        "astId": 20556,
        "contract": "contracts/collateral/KSLPKORCKDAI/KSLPKORCKDAIGateway.sol:KSLPKORCKDAIGateway",
        "label": "_paused",
        "offset": 0,
        "slot": "2",
        "type": "t_bool"
      },
      {
        "astId": 18987,
        "contract": "contracts/collateral/KSLPKORCKDAI/KSLPKORCKDAIGateway.sol:KSLPKORCKDAIGateway",
        "label": "ledger",
        "offset": 1,
        "slot": "2",
        "type": "t_contract(ILedger)8804"
      },
      {
        "astId": 18990,
        "contract": "contracts/collateral/KSLPKORCKDAI/KSLPKORCKDAIGateway.sol:KSLPKORCKDAIGateway",
        "label": "ksdGateway",
        "offset": 0,
        "slot": "3",
        "type": "t_contract(IKSDGateway)7603"
      },
      {
        "astId": 18993,
        "contract": "contracts/collateral/KSLPKORCKDAI/KSLPKORCKDAIGateway.sol:KSLPKORCKDAIGateway",
        "label": "token",
        "offset": 0,
        "slot": "4",
        "type": "t_contract(IKIP7)9881"
      },
      {
        "astId": 18996,
        "contract": "contracts/collateral/KSLPKORCKDAI/KSLPKORCKDAIGateway.sol:KSLPKORCKDAIGateway",
        "label": "bond",
        "offset": 0,
        "slot": "5",
        "type": "t_contract(IBond)7234"
      },
      {
        "astId": 18999,
        "contract": "contracts/collateral/KSLPKORCKDAI/KSLPKORCKDAIGateway.sol:KSLPKORCKDAIGateway",
        "label": "stabilityFeeCollector",
        "offset": 0,
        "slot": "6",
        "type": "t_contract(IStabilityFeeCollector)9279"
      },
      {
        "astId": 19002,
        "contract": "contracts/collateral/KSLPKORCKDAI/KSLPKORCKDAIGateway.sol:KSLPKORCKDAIGateway",
        "label": "skokoa",
        "offset": 0,
        "slot": "7",
        "type": "t_contract(IKIP7)9881"
      },
      {
        "astId": 19004,
        "contract": "contracts/collateral/KSLPKORCKDAI/KSLPKORCKDAIGateway.sol:KSLPKORCKDAIGateway",
        "label": "skokoaLimit",
        "offset": 0,
        "slot": "8",
        "type": "t_uint256"
      },
      {
        "astId": 19008,
        "contract": "contracts/collateral/KSLPKORCKDAI/KSLPKORCKDAIGateway.sol:KSLPKORCKDAIGateway",
        "label": "isAllow",
        "offset": 0,
        "slot": "9",
        "type": "t_mapping(t_address,t_bool)"
      }
    ],
    "types": {
      "t_address": {
        "encoding": "inplace",
        "label": "address",
        "numberOfBytes": "20"
      },
      "t_bool": {
        "encoding": "inplace",
        "label": "bool",
        "numberOfBytes": "1"
      },
      "t_bytes32": {
        "encoding": "inplace",
        "label": "bytes32",
        "numberOfBytes": "32"
      },
      "t_contract(IBond)7234": {
        "encoding": "inplace",
        "label": "contract IBond",
        "numberOfBytes": "20"
      },
      "t_contract(IKIP7)9881": {
        "encoding": "inplace",
        "label": "contract IKIP7",
        "numberOfBytes": "20"
      },
      "t_contract(IKSDGateway)7603": {
        "encoding": "inplace",
        "label": "contract IKSDGateway",
        "numberOfBytes": "20"
      },
      "t_contract(ILedger)8804": {
        "encoding": "inplace",
        "label": "contract ILedger",
        "numberOfBytes": "20"
      },
      "t_contract(IStabilityFeeCollector)9279": {
        "encoding": "inplace",
        "label": "contract IStabilityFeeCollector",
        "numberOfBytes": "20"
      },
      "t_mapping(t_address,t_bool)": {
        "encoding": "mapping",
        "key": "t_address",
        "label": "mapping(address => bool)",
        "numberOfBytes": "32",
        "value": "t_bool"
      },
      "t_mapping(t_bytes32,t_struct(RoleData)20161_storage)": {
        "encoding": "mapping",
        "key": "t_bytes32",
        "label": "mapping(bytes32 => struct AccessControl.RoleData)",
        "numberOfBytes": "32",
        "value": "t_struct(RoleData)20161_storage"
      },
      "t_struct(RoleData)20161_storage": {
        "encoding": "inplace",
        "label": "struct AccessControl.RoleData",
        "members": [
          {
            "astId": 20158,
            "contract": "contracts/collateral/KSLPKORCKDAI/KSLPKORCKDAIGateway.sol:KSLPKORCKDAIGateway",
            "label": "members",
            "offset": 0,
            "slot": "0",
            "type": "t_mapping(t_address,t_bool)"
          },
          {
            "astId": 20160,
            "contract": "contracts/collateral/KSLPKORCKDAI/KSLPKORCKDAIGateway.sol:KSLPKORCKDAIGateway",
            "label": "adminRole",
            "offset": 0,
            "slot": "1",
            "type": "t_bytes32"
          }
        ],
        "numberOfBytes": "64"
      },
      "t_uint256": {
        "encoding": "inplace",
        "label": "uint256",
        "numberOfBytes": "32"
      }
    }
  }
}