{
  "address": "0xC73343a93B7Be26F0056Ed62AAb58dB69B9edCFC",
  "abi": [
    {
      "anonymous": false,
      "inputs": [
        {
          "indexed": false,
          "internalType": "address",
          "name": "account",
          "type": "address"
        }
      ],
      "name": "Paused",
      "type": "event"
    },
    {
      "anonymous": false,
      "inputs": [
        {
          "indexed": true,
          "internalType": "bytes32",
          "name": "role",
          "type": "bytes32"
        },
        {
          "indexed": true,
          "internalType": "bytes32",
          "name": "previousAdminRole",
          "type": "bytes32"
        },
        {
          "indexed": true,
          "internalType": "bytes32",
          "name": "newAdminRole",
          "type": "bytes32"
        }
      ],
      "name": "RoleAdminChanged",
      "type": "event"
    },
    {
      "anonymous": false,
      "inputs": [
        {
          "indexed": true,
          "internalType": "bytes32",
          "name": "role",
          "type": "bytes32"
        },
        {
          "indexed": true,
          "internalType": "address",
          "name": "account",
          "type": "address"
        },
        {
          "indexed": true,
          "internalType": "address",
          "name": "sender",
          "type": "address"
        }
      ],
      "name": "RoleGranted",
      "type": "event"
    },
    {
      "anonymous": false,
      "inputs": [
        {
          "indexed": true,
          "internalType": "bytes32",
          "name": "role",
          "type": "bytes32"
        },
        {
          "indexed": true,
          "internalType": "address",
          "name": "account",
          "type": "address"
        },
        {
          "indexed": true,
          "internalType": "address",
          "name": "sender",
          "type": "address"
        }
      ],
      "name": "RoleRevoked",
      "type": "event"
    },
    {
      "anonymous": false,
      "inputs": [
        {
          "indexed": false,
          "internalType": "address",
          "name": "from",
          "type": "address"
        },
        {
          "indexed": false,
          "internalType": "uint256",
          "name": "amount",
          "type": "uint256"
        }
      ],
      "name": "Stake",
      "type": "event"
    },
    {
      "anonymous": false,
      "inputs": [
        {
          "indexed": false,
          "internalType": "address",
          "name": "account",
          "type": "address"
        }
      ],
      "name": "Unpaused",
      "type": "event"
    },
    {
      "anonymous": false,
      "inputs": [
        {
          "indexed": false,
          "internalType": "address",
          "name": "from",
          "type": "address"
        },
        {
          "indexed": false,
          "internalType": "uint256",
          "name": "amount",
          "type": "uint256"
        }
      ],
      "name": "Unstake",
      "type": "event"
    },
    {
      "inputs": [],
      "name": "DEFAULT_ADMIN_ROLE",
      "outputs": [
        {
          "internalType": "bytes32",
          "name": "",
          "type": "bytes32"
        }
      ],
      "stateMutability": "view",
      "type": "function"
    },
    {
      "inputs": [],
      "name": "__KSLPKORCKDAIYield_init",
      "outputs": [],
      "stateMutability": "nonpayable",
      "type": "function"
    },
    {
      "inputs": [],
      "name": "__KSLPYield_init",
      "outputs": [],
      "stateMutability": "nonpayable",
      "type": "function"
    },
    {
      "inputs": [],
      "name": "_totalAmount",
      "outputs": [
        {
          "internalType": "uint256",
          "name": "",
          "type": "uint256"
        }
      ],
      "stateMutability": "view",
      "type": "function"
    },
    {
      "inputs": [],
      "name": "_totalValue",
      "outputs": [
        {
          "internalType": "uint256",
          "name": "",
          "type": "uint256"
        }
      ],
      "stateMutability": "view",
      "type": "function"
    },
    {
      "inputs": [],
      "name": "applyProfit",
      "outputs": [
        {
          "internalType": "uint256",
          "name": "ksdAmount",
          "type": "uint256"
        }
      ],
      "stateMutability": "nonpayable",
      "type": "function"
    },
    {
      "inputs": [
        {
          "internalType": "bytes32",
          "name": "what",
          "type": "bytes32"
        },
        {
          "internalType": "bool",
          "name": "data",
          "type": "bool"
        }
      ],
      "name": "config",
      "outputs": [],
      "stateMutability": "nonpayable",
      "type": "function"
    },
    {
      "inputs": [
        {
          "internalType": "bytes32",
          "name": "what",
          "type": "bytes32"
        },
        {
          "internalType": "address",
          "name": "data",
          "type": "address"
        }
      ],
      "name": "config",
      "outputs": [],
      "stateMutability": "nonpayable",
      "type": "function"
    },
    {
      "inputs": [],
      "name": "expectedApr",
      "outputs": [
        {
          "internalType": "uint256",
          "name": "",
          "type": "uint256"
        }
      ],
      "stateMutability": "view",
      "type": "function"
    },
    {
      "inputs": [
        {
          "internalType": "bytes32",
          "name": "role",
          "type": "bytes32"
        }
      ],
      "name": "getRoleAdmin",
      "outputs": [
        {
          "internalType": "bytes32",
          "name": "",
          "type": "bytes32"
        }
      ],
      "stateMutability": "view",
      "type": "function"
    },
    {
      "inputs": [
        {
          "internalType": "bytes32",
          "name": "role",
          "type": "bytes32"
        },
        {
          "internalType": "address",
          "name": "account",
          "type": "address"
        }
      ],
      "name": "grantRole",
      "outputs": [],
      "stateMutability": "nonpayable",
      "type": "function"
    },
    {
      "inputs": [
        {
          "internalType": "bytes32",
          "name": "role",
          "type": "bytes32"
        },
        {
          "internalType": "address",
          "name": "account",
          "type": "address"
        }
      ],
      "name": "hasRole",
      "outputs": [
        {
          "internalType": "bool",
          "name": "",
          "type": "bool"
        }
      ],
      "stateMutability": "view",
      "type": "function"
    },
    {
      "inputs": [],
      "name": "klayswapBridge",
      "outputs": [
        {
          "internalType": "contract IKlaySwapBridge",
          "name": "",
          "type": "address"
        }
      ],
      "stateMutability": "view",
      "type": "function"
    },
    {
      "inputs": [],
      "name": "ksd",
      "outputs": [
        {
          "internalType": "contract IKIP7",
          "name": "",
          "type": "address"
        }
      ],
      "stateMutability": "view",
      "type": "function"
    },
    {
      "inputs": [],
      "name": "ksp",
      "outputs": [
        {
          "internalType": "contract IKIP7",
          "name": "",
          "type": "address"
        }
      ],
      "stateMutability": "view",
      "type": "function"
    },
    {
      "inputs": [],
      "name": "pause",
      "outputs": [],
      "stateMutability": "nonpayable",
      "type": "function"
    },
    {
      "inputs": [],
      "name": "paused",
      "outputs": [
        {
          "internalType": "bool",
          "name": "",
          "type": "bool"
        }
      ],
      "stateMutability": "view",
      "type": "function"
    },
    {
      "inputs": [],
      "name": "receiver",
      "outputs": [
        {
          "internalType": "address",
          "name": "",
          "type": "address"
        }
      ],
      "stateMutability": "view",
      "type": "function"
    },
    {
      "inputs": [
        {
          "internalType": "bytes32",
          "name": "role",
          "type": "bytes32"
        },
        {
          "internalType": "address",
          "name": "account",
          "type": "address"
        }
      ],
      "name": "renounceRole",
      "outputs": [],
      "stateMutability": "nonpayable",
      "type": "function"
    },
    {
      "inputs": [
        {
          "internalType": "bytes32",
          "name": "role",
          "type": "bytes32"
        },
        {
          "internalType": "address",
          "name": "account",
          "type": "address"
        }
      ],
      "name": "revokeRole",
      "outputs": [],
      "stateMutability": "nonpayable",
      "type": "function"
    },
    {
      "inputs": [
        {
          "internalType": "uint256",
          "name": "tokenAmount",
          "type": "uint256"
        }
      ],
      "name": "stake",
      "outputs": [],
      "stateMutability": "nonpayable",
      "type": "function"
    },
    {
      "inputs": [
        {
          "internalType": "uint256",
          "name": "value",
          "type": "uint256"
        }
      ],
      "name": "toAmount",
      "outputs": [
        {
          "internalType": "uint256",
          "name": "",
          "type": "uint256"
        }
      ],
      "stateMutability": "view",
      "type": "function"
    },
    {
      "inputs": [
        {
          "internalType": "uint256",
          "name": "tokenAmount",
          "type": "uint256"
        }
      ],
      "name": "toValue",
      "outputs": [
        {
          "internalType": "uint256",
          "name": "",
          "type": "uint256"
        }
      ],
      "stateMutability": "view",
      "type": "function"
    },
    {
      "inputs": [],
      "name": "token",
      "outputs": [
        {
          "internalType": "contract IKIP7",
          "name": "",
          "type": "address"
        }
      ],
      "stateMutability": "view",
      "type": "function"
    },
    {
      "inputs": [],
      "name": "totalAmount",
      "outputs": [
        {
          "internalType": "uint256",
          "name": "",
          "type": "uint256"
        }
      ],
      "stateMutability": "view",
      "type": "function"
    },
    {
      "inputs": [],
      "name": "totalValue",
      "outputs": [
        {
          "internalType": "uint256",
          "name": "",
          "type": "uint256"
        }
      ],
      "stateMutability": "view",
      "type": "function"
    },
    {
      "inputs": [
        {
          "internalType": "address",
          "name": "newOwner",
          "type": "address"
        }
      ],
      "name": "transferOwnership",
      "outputs": [],
      "stateMutability": "nonpayable",
      "type": "function"
    },
    {
      "inputs": [],
      "name": "unpause",
      "outputs": [],
      "stateMutability": "nonpayable",
      "type": "function"
    },
    {
      "inputs": [
        {
          "internalType": "uint256",
          "name": "tokenAmount",
          "type": "uint256"
        }
      ],
      "name": "unstake",
      "outputs": [],
      "stateMutability": "nonpayable",
      "type": "function"
    },
    {
      "inputs": [],
      "name": "whiteListed",
      "outputs": [
        {
          "internalType": "bool",
          "name": "",
          "type": "bool"
        }
      ],
      "stateMutability": "view",
      "type": "function"
    },
    {
      "inputs": [],
      "name": "yieldFactory",
      "outputs": [
        {
          "internalType": "address",
          "name": "",
          "type": "address"
        }
      ],
      "stateMutability": "view",
      "type": "function"
    }
  ],
  "transactionHash": "0x6f7530454548773f2e9e2eab1ba8b37177d0037bfa527f0527e9827427141a57",
  "args": [],
  "solcInputHash": "daac9cba34dfabe5953ff704314717f0",
  "bytecode": "0x608060405234801561001057600080fd5b50611f3f806100206000396000f3fe608060405234801561001057600080fd5b50600436106101e55760003560e01c80638456cb591161010f578063d4c3eea0116100a2578063f648fc0d11610071578063f648fc0d146103c5578063f7260d3e146103d8578063fc0c546a146103eb578063fe6dacf614610403576101e5565b8063d4c3eea014610390578063d547741f14610398578063df63c8b6146103ab578063f2fde38b146103b2576101e5565b8063a694fc3a116100de578063a694fc3a1461034f578063a6d5f10314610362578063cf712f6f14610375578063d366f3b91461037d576101e5565b80638456cb59146103195780639082d0ed1461032157806391d1485414610334578063a217fddf14610347576101e5565b80633bbeaab5116101875780634c41dd96116101565780634c41dd96146102d557806351effa6b146102e85780635c975abb146102fb57806370dc57bd14610306576101e5565b80633bbeaab5146102975780633f4ba83a146102a057806343038ff3146102a857806344c47561146102b1576101e5565b80632e17de78116101c35780632e17de78146102545780632ef7440b146102695780632f2ff15d1461027157806336568abe14610284576101e5565b806316fd84f7146101ea5780631a39d8ef1461021a578063248a9ca314610230575b600080fd5b6006546101fd906001600160a01b031681565b6040516001600160a01b0390911681526020015b60405180910390f35b61022261040b565b604051908152602001610211565b61022261023e366004611cd4565b6000908152600160208190526040909120015490565b610267610262366004611cd4565b610479565b005b6102676105ca565b61026761027f366004611cec565b610648565b610267610292366004611cec565b610674565b61022260095481565b6102676106f2565b61022260085481565b6007546102c590600160a01b900460ff1681565b6040519015158152602001610211565b6102226102e3366004611cd4565b610789565b6102676102f6366004611d1b565b6108f1565b60025460ff166102c5565b6005546101fd906001600160a01b031681565b6102676109b4565b6004546101fd906001600160a01b031681565b6102c5610342366004611cec565b610a28565b610222600081565b61026761035d366004611cd4565b610a53565b6003546101fd906001600160a01b031681565b610222610b95565b61026761038b366004611cec565b610f73565b600854610222565b6102676103a6366004611cec565b6110b9565b6001610222565b6102676103c0366004611c79565b6110e0565b6102226103d3366004611cd4565b611116565b6007546101fd906001600160a01b031681565b6002546101fd9061010090046001600160a01b031681565b61026761126e565b60008060009050600854610420600954611116565b1180156104375750600754600160a01b900460ff16155b1561046557600060085461044c600954611116565b6104569190611eb9565b905061046181610789565b9150505b806009546104739190611eb9565b91505090565b61048b6430b236b4b760d91b336112d7565b60025460ff16156104b75760405162461bcd60e51b81526004016104ae90611dea565b60405180910390fd5b60025460075460405163a9059cbb60e01b81526001600160a01b03918216600482015260248101849052610100909204169063a9059cbb90604401602060405180830381600087803b15801561050c57600080fd5b505af1158015610520573d6000803e3d6000fd5b505050506040513d601f19601f820116820180604052508101906105449190611cb8565b5080600960008282546105579190611eb9565b9091555050600754600160a01b900460ff1661058d5761057681611116565b600860008282546105879190611eb9565b90915550505b60408051338152602081018390527f85082129d87b2fe11527cb1b3b7a520aeb5aa6913f88a3d8757fe40d1db02fdd91015b60405180910390a150565b600054610100900460ff16806105df5750303b155b806105ed575060005460ff16155b6106095760405162461bcd60e51b81526004016104ae90611e14565b600054610100900460ff1615801561062b576000805461ffff19166101011790555b61063361126e565b8015610645576000805461ff00191690555b50565b6000828152600160208190526040909120015461066581336112d7565b61066f838361133b565b505050565b6001600160a01b03811633146106e45760405162461bcd60e51b815260206004820152602f60248201527f416363657373436f6e74726f6c3a2063616e206f6e6c792072656e6f756e636560448201526e103937b632b9903337b91039b2b63360891b60648201526084016104ae565b6106ee82826113a6565b5050565b60025460ff1661073b5760405162461bcd60e51b815260206004820152601460248201527314185d5cd8589b194e881b9bdd081c185d5cd95960621b60448201526064016104ae565b653830bab9b2b960d11b61074f81336112d7565b6002805460ff191690556040513381527f5db9ee0a495bf2e6ff9c91a7834c1ba4fdd244a5e8aa4e537bd38aeae4b073aa906020016105bf565b600080600260019054906101000a90046001600160a01b03166001600160a01b03166318160ddd6040518163ffffffff1660e01b815260040160206040518083038186803b1580156107da57600080fd5b505afa1580156107ee573d6000803e3d6000fd5b505050506040513d601f19601f820116820180604052508101906108129190611d3f565b9050600080600260019054906101000a90046001600160a01b03166001600160a01b0316631a595f656040518163ffffffff1660e01b8152600401604080518083038186803b15801561086457600080fd5b505afa158015610878573d6000803e3d6000fd5b505050506040513d601f19601f8201168201806040525081019061089c9190611d57565b909250905060006108b56108b08385611e9a565b61140d565b90506000846108d06b033b2e3c9fd0803ce800000084611e9a565b6108da9190611e7a565b90506108e68188611e7a565b979650505050505050565b6109036430b236b4b760d91b336112d7565b816a1dda1a5d19531a5cdd195960aa1b141561096057600754600160a01b900460ff168015610930575080155b1561094457610940600954611116565b6008555b6007805460ff60a01b1916600160a01b831515021790556106ee565b60405162461bcd60e51b8152602060048201526024808201527f4b534c705969656c643a3a636f6e6669673a756e7265636f676e697a65642d706044820152636172616d60e01b60648201526084016104ae565b60025460ff16156109d75760405162461bcd60e51b81526004016104ae90611dea565b653830bab9b2b960d11b6109eb81336112d7565b6002805460ff191660011790556040513381527f62e78cea01bee320cd4e420270b5ea74000d11b0c9f74754ebdbfc544b05a258906020016105bf565b60009182526001602090815260408084206001600160a01b0393909316845291905290205460ff1690565b610a656430b236b4b760d91b336112d7565b60025460ff1615610a885760405162461bcd60e51b81526004016104ae90611dea565b6002546040516323b872dd60e01b8152336004820152306024820152604481018390526101009091046001600160a01b0316906323b872dd90606401602060405180830381600087803b158015610ade57600080fd5b505af1158015610af2573d6000803e3d6000fd5b505050506040513d601f19601f82011682018060405250810190610b169190611cb8565b508060096000828254610b299190611e62565b9091555050600754600160a01b900460ff16610b5f57610b4881611116565b60086000828254610b599190611e62565b90915550505b60408051338152602081018390527febedb8b3c678666e7f36970bc8f57abf6d8fa2e828c0da91ea5b75bf68ed101a91016105bf565b6000610ba96430b236b4b760d91b336112d7565b600260019054906101000a90046001600160a01b03166001600160a01b031663b88a802f6040518163ffffffff1660e01b8152600401600060405180830381600087803b158015610bf957600080fd5b505af1158015610c0d573d6000803e3d6000fd5b5050600480546040516370a0823160e01b81523092810192909252600093506001600160a01b031691506370a082319060240160206040518083038186803b158015610c5857600080fd5b505afa158015610c6c573d6000803e3d6000fd5b505050506040513d601f19601f82011682018060405250810190610c909190611d3f565b90508015610dec5760408051600180825281830190925260009160208083019080368337019050509050600081600081518110610cdd57634e487b7160e01b600052603260045260246000fd5b6001600160a01b0392831660209182029290920101526004805460055460405163095ea7b360e01b815290841692810192909252602482018590529091169063095ea7b390604401602060405180830381600087803b158015610d3f57600080fd5b505af1158015610d53573d6000803e3d6000fd5b505050506040513d601f19601f82011682018060405250810190610d779190611cb8565b50600554600480546003546040516352f28c1760e01b81526001600160a01b03948516946352f28c1794610db8948216938993921691600191899101611d7a565b600060405180830381600087803b158015610dd257600080fd5b505af1158015610de6573d6000803e3d6000fd5b50505050505b6000600854610dfc600954611116565b118015610e135750600754600160a01b900460ff16155b15610e41576000600854610e28600954611116565b610e329190611eb9565b9050610e3d81610789565b9150505b8015610e68578060096000828254610e599190611eb9565b90915550610e68905081611462565b6003546040516370a0823160e01b81523060048201526001600160a01b03909116906370a082319060240160206040518083038186803b158015610eab57600080fd5b505afa158015610ebf573d6000803e3d6000fd5b505050506040513d601f19601f82011682018060405250810190610ee39190611d3f565b60035460065460405163095ea7b360e01b81526001600160a01b03918216600482015260248101849052929550169063095ea7b390604401602060405180830381600087803b158015610f3557600080fd5b505af1158015610f49573d6000803e3d6000fd5b505050506040513d601f19601f82011682018060405250810190610f6d9190611cb8565b50505090565b610f856430b236b4b760d91b336112d7565b81643a37b5b2b760d91b1415610fba5760028054610100600160a81b0319166101006001600160a01b038416021790556106ee565b81621adcd960ea1b1415610fe857600380546001600160a01b0319166001600160a01b0383161790556106ee565b816206b73760ec1b141561101657600480546001600160a01b0319166001600160a01b0383161790556106ee565b816d6b6c61797377617042726964676560901b141561104f57600580546001600160a01b0319166001600160a01b0383161790556106ee565b816b7969656c64466163746f727960a01b141561108657600680546001600160a01b0319166001600160a01b0383161790556106ee565b81673932b1b2b4bb32b960c11b141561096057600780546001600160a01b0319166001600160a01b0383161790556106ee565b600082815260016020819052604090912001546110d681336112d7565b61066f83836113a6565b6110f26437bbb732b960d91b336112d7565b6111046437bbb732b960d91b8261133b565b6106456437bbb732b960d91b336113a6565b600080600260019054906101000a90046001600160a01b03166001600160a01b03166318160ddd6040518163ffffffff1660e01b815260040160206040518083038186803b15801561116757600080fd5b505afa15801561117b573d6000803e3d6000fd5b505050506040513d601f19601f8201168201806040525081019061119f9190611d3f565b9050600080600260019054906101000a90046001600160a01b03166001600160a01b0316631a595f656040518163ffffffff1660e01b8152600401604080518083038186803b1580156111f157600080fd5b505afa158015611205573d6000803e3d6000fd5b505050506040513d601f19601f820116820180604052508101906112299190611d57565b9092509050600061123d6108b08385611e9a565b90506000846112586b033b2e3c9fd0803ce800000084611e9a565b6112629190611e7a565b90506108e68782611e9a565b600054610100900460ff16806112835750303b155b80611291575060005460ff16155b6112ad5760405162461bcd60e51b81526004016104ae90611e14565b600054610100900460ff161580156112cf576000805461ffff19166101011790555b610633611a51565b6112e18282610a28565b6106ee5760405162461bcd60e51b815260206004820152602560248201527f416363657373436f6e74726f6c3a5f636865636b526f6c653a696e76616c696460448201526420726f6c6560d81b60648201526084016104ae565b6113458282610a28565b6106ee5760008281526001602081815260408084206001600160a01b0386168086529252808420805460ff19169093179092559051339285917f2f8788117e7eff1d82e926ec794901d17c78024a50270940304540a733656f0d9190a45050565b6113b08282610a28565b156106ee5760008281526001602090815260408083206001600160a01b0385168085529252808320805460ff1916905551339285917ff6391f5c32d9c69d2a47ea670b442974b53935d1edc7fd64eb21e047a839171b9190a45050565b80600061141b600283611e7a565b611426906001611e62565b90505b8181101561145c579050806002816114418186611e7a565b61144b9190611e62565b6114559190611e7a565b9050611429565b50919050565b6000811161146f57610645565b6000600260019054906101000a90046001600160a01b03166001600160a01b0316630fc63d106040518163ffffffff1660e01b815260040160206040518083038186803b1580156114bf57600080fd5b505afa1580156114d3573d6000803e3d6000fd5b505050506040513d601f19601f820116820180604052508101906114f79190611c9c565b90506000600260019054906101000a90046001600160a01b03166001600160a01b0316635f64b55b6040518163ffffffff1660e01b815260040160206040518083038186803b15801561154957600080fd5b505afa15801561155d573d6000803e3d6000fd5b505050506040513d601f19601f820116820180604052508101906115819190611c9c565b6040516370a0823160e01b81523060048201529091506000906001600160a01b038416906370a082319060240160206040518083038186803b1580156115c657600080fd5b505afa1580156115da573d6000803e3d6000fd5b505050506040513d601f19601f820116820180604052508101906115fe9190611d3f565b6040516370a0823160e01b81523060048201529091506000906001600160a01b038416906370a082319060240160206040518083038186803b15801561164357600080fd5b505afa158015611657573d6000803e3d6000fd5b505050506040513d601f19601f8201168201806040525081019061167b9190611d3f565b600254604051639c8f9f2360e01b81526004810188905291925061010090046001600160a01b031690639c8f9f2390602401600060405180830381600087803b1580156116c757600080fd5b505af11580156116db573d6000803e3d6000fd5b50506040516370a0823160e01b8152306004820152600092508491506001600160a01b038716906370a082319060240160206040518083038186803b15801561172357600080fd5b505afa158015611737573d6000803e3d6000fd5b505050506040513d601f19601f8201168201806040525081019061175b9190611d3f565b6117659190611eb9565b6040516370a0823160e01b815230600482015290915060009083906001600160a01b038716906370a082319060240160206040518083038186803b1580156117ac57600080fd5b505afa1580156117c0573d6000803e3d6000fd5b505050506040513d601f19601f820116820180604052508101906117e49190611d3f565b6117ee9190611eb9565b604080516001808252818301909252919250600091906020808301908036833701905050905060008160008151811061183757634e487b7160e01b600052603260045260246000fd5b6001600160a01b0390921660209283029190910190910152821561194b5760055460405163095ea7b360e01b81526001600160a01b039182166004820152602481018590529088169063095ea7b390604401602060405180830381600087803b1580156118a357600080fd5b505af11580156118b7573d6000803e3d6000fd5b505050506040513d601f19601f820116820180604052508101906118db9190611cb8565b506005546003546040516352f28c1760e01b81526001600160a01b03928316926352f28c1792611918928c92899216906001908890600401611d7a565b600060405180830381600087803b15801561193257600080fd5b505af1158015611946573d6000803e3d6000fd5b505050505b8115611a475760055460405163095ea7b360e01b81526001600160a01b039182166004820152602481018490529087169063095ea7b390604401602060405180830381600087803b15801561199f57600080fd5b505af11580156119b3573d6000803e3d6000fd5b505050506040513d601f19601f820116820180604052508101906119d79190611cb8565b506005546003546040516352f28c1760e01b81526001600160a01b03928316926352f28c1792611a14928b92889216906001908890600401611d7a565b600060405180830381600087803b158015611a2e57600080fd5b505af1158015611a42573d6000803e3d6000fd5b505050505b5050505050505050565b600054610100900460ff1680611a665750303b155b80611a74575060005460ff16155b611a905760405162461bcd60e51b81526004016104ae90611e14565b600054610100900460ff16158015611ab2576000805461ffff19166101011790555b611aba611ae8565b611ad5653830bab9b2b960d11b6437bbb732b960d91b611b51565b610633653830bab9b2b960d11b33611b9e565b600054610100900460ff1680611afd5750303b155b80611b0b575060005460ff16155b611b275760405162461bcd60e51b81526004016104ae90611e14565b600054610100900460ff16158015611b49576000805461ffff19166101011790555b610633611ba8565b6000828152600160208190526040808320909101805490849055905190918391839186917fbd79b86ffe0ab8e8776151514217cd7cacd52c909f66475c3af44e129f0b00ff9190a4505050565b6106ee828261133b565b600054610100900460ff1680611bbd5750303b155b80611bcb575060005460ff16155b611be75760405162461bcd60e51b81526004016104ae90611e14565b600054610100900460ff16158015611c09576000805461ffff19166101011790555b611c1b6437bbb732b960d91b33611b9e565b611c356430b236b4b760d91b6437bbb732b960d91b611b51565b611c526737b832b930ba37b960c11b6437bbb732b960d91b611b51565b611c646430b236b4b760d91b33611b9e565b6106336737b832b930ba37b960c11b33611b9e565b600060208284031215611c8a578081fd5b8135611c9581611ee6565b9392505050565b600060208284031215611cad578081fd5b8151611c9581611ee6565b600060208284031215611cc9578081fd5b8151611c9581611efb565b600060208284031215611ce5578081fd5b5035919050565b60008060408385031215611cfe578081fd5b823591506020830135611d1081611ee6565b809150509250929050565b60008060408385031215611d2d578182fd5b823591506020830135611d1081611efb565b600060208284031215611d50578081fd5b5051919050565b60008060408385031215611d69578182fd5b505080516020909101519092909150565b600060a0820160018060a01b03808916845260208881860152818816604086015286606086015260a0608086015282865180855260c0870191508288019450855b81811015611dd9578551851683529483019491830191600101611dbb565b50909b9a5050505050505050505050565b60208082526010908201526f14185d5cd8589b194e881c185d5cd95960821b604082015260600190565b6020808252602e908201527f496e697469616c697a61626c653a20636f6e747261637420697320616c72656160408201526d191e481a5b9a5d1a585b1a5e995960921b606082015260800190565b60008219821115611e7557611e75611ed0565b500190565b600082611e9557634e487b7160e01b81526012600452602481fd5b500490565b6000816000190483118215151615611eb457611eb4611ed0565b500290565b600082821015611ecb57611ecb611ed0565b500390565b634e487b7160e01b600052601160045260246000fd5b6001600160a01b038116811461064557600080fd5b801515811461064557600080fdfea26469706673582212204868d2ca7c940347a55cdb4a0da9ec2a56d3d64188570686b3f334d6ee093f6b64736f6c63430008030033",
  "devdoc": {
    "kind": "dev",
    "methods": {
      "stake(uint256)": {
        "params": {
          "tokenAmount": "Amount of token to stake."
        }
      },
      "unstake(uint256)": {
        "params": {
          "tokenAmount": "Amount of token to unstake."
        }
      }
    },
    "version": 1
  },
  "userdoc": {
    "kind": "user",
    "methods": {
      "applyProfit()": {
        "notice": "Convert the generated reward to ksd and distribute it to the beneficiaries."
      },
      "expectedApr()": {
        "notice": "expected apr of this yield"
      },
      "stake(uint256)": {
        "notice": "stake token to this contract"
      },
      "unstake(uint256)": {
        "notice": "unstake token from this contract."
      }
    },
    "version": 1
  },
  "storageLayout": {
    "storage": [
      {
        "astId": 23220,
        "contract": "contracts/collateral/KSLPKORCKDAI/KSLPKORCKDAIYield.sol:KSLPKORCKDAIYield",
        "label": "_initialized",
        "offset": 0,
        "slot": "0",
        "type": "t_bool"
      },
      {
        "astId": 23223,
        "contract": "contracts/collateral/KSLPKORCKDAI/KSLPKORCKDAIYield.sol:KSLPKORCKDAIYield",
        "label": "_initializing",
        "offset": 1,
        "slot": "0",
        "type": "t_bool"
      },
      {
        "astId": 20166,
        "contract": "contracts/collateral/KSLPKORCKDAI/KSLPKORCKDAIYield.sol:KSLPKORCKDAIYield",
        "label": "_roles",
        "offset": 0,
        "slot": "1",
        "type": "t_mapping(t_bytes32,t_struct(RoleData)20161_storage)"
      },
      {
        "astId": 20556,
        "contract": "contracts/collateral/KSLPKORCKDAI/KSLPKORCKDAIYield.sol:KSLPKORCKDAIYield",
        "label": "_paused",
        "offset": 0,
        "slot": "2",
        "type": "t_bool"
      },
      {
        "astId": 40063,
        "contract": "contracts/collateral/KSLPKORCKDAI/KSLPKORCKDAIYield.sol:KSLPKORCKDAIYield",
        "label": "token",
        "offset": 1,
        "slot": "2",
        "type": "t_contract(IKIP7)9881"
      },
      {
        "astId": 40066,
        "contract": "contracts/collateral/KSLPKORCKDAI/KSLPKORCKDAIYield.sol:KSLPKORCKDAIYield",
        "label": "ksd",
        "offset": 0,
        "slot": "3",
        "type": "t_contract(IKIP7)9881"
      },
      {
        "astId": 40069,
        "contract": "contracts/collateral/KSLPKORCKDAI/KSLPKORCKDAIYield.sol:KSLPKORCKDAIYield",
        "label": "ksp",
        "offset": 0,
        "slot": "4",
        "type": "t_contract(IKIP7)9881"
      },
      {
        "astId": 40072,
        "contract": "contracts/collateral/KSLPKORCKDAI/KSLPKORCKDAIYield.sol:KSLPKORCKDAIYield",
        "label": "klayswapBridge",
        "offset": 0,
        "slot": "5",
        "type": "t_contract(IKlaySwapBridge)8047"
      },
      {
        "astId": 40074,
        "contract": "contracts/collateral/KSLPKORCKDAI/KSLPKORCKDAIYield.sol:KSLPKORCKDAIYield",
        "label": "yieldFactory",
        "offset": 0,
        "slot": "6",
        "type": "t_address"
      },
      {
        "astId": 40076,
        "contract": "contracts/collateral/KSLPKORCKDAI/KSLPKORCKDAIYield.sol:KSLPKORCKDAIYield",
        "label": "receiver",
        "offset": 0,
        "slot": "7",
        "type": "t_address"
      },
      {
        "astId": 40078,
        "contract": "contracts/collateral/KSLPKORCKDAI/KSLPKORCKDAIYield.sol:KSLPKORCKDAIYield",
        "label": "whiteListed",
        "offset": 20,
        "slot": "7",
        "type": "t_bool"
      },
      {
        "astId": 40080,
        "contract": "contracts/collateral/KSLPKORCKDAI/KSLPKORCKDAIYield.sol:KSLPKORCKDAIYield",
        "label": "_totalValue",
        "offset": 0,
        "slot": "8",
        "type": "t_uint256"
      },
      {
        "astId": 40082,
        "contract": "contracts/collateral/KSLPKORCKDAI/KSLPKORCKDAIYield.sol:KSLPKORCKDAIYield",
        "label": "_totalAmount",
        "offset": 0,
        "slot": "9",
        "type": "t_uint256"
      }
    ],
    "types": {
      "t_address": {
        "encoding": "inplace",
        "label": "address",
        "numberOfBytes": "20"
      },
      "t_bool": {
        "encoding": "inplace",
        "label": "bool",
        "numberOfBytes": "1"
      },
      "t_bytes32": {
        "encoding": "inplace",
        "label": "bytes32",
        "numberOfBytes": "32"
      },
      "t_contract(IKIP7)9881": {
        "encoding": "inplace",
        "label": "contract IKIP7",
        "numberOfBytes": "20"
      },
      "t_contract(IKlaySwapBridge)8047": {
        "encoding": "inplace",
        "label": "contract IKlaySwapBridge",
        "numberOfBytes": "20"
      },
      "t_mapping(t_address,t_bool)": {
        "encoding": "mapping",
        "key": "t_address",
        "label": "mapping(address => bool)",
        "numberOfBytes": "32",
        "value": "t_bool"
      },
      "t_mapping(t_bytes32,t_struct(RoleData)20161_storage)": {
        "encoding": "mapping",
        "key": "t_bytes32",
        "label": "mapping(bytes32 => struct AccessControl.RoleData)",
        "numberOfBytes": "32",
        "value": "t_struct(RoleData)20161_storage"
      },
      "t_struct(RoleData)20161_storage": {
        "encoding": "inplace",
        "label": "struct AccessControl.RoleData",
        "members": [
          {
            "astId": 20158,
            "contract": "contracts/collateral/KSLPKORCKDAI/KSLPKORCKDAIYield.sol:KSLPKORCKDAIYield",
            "label": "members",
            "offset": 0,
            "slot": "0",
            "type": "t_mapping(t_address,t_bool)"
          },
          {
            "astId": 20160,
            "contract": "contracts/collateral/KSLPKORCKDAI/KSLPKORCKDAIYield.sol:KSLPKORCKDAIYield",
            "label": "adminRole",
            "offset": 0,
            "slot": "1",
            "type": "t_bytes32"
          }
        ],
        "numberOfBytes": "64"
      },
      "t_uint256": {
        "encoding": "inplace",
        "label": "uint256",
        "numberOfBytes": "32"
      }
    }
  }
}