{
  "address": "0x558A70BE47A735f8fAC33694856a4F7e7b1df7E3",
  "abi": [
    {
      "anonymous": false,
      "inputs": [
        {
          "indexed": false,
          "internalType": "address",
          "name": "account",
          "type": "address"
        }
      ],
      "name": "Paused",
      "type": "event"
    },
    {
      "anonymous": false,
      "inputs": [
        {
          "indexed": true,
          "internalType": "bytes32",
          "name": "role",
          "type": "bytes32"
        },
        {
          "indexed": true,
          "internalType": "bytes32",
          "name": "previousAdminRole",
          "type": "bytes32"
        },
        {
          "indexed": true,
          "internalType": "bytes32",
          "name": "newAdminRole",
          "type": "bytes32"
        }
      ],
      "name": "RoleAdminChanged",
      "type": "event"
    },
    {
      "anonymous": false,
      "inputs": [
        {
          "indexed": true,
          "internalType": "bytes32",
          "name": "role",
          "type": "bytes32"
        },
        {
          "indexed": true,
          "internalType": "address",
          "name": "account",
          "type": "address"
        },
        {
          "indexed": true,
          "internalType": "address",
          "name": "sender",
          "type": "address"
        }
      ],
      "name": "RoleGranted",
      "type": "event"
    },
    {
      "anonymous": false,
      "inputs": [
        {
          "indexed": true,
          "internalType": "bytes32",
          "name": "role",
          "type": "bytes32"
        },
        {
          "indexed": true,
          "internalType": "address",
          "name": "account",
          "type": "address"
        },
        {
          "indexed": true,
          "internalType": "address",
          "name": "sender",
          "type": "address"
        }
      ],
      "name": "RoleRevoked",
      "type": "event"
    },
    {
      "anonymous": false,
      "inputs": [
        {
          "indexed": false,
          "internalType": "address",
          "name": "account",
          "type": "address"
        }
      ],
      "name": "Unpaused",
      "type": "event"
    },
    {
      "inputs": [],
      "name": "COLLATERAL_TYPE",
      "outputs": [
        {
          "internalType": "bytes32",
          "name": "",
          "type": "bytes32"
        }
      ],
      "stateMutability": "view",
      "type": "function"
    },
    {
      "inputs": [],
      "name": "DEFAULT_ADMIN_ROLE",
      "outputs": [
        {
          "internalType": "bytes32",
          "name": "",
          "type": "bytes32"
        }
      ],
      "stateMutability": "view",
      "type": "function"
    },
    {
      "inputs": [],
      "name": "__BaseYieldFactory_init",
      "outputs": [],
      "stateMutability": "nonpayable",
      "type": "function"
    },
    {
      "inputs": [],
      "name": "__KSLPKETHKUSDTYieldFactory_init",
      "outputs": [],
      "stateMutability": "nonpayable",
      "type": "function"
    },
    {
      "inputs": [],
      "name": "applyProfitAll",
      "outputs": [],
      "stateMutability": "nonpayable",
      "type": "function"
    },
    {
      "inputs": [
        {
          "internalType": "bytes32",
          "name": "what",
          "type": "bytes32"
        },
        {
          "internalType": "address",
          "name": "data",
          "type": "address"
        }
      ],
      "name": "config",
      "outputs": [],
      "stateMutability": "nonpayable",
      "type": "function"
    },
    {
      "inputs": [
        {
          "internalType": "bytes32",
          "name": "role",
          "type": "bytes32"
        }
      ],
      "name": "getRoleAdmin",
      "outputs": [
        {
          "internalType": "bytes32",
          "name": "",
          "type": "bytes32"
        }
      ],
      "stateMutability": "view",
      "type": "function"
    },
    {
      "inputs": [
        {
          "internalType": "bytes32",
          "name": "role",
          "type": "bytes32"
        },
        {
          "internalType": "address",
          "name": "account",
          "type": "address"
        }
      ],
      "name": "grantRole",
      "outputs": [],
      "stateMutability": "nonpayable",
      "type": "function"
    },
    {
      "inputs": [
        {
          "internalType": "bytes32",
          "name": "role",
          "type": "bytes32"
        },
        {
          "internalType": "address",
          "name": "account",
          "type": "address"
        }
      ],
      "name": "hasRole",
      "outputs": [
        {
          "internalType": "bool",
          "name": "",
          "type": "bool"
        }
      ],
      "stateMutability": "view",
      "type": "function"
    },
    {
      "inputs": [],
      "name": "ksd",
      "outputs": [
        {
          "internalType": "contract IKIP7",
          "name": "",
          "type": "address"
        }
      ],
      "stateMutability": "view",
      "type": "function"
    },
    {
      "inputs": [],
      "name": "ksdRefundManager",
      "outputs": [
        {
          "internalType": "contract IKsdRefundManager",
          "name": "",
          "type": "address"
        }
      ],
      "stateMutability": "view",
      "type": "function"
    },
    {
      "inputs": [],
      "name": "ksdRewardManager",
      "outputs": [
        {
          "internalType": "contract IDistributor",
          "name": "",
          "type": "address"
        }
      ],
      "stateMutability": "view",
      "type": "function"
    },
    {
      "inputs": [],
      "name": "pause",
      "outputs": [],
      "stateMutability": "nonpayable",
      "type": "function"
    },
    {
      "inputs": [],
      "name": "paused",
      "outputs": [
        {
          "internalType": "bool",
          "name": "",
          "type": "bool"
        }
      ],
      "stateMutability": "view",
      "type": "function"
    },
    {
      "inputs": [
        {
          "internalType": "bytes32",
          "name": "role",
          "type": "bytes32"
        },
        {
          "internalType": "address",
          "name": "account",
          "type": "address"
        }
      ],
      "name": "renounceRole",
      "outputs": [],
      "stateMutability": "nonpayable",
      "type": "function"
    },
    {
      "inputs": [
        {
          "internalType": "bytes32",
          "name": "role",
          "type": "bytes32"
        },
        {
          "internalType": "address",
          "name": "account",
          "type": "address"
        }
      ],
      "name": "revokeRole",
      "outputs": [],
      "stateMutability": "nonpayable",
      "type": "function"
    },
    {
      "inputs": [],
      "name": "sortedYieldList",
      "outputs": [
        {
          "internalType": "address[]",
          "name": "",
          "type": "address[]"
        }
      ],
      "stateMutability": "view",
      "type": "function"
    },
    {
      "inputs": [
        {
          "internalType": "uint256",
          "name": "tokenAmount",
          "type": "uint256"
        }
      ],
      "name": "stake",
      "outputs": [],
      "stateMutability": "nonpayable",
      "type": "function"
    },
    {
      "inputs": [],
      "name": "token",
      "outputs": [
        {
          "internalType": "address",
          "name": "",
          "type": "address"
        }
      ],
      "stateMutability": "view",
      "type": "function"
    },
    {
      "inputs": [],
      "name": "totalAmount",
      "outputs": [
        {
          "internalType": "uint256",
          "name": "",
          "type": "uint256"
        }
      ],
      "stateMutability": "view",
      "type": "function"
    },
    {
      "inputs": [],
      "name": "totalValue",
      "outputs": [
        {
          "internalType": "uint256",
          "name": "",
          "type": "uint256"
        }
      ],
      "stateMutability": "view",
      "type": "function"
    },
    {
      "inputs": [
        {
          "internalType": "address",
          "name": "newOwner",
          "type": "address"
        }
      ],
      "name": "transferOwnership",
      "outputs": [],
      "stateMutability": "nonpayable",
      "type": "function"
    },
    {
      "inputs": [],
      "name": "unpause",
      "outputs": [],
      "stateMutability": "nonpayable",
      "type": "function"
    },
    {
      "inputs": [
        {
          "internalType": "uint256",
          "name": "tokenAmount",
          "type": "uint256"
        }
      ],
      "name": "unstake",
      "outputs": [],
      "stateMutability": "nonpayable",
      "type": "function"
    },
    {
      "inputs": [],
      "name": "yield",
      "outputs": [
        {
          "internalType": "address",
          "name": "",
          "type": "address"
        }
      ],
      "stateMutability": "view",
      "type": "function"
    },
    {
      "inputs": [],
      "name": "yieldManager",
      "outputs": [
        {
          "internalType": "contract IYieldManager",
          "name": "",
          "type": "address"
        }
      ],
      "stateMutability": "view",
      "type": "function"
    }
  ],
  "transactionHash": "0x6740583cd2336ea5b2cd6da0132e1589e3be9b863e16387e9043112449e59c15",
  "args": [],
  "solcInputHash": "daac9cba34dfabe5953ff704314717f0",
  "bytecode": "0x608060405234801561001057600080fd5b50611964806100206000396000f3fe608060405234801561001057600080fd5b506004361061018e5760003560e01c806380b7af18116100de578063d05f707111610097578063d547741f11610071578063d547741f14610323578063f2fde38b14610336578063fb802ba714610193578063fc0c546a146103495761018e565b8063d05f7071146102f5578063d366f3b914610308578063d4c3eea01461031b5761018e565b806380b7af18146102945780638456cb59146102a757806391d14854146102af578063a217fddf146102c2578063a694fc3a146102ca578063a6d5f103146102dd5761018e565b80632f2ff15d1161014b57806352e7fd611161012557806352e7fd611461024d5780635c975abb146102555780635cafb9d31461026c57806371ccecb6146102815761018e565b80632f2ff15d1461021f57806336568abe146102325780633f4ba83a146102455761018e565b8063123713f1146101935780631a39d8ef1461019d578063248a9ca3146101b857806328593984146101cb5780632c214c9d146101f65780632e17de781461020c575b600080fd5b61019b61035c565b005b6101a56103e3565b6040519081526020015b60405180910390f35b6101a56101c63660046117d8565b6104ba565b6006546101de906001600160a01b031681565b6040516001600160a01b0390911681526020016101af565b6c12d4d31412d1551212d554d115609a1b6101a5565b61019b61021a3660046117d8565b6104d3565b61019b61022d3660046117f0565b61075f565b61019b6102403660046117f0565b61077c565b61019b6107fa565b61019b610898565b60025460ff165b60405190151581526020016101af565b610274610b55565b6040516101af9190611833565b6003546101de906001600160a01b031681565b6007546101de906001600160a01b031681565b61019b610e36565b61025c6102bd3660046117f0565b610ecd565b6101a5600081565b61019b6102d83660046117d8565b610ef8565b6002546101de9061010090046001600160a01b031681565b6004546101de906001600160a01b031681565b61019b6103163660046117f0565b611091565b6101a5611286565b61019b6103313660046117f0565b611356565b61019b610344366004611797565b611373565b6005546101de906001600160a01b031681565b600054610100900460ff16806103715750303b155b8061037f575060005460ff16155b6103a45760405162461bcd60e51b815260040161039b90611880565b60405180910390fd5b600054610100900460ff161580156103c6576000805461ffff19166101011790555b6103ce6113a9565b80156103e0576000805461ff00191690555b50565b6000806103ee611440565b90506000805b82518110156104b35782818151811061041d57634e487b7160e01b600052603260045260246000fd5b60200260200101516001600160a01b0316631a39d8ef6040518163ffffffff1660e01b815260040160206040518083038186803b15801561045d57600080fd5b505afa158015610471573d6000803e3d6000fd5b505050506040513d601f19601f82011682018060405250810190610495919061181b565b61049f90836118ce565b9150806104ab816118fd565b9150506103f4565b5091505090565b600081815260016020819052604090912001545b919050565b6104e56430b236b4b760d91b336114b1565b60006104ef610b55565b90508160005b825181101561070b57816105085761070b565b600083828151811061052a57634e487b7160e01b600052603260045260246000fd5b6020026020010151905082816001600160a01b0316631a39d8ef6040518163ffffffff1660e01b815260040160206040518083038186803b15801561056e57600080fd5b505afa158015610582573d6000803e3d6000fd5b505050506040513d601f19601f820116820180604052508101906105a6919061181b565b10610618576040516305c2fbcf60e31b8152600481018490526001600160a01b03821690632e17de7890602401600060405180830381600087803b1580156105ed57600080fd5b505af1158015610601573d6000803e3d6000fd5b50505050828361061191906118e6565b92506106f8565b6000816001600160a01b0316631a39d8ef6040518163ffffffff1660e01b815260040160206040518083038186803b15801561065357600080fd5b505afa158015610667573d6000803e3d6000fd5b505050506040513d601f19601f8201168201806040525081019061068b919061181b565b6040516305c2fbcf60e31b8152600481018290529091506001600160a01b03831690632e17de7890602401600060405180830381600087803b1580156106d057600080fd5b505af11580156106e4573d6000803e3d6000fd5b5050505080846106f491906118e6565b9350505b5080610703816118fd565b9150506104f5565b50801561075a5760405162461bcd60e51b815260206004820152601f60248201527f426173655969656c64466163746f72793a3a756e7374616b653a206661696c00604482015260640161039b565b505050565b610768826104ba565b61077281336114b1565b61075a8383611515565b6001600160a01b03811633146107ec5760405162461bcd60e51b815260206004820152602f60248201527f416363657373436f6e74726f6c3a2063616e206f6e6c792072656e6f756e636560448201526e103937b632b9903337b91039b2b63360891b606482015260840161039b565b6107f68282611580565b5050565b60025460ff166108435760405162461bcd60e51b815260206004820152601460248201527314185d5cd8589b194e881b9bdd081c185d5cd95960621b604482015260640161039b565b653830bab9b2b960d11b61085781336114b1565b6002805460ff191690556040513381527f5db9ee0a495bf2e6ff9c91a7834c1ba4fdd244a5e8aa4e537bd38aeae4b073aa906020015b60405180910390a150565b60006108a2611440565b90506000805b8251811015610a455760008382815181106108d357634e487b7160e01b600052603260045260246000fd5b60200260200101516001600160a01b031663cf712f6f6040518163ffffffff1660e01b8152600401602060405180830381600087803b15801561091557600080fd5b505af1158015610929573d6000803e3d6000fd5b505050506040513d601f19601f8201168201806040525081019061094d919061181b565b9050600260019054906101000a90046001600160a01b03166001600160a01b03166323b872dd85848151811061099357634e487b7160e01b600052603260045260246000fd5b60209081029190910101516040516001600160e01b031960e084901b1681526001600160a01b03909116600482015230602482015260448101849052606401602060405180830381600087803b1580156109ec57600080fd5b505af1158015610a00573d6000803e3d6000fd5b505050506040513d601f19601f82011682018060405250810190610a2491906117b8565b50610a2f81846118ce565b9250508080610a3d906118fd565b9150506108a8565b5060006c12d4d31412d1551212d554d115609a1b60025460075460405163095ea7b360e01b81526001600160a01b03918216600482015260248101869052929350610100909104169063095ea7b390604401602060405180830381600087803b158015610ab157600080fd5b505af1158015610ac5573d6000803e3d6000fd5b505050506040513d601f19601f82011682018060405250810190610ae991906117b8565b5060075460405163eae1c14d60e01b815260048101839052602481018490526001600160a01b039091169063eae1c14d906044015b600060405180830381600087803b158015610b3857600080fd5b505af1158015610b4c573d6000803e3d6000fd5b50505050505050565b6040805160018082528183019092526060916000919060208083019080368337505060065482519293506001600160a01b031691839150600090610ba957634e487b7160e01b600052603260045260246000fd5b60200260200101906001600160a01b031690816001600160a01b03168152505060005b8151811015610e30576000828281518110610bf757634e487b7160e01b600052603260045260246000fd5b60200260200101516001600160a01b031663df63c8b66040518163ffffffff1660e01b815260040160206040518083038186803b158015610c3757600080fd5b505afa158015610c4b573d6000803e3d6000fd5b505050506040513d601f19601f82011682018060405250810190610c6f919061181b565b90506000610c7e8360016118ce565b90505b8351811015610e1b576000848281518110610cac57634e487b7160e01b600052603260045260246000fd5b60200260200101516001600160a01b031663df63c8b66040518163ffffffff1660e01b815260040160206040518083038186803b158015610cec57600080fd5b505afa158015610d00573d6000803e3d6000fd5b505050506040513d601f19601f82011682018060405250810190610d24919061181b565b905080831115610e08578092506000858381518110610d5357634e487b7160e01b600052603260045260246000fd5b60200260200101519050858581518110610d7d57634e487b7160e01b600052603260045260246000fd5b6020026020010151868481518110610da557634e487b7160e01b600052603260045260246000fd5b60200260200101906001600160a01b031690816001600160a01b03168152505080868681518110610de657634e487b7160e01b600052603260045260246000fd5b60200260200101906001600160a01b031690816001600160a01b031681525050505b5080610e13816118fd565b915050610c81565b50508080610e28906118fd565b915050610bcc565b50905090565b60025460ff1615610e7c5760405162461bcd60e51b815260206004820152601060248201526f14185d5cd8589b194e881c185d5cd95960821b604482015260640161039b565b653830bab9b2b960d11b610e9081336114b1565b6002805460ff191660011790556040513381527f62e78cea01bee320cd4e420270b5ea74000d11b0c9f74754ebdbfc544b05a2589060200161088d565b60009182526001602090815260408084206001600160a01b0393909316845291905290205460ff1690565b610f0a6430b236b4b760d91b336114b1565b6005546040516323b872dd60e01b8152336004820152306024820152604481018390526001600160a01b03909116906323b872dd90606401602060405180830381600087803b158015610f5c57600080fd5b505af1158015610f70573d6000803e3d6000fd5b505050506040513d601f19601f82011682018060405250810190610f9491906117b8565b5060055460065460405163095ea7b360e01b81526001600160a01b0391821660048201526024810184905291169063095ea7b390604401602060405180830381600087803b158015610fe557600080fd5b505af1158015610ff9573d6000803e3d6000fd5b505050506040513d601f19601f8201168201806040525081019061101d91906117b8565b506000611028610b55565b90506000816001835161103b91906118e6565b8151811061105957634e487b7160e01b600052603260045260246000fd5b60200260200101519050806001600160a01b031663a694fc3a846040518263ffffffff1660e01b8152600401610b1e91815260200190565b6110a36430b236b4b760d91b336114b1565b60025460ff16156110e95760405162461bcd60e51b815260206004820152601060248201526f14185d5cd8589b194e881c185d5cd95960821b604482015260640161039b565b81621adcd960ea1b141561111c5760028054610100600160a81b0319166101006001600160a01b038416021790556107f6565b816f35b9b22932b33ab73226b0b730b3b2b960811b141561115757600380546001600160a01b0319166001600160a01b0383161790556107f6565b816f35b9b22932bbb0b93226b0b730b3b2b960811b141561119257600480546001600160a01b0319166001600160a01b0383161790556107f6565b81643a37b5b2b760d91b14156111c257600580546001600160a01b0319166001600160a01b0383161790556107f6565b81641e5a595b1960da1b14156111f257600680546001600160a01b0319166001600160a01b0383161790556107f6565b816b3cb4b2b63226b0b730b3b2b960a11b141561122957600780546001600160a01b0319166001600160a01b0383161790556107f6565b60405162461bcd60e51b815260206004820152602c60248201527f426173655969656c64466163746f72793a3a636f6e6669673a20756e7265636f60448201526b676e697a65642d706172616d60a01b606482015260840161039b565b600080611291611440565b90506000805b82518110156104b3578281815181106112c057634e487b7160e01b600052603260045260246000fd5b60200260200101516001600160a01b031663d4c3eea06040518163ffffffff1660e01b815260040160206040518083038186803b15801561130057600080fd5b505afa158015611314573d6000803e3d6000fd5b505050506040513d601f19601f82011682018060405250810190611338919061181b565b61134290836118ce565b91508061134e816118fd565b915050611297565b61135f826104ba565b61136981336114b1565b61075a8383611580565b6113856437bbb732b960d91b336114b1565b6113976437bbb732b960d91b82611515565b6103e06437bbb732b960d91b33611580565b600054610100900460ff16806113be5750303b155b806113cc575060005460ff16155b6113e85760405162461bcd60e51b815260040161039b90611880565b600054610100900460ff1615801561140a576000805461ffff19166101011790555b6114126115e7565b61142d653830bab9b2b960d11b6437bbb732b960d91b611650565b6103ce653830bab9b2b960d11b336116a5565b6040805160018082528183019092526060916000919060208083019080368337505060065482519293506001600160a01b03169183915060009061149457634e487b7160e01b600052603260045260246000fd5b6001600160a01b0390921660209283029190910190910152905090565b6114bb8282610ecd565b6107f65760405162461bcd60e51b815260206004820152602560248201527f416363657373436f6e74726f6c3a5f636865636b526f6c653a696e76616c696460448201526420726f6c6560d81b606482015260840161039b565b61151f8282610ecd565b6107f65760008281526001602081815260408084206001600160a01b0386168086529252808420805460ff19169093179092559051339285917f2f8788117e7eff1d82e926ec794901d17c78024a50270940304540a733656f0d9190a45050565b61158a8282610ecd565b156107f65760008281526001602090815260408083206001600160a01b0385168085529252808320805460ff1916905551339285917ff6391f5c32d9c69d2a47ea670b442974b53935d1edc7fd64eb21e047a839171b9190a45050565b600054610100900460ff16806115fc5750303b155b8061160a575060005460ff16155b6116265760405162461bcd60e51b815260040161039b90611880565b600054610100900460ff16158015611648576000805461ffff19166101011790555b6103ce6116af565b600061165b836104ba565b6000848152600160208190526040808320909101859055519192508391839186917fbd79b86ffe0ab8e8776151514217cd7cacd52c909f66475c3af44e129f0b00ff9190a4505050565b6107f68282611515565b600054610100900460ff16806116c45750303b155b806116d2575060005460ff16155b6116ee5760405162461bcd60e51b815260040161039b90611880565b600054610100900460ff16158015611710576000805461ffff19166101011790555b6117226437bbb732b960d91b336116a5565b61173c6430b236b4b760d91b6437bbb732b960d91b611650565b6117596737b832b930ba37b960c11b6437bbb732b960d91b611650565b61176b6430b236b4b760d91b336116a5565b6103ce6737b832b930ba37b960c11b336116a5565b80356001600160a01b03811681146104ce57600080fd5b6000602082840312156117a8578081fd5b6117b182611780565b9392505050565b6000602082840312156117c9578081fd5b815180151581146117b1578182fd5b6000602082840312156117e9578081fd5b5035919050565b60008060408385031215611802578081fd5b8235915061181260208401611780565b90509250929050565b60006020828403121561182c578081fd5b5051919050565b6020808252825182820181905260009190848201906040850190845b818110156118745783516001600160a01b03168352928401929184019160010161184f565b50909695505050505050565b6020808252602e908201527f496e697469616c697a61626c653a20636f6e747261637420697320616c72656160408201526d191e481a5b9a5d1a585b1a5e995960921b606082015260800190565b600082198211156118e1576118e1611918565b500190565b6000828210156118f8576118f8611918565b500390565b600060001982141561191157611911611918565b5060010190565b634e487b7160e01b600052601160045260246000fdfea2646970667358221220144eadc50a1a5fff3421e55161c2386152dba15627bc9bb34484b86f26d3bb2664736f6c63430008030033",
  "devdoc": {
    "details": "Independent strategies are called yield.",
    "kind": "dev",
    "methods": {
      "stake(uint256)": {
        "params": {
          "tokenAmount": "Amount of token to stake"
        }
      },
      "unstake(uint256)": {
        "params": {
          "tokenAmount": "Amount of token to unstake"
        }
      }
    },
    "title": "Management of strategies to operate the deposited token.",
    "version": 1
  },
  "userdoc": {
    "kind": "user",
    "methods": {
      "applyProfitAll()": {
        "notice": "In all yields, call claimReward function."
      },
      "stake(uint256)": {
        "notice": "Add collateral to staking yield"
      },
      "unstake(uint256)": {
        "notice": "Remove token from yield."
      }
    },
    "notice": "Each strategy can stake token.",
    "version": 1
  },
  "storageLayout": {
    "storage": [
      {
        "astId": 23220,
        "contract": "contracts/collateral/KSLPKETHKUSDT/KSLPKETHKUSDTYieldFactory.sol:KSLPKETHKUSDTYieldFactory",
        "label": "_initialized",
        "offset": 0,
        "slot": "0",
        "type": "t_bool"
      },
      {
        "astId": 23223,
        "contract": "contracts/collateral/KSLPKETHKUSDT/KSLPKETHKUSDTYieldFactory.sol:KSLPKETHKUSDTYieldFactory",
        "label": "_initializing",
        "offset": 1,
        "slot": "0",
        "type": "t_bool"
      },
      {
        "astId": 20166,
        "contract": "contracts/collateral/KSLPKETHKUSDT/KSLPKETHKUSDTYieldFactory.sol:KSLPKETHKUSDTYieldFactory",
        "label": "_roles",
        "offset": 0,
        "slot": "1",
        "type": "t_mapping(t_bytes32,t_struct(RoleData)20161_storage)"
      },
      {
        "astId": 20556,
        "contract": "contracts/collateral/KSLPKETHKUSDT/KSLPKETHKUSDTYieldFactory.sol:KSLPKETHKUSDTYieldFactory",
        "label": "_paused",
        "offset": 0,
        "slot": "2",
        "type": "t_bool"
      },
      {
        "astId": 39294,
        "contract": "contracts/collateral/KSLPKETHKUSDT/KSLPKETHKUSDTYieldFactory.sol:KSLPKETHKUSDTYieldFactory",
        "label": "ksd",
        "offset": 1,
        "slot": "2",
        "type": "t_contract(IKIP7)9881"
      },
      {
        "astId": 39297,
        "contract": "contracts/collateral/KSLPKETHKUSDT/KSLPKETHKUSDTYieldFactory.sol:KSLPKETHKUSDTYieldFactory",
        "label": "ksdRefundManager",
        "offset": 0,
        "slot": "3",
        "type": "t_contract(IKsdRefundManager)8504"
      },
      {
        "astId": 39300,
        "contract": "contracts/collateral/KSLPKETHKUSDT/KSLPKETHKUSDTYieldFactory.sol:KSLPKETHKUSDTYieldFactory",
        "label": "ksdRewardManager",
        "offset": 0,
        "slot": "4",
        "type": "t_contract(IDistributor)7358"
      },
      {
        "astId": 39303,
        "contract": "contracts/collateral/KSLPKETHKUSDT/KSLPKETHKUSDTYieldFactory.sol:KSLPKETHKUSDTYieldFactory",
        "label": "token",
        "offset": 0,
        "slot": "5",
        "type": "t_address"
      },
      {
        "astId": 39305,
        "contract": "contracts/collateral/KSLPKETHKUSDT/KSLPKETHKUSDTYieldFactory.sol:KSLPKETHKUSDTYieldFactory",
        "label": "yield",
        "offset": 0,
        "slot": "6",
        "type": "t_address"
      },
      {
        "astId": 39308,
        "contract": "contracts/collateral/KSLPKETHKUSDT/KSLPKETHKUSDTYieldFactory.sol:KSLPKETHKUSDTYieldFactory",
        "label": "yieldManager",
        "offset": 0,
        "slot": "7",
        "type": "t_contract(IYieldManager)9728"
      }
    ],
    "types": {
      "t_address": {
        "encoding": "inplace",
        "label": "address",
        "numberOfBytes": "20"
      },
      "t_bool": {
        "encoding": "inplace",
        "label": "bool",
        "numberOfBytes": "1"
      },
      "t_bytes32": {
        "encoding": "inplace",
        "label": "bytes32",
        "numberOfBytes": "32"
      },
      "t_contract(IDistributor)7358": {
        "encoding": "inplace",
        "label": "contract IDistributor",
        "numberOfBytes": "20"
      },
      "t_contract(IKIP7)9881": {
        "encoding": "inplace",
        "label": "contract IKIP7",
        "numberOfBytes": "20"
      },
      "t_contract(IKsdRefundManager)8504": {
        "encoding": "inplace",
        "label": "contract IKsdRefundManager",
        "numberOfBytes": "20"
      },
      "t_contract(IYieldManager)9728": {
        "encoding": "inplace",
        "label": "contract IYieldManager",
        "numberOfBytes": "20"
      },
      "t_mapping(t_address,t_bool)": {
        "encoding": "mapping",
        "key": "t_address",
        "label": "mapping(address => bool)",
        "numberOfBytes": "32",
        "value": "t_bool"
      },
      "t_mapping(t_bytes32,t_struct(RoleData)20161_storage)": {
        "encoding": "mapping",
        "key": "t_bytes32",
        "label": "mapping(bytes32 => struct AccessControl.RoleData)",
        "numberOfBytes": "32",
        "value": "t_struct(RoleData)20161_storage"
      },
      "t_struct(RoleData)20161_storage": {
        "encoding": "inplace",
        "label": "struct AccessControl.RoleData",
        "members": [
          {
            "astId": 20158,
            "contract": "contracts/collateral/KSLPKETHKUSDT/KSLPKETHKUSDTYieldFactory.sol:KSLPKETHKUSDTYieldFactory",
            "label": "members",
            "offset": 0,
            "slot": "0",
            "type": "t_mapping(t_address,t_bool)"
          },
          {
            "astId": 20160,
            "contract": "contracts/collateral/KSLPKETHKUSDT/KSLPKETHKUSDTYieldFactory.sol:KSLPKETHKUSDTYieldFactory",
            "label": "adminRole",
            "offset": 0,
            "slot": "1",
            "type": "t_bytes32"
          }
        ],
        "numberOfBytes": "64"
      }
    }
  }
}