{
  "address": "0x5ED111bd8DFd184DA4ed83Ebad49c305c6E3E0E7",
  "abi": [
    {
      "anonymous": false,
      "inputs": [
        {
          "indexed": false,
          "internalType": "address",
          "name": "account",
          "type": "address"
        }
      ],
      "name": "Paused",
      "type": "event"
    },
    {
      "anonymous": false,
      "inputs": [
        {
          "indexed": true,
          "internalType": "bytes32",
          "name": "role",
          "type": "bytes32"
        },
        {
          "indexed": true,
          "internalType": "bytes32",
          "name": "previousAdminRole",
          "type": "bytes32"
        },
        {
          "indexed": true,
          "internalType": "bytes32",
          "name": "newAdminRole",
          "type": "bytes32"
        }
      ],
      "name": "RoleAdminChanged",
      "type": "event"
    },
    {
      "anonymous": false,
      "inputs": [
        {
          "indexed": true,
          "internalType": "bytes32",
          "name": "role",
          "type": "bytes32"
        },
        {
          "indexed": true,
          "internalType": "address",
          "name": "account",
          "type": "address"
        },
        {
          "indexed": true,
          "internalType": "address",
          "name": "sender",
          "type": "address"
        }
      ],
      "name": "RoleGranted",
      "type": "event"
    },
    {
      "anonymous": false,
      "inputs": [
        {
          "indexed": true,
          "internalType": "bytes32",
          "name": "role",
          "type": "bytes32"
        },
        {
          "indexed": true,
          "internalType": "address",
          "name": "account",
          "type": "address"
        },
        {
          "indexed": true,
          "internalType": "address",
          "name": "sender",
          "type": "address"
        }
      ],
      "name": "RoleRevoked",
      "type": "event"
    },
    {
      "anonymous": false,
      "inputs": [
        {
          "indexed": false,
          "internalType": "address",
          "name": "account",
          "type": "address"
        }
      ],
      "name": "Unpaused",
      "type": "event"
    },
    {
      "inputs": [],
      "name": "COLLATERAL_TYPE",
      "outputs": [
        {
          "internalType": "bytes32",
          "name": "",
          "type": "bytes32"
        }
      ],
      "stateMutability": "view",
      "type": "function"
    },
    {
      "inputs": [],
      "name": "DEFAULT_ADMIN_ROLE",
      "outputs": [
        {
          "internalType": "bytes32",
          "name": "",
          "type": "bytes32"
        }
      ],
      "stateMutability": "view",
      "type": "function"
    },
    {
      "inputs": [],
      "name": "__BaseYieldFactory_init",
      "outputs": [],
      "stateMutability": "nonpayable",
      "type": "function"
    },
    {
      "inputs": [],
      "name": "__KSPYieldFactory_init",
      "outputs": [],
      "stateMutability": "nonpayable",
      "type": "function"
    },
    {
      "inputs": [],
      "name": "applyProfitAll",
      "outputs": [],
      "stateMutability": "nonpayable",
      "type": "function"
    },
    {
      "inputs": [
        {
          "internalType": "bytes32",
          "name": "what",
          "type": "bytes32"
        },
        {
          "internalType": "address",
          "name": "data",
          "type": "address"
        }
      ],
      "name": "config",
      "outputs": [],
      "stateMutability": "nonpayable",
      "type": "function"
    },
    {
      "inputs": [
        {
          "internalType": "bytes32",
          "name": "role",
          "type": "bytes32"
        }
      ],
      "name": "getRoleAdmin",
      "outputs": [
        {
          "internalType": "bytes32",
          "name": "",
          "type": "bytes32"
        }
      ],
      "stateMutability": "view",
      "type": "function"
    },
    {
      "inputs": [
        {
          "internalType": "bytes32",
          "name": "role",
          "type": "bytes32"
        },
        {
          "internalType": "address",
          "name": "account",
          "type": "address"
        }
      ],
      "name": "grantRole",
      "outputs": [],
      "stateMutability": "nonpayable",
      "type": "function"
    },
    {
      "inputs": [
        {
          "internalType": "bytes32",
          "name": "role",
          "type": "bytes32"
        },
        {
          "internalType": "address",
          "name": "account",
          "type": "address"
        }
      ],
      "name": "hasRole",
      "outputs": [
        {
          "internalType": "bool",
          "name": "",
          "type": "bool"
        }
      ],
      "stateMutability": "view",
      "type": "function"
    },
    {
      "inputs": [],
      "name": "ksd",
      "outputs": [
        {
          "internalType": "contract IKIP7",
          "name": "",
          "type": "address"
        }
      ],
      "stateMutability": "view",
      "type": "function"
    },
    {
      "inputs": [],
      "name": "ksdRefundManager",
      "outputs": [
        {
          "internalType": "contract IKsdRefundManager",
          "name": "",
          "type": "address"
        }
      ],
      "stateMutability": "view",
      "type": "function"
    },
    {
      "inputs": [],
      "name": "ksdRewardManager",
      "outputs": [
        {
          "internalType": "contract IDistributor",
          "name": "",
          "type": "address"
        }
      ],
      "stateMutability": "view",
      "type": "function"
    },
    {
      "inputs": [],
      "name": "pause",
      "outputs": [],
      "stateMutability": "nonpayable",
      "type": "function"
    },
    {
      "inputs": [],
      "name": "paused",
      "outputs": [
        {
          "internalType": "bool",
          "name": "",
          "type": "bool"
        }
      ],
      "stateMutability": "view",
      "type": "function"
    },
    {
      "inputs": [
        {
          "internalType": "bytes32",
          "name": "role",
          "type": "bytes32"
        },
        {
          "internalType": "address",
          "name": "account",
          "type": "address"
        }
      ],
      "name": "renounceRole",
      "outputs": [],
      "stateMutability": "nonpayable",
      "type": "function"
    },
    {
      "inputs": [
        {
          "internalType": "bytes32",
          "name": "role",
          "type": "bytes32"
        },
        {
          "internalType": "address",
          "name": "account",
          "type": "address"
        }
      ],
      "name": "revokeRole",
      "outputs": [],
      "stateMutability": "nonpayable",
      "type": "function"
    },
    {
      "inputs": [],
      "name": "sortedYieldList",
      "outputs": [
        {
          "internalType": "address[]",
          "name": "",
          "type": "address[]"
        }
      ],
      "stateMutability": "view",
      "type": "function"
    },
    {
      "inputs": [
        {
          "internalType": "uint256",
          "name": "tokenAmount",
          "type": "uint256"
        }
      ],
      "name": "stake",
      "outputs": [],
      "stateMutability": "nonpayable",
      "type": "function"
    },
    {
      "inputs": [],
      "name": "token",
      "outputs": [
        {
          "internalType": "address",
          "name": "",
          "type": "address"
        }
      ],
      "stateMutability": "view",
      "type": "function"
    },
    {
      "inputs": [],
      "name": "totalAmount",
      "outputs": [
        {
          "internalType": "uint256",
          "name": "",
          "type": "uint256"
        }
      ],
      "stateMutability": "view",
      "type": "function"
    },
    {
      "inputs": [],
      "name": "totalValue",
      "outputs": [
        {
          "internalType": "uint256",
          "name": "",
          "type": "uint256"
        }
      ],
      "stateMutability": "view",
      "type": "function"
    },
    {
      "inputs": [
        {
          "internalType": "address",
          "name": "newOwner",
          "type": "address"
        }
      ],
      "name": "transferOwnership",
      "outputs": [],
      "stateMutability": "nonpayable",
      "type": "function"
    },
    {
      "inputs": [],
      "name": "unpause",
      "outputs": [],
      "stateMutability": "nonpayable",
      "type": "function"
    },
    {
      "inputs": [
        {
          "internalType": "uint256",
          "name": "tokenAmount",
          "type": "uint256"
        }
      ],
      "name": "unstake",
      "outputs": [],
      "stateMutability": "nonpayable",
      "type": "function"
    },
    {
      "inputs": [],
      "name": "yield",
      "outputs": [
        {
          "internalType": "address",
          "name": "",
          "type": "address"
        }
      ],
      "stateMutability": "view",
      "type": "function"
    },
    {
      "inputs": [],
      "name": "yieldManager",
      "outputs": [
        {
          "internalType": "contract IYieldManager",
          "name": "",
          "type": "address"
        }
      ],
      "stateMutability": "view",
      "type": "function"
    }
  ],
  "transactionHash": "0x277aa7e965a6ba55ed5a5ac890b53e2214d0f487b1a00378bb4126205055c5d2",
  "args": [],
  "solcInputHash": "daac9cba34dfabe5953ff704314717f0",
  "bytecode": "0x608060405234801561001057600080fd5b50611950806100206000396000f3fe608060405234801561001057600080fd5b506004361061018e5760003560e01c806380b7af18116100de578063bbd42ec711610097578063d4c3eea011610071578063d4c3eea014610311578063d547741f14610319578063f2fde38b1461032c578063fc0c546a1461033f5761018e565b8063bbd42ec714610193578063d05f7071146102eb578063d366f3b9146102fe5761018e565b806380b7af181461028a5780638456cb591461029d57806391d14854146102a5578063a217fddf146102b8578063a694fc3a146102c0578063a6d5f103146102d35761018e565b80632f2ff15d1161014b57806352e7fd611161012557806352e7fd61146102435780635c975abb1461024b5780635cafb9d31461026257806371ccecb6146102775761018e565b80632f2ff15d1461021557806336568abe146102285780633f4ba83a1461023b5761018e565b8063123713f1146101935780631a39d8ef1461019d578063248a9ca3146101b857806328593984146101cb5780632c214c9d146101f65780632e17de7814610202575b600080fd5b61019b610352565b005b6101a56103d9565b6040519081526020015b60405180910390f35b6101a56101c63660046117c4565b6104b0565b6006546101de906001600160a01b031681565b6040516001600160a01b0390911681526020016101af565b6204b53560ec1b6101a5565b61019b6102103660046117c4565b6104c9565b61019b6102233660046117dc565b610755565b61019b6102363660046117dc565b610772565b61019b6107f0565b61019b61088e565b60025460ff165b60405190151581526020016101af565b61026a610b41565b6040516101af919061181f565b6003546101de906001600160a01b031681565b6007546101de906001600160a01b031681565b61019b610e22565b6102526102b33660046117dc565b610eb9565b6101a5600081565b61019b6102ce3660046117c4565b610ee4565b6002546101de9061010090046001600160a01b031681565b6004546101de906001600160a01b031681565b61019b61030c3660046117dc565b61107d565b6101a5611272565b61019b6103273660046117dc565b611342565b61019b61033a366004611783565b61135f565b6005546101de906001600160a01b031681565b600054610100900460ff16806103675750303b155b80610375575060005460ff16155b61039a5760405162461bcd60e51b81526004016103919061186c565b60405180910390fd5b600054610100900460ff161580156103bc576000805461ffff19166101011790555b6103c4611395565b80156103d6576000805461ff00191690555b50565b6000806103e461142c565b90506000805b82518110156104a95782818151811061041357634e487b7160e01b600052603260045260246000fd5b60200260200101516001600160a01b0316631a39d8ef6040518163ffffffff1660e01b815260040160206040518083038186803b15801561045357600080fd5b505afa158015610467573d6000803e3d6000fd5b505050506040513d601f19601f8201168201806040525081019061048b9190611807565b61049590836118ba565b9150806104a1816118e9565b9150506103ea565b5091505090565b600081815260016020819052604090912001545b919050565b6104db6430b236b4b760d91b3361149d565b60006104e5610b41565b90508160005b825181101561070157816104fe57610701565b600083828151811061052057634e487b7160e01b600052603260045260246000fd5b6020026020010151905082816001600160a01b0316631a39d8ef6040518163ffffffff1660e01b815260040160206040518083038186803b15801561056457600080fd5b505afa158015610578573d6000803e3d6000fd5b505050506040513d601f19601f8201168201806040525081019061059c9190611807565b1061060e576040516305c2fbcf60e31b8152600481018490526001600160a01b03821690632e17de7890602401600060405180830381600087803b1580156105e357600080fd5b505af11580156105f7573d6000803e3d6000fd5b50505050828361060791906118d2565b92506106ee565b6000816001600160a01b0316631a39d8ef6040518163ffffffff1660e01b815260040160206040518083038186803b15801561064957600080fd5b505afa15801561065d573d6000803e3d6000fd5b505050506040513d601f19601f820116820180604052508101906106819190611807565b6040516305c2fbcf60e31b8152600481018290529091506001600160a01b03831690632e17de7890602401600060405180830381600087803b1580156106c657600080fd5b505af11580156106da573d6000803e3d6000fd5b5050505080846106ea91906118d2565b9350505b50806106f9816118e9565b9150506104eb565b5080156107505760405162461bcd60e51b815260206004820152601f60248201527f426173655969656c64466163746f72793a3a756e7374616b653a206661696c006044820152606401610391565b505050565b61075e826104b0565b610768813361149d565b6107508383611501565b6001600160a01b03811633146107e25760405162461bcd60e51b815260206004820152602f60248201527f416363657373436f6e74726f6c3a2063616e206f6e6c792072656e6f756e636560448201526e103937b632b9903337b91039b2b63360891b6064820152608401610391565b6107ec828261156c565b5050565b60025460ff166108395760405162461bcd60e51b815260206004820152601460248201527314185d5cd8589b194e881b9bdd081c185d5cd95960621b6044820152606401610391565b653830bab9b2b960d11b61084d813361149d565b6002805460ff191690556040513381527f5db9ee0a495bf2e6ff9c91a7834c1ba4fdd244a5e8aa4e537bd38aeae4b073aa906020015b60405180910390a150565b600061089861142c565b90506000805b8251811015610a3b5760008382815181106108c957634e487b7160e01b600052603260045260246000fd5b60200260200101516001600160a01b031663cf712f6f6040518163ffffffff1660e01b8152600401602060405180830381600087803b15801561090b57600080fd5b505af115801561091f573d6000803e3d6000fd5b505050506040513d601f19601f820116820180604052508101906109439190611807565b9050600260019054906101000a90046001600160a01b03166001600160a01b03166323b872dd85848151811061098957634e487b7160e01b600052603260045260246000fd5b60209081029190910101516040516001600160e01b031960e084901b1681526001600160a01b03909116600482015230602482015260448101849052606401602060405180830381600087803b1580156109e257600080fd5b505af11580156109f6573d6000803e3d6000fd5b505050506040513d601f19601f82011682018060405250810190610a1a91906117a4565b50610a2581846118ba565b9250508080610a33906118e9565b91505061089e565b5060006204b53560ec1b60025460075460405163095ea7b360e01b81526001600160a01b03918216600482015260248101869052929350610100909104169063095ea7b390604401602060405180830381600087803b158015610a9d57600080fd5b505af1158015610ab1573d6000803e3d6000fd5b505050506040513d601f19601f82011682018060405250810190610ad591906117a4565b5060075460405163eae1c14d60e01b815260048101839052602481018490526001600160a01b039091169063eae1c14d906044015b600060405180830381600087803b158015610b2457600080fd5b505af1158015610b38573d6000803e3d6000fd5b50505050505050565b6040805160018082528183019092526060916000919060208083019080368337505060065482519293506001600160a01b031691839150600090610b9557634e487b7160e01b600052603260045260246000fd5b60200260200101906001600160a01b031690816001600160a01b03168152505060005b8151811015610e1c576000828281518110610be357634e487b7160e01b600052603260045260246000fd5b60200260200101516001600160a01b031663df63c8b66040518163ffffffff1660e01b815260040160206040518083038186803b158015610c2357600080fd5b505afa158015610c37573d6000803e3d6000fd5b505050506040513d601f19601f82011682018060405250810190610c5b9190611807565b90506000610c6a8360016118ba565b90505b8351811015610e07576000848281518110610c9857634e487b7160e01b600052603260045260246000fd5b60200260200101516001600160a01b031663df63c8b66040518163ffffffff1660e01b815260040160206040518083038186803b158015610cd857600080fd5b505afa158015610cec573d6000803e3d6000fd5b505050506040513d601f19601f82011682018060405250810190610d109190611807565b905080831115610df4578092506000858381518110610d3f57634e487b7160e01b600052603260045260246000fd5b60200260200101519050858581518110610d6957634e487b7160e01b600052603260045260246000fd5b6020026020010151868481518110610d9157634e487b7160e01b600052603260045260246000fd5b60200260200101906001600160a01b031690816001600160a01b03168152505080868681518110610dd257634e487b7160e01b600052603260045260246000fd5b60200260200101906001600160a01b031690816001600160a01b031681525050505b5080610dff816118e9565b915050610c6d565b50508080610e14906118e9565b915050610bb8565b50905090565b60025460ff1615610e685760405162461bcd60e51b815260206004820152601060248201526f14185d5cd8589b194e881c185d5cd95960821b6044820152606401610391565b653830bab9b2b960d11b610e7c813361149d565b6002805460ff191660011790556040513381527f62e78cea01bee320cd4e420270b5ea74000d11b0c9f74754ebdbfc544b05a25890602001610883565b60009182526001602090815260408084206001600160a01b0393909316845291905290205460ff1690565b610ef66430b236b4b760d91b3361149d565b6005546040516323b872dd60e01b8152336004820152306024820152604481018390526001600160a01b03909116906323b872dd90606401602060405180830381600087803b158015610f4857600080fd5b505af1158015610f5c573d6000803e3d6000fd5b505050506040513d601f19601f82011682018060405250810190610f8091906117a4565b5060055460065460405163095ea7b360e01b81526001600160a01b0391821660048201526024810184905291169063095ea7b390604401602060405180830381600087803b158015610fd157600080fd5b505af1158015610fe5573d6000803e3d6000fd5b505050506040513d601f19601f8201168201806040525081019061100991906117a4565b506000611014610b41565b90506000816001835161102791906118d2565b8151811061104557634e487b7160e01b600052603260045260246000fd5b60200260200101519050806001600160a01b031663a694fc3a846040518263ffffffff1660e01b8152600401610b0a91815260200190565b61108f6430b236b4b760d91b3361149d565b60025460ff16156110d55760405162461bcd60e51b815260206004820152601060248201526f14185d5cd8589b194e881c185d5cd95960821b6044820152606401610391565b81621adcd960ea1b14156111085760028054610100600160a81b0319166101006001600160a01b038416021790556107ec565b816f35b9b22932b33ab73226b0b730b3b2b960811b141561114357600380546001600160a01b0319166001600160a01b0383161790556107ec565b816f35b9b22932bbb0b93226b0b730b3b2b960811b141561117e57600480546001600160a01b0319166001600160a01b0383161790556107ec565b81643a37b5b2b760d91b14156111ae57600580546001600160a01b0319166001600160a01b0383161790556107ec565b81641e5a595b1960da1b14156111de57600680546001600160a01b0319166001600160a01b0383161790556107ec565b816b3cb4b2b63226b0b730b3b2b960a11b141561121557600780546001600160a01b0319166001600160a01b0383161790556107ec565b60405162461bcd60e51b815260206004820152602c60248201527f426173655969656c64466163746f72793a3a636f6e6669673a20756e7265636f60448201526b676e697a65642d706172616d60a01b6064820152608401610391565b60008061127d61142c565b90506000805b82518110156104a9578281815181106112ac57634e487b7160e01b600052603260045260246000fd5b60200260200101516001600160a01b031663d4c3eea06040518163ffffffff1660e01b815260040160206040518083038186803b1580156112ec57600080fd5b505afa158015611300573d6000803e3d6000fd5b505050506040513d601f19601f820116820180604052508101906113249190611807565b61132e90836118ba565b91508061133a816118e9565b915050611283565b61134b826104b0565b611355813361149d565b610750838361156c565b6113716437bbb732b960d91b3361149d565b6113836437bbb732b960d91b82611501565b6103d66437bbb732b960d91b3361156c565b600054610100900460ff16806113aa5750303b155b806113b8575060005460ff16155b6113d45760405162461bcd60e51b81526004016103919061186c565b600054610100900460ff161580156113f6576000805461ffff19166101011790555b6113fe6115d3565b611419653830bab9b2b960d11b6437bbb732b960d91b61163c565b6103c4653830bab9b2b960d11b33611691565b6040805160018082528183019092526060916000919060208083019080368337505060065482519293506001600160a01b03169183915060009061148057634e487b7160e01b600052603260045260246000fd5b6001600160a01b0390921660209283029190910190910152905090565b6114a78282610eb9565b6107ec5760405162461bcd60e51b815260206004820152602560248201527f416363657373436f6e74726f6c3a5f636865636b526f6c653a696e76616c696460448201526420726f6c6560d81b6064820152608401610391565b61150b8282610eb9565b6107ec5760008281526001602081815260408084206001600160a01b0386168086529252808420805460ff19169093179092559051339285917f2f8788117e7eff1d82e926ec794901d17c78024a50270940304540a733656f0d9190a45050565b6115768282610eb9565b156107ec5760008281526001602090815260408083206001600160a01b0385168085529252808320805460ff1916905551339285917ff6391f5c32d9c69d2a47ea670b442974b53935d1edc7fd64eb21e047a839171b9190a45050565b600054610100900460ff16806115e85750303b155b806115f6575060005460ff16155b6116125760405162461bcd60e51b81526004016103919061186c565b600054610100900460ff16158015611634576000805461ffff19166101011790555b6103c461169b565b6000611647836104b0565b6000848152600160208190526040808320909101859055519192508391839186917fbd79b86ffe0ab8e8776151514217cd7cacd52c909f66475c3af44e129f0b00ff9190a4505050565b6107ec8282611501565b600054610100900460ff16806116b05750303b155b806116be575060005460ff16155b6116da5760405162461bcd60e51b81526004016103919061186c565b600054610100900460ff161580156116fc576000805461ffff19166101011790555b61170e6437bbb732b960d91b33611691565b6117286430b236b4b760d91b6437bbb732b960d91b61163c565b6117456737b832b930ba37b960c11b6437bbb732b960d91b61163c565b6117576430b236b4b760d91b33611691565b6103c46737b832b930ba37b960c11b33611691565b80356001600160a01b03811681146104c457600080fd5b600060208284031215611794578081fd5b61179d8261176c565b9392505050565b6000602082840312156117b5578081fd5b8151801515811461179d578182fd5b6000602082840312156117d5578081fd5b5035919050565b600080604083850312156117ee578081fd5b823591506117fe6020840161176c565b90509250929050565b600060208284031215611818578081fd5b5051919050565b6020808252825182820181905260009190848201906040850190845b818110156118605783516001600160a01b03168352928401929184019160010161183b565b50909695505050505050565b6020808252602e908201527f496e697469616c697a61626c653a20636f6e747261637420697320616c72656160408201526d191e481a5b9a5d1a585b1a5e995960921b606082015260800190565b600082198211156118cd576118cd611904565b500190565b6000828210156118e4576118e4611904565b500390565b60006000198214156118fd576118fd611904565b5060010190565b634e487b7160e01b600052601160045260246000fdfea26469706673582212205f0f73ce089e5a16a750cc83500e5ea5ad194615bc0e6aefc4f37adb3701fa7c64736f6c63430008030033",
  "devdoc": {
    "details": "Independent strategies are called yield.",
    "kind": "dev",
    "methods": {
      "stake(uint256)": {
        "params": {
          "tokenAmount": "Amount of token to stake"
        }
      },
      "unstake(uint256)": {
        "params": {
          "tokenAmount": "Amount of token to unstake"
        }
      }
    },
    "title": "Management of strategies to operate the deposited token.",
    "version": 1
  },
  "userdoc": {
    "kind": "user",
    "methods": {
      "applyProfitAll()": {
        "notice": "In all yields, call claimReward function."
      },
      "stake(uint256)": {
        "notice": "Add collateral to staking yield"
      },
      "unstake(uint256)": {
        "notice": "Remove token from yield."
      }
    },
    "notice": "Each strategy can stake token.",
    "version": 1
  },
  "storageLayout": {
    "storage": [
      {
        "astId": 23220,
        "contract": "contracts/collateral/KSP/KSPYieldFactory.sol:KSPYieldFactory",
        "label": "_initialized",
        "offset": 0,
        "slot": "0",
        "type": "t_bool"
      },
      {
        "astId": 23223,
        "contract": "contracts/collateral/KSP/KSPYieldFactory.sol:KSPYieldFactory",
        "label": "_initializing",
        "offset": 1,
        "slot": "0",
        "type": "t_bool"
      },
      {
        "astId": 20166,
        "contract": "contracts/collateral/KSP/KSPYieldFactory.sol:KSPYieldFactory",
        "label": "_roles",
        "offset": 0,
        "slot": "1",
        "type": "t_mapping(t_bytes32,t_struct(RoleData)20161_storage)"
      },
      {
        "astId": 20556,
        "contract": "contracts/collateral/KSP/KSPYieldFactory.sol:KSPYieldFactory",
        "label": "_paused",
        "offset": 0,
        "slot": "2",
        "type": "t_bool"
      },
      {
        "astId": 39294,
        "contract": "contracts/collateral/KSP/KSPYieldFactory.sol:KSPYieldFactory",
        "label": "ksd",
        "offset": 1,
        "slot": "2",
        "type": "t_contract(IKIP7)9881"
      },
      {
        "astId": 39297,
        "contract": "contracts/collateral/KSP/KSPYieldFactory.sol:KSPYieldFactory",
        "label": "ksdRefundManager",
        "offset": 0,
        "slot": "3",
        "type": "t_contract(IKsdRefundManager)8504"
      },
      {
        "astId": 39300,
        "contract": "contracts/collateral/KSP/KSPYieldFactory.sol:KSPYieldFactory",
        "label": "ksdRewardManager",
        "offset": 0,
        "slot": "4",
        "type": "t_contract(IDistributor)7358"
      },
      {
        "astId": 39303,
        "contract": "contracts/collateral/KSP/KSPYieldFactory.sol:KSPYieldFactory",
        "label": "token",
        "offset": 0,
        "slot": "5",
        "type": "t_address"
      },
      {
        "astId": 39305,
        "contract": "contracts/collateral/KSP/KSPYieldFactory.sol:KSPYieldFactory",
        "label": "yield",
        "offset": 0,
        "slot": "6",
        "type": "t_address"
      },
      {
        "astId": 39308,
        "contract": "contracts/collateral/KSP/KSPYieldFactory.sol:KSPYieldFactory",
        "label": "yieldManager",
        "offset": 0,
        "slot": "7",
        "type": "t_contract(IYieldManager)9728"
      }
    ],
    "types": {
      "t_address": {
        "encoding": "inplace",
        "label": "address",
        "numberOfBytes": "20"
      },
      "t_bool": {
        "encoding": "inplace",
        "label": "bool",
        "numberOfBytes": "1"
      },
      "t_bytes32": {
        "encoding": "inplace",
        "label": "bytes32",
        "numberOfBytes": "32"
      },
      "t_contract(IDistributor)7358": {
        "encoding": "inplace",
        "label": "contract IDistributor",
        "numberOfBytes": "20"
      },
      "t_contract(IKIP7)9881": {
        "encoding": "inplace",
        "label": "contract IKIP7",
        "numberOfBytes": "20"
      },
      "t_contract(IKsdRefundManager)8504": {
        "encoding": "inplace",
        "label": "contract IKsdRefundManager",
        "numberOfBytes": "20"
      },
      "t_contract(IYieldManager)9728": {
        "encoding": "inplace",
        "label": "contract IYieldManager",
        "numberOfBytes": "20"
      },
      "t_mapping(t_address,t_bool)": {
        "encoding": "mapping",
        "key": "t_address",
        "label": "mapping(address => bool)",
        "numberOfBytes": "32",
        "value": "t_bool"
      },
      "t_mapping(t_bytes32,t_struct(RoleData)20161_storage)": {
        "encoding": "mapping",
        "key": "t_bytes32",
        "label": "mapping(bytes32 => struct AccessControl.RoleData)",
        "numberOfBytes": "32",
        "value": "t_struct(RoleData)20161_storage"
      },
      "t_struct(RoleData)20161_storage": {
        "encoding": "inplace",
        "label": "struct AccessControl.RoleData",
        "members": [
          {
            "astId": 20158,
            "contract": "contracts/collateral/KSP/KSPYieldFactory.sol:KSPYieldFactory",
            "label": "members",
            "offset": 0,
            "slot": "0",
            "type": "t_mapping(t_address,t_bool)"
          },
          {
            "astId": 20160,
            "contract": "contracts/collateral/KSP/KSPYieldFactory.sol:KSPYieldFactory",
            "label": "adminRole",
            "offset": 0,
            "slot": "1",
            "type": "t_bytes32"
          }
        ],
        "numberOfBytes": "64"
      }
    }
  }
}