{
  "address": "0xd43ccED274016C4e19ae98135F1BEE823BE83D4b",
  "abi": [
    {
      "anonymous": false,
      "inputs": [
        {
          "indexed": false,
          "internalType": "address",
          "name": "account",
          "type": "address"
        }
      ],
      "name": "Paused",
      "type": "event"
    },
    {
      "anonymous": false,
      "inputs": [
        {
          "indexed": true,
          "internalType": "bytes32",
          "name": "role",
          "type": "bytes32"
        },
        {
          "indexed": true,
          "internalType": "bytes32",
          "name": "previousAdminRole",
          "type": "bytes32"
        },
        {
          "indexed": true,
          "internalType": "bytes32",
          "name": "newAdminRole",
          "type": "bytes32"
        }
      ],
      "name": "RoleAdminChanged",
      "type": "event"
    },
    {
      "anonymous": false,
      "inputs": [
        {
          "indexed": true,
          "internalType": "bytes32",
          "name": "role",
          "type": "bytes32"
        },
        {
          "indexed": true,
          "internalType": "address",
          "name": "account",
          "type": "address"
        },
        {
          "indexed": true,
          "internalType": "address",
          "name": "sender",
          "type": "address"
        }
      ],
      "name": "RoleGranted",
      "type": "event"
    },
    {
      "anonymous": false,
      "inputs": [
        {
          "indexed": true,
          "internalType": "bytes32",
          "name": "role",
          "type": "bytes32"
        },
        {
          "indexed": true,
          "internalType": "address",
          "name": "account",
          "type": "address"
        },
        {
          "indexed": true,
          "internalType": "address",
          "name": "sender",
          "type": "address"
        }
      ],
      "name": "RoleRevoked",
      "type": "event"
    },
    {
      "anonymous": false,
      "inputs": [
        {
          "indexed": false,
          "internalType": "address",
          "name": "account",
          "type": "address"
        }
      ],
      "name": "Unpaused",
      "type": "event"
    },
    {
      "inputs": [],
      "name": "COLLATERAL_TYPE",
      "outputs": [
        {
          "internalType": "bytes32",
          "name": "",
          "type": "bytes32"
        }
      ],
      "stateMutability": "view",
      "type": "function"
    },
    {
      "inputs": [],
      "name": "DEFAULT_ADMIN_ROLE",
      "outputs": [
        {
          "internalType": "bytes32",
          "name": "",
          "type": "bytes32"
        }
      ],
      "stateMutability": "view",
      "type": "function"
    },
    {
      "inputs": [],
      "name": "__BaseYieldFactory_init",
      "outputs": [],
      "stateMutability": "nonpayable",
      "type": "function"
    },
    {
      "inputs": [],
      "name": "__KUSDTYieldFactory_init",
      "outputs": [],
      "stateMutability": "nonpayable",
      "type": "function"
    },
    {
      "inputs": [],
      "name": "applyProfitAll",
      "outputs": [],
      "stateMutability": "nonpayable",
      "type": "function"
    },
    {
      "inputs": [
        {
          "internalType": "bytes32",
          "name": "what",
          "type": "bytes32"
        },
        {
          "internalType": "address",
          "name": "data",
          "type": "address"
        }
      ],
      "name": "config",
      "outputs": [],
      "stateMutability": "nonpayable",
      "type": "function"
    },
    {
      "inputs": [
        {
          "internalType": "bytes32",
          "name": "role",
          "type": "bytes32"
        }
      ],
      "name": "getRoleAdmin",
      "outputs": [
        {
          "internalType": "bytes32",
          "name": "",
          "type": "bytes32"
        }
      ],
      "stateMutability": "view",
      "type": "function"
    },
    {
      "inputs": [
        {
          "internalType": "bytes32",
          "name": "role",
          "type": "bytes32"
        },
        {
          "internalType": "address",
          "name": "account",
          "type": "address"
        }
      ],
      "name": "grantRole",
      "outputs": [],
      "stateMutability": "nonpayable",
      "type": "function"
    },
    {
      "inputs": [
        {
          "internalType": "bytes32",
          "name": "role",
          "type": "bytes32"
        },
        {
          "internalType": "address",
          "name": "account",
          "type": "address"
        }
      ],
      "name": "hasRole",
      "outputs": [
        {
          "internalType": "bool",
          "name": "",
          "type": "bool"
        }
      ],
      "stateMutability": "view",
      "type": "function"
    },
    {
      "inputs": [],
      "name": "ksd",
      "outputs": [
        {
          "internalType": "contract IKIP7",
          "name": "",
          "type": "address"
        }
      ],
      "stateMutability": "view",
      "type": "function"
    },
    {
      "inputs": [],
      "name": "ksdRefundManager",
      "outputs": [
        {
          "internalType": "contract IKsdRefundManager",
          "name": "",
          "type": "address"
        }
      ],
      "stateMutability": "view",
      "type": "function"
    },
    {
      "inputs": [],
      "name": "ksdRewardManager",
      "outputs": [
        {
          "internalType": "contract IDistributor",
          "name": "",
          "type": "address"
        }
      ],
      "stateMutability": "view",
      "type": "function"
    },
    {
      "inputs": [],
      "name": "pause",
      "outputs": [],
      "stateMutability": "nonpayable",
      "type": "function"
    },
    {
      "inputs": [],
      "name": "paused",
      "outputs": [
        {
          "internalType": "bool",
          "name": "",
          "type": "bool"
        }
      ],
      "stateMutability": "view",
      "type": "function"
    },
    {
      "inputs": [
        {
          "internalType": "bytes32",
          "name": "role",
          "type": "bytes32"
        },
        {
          "internalType": "address",
          "name": "account",
          "type": "address"
        }
      ],
      "name": "renounceRole",
      "outputs": [],
      "stateMutability": "nonpayable",
      "type": "function"
    },
    {
      "inputs": [
        {
          "internalType": "bytes32",
          "name": "role",
          "type": "bytes32"
        },
        {
          "internalType": "address",
          "name": "account",
          "type": "address"
        }
      ],
      "name": "revokeRole",
      "outputs": [],
      "stateMutability": "nonpayable",
      "type": "function"
    },
    {
      "inputs": [],
      "name": "sortedYieldList",
      "outputs": [
        {
          "internalType": "address[]",
          "name": "",
          "type": "address[]"
        }
      ],
      "stateMutability": "view",
      "type": "function"
    },
    {
      "inputs": [
        {
          "internalType": "uint256",
          "name": "tokenAmount",
          "type": "uint256"
        }
      ],
      "name": "stake",
      "outputs": [],
      "stateMutability": "nonpayable",
      "type": "function"
    },
    {
      "inputs": [],
      "name": "token",
      "outputs": [
        {
          "internalType": "address",
          "name": "",
          "type": "address"
        }
      ],
      "stateMutability": "view",
      "type": "function"
    },
    {
      "inputs": [],
      "name": "totalAmount",
      "outputs": [
        {
          "internalType": "uint256",
          "name": "",
          "type": "uint256"
        }
      ],
      "stateMutability": "view",
      "type": "function"
    },
    {
      "inputs": [],
      "name": "totalValue",
      "outputs": [
        {
          "internalType": "uint256",
          "name": "",
          "type": "uint256"
        }
      ],
      "stateMutability": "view",
      "type": "function"
    },
    {
      "inputs": [
        {
          "internalType": "address",
          "name": "newOwner",
          "type": "address"
        }
      ],
      "name": "transferOwnership",
      "outputs": [],
      "stateMutability": "nonpayable",
      "type": "function"
    },
    {
      "inputs": [],
      "name": "unpause",
      "outputs": [],
      "stateMutability": "nonpayable",
      "type": "function"
    },
    {
      "inputs": [
        {
          "internalType": "uint256",
          "name": "tokenAmount",
          "type": "uint256"
        }
      ],
      "name": "unstake",
      "outputs": [],
      "stateMutability": "nonpayable",
      "type": "function"
    },
    {
      "inputs": [],
      "name": "yield",
      "outputs": [
        {
          "internalType": "address",
          "name": "",
          "type": "address"
        }
      ],
      "stateMutability": "view",
      "type": "function"
    },
    {
      "inputs": [],
      "name": "yieldManager",
      "outputs": [
        {
          "internalType": "contract IYieldManager",
          "name": "",
          "type": "address"
        }
      ],
      "stateMutability": "view",
      "type": "function"
    }
  ],
  "transactionHash": "0x8dc57e15ee27e12b78a9050221f3a4b86f5d17be4204ec284b2e71829eaaec09",
  "args": [],
  "solcInputHash": "daac9cba34dfabe5953ff704314717f0",
  "bytecode": "0x608060405234801561001057600080fd5b50611954806100206000396000f3fe608060405234801561001057600080fd5b506004361061018e5760003560e01c806371ccecb6116100de578063a6d5f10311610097578063d4c3eea011610071578063d4c3eea014610313578063d547741f1461031b578063f2fde38b1461032e578063fc0c546a146103415761018e565b8063a6d5f103146102d5578063d05f7071146102ed578063d366f3b9146103005761018e565b806371ccecb61461027957806380b7af181461028c5780638456cb591461029f57806391d14854146102a7578063a217fddf146102ba578063a694fc3a146102c25761018e565b80632f2ff15d1161014b5780633f4ba83a116101255780633f4ba83a1461023d57806352e7fd61146102455780635c975abb1461024d5780635cafb9d3146102645761018e565b80632f2ff15d1461021757806336568abe1461022a5780633afdf48b146101935761018e565b8063123713f1146101935780631a39d8ef1461019d578063248a9ca3146101b857806328593984146101cb5780632c214c9d146101f65780632e17de7814610204575b600080fd5b61019b610354565b005b6101a56103db565b6040519081526020015b60405180910390f35b6101a56101c63660046117c8565b6104b2565b6006546101de906001600160a01b031681565b6040516001600160a01b0390911681526020016101af565b6412d554d11560da1b6101a5565b61019b6102123660046117c8565b6104cb565b61019b6102253660046117e0565b610757565b61019b6102383660046117e0565b610774565b61019b6107f2565b61019b610890565b60025460ff165b60405190151581526020016101af565b61026c610b45565b6040516101af9190611823565b6003546101de906001600160a01b031681565b6007546101de906001600160a01b031681565b61019b610e26565b6102546102b53660046117e0565b610ebd565b6101a5600081565b61019b6102d03660046117c8565b610ee8565b6002546101de9061010090046001600160a01b031681565b6004546101de906001600160a01b031681565b61019b61030e3660046117e0565b611081565b6101a5611276565b61019b6103293660046117e0565b611346565b61019b61033c366004611787565b611363565b6005546101de906001600160a01b031681565b600054610100900460ff16806103695750303b155b80610377575060005460ff16155b61039c5760405162461bcd60e51b815260040161039390611870565b60405180910390fd5b600054610100900460ff161580156103be576000805461ffff19166101011790555b6103c6611399565b80156103d8576000805461ff00191690555b50565b6000806103e6611430565b90506000805b82518110156104ab5782818151811061041557634e487b7160e01b600052603260045260246000fd5b60200260200101516001600160a01b0316631a39d8ef6040518163ffffffff1660e01b815260040160206040518083038186803b15801561045557600080fd5b505afa158015610469573d6000803e3d6000fd5b505050506040513d601f19601f8201168201806040525081019061048d919061180b565b61049790836118be565b9150806104a3816118ed565b9150506103ec565b5091505090565b600081815260016020819052604090912001545b919050565b6104dd6430b236b4b760d91b336114a1565b60006104e7610b45565b90508160005b8251811015610703578161050057610703565b600083828151811061052257634e487b7160e01b600052603260045260246000fd5b6020026020010151905082816001600160a01b0316631a39d8ef6040518163ffffffff1660e01b815260040160206040518083038186803b15801561056657600080fd5b505afa15801561057a573d6000803e3d6000fd5b505050506040513d601f19601f8201168201806040525081019061059e919061180b565b10610610576040516305c2fbcf60e31b8152600481018490526001600160a01b03821690632e17de7890602401600060405180830381600087803b1580156105e557600080fd5b505af11580156105f9573d6000803e3d6000fd5b50505050828361060991906118d6565b92506106f0565b6000816001600160a01b0316631a39d8ef6040518163ffffffff1660e01b815260040160206040518083038186803b15801561064b57600080fd5b505afa15801561065f573d6000803e3d6000fd5b505050506040513d601f19601f82011682018060405250810190610683919061180b565b6040516305c2fbcf60e31b8152600481018290529091506001600160a01b03831690632e17de7890602401600060405180830381600087803b1580156106c857600080fd5b505af11580156106dc573d6000803e3d6000fd5b5050505080846106ec91906118d6565b9350505b50806106fb816118ed565b9150506104ed565b5080156107525760405162461bcd60e51b815260206004820152601f60248201527f426173655969656c64466163746f72793a3a756e7374616b653a206661696c006044820152606401610393565b505050565b610760826104b2565b61076a81336114a1565b6107528383611505565b6001600160a01b03811633146107e45760405162461bcd60e51b815260206004820152602f60248201527f416363657373436f6e74726f6c3a2063616e206f6e6c792072656e6f756e636560448201526e103937b632b9903337b91039b2b63360891b6064820152608401610393565b6107ee8282611570565b5050565b60025460ff1661083b5760405162461bcd60e51b815260206004820152601460248201527314185d5cd8589b194e881b9bdd081c185d5cd95960621b6044820152606401610393565b653830bab9b2b960d11b61084f81336114a1565b6002805460ff191690556040513381527f5db9ee0a495bf2e6ff9c91a7834c1ba4fdd244a5e8aa4e537bd38aeae4b073aa906020015b60405180910390a150565b600061089a611430565b90506000805b8251811015610a3d5760008382815181106108cb57634e487b7160e01b600052603260045260246000fd5b60200260200101516001600160a01b031663cf712f6f6040518163ffffffff1660e01b8152600401602060405180830381600087803b15801561090d57600080fd5b505af1158015610921573d6000803e3d6000fd5b505050506040513d601f19601f82011682018060405250810190610945919061180b565b9050600260019054906101000a90046001600160a01b03166001600160a01b03166323b872dd85848151811061098b57634e487b7160e01b600052603260045260246000fd5b60209081029190910101516040516001600160e01b031960e084901b1681526001600160a01b03909116600482015230602482015260448101849052606401602060405180830381600087803b1580156109e457600080fd5b505af11580156109f8573d6000803e3d6000fd5b505050506040513d601f19601f82011682018060405250810190610a1c91906117a8565b50610a2781846118be565b9250508080610a35906118ed565b9150506108a0565b5060006412d554d11560da1b60025460075460405163095ea7b360e01b81526001600160a01b03918216600482015260248101869052929350610100909104169063095ea7b390604401602060405180830381600087803b158015610aa157600080fd5b505af1158015610ab5573d6000803e3d6000fd5b505050506040513d601f19601f82011682018060405250810190610ad991906117a8565b5060075460405163eae1c14d60e01b815260048101839052602481018490526001600160a01b039091169063eae1c14d906044015b600060405180830381600087803b158015610b2857600080fd5b505af1158015610b3c573d6000803e3d6000fd5b50505050505050565b6040805160018082528183019092526060916000919060208083019080368337505060065482519293506001600160a01b031691839150600090610b9957634e487b7160e01b600052603260045260246000fd5b60200260200101906001600160a01b031690816001600160a01b03168152505060005b8151811015610e20576000828281518110610be757634e487b7160e01b600052603260045260246000fd5b60200260200101516001600160a01b031663df63c8b66040518163ffffffff1660e01b815260040160206040518083038186803b158015610c2757600080fd5b505afa158015610c3b573d6000803e3d6000fd5b505050506040513d601f19601f82011682018060405250810190610c5f919061180b565b90506000610c6e8360016118be565b90505b8351811015610e0b576000848281518110610c9c57634e487b7160e01b600052603260045260246000fd5b60200260200101516001600160a01b031663df63c8b66040518163ffffffff1660e01b815260040160206040518083038186803b158015610cdc57600080fd5b505afa158015610cf0573d6000803e3d6000fd5b505050506040513d601f19601f82011682018060405250810190610d14919061180b565b905080831115610df8578092506000858381518110610d4357634e487b7160e01b600052603260045260246000fd5b60200260200101519050858581518110610d6d57634e487b7160e01b600052603260045260246000fd5b6020026020010151868481518110610d9557634e487b7160e01b600052603260045260246000fd5b60200260200101906001600160a01b031690816001600160a01b03168152505080868681518110610dd657634e487b7160e01b600052603260045260246000fd5b60200260200101906001600160a01b031690816001600160a01b031681525050505b5080610e03816118ed565b915050610c71565b50508080610e18906118ed565b915050610bbc565b50905090565b60025460ff1615610e6c5760405162461bcd60e51b815260206004820152601060248201526f14185d5cd8589b194e881c185d5cd95960821b6044820152606401610393565b653830bab9b2b960d11b610e8081336114a1565b6002805460ff191660011790556040513381527f62e78cea01bee320cd4e420270b5ea74000d11b0c9f74754ebdbfc544b05a25890602001610885565b60009182526001602090815260408084206001600160a01b0393909316845291905290205460ff1690565b610efa6430b236b4b760d91b336114a1565b6005546040516323b872dd60e01b8152336004820152306024820152604481018390526001600160a01b03909116906323b872dd90606401602060405180830381600087803b158015610f4c57600080fd5b505af1158015610f60573d6000803e3d6000fd5b505050506040513d601f19601f82011682018060405250810190610f8491906117a8565b5060055460065460405163095ea7b360e01b81526001600160a01b0391821660048201526024810184905291169063095ea7b390604401602060405180830381600087803b158015610fd557600080fd5b505af1158015610fe9573d6000803e3d6000fd5b505050506040513d601f19601f8201168201806040525081019061100d91906117a8565b506000611018610b45565b90506000816001835161102b91906118d6565b8151811061104957634e487b7160e01b600052603260045260246000fd5b60200260200101519050806001600160a01b031663a694fc3a846040518263ffffffff1660e01b8152600401610b0e91815260200190565b6110936430b236b4b760d91b336114a1565b60025460ff16156110d95760405162461bcd60e51b815260206004820152601060248201526f14185d5cd8589b194e881c185d5cd95960821b6044820152606401610393565b81621adcd960ea1b141561110c5760028054610100600160a81b0319166101006001600160a01b038416021790556107ee565b816f35b9b22932b33ab73226b0b730b3b2b960811b141561114757600380546001600160a01b0319166001600160a01b0383161790556107ee565b816f35b9b22932bbb0b93226b0b730b3b2b960811b141561118257600480546001600160a01b0319166001600160a01b0383161790556107ee565b81643a37b5b2b760d91b14156111b257600580546001600160a01b0319166001600160a01b0383161790556107ee565b81641e5a595b1960da1b14156111e257600680546001600160a01b0319166001600160a01b0383161790556107ee565b816b3cb4b2b63226b0b730b3b2b960a11b141561121957600780546001600160a01b0319166001600160a01b0383161790556107ee565b60405162461bcd60e51b815260206004820152602c60248201527f426173655969656c64466163746f72793a3a636f6e6669673a20756e7265636f60448201526b676e697a65642d706172616d60a01b6064820152608401610393565b600080611281611430565b90506000805b82518110156104ab578281815181106112b057634e487b7160e01b600052603260045260246000fd5b60200260200101516001600160a01b031663d4c3eea06040518163ffffffff1660e01b815260040160206040518083038186803b1580156112f057600080fd5b505afa158015611304573d6000803e3d6000fd5b505050506040513d601f19601f82011682018060405250810190611328919061180b565b61133290836118be565b91508061133e816118ed565b915050611287565b61134f826104b2565b61135981336114a1565b6107528383611570565b6113756437bbb732b960d91b336114a1565b6113876437bbb732b960d91b82611505565b6103d86437bbb732b960d91b33611570565b600054610100900460ff16806113ae5750303b155b806113bc575060005460ff16155b6113d85760405162461bcd60e51b815260040161039390611870565b600054610100900460ff161580156113fa576000805461ffff19166101011790555b6114026115d7565b61141d653830bab9b2b960d11b6437bbb732b960d91b611640565b6103c6653830bab9b2b960d11b33611695565b6040805160018082528183019092526060916000919060208083019080368337505060065482519293506001600160a01b03169183915060009061148457634e487b7160e01b600052603260045260246000fd5b6001600160a01b0390921660209283029190910190910152905090565b6114ab8282610ebd565b6107ee5760405162461bcd60e51b815260206004820152602560248201527f416363657373436f6e74726f6c3a5f636865636b526f6c653a696e76616c696460448201526420726f6c6560d81b6064820152608401610393565b61150f8282610ebd565b6107ee5760008281526001602081815260408084206001600160a01b0386168086529252808420805460ff19169093179092559051339285917f2f8788117e7eff1d82e926ec794901d17c78024a50270940304540a733656f0d9190a45050565b61157a8282610ebd565b156107ee5760008281526001602090815260408083206001600160a01b0385168085529252808320805460ff1916905551339285917ff6391f5c32d9c69d2a47ea670b442974b53935d1edc7fd64eb21e047a839171b9190a45050565b600054610100900460ff16806115ec5750303b155b806115fa575060005460ff16155b6116165760405162461bcd60e51b815260040161039390611870565b600054610100900460ff16158015611638576000805461ffff19166101011790555b6103c661169f565b600061164b836104b2565b6000848152600160208190526040808320909101859055519192508391839186917fbd79b86ffe0ab8e8776151514217cd7cacd52c909f66475c3af44e129f0b00ff9190a4505050565b6107ee8282611505565b600054610100900460ff16806116b45750303b155b806116c2575060005460ff16155b6116de5760405162461bcd60e51b815260040161039390611870565b600054610100900460ff16158015611700576000805461ffff19166101011790555b6117126437bbb732b960d91b33611695565b61172c6430b236b4b760d91b6437bbb732b960d91b611640565b6117496737b832b930ba37b960c11b6437bbb732b960d91b611640565b61175b6430b236b4b760d91b33611695565b6103c66737b832b930ba37b960c11b33611695565b80356001600160a01b03811681146104c657600080fd5b600060208284031215611798578081fd5b6117a182611770565b9392505050565b6000602082840312156117b9578081fd5b815180151581146117a1578182fd5b6000602082840312156117d9578081fd5b5035919050565b600080604083850312156117f2578081fd5b8235915061180260208401611770565b90509250929050565b60006020828403121561181c578081fd5b5051919050565b6020808252825182820181905260009190848201906040850190845b818110156118645783516001600160a01b03168352928401929184019160010161183f565b50909695505050505050565b6020808252602e908201527f496e697469616c697a61626c653a20636f6e747261637420697320616c72656160408201526d191e481a5b9a5d1a585b1a5e995960921b606082015260800190565b600082198211156118d1576118d1611908565b500190565b6000828210156118e8576118e8611908565b500390565b600060001982141561190157611901611908565b5060010190565b634e487b7160e01b600052601160045260246000fdfea26469706673582212208d0eff3f3f4b555ee20058cc95c7eca8d218da4b50a90c08e336a71833f5a68864736f6c63430008030033",
  "devdoc": {
    "details": "Independent strategies are called yield.",
    "kind": "dev",
    "methods": {
      "stake(uint256)": {
        "params": {
          "tokenAmount": "Amount of token to stake"
        }
      },
      "unstake(uint256)": {
        "params": {
          "tokenAmount": "Amount of token to unstake"
        }
      }
    },
    "title": "Management of strategies to operate the deposited token.",
    "version": 1
  },
  "userdoc": {
    "kind": "user",
    "methods": {
      "applyProfitAll()": {
        "notice": "In all yields, call claimReward function."
      },
      "stake(uint256)": {
        "notice": "Add collateral to staking yield"
      },
      "unstake(uint256)": {
        "notice": "Remove token from yield."
      }
    },
    "notice": "Each strategy can stake token.",
    "version": 1
  },
  "storageLayout": {
    "storage": [
      {
        "astId": 23220,
        "contract": "contracts/collateral/KUSDT/KUSDTYieldFactory.sol:KUSDTYieldFactory",
        "label": "_initialized",
        "offset": 0,
        "slot": "0",
        "type": "t_bool"
      },
      {
        "astId": 23223,
        "contract": "contracts/collateral/KUSDT/KUSDTYieldFactory.sol:KUSDTYieldFactory",
        "label": "_initializing",
        "offset": 1,
        "slot": "0",
        "type": "t_bool"
      },
      {
        "astId": 20166,
        "contract": "contracts/collateral/KUSDT/KUSDTYieldFactory.sol:KUSDTYieldFactory",
        "label": "_roles",
        "offset": 0,
        "slot": "1",
        "type": "t_mapping(t_bytes32,t_struct(RoleData)20161_storage)"
      },
      {
        "astId": 20556,
        "contract": "contracts/collateral/KUSDT/KUSDTYieldFactory.sol:KUSDTYieldFactory",
        "label": "_paused",
        "offset": 0,
        "slot": "2",
        "type": "t_bool"
      },
      {
        "astId": 39294,
        "contract": "contracts/collateral/KUSDT/KUSDTYieldFactory.sol:KUSDTYieldFactory",
        "label": "ksd",
        "offset": 1,
        "slot": "2",
        "type": "t_contract(IKIP7)9881"
      },
      {
        "astId": 39297,
        "contract": "contracts/collateral/KUSDT/KUSDTYieldFactory.sol:KUSDTYieldFactory",
        "label": "ksdRefundManager",
        "offset": 0,
        "slot": "3",
        "type": "t_contract(IKsdRefundManager)8504"
      },
      {
        "astId": 39300,
        "contract": "contracts/collateral/KUSDT/KUSDTYieldFactory.sol:KUSDTYieldFactory",
        "label": "ksdRewardManager",
        "offset": 0,
        "slot": "4",
        "type": "t_contract(IDistributor)7358"
      },
      {
        "astId": 39303,
        "contract": "contracts/collateral/KUSDT/KUSDTYieldFactory.sol:KUSDTYieldFactory",
        "label": "token",
        "offset": 0,
        "slot": "5",
        "type": "t_address"
      },
      {
        "astId": 39305,
        "contract": "contracts/collateral/KUSDT/KUSDTYieldFactory.sol:KUSDTYieldFactory",
        "label": "yield",
        "offset": 0,
        "slot": "6",
        "type": "t_address"
      },
      {
        "astId": 39308,
        "contract": "contracts/collateral/KUSDT/KUSDTYieldFactory.sol:KUSDTYieldFactory",
        "label": "yieldManager",
        "offset": 0,
        "slot": "7",
        "type": "t_contract(IYieldManager)9728"
      }
    ],
    "types": {
      "t_address": {
        "encoding": "inplace",
        "label": "address",
        "numberOfBytes": "20"
      },
      "t_bool": {
        "encoding": "inplace",
        "label": "bool",
        "numberOfBytes": "1"
      },
      "t_bytes32": {
        "encoding": "inplace",
        "label": "bytes32",
        "numberOfBytes": "32"
      },
      "t_contract(IDistributor)7358": {
        "encoding": "inplace",
        "label": "contract IDistributor",
        "numberOfBytes": "20"
      },
      "t_contract(IKIP7)9881": {
        "encoding": "inplace",
        "label": "contract IKIP7",
        "numberOfBytes": "20"
      },
      "t_contract(IKsdRefundManager)8504": {
        "encoding": "inplace",
        "label": "contract IKsdRefundManager",
        "numberOfBytes": "20"
      },
      "t_contract(IYieldManager)9728": {
        "encoding": "inplace",
        "label": "contract IYieldManager",
        "numberOfBytes": "20"
      },
      "t_mapping(t_address,t_bool)": {
        "encoding": "mapping",
        "key": "t_address",
        "label": "mapping(address => bool)",
        "numberOfBytes": "32",
        "value": "t_bool"
      },
      "t_mapping(t_bytes32,t_struct(RoleData)20161_storage)": {
        "encoding": "mapping",
        "key": "t_bytes32",
        "label": "mapping(bytes32 => struct AccessControl.RoleData)",
        "numberOfBytes": "32",
        "value": "t_struct(RoleData)20161_storage"
      },
      "t_struct(RoleData)20161_storage": {
        "encoding": "inplace",
        "label": "struct AccessControl.RoleData",
        "members": [
          {
            "astId": 20158,
            "contract": "contracts/collateral/KUSDT/KUSDTYieldFactory.sol:KUSDTYieldFactory",
            "label": "members",
            "offset": 0,
            "slot": "0",
            "type": "t_mapping(t_address,t_bool)"
          },
          {
            "astId": 20160,
            "contract": "contracts/collateral/KUSDT/KUSDTYieldFactory.sol:KUSDTYieldFactory",
            "label": "adminRole",
            "offset": 0,
            "slot": "1",
            "type": "t_bytes32"
          }
        ],
        "numberOfBytes": "64"
      }
    }
  }
}