{
  "address": "0x39C6FB4eDa9B7C57ba0437b23974c50764dF8660",
  "abi": [
    {
      "anonymous": false,
      "inputs": [
        {
          "indexed": false,
          "internalType": "address",
          "name": "account",
          "type": "address"
        }
      ],
      "name": "Paused",
      "type": "event"
    },
    {
      "anonymous": false,
      "inputs": [
        {
          "indexed": true,
          "internalType": "bytes32",
          "name": "role",
          "type": "bytes32"
        },
        {
          "indexed": true,
          "internalType": "bytes32",
          "name": "previousAdminRole",
          "type": "bytes32"
        },
        {
          "indexed": true,
          "internalType": "bytes32",
          "name": "newAdminRole",
          "type": "bytes32"
        }
      ],
      "name": "RoleAdminChanged",
      "type": "event"
    },
    {
      "anonymous": false,
      "inputs": [
        {
          "indexed": true,
          "internalType": "bytes32",
          "name": "role",
          "type": "bytes32"
        },
        {
          "indexed": true,
          "internalType": "address",
          "name": "account",
          "type": "address"
        },
        {
          "indexed": true,
          "internalType": "address",
          "name": "sender",
          "type": "address"
        }
      ],
      "name": "RoleGranted",
      "type": "event"
    },
    {
      "anonymous": false,
      "inputs": [
        {
          "indexed": true,
          "internalType": "bytes32",
          "name": "role",
          "type": "bytes32"
        },
        {
          "indexed": true,
          "internalType": "address",
          "name": "account",
          "type": "address"
        },
        {
          "indexed": true,
          "internalType": "address",
          "name": "sender",
          "type": "address"
        }
      ],
      "name": "RoleRevoked",
      "type": "event"
    },
    {
      "anonymous": false,
      "inputs": [
        {
          "indexed": false,
          "internalType": "address",
          "name": "from",
          "type": "address"
        },
        {
          "indexed": false,
          "internalType": "uint256",
          "name": "amount",
          "type": "uint256"
        }
      ],
      "name": "Stake",
      "type": "event"
    },
    {
      "anonymous": false,
      "inputs": [
        {
          "indexed": false,
          "internalType": "address",
          "name": "account",
          "type": "address"
        }
      ],
      "name": "Unpaused",
      "type": "event"
    },
    {
      "anonymous": false,
      "inputs": [
        {
          "indexed": false,
          "internalType": "address",
          "name": "from",
          "type": "address"
        },
        {
          "indexed": false,
          "internalType": "uint256",
          "name": "amount",
          "type": "uint256"
        }
      ],
      "name": "Unstake",
      "type": "event"
    },
    {
      "inputs": [],
      "name": "DEFAULT_ADMIN_ROLE",
      "outputs": [
        {
          "internalType": "bytes32",
          "name": "",
          "type": "bytes32"
        }
      ],
      "stateMutability": "view",
      "type": "function"
    },
    {
      "inputs": [],
      "name": "__JoblessYield_init",
      "outputs": [],
      "stateMutability": "nonpayable",
      "type": "function"
    },
    {
      "inputs": [],
      "name": "__KWBTCYield_init",
      "outputs": [],
      "stateMutability": "nonpayable",
      "type": "function"
    },
    {
      "inputs": [],
      "name": "_totalAmount",
      "outputs": [
        {
          "internalType": "uint256",
          "name": "",
          "type": "uint256"
        }
      ],
      "stateMutability": "view",
      "type": "function"
    },
    {
      "inputs": [],
      "name": "applyProfit",
      "outputs": [
        {
          "internalType": "uint256",
          "name": "ksdAmount",
          "type": "uint256"
        }
      ],
      "stateMutability": "nonpayable",
      "type": "function"
    },
    {
      "inputs": [
        {
          "internalType": "bytes32",
          "name": "what",
          "type": "bytes32"
        },
        {
          "internalType": "address",
          "name": "data",
          "type": "address"
        }
      ],
      "name": "config",
      "outputs": [],
      "stateMutability": "nonpayable",
      "type": "function"
    },
    {
      "inputs": [],
      "name": "expectedApr",
      "outputs": [
        {
          "internalType": "uint256",
          "name": "",
          "type": "uint256"
        }
      ],
      "stateMutability": "view",
      "type": "function"
    },
    {
      "inputs": [
        {
          "internalType": "bytes32",
          "name": "role",
          "type": "bytes32"
        }
      ],
      "name": "getRoleAdmin",
      "outputs": [
        {
          "internalType": "bytes32",
          "name": "",
          "type": "bytes32"
        }
      ],
      "stateMutability": "view",
      "type": "function"
    },
    {
      "inputs": [
        {
          "internalType": "bytes32",
          "name": "role",
          "type": "bytes32"
        },
        {
          "internalType": "address",
          "name": "account",
          "type": "address"
        }
      ],
      "name": "grantRole",
      "outputs": [],
      "stateMutability": "nonpayable",
      "type": "function"
    },
    {
      "inputs": [
        {
          "internalType": "bytes32",
          "name": "role",
          "type": "bytes32"
        },
        {
          "internalType": "address",
          "name": "account",
          "type": "address"
        }
      ],
      "name": "hasRole",
      "outputs": [
        {
          "internalType": "bool",
          "name": "",
          "type": "bool"
        }
      ],
      "stateMutability": "view",
      "type": "function"
    },
    {
      "inputs": [],
      "name": "pause",
      "outputs": [],
      "stateMutability": "nonpayable",
      "type": "function"
    },
    {
      "inputs": [],
      "name": "paused",
      "outputs": [
        {
          "internalType": "bool",
          "name": "",
          "type": "bool"
        }
      ],
      "stateMutability": "view",
      "type": "function"
    },
    {
      "inputs": [],
      "name": "receiver",
      "outputs": [
        {
          "internalType": "address",
          "name": "",
          "type": "address"
        }
      ],
      "stateMutability": "view",
      "type": "function"
    },
    {
      "inputs": [
        {
          "internalType": "bytes32",
          "name": "role",
          "type": "bytes32"
        },
        {
          "internalType": "address",
          "name": "account",
          "type": "address"
        }
      ],
      "name": "renounceRole",
      "outputs": [],
      "stateMutability": "nonpayable",
      "type": "function"
    },
    {
      "inputs": [
        {
          "internalType": "bytes32",
          "name": "role",
          "type": "bytes32"
        },
        {
          "internalType": "address",
          "name": "account",
          "type": "address"
        }
      ],
      "name": "revokeRole",
      "outputs": [],
      "stateMutability": "nonpayable",
      "type": "function"
    },
    {
      "inputs": [
        {
          "internalType": "uint256",
          "name": "tokenAmount",
          "type": "uint256"
        }
      ],
      "name": "stake",
      "outputs": [],
      "stateMutability": "nonpayable",
      "type": "function"
    },
    {
      "inputs": [
        {
          "internalType": "uint256",
          "name": "value",
          "type": "uint256"
        }
      ],
      "name": "toAmount",
      "outputs": [
        {
          "internalType": "uint256",
          "name": "",
          "type": "uint256"
        }
      ],
      "stateMutability": "view",
      "type": "function"
    },
    {
      "inputs": [
        {
          "internalType": "uint256",
          "name": "tokenAmount",
          "type": "uint256"
        }
      ],
      "name": "toValue",
      "outputs": [
        {
          "internalType": "uint256",
          "name": "",
          "type": "uint256"
        }
      ],
      "stateMutability": "view",
      "type": "function"
    },
    {
      "inputs": [],
      "name": "token",
      "outputs": [
        {
          "internalType": "contract IKIP7",
          "name": "",
          "type": "address"
        }
      ],
      "stateMutability": "view",
      "type": "function"
    },
    {
      "inputs": [],
      "name": "totalAmount",
      "outputs": [
        {
          "internalType": "uint256",
          "name": "",
          "type": "uint256"
        }
      ],
      "stateMutability": "view",
      "type": "function"
    },
    {
      "inputs": [],
      "name": "totalValue",
      "outputs": [
        {
          "internalType": "uint256",
          "name": "",
          "type": "uint256"
        }
      ],
      "stateMutability": "view",
      "type": "function"
    },
    {
      "inputs": [
        {
          "internalType": "address",
          "name": "newOwner",
          "type": "address"
        }
      ],
      "name": "transferOwnership",
      "outputs": [],
      "stateMutability": "nonpayable",
      "type": "function"
    },
    {
      "inputs": [],
      "name": "unpause",
      "outputs": [],
      "stateMutability": "nonpayable",
      "type": "function"
    },
    {
      "inputs": [
        {
          "internalType": "uint256",
          "name": "tokenAmount",
          "type": "uint256"
        }
      ],
      "name": "unstake",
      "outputs": [],
      "stateMutability": "nonpayable",
      "type": "function"
    },
    {
      "inputs": [],
      "name": "yieldFactory",
      "outputs": [
        {
          "internalType": "address",
          "name": "",
          "type": "address"
        }
      ],
      "stateMutability": "view",
      "type": "function"
    }
  ],
  "transactionHash": "0x08dd7c061592e6139df9fbd8a2bde0465cc59b7314f1438139a6f715b0afb358",
  "args": [],
  "solcInputHash": "daac9cba34dfabe5953ff704314717f0",
  "bytecode": "0x608060405234801561001057600080fd5b50610e6b806100206000396000f3fe608060405234801561001057600080fd5b50600436106101735760003560e01c806391d14854116100de578063d4c3eea011610097578063f2fde38b11610071578063f2fde38b146102bc578063f648fc0d14610221578063f7260d3e146102cf578063fc0c546a146102e257610173565b8063d4c3eea0146101b2578063d547741f146102a2578063df63c8b6146102b557610173565b806391d1485414610251578063a217fddf14610264578063a21fc4021461026c578063a694fc3a14610274578063cf712f6f14610287578063d366f3b91461028f57610173565b806336568abe1161013057806336568abe146101fd5780633bbeaab5146102105780633f4ba83a146102195780634c41dd96146102215780635c975abb146102325780638456cb591461024957610173565b806316fd84f71461017857806319c1b49f146101a85780631a39d8ef146101b2578063248a9ca3146101c45780632e17de78146101d75780632f2ff15d146101ea575b600080fd5b60035461018b906001600160a01b031681565b6040516001600160a01b0390911681526020015b60405180910390f35b6101b06102fa565b005b6004545b60405190815260200161019f565b6101b66101d2366004610d35565b610381565b6101b06101e5366004610d35565b61039a565b6101b06101f8366004610d4d565b6104b1565b6101b061020b366004610d4d565b6104d3565b6101b660045481565b6101b0610551565b6101b661022f366004610d35565b90565b60025460ff165b604051901515815260200161019f565b6101b06105e8565b61023961025f366004610d4d565b61065c565b6101b6600081565b6101b0610687565b6101b0610282366004610d35565b6106f0565b6101b6610801565b6101b061029d366004610d4d565b61081b565b6101b06102b0366004610d4d565b610924565b60016101b6565b6101b06102ca366004610cf4565b610941565b60055461018b906001600160a01b031681565b60025461018b9061010090046001600160a01b031681565b600054610100900460ff168061030f5750303b155b8061031d575060005460ff16155b6103425760405162461bcd60e51b815260040161033990610da2565b60405180910390fd5b600054610100900460ff16158015610364576000805461ffff19166101011790555b61036c610977565b801561037e576000805461ff00191690555b50565b600081815260016020819052604090912001545b919050565b6103ac6430b236b4b760d91b33610a0e565b60025460ff16156103cf5760405162461bcd60e51b815260040161033990610d78565b60025460055460405163a9059cbb60e01b81526001600160a01b03918216600482015260248101849052610100909204169063a9059cbb90604401602060405180830381600087803b15801561042457600080fd5b505af1158015610438573d6000803e3d6000fd5b505050506040513d601f19601f8201168201806040525081019061045c9190610d15565b50806004600082825461046f9190610e08565b909155505060408051338152602081018390527f85082129d87b2fe11527cb1b3b7a520aeb5aa6913f88a3d8757fe40d1db02fdd91015b60405180910390a150565b6104ba82610381565b6104c48133610a0e565b6104ce8383610a72565b505050565b6001600160a01b03811633146105435760405162461bcd60e51b815260206004820152602f60248201527f416363657373436f6e74726f6c3a2063616e206f6e6c792072656e6f756e636560448201526e103937b632b9903337b91039b2b63360891b6064820152608401610339565b61054d8282610add565b5050565b60025460ff1661059a5760405162461bcd60e51b815260206004820152601460248201527314185d5cd8589b194e881b9bdd081c185d5cd95960621b6044820152606401610339565b653830bab9b2b960d11b6105ae8133610a0e565b6002805460ff191690556040513381527f5db9ee0a495bf2e6ff9c91a7834c1ba4fdd244a5e8aa4e537bd38aeae4b073aa906020016104a6565b60025460ff161561060b5760405162461bcd60e51b815260040161033990610d78565b653830bab9b2b960d11b61061f8133610a0e565b6002805460ff191660011790556040513381527f62e78cea01bee320cd4e420270b5ea74000d11b0c9f74754ebdbfc544b05a258906020016104a6565b60009182526001602090815260408084206001600160a01b0393909316845291905290205460ff1690565b600054610100900460ff168061069c5750303b155b806106aa575060005460ff16155b6106c65760405162461bcd60e51b815260040161033990610da2565b600054610100900460ff161580156106e8576000805461ffff19166101011790555b61036c6102fa565b6107026430b236b4b760d91b33610a0e565b60025460ff16156107255760405162461bcd60e51b815260040161033990610d78565b6002546040516323b872dd60e01b8152336004820152306024820152604481018390526101009091046001600160a01b0316906323b872dd90606401602060405180830381600087803b15801561077b57600080fd5b505af115801561078f573d6000803e3d6000fd5b505050506040513d601f19601f820116820180604052508101906107b39190610d15565b5080600460008282546107c69190610df0565b909155505060408051338152602081018390527febedb8b3c678666e7f36970bc8f57abf6d8fa2e828c0da91ea5b75bf68ed101a91016104a6565b60006108156430b236b4b760d91b33610a0e565b50600090565b61082d6430b236b4b760d91b33610a0e565b81643a37b5b2b760d91b14156108625760028054610100600160a81b0319166101006001600160a01b0384160217905561054d565b816b7969656c64466163746f727960a01b141561089957600380546001600160a01b0319166001600160a01b03831617905561054d565b81673932b1b2b4bb32b960c11b14156108cc57600580546001600160a01b0319166001600160a01b03831617905561054d565b60405162461bcd60e51b815260206004820152602760248201527f4a6f626c6573735969656c643a3a636f6e6669673a756e7265636f676e697a65604482015266642d706172616d60c81b6064820152608401610339565b61092d82610381565b6109378133610a0e565b6104ce8383610add565b6109536437bbb732b960d91b33610a0e565b6109656437bbb732b960d91b82610a72565b61037e6437bbb732b960d91b33610add565b600054610100900460ff168061098c5750303b155b8061099a575060005460ff16155b6109b65760405162461bcd60e51b815260040161033990610da2565b600054610100900460ff161580156109d8576000805461ffff19166101011790555b6109e0610b44565b6109fb653830bab9b2b960d11b6437bbb732b960d91b610bad565b61036c653830bab9b2b960d11b33610c02565b610a18828261065c565b61054d5760405162461bcd60e51b815260206004820152602560248201527f416363657373436f6e74726f6c3a5f636865636b526f6c653a696e76616c696460448201526420726f6c6560d81b6064820152608401610339565b610a7c828261065c565b61054d5760008281526001602081815260408084206001600160a01b0386168086529252808420805460ff19169093179092559051339285917f2f8788117e7eff1d82e926ec794901d17c78024a50270940304540a733656f0d9190a45050565b610ae7828261065c565b1561054d5760008281526001602090815260408083206001600160a01b0385168085529252808320805460ff1916905551339285917ff6391f5c32d9c69d2a47ea670b442974b53935d1edc7fd64eb21e047a839171b9190a45050565b600054610100900460ff1680610b595750303b155b80610b67575060005460ff16155b610b835760405162461bcd60e51b815260040161033990610da2565b600054610100900460ff16158015610ba5576000805461ffff19166101011790555b61036c610c0c565b6000610bb883610381565b6000848152600160208190526040808320909101859055519192508391839186917fbd79b86ffe0ab8e8776151514217cd7cacd52c909f66475c3af44e129f0b00ff9190a4505050565b61054d8282610a72565b600054610100900460ff1680610c215750303b155b80610c2f575060005460ff16155b610c4b5760405162461bcd60e51b815260040161033990610da2565b600054610100900460ff16158015610c6d576000805461ffff19166101011790555b610c7f6437bbb732b960d91b33610c02565b610c996430b236b4b760d91b6437bbb732b960d91b610bad565b610cb66737b832b930ba37b960c11b6437bbb732b960d91b610bad565b610cc86430b236b4b760d91b33610c02565b61036c6737b832b930ba37b960c11b33610c02565b80356001600160a01b038116811461039557600080fd5b600060208284031215610d05578081fd5b610d0e82610cdd565b9392505050565b600060208284031215610d26578081fd5b81518015158114610d0e578182fd5b600060208284031215610d46578081fd5b5035919050565b60008060408385031215610d5f578081fd5b82359150610d6f60208401610cdd565b90509250929050565b60208082526010908201526f14185d5cd8589b194e881c185d5cd95960821b604082015260600190565b6020808252602e908201527f496e697469616c697a61626c653a20636f6e747261637420697320616c72656160408201526d191e481a5b9a5d1a585b1a5e995960921b606082015260800190565b60008219821115610e0357610e03610e1f565b500190565b600082821015610e1a57610e1a610e1f565b500390565b634e487b7160e01b600052601160045260246000fdfea2646970667358221220f8ef70ef0ac5fb08d6f1a5f088b5ecfd26ec7d64e865493d0ac4567e9df0131664736f6c63430008030033",
  "devdoc": {
    "kind": "dev",
    "methods": {
      "stake(uint256)": {
        "params": {
          "tokenAmount": "Amount of token to stake."
        }
      },
      "unstake(uint256)": {
        "params": {
          "tokenAmount": "Amount of token to unstake."
        }
      }
    },
    "version": 1
  },
  "userdoc": {
    "kind": "user",
    "methods": {
      "applyProfit()": {
        "notice": "Convert the generated reward to ksd and distribute it to the beneficiaries."
      },
      "expectedApr()": {
        "notice": "expected apr of this yield"
      },
      "stake(uint256)": {
        "notice": "stake token to this contract"
      },
      "unstake(uint256)": {
        "notice": "unstake token from this contract."
      }
    },
    "version": 1
  },
  "storageLayout": {
    "storage": [
      {
        "astId": 23220,
        "contract": "contracts/collateral/KWBTC/KWBTCYield.sol:KWBTCYield",
        "label": "_initialized",
        "offset": 0,
        "slot": "0",
        "type": "t_bool"
      },
      {
        "astId": 23223,
        "contract": "contracts/collateral/KWBTC/KWBTCYield.sol:KWBTCYield",
        "label": "_initializing",
        "offset": 1,
        "slot": "0",
        "type": "t_bool"
      },
      {
        "astId": 20166,
        "contract": "contracts/collateral/KWBTC/KWBTCYield.sol:KWBTCYield",
        "label": "_roles",
        "offset": 0,
        "slot": "1",
        "type": "t_mapping(t_bytes32,t_struct(RoleData)20161_storage)"
      },
      {
        "astId": 20556,
        "contract": "contracts/collateral/KWBTC/KWBTCYield.sol:KWBTCYield",
        "label": "_paused",
        "offset": 0,
        "slot": "2",
        "type": "t_bool"
      },
      {
        "astId": 39860,
        "contract": "contracts/collateral/KWBTC/KWBTCYield.sol:KWBTCYield",
        "label": "token",
        "offset": 1,
        "slot": "2",
        "type": "t_contract(IKIP7)9881"
      },
      {
        "astId": 39862,
        "contract": "contracts/collateral/KWBTC/KWBTCYield.sol:KWBTCYield",
        "label": "yieldFactory",
        "offset": 0,
        "slot": "3",
        "type": "t_address"
      },
      {
        "astId": 39864,
        "contract": "contracts/collateral/KWBTC/KWBTCYield.sol:KWBTCYield",
        "label": "_totalAmount",
        "offset": 0,
        "slot": "4",
        "type": "t_uint256"
      },
      {
        "astId": 39866,
        "contract": "contracts/collateral/KWBTC/KWBTCYield.sol:KWBTCYield",
        "label": "receiver",
        "offset": 0,
        "slot": "5",
        "type": "t_address"
      }
    ],
    "types": {
      "t_address": {
        "encoding": "inplace",
        "label": "address",
        "numberOfBytes": "20"
      },
      "t_bool": {
        "encoding": "inplace",
        "label": "bool",
        "numberOfBytes": "1"
      },
      "t_bytes32": {
        "encoding": "inplace",
        "label": "bytes32",
        "numberOfBytes": "32"
      },
      "t_contract(IKIP7)9881": {
        "encoding": "inplace",
        "label": "contract IKIP7",
        "numberOfBytes": "20"
      },
      "t_mapping(t_address,t_bool)": {
        "encoding": "mapping",
        "key": "t_address",
        "label": "mapping(address => bool)",
        "numberOfBytes": "32",
        "value": "t_bool"
      },
      "t_mapping(t_bytes32,t_struct(RoleData)20161_storage)": {
        "encoding": "mapping",
        "key": "t_bytes32",
        "label": "mapping(bytes32 => struct AccessControl.RoleData)",
        "numberOfBytes": "32",
        "value": "t_struct(RoleData)20161_storage"
      },
      "t_struct(RoleData)20161_storage": {
        "encoding": "inplace",
        "label": "struct AccessControl.RoleData",
        "members": [
          {
            "astId": 20158,
            "contract": "contracts/collateral/KWBTC/KWBTCYield.sol:KWBTCYield",
            "label": "members",
            "offset": 0,
            "slot": "0",
            "type": "t_mapping(t_address,t_bool)"
          },
          {
            "astId": 20160,
            "contract": "contracts/collateral/KWBTC/KWBTCYield.sol:KWBTCYield",
            "label": "adminRole",
            "offset": 0,
            "slot": "1",
            "type": "t_bytes32"
          }
        ],
        "numberOfBytes": "64"
      },
      "t_uint256": {
        "encoding": "inplace",
        "label": "uint256",
        "numberOfBytes": "32"
      }
    }
  }
}