{
  "address": "0xd62AC899B9ecCE5F9bD6b5D74aA76D616FAE9CB9",
  "abi": [
    {
      "anonymous": false,
      "inputs": [
        {
          "indexed": false,
          "internalType": "bytes32",
          "name": "collateralType",
          "type": "bytes32"
        },
        {
          "indexed": false,
          "internalType": "address",
          "name": "vault",
          "type": "address"
        },
        {
          "indexed": false,
          "internalType": "uint256",
          "name": "lockedCollateral",
          "type": "uint256"
        },
        {
          "indexed": false,
          "internalType": "uint256",
          "name": "loan",
          "type": "uint256"
        }
      ],
      "name": "AccountChanged",
      "type": "event"
    },
    {
      "anonymous": false,
      "inputs": [
        {
          "indexed": false,
          "internalType": "bytes32",
          "name": "collateralType",
          "type": "bytes32"
        },
        {
          "indexed": false,
          "internalType": "address",
          "name": "usr",
          "type": "address"
        },
        {
          "indexed": false,
          "internalType": "int256",
          "name": "amount",
          "type": "int256"
        }
      ],
      "name": "CollateralChanged",
      "type": "event"
    },
    {
      "anonymous": false,
      "inputs": [
        {
          "indexed": false,
          "internalType": "address",
          "name": "usr",
          "type": "address"
        },
        {
          "indexed": false,
          "internalType": "int256",
          "name": "amount",
          "type": "int256"
        }
      ],
      "name": "KSDChanged",
      "type": "event"
    },
    {
      "anonymous": false,
      "inputs": [
        {
          "indexed": false,
          "internalType": "bytes32",
          "name": "collateralType",
          "type": "bytes32"
        },
        {
          "indexed": false,
          "internalType": "address",
          "name": "debtor",
          "type": "address"
        },
        {
          "indexed": false,
          "internalType": "address",
          "name": "collateralVault",
          "type": "address"
        },
        {
          "indexed": false,
          "internalType": "address",
          "name": "ksdVault",
          "type": "address"
        },
        {
          "indexed": false,
          "internalType": "int256",
          "name": "collateralAmount",
          "type": "int256"
        },
        {
          "indexed": false,
          "internalType": "int256",
          "name": "loanAmount",
          "type": "int256"
        }
      ],
      "name": "LoanChanged",
      "type": "event"
    },
    {
      "anonymous": false,
      "inputs": [
        {
          "indexed": false,
          "internalType": "address",
          "name": "account",
          "type": "address"
        }
      ],
      "name": "Paused",
      "type": "event"
    },
    {
      "anonymous": false,
      "inputs": [
        {
          "indexed": true,
          "internalType": "bytes32",
          "name": "role",
          "type": "bytes32"
        },
        {
          "indexed": true,
          "internalType": "bytes32",
          "name": "previousAdminRole",
          "type": "bytes32"
        },
        {
          "indexed": true,
          "internalType": "bytes32",
          "name": "newAdminRole",
          "type": "bytes32"
        }
      ],
      "name": "RoleAdminChanged",
      "type": "event"
    },
    {
      "anonymous": false,
      "inputs": [
        {
          "indexed": true,
          "internalType": "bytes32",
          "name": "role",
          "type": "bytes32"
        },
        {
          "indexed": true,
          "internalType": "address",
          "name": "account",
          "type": "address"
        },
        {
          "indexed": true,
          "internalType": "address",
          "name": "sender",
          "type": "address"
        }
      ],
      "name": "RoleGranted",
      "type": "event"
    },
    {
      "anonymous": false,
      "inputs": [
        {
          "indexed": true,
          "internalType": "bytes32",
          "name": "role",
          "type": "bytes32"
        },
        {
          "indexed": true,
          "internalType": "address",
          "name": "account",
          "type": "address"
        },
        {
          "indexed": true,
          "internalType": "address",
          "name": "sender",
          "type": "address"
        }
      ],
      "name": "RoleRevoked",
      "type": "event"
    },
    {
      "anonymous": false,
      "inputs": [
        {
          "indexed": false,
          "internalType": "address",
          "name": "account",
          "type": "address"
        }
      ],
      "name": "Unpaused",
      "type": "event"
    },
    {
      "inputs": [],
      "name": "DEFAULT_ADMIN_ROLE",
      "outputs": [
        {
          "internalType": "bytes32",
          "name": "",
          "type": "bytes32"
        }
      ],
      "stateMutability": "view",
      "type": "function"
    },
    {
      "inputs": [],
      "name": "__Ledger_init",
      "outputs": [],
      "stateMutability": "nonpayable",
      "type": "function"
    },
    {
      "inputs": [
        {
          "internalType": "bytes32",
          "name": "",
          "type": "bytes32"
        },
        {
          "internalType": "uint256",
          "name": "",
          "type": "uint256"
        }
      ],
      "name": "accountByIndex",
      "outputs": [
        {
          "internalType": "address",
          "name": "",
          "type": "address"
        }
      ],
      "stateMutability": "view",
      "type": "function"
    },
    {
      "inputs": [
        {
          "internalType": "bytes32",
          "name": "",
          "type": "bytes32"
        },
        {
          "internalType": "address",
          "name": "",
          "type": "address"
        }
      ],
      "name": "accountIndex",
      "outputs": [
        {
          "internalType": "uint256",
          "name": "",
          "type": "uint256"
        }
      ],
      "stateMutability": "view",
      "type": "function"
    },
    {
      "inputs": [
        {
          "internalType": "bytes32",
          "name": "",
          "type": "bytes32"
        },
        {
          "internalType": "address",
          "name": "",
          "type": "address"
        }
      ],
      "name": "accountInfo",
      "outputs": [
        {
          "internalType": "uint256",
          "name": "lockedCollateral",
          "type": "uint256"
        },
        {
          "internalType": "uint256",
          "name": "loan",
          "type": "uint256"
        }
      ],
      "stateMutability": "view",
      "type": "function"
    },
    {
      "inputs": [
        {
          "internalType": "bytes32",
          "name": "",
          "type": "bytes32"
        }
      ],
      "name": "accountLength",
      "outputs": [
        {
          "internalType": "uint256",
          "name": "",
          "type": "uint256"
        }
      ],
      "stateMutability": "view",
      "type": "function"
    },
    {
      "inputs": [
        {
          "internalType": "bytes32",
          "name": "collateralType",
          "type": "bytes32"
        },
        {
          "internalType": "address",
          "name": "debtor",
          "type": "address"
        },
        {
          "internalType": "address",
          "name": "collateralVault",
          "type": "address"
        },
        {
          "internalType": "address",
          "name": "ksdVault",
          "type": "address"
        },
        {
          "internalType": "int256",
          "name": "collateralAmount",
          "type": "int256"
        },
        {
          "internalType": "int256",
          "name": "loanAmount",
          "type": "int256"
        }
      ],
      "name": "actionLoan",
      "outputs": [],
      "stateMutability": "nonpayable",
      "type": "function"
    },
    {
      "inputs": [
        {
          "internalType": "bytes32",
          "name": "collateralType",
          "type": "bytes32"
        },
        {
          "internalType": "address",
          "name": "usr",
          "type": "address"
        },
        {
          "internalType": "int256",
          "name": "amount",
          "type": "int256"
        }
      ],
      "name": "addCollateral",
      "outputs": [],
      "stateMutability": "nonpayable",
      "type": "function"
    },
    {
      "inputs": [],
      "name": "addressBook",
      "outputs": [
        {
          "internalType": "contract IAddressBook",
          "name": "",
          "type": "address"
        }
      ],
      "stateMutability": "view",
      "type": "function"
    },
    {
      "inputs": [
        {
          "internalType": "address",
          "name": "usr",
          "type": "address"
        }
      ],
      "name": "allow",
      "outputs": [],
      "stateMutability": "nonpayable",
      "type": "function"
    },
    {
      "inputs": [
        {
          "internalType": "address",
          "name": "",
          "type": "address"
        },
        {
          "internalType": "address",
          "name": "",
          "type": "address"
        }
      ],
      "name": "can",
      "outputs": [
        {
          "internalType": "bool",
          "name": "",
          "type": "bool"
        }
      ],
      "stateMutability": "view",
      "type": "function"
    },
    {
      "inputs": [
        {
          "internalType": "bytes32",
          "name": "",
          "type": "bytes32"
        }
      ],
      "name": "collateralInfo",
      "outputs": [
        {
          "internalType": "uint256",
          "name": "totalLockedCollateral",
          "type": "uint256"
        },
        {
          "internalType": "uint256",
          "name": "totalLoan",
          "type": "uint256"
        },
        {
          "internalType": "uint256",
          "name": "rate",
          "type": "uint256"
        },
        {
          "internalType": "uint256",
          "name": "spot",
          "type": "uint256"
        },
        {
          "internalType": "uint256",
          "name": "line",
          "type": "uint256"
        },
        {
          "internalType": "uint256",
          "name": "dust",
          "type": "uint256"
        }
      ],
      "stateMutability": "view",
      "type": "function"
    },
    {
      "inputs": [
        {
          "internalType": "bytes32[]",
          "name": "collateralTypes",
          "type": "bytes32[]"
        }
      ],
      "name": "collateralInfos",
      "outputs": [
        {
          "internalType": "uint256[]",
          "name": "totalLockedCollateralList",
          "type": "uint256[]"
        },
        {
          "internalType": "uint256[]",
          "name": "totalLoanList",
          "type": "uint256[]"
        },
        {
          "internalType": "uint256[]",
          "name": "rateList",
          "type": "uint256[]"
        },
        {
          "internalType": "uint256[]",
          "name": "spotList",
          "type": "uint256[]"
        },
        {
          "internalType": "uint256[]",
          "name": "lineList",
          "type": "uint256[]"
        },
        {
          "internalType": "uint256[]",
          "name": "dustList",
          "type": "uint256[]"
        }
      ],
      "stateMutability": "view",
      "type": "function"
    },
    {
      "inputs": [
        {
          "internalType": "bytes32",
          "name": "collateralType",
          "type": "bytes32"
        },
        {
          "internalType": "address",
          "name": "ksdReceiver",
          "type": "address"
        },
        {
          "internalType": "int256",
          "name": "rateDiff",
          "type": "int256"
        }
      ],
      "name": "collectStabilityFee",
      "outputs": [],
      "stateMutability": "nonpayable",
      "type": "function"
    },
    {
      "inputs": [
        {
          "internalType": "bytes32",
          "name": "collateralType",
          "type": "bytes32"
        },
        {
          "internalType": "bytes32",
          "name": "what",
          "type": "bytes32"
        },
        {
          "internalType": "uint256",
          "name": "data",
          "type": "uint256"
        }
      ],
      "name": "config",
      "outputs": [],
      "stateMutability": "nonpayable",
      "type": "function"
    },
    {
      "inputs": [
        {
          "internalType": "bytes32",
          "name": "what",
          "type": "bytes32"
        },
        {
          "internalType": "address",
          "name": "data",
          "type": "address"
        }
      ],
      "name": "config",
      "outputs": [],
      "stateMutability": "nonpayable",
      "type": "function"
    },
    {
      "inputs": [
        {
          "internalType": "bytes32",
          "name": "what",
          "type": "bytes32"
        },
        {
          "internalType": "uint256",
          "name": "data",
          "type": "uint256"
        }
      ],
      "name": "config",
      "outputs": [],
      "stateMutability": "nonpayable",
      "type": "function"
    },
    {
      "inputs": [
        {
          "internalType": "address",
          "name": "usr",
          "type": "address"
        }
      ],
      "name": "disallow",
      "outputs": [],
      "stateMutability": "nonpayable",
      "type": "function"
    },
    {
      "inputs": [
        {
          "internalType": "bytes32",
          "name": "collateralType",
          "type": "bytes32"
        },
        {
          "internalType": "address",
          "name": "src",
          "type": "address"
        },
        {
          "internalType": "address",
          "name": "dst",
          "type": "address"
        },
        {
          "internalType": "int256",
          "name": "collateralAmount",
          "type": "int256"
        },
        {
          "internalType": "int256",
          "name": "loanAmount",
          "type": "int256"
        }
      ],
      "name": "fork",
      "outputs": [],
      "stateMutability": "nonpayable",
      "type": "function"
    },
    {
      "inputs": [
        {
          "internalType": "bytes32",
          "name": "role",
          "type": "bytes32"
        }
      ],
      "name": "getRoleAdmin",
      "outputs": [
        {
          "internalType": "bytes32",
          "name": "",
          "type": "bytes32"
        }
      ],
      "stateMutability": "view",
      "type": "function"
    },
    {
      "inputs": [
        {
          "internalType": "bytes32",
          "name": "collateralType",
          "type": "bytes32"
        },
        {
          "internalType": "address",
          "name": "debtor",
          "type": "address"
        },
        {
          "internalType": "address",
          "name": "collateralVault",
          "type": "address"
        },
        {
          "internalType": "address",
          "name": "ksdVault",
          "type": "address"
        },
        {
          "internalType": "int256",
          "name": "collateralAmount",
          "type": "int256"
        },
        {
          "internalType": "int256",
          "name": "loanAmount",
          "type": "int256"
        }
      ],
      "name": "grab",
      "outputs": [],
      "stateMutability": "nonpayable",
      "type": "function"
    },
    {
      "inputs": [
        {
          "internalType": "bytes32",
          "name": "role",
          "type": "bytes32"
        },
        {
          "internalType": "address",
          "name": "account",
          "type": "address"
        }
      ],
      "name": "grantRole",
      "outputs": [],
      "stateMutability": "nonpayable",
      "type": "function"
    },
    {
      "inputs": [
        {
          "internalType": "bytes32",
          "name": "role",
          "type": "bytes32"
        },
        {
          "internalType": "address",
          "name": "account",
          "type": "address"
        }
      ],
      "name": "hasRole",
      "outputs": [
        {
          "internalType": "bool",
          "name": "",
          "type": "bool"
        }
      ],
      "stateMutability": "view",
      "type": "function"
    },
    {
      "inputs": [
        {
          "internalType": "uint256",
          "name": "amount",
          "type": "uint256"
        }
      ],
      "name": "heal",
      "outputs": [],
      "stateMutability": "nonpayable",
      "type": "function"
    },
    {
      "inputs": [
        {
          "internalType": "bytes32",
          "name": "collateralType",
          "type": "bytes32"
        }
      ],
      "name": "init",
      "outputs": [],
      "stateMutability": "nonpayable",
      "type": "function"
    },
    {
      "inputs": [
        {
          "internalType": "address",
          "name": "",
          "type": "address"
        }
      ],
      "name": "ksd",
      "outputs": [
        {
          "internalType": "uint256",
          "name": "",
          "type": "uint256"
        }
      ],
      "stateMutability": "view",
      "type": "function"
    },
    {
      "inputs": [],
      "name": "ksdRefundManager",
      "outputs": [
        {
          "internalType": "contract IKsdRefundManager",
          "name": "",
          "type": "address"
        }
      ],
      "stateMutability": "view",
      "type": "function"
    },
    {
      "inputs": [],
      "name": "line",
      "outputs": [
        {
          "internalType": "uint256",
          "name": "",
          "type": "uint256"
        }
      ],
      "stateMutability": "view",
      "type": "function"
    },
    {
      "inputs": [],
      "name": "pause",
      "outputs": [],
      "stateMutability": "nonpayable",
      "type": "function"
    },
    {
      "inputs": [],
      "name": "paused",
      "outputs": [
        {
          "internalType": "bool",
          "name": "",
          "type": "bool"
        }
      ],
      "stateMutability": "view",
      "type": "function"
    },
    {
      "inputs": [
        {
          "internalType": "bytes32",
          "name": "role",
          "type": "bytes32"
        },
        {
          "internalType": "address",
          "name": "account",
          "type": "address"
        }
      ],
      "name": "renounceRole",
      "outputs": [],
      "stateMutability": "nonpayable",
      "type": "function"
    },
    {
      "inputs": [
        {
          "internalType": "bytes32",
          "name": "role",
          "type": "bytes32"
        },
        {
          "internalType": "address",
          "name": "account",
          "type": "address"
        }
      ],
      "name": "revokeRole",
      "outputs": [],
      "stateMutability": "nonpayable",
      "type": "function"
    },
    {
      "inputs": [
        {
          "internalType": "bytes32",
          "name": "collateralType",
          "type": "bytes32"
        },
        {
          "internalType": "address",
          "name": "src",
          "type": "address"
        },
        {
          "internalType": "address",
          "name": "dst",
          "type": "address"
        },
        {
          "internalType": "uint256",
          "name": "amount",
          "type": "uint256"
        }
      ],
      "name": "sendCollateral",
      "outputs": [],
      "stateMutability": "nonpayable",
      "type": "function"
    },
    {
      "inputs": [
        {
          "internalType": "address",
          "name": "src",
          "type": "address"
        },
        {
          "internalType": "address",
          "name": "dst",
          "type": "address"
        },
        {
          "internalType": "uint256",
          "name": "amount",
          "type": "uint256"
        }
      ],
      "name": "sendKsd",
      "outputs": [],
      "stateMutability": "nonpayable",
      "type": "function"
    },
    {
      "inputs": [
        {
          "internalType": "address",
          "name": "",
          "type": "address"
        }
      ],
      "name": "sin",
      "outputs": [
        {
          "internalType": "uint256",
          "name": "",
          "type": "uint256"
        }
      ],
      "stateMutability": "view",
      "type": "function"
    },
    {
      "inputs": [
        {
          "internalType": "address",
          "name": "u",
          "type": "address"
        },
        {
          "internalType": "address",
          "name": "v",
          "type": "address"
        },
        {
          "internalType": "uint256",
          "name": "amount",
          "type": "uint256"
        }
      ],
      "name": "suck",
      "outputs": [],
      "stateMutability": "nonpayable",
      "type": "function"
    },
    {
      "inputs": [
        {
          "internalType": "bytes32",
          "name": "",
          "type": "bytes32"
        },
        {
          "internalType": "address",
          "name": "",
          "type": "address"
        }
      ],
      "name": "token",
      "outputs": [
        {
          "internalType": "uint256",
          "name": "",
          "type": "uint256"
        }
      ],
      "stateMutability": "view",
      "type": "function"
    },
    {
      "inputs": [],
      "name": "totalIssued",
      "outputs": [
        {
          "internalType": "uint256",
          "name": "",
          "type": "uint256"
        }
      ],
      "stateMutability": "view",
      "type": "function"
    },
    {
      "inputs": [
        {
          "internalType": "address",
          "name": "newOwner",
          "type": "address"
        }
      ],
      "name": "transferOwnership",
      "outputs": [],
      "stateMutability": "nonpayable",
      "type": "function"
    },
    {
      "inputs": [],
      "name": "unpause",
      "outputs": [],
      "stateMutability": "nonpayable",
      "type": "function"
    },
    {
      "inputs": [],
      "name": "vice",
      "outputs": [
        {
          "internalType": "uint256",
          "name": "",
          "type": "uint256"
        }
      ],
      "stateMutability": "view",
      "type": "function"
    },
    {
      "inputs": [],
      "name": "yieldManager",
      "outputs": [
        {
          "internalType": "contract IYieldManager",
          "name": "",
          "type": "address"
        }
      ],
      "stateMutability": "view",
      "type": "function"
    }
  ],
  "transactionHash": "0x542faaf243bc800479eec528d4ec7e1d2e5ad79ee18b1a582df60ac9ab0b4538",
  "args": [],
  "solcInputHash": "de4f5741dec2c2b2fd1b551e118f3df0",
  "bytecode": "0x608060405234801561001057600080fd5b506132e0806100206000396000f3fe608060405234801561001057600080fd5b506004361061025e5760003560e01c8063870c616d11610146578063daa36f76116100c3578063f24e23eb11610087578063f24e23eb14610674578063f2fde38b14610687578063f37ac61c1461069a578063f5887cdd146106ad578063f5be3193146106c0578063ff9913e8146106c95761025e565b8063daa36f76146105e9578063e0bed0411461060e578063e238a68614610621578063f059212a14610641578063f1b3cd99146106615761025e565b8063b75baf791161010a578063b75baf791461053e578063d295927a14610585578063d366f3b914610598578063d547741f146105ab578063d9a61aa5146105be5761025e565b8063870c616d146104cb57806391d14854146104de578063a217fddf146104f1578063a9ed9cb8146104f9578063b56b8353146105355761025e565b80634538c4eb116101df57806371ccecb6116101a357806371ccecb6146103fa5780637bab3f401461040d5780637d5422a71461042057806380b7af18146104905780638444493b146104a35780638456cb59146104c35761025e565b80634538c4eb146103605780634907582f1461039e578063560b4f27146103c95780635c975abb146103dc57806360a85824146103e75761025e565b80632f2ff15d116102265780632f2ff15d146102d357806336568abe146102e65780633b663195146102f95780633f466cb91461030c5780633f4ba83a146103585761025e565b80630d0a1d92146102635780631ce39ebf14610278578063248a9ca3146102805780632d61a355146102b75780632db80830146102c0575b600080fd5b610276610271366004612e48565b610708565b005b610276610f0e565b6102a461028e366004612e0c565b6000908152600160208190526040909120015490565b6040519081526020015b60405180910390f35b6102a4600d5481565b6102766102ce366004612d5c565b610f8c565b6102766102e1366004612e24565b611015565b6102766102f4366004612e24565b61103c565b610276610307366004612e0c565b6110ba565b61034061031a366004612f95565b60076020908152600092835260408084209091529082529020546001600160a01b031681565b6040516001600160a01b0390911681526020016102ae565b610276611160565b61038e61036e366004612d24565b600360209081526000928352604080842090915290825290205460ff1681565b60405190151581526020016102ae565b6102a46103ac366004612e24565b600960209081526000928352604080842090915290825290205481565b6102766103d7366004612f6a565b6111fe565b60025460ff1661038e565b6102766103f5366004612f44565b6112fe565b601054610340906001600160a01b031681565b61027661041b366004612e48565b61138a565b61046361042e366004612e0c565b600460208190526000918252604090912080546001820154600283015460038401549484015460059094015492949193909286565b604080519687526020870195909552938501929092526060840152608083015260a082015260c0016102ae565b601154610340906001600160a01b031681565b6102a46104b1366004612e0c565b60086020526000908152604090205481565b61027661162d565b6102766104d9366004612eac565b6116a1565b61038e6104ec366004612e24565b611c05565b6102a4600081565b610276610507366004612cec565b3360009081526003602090815260408083206001600160a01b0394909416835292905220805460ff19169055565b6102a4600e5481565b61057061054c366004612e24565b60056020908152600092835260408084209091529082529020805460019091015482565b604080519283526020830191909152016102ae565b610276610593366004612f44565b611c32565b6102766105a6366004612e24565b611c4f565b6102766105b9366004612e24565b611d2c565b6102a46105cc366004612e24565b600660209081526000928352604080842090915290825290205481565b6105fc6105f7366004612d9c565b611d53565b6040516102ae96959493929190612ff0565b61027661061c366004612f95565b612120565b6102a461062f366004612cec565b600a6020526000908152604090205481565b6102a461064f366004612cec565b600b6020526000908152604090205481565b61027661066f366004612efd565b61216e565b610276610682366004612d5c565b612199565b610276610695366004612cec565b61221c565b6102766106a8366004612e0c565b612252565b600f54610340906001600160a01b031681565b6102a4600c5481565b6102766106d7366004612cec565b3360009081526003602090815260408083206001600160a01b0394909416835292905220805460ff19166001179055565b60025460ff16156107345760405162461bcd60e51b815260040161072b906130a9565b60405180910390fd5b601154604051633a45095b60e01b8152600481018890526001600160a01b0390911690633a45095b9060240160206040518083038186803b15801561077857600080fd5b505afa15801561078c573d6000803e3d6000fd5b505050506040513d601f19601f820116820180604052508101906107b09190612d08565b6001600160a01b03166352e7fd616040518163ffffffff1660e01b8152600401600060405180830381600087803b1580156107ea57600080fd5b505af11580156107fe573d6000803e3d6000fd5b50505060008781526005602081815260408084206001600160a01b038b16855282528084208151808301835281548152600191820154818501528c8652600480855295839020835160c081018552815481529281015494830194909452600284015492820183905260038401546060830152948301546080820152919092015460a08201529192506108e65760405162461bcd60e51b815260206004820152602b60248201527f4c65646765723a3a616374696f6e4c6f616e3a20636f6c6c61746572616c496e60448201526a199bcb5b9bdd0b5a5b9a5d60aa1b606482015260840161072b565b600080841361092557610917610912836040015161090c876109079061324f565b6122b2565b90612308565b61241e565b6109209061324f565b610939565b610939610912836040015161090c876122b2565b600f5460405163f084b66960e01b8152600481018c905270189bdb99125cdcdd595912dcd9141bdbdb607a1b60248201529192506000916001600160a01b039091169063f084b6699060440160206040518083038186803b15801561099d57600080fd5b505afa1580156109b1573d6000803e3d6000fd5b505050506040513d601f19601f820116820180604052508101906109d59190612d08565b604051639c0ca52960e01b8152600481018490526001600160a01b038b8116602483015291925090821690639c0ca52990604401600060405180830381600087803b158015610a2357600080fd5b505af1158015610a37573d6000803e3d6000fd5b5050601054604051631569fd4360e11b8152600481018e9052602481018690526001600160a01b038d811660448301529091169250632ad3fa869150606401600060405180830381600087803b158015610a9057600080fd5b505af1158015610aa4573d6000803e3d6000fd5b50508551610ab59250905087612488565b84526020840151610ac69083612488565b60208501528251610ad79087612488565b83526020830151610ae89083612488565b60208401526040830151610b0a90610b01908490612537565b600c5490612488565b600c55600082131580610b435750826080015183604001518460200151610b3191906131fe565b11158015610b435750600e54600c5411155b610b9b5760405162461bcd60e51b8152602060048201526024808201527f4c65646765723a3a616374696f6e4c6f616e3a206365696c696e672d657863656044820152631959195960e21b606482015260840161072b565b60008213158015610bad575060008612155b80610bdb575060608301518451610bc491906131fe565b83604001518560200151610bd891906131fe565b11155b610c275760405162461bcd60e51b815260206004820152601b60248201527f4c65646765723a3a616374696f6e4c6f616e3a6e6f742d736166650000000000604482015260640161072b565b60008213158015610c39575060008612155b80610c495750610c498933612597565b610ca35760405162461bcd60e51b815260206004820152602560248201527f4c65646765723a3a616374696f6e4c6f616e3a6e6f742d616c6c6f7765642d6460448201526432b13a37b960d91b606482015260840161072b565b600086131580610cb85750610cb88833612597565b610d1c5760405162461bcd60e51b815260206004820152602f60248201527f4c65646765723a3a616374696f6e4c6f616e3a206e6f742d616c6c6f7765642d60448201526e18dbdb1b185d195c985b15985d5b1d608a1b606482015260840161072b565b600082121580610d315750610d318733612597565b610d8e5760405162461bcd60e51b815260206004820152602860248201527f4c65646765723a3a616374696f6e4c6f616e3a206e6f742d616c6c6f7765642d6044820152671adcd915985d5b1d60c21b606482015260840161072b565b60208401511580610db657508260a0015183604001518560200151610db391906131fe565b10155b610e025760405162461bcd60e51b815260206004820152601f60248201527f4c65646765723a3a616374696f6e4c6f616e3a696e76616c6964206475737400604482015260640161072b565b610e158a89610e108961324f565b6125f6565b610e3587610e3085604001518561253790919063ffffffff16565b61269a565b610e498a8a86600001518760200151612721565b60008a815260046020818152604092839020865181559086015160018201558286015160028201556060860151600382015560808601519181019190915560a0850151600590910155517fef6ed4377672627cebaf1b0d3279c8dba42914235ea82847f1cf7f4dd4dc930290610efa908c908c908c908c908c9089909586526001600160a01b039485166020870152928416604086015292166060840152608083019190915260a082015260c00190565b60405180910390a150505050505050505050565b600054610100900460ff1680610f235750303b155b80610f31575060005460ff16155b610f4d5760405162461bcd60e51b815260040161072b906130d3565b600054610100900460ff16158015610f6f576000805461ffff19166101011790555b610f7761286b565b8015610f89576000805461ff00191690555b50565b610f968333612597565b610fed5760405162461bcd60e51b815260206004820152602260248201527f4c65646765723a3a73656e64436f6c6c61746572616c3a6e6f742d616c6c6f77604482015261195960f21b606482015260840161072b565b61100383610ffa8361241e565b610e309061324f565b61101082610e308361241e565b505050565b600082815260016020819052604090912001546110328133612902565b6110108383612966565b6001600160a01b03811633146110ac5760405162461bcd60e51b815260206004820152602f60248201527f416363657373436f6e74726f6c3a2063616e206f6e6c792072656e6f756e636560448201526e103937b632b9903337b91039b2b63360891b606482015260840161072b565b6110b682826129d1565b5050565b6110cc6430b236b4b760d91b33612902565b6000818152600460205260409020600201541561113d5760405162461bcd60e51b815260206004820152602960248201527f4c65646765723a3a696e69743a20636f6c6c61746572616c547970652d616c726044820152681958591e4b5a5b9a5d60ba1b606482015260840161072b565b60009081526004602052604090206b033b2e3c9fd0803ce8000000600290910155565b60025460ff166111a95760405162461bcd60e51b815260206004820152601460248201527314185d5cd8589b194e881b9bdd081c185d5cd95960621b604482015260640161072b565b653830bab9b2b960d11b6111bd8133612902565b6002805460ff191690556040513381527f5db9ee0a495bf2e6ff9c91a7834c1ba4fdd244a5e8aa4e537bd38aeae4b073aa906020015b60405180910390a150565b6112106430b236b4b760d91b33612902565b60025460ff16156112335760405162461bcd60e51b815260040161072b906130a9565b81631cdc1bdd60e21b141561125b576000838152600460205260409020600301819055611010565b81636c696e6560e01b141561128457600083815260046020819052604090912001819055611010565b8163191d5cdd60e21b14156112ac576000838152600460205260409020600501819055611010565b60405162461bcd60e51b815260206004820152602160248201527f4c65646765723a3a636f6e6669673a756e7265636f676e697a65642d706172616044820152606d60f81b606482015260840161072b565b6113106430b236b4b760d91b33612902565b60025460ff16156113335760405162461bcd60e51b815260040161072b906130a9565b600083815260046020526040902060028101546113509083612488565b600282015560018101546000906113679084612a38565b9050611373848261269a565b600c546113809082612488565b600c555050505050565b61139c6430b236b4b760d91b33612902565b60008681526005602090815260408083206001600160a01b0389811685529083528184208251808401845281548152600190910154818501528a8552600493849052828520600f54935163f084b66960e01b81529485018c905270189bdb99125cdcdd595912dcd9141bdbdb607a1b60248601529094909390929091169063f084b6699060440160206040518083038186803b15801561143b57600080fd5b505afa15801561144f573d6000803e3d6000fd5b505050506040513d601f19601f820116820180604052508101906114739190612d08565b604051639c0ca52960e01b8152600481018690526001600160a01b038a8116602483015291925090821690639c0ca52990604401600060405180830381600087803b1580156114c157600080fd5b505af11580156114d5573d6000803e3d6000fd5b5050601054604051631569fd4360e11b8152600481018d9052602481018890526001600160a01b038c811660448301529091169250632ad3fa869150606401600060405180830381600087803b15801561152e57600080fd5b505af1158015611542573d6000803e3d6000fd5b5050845160009250611555915087612488565b9050600061157086866020015161248890919063ffffffff16565b905061157e8b8b8484612721565b835461158a9088612488565b8455600184015461159b9087612488565b60018501556115ae8b8a610e108a61324f565b6115e76115c885600201548861253790919063ffffffff16565b6001600160a01b038a166000908152600b602052604090205490612aa0565b6001600160a01b0389166000908152600b6020526040902055600284015461161d90611614908890612537565b600d5490612aa0565b600d555050505050505050505050565b60025460ff16156116505760405162461bcd60e51b815260040161072b906130a9565b653830bab9b2b960d11b6116648133612902565b6002805460ff191660011790556040513381527f62e78cea01bee320cd4e420270b5ea74000d11b0c9f74754ebdbfc544b05a258906020016111f3565b60008581526005602090815260408083206001600160a01b03888116855281845282852083518085018552815481526001918201548187015289831687529285528386208451808601865281548152910154818601528a8652600494859052838620600f54945163f084b66960e01b81529586018c905270189bdb99125cdcdd595912dcd9141bdbdb607a1b6024870152929590949293909291169063f084b6699060440160206040518083038186803b15801561175e57600080fd5b505afa158015611772573d6000803e3d6000fd5b505050506040513d601f19601f820116820180604052508101906117969190612d08565b90506001600160a01b038116639c0ca5296117b08761324f565b6040516001600160e01b031960e084901b16815260048101919091526001600160a01b038b166024820152604401600060405180830381600087803b1580156117f857600080fd5b505af115801561180c573d6000803e3d6000fd5b5050604051639c0ca52960e01b8152600481018890526001600160a01b038a8116602483015284169250639c0ca5299150604401600060405180830381600087803b15801561185a57600080fd5b505af115801561186e573d6000803e3d6000fd5b50506010546001600160a01b03169150632ad3fa8690508a61188f8861324f565b6040516001600160e01b031960e085901b168152600481019290925260248201526001600160a01b038b166044820152606401600060405180830381600087803b1580156118dc57600080fd5b505af11580156118f0573d6000803e3d6000fd5b5050601054604051631569fd4360e11b8152600481018d9052602481018990526001600160a01b038b811660448301529091169250632ad3fa869150606401600060405180830381600087803b15801561194957600080fd5b505af115801561195d573d6000803e3d6000fd5b5050855160009250611970915088612aa0565b9050600061198b878760200151612aa090919063ffffffff16565b90506119998b8b8484612721565b84516000906119a8908a612488565b905060006119c389886020015161248890919063ffffffff16565b90506119d18d8c8484612721565b6119db8c33612597565b80156119ec57506119ec8b33612597565b611a385760405162461bcd60e51b815260206004820152601860248201527f4c65646765723a3a666f726b3a6e6f742d616c6c6f7765640000000000000000604482015260640161072b565b60038601548851611a4991906131fe565b86600201548960200151611a5d91906131fe565b1115611aab5760405162461bcd60e51b815260206004820152601960248201527f4c65646765723a3a666f726b3a6e6f742d736166652d73726300000000000000604482015260640161072b565b60038601548751611abc91906131fe565b86600201548860200151611ad091906131fe565b1115611b1e5760405162461bcd60e51b815260206004820152601960248201527f4c65646765723a3a666f726b3a6e6f742d736166652d64737400000000000000604482015260640161072b565b856005015486600201548960200151611b3791906131fe565b101580611b4657506020880151155b611b8a5760405162461bcd60e51b81526020600482015260156024820152744c65646765723a3a666f726b3a647573742d73726360581b604482015260640161072b565b856005015486600201548860200151611ba391906131fe565b101580611bb257506020870151155b611bf65760405162461bcd60e51b815260206004820152601560248201527413195919d95c8e8e999bdc9ace991d5cdd0b591cdd605a1b604482015260640161072b565b50505050505050505050505050565b60008281526001602090815260408083206001600160a01b038516845290915290205460ff165b92915050565b611c446430b236b4b760d91b33612902565b6110108383836125f6565b611c616430b236b4b760d91b33612902565b60025460ff1615611c845760405162461bcd60e51b815260040161072b906130a9565b816a61646472657373426f6f6b60a81b1415611cba57600f80546001600160a01b0319166001600160a01b0383161790556110b6565b816f35b9b22932b33ab73226b0b730b3b2b960811b1415611cf557601080546001600160a01b0319166001600160a01b0383161790556110b6565b816b3cb4b2b63226b0b730b3b2b960a11b14156112ac57601180546001600160a01b0319166001600160a01b0383161790556110b6565b60008281526001602081905260409091200154611d498133612902565b61101083836129d1565b60608080808080868067ffffffffffffffff811115611d8257634e487b7160e01b600052604160045260246000fd5b604051908082528060200260200182016040528015611dab578160200160208202803683370190505b5096508067ffffffffffffffff811115611dd557634e487b7160e01b600052604160045260246000fd5b604051908082528060200260200182016040528015611dfe578160200160208202803683370190505b5095508067ffffffffffffffff811115611e2857634e487b7160e01b600052604160045260246000fd5b604051908082528060200260200182016040528015611e51578160200160208202803683370190505b5094508067ffffffffffffffff811115611e7b57634e487b7160e01b600052604160045260246000fd5b604051908082528060200260200182016040528015611ea4578160200160208202803683370190505b5093508067ffffffffffffffff811115611ece57634e487b7160e01b600052604160045260246000fd5b604051908082528060200260200182016040528015611ef7578160200160208202803683370190505b5092508067ffffffffffffffff811115611f2157634e487b7160e01b600052604160045260246000fd5b604051908082528060200260200182016040528015611f4a578160200160208202803683370190505b50915060005b81811015612114576000600460008c8c85818110611f7e57634e487b7160e01b600052603260045260246000fd5b9050602002013581526020019081526020016000206040518060c001604052908160008201548152602001600182015481526020016002820154815260200160038201548152602001600482015481526020016005820154815250509050806000015189838151811061200157634e487b7160e01b600052603260045260246000fd5b602002602001018181525050806020015188838151811061203257634e487b7160e01b600052603260045260246000fd5b602002602001018181525050806040015187838151811061206357634e487b7160e01b600052603260045260246000fd5b602002602001018181525050806060015186838151811061209457634e487b7160e01b600052603260045260246000fd5b60200260200101818152505080608001518583815181106120c557634e487b7160e01b600052603260045260246000fd5b6020026020010181815250508060a001518483815181106120f657634e487b7160e01b600052603260045260246000fd5b6020908102919091010152508061210c81613234565b915050611f50565b50509295509295509295565b6121326430b236b4b760d91b33612902565b60025460ff16156121555760405162461bcd60e51b815260040161072b906130a9565b81636c696e6560e01b14156112ac57600e8190556110b6565b612185848461217c8461241e565b610e109061324f565b6121938483610e108461241e565b50505050565b6121ab6430b236b4b760d91b33612902565b6001600160a01b0383166000908152600b60205260409020546121cf908290613121565b6001600160a01b0384166000908152600b60205260409020556121f582610e308361241e565b80600d546122039190613121565b600d55600c54612214908290613121565b600c55505050565b61222e6437bbb732b960d91b33612902565b6122406437bbb732b960d91b82612966565b610f896437bbb732b960d91b336129d1565b336000908152600b602052604090205461226d90829061321d565b336000818152600b602052604090209190915561228d90610ffa8361241e565b80600d5461229b919061321d565b600d55600c546122ac90829061321d565b600c5550565b6000808212156123045760405162461bcd60e51b815260206004820181905260248201527f53616665436173743a2076616c7565206d75737420626520706f736974697665604482015260640161072b565b5090565b6000816123625760405162461bcd60e51b815260206004820152602260248201527f5761645261794d6174683a3a7261794469763a20646976696465206279207a65604482015261726f60f01b606482015260840161072b565b6b033b2e3c9fd0803ce800000061237b8360001961321d565b612386906001613121565b6123909190613167565b8311156123df5760405162461bcd60e51b815260206004820152601c60248201527f5761645261794d6174683a3a7261794469763a206f766572666c6f7700000000604482015260640161072b565b816001816123f96b033b2e3c9fd0803ce8000000876131fe565b6124039190613121565b61240d919061321d565b6124179190613167565b9392505050565b60006001600160ff1b038211156123045760405162461bcd60e51b815260206004820152602860248201527f53616665436173743a2076616c756520646f65736e27742066697420696e2061604482015267371034b73a191a9b60c11b606482015260840161072b565b81810160008212158061249b5750828111155b6124e15760405162461bcd60e51b81526020600482015260176024820152764d6174683a206164646974696f6e206f766572666c6f7760481b604482015260640161072b565b6000821315806124f15750828110155b611c2c5760405162461bcd60e51b81526020600482015260176024820152764d6174683a206164646974696f6e206f766572666c6f7760481b604482015260640161072b565b6000612543828461317b565b905060008212156125665760405162461bcd60e51b815260040161072b90613072565b82158061257b5750816125798483613139565b145b611c2c5760405162461bcd60e51b815260040161072b90613072565b6000816001600160a01b0316836001600160a01b031614806125de57506001600160a01b0380841660009081526003602090815260408083209386168352929052205460ff165b8061241757506124176430b236b4b760d91b83611c05565b8061260057611010565b60008381526009602090815260408083206001600160a01b038616845290915290205461262d9082612488565b60008481526009602090815260408083206001600160a01b03871680855290835292819020939093558251868152908101919091529081018290527f854e465fc76886977a28413c331065063759881f5b7b037fd23cf659031c6c549060600160405180910390a1505050565b806126a4576110b6565b6001600160a01b0382166000908152600a60205260409020546126c79082612488565b6001600160a01b0383166000818152600a60209081526040918290209390935580519182529181018390527f232168bc7461c6a6e2649977450b9a47441149bdf45f6104702e28d66bdd2d3a910160405180910390a15050565b60008481526005602090815260408083206001600160a01b0380881680865291845282852087815560018101879055898652600885528386205460068652848720938752928552838620548a87526007865284872081885290955292909420549193909291168215806127a65750866001600160a01b0316816001600160a01b031614155b156128115760008881526006602090815260408083206001600160a01b038b168085529083528184208790558b84526007835281842087855290925290912080546001600160a01b0319169091179055612801836001613121565b6000898152600860205260409020555b604080518981526001600160a01b0389166020820152908101879052606081018690527f8990200bc188dbea6baac47b2e3b696432c8342dca032a37d1a511b519c3a6079060800160405180910390a15050505050505050565b600054610100900460ff16806128805750303b155b8061288e575060005460ff16155b6128aa5760405162461bcd60e51b815260040161072b906130d3565b600054610100900460ff161580156128cc576000805461ffff19166101011790555b6128d4612b5b565b6128ef653830bab9b2b960d11b6437bbb732b960d91b612bc4565b610f77653830bab9b2b960d11b33612c11565b61290c8282611c05565b6110b65760405162461bcd60e51b815260206004820152602560248201527f416363657373436f6e74726f6c3a5f636865636b526f6c653a696e76616c696460448201526420726f6c6560d81b606482015260840161072b565b6129708282611c05565b6110b65760008281526001602081815260408084206001600160a01b0386168086529252808420805460ff19169093179092559051339285917f2f8788117e7eff1d82e926ec794901d17c78024a50270940304540a733656f0d9190a45050565b6129db8282611c05565b156110b65760008281526001602090815260408083206001600160a01b0385168085529252808320805460ff1916905551339285917ff6391f5c32d9c69d2a47ea670b442974b53935d1edc7fd64eb21e047a839171b9190a45050565b8181026000831215612a5c5760405162461bcd60e51b815260040161072b90613072565b81158061257b575082828281612a8257634e487b7160e01b600052601260045260246000fd5b0514611c2c5760405162461bcd60e51b815260040161072b90613072565b808203600082131580612ab35750828111155b612aff5760405162461bcd60e51b815260206004820152601a60248201527f4d6174683a207375627472616374696f6e206f766572666c6f77000000000000604482015260640161072b565b600082121580612b0f5750828110155b611c2c5760405162461bcd60e51b815260206004820152601a60248201527f4d6174683a207375627472616374696f6e206f766572666c6f77000000000000604482015260640161072b565b600054610100900460ff1680612b705750303b155b80612b7e575060005460ff16155b612b9a5760405162461bcd60e51b815260040161072b906130d3565b600054610100900460ff16158015612bbc576000805461ffff19166101011790555b610f77612c1b565b6000828152600160208190526040808320909101805490849055905190918391839186917fbd79b86ffe0ab8e8776151514217cd7cacd52c909f66475c3af44e129f0b00ff9190a4505050565b6110b68282612966565b600054610100900460ff1680612c305750303b155b80612c3e575060005460ff16155b612c5a5760405162461bcd60e51b815260040161072b906130d3565b600054610100900460ff16158015612c7c576000805461ffff19166101011790555b612c8e6437bbb732b960d91b33612c11565b612ca86430b236b4b760d91b6437bbb732b960d91b612bc4565b612cc56737b832b930ba37b960c11b6437bbb732b960d91b612bc4565b612cd76430b236b4b760d91b33612c11565b610f776737b832b930ba37b960c11b33612c11565b600060208284031215612cfd578081fd5b813561241781613295565b600060208284031215612d19578081fd5b815161241781613295565b60008060408385031215612d36578081fd5b8235612d4181613295565b91506020830135612d5181613295565b809150509250929050565b600080600060608486031215612d70578081fd5b8335612d7b81613295565b92506020840135612d8b81613295565b929592945050506040919091013590565b60008060208385031215612dae578182fd5b823567ffffffffffffffff80821115612dc5578384fd5b818501915085601f830112612dd8578384fd5b813581811115612de6578485fd5b8660208260051b8501011115612dfa578485fd5b60209290920196919550909350505050565b600060208284031215612e1d578081fd5b5035919050565b60008060408385031215612e36578182fd5b823591506020830135612d5181613295565b60008060008060008060c08789031215612e60578182fd5b863595506020870135612e7281613295565b94506040870135612e8281613295565b93506060870135612e9281613295565b9598949750929560808101359460a0909101359350915050565b600080600080600060a08688031215612ec3578081fd5b853594506020860135612ed581613295565b93506040860135612ee581613295565b94979396509394606081013594506080013592915050565b60008060008060808587031215612f12578384fd5b843593506020850135612f2481613295565b92506040850135612f3481613295565b9396929550929360600135925050565b600080600060608486031215612f58578283fd5b833592506020840135612d8b81613295565b600080600060608486031215612f7e578283fd5b505081359360208301359350604090920135919050565b60008060408385031215612fa7578182fd5b50508035926020909101359150565b6000815180845260208085019450808401835b83811015612fe557815187529582019590820190600101612fc9565b509495945050505050565b600060c0825261300360c0830189612fb6565b82810360208401526130158189612fb6565b905082810360408401526130298188612fb6565b9050828103606084015261303d8187612fb6565b905082810360808401526130518186612fb6565b905082810360a08401526130658185612fb6565b9998505050505050505050565b6020808252601d908201527f4d6174683a206d756c7469706c69636174696f6e206f766572666c6f77000000604082015260600190565b60208082526010908201526f14185d5cd8589b194e881c185d5cd95960821b604082015260600190565b6020808252602e908201527f496e697469616c697a61626c653a20636f6e747261637420697320616c72656160408201526d191e481a5b9a5d1a585b1a5e995960921b606082015260800190565b6000821982111561313457613134613269565b500190565b6000826131485761314861327f565b600160ff1b82146000198414161561316257613162613269565b500590565b6000826131765761317661327f565b500490565b60006001600160ff1b03818413828413808216868404861116156131a1576131a1613269565b600160ff1b848712828116878305891216156131bf576131bf613269565b8587129250878205871284841616156131da576131da613269565b878505871281841616156131f0576131f0613269565b505050929093029392505050565b600081600019048311821515161561321857613218613269565b500290565b60008282101561322f5761322f613269565b500390565b600060001982141561324857613248613269565b5060010190565b6000600160ff1b82141561326557613265613269565b0390565b634e487b7160e01b600052601160045260246000fd5b634e487b7160e01b600052601260045260246000fd5b6001600160a01b0381168114610f8957600080fdfea2646970667358221220b8bf38934db2019db624a74da3b11ea03af759ed836b14f1766ddc0d857a6b3764736f6c63430008030033",
  "devdoc": {
    "kind": "dev",
    "methods": {
      "actionLoan(bytes32,address,address,address,int256,int256)": {
        "details": "vault ksd /,   lock / , vault  safe , dust  ksd  .     . ,    locked   collateral  vault lock   .",
        "params": {
          "collateralAmount": "amount of collateral to change",
          "collateralType": "type of collateral",
          "collateralVault": "(  ,  token owner)   vault unlock    ",
          "debtor": "owner of vault",
          "ksdVault": "(  ,  ksd owner) ksd vault , vault  ksd  ",
          "loanAmount": "amount of KSD to change"
        }
      },
      "collateralInfos(bytes32[])": {
        "details": "collateralInfo   array  return",
        "params": {
          "collateralTypes": "  list"
        }
      },
      "collectStabilityFee(bytes32,address,int256)": {
        "details": "StabilityFeeCollector  ."
      },
      "fork(bytes32,address,address,int256,int256)": {
        "details": "    .",
        "params": {
          "collateralAmount": "amount of collateral to change",
          "collateralType": "type of collateral",
          "dst": "address of vault (accountInfo)",
          "loanAmount": "amount of KSD to change",
          "src": "address of vault (accountInfo)"
        }
      },
      "grab(bytes32,address,address,address,int256,int256)": {
        "details": "liquidator liquidate ",
        "params": {
          "collateralAmount": "amount of collateral to change",
          "collateralType": "type of collateral",
          "collateralVault": "vault locked   . (   auctionHouse. auction   )",
          "debtor": " vault ",
          "ksdVault": "vault  ksd  auction   backing  ksd ,    .   minusBank .",
          "loanAmount": "amount of KSD to change"
        }
      },
      "init(bytes32)": {
        "params": {
          "collateralType": "type of collateral to initialize.      Should only be called by the governance"
        }
      },
      "suck(address,address,uint256)": {
        "details": "minusBank keeper incentive  ,  ksd   . ,  minusBank  ."
      }
    },
    "stateVariables": {
      "accountByIndex": {
        "details": "index     returns the address of {index}-th CDP opener",
        "params": {
          "collateralType": "type of collateral",
          "index": "index of user"
        }
      },
      "accountIndex": {
        "details": "  cdp   tracking   ,     cdp  .This function is designed to track the list of users who have opened a CDP (for each collateral type)       Since CDPs are never deleted once created, this index should not be update at any circumstances",
        "params": {
          "collateralType": "type of collateral",
          "usr": "address of user"
        }
      },
      "accountInfo": {
        "details": "   1. lockedCollateral (vault   ) 2. loan (vault  ksd ) (eng)returns 1. lockedCollateral (amount of collateral locked in the user's vault) 2. loan (normalized amount of KSD minted from that vault)",
        "params": {
          "collateralType": "type of collateral",
          "usr": "Address of the user"
        }
      },
      "accountLength": {
        "details": " cdp   ",
        "params": {
          "collateralType": "type of collateral"
        }
      },
      "collateralInfo": {
        "details": "   1. totalLockedCollateral ( locked  ) 2. totalLoan (() KSD) 3. rate (   , accountInfo.loan     ksd    . stability fee) 4. spot (== price * LTV) 5. line (      KSD) 6. dust ( vault     ksd ) (eng)the value that it returns are 1. totalLockedCollateral 2. totalLoan 3. rate (It gradually increases over time and is multiplied by accountInfo.loan to increase the amount of ksd borrowed by the user.. stability fee) 4. spot (== price * LTV) 5. line (Maximum KSD that can be minted from given collateral type) 6. dust (Minimum KSD that should be borrowed from a CDP)",
        "params": {
          "collateralType": "Type of collateral - initially, there's only one (Klay)"
        }
      },
      "ksd": {
        "params": {
          "usr": "address of user"
        }
      },
      "token": {
        "params": {
          "collateralType": "type of collateral",
          "usr": "address of user"
        }
      }
    },
    "version": 1
  },
  "userdoc": {
    "kind": "user",
    "methods": {
      "accountByIndex(bytes32,uint256)": {
        "notice": "access address of an account by index"
      },
      "accountIndex(bytes32,address)": {
        "notice": "This function returns the index of a user of given collateral type         The index"
      },
      "accountInfo(bytes32,address)": {
        "notice": "usr vault Information of a user's vault"
      },
      "accountLength(bytes32)": {
        "notice": "Total number of user who have opened a CDP (given collateral type) - always increasing"
      },
      "actionLoan(bytes32,address,address,address,int256,int256)": {
        "notice": "token, ksd   vault  ."
      },
      "addCollateral(bytes32,address,int256)": {
        "notice": "token(lock   collateral)  .            token      contract  . (eng)Increase the amount of 'unlocked collateral'          (which means that the token is deposited into CDP but not yet considered as 'locked' as collateral)         This function changes the amount of 'unlocked collateral' of the CDP, so it should only be called by authorized contracts."
      },
      "allow(address)": {
        "notice": "msg.sender usr  vault     .authorize usr to manipulate msg.sender's vault"
      },
      "collateralInfo(bytes32)": {
        "notice": "  Collateral Iinfo"
      },
      "collateralInfos(bytes32[])": {
        "notice": "   "
      },
      "collectStabilityFee(bytes32,address,int256)": {
        "notice": "stability fee ksdReceiver ."
      },
      "config(bytes32,bytes32,uint256)": {
        "notice": "config something       Should only be called by the governance and oracle"
      },
      "disallow(address)": {
        "notice": "msg.sender usr  vault     .Deauthorize usr from manipulating msg.sender's vault"
      },
      "fork(bytes32,address,address,int256,int256)": {
        "notice": "vault  collateral ksd  ."
      },
      "grab(bytes32,address,address,address,int256,int256)": {
        "notice": "  (confiscation)"
      },
      "heal(uint256)": {
        "notice": "backing  ksd  function. msg.sender ksd ."
      },
      "init(bytes32)": {
        "notice": "initialize collateral"
      },
      "ksd(address)": {
        "notice": ", ksdGateway   ksd .The amount of KSD lent to, or depositted by (through KSDGateway) the {usr}"
      },
      "line()": {
        "notice": "Total Debt Ceiling [rad]"
      },
      "sendKsd(address,address,uint256)": {
        "notice": "ksd  account  function. ( ksd token   ,    )"
      },
      "sin(address)": {
        "notice": "unbacked KSD [rad]"
      },
      "suck(address,address,uint256)": {
        "notice": "backing  ksd  msg.sender ."
      },
      "token(bytes32,address)": {
        "notice": "locked    . ,   gateway   .The amount of collateral that are not locked."
      },
      "totalIssued()": {
        "notice": "total KSD Issued [rad]"
      },
      "vice()": {
        "notice": "Total Unbacked KSD [rad]"
      }
    },
    "notice": "This is a contract for the Kokoa Vault (CDP) Initially, there will be only 1 collateral type, Klay.",
    "version": 1
  },
  "storageLayout": {
    "storage": [
      {
        "astId": 24885,
        "contract": "contracts/lending/Ledger.sol:Ledger",
        "label": "_initialized",
        "offset": 0,
        "slot": "0",
        "type": "t_bool"
      },
      {
        "astId": 24888,
        "contract": "contracts/lending/Ledger.sol:Ledger",
        "label": "_initializing",
        "offset": 1,
        "slot": "0",
        "type": "t_bool"
      },
      {
        "astId": 21831,
        "contract": "contracts/lending/Ledger.sol:Ledger",
        "label": "_roles",
        "offset": 0,
        "slot": "1",
        "type": "t_mapping(t_bytes32,t_struct(RoleData)21826_storage)"
      },
      {
        "astId": 22221,
        "contract": "contracts/lending/Ledger.sol:Ledger",
        "label": "_paused",
        "offset": 0,
        "slot": "2",
        "type": "t_bool"
      },
      {
        "astId": 17828,
        "contract": "contracts/lending/Ledger.sol:Ledger",
        "label": "can",
        "offset": 0,
        "slot": "3",
        "type": "t_mapping(t_address,t_mapping(t_address,t_bool))"
      },
      {
        "astId": 17912,
        "contract": "contracts/lending/Ledger.sol:Ledger",
        "label": "collateralInfo",
        "offset": 0,
        "slot": "4",
        "type": "t_mapping(t_bytes32,t_struct(CollateralInfo)17901_storage)"
      },
      {
        "astId": 17920,
        "contract": "contracts/lending/Ledger.sol:Ledger",
        "label": "accountInfo",
        "offset": 0,
        "slot": "5",
        "type": "t_mapping(t_bytes32,t_mapping(t_address,t_struct(AccountInfo)17906_storage))"
      },
      {
        "astId": 17927,
        "contract": "contracts/lending/Ledger.sol:Ledger",
        "label": "accountIndex",
        "offset": 0,
        "slot": "6",
        "type": "t_mapping(t_bytes32,t_mapping(t_address,t_uint256))"
      },
      {
        "astId": 17934,
        "contract": "contracts/lending/Ledger.sol:Ledger",
        "label": "accountByIndex",
        "offset": 0,
        "slot": "7",
        "type": "t_mapping(t_bytes32,t_mapping(t_uint256,t_address))"
      },
      {
        "astId": 17939,
        "contract": "contracts/lending/Ledger.sol:Ledger",
        "label": "accountLength",
        "offset": 0,
        "slot": "8",
        "type": "t_mapping(t_bytes32,t_uint256)"
      },
      {
        "astId": 17946,
        "contract": "contracts/lending/Ledger.sol:Ledger",
        "label": "token",
        "offset": 0,
        "slot": "9",
        "type": "t_mapping(t_bytes32,t_mapping(t_address,t_uint256))"
      },
      {
        "astId": 17951,
        "contract": "contracts/lending/Ledger.sol:Ledger",
        "label": "ksd",
        "offset": 0,
        "slot": "10",
        "type": "t_mapping(t_address,t_uint256)"
      },
      {
        "astId": 17956,
        "contract": "contracts/lending/Ledger.sol:Ledger",
        "label": "sin",
        "offset": 0,
        "slot": "11",
        "type": "t_mapping(t_address,t_uint256)"
      },
      {
        "astId": 17959,
        "contract": "contracts/lending/Ledger.sol:Ledger",
        "label": "totalIssued",
        "offset": 0,
        "slot": "12",
        "type": "t_uint256"
      },
      {
        "astId": 17962,
        "contract": "contracts/lending/Ledger.sol:Ledger",
        "label": "vice",
        "offset": 0,
        "slot": "13",
        "type": "t_uint256"
      },
      {
        "astId": 17965,
        "contract": "contracts/lending/Ledger.sol:Ledger",
        "label": "line",
        "offset": 0,
        "slot": "14",
        "type": "t_uint256"
      },
      {
        "astId": 17968,
        "contract": "contracts/lending/Ledger.sol:Ledger",
        "label": "addressBook",
        "offset": 0,
        "slot": "15",
        "type": "t_contract(IAddressBook)6869"
      },
      {
        "astId": 17971,
        "contract": "contracts/lending/Ledger.sol:Ledger",
        "label": "ksdRefundManager",
        "offset": 0,
        "slot": "16",
        "type": "t_contract(IKsdRefundManager)8558"
      },
      {
        "astId": 17974,
        "contract": "contracts/lending/Ledger.sol:Ledger",
        "label": "yieldManager",
        "offset": 0,
        "slot": "17",
        "type": "t_contract(IYieldManager)9782"
      }
    ],
    "types": {
      "t_address": {
        "encoding": "inplace",
        "label": "address",
        "numberOfBytes": "20"
      },
      "t_bool": {
        "encoding": "inplace",
        "label": "bool",
        "numberOfBytes": "1"
      },
      "t_bytes32": {
        "encoding": "inplace",
        "label": "bytes32",
        "numberOfBytes": "32"
      },
      "t_contract(IAddressBook)6869": {
        "encoding": "inplace",
        "label": "contract IAddressBook",
        "numberOfBytes": "20"
      },
      "t_contract(IKsdRefundManager)8558": {
        "encoding": "inplace",
        "label": "contract IKsdRefundManager",
        "numberOfBytes": "20"
      },
      "t_contract(IYieldManager)9782": {
        "encoding": "inplace",
        "label": "contract IYieldManager",
        "numberOfBytes": "20"
      },
      "t_mapping(t_address,t_bool)": {
        "encoding": "mapping",
        "key": "t_address",
        "label": "mapping(address => bool)",
        "numberOfBytes": "32",
        "value": "t_bool"
      },
      "t_mapping(t_address,t_mapping(t_address,t_bool))": {
        "encoding": "mapping",
        "key": "t_address",
        "label": "mapping(address => mapping(address => bool))",
        "numberOfBytes": "32",
        "value": "t_mapping(t_address,t_bool)"
      },
      "t_mapping(t_address,t_struct(AccountInfo)17906_storage)": {
        "encoding": "mapping",
        "key": "t_address",
        "label": "mapping(address => struct Ledger.AccountInfo)",
        "numberOfBytes": "32",
        "value": "t_struct(AccountInfo)17906_storage"
      },
      "t_mapping(t_address,t_uint256)": {
        "encoding": "mapping",
        "key": "t_address",
        "label": "mapping(address => uint256)",
        "numberOfBytes": "32",
        "value": "t_uint256"
      },
      "t_mapping(t_bytes32,t_mapping(t_address,t_struct(AccountInfo)17906_storage))": {
        "encoding": "mapping",
        "key": "t_bytes32",
        "label": "mapping(bytes32 => mapping(address => struct Ledger.AccountInfo))",
        "numberOfBytes": "32",
        "value": "t_mapping(t_address,t_struct(AccountInfo)17906_storage)"
      },
      "t_mapping(t_bytes32,t_mapping(t_address,t_uint256))": {
        "encoding": "mapping",
        "key": "t_bytes32",
        "label": "mapping(bytes32 => mapping(address => uint256))",
        "numberOfBytes": "32",
        "value": "t_mapping(t_address,t_uint256)"
      },
      "t_mapping(t_bytes32,t_mapping(t_uint256,t_address))": {
        "encoding": "mapping",
        "key": "t_bytes32",
        "label": "mapping(bytes32 => mapping(uint256 => address))",
        "numberOfBytes": "32",
        "value": "t_mapping(t_uint256,t_address)"
      },
      "t_mapping(t_bytes32,t_struct(CollateralInfo)17901_storage)": {
        "encoding": "mapping",
        "key": "t_bytes32",
        "label": "mapping(bytes32 => struct Ledger.CollateralInfo)",
        "numberOfBytes": "32",
        "value": "t_struct(CollateralInfo)17901_storage"
      },
      "t_mapping(t_bytes32,t_struct(RoleData)21826_storage)": {
        "encoding": "mapping",
        "key": "t_bytes32",
        "label": "mapping(bytes32 => struct AccessControl.RoleData)",
        "numberOfBytes": "32",
        "value": "t_struct(RoleData)21826_storage"
      },
      "t_mapping(t_bytes32,t_uint256)": {
        "encoding": "mapping",
        "key": "t_bytes32",
        "label": "mapping(bytes32 => uint256)",
        "numberOfBytes": "32",
        "value": "t_uint256"
      },
      "t_mapping(t_uint256,t_address)": {
        "encoding": "mapping",
        "key": "t_uint256",
        "label": "mapping(uint256 => address)",
        "numberOfBytes": "32",
        "value": "t_address"
      },
      "t_struct(AccountInfo)17906_storage": {
        "encoding": "inplace",
        "label": "struct Ledger.AccountInfo",
        "members": [
          {
            "astId": 17903,
            "contract": "contracts/lending/Ledger.sol:Ledger",
            "label": "lockedCollateral",
            "offset": 0,
            "slot": "0",
            "type": "t_uint256"
          },
          {
            "astId": 17905,
            "contract": "contracts/lending/Ledger.sol:Ledger",
            "label": "loan",
            "offset": 0,
            "slot": "1",
            "type": "t_uint256"
          }
        ],
        "numberOfBytes": "64"
      },
      "t_struct(CollateralInfo)17901_storage": {
        "encoding": "inplace",
        "label": "struct Ledger.CollateralInfo",
        "members": [
          {
            "astId": 17890,
            "contract": "contracts/lending/Ledger.sol:Ledger",
            "label": "totalLockedCollateral",
            "offset": 0,
            "slot": "0",
            "type": "t_uint256"
          },
          {
            "astId": 17892,
            "contract": "contracts/lending/Ledger.sol:Ledger",
            "label": "totalLoan",
            "offset": 0,
            "slot": "1",
            "type": "t_uint256"
          },
          {
            "astId": 17894,
            "contract": "contracts/lending/Ledger.sol:Ledger",
            "label": "rate",
            "offset": 0,
            "slot": "2",
            "type": "t_uint256"
          },
          {
            "astId": 17896,
            "contract": "contracts/lending/Ledger.sol:Ledger",
            "label": "spot",
            "offset": 0,
            "slot": "3",
            "type": "t_uint256"
          },
          {
            "astId": 17898,
            "contract": "contracts/lending/Ledger.sol:Ledger",
            "label": "line",
            "offset": 0,
            "slot": "4",
            "type": "t_uint256"
          },
          {
            "astId": 17900,
            "contract": "contracts/lending/Ledger.sol:Ledger",
            "label": "dust",
            "offset": 0,
            "slot": "5",
            "type": "t_uint256"
          }
        ],
        "numberOfBytes": "192"
      },
      "t_struct(RoleData)21826_storage": {
        "encoding": "inplace",
        "label": "struct AccessControl.RoleData",
        "members": [
          {
            "astId": 21823,
            "contract": "contracts/lending/Ledger.sol:Ledger",
            "label": "members",
            "offset": 0,
            "slot": "0",
            "type": "t_mapping(t_address,t_bool)"
          },
          {
            "astId": 21825,
            "contract": "contracts/lending/Ledger.sol:Ledger",
            "label": "adminRole",
            "offset": 0,
            "slot": "1",
            "type": "t_bytes32"
          }
        ],
        "numberOfBytes": "64"
      },
      "t_uint256": {
        "encoding": "inplace",
        "label": "uint256",
        "numberOfBytes": "32"
      }
    }
  }
}