{
  "address": "0x0D2ea5fC997fAF7963aA4980f4631cB8743A8F79",
  "abi": [
    {
      "anonymous": false,
      "inputs": [
        {
          "indexed": true,
          "internalType": "bytes32",
          "name": "what",
          "type": "bytes32"
        },
        {
          "indexed": false,
          "internalType": "uint256",
          "name": "data",
          "type": "uint256"
        }
      ],
      "name": "Config",
      "type": "event"
    },
    {
      "anonymous": false,
      "inputs": [
        {
          "indexed": true,
          "internalType": "bytes32",
          "name": "what",
          "type": "bytes32"
        },
        {
          "indexed": false,
          "internalType": "address",
          "name": "data",
          "type": "address"
        }
      ],
      "name": "Config",
      "type": "event"
    },
    {
      "anonymous": false,
      "inputs": [
        {
          "indexed": true,
          "internalType": "bytes32",
          "name": "collateral",
          "type": "bytes32"
        },
        {
          "indexed": true,
          "internalType": "bytes32",
          "name": "what",
          "type": "bytes32"
        },
        {
          "indexed": false,
          "internalType": "uint256",
          "name": "data",
          "type": "uint256"
        }
      ],
      "name": "Config",
      "type": "event"
    },
    {
      "anonymous": false,
      "inputs": [
        {
          "indexed": true,
          "internalType": "bytes32",
          "name": "collateral",
          "type": "bytes32"
        },
        {
          "indexed": true,
          "internalType": "bytes32",
          "name": "what",
          "type": "bytes32"
        },
        {
          "indexed": false,
          "internalType": "address",
          "name": "auctionHouse",
          "type": "address"
        }
      ],
      "name": "Config",
      "type": "event"
    },
    {
      "anonymous": false,
      "inputs": [
        {
          "indexed": true,
          "internalType": "bytes32",
          "name": "collateral",
          "type": "bytes32"
        },
        {
          "indexed": false,
          "internalType": "uint256",
          "name": "rad",
          "type": "uint256"
        }
      ],
      "name": "EndLiquidation",
      "type": "event"
    },
    {
      "anonymous": false,
      "inputs": [
        {
          "indexed": true,
          "internalType": "bytes32",
          "name": "collateral",
          "type": "bytes32"
        },
        {
          "indexed": true,
          "internalType": "address",
          "name": "account",
          "type": "address"
        },
        {
          "indexed": false,
          "internalType": "uint256",
          "name": "lockedCollateral",
          "type": "uint256"
        },
        {
          "indexed": false,
          "internalType": "uint256",
          "name": "loan",
          "type": "uint256"
        },
        {
          "indexed": false,
          "internalType": "uint256",
          "name": "due",
          "type": "uint256"
        },
        {
          "indexed": false,
          "internalType": "address",
          "name": "auctionHouse",
          "type": "address"
        },
        {
          "indexed": true,
          "internalType": "uint256",
          "name": "id",
          "type": "uint256"
        }
      ],
      "name": "Liquidate",
      "type": "event"
    },
    {
      "anonymous": false,
      "inputs": [
        {
          "indexed": false,
          "internalType": "address",
          "name": "account",
          "type": "address"
        }
      ],
      "name": "Paused",
      "type": "event"
    },
    {
      "anonymous": false,
      "inputs": [
        {
          "indexed": true,
          "internalType": "bytes32",
          "name": "role",
          "type": "bytes32"
        },
        {
          "indexed": true,
          "internalType": "bytes32",
          "name": "previousAdminRole",
          "type": "bytes32"
        },
        {
          "indexed": true,
          "internalType": "bytes32",
          "name": "newAdminRole",
          "type": "bytes32"
        }
      ],
      "name": "RoleAdminChanged",
      "type": "event"
    },
    {
      "anonymous": false,
      "inputs": [
        {
          "indexed": true,
          "internalType": "bytes32",
          "name": "role",
          "type": "bytes32"
        },
        {
          "indexed": true,
          "internalType": "address",
          "name": "account",
          "type": "address"
        },
        {
          "indexed": true,
          "internalType": "address",
          "name": "sender",
          "type": "address"
        }
      ],
      "name": "RoleGranted",
      "type": "event"
    },
    {
      "anonymous": false,
      "inputs": [
        {
          "indexed": true,
          "internalType": "bytes32",
          "name": "role",
          "type": "bytes32"
        },
        {
          "indexed": true,
          "internalType": "address",
          "name": "account",
          "type": "address"
        },
        {
          "indexed": true,
          "internalType": "address",
          "name": "sender",
          "type": "address"
        }
      ],
      "name": "RoleRevoked",
      "type": "event"
    },
    {
      "anonymous": false,
      "inputs": [
        {
          "indexed": false,
          "internalType": "address",
          "name": "account",
          "type": "address"
        }
      ],
      "name": "Unpaused",
      "type": "event"
    },
    {
      "inputs": [],
      "name": "DEFAULT_ADMIN_ROLE",
      "outputs": [
        {
          "internalType": "bytes32",
          "name": "",
          "type": "bytes32"
        }
      ],
      "stateMutability": "view",
      "type": "function"
    },
    {
      "inputs": [
        {
          "internalType": "address",
          "name": "ledger_",
          "type": "address"
        }
      ],
      "name": "__Liquidator_init",
      "outputs": [],
      "stateMutability": "nonpayable",
      "type": "function"
    },
    {
      "inputs": [
        {
          "internalType": "bytes32",
          "name": "",
          "type": "bytes32"
        }
      ],
      "name": "auctionInfos",
      "outputs": [
        {
          "internalType": "address",
          "name": "auctionHouse",
          "type": "address"
        },
        {
          "internalType": "uint256",
          "name": "penalty",
          "type": "uint256"
        },
        {
          "internalType": "uint256",
          "name": "maxAmount",
          "type": "uint256"
        },
        {
          "internalType": "uint256",
          "name": "onGoingAmount",
          "type": "uint256"
        }
      ],
      "stateMutability": "view",
      "type": "function"
    },
    {
      "inputs": [
        {
          "internalType": "bytes32",
          "name": "collateralType",
          "type": "bytes32"
        },
        {
          "internalType": "bytes32",
          "name": "what",
          "type": "bytes32"
        },
        {
          "internalType": "uint256",
          "name": "data",
          "type": "uint256"
        }
      ],
      "name": "config",
      "outputs": [],
      "stateMutability": "nonpayable",
      "type": "function"
    },
    {
      "inputs": [
        {
          "internalType": "bytes32",
          "name": "collateralType",
          "type": "bytes32"
        },
        {
          "internalType": "bytes32",
          "name": "what",
          "type": "bytes32"
        },
        {
          "internalType": "address",
          "name": "auctionHouse",
          "type": "address"
        }
      ],
      "name": "config",
      "outputs": [],
      "stateMutability": "nonpayable",
      "type": "function"
    },
    {
      "inputs": [
        {
          "internalType": "bytes32",
          "name": "what",
          "type": "bytes32"
        },
        {
          "internalType": "address",
          "name": "data",
          "type": "address"
        }
      ],
      "name": "config",
      "outputs": [],
      "stateMutability": "nonpayable",
      "type": "function"
    },
    {
      "inputs": [
        {
          "internalType": "bytes32",
          "name": "what",
          "type": "bytes32"
        },
        {
          "internalType": "uint256",
          "name": "data",
          "type": "uint256"
        }
      ],
      "name": "config",
      "outputs": [],
      "stateMutability": "nonpayable",
      "type": "function"
    },
    {
      "inputs": [
        {
          "internalType": "bytes32",
          "name": "collateralType",
          "type": "bytes32"
        },
        {
          "internalType": "uint256",
          "name": "rad",
          "type": "uint256"
        }
      ],
      "name": "endLiquidation",
      "outputs": [],
      "stateMutability": "nonpayable",
      "type": "function"
    },
    {
      "inputs": [
        {
          "internalType": "bytes32",
          "name": "role",
          "type": "bytes32"
        }
      ],
      "name": "getRoleAdmin",
      "outputs": [
        {
          "internalType": "bytes32",
          "name": "",
          "type": "bytes32"
        }
      ],
      "stateMutability": "view",
      "type": "function"
    },
    {
      "inputs": [
        {
          "internalType": "bytes32",
          "name": "role",
          "type": "bytes32"
        },
        {
          "internalType": "address",
          "name": "account",
          "type": "address"
        }
      ],
      "name": "grantRole",
      "outputs": [],
      "stateMutability": "nonpayable",
      "type": "function"
    },
    {
      "inputs": [
        {
          "internalType": "bytes32",
          "name": "role",
          "type": "bytes32"
        },
        {
          "internalType": "address",
          "name": "account",
          "type": "address"
        }
      ],
      "name": "hasRole",
      "outputs": [
        {
          "internalType": "bool",
          "name": "",
          "type": "bool"
        }
      ],
      "stateMutability": "view",
      "type": "function"
    },
    {
      "inputs": [],
      "name": "ledger",
      "outputs": [
        {
          "internalType": "contract ILedger",
          "name": "",
          "type": "address"
        }
      ],
      "stateMutability": "view",
      "type": "function"
    },
    {
      "inputs": [
        {
          "internalType": "bytes32",
          "name": "collateralType",
          "type": "bytes32"
        },
        {
          "internalType": "address",
          "name": "vaultAddr",
          "type": "address"
        },
        {
          "internalType": "address",
          "name": "keeper",
          "type": "address"
        }
      ],
      "name": "liquidate",
      "outputs": [
        {
          "internalType": "uint256",
          "name": "id",
          "type": "uint256"
        }
      ],
      "stateMutability": "nonpayable",
      "type": "function"
    },
    {
      "inputs": [],
      "name": "minusBank",
      "outputs": [
        {
          "internalType": "contract IMinusBank",
          "name": "",
          "type": "address"
        }
      ],
      "stateMutability": "view",
      "type": "function"
    },
    {
      "inputs": [],
      "name": "pause",
      "outputs": [],
      "stateMutability": "nonpayable",
      "type": "function"
    },
    {
      "inputs": [],
      "name": "paused",
      "outputs": [
        {
          "internalType": "bool",
          "name": "",
          "type": "bool"
        }
      ],
      "stateMutability": "view",
      "type": "function"
    },
    {
      "inputs": [
        {
          "internalType": "bytes32",
          "name": "collateralType",
          "type": "bytes32"
        }
      ],
      "name": "penalty",
      "outputs": [
        {
          "internalType": "uint256",
          "name": "",
          "type": "uint256"
        }
      ],
      "stateMutability": "view",
      "type": "function"
    },
    {
      "inputs": [
        {
          "internalType": "bytes32",
          "name": "role",
          "type": "bytes32"
        },
        {
          "internalType": "address",
          "name": "account",
          "type": "address"
        }
      ],
      "name": "renounceRole",
      "outputs": [],
      "stateMutability": "nonpayable",
      "type": "function"
    },
    {
      "inputs": [
        {
          "internalType": "bytes32",
          "name": "role",
          "type": "bytes32"
        },
        {
          "internalType": "address",
          "name": "account",
          "type": "address"
        }
      ],
      "name": "revokeRole",
      "outputs": [],
      "stateMutability": "nonpayable",
      "type": "function"
    },
    {
      "inputs": [],
      "name": "totalMaxAmount",
      "outputs": [
        {
          "internalType": "uint256",
          "name": "",
          "type": "uint256"
        }
      ],
      "stateMutability": "view",
      "type": "function"
    },
    {
      "inputs": [],
      "name": "totalOnGoingAmount",
      "outputs": [
        {
          "internalType": "uint256",
          "name": "",
          "type": "uint256"
        }
      ],
      "stateMutability": "view",
      "type": "function"
    },
    {
      "inputs": [
        {
          "internalType": "address",
          "name": "newOwner",
          "type": "address"
        }
      ],
      "name": "transferOwnership",
      "outputs": [],
      "stateMutability": "nonpayable",
      "type": "function"
    },
    {
      "inputs": [],
      "name": "unpause",
      "outputs": [],
      "stateMutability": "nonpayable",
      "type": "function"
    }
  ],
  "transactionHash": "0xf47ef880bdcc23710cae831feb2317c9360c5bca5aa802aa934dfe73a9e767a9",
  "args": [],
  "solcInputHash": "daac9cba34dfabe5953ff704314717f0",
  "bytecode": "0x608060405234801561001057600080fd5b506117e8806100206000396000f3fe608060405234801561001057600080fd5b506004361061014d5760003560e01c80637d8513f2116100c3578063d366f3b91161007c578063d366f3b914610312578063d547741f14610325578063e0bed04114610338578063f2fde38b1461034b578063fc3b0d961461035e578063ff0de72f146103675761014d565b80637d8513f2146102b65780638456cb59146102c957806391d14854146102d1578063a217fddf146102e4578063a9345fa8146102ec578063c647e0dd146102ff5761014d565b806336568abe1161011557806336568abe146101d65780633723727c146101e95780633f4ba83a14610254578063560b4f271461025c57806356397c351461026f5780635c975abb1461029f5761014d565b8063022558ca14610152578063179bf30814610167578063248a9ca31461018d57806326fc7590146101a05780632f2ff15d146101c3575b600080fd5b610165610160366004611639565b610370565b005b61017a6101753660046115a8565b610400565b6040519081526020015b60405180910390f35b61017a61019b36600461154d565b610a58565b61017a6101ae36600461154d565b60009081526003602052604090206001015490565b6101656101d136600461157d565b610a71565b6101656101e436600461157d565b610a93565b61022a6101f736600461154d565b600360208190526000918252604090912080546001820154600283015492909301546001600160a01b0390911692919084565b604080516001600160a01b0390951685526020850193909352918301526060820152608001610184565b610165610b11565b61016561026a36600461160e565b610baf565b6002546102879061010090046001600160a01b031681565b6040516001600160a01b039091168152602001610184565b60025460ff165b6040519015158152602001610184565b6101656102c4366004611533565b610d16565b610165610db4565b6102a66102df36600461157d565b610e4b565b61017a600081565b6101656102fa3660046115e3565b610e76565b600454610287906001600160a01b031681565b61016561032036600461157d565b610fe8565b61016561033336600461157d565b611064565b610165610346366004611639565b611081565b610165610359366004611533565b6110e3565b61017a60055481565b61017a60065481565b6103826430b236b4b760d91b3361111c565b80600654610390919061176b565b600655600082815260036020819052604090912001546103b190829061176b565b600083815260036020818152604092839020909101929092555182815283917fb4ce8d62e7962fdc883ff7b2bdc2bc363c28c01a57a1dc87c631600b5d5a71c591015b60405180910390a25050565b600061040e60025460ff1690565b156104535760405162461bcd60e51b815260206004820152601060248201526f14185d5cd8589b194e881c185d5cd95960821b60448201526064015b60405180910390fd5b60025460405163b75baf7960e01b8152600481018690526001600160a01b03858116602483015260009283926101009091049091169063b75baf7990604401604080518083038186803b1580156104a957600080fd5b505afa1580156104bd573d6000803e3d6000fd5b505050506040513d601f19601f820116820180604052508101906104e1919061165a565b6000888152600360208181526040808420815160808101835281546001600160a01b0390811682526001830154948201949094526002808301548285015291909401546060850152549051637d5422a760e01b8152600481018d90529597509395509093919283928392839261010090041690637d5422a79060240160c06040518083038186803b15801561057557600080fd5b505afa158015610589573d6000803e3d6000fd5b505050506040513d601f19601f820116820180604052508101906105ad919061167d565b929750919550935050508115801591506105d857506105cc838761174c565b6105d6828961174c565b105b6106245760405162461bcd60e51b815260206004820181905260248201527f4c697175696461746f723a3a6c69717569646174653a6e6f742d756e73616665604482015260640161044a565b60065460055411801561063e575084606001518560400151115b61069e5760405162461bcd60e51b815260206004820152602b60248201527f4c697175696461746f723a3a6c69717569646174653a6c69717569646174696f60448201526a1b8b5b1a5b5a5d0b5a1a5d60aa1b606482015260840161044a565b60006106cc6006546005546106b3919061176b565b876060015188604001516106c7919061176b565b611180565b905061070087876020015186670de0b6b3a7640000856106ec919061174c565b6106f6919061172c565b6106c7919061172c565b9450848711156107ad578284610716878a61176b565b610720919061174c565b101561072e578694506107ad565b82610739858761174c565b10156107ad5760405162461bcd60e51b815260206004820152603c60248201527f4c697175696461746f723a3a6c69717569646174653a64757374792d6175637460448201527f696f6e2d66726f6d2d7061727469616c2d6c69717569646174696f6e00000000606482015260840161044a565b5060009050856107bd858961174c565b6107c7919061172c565b9050600081116108245760405162461bcd60e51b815260206004820152602260248201527f4c697175696461746f723a3a6c69717569646174653a6e756c6c2d617563746960448201526137b760f11b606482015260840161044a565b60025485516004546001600160a01b03610100909304831692637bab3f40928f928f921661085187611198565b61085a90611782565b6108638b611198565b61086c90611782565b6040516001600160e01b031960e089901b16815260048101969096526001600160a01b039485166024870152928416604486015292166064840152608483019190915260a482015260c401600060405180830381600087803b1580156108d157600080fd5b505af11580156108e5573d6000803e3d6000fd5b50505050600083856108f7919061174c565b90506000670de0b6b3a7640000876020015183610914919061174c565b61091e919061172c565b90508060065461092e9190611714565b6006556060870151610941908290611714565b60008e8152600360208190526040918290200191909155875190516330c8c1a760e11b815260048101839052602481018590526001600160a01b038e811660448301528d8116606483015290911690636191834e90608401602060405180830381600087803b1580156109b357600080fd5b505af11580156109c7573d6000803e3d6000fd5b505050506040513d601f19601f820116820180604052508101906109eb9190611565565b875160408051868152602081018a90529081018590526001600160a01b039182166060820152919b508b92508d16908e907f72d3864f233703680912d39433c137e816d579e8785e5245274ca9f95bea89679060800160405180910390a450505050505050509392505050565b600081815260016020819052604090912001545b919050565b610a7a82610a58565b610a84813361111c565b610a8e8383611206565b505050565b6001600160a01b0381163314610b035760405162461bcd60e51b815260206004820152602f60248201527f416363657373436f6e74726f6c3a2063616e206f6e6c792072656e6f756e636560448201526e103937b632b9903337b91039b2b63360891b606482015260840161044a565b610b0d8282611271565b5050565b60025460ff16610b5a5760405162461bcd60e51b815260206004820152601460248201527314185d5cd8589b194e881b9bdd081c185d5cd95960621b604482015260640161044a565b653830bab9b2b960d11b610b6e813361111c565b6002805460ff191690556040513381527f5db9ee0a495bf2e6ff9c91a7834c1ba4fdd244a5e8aa4e537bd38aeae4b073aa906020015b60405180910390a150565b610bc16430b236b4b760d91b3361111c565b816670656e616c747960c81b1415610c5357670de0b6b3a7640000811015610c3a5760405162461bcd60e51b815260206004820152602660248201527f4c697175696461746f723a3a636f6e6669673a66696c652d70656e616c74792d6044820152651b1d0b55d05160d21b606482015260840161044a565b6000838152600360205260409020600101819055610cd6565b81681b585e105b5bdd5b9d60ba1b1415610c80576000838152600360205260409020600201819055610cd6565b60405162461bcd60e51b815260206004820152602560248201527f4c697175696461746f723a3a636f6e6669673a756e7265636f676e697a65642d604482015264706172616d60d81b606482015260840161044a565b81837f4691be92868fa80845b397f0e016905e1b4322422075895b96f9b4a8f1d918cf83604051610d0991815260200190565b60405180910390a3505050565b600054610100900460ff1680610d2b5750303b155b80610d39575060005460ff16155b610d555760405162461bcd60e51b815260040161044a906116c6565b600054610100900460ff16158015610d77576000805461ffff19166101011790555b610d7f6112d8565b60028054610100600160a81b0319166101006001600160a01b038516021790558015610b0d576000805461ff00191690555050565b60025460ff1615610dfa5760405162461bcd60e51b815260206004820152601060248201526f14185d5cd8589b194e881c185d5cd95960821b604482015260640161044a565b653830bab9b2b960d11b610e0e813361111c565b6002805460ff191660011790556040513381527f62e78cea01bee320cd4e420270b5ea74000d11b0c9f74754ebdbfc544b05a25890602001610ba4565b60009182526001602090815260408084206001600160a01b0393909316845291905290205460ff1690565b610e886430b236b4b760d91b3361111c565b816b61756374696f6e486f75736560a01b1415610c8057806001600160a01b031663e824600f6040518163ffffffff1660e01b815260040160206040518083038186803b158015610ed857600080fd5b505afa158015610eec573d6000803e3d6000fd5b505050506040513d601f19601f82011682018060405250810190610f109190611565565b8314610f845760405162461bcd60e51b815260206004820152603b60248201527f4c697175696461746f723a3a636f6e6669673a66696c652d696c6b2d6e65712d60448201527f61756374696f6e486f7573652e636f6c6c61746572616c547970650000000000606482015260840161044a565b600083815260036020526040902080546001600160a01b0319166001600160a01b0383161790556040516001600160a01b0382168152829084907fcca354fda7f00794fc7fce17d15e3ec08371c1651291bcb7de2c5b9ab87745db90602001610d09565b610ffa6430b236b4b760d91b3361111c565b81686d696e757342616e6b60b81b1415610c8057600480546001600160a01b0319166001600160a01b0383161790556040516001600160a01b038216815282907f3d6745046596f08781af62914be5041ebe52ea11dfec12e472b043be63a9d74a906020016103f4565b61106d82610a58565b611077813361111c565b610a8e8383611271565b6110936430b236b4b760d91b3361111c565b816d1d1bdd185b13585e105b5bdd5b9d60921b1415610c80576005819055817f15f23b9b90ae47d0682e013c5e063c9071659d3d2a5d7f6dcd77aa4b665dd25e826040516103f491815260200190565b6110f56437bbb732b960d91b3361111c565b6111076437bbb732b960d91b82611206565b6111196437bbb732b960d91b33611271565b50565b6111268282610e4b565b610b0d5760405162461bcd60e51b815260206004820152602560248201527f416363657373436f6e74726f6c3a5f636865636b526f6c653a696e76616c696460448201526420726f6c6560d81b606482015260840161044a565b600081831061118f5781611191565b825b9392505050565b60006001600160ff1b038211156112025760405162461bcd60e51b815260206004820152602860248201527f53616665436173743a2076616c756520646f65736e27742066697420696e2061604482015267371034b73a191a9b60c11b606482015260840161044a565b5090565b6112108282610e4b565b610b0d5760008281526001602081815260408084206001600160a01b0386168086529252808420805460ff19169093179092559051339285917f2f8788117e7eff1d82e926ec794901d17c78024a50270940304540a733656f0d9190a45050565b61127b8282610e4b565b15610b0d5760008281526001602090815260408083206001600160a01b0385168085529252808320805460ff1916905551339285917ff6391f5c32d9c69d2a47ea670b442974b53935d1edc7fd64eb21e047a839171b9190a45050565b600054610100900460ff16806112ed5750303b155b806112fb575060005460ff16155b6113175760405162461bcd60e51b815260040161044a906116c6565b600054610100900460ff16158015611339576000805461ffff19166101011790555b611341611383565b61135c653830bab9b2b960d11b6437bbb732b960d91b6113ec565b61136f653830bab9b2b960d11b33611441565b8015611119576000805461ff001916905550565b600054610100900460ff16806113985750303b155b806113a6575060005460ff16155b6113c25760405162461bcd60e51b815260040161044a906116c6565b600054610100900460ff161580156113e4576000805461ffff19166101011790555b61136f61144b565b60006113f783610a58565b6000848152600160208190526040808320909101859055519192508391839186917fbd79b86ffe0ab8e8776151514217cd7cacd52c909f66475c3af44e129f0b00ff9190a4505050565b610b0d8282611206565b600054610100900460ff16806114605750303b155b8061146e575060005460ff16155b61148a5760405162461bcd60e51b815260040161044a906116c6565b600054610100900460ff161580156114ac576000805461ffff19166101011790555b6114be6437bbb732b960d91b33611441565b6114d86430b236b4b760d91b6437bbb732b960d91b6113ec565b6114f56737b832b930ba37b960c11b6437bbb732b960d91b6113ec565b6115076430b236b4b760d91b33611441565b61136f6737b832b930ba37b960c11b33611441565b80356001600160a01b0381168114610a6c57600080fd5b600060208284031215611544578081fd5b6111918261151c565b60006020828403121561155e578081fd5b5035919050565b600060208284031215611576578081fd5b5051919050565b6000806040838503121561158f578081fd5b8235915061159f6020840161151c565b90509250929050565b6000806000606084860312156115bc578081fd5b833592506115cc6020850161151c565b91506115da6040850161151c565b90509250925092565b6000806000606084860312156115f7578283fd5b83359250602084013591506115da6040850161151c565b600080600060608486031215611622578283fd5b505081359360208301359350604090920135919050565b6000806040838503121561164b578182fd5b50508035926020909101359150565b6000806040838503121561166c578182fd5b505080516020909101519092909150565b60008060008060008060c08789031215611695578182fd5b865195506020870151945060408701519350606087015192506080870151915060a087015190509295509295509295565b6020808252602e908201527f496e697469616c697a61626c653a20636f6e747261637420697320616c72656160408201526d191e481a5b9a5d1a585b1a5e995960921b606082015260800190565b600082198211156117275761172761179c565b500190565b60008261174757634e487b7160e01b81526012600452602481fd5b500490565b60008160001904831182151516156117665761176661179c565b500290565b60008282101561177d5761177d61179c565b500390565b6000600160ff1b8214156117985761179861179c565b0390565b634e487b7160e01b600052601160045260246000fdfea2646970667358221220ee6bd55c5b76ef7ce2336090cc48765f46d84e3b064acf998c2e9868262fd5c164736f6c63430008030033",
  "devdoc": {
    "kind": "dev",
    "methods": {
      "endLiquidation(bytes32,uint256)": {
        "params": {
          "collateralType": "collateralType",
          "rad": "liquidated ksd amount"
        }
      },
      "liquidate(bytes32,address,address)": {
        "params": {
          "collateralType": "type of collateral in vault to liquidate",
          "keeper": "address that will receive incentives",
          "vaultAddr": "address of vault to liquidate"
        }
      }
    },
    "version": 1
  },
  "userdoc": {
    "kind": "user",
    "methods": {
      "endLiquidation(bytes32,uint256)": {
        "notice": "when liquidation process is ended (including auction), endLiquidation is called to clear some data related the liquidation."
      },
      "liquidate(bytes32,address,address)": {
        "notice": "liquidate a Vault and start a Dutch auction to sell its collateral for KSD. The entire Vault will be liquidated except when the target amount of KSD to be raised in the resulting auction (debt of Vault + liquidation penalty) causes either totalOnGoingAmount to exceed totalMaxAmount or collateral.onGoingAmount to exceed collateral.maxAmount by an economically significant amount. In that case, a partial liquidation is performed to respect the global and per-collateral limits on outstanding KSD target. The one exception is if the resulting auction would likely have too little collateral to be interesting to Keepers (debt taken from Vault < collateral.dust), in which case the function reverts. Please refer to the code and comments within if more detail is desired."
      }
    },
    "notice": "Most of the codes here are a subset of MakerDAO's contract",
    "version": 1
  },
  "storageLayout": {
    "storage": [
      {
        "astId": 23220,
        "contract": "contracts/liquidation/Liquidator.sol:Liquidator",
        "label": "_initialized",
        "offset": 0,
        "slot": "0",
        "type": "t_bool"
      },
      {
        "astId": 23223,
        "contract": "contracts/liquidation/Liquidator.sol:Liquidator",
        "label": "_initializing",
        "offset": 1,
        "slot": "0",
        "type": "t_bool"
      },
      {
        "astId": 20166,
        "contract": "contracts/liquidation/Liquidator.sol:Liquidator",
        "label": "_roles",
        "offset": 0,
        "slot": "1",
        "type": "t_mapping(t_bytes32,t_struct(RoleData)20161_storage)"
      },
      {
        "astId": 20556,
        "contract": "contracts/liquidation/Liquidator.sol:Liquidator",
        "label": "_paused",
        "offset": 0,
        "slot": "2",
        "type": "t_bool"
      },
      {
        "astId": 23305,
        "contract": "contracts/liquidation/Liquidator.sol:Liquidator",
        "label": "ledger",
        "offset": 1,
        "slot": "2",
        "type": "t_contract(ILedger)8804"
      },
      {
        "astId": 23311,
        "contract": "contracts/liquidation/Liquidator.sol:Liquidator",
        "label": "auctionInfos",
        "offset": 0,
        "slot": "3",
        "type": "t_mapping(t_bytes32,t_struct(AuctionInfo)8816_storage)"
      },
      {
        "astId": 23314,
        "contract": "contracts/liquidation/Liquidator.sol:Liquidator",
        "label": "minusBank",
        "offset": 0,
        "slot": "4",
        "type": "t_contract(IMinusBank)8917"
      },
      {
        "astId": 23316,
        "contract": "contracts/liquidation/Liquidator.sol:Liquidator",
        "label": "totalMaxAmount",
        "offset": 0,
        "slot": "5",
        "type": "t_uint256"
      },
      {
        "astId": 23318,
        "contract": "contracts/liquidation/Liquidator.sol:Liquidator",
        "label": "totalOnGoingAmount",
        "offset": 0,
        "slot": "6",
        "type": "t_uint256"
      }
    ],
    "types": {
      "t_address": {
        "encoding": "inplace",
        "label": "address",
        "numberOfBytes": "20"
      },
      "t_bool": {
        "encoding": "inplace",
        "label": "bool",
        "numberOfBytes": "1"
      },
      "t_bytes32": {
        "encoding": "inplace",
        "label": "bytes32",
        "numberOfBytes": "32"
      },
      "t_contract(ILedger)8804": {
        "encoding": "inplace",
        "label": "contract ILedger",
        "numberOfBytes": "20"
      },
      "t_contract(IMinusBank)8917": {
        "encoding": "inplace",
        "label": "contract IMinusBank",
        "numberOfBytes": "20"
      },
      "t_mapping(t_address,t_bool)": {
        "encoding": "mapping",
        "key": "t_address",
        "label": "mapping(address => bool)",
        "numberOfBytes": "32",
        "value": "t_bool"
      },
      "t_mapping(t_bytes32,t_struct(AuctionInfo)8816_storage)": {
        "encoding": "mapping",
        "key": "t_bytes32",
        "label": "mapping(bytes32 => struct ILiquidator.AuctionInfo)",
        "numberOfBytes": "32",
        "value": "t_struct(AuctionInfo)8816_storage"
      },
      "t_mapping(t_bytes32,t_struct(RoleData)20161_storage)": {
        "encoding": "mapping",
        "key": "t_bytes32",
        "label": "mapping(bytes32 => struct AccessControl.RoleData)",
        "numberOfBytes": "32",
        "value": "t_struct(RoleData)20161_storage"
      },
      "t_struct(AuctionInfo)8816_storage": {
        "encoding": "inplace",
        "label": "struct ILiquidator.AuctionInfo",
        "members": [
          {
            "astId": 8809,
            "contract": "contracts/liquidation/Liquidator.sol:Liquidator",
            "label": "auctionHouse",
            "offset": 0,
            "slot": "0",
            "type": "t_address"
          },
          {
            "astId": 8811,
            "contract": "contracts/liquidation/Liquidator.sol:Liquidator",
            "label": "penalty",
            "offset": 0,
            "slot": "1",
            "type": "t_uint256"
          },
          {
            "astId": 8813,
            "contract": "contracts/liquidation/Liquidator.sol:Liquidator",
            "label": "maxAmount",
            "offset": 0,
            "slot": "2",
            "type": "t_uint256"
          },
          {
            "astId": 8815,
            "contract": "contracts/liquidation/Liquidator.sol:Liquidator",
            "label": "onGoingAmount",
            "offset": 0,
            "slot": "3",
            "type": "t_uint256"
          }
        ],
        "numberOfBytes": "128"
      },
      "t_struct(RoleData)20161_storage": {
        "encoding": "inplace",
        "label": "struct AccessControl.RoleData",
        "members": [
          {
            "astId": 20158,
            "contract": "contracts/liquidation/Liquidator.sol:Liquidator",
            "label": "members",
            "offset": 0,
            "slot": "0",
            "type": "t_mapping(t_address,t_bool)"
          },
          {
            "astId": 20160,
            "contract": "contracts/liquidation/Liquidator.sol:Liquidator",
            "label": "adminRole",
            "offset": 0,
            "slot": "1",
            "type": "t_bytes32"
          }
        ],
        "numberOfBytes": "64"
      },
      "t_uint256": {
        "encoding": "inplace",
        "label": "uint256",
        "numberOfBytes": "32"
      }
    }
  }
}