{
  "address": "0xf8cFC5f69Fc5033097D10838cf5B8B5D6752270C",
  "abi": [
    {
      "anonymous": false,
      "inputs": [
        {
          "indexed": false,
          "internalType": "address",
          "name": "account",
          "type": "address"
        }
      ],
      "name": "Paused",
      "type": "event"
    },
    {
      "anonymous": false,
      "inputs": [
        {
          "indexed": true,
          "internalType": "bytes32",
          "name": "role",
          "type": "bytes32"
        },
        {
          "indexed": true,
          "internalType": "bytes32",
          "name": "previousAdminRole",
          "type": "bytes32"
        },
        {
          "indexed": true,
          "internalType": "bytes32",
          "name": "newAdminRole",
          "type": "bytes32"
        }
      ],
      "name": "RoleAdminChanged",
      "type": "event"
    },
    {
      "anonymous": false,
      "inputs": [
        {
          "indexed": true,
          "internalType": "bytes32",
          "name": "role",
          "type": "bytes32"
        },
        {
          "indexed": true,
          "internalType": "address",
          "name": "account",
          "type": "address"
        },
        {
          "indexed": true,
          "internalType": "address",
          "name": "sender",
          "type": "address"
        }
      ],
      "name": "RoleGranted",
      "type": "event"
    },
    {
      "anonymous": false,
      "inputs": [
        {
          "indexed": true,
          "internalType": "bytes32",
          "name": "role",
          "type": "bytes32"
        },
        {
          "indexed": true,
          "internalType": "address",
          "name": "account",
          "type": "address"
        },
        {
          "indexed": true,
          "internalType": "address",
          "name": "sender",
          "type": "address"
        }
      ],
      "name": "RoleRevoked",
      "type": "event"
    },
    {
      "anonymous": false,
      "inputs": [
        {
          "indexed": false,
          "internalType": "address",
          "name": "account",
          "type": "address"
        }
      ],
      "name": "Unpaused",
      "type": "event"
    },
    {
      "inputs": [],
      "name": "DEFAULT_ADMIN_ROLE",
      "outputs": [
        {
          "internalType": "bytes32",
          "name": "",
          "type": "bytes32"
        }
      ],
      "stateMutability": "view",
      "type": "function"
    },
    {
      "inputs": [
        {
          "internalType": "address",
          "name": "ledger_",
          "type": "address"
        }
      ],
      "name": "__MinusBank_init",
      "outputs": [],
      "stateMutability": "nonpayable",
      "type": "function"
    },
    {
      "inputs": [
        {
          "internalType": "bytes32",
          "name": "role",
          "type": "bytes32"
        }
      ],
      "name": "getRoleAdmin",
      "outputs": [
        {
          "internalType": "bytes32",
          "name": "",
          "type": "bytes32"
        }
      ],
      "stateMutability": "view",
      "type": "function"
    },
    {
      "inputs": [
        {
          "internalType": "bytes32",
          "name": "role",
          "type": "bytes32"
        },
        {
          "internalType": "address",
          "name": "account",
          "type": "address"
        }
      ],
      "name": "grantRole",
      "outputs": [],
      "stateMutability": "nonpayable",
      "type": "function"
    },
    {
      "inputs": [
        {
          "internalType": "bytes32",
          "name": "role",
          "type": "bytes32"
        },
        {
          "internalType": "address",
          "name": "account",
          "type": "address"
        }
      ],
      "name": "hasRole",
      "outputs": [
        {
          "internalType": "bool",
          "name": "",
          "type": "bool"
        }
      ],
      "stateMutability": "view",
      "type": "function"
    },
    {
      "inputs": [],
      "name": "ledger",
      "outputs": [
        {
          "internalType": "contract ILedger",
          "name": "",
          "type": "address"
        }
      ],
      "stateMutability": "view",
      "type": "function"
    },
    {
      "inputs": [],
      "name": "pause",
      "outputs": [],
      "stateMutability": "nonpayable",
      "type": "function"
    },
    {
      "inputs": [],
      "name": "paused",
      "outputs": [
        {
          "internalType": "bool",
          "name": "",
          "type": "bool"
        }
      ],
      "stateMutability": "view",
      "type": "function"
    },
    {
      "inputs": [
        {
          "internalType": "uint256",
          "name": "rad",
          "type": "uint256"
        }
      ],
      "name": "payBackMinus",
      "outputs": [],
      "stateMutability": "nonpayable",
      "type": "function"
    },
    {
      "inputs": [
        {
          "internalType": "bytes32",
          "name": "role",
          "type": "bytes32"
        },
        {
          "internalType": "address",
          "name": "account",
          "type": "address"
        }
      ],
      "name": "renounceRole",
      "outputs": [],
      "stateMutability": "nonpayable",
      "type": "function"
    },
    {
      "inputs": [
        {
          "internalType": "bytes32",
          "name": "role",
          "type": "bytes32"
        },
        {
          "internalType": "address",
          "name": "account",
          "type": "address"
        }
      ],
      "name": "revokeRole",
      "outputs": [],
      "stateMutability": "nonpayable",
      "type": "function"
    },
    {
      "inputs": [
        {
          "internalType": "address",
          "name": "newOwner",
          "type": "address"
        }
      ],
      "name": "transferOwnership",
      "outputs": [],
      "stateMutability": "nonpayable",
      "type": "function"
    },
    {
      "inputs": [],
      "name": "unpause",
      "outputs": [],
      "stateMutability": "nonpayable",
      "type": "function"
    }
  ],
  "transactionHash": "0x771017e3db2f1b9f10a9418442422b93436d834c8c898319ea25696472f4d37d",
  "args": [],
  "solcInputHash": "daac9cba34dfabe5953ff704314717f0",
  "bytecode": "0x608060405234801561001057600080fd5b50610afb806100206000396000f3fe608060405234801561001057600080fd5b50600436106100cf5760003560e01c80635c975abb1161008c578063a217fddf11610066578063a217fddf1461019f578063ca920527146101a7578063d547741f146101ba578063f2fde38b146101cd576100cf565b80635c975abb1461016d5780638456cb591461018457806391d148541461018c576100cf565b8063248a9ca3146100d45780632f2ff15d146100fa5780632fcf62ff1461010f57806336568abe146101225780633f4ba83a1461013557806356397c351461013d575b600080fd5b6100e76100e2366004610a1c565b6101e0565b6040519081526020015b60405180910390f35b61010d610108366004610a34565b6101f9565b005b61010d61011d366004610a1c565b61021b565b61010d610130366004610a34565b610385565b61010d610408565b6002546101559061010090046001600160a01b031681565b6040516001600160a01b0390911681526020016100f1565b60025460ff165b60405190151581526020016100f1565b61010d6104a6565b61017461019a366004610a34565b61053d565b6100e7600081565b61010d6101b5366004610a02565b610568565b61010d6101c8366004610a34565b610606565b61010d6101db366004610a02565b610623565b600081815260016020819052604090912001545b919050565b610202826101e0565b61020c8133610659565b61021683836106bd565b505050565b60025460405163711c534360e11b81523060048201526101009091046001600160a01b03169063e238a6869060240160206040518083038186803b15801561026257600080fd5b505afa158015610276573d6000803e3d6000fd5b505050506040513d601f19601f8201168201806040525081019061029a9190610a5f565b81116103825760025460405163782c909560e11b81523060048201526101009091046001600160a01b03169063f37ac61c9061033190839063f059212a9060240160206040518083038186803b1580156102f357600080fd5b505afa158015610307573d6000803e3d6000fd5b505050506040513d601f19601f8201168201806040525081019061032b9190610a5f565b84610728565b6040518263ffffffff1660e01b815260040161034f91815260200190565b600060405180830381600087803b15801561036957600080fd5b505af115801561037d573d6000803e3d6000fd5b505050505b50565b6001600160a01b03811633146103fa5760405162461bcd60e51b815260206004820152602f60248201527f416363657373436f6e74726f6c3a2063616e206f6e6c792072656e6f756e636560448201526e103937b632b9903337b91039b2b63360891b60648201526084015b60405180910390fd5b6104048282610740565b5050565b60025460ff166104515760405162461bcd60e51b815260206004820152601460248201527314185d5cd8589b194e881b9bdd081c185d5cd95960621b60448201526064016103f1565b653830bab9b2b960d11b6104658133610659565b6002805460ff191690556040513381527f5db9ee0a495bf2e6ff9c91a7834c1ba4fdd244a5e8aa4e537bd38aeae4b073aa906020015b60405180910390a150565b60025460ff16156104ec5760405162461bcd60e51b815260206004820152601060248201526f14185d5cd8589b194e881c185d5cd95960821b60448201526064016103f1565b653830bab9b2b960d11b6105008133610659565b6002805460ff191660011790556040513381527f62e78cea01bee320cd4e420270b5ea74000d11b0c9f74754ebdbfc544b05a2589060200161049b565b60009182526001602090815260408084206001600160a01b0393909316845291905290205460ff1690565b600054610100900460ff168061057d5750303b155b8061058b575060005460ff16155b6105a75760405162461bcd60e51b81526004016103f190610a77565b600054610100900460ff161580156105c9576000805461ffff19166101011790555b6105d16107a7565b60028054610100600160a81b0319166101006001600160a01b038516021790558015610404576000805461ff00191690555050565b61060f826101e0565b6106198133610659565b6102168383610740565b6106356437bbb732b960d91b33610659565b6106476437bbb732b960d91b826106bd565b6103826437bbb732b960d91b33610740565b610663828261053d565b6104045760405162461bcd60e51b815260206004820152602560248201527f416363657373436f6e74726f6c3a5f636865636b526f6c653a696e76616c696460448201526420726f6c6560d81b60648201526084016103f1565b6106c7828261053d565b6104045760008281526001602081815260408084206001600160a01b0386168086529252808420805460ff19169093179092559051339285917f2f8788117e7eff1d82e926ec794901d17c78024a50270940304540a733656f0d9190a45050565b60008183106107375781610739565b825b9392505050565b61074a828261053d565b156104045760008281526001602090815260408083206001600160a01b0385168085529252808320805460ff1916905551339285917ff6391f5c32d9c69d2a47ea670b442974b53935d1edc7fd64eb21e047a839171b9190a45050565b600054610100900460ff16806107bc5750303b155b806107ca575060005460ff16155b6107e65760405162461bcd60e51b81526004016103f190610a77565b600054610100900460ff16158015610808576000805461ffff19166101011790555b610810610852565b61082b653830bab9b2b960d11b6437bbb732b960d91b6108bb565b61083e653830bab9b2b960d11b33610910565b8015610382576000805461ff001916905550565b600054610100900460ff16806108675750303b155b80610875575060005460ff16155b6108915760405162461bcd60e51b81526004016103f190610a77565b600054610100900460ff161580156108b3576000805461ffff19166101011790555b61083e61091a565b60006108c6836101e0565b6000848152600160208190526040808320909101859055519192508391839186917fbd79b86ffe0ab8e8776151514217cd7cacd52c909f66475c3af44e129f0b00ff9190a4505050565b61040482826106bd565b600054610100900460ff168061092f5750303b155b8061093d575060005460ff16155b6109595760405162461bcd60e51b81526004016103f190610a77565b600054610100900460ff1615801561097b576000805461ffff19166101011790555b61098d6437bbb732b960d91b33610910565b6109a76430b236b4b760d91b6437bbb732b960d91b6108bb565b6109c46737b832b930ba37b960c11b6437bbb732b960d91b6108bb565b6109d66430b236b4b760d91b33610910565b61083e6737b832b930ba37b960c11b33610910565b80356001600160a01b03811681146101f457600080fd5b600060208284031215610a13578081fd5b610739826109eb565b600060208284031215610a2d578081fd5b5035919050565b60008060408385031215610a46578081fd5b82359150610a56602084016109eb565b90509250929050565b600060208284031215610a70578081fd5b5051919050565b6020808252602e908201527f496e697469616c697a61626c653a20636f6e747261637420697320616c72656160408201526d191e481a5b9a5d1a585b1a5e995960921b60608201526080019056fea2646970667358221220b68721e5de8a77402e1d725765f147109545f649c69dbf0a90cb98094a56c7c264736f6c63430008030033",
  "devdoc": {
    "kind": "dev",
    "methods": {
      "payBackMinus(uint256)": {
        "params": {
          "rad": "the amount of pay back"
        }
      }
    },
    "version": 1
  },
  "userdoc": {
    "kind": "user",
    "methods": {
      "payBackMinus(uint256)": {
        "notice": "pay back the sin of MinusBank"
      }
    },
    "notice": "Most of the codes here are a subset of MakerDAO's contract",
    "version": 1
  },
  "storageLayout": {
    "storage": [
      {
        "astId": 23220,
        "contract": "contracts/liquidation/MinusBank.sol:MinusBank",
        "label": "_initialized",
        "offset": 0,
        "slot": "0",
        "type": "t_bool"
      },
      {
        "astId": 23223,
        "contract": "contracts/liquidation/MinusBank.sol:MinusBank",
        "label": "_initializing",
        "offset": 1,
        "slot": "0",
        "type": "t_bool"
      },
      {
        "astId": 20166,
        "contract": "contracts/liquidation/MinusBank.sol:MinusBank",
        "label": "_roles",
        "offset": 0,
        "slot": "1",
        "type": "t_mapping(t_bytes32,t_struct(RoleData)20161_storage)"
      },
      {
        "astId": 20556,
        "contract": "contracts/liquidation/MinusBank.sol:MinusBank",
        "label": "_paused",
        "offset": 0,
        "slot": "2",
        "type": "t_bool"
      },
      {
        "astId": 23799,
        "contract": "contracts/liquidation/MinusBank.sol:MinusBank",
        "label": "ledger",
        "offset": 1,
        "slot": "2",
        "type": "t_contract(ILedger)8804"
      }
    ],
    "types": {
      "t_address": {
        "encoding": "inplace",
        "label": "address",
        "numberOfBytes": "20"
      },
      "t_bool": {
        "encoding": "inplace",
        "label": "bool",
        "numberOfBytes": "1"
      },
      "t_bytes32": {
        "encoding": "inplace",
        "label": "bytes32",
        "numberOfBytes": "32"
      },
      "t_contract(ILedger)8804": {
        "encoding": "inplace",
        "label": "contract ILedger",
        "numberOfBytes": "20"
      },
      "t_mapping(t_address,t_bool)": {
        "encoding": "mapping",
        "key": "t_address",
        "label": "mapping(address => bool)",
        "numberOfBytes": "32",
        "value": "t_bool"
      },
      "t_mapping(t_bytes32,t_struct(RoleData)20161_storage)": {
        "encoding": "mapping",
        "key": "t_bytes32",
        "label": "mapping(bytes32 => struct AccessControl.RoleData)",
        "numberOfBytes": "32",
        "value": "t_struct(RoleData)20161_storage"
      },
      "t_struct(RoleData)20161_storage": {
        "encoding": "inplace",
        "label": "struct AccessControl.RoleData",
        "members": [
          {
            "astId": 20158,
            "contract": "contracts/liquidation/MinusBank.sol:MinusBank",
            "label": "members",
            "offset": 0,
            "slot": "0",
            "type": "t_mapping(t_address,t_bool)"
          },
          {
            "astId": 20160,
            "contract": "contracts/liquidation/MinusBank.sol:MinusBank",
            "label": "adminRole",
            "offset": 0,
            "slot": "1",
            "type": "t_bytes32"
          }
        ],
        "numberOfBytes": "64"
      }
    }
  }
}