{
  "address": "0x80e5eD2c38b83220e09d106ce10278fA591D4fB2",
  "abi": [
    {
      "inputs": [
        {
          "internalType": "address",
          "name": "bklay_",
          "type": "address"
        },
        {
          "internalType": "address",
          "name": "otcFund_",
          "type": "address"
        }
      ],
      "name": "__MockFlashBorrower_init",
      "outputs": [],
      "stateMutability": "nonpayable",
      "type": "function"
    },
    {
      "inputs": [
        {
          "internalType": "uint256",
          "name": "amount",
          "type": "uint256"
        }
      ],
      "name": "actionFlashLoan",
      "outputs": [
        {
          "internalType": "bool",
          "name": "",
          "type": "bool"
        }
      ],
      "stateMutability": "nonpayable",
      "type": "function"
    },
    {
      "inputs": [],
      "name": "bklay",
      "outputs": [
        {
          "internalType": "contract IBKlay",
          "name": "",
          "type": "address"
        }
      ],
      "stateMutability": "view",
      "type": "function"
    },
    {
      "inputs": [
        {
          "internalType": "uint256",
          "name": "klayAmount",
          "type": "uint256"
        }
      ],
      "name": "getFlashFee",
      "outputs": [
        {
          "internalType": "uint256",
          "name": "",
          "type": "uint256"
        }
      ],
      "stateMutability": "view",
      "type": "function"
    },
    {
      "inputs": [
        {
          "internalType": "address",
          "name": "account",
          "type": "address"
        },
        {
          "internalType": "uint256",
          "name": "klayAmount",
          "type": "uint256"
        },
        {
          "internalType": "uint256",
          "name": "fee",
          "type": "uint256"
        },
        {
          "internalType": "bytes",
          "name": "data",
          "type": "bytes"
        }
      ],
      "name": "onFlashLoan",
      "outputs": [
        {
          "internalType": "bool",
          "name": "",
          "type": "bool"
        }
      ],
      "stateMutability": "nonpayable",
      "type": "function"
    },
    {
      "inputs": [],
      "name": "otcFund",
      "outputs": [
        {
          "internalType": "contract IOtcFund",
          "name": "",
          "type": "address"
        }
      ],
      "stateMutability": "view",
      "type": "function"
    },
    {
      "inputs": [],
      "name": "transfer",
      "outputs": [],
      "stateMutability": "payable",
      "type": "function"
    },
    {
      "stateMutability": "payable",
      "type": "receive"
    }
  ],
  "transactionHash": "0x717d9fa83278efd70817e457171ccb39bac92c515801ac3032f72f655de88618",
  "args": [],
  "solcInputHash": "bf0c562fa02e80b5423ab50011008f6a",
  "bytecode": "0x608060405234801561001057600080fd5b50610645806100206000396000f3fe6080604052600436106100745760003560e01c80639caee1131161004e5780639caee113146100e5578063bc04038a14610105578063e017335514610125578063e0a4486b146101635761007b565b806385c7c326146100805780638a4068dd146100b35780639b8ea104146100b55761007b565b3661007b57005b600080fd5b34801561008c57600080fd5b506100a061009b3660046105bb565b610183565b6040519081526020015b60405180910390f35b005b3480156100c157600080fd5b506100d56100d03660046105bb565b61020d565b60405190151581526020016100aa565b3480156100f157600080fd5b506100d5610100366004610505565b6102a9565b34801561011157600080fd5b506100b36101203660046104d3565b6103b8565b34801561013157600080fd5b5060005461014b906201000090046001600160a01b031681565b6040516001600160a01b0390911681526020016100aa565b34801561016f57600080fd5b5060015461014b906001600160a01b031681565b6001546040516353d7a33d60e11b81526004810183905260009182916001600160a01b039091169063a7af467a9060240160206040518083038186803b1580156101cc57600080fd5b505afa1580156101e0573d6000803e3d6000fd5b505050506040513d601f19601f8201168201806040525081019061020491906105d3565b9150505b919050565b60015460405163701195a160e11b81523060048201526024810183905260606044820152600060648201819052916001600160a01b03169063e0232b4290608401602060405180830381600087803b15801561026857600080fd5b505af115801561027c573d6000803e3d6000fd5b505050506040513d601f19601f820116820180604052508101906102a09190610594565b50600192915050565b6000806102b685876105eb565b600054604051632b89466d60e21b81523060048201529192506201000090046001600160a01b03169063ae2519b49083906024016000604051808303818588803b15801561030357600080fd5b505af1158015610317573d6000803e3d6000fd5b505060005460405163a9059cbb60e01b81526001600160a01b038c811660048301526024820187905262010000909204909116935063a9059cbb92506044019050602060405180830381600087803b15801561037257600080fd5b505af1158015610386573d6000803e3d6000fd5b505050506040513d601f19601f820116820180604052508101906103aa9190610594565b506001979650505050505050565b600054610100900460ff16806103cd5750303b155b806103db575060005460ff16155b6104425760405162461bcd60e51b815260206004820152602e60248201527f496e697469616c697a61626c653a20636f6e747261637420697320616c72656160448201526d191e481a5b9a5d1a585b1a5e995960921b606482015260840160405180910390fd5b600054610100900460ff16158015610464576000805461ffff19166101011790555b6000805462010000600160b01b031916620100006001600160a01b038681169190910291909117909155600180546001600160a01b03191691841691909117905580156104b7576000805461ff00191690555b505050565b80356001600160a01b038116811461020857600080fd5b600080604083850312156104e5578182fd5b6104ee836104bc565b91506104fc602084016104bc565b90509250929050565b60008060008060006080868803121561051c578081fd5b610525866104bc565b94506020860135935060408601359250606086013567ffffffffffffffff8082111561054f578283fd5b818801915088601f830112610562578283fd5b813581811115610570578384fd5b896020828501011115610581578384fd5b9699959850939650602001949392505050565b6000602082840312156105a5578081fd5b815180151581146105b4578182fd5b9392505050565b6000602082840312156105cc578081fd5b5035919050565b6000602082840312156105e4578081fd5b5051919050565b6000821982111561060a57634e487b7160e01b81526011600452602481fd5b50019056fea264697066735822122081cf5fb7ccd0869e2dfcaf5a26bb98a11f4596801e2112b5611def9f5924dc7964736f6c63430008030033",
  "devdoc": {
    "kind": "dev",
    "methods": {},
    "version": 1
  },
  "userdoc": {
    "kind": "user",
    "methods": {
      "onFlashLoan(address,uint256,uint256,bytes)": {
        "notice": "action flash loan"
      }
    },
    "version": 1
  },
  "storageLayout": {
    "storage": [
      {
        "astId": 14952,
        "contract": "contracts/mock/MockFlashBorrower.sol:MockFlashBorrower",
        "label": "_initialized",
        "offset": 0,
        "slot": "0",
        "type": "t_bool"
      },
      {
        "astId": 14955,
        "contract": "contracts/mock/MockFlashBorrower.sol:MockFlashBorrower",
        "label": "_initializing",
        "offset": 1,
        "slot": "0",
        "type": "t_bool"
      },
      {
        "astId": 17015,
        "contract": "contracts/mock/MockFlashBorrower.sol:MockFlashBorrower",
        "label": "bklay",
        "offset": 2,
        "slot": "0",
        "type": "t_contract(IBKlay)3800"
      },
      {
        "astId": 17018,
        "contract": "contracts/mock/MockFlashBorrower.sol:MockFlashBorrower",
        "label": "otcFund",
        "offset": 0,
        "slot": "1",
        "type": "t_contract(IOtcFund)5133"
      }
    ],
    "types": {
      "t_bool": {
        "encoding": "inplace",
        "label": "bool",
        "numberOfBytes": "1"
      },
      "t_contract(IBKlay)3800": {
        "encoding": "inplace",
        "label": "contract IBKlay",
        "numberOfBytes": "20"
      },
      "t_contract(IOtcFund)5133": {
        "encoding": "inplace",
        "label": "contract IOtcFund",
        "numberOfBytes": "20"
      }
    }
  }
}