{
  "address": "0x59c92F76FBADE4fa454067b4Aed4B6e6AD01C4D4",
  "abi": [
    {
      "anonymous": false,
      "inputs": [
        {
          "indexed": false,
          "internalType": "address",
          "name": "account",
          "type": "address"
        }
      ],
      "name": "Paused",
      "type": "event"
    },
    {
      "anonymous": false,
      "inputs": [
        {
          "indexed": true,
          "internalType": "bytes32",
          "name": "role",
          "type": "bytes32"
        },
        {
          "indexed": true,
          "internalType": "bytes32",
          "name": "previousAdminRole",
          "type": "bytes32"
        },
        {
          "indexed": true,
          "internalType": "bytes32",
          "name": "newAdminRole",
          "type": "bytes32"
        }
      ],
      "name": "RoleAdminChanged",
      "type": "event"
    },
    {
      "anonymous": false,
      "inputs": [
        {
          "indexed": true,
          "internalType": "bytes32",
          "name": "role",
          "type": "bytes32"
        },
        {
          "indexed": true,
          "internalType": "address",
          "name": "account",
          "type": "address"
        },
        {
          "indexed": true,
          "internalType": "address",
          "name": "sender",
          "type": "address"
        }
      ],
      "name": "RoleGranted",
      "type": "event"
    },
    {
      "anonymous": false,
      "inputs": [
        {
          "indexed": true,
          "internalType": "bytes32",
          "name": "role",
          "type": "bytes32"
        },
        {
          "indexed": true,
          "internalType": "address",
          "name": "account",
          "type": "address"
        },
        {
          "indexed": true,
          "internalType": "address",
          "name": "sender",
          "type": "address"
        }
      ],
      "name": "RoleRevoked",
      "type": "event"
    },
    {
      "anonymous": false,
      "inputs": [
        {
          "indexed": false,
          "internalType": "address",
          "name": "account",
          "type": "address"
        }
      ],
      "name": "Unpaused",
      "type": "event"
    },
    {
      "anonymous": false,
      "inputs": [
        {
          "indexed": false,
          "internalType": "bytes32",
          "name": "collateralType",
          "type": "bytes32"
        },
        {
          "indexed": false,
          "internalType": "uint256",
          "name": "value",
          "type": "uint256"
        },
        {
          "indexed": false,
          "internalType": "uint256",
          "name": "price",
          "type": "uint256"
        }
      ],
      "name": "UpdatePrice",
      "type": "event"
    },
    {
      "inputs": [],
      "name": "DEFAULT_ADMIN_ROLE",
      "outputs": [
        {
          "internalType": "bytes32",
          "name": "",
          "type": "bytes32"
        }
      ],
      "stateMutability": "view",
      "type": "function"
    },
    {
      "inputs": [
        {
          "internalType": "address",
          "name": "ledger_",
          "type": "address"
        }
      ],
      "name": "__Oracle_init",
      "outputs": [],
      "stateMutability": "nonpayable",
      "type": "function"
    },
    {
      "inputs": [
        {
          "internalType": "bytes32",
          "name": "",
          "type": "bytes32"
        }
      ],
      "name": "collateralInfo",
      "outputs": [
        {
          "internalType": "contract IFeed",
          "name": "feed",
          "type": "address"
        },
        {
          "internalType": "uint256",
          "name": "liquidRatio",
          "type": "uint256"
        }
      ],
      "stateMutability": "view",
      "type": "function"
    },
    {
      "inputs": [
        {
          "internalType": "bytes32",
          "name": "collateralType",
          "type": "bytes32"
        },
        {
          "internalType": "bytes32",
          "name": "what",
          "type": "bytes32"
        },
        {
          "internalType": "uint256",
          "name": "data",
          "type": "uint256"
        }
      ],
      "name": "config",
      "outputs": [],
      "stateMutability": "nonpayable",
      "type": "function"
    },
    {
      "inputs": [
        {
          "internalType": "bytes32",
          "name": "collateralType",
          "type": "bytes32"
        },
        {
          "internalType": "bytes32",
          "name": "what",
          "type": "bytes32"
        },
        {
          "internalType": "address",
          "name": "feed",
          "type": "address"
        }
      ],
      "name": "config",
      "outputs": [],
      "stateMutability": "nonpayable",
      "type": "function"
    },
    {
      "inputs": [
        {
          "internalType": "bytes32",
          "name": "what",
          "type": "bytes32"
        },
        {
          "internalType": "uint256",
          "name": "data",
          "type": "uint256"
        }
      ],
      "name": "config",
      "outputs": [],
      "stateMutability": "nonpayable",
      "type": "function"
    },
    {
      "inputs": [
        {
          "internalType": "bytes32",
          "name": "role",
          "type": "bytes32"
        }
      ],
      "name": "getRoleAdmin",
      "outputs": [
        {
          "internalType": "bytes32",
          "name": "",
          "type": "bytes32"
        }
      ],
      "stateMutability": "view",
      "type": "function"
    },
    {
      "inputs": [
        {
          "internalType": "bytes32",
          "name": "role",
          "type": "bytes32"
        },
        {
          "internalType": "address",
          "name": "account",
          "type": "address"
        }
      ],
      "name": "grantRole",
      "outputs": [],
      "stateMutability": "nonpayable",
      "type": "function"
    },
    {
      "inputs": [
        {
          "internalType": "bytes32",
          "name": "role",
          "type": "bytes32"
        },
        {
          "internalType": "address",
          "name": "account",
          "type": "address"
        }
      ],
      "name": "hasRole",
      "outputs": [
        {
          "internalType": "bool",
          "name": "",
          "type": "bool"
        }
      ],
      "stateMutability": "view",
      "type": "function"
    },
    {
      "inputs": [],
      "name": "ledger",
      "outputs": [
        {
          "internalType": "contract ILedger",
          "name": "",
          "type": "address"
        }
      ],
      "stateMutability": "view",
      "type": "function"
    },
    {
      "inputs": [],
      "name": "pause",
      "outputs": [],
      "stateMutability": "nonpayable",
      "type": "function"
    },
    {
      "inputs": [],
      "name": "paused",
      "outputs": [
        {
          "internalType": "bool",
          "name": "",
          "type": "bool"
        }
      ],
      "stateMutability": "view",
      "type": "function"
    },
    {
      "inputs": [
        {
          "internalType": "bytes32",
          "name": "role",
          "type": "bytes32"
        },
        {
          "internalType": "address",
          "name": "account",
          "type": "address"
        }
      ],
      "name": "renounceRole",
      "outputs": [],
      "stateMutability": "nonpayable",
      "type": "function"
    },
    {
      "inputs": [
        {
          "internalType": "bytes32",
          "name": "role",
          "type": "bytes32"
        },
        {
          "internalType": "address",
          "name": "account",
          "type": "address"
        }
      ],
      "name": "revokeRole",
      "outputs": [],
      "stateMutability": "nonpayable",
      "type": "function"
    },
    {
      "inputs": [
        {
          "internalType": "address",
          "name": "newOwner",
          "type": "address"
        }
      ],
      "name": "transferOwnership",
      "outputs": [],
      "stateMutability": "nonpayable",
      "type": "function"
    },
    {
      "inputs": [],
      "name": "unit",
      "outputs": [
        {
          "internalType": "uint256",
          "name": "",
          "type": "uint256"
        }
      ],
      "stateMutability": "view",
      "type": "function"
    },
    {
      "inputs": [],
      "name": "unpause",
      "outputs": [],
      "stateMutability": "nonpayable",
      "type": "function"
    },
    {
      "inputs": [
        {
          "internalType": "bytes32",
          "name": "collateralType",
          "type": "bytes32"
        }
      ],
      "name": "updatePrice",
      "outputs": [],
      "stateMutability": "nonpayable",
      "type": "function"
    }
  ],
  "transactionHash": "0xfe6d0ee00104735dd8775d388ca933b71374a75c8cd1eb6122260f57f9bd3954",
  "args": [],
  "solcInputHash": "daac9cba34dfabe5953ff704314717f0",
  "bytecode": "0x60806040526b033b2e3c9fd0803ce800000060055534801561002057600080fd5b50610e63806100306000396000f3fe608060405234801561001057600080fd5b50600436106101165760003560e01c80638456cb59116100a2578063a9345fa811610071578063a9345fa814610257578063ce9125081461026a578063d547741f1461027d578063e0bed04114610290578063f2fde38b146102a357610116565b80638456cb591461022b578063907af6c01461023357806391d148541461023c578063a217fddf1461024f57610116565b80633f4ba83a116100e95780633f4ba83a1461017c578063560b4f271461018457806356397c35146101975780635c975abb146101c25780637d5422a7146101d957610116565b80631d6d8bc81461011b578063248a9ca3146101305780632f2ff15d1461015657806336568abe14610169575b600080fd5b61012e610129366004610c5a565b6102b6565b005b61014361013e366004610c74565b610359565b6040519081526020015b60405180910390f35b61012e610164366004610c8c565b610372565b61012e610177366004610c8c565b610394565b61012e61040e565b61012e610192366004610ceb565b6104ac565b6004546101aa906001600160a01b031681565b6040516001600160a01b03909116815260200161014d565b60025460ff165b604051901515815260200161014d565b61020c6101e7366004610c74565b600360205260009081526040902080546001909101546001600160a01b039091169082565b604080516001600160a01b03909316835260208301919091520161014d565b61012e610562565b61014360055481565b6101c961024a366004610c8c565b6105d6565b610143600081565b61012e610265366004610cb7565b610601565b61012e610278366004610c74565b610671565b61012e61028b366004610c8c565b6107fa565b61012e61029e366004610d16565b610817565b61012e6102b1366004610c5a565b610865565b600054610100900460ff16806102cb5750303b155b806102d9575060005460ff16155b6102fe5760405162461bcd60e51b81526004016102f590610d94565b60405180910390fd5b600054610100900460ff16158015610320576000805461ffff19166101011790555b61032861089e565b600480546001600160a01b0319166001600160a01b0384161790558015610355576000805461ff00191690555b5050565b600081815260016020819052604090912001545b919050565b61037b82610359565b6103858133610949565b61038f83836109ad565b505050565b6001600160a01b03811633146104045760405162461bcd60e51b815260206004820152602f60248201527f416363657373436f6e74726f6c3a2063616e206f6e6c792072656e6f756e636560448201526e103937b632b9903337b91039b2b63360891b60648201526084016102f5565b6103558282610a18565b60025460ff166104575760405162461bcd60e51b815260206004820152601460248201527314185d5cd8589b194e881b9bdd081c185d5cd95960621b60448201526064016102f5565b653830bab9b2b960d11b61046b8133610949565b6002805460ff191690556040513381527f5db9ee0a495bf2e6ff9c91a7834c1ba4fdd244a5e8aa4e537bd38aeae4b073aa906020015b60405180910390a150565b6104be6430b236b4b760d91b33610949565b60025460ff16156104e15760405162461bcd60e51b81526004016102f590610d6a565b816a6c6971756964526174696f60a81b141561051057600083815260036020526040902060010181905561038f565b60405162461bcd60e51b815260206004820152602160248201527f4f7261636c653a3a636f6e6669673a756e7265636f676e697a65642d706172616044820152606d60f81b60648201526084016102f5565b60025460ff16156105855760405162461bcd60e51b81526004016102f590610d6a565b653830bab9b2b960d11b6105998133610949565b6002805460ff191660011790556040513381527f62e78cea01bee320cd4e420270b5ea74000d11b0c9f74754ebdbfc544b05a258906020016104a1565b60009182526001602090815260408084206001600160a01b0393909316845291905290205460ff1690565b6106136430b236b4b760d91b33610949565b60025460ff16156106365760405162461bcd60e51b81526004016102f590610d6a565b81631999595960e21b141561051057600083815260036020526040902080546001600160a01b0319166001600160a01b03831617905561038f565b600081815260036020526040808220548151634c6afee560e11b8152825184936001600160a01b03909316926398d5fdca9260048082019391829003018186803b1580156106be57600080fd5b505afa1580156106d2573d6000803e3d6000fd5b505050506040513d601f19601f820116820180604052508101906106f69190610d37565b91509150600081610708576000610738565b6000848152600360205260409020600101546005546107389190610732908187633b9aca00610e02565b90610a7f565b6004805460405163560b4f2760e01b81529293506001600160a01b03169163560b4f2791610780918891869101918252631cdc1bdd60e21b6020830152604082015260600190565b600060405180830381600087803b15801561079a57600080fd5b505af11580156107ae573d6000803e3d6000fd5b505060408051878152602081018790529081018490527f46303f52047c11454ee76442842401b08b8fe1e5041ae913d2ced1f72fb8d1fa9250606001905060405180910390a150505050565b61080382610359565b61080d8133610949565b61038f8383610a18565b6108296430b236b4b760d91b33610949565b60025460ff161561084c5760405162461bcd60e51b81526004016102f590610d6a565b81631d5b9a5d60e21b1415610510576005819055610355565b6108776437bbb732b960d91b33610949565b6108896437bbb732b960d91b826109ad565b61089b6437bbb732b960d91b33610a18565b50565b600054610100900460ff16806108b35750303b155b806108c1575060005460ff16155b6108dd5760405162461bcd60e51b81526004016102f590610d94565b600054610100900460ff161580156108ff576000805461ffff19166101011790555b610907610aaa565b610922653830bab9b2b960d11b6437bbb732b960d91b610b13565b610935653830bab9b2b960d11b33610b68565b801561089b576000805461ff001916905550565b61095382826105d6565b6103555760405162461bcd60e51b815260206004820152602560248201527f416363657373436f6e74726f6c3a5f636865636b526f6c653a696e76616c696460448201526420726f6c6560d81b60648201526084016102f5565b6109b782826105d6565b6103555760008281526001602081815260408084206001600160a01b0386168086529252808420805460ff19169093179092559051339285917f2f8788117e7eff1d82e926ec794901d17c78024a50270940304540a733656f0d9190a45050565b610a2282826105d6565b156103555760008281526001602090815260408083206001600160a01b0385168085529252808320805460ff1916905551339285917ff6391f5c32d9c69d2a47ea670b442974b53935d1edc7fd64eb21e047a839171b9190a45050565b6000610a976b033b2e3c9fd0803ce800000084610e02565b9050610aa38282610de2565b9392505050565b600054610100900460ff1680610abf5750303b155b80610acd575060005460ff16155b610ae95760405162461bcd60e51b81526004016102f590610d94565b600054610100900460ff16158015610b0b576000805461ffff19166101011790555b610935610b72565b6000610b1e83610359565b6000848152600160208190526040808320909101859055519192508391839186917fbd79b86ffe0ab8e8776151514217cd7cacd52c909f66475c3af44e129f0b00ff9190a4505050565b61035582826109ad565b600054610100900460ff1680610b875750303b155b80610b95575060005460ff16155b610bb15760405162461bcd60e51b81526004016102f590610d94565b600054610100900460ff16158015610bd3576000805461ffff19166101011790555b610be56437bbb732b960d91b33610b68565b610bff6430b236b4b760d91b6437bbb732b960d91b610b13565b610c1c6737b832b930ba37b960c11b6437bbb732b960d91b610b13565b610c2e6430b236b4b760d91b33610b68565b6109356737b832b930ba37b960c11b33610b68565b80356001600160a01b038116811461036d57600080fd5b600060208284031215610c6b578081fd5b610aa382610c43565b600060208284031215610c85578081fd5b5035919050565b60008060408385031215610c9e578081fd5b82359150610cae60208401610c43565b90509250929050565b600080600060608486031215610ccb578081fd5b8335925060208401359150610ce260408501610c43565b90509250925092565b600080600060608486031215610cff578283fd5b505081359360208301359350604090920135919050565b60008060408385031215610d28578182fd5b50508035926020909101359150565b60008060408385031215610d49578182fd5b8251915060208301518015158114610d5f578182fd5b809150509250929050565b60208082526010908201526f14185d5cd8589b194e881c185d5cd95960821b604082015260600190565b6020808252602e908201527f496e697469616c697a61626c653a20636f6e747261637420697320616c72656160408201526d191e481a5b9a5d1a585b1a5e995960921b606082015260800190565b600082610dfd57634e487b7160e01b81526012600452602481fd5b500490565b6000816000190483118215151615610e2857634e487b7160e01b81526011600452602481fd5b50029056fea2646970667358221220113c2b1671f4b7796925b405a504f27692937258f867e8ccf79509849af982e064736f6c63430008030033",
  "devdoc": {
    "details": "this oracle contract updates the reference price and LTV of ledger, therefore it should have permission to ledger.",
    "kind": "dev",
    "methods": {
      "updatePrice(bytes32)": {
        "params": {
          "collateralType": "type of collateral"
        }
      }
    },
    "title": "oracle contract",
    "version": 1
  },
  "userdoc": {
    "kind": "user",
    "methods": {
      "collateralInfo(bytes32)": {
        "notice": "get price info per collateral"
      },
      "config(bytes32,bytes32,address)": {
        "notice": "configuration"
      },
      "config(bytes32,bytes32,uint256)": {
        "notice": "configuration"
      },
      "config(bytes32,uint256)": {
        "notice": "configuration It is not necessary because unit is just constant for now. (this config is for just in case)"
      },
      "unit()": {
        "notice": "view unit variable"
      },
      "updatePrice(bytes32)": {
        "notice": "update price (actually price * LTV) to ledger"
      }
    },
    "notice": "get price from Feed contract and set the inverse of LTV (Loan-To-Value ratio)",
    "version": 1
  },
  "storageLayout": {
    "storage": [
      {
        "astId": 23220,
        "contract": "contracts/oracle/Oracle.sol:Oracle",
        "label": "_initialized",
        "offset": 0,
        "slot": "0",
        "type": "t_bool"
      },
      {
        "astId": 23223,
        "contract": "contracts/oracle/Oracle.sol:Oracle",
        "label": "_initializing",
        "offset": 1,
        "slot": "0",
        "type": "t_bool"
      },
      {
        "astId": 20166,
        "contract": "contracts/oracle/Oracle.sol:Oracle",
        "label": "_roles",
        "offset": 0,
        "slot": "1",
        "type": "t_mapping(t_bytes32,t_struct(RoleData)20161_storage)"
      },
      {
        "astId": 20556,
        "contract": "contracts/oracle/Oracle.sol:Oracle",
        "label": "_paused",
        "offset": 0,
        "slot": "2",
        "type": "t_bool"
      },
      {
        "astId": 28531,
        "contract": "contracts/oracle/Oracle.sol:Oracle",
        "label": "collateralInfo",
        "offset": 0,
        "slot": "3",
        "type": "t_mapping(t_bytes32,t_struct(CollateralInfo)28525_storage)"
      },
      {
        "astId": 28534,
        "contract": "contracts/oracle/Oracle.sol:Oracle",
        "label": "ledger",
        "offset": 0,
        "slot": "4",
        "type": "t_contract(ILedger)8804"
      },
      {
        "astId": 28540,
        "contract": "contracts/oracle/Oracle.sol:Oracle",
        "label": "unit",
        "offset": 0,
        "slot": "5",
        "type": "t_uint256"
      }
    ],
    "types": {
      "t_address": {
        "encoding": "inplace",
        "label": "address",
        "numberOfBytes": "20"
      },
      "t_bool": {
        "encoding": "inplace",
        "label": "bool",
        "numberOfBytes": "1"
      },
      "t_bytes32": {
        "encoding": "inplace",
        "label": "bytes32",
        "numberOfBytes": "32"
      },
      "t_contract(IFeed)7393": {
        "encoding": "inplace",
        "label": "contract IFeed",
        "numberOfBytes": "20"
      },
      "t_contract(ILedger)8804": {
        "encoding": "inplace",
        "label": "contract ILedger",
        "numberOfBytes": "20"
      },
      "t_mapping(t_address,t_bool)": {
        "encoding": "mapping",
        "key": "t_address",
        "label": "mapping(address => bool)",
        "numberOfBytes": "32",
        "value": "t_bool"
      },
      "t_mapping(t_bytes32,t_struct(CollateralInfo)28525_storage)": {
        "encoding": "mapping",
        "key": "t_bytes32",
        "label": "mapping(bytes32 => struct Oracle.CollateralInfo)",
        "numberOfBytes": "32",
        "value": "t_struct(CollateralInfo)28525_storage"
      },
      "t_mapping(t_bytes32,t_struct(RoleData)20161_storage)": {
        "encoding": "mapping",
        "key": "t_bytes32",
        "label": "mapping(bytes32 => struct AccessControl.RoleData)",
        "numberOfBytes": "32",
        "value": "t_struct(RoleData)20161_storage"
      },
      "t_struct(CollateralInfo)28525_storage": {
        "encoding": "inplace",
        "label": "struct Oracle.CollateralInfo",
        "members": [
          {
            "astId": 28522,
            "contract": "contracts/oracle/Oracle.sol:Oracle",
            "label": "feed",
            "offset": 0,
            "slot": "0",
            "type": "t_contract(IFeed)7393"
          },
          {
            "astId": 28524,
            "contract": "contracts/oracle/Oracle.sol:Oracle",
            "label": "liquidRatio",
            "offset": 0,
            "slot": "1",
            "type": "t_uint256"
          }
        ],
        "numberOfBytes": "64"
      },
      "t_struct(RoleData)20161_storage": {
        "encoding": "inplace",
        "label": "struct AccessControl.RoleData",
        "members": [
          {
            "astId": 20158,
            "contract": "contracts/oracle/Oracle.sol:Oracle",
            "label": "members",
            "offset": 0,
            "slot": "0",
            "type": "t_mapping(t_address,t_bool)"
          },
          {
            "astId": 20160,
            "contract": "contracts/oracle/Oracle.sol:Oracle",
            "label": "adminRole",
            "offset": 0,
            "slot": "1",
            "type": "t_bytes32"
          }
        ],
        "numberOfBytes": "64"
      },
      "t_uint256": {
        "encoding": "inplace",
        "label": "uint256",
        "numberOfBytes": "32"
      }
    }
  }
}