{
  "address": "0x7a48Ec76e7c2000E15a2A9fCd2d0cd25E8B6E5C4",
  "abi": [
    {
      "anonymous": false,
      "inputs": [
        {
          "indexed": false,
          "internalType": "address",
          "name": "account",
          "type": "address"
        }
      ],
      "name": "Paused",
      "type": "event"
    },
    {
      "anonymous": false,
      "inputs": [
        {
          "indexed": false,
          "internalType": "address",
          "name": "invitor",
          "type": "address"
        },
        {
          "indexed": false,
          "internalType": "address",
          "name": "invitee",
          "type": "address"
        }
      ],
      "name": "Registered",
      "type": "event"
    },
    {
      "anonymous": false,
      "inputs": [
        {
          "indexed": true,
          "internalType": "bytes32",
          "name": "role",
          "type": "bytes32"
        },
        {
          "indexed": true,
          "internalType": "bytes32",
          "name": "previousAdminRole",
          "type": "bytes32"
        },
        {
          "indexed": true,
          "internalType": "bytes32",
          "name": "newAdminRole",
          "type": "bytes32"
        }
      ],
      "name": "RoleAdminChanged",
      "type": "event"
    },
    {
      "anonymous": false,
      "inputs": [
        {
          "indexed": true,
          "internalType": "bytes32",
          "name": "role",
          "type": "bytes32"
        },
        {
          "indexed": true,
          "internalType": "address",
          "name": "account",
          "type": "address"
        },
        {
          "indexed": true,
          "internalType": "address",
          "name": "sender",
          "type": "address"
        }
      ],
      "name": "RoleGranted",
      "type": "event"
    },
    {
      "anonymous": false,
      "inputs": [
        {
          "indexed": true,
          "internalType": "bytes32",
          "name": "role",
          "type": "bytes32"
        },
        {
          "indexed": true,
          "internalType": "address",
          "name": "account",
          "type": "address"
        },
        {
          "indexed": true,
          "internalType": "address",
          "name": "sender",
          "type": "address"
        }
      ],
      "name": "RoleRevoked",
      "type": "event"
    },
    {
      "anonymous": false,
      "inputs": [
        {
          "indexed": false,
          "internalType": "address",
          "name": "account",
          "type": "address"
        }
      ],
      "name": "Unpaused",
      "type": "event"
    },
    {
      "inputs": [],
      "name": "DEFAULT_ADMIN_ROLE",
      "outputs": [
        {
          "internalType": "bytes32",
          "name": "",
          "type": "bytes32"
        }
      ],
      "stateMutability": "view",
      "type": "function"
    },
    {
      "inputs": [
        {
          "internalType": "address",
          "name": "kokoa_",
          "type": "address"
        },
        {
          "internalType": "address",
          "name": "kokoaRewardManager_",
          "type": "address"
        }
      ],
      "name": "__Referral_init",
      "outputs": [],
      "stateMutability": "nonpayable",
      "type": "function"
    },
    {
      "inputs": [
        {
          "internalType": "address",
          "name": "invitee",
          "type": "address"
        }
      ],
      "name": "claimRewardFrom",
      "outputs": [],
      "stateMutability": "nonpayable",
      "type": "function"
    },
    {
      "inputs": [
        {
          "internalType": "address",
          "name": "invitee",
          "type": "address"
        }
      ],
      "name": "claimableRewardFrom",
      "outputs": [
        {
          "internalType": "uint256",
          "name": "",
          "type": "uint256"
        }
      ],
      "stateMutability": "view",
      "type": "function"
    },
    {
      "inputs": [
        {
          "internalType": "bytes32",
          "name": "what",
          "type": "bytes32"
        },
        {
          "internalType": "address",
          "name": "data",
          "type": "address"
        }
      ],
      "name": "config",
      "outputs": [],
      "stateMutability": "nonpayable",
      "type": "function"
    },
    {
      "inputs": [
        {
          "internalType": "bytes32",
          "name": "what",
          "type": "bytes32"
        },
        {
          "internalType": "uint256",
          "name": "data",
          "type": "uint256"
        }
      ],
      "name": "config",
      "outputs": [],
      "stateMutability": "nonpayable",
      "type": "function"
    },
    {
      "inputs": [],
      "name": "ecosystemBeneficiary",
      "outputs": [
        {
          "internalType": "address",
          "name": "",
          "type": "address"
        }
      ],
      "stateMutability": "view",
      "type": "function"
    },
    {
      "inputs": [
        {
          "internalType": "bytes32",
          "name": "role",
          "type": "bytes32"
        }
      ],
      "name": "getRoleAdmin",
      "outputs": [
        {
          "internalType": "bytes32",
          "name": "",
          "type": "bytes32"
        }
      ],
      "stateMutability": "view",
      "type": "function"
    },
    {
      "inputs": [
        {
          "internalType": "bytes32",
          "name": "role",
          "type": "bytes32"
        },
        {
          "internalType": "address",
          "name": "account",
          "type": "address"
        }
      ],
      "name": "grantRole",
      "outputs": [],
      "stateMutability": "nonpayable",
      "type": "function"
    },
    {
      "inputs": [
        {
          "internalType": "bytes32",
          "name": "role",
          "type": "bytes32"
        },
        {
          "internalType": "address",
          "name": "account",
          "type": "address"
        }
      ],
      "name": "hasRole",
      "outputs": [
        {
          "internalType": "bool",
          "name": "",
          "type": "bool"
        }
      ],
      "stateMutability": "view",
      "type": "function"
    },
    {
      "inputs": [
        {
          "internalType": "address",
          "name": "",
          "type": "address"
        }
      ],
      "name": "invitorOf",
      "outputs": [
        {
          "internalType": "address",
          "name": "",
          "type": "address"
        }
      ],
      "stateMutability": "view",
      "type": "function"
    },
    {
      "inputs": [],
      "name": "kokoa",
      "outputs": [
        {
          "internalType": "contract IKIP7",
          "name": "",
          "type": "address"
        }
      ],
      "stateMutability": "view",
      "type": "function"
    },
    {
      "inputs": [],
      "name": "kokoaRewardManager",
      "outputs": [
        {
          "internalType": "contract IKokoaRewardManager",
          "name": "",
          "type": "address"
        }
      ],
      "stateMutability": "view",
      "type": "function"
    },
    {
      "inputs": [],
      "name": "multiplicativeFactor",
      "outputs": [
        {
          "internalType": "uint256",
          "name": "",
          "type": "uint256"
        }
      ],
      "stateMutability": "view",
      "type": "function"
    },
    {
      "inputs": [],
      "name": "pause",
      "outputs": [],
      "stateMutability": "nonpayable",
      "type": "function"
    },
    {
      "inputs": [],
      "name": "paused",
      "outputs": [
        {
          "internalType": "bool",
          "name": "",
          "type": "bool"
        }
      ],
      "stateMutability": "view",
      "type": "function"
    },
    {
      "inputs": [
        {
          "internalType": "address",
          "name": "",
          "type": "address"
        }
      ],
      "name": "receivedReward",
      "outputs": [
        {
          "internalType": "uint256",
          "name": "",
          "type": "uint256"
        }
      ],
      "stateMutability": "view",
      "type": "function"
    },
    {
      "inputs": [
        {
          "internalType": "address",
          "name": "invitor",
          "type": "address"
        },
        {
          "internalType": "address",
          "name": "invitee",
          "type": "address"
        }
      ],
      "name": "register",
      "outputs": [],
      "stateMutability": "nonpayable",
      "type": "function"
    },
    {
      "inputs": [
        {
          "internalType": "bytes32",
          "name": "role",
          "type": "bytes32"
        },
        {
          "internalType": "address",
          "name": "account",
          "type": "address"
        }
      ],
      "name": "renounceRole",
      "outputs": [],
      "stateMutability": "nonpayable",
      "type": "function"
    },
    {
      "inputs": [
        {
          "internalType": "bytes32",
          "name": "role",
          "type": "bytes32"
        },
        {
          "internalType": "address",
          "name": "account",
          "type": "address"
        }
      ],
      "name": "revokeRole",
      "outputs": [],
      "stateMutability": "nonpayable",
      "type": "function"
    },
    {
      "inputs": [
        {
          "internalType": "address",
          "name": "newOwner",
          "type": "address"
        }
      ],
      "name": "transferOwnership",
      "outputs": [],
      "stateMutability": "nonpayable",
      "type": "function"
    },
    {
      "inputs": [],
      "name": "unpause",
      "outputs": [],
      "stateMutability": "nonpayable",
      "type": "function"
    }
  ],
  "transactionHash": "0x35541dacafcd7e7e1c739a61f764dabdf9dbf8b28e25fc5ddbf4ed78a687c36c",
  "args": [],
  "solcInputHash": "de4f5741dec2c2b2fd1b551e118f3df0",
  "bytecode": "0x608060405234801561001057600080fd5b506113f5806100206000396000f3fe608060405234801561001057600080fd5b50600436106101425760003560e01c80638c57c744116100b8578063d366f3b91161007c578063d366f3b9146102a9578063d547741f146102bc578063e0bed041146102cf578063e127f946146102e2578063f2fde38b146102f5578063f6b73b021461030857610142565b80638c57c7441461025557806391d1485414610268578063a217fddf1461027b578063aa67735414610283578063ccccb1ff1461029657610142565b80633f4ba83a1161010a5780633f4ba83a146101c25780635c975abb146101ca5780635d367cca146101e15780636abaa908146102225780637be168be1461023a5780638456cb591461024d57610142565b80631d1657fa146101475780631d495c9414610163578063248a9ca3146101765780632f2ff15d1461019a57806336568abe146101af575b600080fd5b61015060075481565b6040519081526020015b60405180910390f35b61015061017136600461116b565b610328565b6101506101843660046111df565b6000908152600160208190526040909120015490565b6101ad6101a83660046111f7565b6103f4565b005b6101ad6101bd3660046111f7565b610420565b6101ad61049e565b60025460ff165b604051901515815260200161015a565b61020a6101ef36600461116b565b6005602052600090815260409020546001600160a01b031681565b6040516001600160a01b03909116815260200161015a565b60025461020a9061010090046001600160a01b031681565b60035461020a906001600160a01b031681565b6101ad61053c565b6101ad61026336600461116b565b6105b0565b6101d16102763660046111f7565b6107a3565b610150600081565b6101ad610291366004611187565b6107ce565b6101ad6102a4366004611187565b610909565b6101ad6102b73660046111f7565b6109c7565b6101ad6102ca3660046111f7565b610a6c565b6101ad6102dd36600461121b565b610a93565b60045461020a906001600160a01b031681565b6101ad61030336600461116b565b610ace565b61015061031636600461116b565b60066020526000908152604090205481565b6001600160a01b038181166000908152600560205260408120549091166103ad5760405162461bcd60e51b815260206004820152602e60248201527f526566657272616c3a3a636c61696d61626c6552657761726446726f6d3a206960448201526d6e76616c696420696e766974656560901b60648201526084015b60405180910390fd5b60006103b883610b07565b6001600160a01b038416600090815260066020526040902054600754919250906103ec906103e68385611362565b90610d6d565b949350505050565b600082815260016020819052604090912001546104118133610df9565b61041b8383610e5d565b505050565b6001600160a01b03811633146104905760405162461bcd60e51b815260206004820152602f60248201527f416363657373436f6e74726f6c3a2063616e206f6e6c792072656e6f756e636560448201526e103937b632b9903337b91039b2b63360891b60648201526084016103a4565b61049a8282610ec8565b5050565b60025460ff166104e75760405162461bcd60e51b815260206004820152601460248201527314185d5cd8589b194e881b9bdd081c185d5cd95960621b60448201526064016103a4565b653830bab9b2b960d11b6104fb8133610df9565b6002805460ff191690556040513381527f5db9ee0a495bf2e6ff9c91a7834c1ba4fdd244a5e8aa4e537bd38aeae4b073aa906020015b60405180910390a150565b60025460ff161561055f5760405162461bcd60e51b81526004016103a490611293565b653830bab9b2b960d11b6105738133610df9565b6002805460ff191660011790556040513381527f62e78cea01bee320cd4e420270b5ea74000d11b0c9f74754ebdbfc544b05a25890602001610531565b60025460ff16156105d35760405162461bcd60e51b81526004016103a490611293565b6001600160a01b038181166000908152600560205260409020541661064d5760405162461bcd60e51b815260206004820152602a60248201527f526566657272616c3a3a636c61696d52657761726446726f6d3a20696e76616c604482015269696420696e766974656560b01b60648201526084016103a4565b600061065882610b07565b6001600160a01b03831660009081526006602052604081205460075492935091610686906103e68486611362565b6001600160a01b038581166000908152600660209081526040808320889055600590915290819020546003549151635569f64b60e11b81523060048201526024810185905293945082169291169063aad3ec9690604401600060405180830381600087803b1580156106f757600080fd5b505af115801561070b573d6000803e3d6000fd5b505060025460405163a9059cbb60e01b81526001600160a01b03858116600483015260248201879052610100909204909116925063a9059cbb9150604401602060405180830381600087803b15801561076357600080fd5b505af1158015610777573d6000803e3d6000fd5b505050506040513d601f19601f8201168201806040525081019061079b91906111bf565b505050505050565b60009182526001602090815260408084206001600160a01b0393909316845291905290205460ff1690565b6107e36737b832b930ba37b960c11b33610df9565b60025460ff16156108065760405162461bcd60e51b81526004016103a490611293565b336000908152600560205260409020546001600160a01b0316156108775760405162461bcd60e51b815260206004820152602260248201527f526566657272616c3a3a696e76697465643a20616c726561647920696e766974604482015261195960f21b60648201526084016103a4565b6001600160a01b03818116600090815260056020526040902080546001600160a01b0319169184169190911790556108ae81610b07565b6001600160a01b038281166000818152600660209081526040918290209490945580519286168352928201527f0a31ee9d46a828884b81003c8498156ea6aa15b9b54bdd0ef0b533d9eba57e55910160405180910390a15050565b600054610100900460ff168061091e5750303b155b8061092c575060005460ff16155b6109485760405162461bcd60e51b81526004016103a4906112bd565b600054610100900460ff1615801561096a576000805461ffff19166101011790555b610972610f2f565b60028054610100600160a81b0319166101006001600160a01b038681169190910291909117909155600480546001600160a01b031916918416919091179055801561041b576000805461ff0019169055505050565b6109d96437bbb732b960d91b33610df9565b817365636f73797374656d42656e656669636961727960601b1415610a1857600380546001600160a01b0319166001600160a01b03831617905561049a565b60405162461bcd60e51b8152602060048201526024808201527f526566657272616c3a3a636f6e6669673a20756e7265636f676e697a65642d706044820152636172616d60e01b60648201526084016103a4565b60008281526001602081905260409091200154610a898133610df9565b61041b8383610ec8565b610aa56437bbb732b960d91b33610df9565b817336bab63a34b83634b1b0ba34bb32a330b1ba37b960611b1415610a1857600781905561049a565b610ae06437bbb732b960d91b33610df9565b610af26437bbb732b960d91b82610e5d565b610b046437bbb732b960d91b33610ec8565b50565b600480546040805163040f1f6d60e11b81529051600093849384936001600160a01b039091169263081e3eda92828101926020929190829003018186803b158015610b5157600080fd5b505afa158015610b65573d6000803e3d6000fd5b505050506040513d601f19601f82011682018060405250810190610b89919061127b565b905060005b81811015610d645760048054604051633b83625d60e11b81529182018390526000916001600160a01b0390911690637706c4ba9060240160206040518083038186803b158015610bdd57600080fd5b505afa158015610bf1573d6000803e3d6000fd5b505050506040513d601f19601f82011682018060405250810190610c15919061123c565b60048054604051630f208beb60e01b81526001600160a01b03808516938201939093528983166024820152929350600092911690630f208beb90604401604080518083038186803b158015610c6957600080fd5b505afa158015610c7d573d6000803e3d6000fd5b505050506040513d601f19601f82011682018060405250810190610ca19190611258565b6004805460405163274d238f60e11b81526001600160a01b03878116938201939093528b8316602482015260016044820152929450600093501690634e9a471e9060640160206040518083038186803b158015610cfd57600080fd5b505afa158015610d11573d6000803e3d6000fd5b505050506040513d601f19601f82011682018060405250810190610d35919061127b565b905080610d42838861130b565b610d4c919061130b565b95505050508080610d5c90611379565b915050610b8e565b50909392505050565b6000610d798284611343565b9050811580610d90575082610d8e8383611323565b145b610ddc5760405162461bcd60e51b815260206004820152601b60248201527f5761645261794d6174683a3a20726d756c3a206f766572666c6f77000000000060448201526064016103a4565b610df26b033b2e3c9fd0803ce800000082611323565b9392505050565b610e0382826107a3565b61049a5760405162461bcd60e51b815260206004820152602560248201527f416363657373436f6e74726f6c3a5f636865636b526f6c653a696e76616c696460448201526420726f6c6560d81b60648201526084016103a4565b610e6782826107a3565b61049a5760008281526001602081815260408084206001600160a01b0386168086529252808420805460ff19169093179092559051339285917f2f8788117e7eff1d82e926ec794901d17c78024a50270940304540a733656f0d9190a45050565b610ed282826107a3565b1561049a5760008281526001602090815260408083206001600160a01b0385168085529252808320805460ff1916905551339285917ff6391f5c32d9c69d2a47ea670b442974b53935d1edc7fd64eb21e047a839171b9190a45050565b600054610100900460ff1680610f445750303b155b80610f52575060005460ff16155b610f6e5760405162461bcd60e51b81526004016103a4906112bd565b600054610100900460ff16158015610f90576000805461ffff19166101011790555b610f98610fda565b610fb3653830bab9b2b960d11b6437bbb732b960d91b611043565b610fc6653830bab9b2b960d11b33611090565b8015610b04576000805461ff001916905550565b600054610100900460ff1680610fef5750303b155b80610ffd575060005460ff16155b6110195760405162461bcd60e51b81526004016103a4906112bd565b600054610100900460ff1615801561103b576000805461ffff19166101011790555b610fc661109a565b6000828152600160208190526040808320909101805490849055905190918391839186917fbd79b86ffe0ab8e8776151514217cd7cacd52c909f66475c3af44e129f0b00ff9190a4505050565b61049a8282610e5d565b600054610100900460ff16806110af5750303b155b806110bd575060005460ff16155b6110d95760405162461bcd60e51b81526004016103a4906112bd565b600054610100900460ff161580156110fb576000805461ffff19166101011790555b61110d6437bbb732b960d91b33611090565b6111276430b236b4b760d91b6437bbb732b960d91b611043565b6111446737b832b930ba37b960c11b6437bbb732b960d91b611043565b6111566430b236b4b760d91b33611090565b610fc66737b832b930ba37b960c11b33611090565b60006020828403121561117c578081fd5b8135610df2816113aa565b60008060408385031215611199578081fd5b82356111a4816113aa565b915060208301356111b4816113aa565b809150509250929050565b6000602082840312156111d0578081fd5b81518015158114610df2578182fd5b6000602082840312156111f0578081fd5b5035919050565b60008060408385031215611209578182fd5b8235915060208301356111b4816113aa565b6000806040838503121561122d578182fd5b50508035926020909101359150565b60006020828403121561124d578081fd5b8151610df2816113aa565b6000806040838503121561126a578182fd5b505080516020909101519092909150565b60006020828403121561128c578081fd5b5051919050565b60208082526010908201526f14185d5cd8589b194e881c185d5cd95960821b604082015260600190565b6020808252602e908201527f496e697469616c697a61626c653a20636f6e747261637420697320616c72656160408201526d191e481a5b9a5d1a585b1a5e995960921b606082015260800190565b6000821982111561131e5761131e611394565b500190565b60008261133e57634e487b7160e01b81526012600452602481fd5b500490565b600081600019048311821515161561135d5761135d611394565b500290565b60008282101561137457611374611394565b500390565b600060001982141561138d5761138d611394565b5060010190565b634e487b7160e01b600052601160045260246000fd5b6001600160a01b0381168114610b0457600080fdfea2646970667358221220b046548146b6327952178e1c997b50816694f3674ec900c01b8eebad2cc7cbef64736f6c63430008030033",
  "devdoc": {
    "kind": "dev",
    "methods": {
      "claimRewardFrom(address)": {
        "params": {
          "invitee": "address of invitee"
        }
      },
      "claimableRewardFrom(address)": {
        "params": {
          "invitee": "address of invitee"
        }
      },
      "register(address,address)": {
        "params": {
          "invitee": "address of invitee   operator   . invitor != invitee <- need to check",
          "invitor": "address of invitor"
        }
      }
    },
    "version": 1
  },
  "userdoc": {
    "kind": "user",
    "methods": {
      "__Referral_init(address,address)": {
        "notice": "invitee   reward    kokoa   "
      },
      "claimRewardFrom(address)": {
        "notice": "claim reward created from invitee activity(received kokoa reward)"
      },
      "claimableRewardFrom(address)": {
        "notice": "amount of reward created from invitee activity(received kokoa reward)"
      },
      "invitorOf(address)": {
        "notice": "address of KokoaRewardManager contract"
      },
      "kokoaRewardManager()": {
        "notice": "may be beneficiary of ecosystem vesting"
      },
      "multiplicativeFactor()": {
        "notice": "total amount of reward that invitee received"
      },
      "receivedReward(address)": {
        "notice": "get invitor address by invitee address"
      },
      "register(address,address)": {
        "notice": "record relation between invitor and invitee"
      }
    },
    "notice": "ecosystem fund -> beneficiary EOA <- Referral contract grabs Kokoa from beneficiary",
    "version": 1
  },
  "storageLayout": {
    "storage": [
      {
        "astId": 24885,
        "contract": "contracts/referral/Referral.sol:Referral",
        "label": "_initialized",
        "offset": 0,
        "slot": "0",
        "type": "t_bool"
      },
      {
        "astId": 24888,
        "contract": "contracts/referral/Referral.sol:Referral",
        "label": "_initializing",
        "offset": 1,
        "slot": "0",
        "type": "t_bool"
      },
      {
        "astId": 21831,
        "contract": "contracts/referral/Referral.sol:Referral",
        "label": "_roles",
        "offset": 0,
        "slot": "1",
        "type": "t_mapping(t_bytes32,t_struct(RoleData)21826_storage)"
      },
      {
        "astId": 22221,
        "contract": "contracts/referral/Referral.sol:Referral",
        "label": "_paused",
        "offset": 0,
        "slot": "2",
        "type": "t_bool"
      },
      {
        "astId": 31136,
        "contract": "contracts/referral/Referral.sol:Referral",
        "label": "kokoa",
        "offset": 1,
        "slot": "2",
        "type": "t_contract(IKIP7)9935"
      },
      {
        "astId": 31138,
        "contract": "contracts/referral/Referral.sol:Referral",
        "label": "ecosystemBeneficiary",
        "offset": 0,
        "slot": "3",
        "type": "t_address"
      },
      {
        "astId": 31142,
        "contract": "contracts/referral/Referral.sol:Referral",
        "label": "kokoaRewardManager",
        "offset": 0,
        "slot": "4",
        "type": "t_contract(IKokoaRewardManager)8454"
      },
      {
        "astId": 31148,
        "contract": "contracts/referral/Referral.sol:Referral",
        "label": "invitorOf",
        "offset": 0,
        "slot": "5",
        "type": "t_mapping(t_address,t_address)"
      },
      {
        "astId": 31154,
        "contract": "contracts/referral/Referral.sol:Referral",
        "label": "receivedReward",
        "offset": 0,
        "slot": "6",
        "type": "t_mapping(t_address,t_uint256)"
      },
      {
        "astId": 31158,
        "contract": "contracts/referral/Referral.sol:Referral",
        "label": "multiplicativeFactor",
        "offset": 0,
        "slot": "7",
        "type": "t_uint256"
      }
    ],
    "types": {
      "t_address": {
        "encoding": "inplace",
        "label": "address",
        "numberOfBytes": "20"
      },
      "t_bool": {
        "encoding": "inplace",
        "label": "bool",
        "numberOfBytes": "1"
      },
      "t_bytes32": {
        "encoding": "inplace",
        "label": "bytes32",
        "numberOfBytes": "32"
      },
      "t_contract(IKIP7)9935": {
        "encoding": "inplace",
        "label": "contract IKIP7",
        "numberOfBytes": "20"
      },
      "t_contract(IKokoaRewardManager)8454": {
        "encoding": "inplace",
        "label": "contract IKokoaRewardManager",
        "numberOfBytes": "20"
      },
      "t_mapping(t_address,t_address)": {
        "encoding": "mapping",
        "key": "t_address",
        "label": "mapping(address => address)",
        "numberOfBytes": "32",
        "value": "t_address"
      },
      "t_mapping(t_address,t_bool)": {
        "encoding": "mapping",
        "key": "t_address",
        "label": "mapping(address => bool)",
        "numberOfBytes": "32",
        "value": "t_bool"
      },
      "t_mapping(t_address,t_uint256)": {
        "encoding": "mapping",
        "key": "t_address",
        "label": "mapping(address => uint256)",
        "numberOfBytes": "32",
        "value": "t_uint256"
      },
      "t_mapping(t_bytes32,t_struct(RoleData)21826_storage)": {
        "encoding": "mapping",
        "key": "t_bytes32",
        "label": "mapping(bytes32 => struct AccessControl.RoleData)",
        "numberOfBytes": "32",
        "value": "t_struct(RoleData)21826_storage"
      },
      "t_struct(RoleData)21826_storage": {
        "encoding": "inplace",
        "label": "struct AccessControl.RoleData",
        "members": [
          {
            "astId": 21823,
            "contract": "contracts/referral/Referral.sol:Referral",
            "label": "members",
            "offset": 0,
            "slot": "0",
            "type": "t_mapping(t_address,t_bool)"
          },
          {
            "astId": 21825,
            "contract": "contracts/referral/Referral.sol:Referral",
            "label": "adminRole",
            "offset": 0,
            "slot": "1",
            "type": "t_bytes32"
          }
        ],
        "numberOfBytes": "64"
      },
      "t_uint256": {
        "encoding": "inplace",
        "label": "uint256",
        "numberOfBytes": "32"
      }
    }
  }
}