{
  "address": "0x6dF1Bb5b6bA2d0E46163Fa0CF03454CD49913D22",
  "abi": [
    {
      "anonymous": false,
      "inputs": [
        {
          "indexed": true,
          "internalType": "address",
          "name": "owner",
          "type": "address"
        },
        {
          "indexed": true,
          "internalType": "address",
          "name": "spender",
          "type": "address"
        },
        {
          "indexed": false,
          "internalType": "uint256",
          "name": "value",
          "type": "uint256"
        }
      ],
      "name": "Approval",
      "type": "event"
    },
    {
      "anonymous": false,
      "inputs": [
        {
          "indexed": false,
          "internalType": "address",
          "name": "usr",
          "type": "address"
        },
        {
          "indexed": false,
          "internalType": "uint256",
          "name": "amount",
          "type": "uint256"
        }
      ],
      "name": "Claim",
      "type": "event"
    },
    {
      "anonymous": false,
      "inputs": [
        {
          "indexed": true,
          "internalType": "address",
          "name": "delegator",
          "type": "address"
        },
        {
          "indexed": true,
          "internalType": "address",
          "name": "fromDelegate",
          "type": "address"
        },
        {
          "indexed": true,
          "internalType": "address",
          "name": "toDelegate",
          "type": "address"
        }
      ],
      "name": "DelegateChanged",
      "type": "event"
    },
    {
      "anonymous": false,
      "inputs": [
        {
          "indexed": true,
          "internalType": "address",
          "name": "delegate",
          "type": "address"
        },
        {
          "indexed": false,
          "internalType": "uint96",
          "name": "previousBalance",
          "type": "uint96"
        },
        {
          "indexed": false,
          "internalType": "uint96",
          "name": "newBalance",
          "type": "uint96"
        }
      ],
      "name": "DelegateVotesChanged",
      "type": "event"
    },
    {
      "anonymous": false,
      "inputs": [
        {
          "indexed": false,
          "internalType": "address",
          "name": "account",
          "type": "address"
        }
      ],
      "name": "Paused",
      "type": "event"
    },
    {
      "anonymous": false,
      "inputs": [
        {
          "indexed": true,
          "internalType": "bytes32",
          "name": "role",
          "type": "bytes32"
        },
        {
          "indexed": true,
          "internalType": "bytes32",
          "name": "previousAdminRole",
          "type": "bytes32"
        },
        {
          "indexed": true,
          "internalType": "bytes32",
          "name": "newAdminRole",
          "type": "bytes32"
        }
      ],
      "name": "RoleAdminChanged",
      "type": "event"
    },
    {
      "anonymous": false,
      "inputs": [
        {
          "indexed": true,
          "internalType": "bytes32",
          "name": "role",
          "type": "bytes32"
        },
        {
          "indexed": true,
          "internalType": "address",
          "name": "account",
          "type": "address"
        },
        {
          "indexed": true,
          "internalType": "address",
          "name": "sender",
          "type": "address"
        }
      ],
      "name": "RoleGranted",
      "type": "event"
    },
    {
      "anonymous": false,
      "inputs": [
        {
          "indexed": true,
          "internalType": "bytes32",
          "name": "role",
          "type": "bytes32"
        },
        {
          "indexed": true,
          "internalType": "address",
          "name": "account",
          "type": "address"
        },
        {
          "indexed": true,
          "internalType": "address",
          "name": "sender",
          "type": "address"
        }
      ],
      "name": "RoleRevoked",
      "type": "event"
    },
    {
      "anonymous": false,
      "inputs": [
        {
          "indexed": false,
          "internalType": "address",
          "name": "from",
          "type": "address"
        },
        {
          "indexed": false,
          "internalType": "address",
          "name": "to",
          "type": "address"
        },
        {
          "indexed": false,
          "internalType": "uint256",
          "name": "amount",
          "type": "uint256"
        }
      ],
      "name": "Stake",
      "type": "event"
    },
    {
      "anonymous": false,
      "inputs": [
        {
          "indexed": true,
          "internalType": "address",
          "name": "from",
          "type": "address"
        },
        {
          "indexed": true,
          "internalType": "address",
          "name": "to",
          "type": "address"
        },
        {
          "indexed": false,
          "internalType": "uint256",
          "name": "value",
          "type": "uint256"
        }
      ],
      "name": "Transfer",
      "type": "event"
    },
    {
      "anonymous": false,
      "inputs": [
        {
          "indexed": false,
          "internalType": "address",
          "name": "account",
          "type": "address"
        }
      ],
      "name": "Unpaused",
      "type": "event"
    },
    {
      "anonymous": false,
      "inputs": [
        {
          "indexed": false,
          "internalType": "address",
          "name": "from",
          "type": "address"
        },
        {
          "indexed": false,
          "internalType": "address",
          "name": "to",
          "type": "address"
        },
        {
          "indexed": false,
          "internalType": "uint256",
          "name": "amount",
          "type": "uint256"
        }
      ],
      "name": "Unstake",
      "type": "event"
    },
    {
      "inputs": [],
      "name": "DEFAULT_ADMIN_ROLE",
      "outputs": [
        {
          "internalType": "bytes32",
          "name": "",
          "type": "bytes32"
        }
      ],
      "stateMutability": "view",
      "type": "function"
    },
    {
      "inputs": [],
      "name": "DELEGATION_TYPEHASH",
      "outputs": [
        {
          "internalType": "bytes32",
          "name": "",
          "type": "bytes32"
        }
      ],
      "stateMutability": "view",
      "type": "function"
    },
    {
      "inputs": [],
      "name": "DOMAIN_TYPEHASH",
      "outputs": [
        {
          "internalType": "bytes32",
          "name": "",
          "type": "bytes32"
        }
      ],
      "stateMutability": "view",
      "type": "function"
    },
    {
      "inputs": [],
      "name": "Kokoa",
      "outputs": [
        {
          "internalType": "contract IKIP7",
          "name": "",
          "type": "address"
        }
      ],
      "stateMutability": "view",
      "type": "function"
    },
    {
      "inputs": [
        {
          "internalType": "uint256",
          "name": "chainId_",
          "type": "uint256"
        },
        {
          "internalType": "address",
          "name": "kokoa_",
          "type": "address"
        }
      ],
      "name": "__SKokoaToken_init",
      "outputs": [],
      "stateMutability": "nonpayable",
      "type": "function"
    },
    {
      "inputs": [
        {
          "internalType": "address",
          "name": "owner",
          "type": "address"
        },
        {
          "internalType": "address",
          "name": "spender",
          "type": "address"
        }
      ],
      "name": "allowance",
      "outputs": [
        {
          "internalType": "uint256",
          "name": "",
          "type": "uint256"
        }
      ],
      "stateMutability": "view",
      "type": "function"
    },
    {
      "inputs": [
        {
          "internalType": "address",
          "name": "spender",
          "type": "address"
        },
        {
          "internalType": "uint256",
          "name": "value",
          "type": "uint256"
        }
      ],
      "name": "approve",
      "outputs": [
        {
          "internalType": "bool",
          "name": "",
          "type": "bool"
        }
      ],
      "stateMutability": "nonpayable",
      "type": "function"
    },
    {
      "inputs": [
        {
          "internalType": "address",
          "name": "account",
          "type": "address"
        }
      ],
      "name": "balanceOf",
      "outputs": [
        {
          "internalType": "uint256",
          "name": "",
          "type": "uint256"
        }
      ],
      "stateMutability": "view",
      "type": "function"
    },
    {
      "inputs": [
        {
          "internalType": "address",
          "name": "account",
          "type": "address"
        },
        {
          "internalType": "uint256",
          "name": "value",
          "type": "uint256"
        }
      ],
      "name": "burn",
      "outputs": [
        {
          "internalType": "bool",
          "name": "",
          "type": "bool"
        }
      ],
      "stateMutability": "nonpayable",
      "type": "function"
    },
    {
      "inputs": [],
      "name": "chainId",
      "outputs": [
        {
          "internalType": "uint256",
          "name": "",
          "type": "uint256"
        }
      ],
      "stateMutability": "view",
      "type": "function"
    },
    {
      "inputs": [
        {
          "internalType": "address",
          "name": "account",
          "type": "address"
        },
        {
          "internalType": "uint32",
          "name": "index",
          "type": "uint32"
        }
      ],
      "name": "checkpoints",
      "outputs": [
        {
          "components": [
            {
              "internalType": "uint32",
              "name": "fromBlock",
              "type": "uint32"
            },
            {
              "internalType": "uint96",
              "name": "votes",
              "type": "uint96"
            }
          ],
          "internalType": "struct ISKokoaToken.Checkpoint",
          "name": "checkpoint",
          "type": "tuple"
        }
      ],
      "stateMutability": "view",
      "type": "function"
    },
    {
      "inputs": [
        {
          "internalType": "address",
          "name": "user",
          "type": "address"
        }
      ],
      "name": "claim",
      "outputs": [],
      "stateMutability": "nonpayable",
      "type": "function"
    },
    {
      "inputs": [
        {
          "internalType": "address",
          "name": "",
          "type": "address"
        }
      ],
      "name": "claimCount",
      "outputs": [
        {
          "internalType": "uint256",
          "name": "",
          "type": "uint256"
        }
      ],
      "stateMutability": "view",
      "type": "function"
    },
    {
      "inputs": [
        {
          "internalType": "bytes32",
          "name": "what",
          "type": "bytes32"
        },
        {
          "internalType": "address",
          "name": "data",
          "type": "address"
        }
      ],
      "name": "config",
      "outputs": [],
      "stateMutability": "nonpayable",
      "type": "function"
    },
    {
      "inputs": [
        {
          "internalType": "bytes32",
          "name": "what",
          "type": "bytes32"
        },
        {
          "internalType": "uint256",
          "name": "data",
          "type": "uint256"
        }
      ],
      "name": "config",
      "outputs": [],
      "stateMutability": "nonpayable",
      "type": "function"
    },
    {
      "inputs": [],
      "name": "decimals",
      "outputs": [
        {
          "internalType": "uint8",
          "name": "",
          "type": "uint8"
        }
      ],
      "stateMutability": "view",
      "type": "function"
    },
    {
      "inputs": [
        {
          "internalType": "address",
          "name": "delegatee",
          "type": "address"
        }
      ],
      "name": "delegate",
      "outputs": [],
      "stateMutability": "nonpayable",
      "type": "function"
    },
    {
      "inputs": [
        {
          "internalType": "address",
          "name": "delegatee",
          "type": "address"
        },
        {
          "internalType": "uint256",
          "name": "nonce",
          "type": "uint256"
        },
        {
          "internalType": "uint256",
          "name": "expiry",
          "type": "uint256"
        },
        {
          "internalType": "uint8",
          "name": "v",
          "type": "uint8"
        },
        {
          "internalType": "bytes32",
          "name": "r",
          "type": "bytes32"
        },
        {
          "internalType": "bytes32",
          "name": "s",
          "type": "bytes32"
        }
      ],
      "name": "delegateBySig",
      "outputs": [],
      "stateMutability": "nonpayable",
      "type": "function"
    },
    {
      "inputs": [
        {
          "internalType": "address",
          "name": "",
          "type": "address"
        }
      ],
      "name": "delegates",
      "outputs": [
        {
          "internalType": "address",
          "name": "",
          "type": "address"
        }
      ],
      "stateMutability": "view",
      "type": "function"
    },
    {
      "inputs": [
        {
          "internalType": "address",
          "name": "account",
          "type": "address"
        }
      ],
      "name": "getCurrentVotes",
      "outputs": [
        {
          "internalType": "uint96",
          "name": "",
          "type": "uint96"
        }
      ],
      "stateMutability": "view",
      "type": "function"
    },
    {
      "inputs": [
        {
          "internalType": "address",
          "name": "account",
          "type": "address"
        },
        {
          "internalType": "uint256",
          "name": "blockNumber",
          "type": "uint256"
        }
      ],
      "name": "getPriorVotes",
      "outputs": [
        {
          "internalType": "uint96",
          "name": "",
          "type": "uint96"
        }
      ],
      "stateMutability": "view",
      "type": "function"
    },
    {
      "inputs": [
        {
          "internalType": "bytes32",
          "name": "role",
          "type": "bytes32"
        }
      ],
      "name": "getRoleAdmin",
      "outputs": [
        {
          "internalType": "bytes32",
          "name": "",
          "type": "bytes32"
        }
      ],
      "stateMutability": "view",
      "type": "function"
    },
    {
      "inputs": [
        {
          "internalType": "bytes32",
          "name": "role",
          "type": "bytes32"
        },
        {
          "internalType": "address",
          "name": "account",
          "type": "address"
        }
      ],
      "name": "grantRole",
      "outputs": [],
      "stateMutability": "nonpayable",
      "type": "function"
    },
    {
      "inputs": [
        {
          "internalType": "bytes32",
          "name": "role",
          "type": "bytes32"
        },
        {
          "internalType": "address",
          "name": "account",
          "type": "address"
        }
      ],
      "name": "hasRole",
      "outputs": [
        {
          "internalType": "bool",
          "name": "",
          "type": "bool"
        }
      ],
      "stateMutability": "view",
      "type": "function"
    },
    {
      "inputs": [],
      "name": "lockUpPeriod",
      "outputs": [
        {
          "internalType": "uint256",
          "name": "",
          "type": "uint256"
        }
      ],
      "stateMutability": "view",
      "type": "function"
    },
    {
      "inputs": [
        {
          "internalType": "address",
          "name": "account",
          "type": "address"
        },
        {
          "internalType": "uint256",
          "name": "amount",
          "type": "uint256"
        }
      ],
      "name": "mint",
      "outputs": [
        {
          "internalType": "bool",
          "name": "",
          "type": "bool"
        }
      ],
      "stateMutability": "nonpayable",
      "type": "function"
    },
    {
      "inputs": [],
      "name": "name",
      "outputs": [
        {
          "internalType": "string",
          "name": "",
          "type": "string"
        }
      ],
      "stateMutability": "view",
      "type": "function"
    },
    {
      "inputs": [
        {
          "internalType": "address",
          "name": "",
          "type": "address"
        }
      ],
      "name": "nonces",
      "outputs": [
        {
          "internalType": "uint256",
          "name": "",
          "type": "uint256"
        }
      ],
      "stateMutability": "view",
      "type": "function"
    },
    {
      "inputs": [
        {
          "internalType": "address",
          "name": "",
          "type": "address"
        }
      ],
      "name": "numCheckpoints",
      "outputs": [
        {
          "internalType": "uint32",
          "name": "",
          "type": "uint32"
        }
      ],
      "stateMutability": "view",
      "type": "function"
    },
    {
      "inputs": [],
      "name": "pause",
      "outputs": [],
      "stateMutability": "nonpayable",
      "type": "function"
    },
    {
      "inputs": [],
      "name": "paused",
      "outputs": [
        {
          "internalType": "bool",
          "name": "",
          "type": "bool"
        }
      ],
      "stateMutability": "view",
      "type": "function"
    },
    {
      "inputs": [
        {
          "internalType": "bytes32",
          "name": "role",
          "type": "bytes32"
        },
        {
          "internalType": "address",
          "name": "account",
          "type": "address"
        }
      ],
      "name": "renounceRole",
      "outputs": [],
      "stateMutability": "nonpayable",
      "type": "function"
    },
    {
      "inputs": [
        {
          "internalType": "bytes32",
          "name": "role",
          "type": "bytes32"
        },
        {
          "internalType": "address",
          "name": "account",
          "type": "address"
        }
      ],
      "name": "revokeRole",
      "outputs": [],
      "stateMutability": "nonpayable",
      "type": "function"
    },
    {
      "inputs": [
        {
          "internalType": "address",
          "name": "recipient",
          "type": "address"
        },
        {
          "internalType": "uint256",
          "name": "amount",
          "type": "uint256"
        }
      ],
      "name": "safeTransfer",
      "outputs": [],
      "stateMutability": "nonpayable",
      "type": "function"
    },
    {
      "inputs": [
        {
          "internalType": "address",
          "name": "recipient",
          "type": "address"
        },
        {
          "internalType": "uint256",
          "name": "amount",
          "type": "uint256"
        },
        {
          "internalType": "bytes",
          "name": "data",
          "type": "bytes"
        }
      ],
      "name": "safeTransfer",
      "outputs": [],
      "stateMutability": "nonpayable",
      "type": "function"
    },
    {
      "inputs": [
        {
          "internalType": "address",
          "name": "sender",
          "type": "address"
        },
        {
          "internalType": "address",
          "name": "recipient",
          "type": "address"
        },
        {
          "internalType": "uint256",
          "name": "amount",
          "type": "uint256"
        }
      ],
      "name": "safeTransferFrom",
      "outputs": [],
      "stateMutability": "nonpayable",
      "type": "function"
    },
    {
      "inputs": [
        {
          "internalType": "address",
          "name": "sender",
          "type": "address"
        },
        {
          "internalType": "address",
          "name": "recipient",
          "type": "address"
        },
        {
          "internalType": "uint256",
          "name": "amount",
          "type": "uint256"
        },
        {
          "internalType": "bytes",
          "name": "data",
          "type": "bytes"
        }
      ],
      "name": "safeTransferFrom",
      "outputs": [],
      "stateMutability": "nonpayable",
      "type": "function"
    },
    {
      "inputs": [
        {
          "internalType": "address",
          "name": "user",
          "type": "address"
        },
        {
          "internalType": "uint256",
          "name": "amount",
          "type": "uint256"
        }
      ],
      "name": "stake",
      "outputs": [],
      "stateMutability": "nonpayable",
      "type": "function"
    },
    {
      "inputs": [
        {
          "internalType": "bytes4",
          "name": "interfaceId",
          "type": "bytes4"
        }
      ],
      "name": "supportsInterface",
      "outputs": [
        {
          "internalType": "bool",
          "name": "",
          "type": "bool"
        }
      ],
      "stateMutability": "view",
      "type": "function"
    },
    {
      "inputs": [],
      "name": "symbol",
      "outputs": [
        {
          "internalType": "string",
          "name": "",
          "type": "string"
        }
      ],
      "stateMutability": "view",
      "type": "function"
    },
    {
      "inputs": [],
      "name": "totalSupply",
      "outputs": [
        {
          "internalType": "uint256",
          "name": "",
          "type": "uint256"
        }
      ],
      "stateMutability": "view",
      "type": "function"
    },
    {
      "inputs": [
        {
          "internalType": "address",
          "name": "recipient",
          "type": "address"
        },
        {
          "internalType": "uint256",
          "name": "amount",
          "type": "uint256"
        }
      ],
      "name": "transfer",
      "outputs": [
        {
          "internalType": "bool",
          "name": "",
          "type": "bool"
        }
      ],
      "stateMutability": "nonpayable",
      "type": "function"
    },
    {
      "inputs": [
        {
          "internalType": "address",
          "name": "sender",
          "type": "address"
        },
        {
          "internalType": "address",
          "name": "recipient",
          "type": "address"
        },
        {
          "internalType": "uint256",
          "name": "amount",
          "type": "uint256"
        }
      ],
      "name": "transferFrom",
      "outputs": [
        {
          "internalType": "bool",
          "name": "",
          "type": "bool"
        }
      ],
      "stateMutability": "nonpayable",
      "type": "function"
    },
    {
      "inputs": [
        {
          "internalType": "address",
          "name": "newOwner",
          "type": "address"
        }
      ],
      "name": "transferOwnership",
      "outputs": [],
      "stateMutability": "nonpayable",
      "type": "function"
    },
    {
      "inputs": [],
      "name": "unpause",
      "outputs": [],
      "stateMutability": "nonpayable",
      "type": "function"
    },
    {
      "inputs": [
        {
          "internalType": "address",
          "name": "user",
          "type": "address"
        },
        {
          "internalType": "uint256",
          "name": "amount",
          "type": "uint256"
        }
      ],
      "name": "unstake",
      "outputs": [],
      "stateMutability": "nonpayable",
      "type": "function"
    },
    {
      "inputs": [
        {
          "internalType": "address",
          "name": "",
          "type": "address"
        }
      ],
      "name": "unstakeCount",
      "outputs": [
        {
          "internalType": "uint256",
          "name": "",
          "type": "uint256"
        }
      ],
      "stateMutability": "view",
      "type": "function"
    },
    {
      "inputs": [
        {
          "internalType": "address",
          "name": "",
          "type": "address"
        },
        {
          "internalType": "uint256",
          "name": "",
          "type": "uint256"
        }
      ],
      "name": "unstakeRecord",
      "outputs": [
        {
          "internalType": "uint256",
          "name": "block",
          "type": "uint256"
        },
        {
          "internalType": "uint256",
          "name": "amount",
          "type": "uint256"
        }
      ],
      "stateMutability": "view",
      "type": "function"
    }
  ],
  "transactionHash": "0xa0f1e80c4f5d0a7582817ec009268991de10778eddb3e1228bd641f0115874b0",
  "args": [],
  "solcInputHash": "de4f5741dec2c2b2fd1b551e118f3df0",
  "bytecode": "0x608060405234801561001057600080fd5b50613992806100206000396000f3fe608060405234801561001057600080fd5b50600436106102a05760003560e01c80637ecebe0011610167578063b88d4fde116100ce578063e0bed04111610087578063e0bed041146106c7578063e7a324dc146106da578063eb79554914610701578063f017d6be14610714578063f1127ed814610727578063f2fde38b146107c3576102a0565b8063b88d4fde1461062f578063c2a672e014610642578063c3cda52014610655578063d366f3b914610668578063d547741f1461067b578063dd62ed3e1461068e576102a0565b80639a8a0592116101205780639a8a0592146105d25780639dc29fac146105db578063a217fddf146105ee578063a9059cbb146105f6578063adc9772e14610609578063b4b5ea571461061c576102a0565b80637ecebe00146105305780638456cb59146105505780638a2f16b414610558578063919e4da51461057057806391d14854146105b757806395d89b41146105ca576102a0565b80633f4ba83a1161020b5780635c975abb116101c45780635c975abb1461046d57806369c12cb7146104785780636c6925f9146104985780636fcfff45146104a157806370a08231146104dc578063782d6fe114610505576102a0565b80633f4ba83a146103d857806340c10f19146103e0578063423f6cef146103f357806342842e0e14610406578063587cde1e146104195780635c19a95c1461045a576102a0565b806320606b701161025d57806320606b701461034057806323b872dd14610367578063248a9ca31461037a5780632f2ff15d1461039d578063313ce567146103b057806336568abe146103c5576102a0565b806301ffc9a7146102a557806306fdde03146102cd578063095ea7b3146102e2578063099f463b146102f557806318160ddd146103235780631e83409a1461032b575b600080fd5b6102b86102b336600461363c565b6107d6565b60405190151581526020015b60405180910390f35b6102d56107f9565b6040516102c491906136fc565b6102b86102f03660046134a7565b61088b565b6103156103033660046133ba565b600f6020526000908152604090205481565b6040519081526020016102c4565b600454610315565b61033e6103393660046133ba565b6108d2565b005b6103157f8cad95687ba82c2ce50e74f7b754645e5117c3a5bec8151c0726d5857980a86681565b6102b8610375366004613406565b610b42565b6103156103883660046135e1565b60009081526008602052604090206001015490565b61033e6103ab3660046135f9565b610d8d565b60075460405160ff90911681526020016102c4565b61033e6103d33660046135f9565b610db8565b61033e610e36565b6102b86103ee3660046134a7565b610ed4565b61033e6104013660046134a7565b610f1e565b61033e610414366004613406565b610f38565b6104426104273660046133ba565b600a602052600090815260409020546001600160a01b031681565b6040516001600160a01b0390911681526020016102c4565b61033e6104683660046133ba565b610f53565b60095460ff166102b8565b6103156104863660046133ba565b60106020526000908152604090205481565b61031560125481565b6104c76104af3660046133ba565b600c6020526000908152604090205463ffffffff1681565b60405163ffffffff90911681526020016102c4565b6103156104ea3660046133ba565b6001600160a01b031660009081526002602052604090205490565b6105186105133660046134a7565b610f60565b6040516001600160601b0390911681526020016102c4565b61031561053e3660046133ba565b600e6020526000908152604090205481565b61033e6111e9565b6009546104429061010090046001600160a01b031681565b6105a261057e3660046134a7565b60116020908152600092835260408084209091529082529020805460019091015482565b604080519283526020830191909152016102c4565b6102b86105c53660046135f9565b61125d565b6102d5611288565b610315600d5481565b6102b86105e93660046134a7565b611297565b610315600081565b6102b86106043660046134a7565b6112d8565b61033e6106173660046134a7565b611505565b61051861062a3660046133ba565b611706565b61033e61063d366004613441565b611784565b61033e6106503660046134a7565b611816565b61033e610663366004613525565b611a92565b61033e6106763660046135f9565b611d5e565b61033e6106893660046135f9565b611e40565b61031561069c3660046133d4565b6001600160a01b03918216600090815260036020908152604080832093909416825291909152205490565b61033e6106d536600461361b565b611e66565b6103157fe48329057bfd03d55e49b547132e39cffd9c1820ad7b9d4c5307691425d15adf81565b61033e61070f3660046134d0565b611e99565b61033e6107223660046135f9565b611f22565b610799610735366004613583565b604080518082018252600080825260209182018190526001600160a01b03949094168452600b815281842063ffffffff93841685528152928190208151808301909252549182168152600160201b9091046001600160601b03169181019190915290565b60408051825163ffffffff1681526020928301516001600160601b031692810192909252016102c4565b61033e6107d13660046133ba565b61200c565b6001600160e01b0319811660009081526001602052604090205460ff165b919050565b60606005805461080890613874565b80601f016020809104026020016040519081016040528092919081815260200182805461083490613874565b80156108815780601f1061085657610100808354040283529160200191610881565b820191906000526020600020905b81548152906001019060200180831161086457829003601f168201915b5050505050905090565b600061089960095460ff1690565b156108bf5760405162461bcd60e51b81526004016108b69061370f565b60405180910390fd5b6108c98383612042565b90505b92915050565b6001600160a01b0381166000908152600f60205260409020546109485760405162461bcd60e51b815260206004820152602860248201527f534b6f6b6f61546f6b656e3a3a636c61696d3a2073686f756c6420756e7374616044820152671ad948199a5c9cdd60c21b60648201526084016108b6565b6001600160a01b03811660009081526010602052604081205481906109909061097290600a613787565b6001600160a01b0385166000908152600f602052604090205461204f565b6001600160a01b0384166000908152601060205260409020549091505b81811015610a6c576012546001600160a01b03851660009081526011602090815260408083208584529091529020546109e69042613818565b10610a55576001600160a01b0384166000908152601160209081526040808320848452909152902060010154610a1c9084613787565b6001600160a01b03851660009081526010602052604081208054929550600192909190610a4a908490613787565b90915550610a5a9050565b610a6c565b80610a64816138af565b9150506109ad565b5060095460405163a9059cbb60e01b81526001600160a01b038581166004830152602482018590526101009092049091169063a9059cbb90604401602060405180830381600087803b158015610ac157600080fd5b505af1158015610ad5573d6000803e3d6000fd5b505050506040513d601f19601f82011682018060405250810190610af991906135c1565b50604080516001600160a01b0385168152602081018490527f47cee97cb7acd717b3c0aa1435d004cd5b3c8c57d70dbceb4e4458bbd60e39d491015b60405180910390a1505050565b6013546000906001600160a01b0316639c0ca529610b5f84612065565b610b68906138ca565b6040516001600160e01b031960e084901b16815260048101919091526001600160a01b0387166024820152604401600060405180830381600087803b158015610bb057600080fd5b505af1158015610bc4573d6000803e3d6000fd5b50506013546001600160a01b03169150639c0ca5299050610be484612065565b6040516001600160e01b031960e084901b16815260048101919091526001600160a01b0386166024820152604401600060405180830381600087803b158015610c2c57600080fd5b505af1158015610c40573d6000803e3d6000fd5b50506014546001600160a01b03169150639c0ca5299050610c6084612065565b610c69906138ca565b6040516001600160e01b031960e084901b16815260048101919091526001600160a01b0387166024820152604401600060405180830381600087803b158015610cb157600080fd5b505af1158015610cc5573d6000803e3d6000fd5b50506014546001600160a01b03169150639c0ca5299050610ce584612065565b6040516001600160e01b031960e084901b16815260048101919091526001600160a01b0386166024820152604401600060405180830381600087803b158015610d2d57600080fd5b505af1158015610d41573d6000803e3d6000fd5b50505050610d508484846120d3565b506001600160a01b038085166000908152600a6020526040808220548684168352912054610d8392918216911684612111565b5060019392505050565b600082815260086020526040902060010154610da98133612294565b610db383836122f8565b505050565b6001600160a01b0381163314610e285760405162461bcd60e51b815260206004820152602f60248201527f416363657373436f6e74726f6c3a2063616e206f6e6c792072656e6f756e636560448201526e103937b632b9903337b91039b2b63360891b60648201526084016108b6565b610e328282612361565b5050565b60095460ff16610e7f5760405162461bcd60e51b815260206004820152601460248201527314185d5cd8589b194e881b9bdd081c185d5cd95960621b60448201526064016108b6565b653830bab9b2b960d11b610e938133612294565b6009805460ff191690556040513381527f5db9ee0a495bf2e6ff9c91a7834c1ba4fdd244a5e8aa4e537bd38aeae4b073aa906020015b60405180910390a150565b6000610ee86430b236b4b760d91b33612294565b60095460ff1615610f0b5760405162461bcd60e51b81526004016108b69061370f565b610f1583836123c8565b50600192915050565b610e32828260405180602001604052806000815250611e99565b610db383838360405180602001604052806000815250611784565b610f5d33826124c6565b50565b6000438210610fc35760405162461bcd60e51b815260206004820152602960248201527f534b6f6b6f613a3a6765745072696f72566f7465733a206e6f74207965742064604482015268195d195c9b5a5b995960ba1b60648201526084016108b6565b6001600160a01b0383166000908152600c602052604090205463ffffffff1680610ff15760009150506108cc565b6001600160a01b0384166000908152600b60205260408120849161101660018561382f565b63ffffffff90811682526020820192909252604001600020541611611089576001600160a01b0384166000908152600b602052604081209061105960018461382f565b63ffffffff168152602081019190915260400160002054600160201b90046001600160601b031691506108cc9050565b6001600160a01b0384166000908152600b6020908152604080832083805290915290205463ffffffff168310156110c45760009150506108cc565b6000806110d260018461382f565b90505b8163ffffffff168163ffffffff1611156111a457600060026110f7848461382f565b61110191906137e9565b61110b908361382f565b6001600160a01b0388166000908152600b6020908152604080832063ffffffff858116855290835292819020815180830190925254928316808252600160201b9093046001600160601b031691810191909152919250871415611178576020015194506108cc9350505050565b805163ffffffff1687111561118f5781935061119d565b61119a60018361382f565b92505b50506110d5565b506001600160a01b0385166000908152600b6020908152604080832063ffffffff909416835292905220546001600160601b03600160201b9091041691505092915050565b60095460ff161561120c5760405162461bcd60e51b81526004016108b69061370f565b653830bab9b2b960d11b6112208133612294565b6009805460ff191660011790556040513381527f62e78cea01bee320cd4e420270b5ea74000d11b0c9f74754ebdbfc544b05a25890602001610ec9565b60009182526008602090815260408084206001600160a01b0393909316845291905290205460ff1690565b60606006805461080890613874565b60006112ab6430b236b4b760d91b33612294565b60095460ff16156112ce5760405162461bcd60e51b81526004016108b69061370f565b610f158383612540565b6013546000906001600160a01b0316639c0ca5296112f584612065565b6112fe906138ca565b6040516001600160e01b031960e084901b1681526004810191909152336024820152604401600060405180830381600087803b15801561133d57600080fd5b505af1158015611351573d6000803e3d6000fd5b50506013546001600160a01b03169150639c0ca529905061137184612065565b6040516001600160e01b031960e084901b16815260048101919091526001600160a01b0386166024820152604401600060405180830381600087803b1580156113b957600080fd5b505af11580156113cd573d6000803e3d6000fd5b50506014546001600160a01b03169150639c0ca52990506113ed84612065565b6113f6906138ca565b6040516001600160e01b031960e084901b1681526004810191909152336024820152604401600060405180830381600087803b15801561143557600080fd5b505af1158015611449573d6000803e3d6000fd5b50506014546001600160a01b03169150639c0ca529905061146984612065565b6040516001600160e01b031960e084901b16815260048101919091526001600160a01b0386166024820152604401600060405180830381600087803b1580156114b157600080fd5b505af11580156114c5573d6000803e3d6000fd5b505050506114d38383612631565b50336000908152600a6020526040808220546001600160a01b0386811684529190922054610f15928216911684612111565b6013546001600160a01b0316639c0ca52961151f83612065565b6040516001600160e01b031960e084901b16815260048101919091526001600160a01b0385166024820152604401600060405180830381600087803b15801561156757600080fd5b505af115801561157b573d6000803e3d6000fd5b50506014546001600160a01b03169150639c0ca529905061159b83612065565b6040516001600160e01b031960e084901b16815260048101919091526001600160a01b0385166024820152604401600060405180830381600087803b1580156115e357600080fd5b505af11580156115f7573d6000803e3d6000fd5b50506009546040516323b872dd60e01b8152336004820152306024820152604481018590526101009091046001600160a01b031692506323b872dd9150606401602060405180830381600087803b15801561165157600080fd5b505af1158015611665573d6000803e3d6000fd5b505050506040513d601f19601f8201168201806040525081019061168991906135c1565b5061169482826123c8565b6001600160a01b038083166000908152600a60205260408120546116b9921683612111565b604080513381526001600160a01b03841660208201529081018290527f99039fcf0a98f484616c5196ee8b2ecfa971babf0b519848289ea4db381f85f79060600160405180910390a15050565b6001600160a01b0381166000908152600c602052604081205463ffffffff168061173157600061177d565b6001600160a01b0383166000908152600b602052604081209061175560018461382f565b63ffffffff168152602081019190915260400160002054600160201b90046001600160601b03165b9392505050565b61178f848484610b42565b5061179c84848484612666565b611810576040805162461bcd60e51b81526020600482015260248101919091527f4b4950373a3a736166655472616e7366657246726f6d3a207472616e7366657260448201527f20746f206e6f6e204b495037526563656976657220696d706c656d656e74657260648201526084016108b6565b50505050565b6013546001600160a01b0316639c0ca52961183083612065565b611839906138ca565b6040516001600160e01b031960e084901b1681526004810191909152336024820152604401600060405180830381600087803b15801561187857600080fd5b505af115801561188c573d6000803e3d6000fd5b50506014546001600160a01b03169150639c0ca52990506118ac83612065565b6118b5906138ca565b6040516001600160e01b031960e084901b1681526004810191909152336024820152604401600060405180830381600087803b1580156118f457600080fd5b505af1158015611908573d6000803e3d6000fd5b505050506119163382612540565b336000908152600a602052604081205461193c916001600160a01b039091169083612111565b6001600160a01b0382166000908152600f6020526040902054801580159061199857506001600160a01b03831660009081526011602052604081204291611984600185613818565b815260200190815260200160002060000154145b156119ed576001600160a01b038316600090815260116020526040812083916119c2600185613818565b815260200190815260200160002060010160008282546119e29190613787565b90915550611a4c9050565b60408051808201825242815260208082018581526001600160a01b03871660008181526011845285812087825284528581209451855591516001948501558152600f909152918220805491929091611a46908490613787565b90915550505b604080513381526001600160a01b03851660208201529081018390527f390b1276974b9463e5d66ab10df69b6f3d7b930eb066a0e66df327edd2cc811c90606001610b35565b60007f8cad95687ba82c2ce50e74f7b754645e5117c3a5bec8151c0726d5857980a866611abd6107f9565b8051602091820120600d546040805180850195909552848101929092526060840152306080808501919091528151808503909101815260a0840182528051908301207fe48329057bfd03d55e49b547132e39cffd9c1820ad7b9d4c5307691425d15adf60c08501526001600160a01b038b1660e085015261010084018a90526101208085018a90528251808603909101815261014085019092528151919092012061190160f01b61016084015261016283018290526101828301819052909250906000906101a20160408051601f198184030181528282528051602091820120600080855291840180845281905260ff8a169284019290925260608301889052608083018790529092509060019060a0016020604051602081039080840390855afa158015611bf0573d6000803e3d6000fd5b5050604051601f1901519150506001600160a01b038116611c645760405162461bcd60e51b815260206004820152602860248201527f534b6f6b6f613a3a64656c656761746542795369673a20696e76616c6964207360448201526769676e617475726560c01b60648201526084016108b6565b6001600160a01b0381166000908152600e60205260408120805491611c88836138af565b919050558914611ce65760405162461bcd60e51b8152602060048201526024808201527f534b6f6b6f613a3a64656c656761746542795369673a20696e76616c6964206e6044820152636f6e636560e01b60648201526084016108b6565b87421115611d475760405162461bcd60e51b815260206004820152602860248201527f534b6f6b6f613a3a64656c656761746542795369673a207369676e617475726560448201526708195e1c1a5c995960c21b60648201526084016108b6565b611d51818b6124c6565b505050505b505050505050565b611d706437bbb732b960d91b33612294565b816f35b9b22932bbb0b93226b0b730b3b2b960811b1415611dab57601380546001600160a01b0319166001600160a01b038316179055610e32565b817135b7b5b7b0a932bbb0b93226b0b730b3b2b960711b1415611de857601480546001600160a01b0319166001600160a01b038316179055610e32565b60405162461bcd60e51b815260206004820152602760248201527f534b6f6b6f61546f6b656e3a3a636f6e6669673a20756e7265636f676e697a65604482015266642d706172616d60c81b60648201526084016108b6565b600082815260086020526040902060010154611e5c8133612294565b610db38383612361565b611e786437bbb732b960d91b33612294565b816b1b1bd8dad55c14195c9a5bd960a21b1415611de8576012819055610e32565b611ea383836112d8565b50611eb033848484612666565b610db35760405162461bcd60e51b815260206004820152603c60248201527f4b4950373a3a736166655472616e736665723a207472616e7366657220746f2060448201527f6e6f6e204b495037526563656976657220696d706c656d656e7465720000000060648201526084016108b6565b600054610100900460ff1680611f375750303b155b80611f45575060005460ff16155b611f615760405162461bcd60e51b81526004016108b690613739565b600054610100900460ff16158015611f83576000805461ffff19166101011790555b611fd16040518060400160405280600c81526020016b5374616b6564204b6f6b6f6160a01b81525060405180604001604052806006815260200165734b4f4b4f4160d01b8152506012612724565b60098054610100600160a81b0319166101006001600160a01b03851602179055600d8390558015610db3576000805461ff0019169055505050565b61201e6437bbb732b960d91b33612294565b6120306437bbb732b960d91b826122f8565b610f5d6437bbb732b960d91b33612361565b6000610f153384846127af565b600081831061205e57816108c9565b5090919050565b60006001600160ff1b038211156120cf5760405162461bcd60e51b815260206004820152602860248201527f53616665436173743a2076616c756520646f65736e27742066697420696e2061604482015267371034b73a191a9b60c11b60648201526084016108b6565b5090565b60006120e160095460ff1690565b156120fe5760405162461bcd60e51b81526004016108b69061370f565b6121098484846128e7565b949350505050565b816001600160a01b0316836001600160a01b0316141580156121335750600081115b15610db3576001600160a01b038316156121e8576001600160a01b0383166000908152600c602052604081205463ffffffff1690816121735760006121bf565b6001600160a01b0385166000908152600b602052604081209061219760018561382f565b63ffffffff168152602081019190915260400160002054600160201b90046001600160601b03165b905060006121cc8461292f565b6121d69083613854565b90506121e486848484612997565b5050505b6001600160a01b03821615610db3576001600160a01b0382166000908152600c602052604081205463ffffffff16908161222357600061226f565b6001600160a01b0384166000908152600b602052604081209061224760018561382f565b63ffffffff168152602081019190915260400160002054600160201b90046001600160601b03165b9050600061227c8461292f565b61228690836137c7565b9050611d5685848484612997565b61229e828261125d565b610e325760405162461bcd60e51b815260206004820152602560248201527f416363657373436f6e74726f6c3a5f636865636b526f6c653a696e76616c696460448201526420726f6c6560d81b60648201526084016108b6565b612302828261125d565b610e325760008281526008602090815260408083206001600160a01b0385168085529252808320805460ff1916600117905551339285917f2f8788117e7eff1d82e926ec794901d17c78024a50270940304540a733656f0d9190a45050565b61236b828261125d565b15610e325760008281526008602090815260408083206001600160a01b0385168085529252808320805460ff1916905551339285917ff6391f5c32d9c69d2a47ea670b442974b53935d1edc7fd64eb21e047a839171b9190a45050565b6001600160a01b0382166124345760405162461bcd60e51b815260206004820152602d60248201527f4b495037457874656e6465643a3a5f6d696e743a206d696e7420746f2074686560448201526c207a65726f206164647265737360981b60648201526084016108b6565b806004546124429190613787565b6004556001600160a01b038216600090815260026020526040902054612469908290613787565b6001600160a01b0383166000818152600260205260408082209390935591519091907fddf252ad1be2c89b69c2b068fc378daa952ba7f163c4a11628f55a4df523b3ef906124ba9085815260200190565b60405180910390a35050565b6001600160a01b038083166000818152600a6020818152604080842080546002845282862054949093528787166001600160a01b03198416811790915590519190951694919391928592917f3134e8a2e6d97e929a7e54011ea5485d7d196dd5f0ba4d4ef95803e8e3fc257f9190a4611810828483612111565b6001600160a01b0382166125ae5760405162461bcd60e51b815260206004820152602f60248201527f4b495037457874656e6465643a3a5f6275726e3a206275726e2066726f6d207460448201526e6865207a65726f206164647265737360881b60648201526084016108b6565b806004546125bc9190613818565b6004556001600160a01b0382166000908152600260205260409020546125e3908290613818565b6001600160a01b0383166000818152600260205260408082209390935591517fddf252ad1be2c89b69c2b068fc378daa952ba7f163c4a11628f55a4df523b3ef906124ba9085815260200190565b600061263f60095460ff1690565b1561265c5760405162461bcd60e51b81526004016108b69061370f565b6108c98383612b8f565b60006001600160a01b0384163b61267f57506001612109565b604051634e8c461160e11b81526000906001600160a01b03861690639d188c22906126b49033908a90899089906004016136bf565b602060405180830381600087803b1580156126ce57600080fd5b505af11580156126e2573d6000803e3d6000fd5b505050506040513d601f19601f820116820180604052508101906127069190613658565b6001600160e01b031916634e8c461160e11b14915050949350505050565b600054610100900460ff16806127395750303b155b80612747575060005460ff16155b6127635760405162461bcd60e51b81526004016108b690613739565b600054610100900460ff16158015612785576000805461ffff19166101011790555b612790848484612b9c565b612798612c10565b8015611810576000805461ff001916905550505050565b6001600160a01b03831661281b5760405162461bcd60e51b815260206004820152602d60248201527f4b4950373a3a5f617070726f76653a20617070726f76652066726f6d2074686560448201526c207a65726f206164647265737360981b60648201526084016108b6565b6001600160a01b0382166128855760405162461bcd60e51b815260206004820152602b60248201527f4b4950373a3a5f617070726f76653a20617070726f766520746f20746865207a60448201526a65726f206164647265737360a81b60648201526084016108b6565b6001600160a01b0383811660008181526003602090815260408083209487168084529482529182902085905590518481527f8c5be1e5ebec7d5bd14f71427d1e84f3dd0314c0f7b2291e5b200ac8c7c3b92591015b60405180910390a3505050565b60006128f4848484612cbb565b6001600160a01b038416600090815260036020908152604080832033808552925290912054610d8391869161292a908690613818565b6127af565b60006001600160601b038211156120cf5760405162461bcd60e51b815260206004820152602660248201527f53616665436173743a2076616c756520646f65736e27742066697420696e203960448201526536206269747360d01b60648201526084016108b6565b60006129bb4360405180606001604052806036815260200161392760369139612e3d565b905060008463ffffffff16118015612a1557506001600160a01b0385166000908152600b6020526040812063ffffffff8316916129f960018861382f565b63ffffffff908116825260208201929092526040016000205416145b15612a89576001600160a01b0385166000908152600b602052604081208391612a3f60018861382f565b63ffffffff168152602081019190915260400160002080546001600160601b0392909216600160201b026fffffffffffffffffffffffff0000000019909216919091179055612b3a565b60408051808201825263ffffffff80841682526001600160601b0380861660208085019182526001600160a01b038b166000908152600b82528681208b8616825290915294909420925183549451909116600160201b026fffffffffffffffffffffffffffffffff19909416911617919091179055612b0984600161379f565b6001600160a01b0386166000908152600c60205260409020805463ffffffff191663ffffffff929092169190911790555b604080516001600160601b038086168252841660208201526001600160a01b038716917f664ef4a22338e827df5b675ec1747eac10c2ea611e1c575f3d96c38a2e24231e910160405180910390a25050505050565b6000610f15338484612cbb565b600054610100900460ff1680612bb15750303b155b80612bbf575060005460ff16155b612bdb5760405162461bcd60e51b81526004016108b690613739565b600054610100900460ff16158015612bfd576000805461ffff19166101011790555b612c05612e6c565b612798848484612edd565b600054610100900460ff1680612c255750303b155b80612c33575060005460ff16155b612c4f5760405162461bcd60e51b81526004016108b690613739565b600054610100900460ff16158015612c71576000805461ffff19166101011790555b612c79612f85565b612c94653830bab9b2b960d11b6437bbb732b960d91b612fee565b612ca7653830bab9b2b960d11b33613039565b8015610f5d576000805461ff001916905550565b6001600160a01b038316612d295760405162461bcd60e51b815260206004820152602f60248201527f4b4950373a3a5f7472616e736665723a207472616e736665722066726f6d207460448201526e6865207a65726f206164647265737360881b60648201526084016108b6565b6001600160a01b038216612d955760405162461bcd60e51b815260206004820152602d60248201527f4b4950373a3a5f7472616e736665723a207472616e7366657220746f2074686560448201526c207a65726f206164647265737360981b60648201526084016108b6565b6001600160a01b038316600090815260026020526040902054612db9908290613818565b6001600160a01b038085166000908152600260205260408082209390935590841681522054612de9908290613787565b6001600160a01b0380841660008181526002602052604090819020939093559151908516907fddf252ad1be2c89b69c2b068fc378daa952ba7f163c4a11628f55a4df523b3ef906128da9085815260200190565b600081600160201b8410612e645760405162461bcd60e51b81526004016108b691906136fc565b509192915050565b600054610100900460ff1680612e815750303b155b80612e8f575060005460ff16155b612eab5760405162461bcd60e51b81526004016108b690613739565b600054610100900460ff16158015612ecd576000805461ffff19166101011790555b612ed5613043565b612ca76130b4565b600054610100900460ff1680612ef25750303b155b80612f00575060005460ff16155b612f1c5760405162461bcd60e51b81526004016108b690613739565b600054610100900460ff16158015612f3e576000805461ffff19166101011790555b8351612f5190600590602087019061328c565b508251612f6590600690602086019061328c565b506007805460ff191660ff841617905561279863a219a02560e01b613121565b600054610100900460ff1680612f9a5750303b155b80612fa8575060005460ff16155b612fc45760405162461bcd60e51b81526004016108b690613739565b600054610100900460ff16158015612fe6576000805461ffff19166101011790555b612ca76131bb565b600082815260086020526040808220600101805490849055905190918391839186917fbd79b86ffe0ab8e8776151514217cd7cacd52c909f66475c3af44e129f0b00ff9190a4505050565b610e3282826122f8565b600054610100900460ff16806130585750303b155b80613066575060005460ff16155b6130825760405162461bcd60e51b81526004016108b690613739565b600054610100900460ff161580156130a4576000805461ffff19166101011790555b612ca76301ffc9a760e01b613121565b600054610100900460ff16806130c95750303b155b806130d7575060005460ff16155b6130f35760405162461bcd60e51b81526004016108b690613739565b600054610100900460ff16158015613115576000805461ffff19166101011790555b612ca7636578737160e01b5b6001600160e01b031980821614156131935760405162461bcd60e51b815260206004820152602f60248201527f4b495031333a3a5f7265676973746572496e746572666163653a20696e76616c60448201526e1a59081a5b9d195c999858d9481a59608a1b60648201526084016108b6565b6001600160e01b0319166000908152600160208190526040909120805460ff19169091179055565b600054610100900460ff16806131d05750303b155b806131de575060005460ff16155b6131fa5760405162461bcd60e51b81526004016108b690613739565b600054610100900460ff1615801561321c576000805461ffff19166101011790555b61322e6437bbb732b960d91b33613039565b6132486430b236b4b760d91b6437bbb732b960d91b612fee565b6132656737b832b930ba37b960c11b6437bbb732b960d91b612fee565b6132776430b236b4b760d91b33613039565b612ca76737b832b930ba37b960c11b33613039565b82805461329890613874565b90600052602060002090601f0160209004810192826132ba5760008555613300565b82601f106132d357805160ff1916838001178555613300565b82800160010185558215613300579182015b828111156133005782518255916020019190600101906132e5565b506120cf9291505b808211156120cf5760008155600101613308565b80356001600160a01b03811681146107f457600080fd5b600082601f830112613343578081fd5b813567ffffffffffffffff8082111561335e5761335e6138fa565b604051601f8301601f19908116603f01168101908282118183101715613386576133866138fa565b8160405283815286602085880101111561339e578485fd5b8360208701602083013792830160200193909352509392505050565b6000602082840312156133cb578081fd5b6108c98261331c565b600080604083850312156133e6578081fd5b6133ef8361331c565b91506133fd6020840161331c565b90509250929050565b60008060006060848603121561341a578081fd5b6134238461331c565b92506134316020850161331c565b9150604084013590509250925092565b60008060008060808587031215613456578081fd5b61345f8561331c565b935061346d6020860161331c565b925060408501359150606085013567ffffffffffffffff81111561348f578182fd5b61349b87828801613333565b91505092959194509250565b600080604083850312156134b9578182fd5b6134c28361331c565b946020939093013593505050565b6000806000606084860312156134e4578283fd5b6134ed8461331c565b925060208401359150604084013567ffffffffffffffff81111561350f578182fd5b61351b86828701613333565b9150509250925092565b60008060008060008060c0878903121561353d578182fd5b6135468761331c565b95506020870135945060408701359350606087013560ff81168114613569578283fd5b9598949750929560808101359460a0909101359350915050565b60008060408385031215613595578182fd5b61359e8361331c565b9150602083013563ffffffff811681146135b6578182fd5b809150509250929050565b6000602082840312156135d2578081fd5b8151801515811461177d578182fd5b6000602082840312156135f2578081fd5b5035919050565b6000806040838503121561360b578182fd5b823591506133fd6020840161331c565b6000806040838503121561362d578182fd5b50508035926020909101359150565b60006020828403121561364d578081fd5b813561177d81613910565b600060208284031215613669578081fd5b815161177d81613910565b60008151808452815b818110156136995760208185018101518683018201520161367d565b818111156136aa5782602083870101525b50601f01601f19169290920160200192915050565b6001600160a01b03858116825284166020820152604081018390526080606082018190526000906136f290830184613674565b9695505050505050565b6000602082526108c96020830184613674565b60208082526010908201526f14185d5cd8589b194e881c185d5cd95960821b604082015260600190565b6020808252602e908201527f496e697469616c697a61626c653a20636f6e747261637420697320616c72656160408201526d191e481a5b9a5d1a585b1a5e995960921b606082015260800190565b6000821982111561379a5761379a6138e4565b500190565b600063ffffffff8083168185168083038211156137be576137be6138e4565b01949350505050565b60006001600160601b038083168185168083038211156137be576137be6138e4565b600063ffffffff8084168061380c57634e487b7160e01b83526012600452602483fd5b92169190910492915050565b60008282101561382a5761382a6138e4565b500390565b600063ffffffff8381169083168181101561384c5761384c6138e4565b039392505050565b60006001600160601b038381169083168181101561384c5761384c6138e4565b600181811c9082168061388857607f821691505b602082108114156138a957634e487b7160e01b600052602260045260246000fd5b50919050565b60006000198214156138c3576138c36138e4565b5060010190565b6000600160ff1b8214156138e0576138e06138e4565b0390565b634e487b7160e01b600052601160045260246000fd5b634e487b7160e01b600052604160045260246000fd5b6001600160e01b031981168114610f5d57600080fdfe534b6f6b6f613a3a5f7772697465436865636b706f696e743a20626c6f636b206e756d62657220657863656564732033322062697473a2646970667358221220adbbfc6d90e9048645c68dd4588ab41a5a1cdc0f241989c44470d505940bf3d864736f6c63430008030033",
  "devdoc": {
    "kind": "dev",
    "methods": {
      "delegate(address)": {
        "params": {
          "delegatee": "The address to delegate votes to"
        }
      },
      "delegateBySig(address,uint256,uint256,uint8,bytes32,bytes32)": {
        "params": {
          "delegatee": "The address to delegate votes to",
          "expiry": "The time at which to expire the signature",
          "nonce": "The contract state required to match the signature",
          "r": "Half of the ECDSA signature pair",
          "s": "Half of the ECDSA signature pair",
          "v": "The recovery byte of the signature"
        }
      },
      "getCurrentVotes(address)": {
        "params": {
          "account": "The address to get votes balance"
        },
        "returns": {
          "_0": "The number of current votes for `account`"
        }
      },
      "getPriorVotes(address,uint256)": {
        "details": "Block number must be a finalized block or else this function will revert to prevent misinformation.",
        "params": {
          "account": "The address of the account to check",
          "blockNumber": "The block number to get the vote balance at"
        },
        "returns": {
          "_0": "The number of votes the account had as of the given block"
        }
      },
      "stake(address,uint256)": {
        "params": {
          "amount": "amount of kokoa to stake"
        }
      },
      "transfer(address,uint256)": {
        "details": "it should notice to rewardManager that the amount of balance is changed"
      },
      "transferFrom(address,address,uint256)": {
        "details": "it should notice to rewardManager that the amount of balance is changed"
      },
      "unstake(address,uint256)": {
        "params": {
          "amount": "amount of kokoa to unstake"
        }
      }
    },
    "stateVariables": {
      "_checkpoints": {
        "details": "A record of votes checkpoints for each account, by index"
      },
      "delegates": {
        "details": "A record of each accounts' delegate - i.e., select the node to delegate their voting power Only the whitelisted addresses can be delegatees"
      },
      "nonces": {
        "details": "A record of states for signing / validating signatures"
      },
      "numCheckpoints": {
        "details": "The number of checkpoints for each account"
      }
    },
    "version": 1
  },
  "userdoc": {
    "events": {
      "DelegateChanged(address,address,address)": {
        "notice": "An event thats emitted when an account changes its delegate"
      },
      "DelegateVotesChanged(address,uint96,uint96)": {
        "notice": "An event thats emitted when a delegate account's vote balance changes"
      }
    },
    "kind": "user",
    "methods": {
      "DELEGATION_TYPEHASH()": {
        "notice": "The EIP-712 typehash for the delegation struct used by the contract"
      },
      "DOMAIN_TYPEHASH()": {
        "notice": "The EIP-712 typehash for the contract's domain"
      },
      "claim(address)": {
        "notice": "receive kokoa which is after 30 days from unstaking."
      },
      "delegate(address)": {
        "notice": "Delegate votes from `msg.sender` to `delegatee`"
      },
      "delegateBySig(address,uint256,uint256,uint8,bytes32,bytes32)": {
        "notice": "Delegates votes from signatory to `delegatee`"
      },
      "getCurrentVotes(address)": {
        "notice": "Gets the current votes balance for `account`"
      },
      "getPriorVotes(address,uint256)": {
        "notice": "Determine the prior number of votes for an account as of a block number"
      },
      "stake(address,uint256)": {
        "notice": "stake kokoa and receive sKokoa"
      },
      "transfer(address,uint256)": {
        "notice": "transfer"
      },
      "transferFrom(address,address,uint256)": {
        "notice": "transferFrom"
      },
      "unstake(address,uint256)": {
        "notice": "burn sKokoa and unstake kokoa. It takes time to receive kokoa."
      }
    },
    "notice": "The code base here is based on Compound's governance And this contract will be added to rewardManagers as one of the pools to receive reward",
    "version": 1
  },
  "storageLayout": {
    "storage": [
      {
        "astId": 24885,
        "contract": "contracts/governance/SKokoaToken.sol:SKokoaToken",
        "label": "_initialized",
        "offset": 0,
        "slot": "0",
        "type": "t_bool"
      },
      {
        "astId": 24888,
        "contract": "contracts/governance/SKokoaToken.sol:SKokoaToken",
        "label": "_initializing",
        "offset": 1,
        "slot": "0",
        "type": "t_bool"
      },
      {
        "astId": 22840,
        "contract": "contracts/governance/SKokoaToken.sol:SKokoaToken",
        "label": "_supportedInterfaces",
        "offset": 0,
        "slot": "1",
        "type": "t_mapping(t_bytes4,t_bool)"
      },
      {
        "astId": 22904,
        "contract": "contracts/governance/SKokoaToken.sol:SKokoaToken",
        "label": "_balances",
        "offset": 0,
        "slot": "2",
        "type": "t_mapping(t_address,t_uint256)"
      },
      {
        "astId": 22910,
        "contract": "contracts/governance/SKokoaToken.sol:SKokoaToken",
        "label": "_allowances",
        "offset": 0,
        "slot": "3",
        "type": "t_mapping(t_address,t_mapping(t_address,t_uint256))"
      },
      {
        "astId": 22912,
        "contract": "contracts/governance/SKokoaToken.sol:SKokoaToken",
        "label": "_totalSupply",
        "offset": 0,
        "slot": "4",
        "type": "t_uint256"
      },
      {
        "astId": 23292,
        "contract": "contracts/governance/SKokoaToken.sol:SKokoaToken",
        "label": "_name",
        "offset": 0,
        "slot": "5",
        "type": "t_string_storage"
      },
      {
        "astId": 23294,
        "contract": "contracts/governance/SKokoaToken.sol:SKokoaToken",
        "label": "_symbol",
        "offset": 0,
        "slot": "6",
        "type": "t_string_storage"
      },
      {
        "astId": 23296,
        "contract": "contracts/governance/SKokoaToken.sol:SKokoaToken",
        "label": "_decimals",
        "offset": 0,
        "slot": "7",
        "type": "t_uint8"
      },
      {
        "astId": 21831,
        "contract": "contracts/governance/SKokoaToken.sol:SKokoaToken",
        "label": "_roles",
        "offset": 0,
        "slot": "8",
        "type": "t_mapping(t_bytes32,t_struct(RoleData)21826_storage)"
      },
      {
        "astId": 22221,
        "contract": "contracts/governance/SKokoaToken.sol:SKokoaToken",
        "label": "_paused",
        "offset": 0,
        "slot": "9",
        "type": "t_bool"
      },
      {
        "astId": 5205,
        "contract": "contracts/governance/SKokoaToken.sol:SKokoaToken",
        "label": "Kokoa",
        "offset": 1,
        "slot": "9",
        "type": "t_contract(IKIP7)9935"
      },
      {
        "astId": 5211,
        "contract": "contracts/governance/SKokoaToken.sol:SKokoaToken",
        "label": "delegates",
        "offset": 0,
        "slot": "10",
        "type": "t_mapping(t_address,t_address)"
      },
      {
        "astId": 5219,
        "contract": "contracts/governance/SKokoaToken.sol:SKokoaToken",
        "label": "_checkpoints",
        "offset": 0,
        "slot": "11",
        "type": "t_mapping(t_address,t_mapping(t_uint32,t_struct(Checkpoint)9176_storage))"
      },
      {
        "astId": 5225,
        "contract": "contracts/governance/SKokoaToken.sol:SKokoaToken",
        "label": "numCheckpoints",
        "offset": 0,
        "slot": "12",
        "type": "t_mapping(t_address,t_uint32)"
      },
      {
        "astId": 5239,
        "contract": "contracts/governance/SKokoaToken.sol:SKokoaToken",
        "label": "chainId",
        "offset": 0,
        "slot": "13",
        "type": "t_uint256"
      },
      {
        "astId": 5245,
        "contract": "contracts/governance/SKokoaToken.sol:SKokoaToken",
        "label": "nonces",
        "offset": 0,
        "slot": "14",
        "type": "t_mapping(t_address,t_uint256)"
      },
      {
        "astId": 5255,
        "contract": "contracts/governance/SKokoaToken.sol:SKokoaToken",
        "label": "unstakeCount",
        "offset": 0,
        "slot": "15",
        "type": "t_mapping(t_address,t_uint256)"
      },
      {
        "astId": 5260,
        "contract": "contracts/governance/SKokoaToken.sol:SKokoaToken",
        "label": "claimCount",
        "offset": 0,
        "slot": "16",
        "type": "t_mapping(t_address,t_uint256)"
      },
      {
        "astId": 5268,
        "contract": "contracts/governance/SKokoaToken.sol:SKokoaToken",
        "label": "unstakeRecord",
        "offset": 0,
        "slot": "17",
        "type": "t_mapping(t_address,t_mapping(t_uint256,t_struct(UnstakeRecord)5250_storage))"
      },
      {
        "astId": 5271,
        "contract": "contracts/governance/SKokoaToken.sol:SKokoaToken",
        "label": "lockUpPeriod",
        "offset": 0,
        "slot": "18",
        "type": "t_uint256"
      },
      {
        "astId": 5274,
        "contract": "contracts/governance/SKokoaToken.sol:SKokoaToken",
        "label": "_ksdRewardManager",
        "offset": 0,
        "slot": "19",
        "type": "t_contract(IKSDRewardManager)7872"
      },
      {
        "astId": 5277,
        "contract": "contracts/governance/SKokoaToken.sol:SKokoaToken",
        "label": "_kokoaRewardManager",
        "offset": 0,
        "slot": "20",
        "type": "t_contract(IKokoaRewardManager)8454"
      }
    ],
    "types": {
      "t_address": {
        "encoding": "inplace",
        "label": "address",
        "numberOfBytes": "20"
      },
      "t_bool": {
        "encoding": "inplace",
        "label": "bool",
        "numberOfBytes": "1"
      },
      "t_bytes32": {
        "encoding": "inplace",
        "label": "bytes32",
        "numberOfBytes": "32"
      },
      "t_bytes4": {
        "encoding": "inplace",
        "label": "bytes4",
        "numberOfBytes": "4"
      },
      "t_contract(IKIP7)9935": {
        "encoding": "inplace",
        "label": "contract IKIP7",
        "numberOfBytes": "20"
      },
      "t_contract(IKSDRewardManager)7872": {
        "encoding": "inplace",
        "label": "contract IKSDRewardManager",
        "numberOfBytes": "20"
      },
      "t_contract(IKokoaRewardManager)8454": {
        "encoding": "inplace",
        "label": "contract IKokoaRewardManager",
        "numberOfBytes": "20"
      },
      "t_mapping(t_address,t_address)": {
        "encoding": "mapping",
        "key": "t_address",
        "label": "mapping(address => address)",
        "numberOfBytes": "32",
        "value": "t_address"
      },
      "t_mapping(t_address,t_bool)": {
        "encoding": "mapping",
        "key": "t_address",
        "label": "mapping(address => bool)",
        "numberOfBytes": "32",
        "value": "t_bool"
      },
      "t_mapping(t_address,t_mapping(t_address,t_uint256))": {
        "encoding": "mapping",
        "key": "t_address",
        "label": "mapping(address => mapping(address => uint256))",
        "numberOfBytes": "32",
        "value": "t_mapping(t_address,t_uint256)"
      },
      "t_mapping(t_address,t_mapping(t_uint256,t_struct(UnstakeRecord)5250_storage))": {
        "encoding": "mapping",
        "key": "t_address",
        "label": "mapping(address => mapping(uint256 => struct SKokoaToken.UnstakeRecord))",
        "numberOfBytes": "32",
        "value": "t_mapping(t_uint256,t_struct(UnstakeRecord)5250_storage)"
      },
      "t_mapping(t_address,t_mapping(t_uint32,t_struct(Checkpoint)9176_storage))": {
        "encoding": "mapping",
        "key": "t_address",
        "label": "mapping(address => mapping(uint32 => struct ISKokoaToken.Checkpoint))",
        "numberOfBytes": "32",
        "value": "t_mapping(t_uint32,t_struct(Checkpoint)9176_storage)"
      },
      "t_mapping(t_address,t_uint256)": {
        "encoding": "mapping",
        "key": "t_address",
        "label": "mapping(address => uint256)",
        "numberOfBytes": "32",
        "value": "t_uint256"
      },
      "t_mapping(t_address,t_uint32)": {
        "encoding": "mapping",
        "key": "t_address",
        "label": "mapping(address => uint32)",
        "numberOfBytes": "32",
        "value": "t_uint32"
      },
      "t_mapping(t_bytes32,t_struct(RoleData)21826_storage)": {
        "encoding": "mapping",
        "key": "t_bytes32",
        "label": "mapping(bytes32 => struct AccessControl.RoleData)",
        "numberOfBytes": "32",
        "value": "t_struct(RoleData)21826_storage"
      },
      "t_mapping(t_bytes4,t_bool)": {
        "encoding": "mapping",
        "key": "t_bytes4",
        "label": "mapping(bytes4 => bool)",
        "numberOfBytes": "32",
        "value": "t_bool"
      },
      "t_mapping(t_uint256,t_struct(UnstakeRecord)5250_storage)": {
        "encoding": "mapping",
        "key": "t_uint256",
        "label": "mapping(uint256 => struct SKokoaToken.UnstakeRecord)",
        "numberOfBytes": "32",
        "value": "t_struct(UnstakeRecord)5250_storage"
      },
      "t_mapping(t_uint32,t_struct(Checkpoint)9176_storage)": {
        "encoding": "mapping",
        "key": "t_uint32",
        "label": "mapping(uint32 => struct ISKokoaToken.Checkpoint)",
        "numberOfBytes": "32",
        "value": "t_struct(Checkpoint)9176_storage"
      },
      "t_string_storage": {
        "encoding": "bytes",
        "label": "string",
        "numberOfBytes": "32"
      },
      "t_struct(Checkpoint)9176_storage": {
        "encoding": "inplace",
        "label": "struct ISKokoaToken.Checkpoint",
        "members": [
          {
            "astId": 9173,
            "contract": "contracts/governance/SKokoaToken.sol:SKokoaToken",
            "label": "fromBlock",
            "offset": 0,
            "slot": "0",
            "type": "t_uint32"
          },
          {
            "astId": 9175,
            "contract": "contracts/governance/SKokoaToken.sol:SKokoaToken",
            "label": "votes",
            "offset": 4,
            "slot": "0",
            "type": "t_uint96"
          }
        ],
        "numberOfBytes": "32"
      },
      "t_struct(RoleData)21826_storage": {
        "encoding": "inplace",
        "label": "struct AccessControl.RoleData",
        "members": [
          {
            "astId": 21823,
            "contract": "contracts/governance/SKokoaToken.sol:SKokoaToken",
            "label": "members",
            "offset": 0,
            "slot": "0",
            "type": "t_mapping(t_address,t_bool)"
          },
          {
            "astId": 21825,
            "contract": "contracts/governance/SKokoaToken.sol:SKokoaToken",
            "label": "adminRole",
            "offset": 0,
            "slot": "1",
            "type": "t_bytes32"
          }
        ],
        "numberOfBytes": "64"
      },
      "t_struct(UnstakeRecord)5250_storage": {
        "encoding": "inplace",
        "label": "struct SKokoaToken.UnstakeRecord",
        "members": [
          {
            "astId": 5247,
            "contract": "contracts/governance/SKokoaToken.sol:SKokoaToken",
            "label": "block",
            "offset": 0,
            "slot": "0",
            "type": "t_uint256"
          },
          {
            "astId": 5249,
            "contract": "contracts/governance/SKokoaToken.sol:SKokoaToken",
            "label": "amount",
            "offset": 0,
            "slot": "1",
            "type": "t_uint256"
          }
        ],
        "numberOfBytes": "64"
      },
      "t_uint256": {
        "encoding": "inplace",
        "label": "uint256",
        "numberOfBytes": "32"
      },
      "t_uint32": {
        "encoding": "inplace",
        "label": "uint32",
        "numberOfBytes": "4"
      },
      "t_uint8": {
        "encoding": "inplace",
        "label": "uint8",
        "numberOfBytes": "1"
      },
      "t_uint96": {
        "encoding": "inplace",
        "label": "uint96",
        "numberOfBytes": "12"
      }
    }
  }
}