{
  "address": "0xFC902fbCaD72cac564d056cD3C706eeB85154b61",
  "abi": [
    {
      "anonymous": false,
      "inputs": [
        {
          "indexed": false,
          "internalType": "address",
          "name": "account",
          "type": "address"
        }
      ],
      "name": "Paused",
      "type": "event"
    },
    {
      "anonymous": false,
      "inputs": [
        {
          "indexed": true,
          "internalType": "bytes32",
          "name": "role",
          "type": "bytes32"
        },
        {
          "indexed": true,
          "internalType": "bytes32",
          "name": "previousAdminRole",
          "type": "bytes32"
        },
        {
          "indexed": true,
          "internalType": "bytes32",
          "name": "newAdminRole",
          "type": "bytes32"
        }
      ],
      "name": "RoleAdminChanged",
      "type": "event"
    },
    {
      "anonymous": false,
      "inputs": [
        {
          "indexed": true,
          "internalType": "bytes32",
          "name": "role",
          "type": "bytes32"
        },
        {
          "indexed": true,
          "internalType": "address",
          "name": "account",
          "type": "address"
        },
        {
          "indexed": true,
          "internalType": "address",
          "name": "sender",
          "type": "address"
        }
      ],
      "name": "RoleGranted",
      "type": "event"
    },
    {
      "anonymous": false,
      "inputs": [
        {
          "indexed": true,
          "internalType": "bytes32",
          "name": "role",
          "type": "bytes32"
        },
        {
          "indexed": true,
          "internalType": "address",
          "name": "account",
          "type": "address"
        },
        {
          "indexed": true,
          "internalType": "address",
          "name": "sender",
          "type": "address"
        }
      ],
      "name": "RoleRevoked",
      "type": "event"
    },
    {
      "anonymous": false,
      "inputs": [
        {
          "indexed": false,
          "internalType": "address",
          "name": "account",
          "type": "address"
        }
      ],
      "name": "Unpaused",
      "type": "event"
    },
    {
      "anonymous": false,
      "inputs": [
        {
          "indexed": false,
          "internalType": "uint256",
          "name": "now",
          "type": "uint256"
        },
        {
          "indexed": false,
          "internalType": "bytes32",
          "name": "collateralType",
          "type": "bytes32"
        },
        {
          "indexed": false,
          "internalType": "uint256",
          "name": "rate",
          "type": "uint256"
        }
      ],
      "name": "UpdateRate",
      "type": "event"
    },
    {
      "inputs": [],
      "name": "DEFAULT_ADMIN_ROLE",
      "outputs": [
        {
          "internalType": "bytes32",
          "name": "",
          "type": "bytes32"
        }
      ],
      "stateMutability": "view",
      "type": "function"
    },
    {
      "inputs": [],
      "name": "__StabilityFeeCollector_init",
      "outputs": [],
      "stateMutability": "nonpayable",
      "type": "function"
    },
    {
      "inputs": [],
      "name": "__legacy1",
      "outputs": [
        {
          "internalType": "address",
          "name": "",
          "type": "address"
        }
      ],
      "stateMutability": "view",
      "type": "function"
    },
    {
      "inputs": [],
      "name": "__legacy2",
      "outputs": [
        {
          "internalType": "address",
          "name": "",
          "type": "address"
        }
      ],
      "stateMutability": "view",
      "type": "function"
    },
    {
      "inputs": [],
      "name": "__legacy3",
      "outputs": [
        {
          "internalType": "address",
          "name": "",
          "type": "address"
        }
      ],
      "stateMutability": "view",
      "type": "function"
    },
    {
      "inputs": [],
      "name": "addressBook",
      "outputs": [
        {
          "internalType": "contract IAddressBook",
          "name": "",
          "type": "address"
        }
      ],
      "stateMutability": "view",
      "type": "function"
    },
    {
      "inputs": [
        {
          "internalType": "bytes32",
          "name": "collateralType",
          "type": "bytes32"
        },
        {
          "internalType": "bytes32",
          "name": "what",
          "type": "bytes32"
        },
        {
          "internalType": "uint256",
          "name": "data",
          "type": "uint256"
        }
      ],
      "name": "config",
      "outputs": [],
      "stateMutability": "nonpayable",
      "type": "function"
    },
    {
      "inputs": [
        {
          "internalType": "bytes32",
          "name": "what",
          "type": "bytes32"
        },
        {
          "internalType": "address",
          "name": "data",
          "type": "address"
        }
      ],
      "name": "config",
      "outputs": [],
      "stateMutability": "nonpayable",
      "type": "function"
    },
    {
      "inputs": [
        {
          "internalType": "bytes32",
          "name": "collateralType",
          "type": "bytes32"
        }
      ],
      "name": "getRateToUpdate",
      "outputs": [
        {
          "internalType": "uint256",
          "name": "rate",
          "type": "uint256"
        }
      ],
      "stateMutability": "view",
      "type": "function"
    },
    {
      "inputs": [
        {
          "internalType": "bytes32",
          "name": "role",
          "type": "bytes32"
        }
      ],
      "name": "getRoleAdmin",
      "outputs": [
        {
          "internalType": "bytes32",
          "name": "",
          "type": "bytes32"
        }
      ],
      "stateMutability": "view",
      "type": "function"
    },
    {
      "inputs": [
        {
          "internalType": "bytes32",
          "name": "role",
          "type": "bytes32"
        },
        {
          "internalType": "address",
          "name": "account",
          "type": "address"
        }
      ],
      "name": "grantRole",
      "outputs": [],
      "stateMutability": "nonpayable",
      "type": "function"
    },
    {
      "inputs": [
        {
          "internalType": "bytes32",
          "name": "role",
          "type": "bytes32"
        },
        {
          "internalType": "address",
          "name": "account",
          "type": "address"
        }
      ],
      "name": "hasRole",
      "outputs": [
        {
          "internalType": "bool",
          "name": "",
          "type": "bool"
        }
      ],
      "stateMutability": "view",
      "type": "function"
    },
    {
      "inputs": [
        {
          "internalType": "bytes32",
          "name": "collateralType",
          "type": "bytes32"
        }
      ],
      "name": "init",
      "outputs": [],
      "stateMutability": "nonpayable",
      "type": "function"
    },
    {
      "inputs": [],
      "name": "pause",
      "outputs": [],
      "stateMutability": "nonpayable",
      "type": "function"
    },
    {
      "inputs": [],
      "name": "paused",
      "outputs": [
        {
          "internalType": "bool",
          "name": "",
          "type": "bool"
        }
      ],
      "stateMutability": "view",
      "type": "function"
    },
    {
      "inputs": [
        {
          "internalType": "bytes32",
          "name": "role",
          "type": "bytes32"
        },
        {
          "internalType": "address",
          "name": "account",
          "type": "address"
        }
      ],
      "name": "renounceRole",
      "outputs": [],
      "stateMutability": "nonpayable",
      "type": "function"
    },
    {
      "inputs": [
        {
          "internalType": "bytes32",
          "name": "role",
          "type": "bytes32"
        },
        {
          "internalType": "address",
          "name": "account",
          "type": "address"
        }
      ],
      "name": "revokeRole",
      "outputs": [],
      "stateMutability": "nonpayable",
      "type": "function"
    },
    {
      "inputs": [
        {
          "internalType": "bytes32",
          "name": "",
          "type": "bytes32"
        }
      ],
      "name": "stabilityFeeInfo",
      "outputs": [
        {
          "internalType": "uint256",
          "name": "ratioPerSecond",
          "type": "uint256"
        },
        {
          "internalType": "uint256",
          "name": "lastUpdatedAt",
          "type": "uint256"
        }
      ],
      "stateMutability": "view",
      "type": "function"
    },
    {
      "inputs": [
        {
          "internalType": "address",
          "name": "newOwner",
          "type": "address"
        }
      ],
      "name": "transferOwnership",
      "outputs": [],
      "stateMutability": "nonpayable",
      "type": "function"
    },
    {
      "inputs": [],
      "name": "unpause",
      "outputs": [],
      "stateMutability": "nonpayable",
      "type": "function"
    },
    {
      "inputs": [
        {
          "internalType": "bytes32",
          "name": "collateralType",
          "type": "bytes32"
        }
      ],
      "name": "updateRate",
      "outputs": [],
      "stateMutability": "nonpayable",
      "type": "function"
    },
    {
      "inputs": [],
      "name": "updateRatioPerSecond",
      "outputs": [],
      "stateMutability": "nonpayable",
      "type": "function"
    },
    {
      "inputs": [
        {
          "internalType": "bytes32",
          "name": "collateralType",
          "type": "bytes32"
        }
      ],
      "name": "updateRatioPerSecond",
      "outputs": [],
      "stateMutability": "nonpayable",
      "type": "function"
    }
  ],
  "transactionHash": "0x930736493c7ce29f0dabcb8e9d641d881e0842e0f4b133f1c85cf7d6730f871f",
  "args": [],
  "solcInputHash": "b4d7e521f4949fcea0db27318999fa83",
  "bytecode": "0x608060405234801561001057600080fd5b50611bb5806100206000396000f3fe608060405234801561001057600080fd5b506004361061014d5760003560e01c80638456cb59116100c3578063d46736691161007c578063d4673669146102ab578063d547741f146102b3578063ea76c877146102c6578063f2fde38b14610302578063f5887cdd14610315578063f6cc9242146103285761014d565b80638456cb591461024f57806391d14854146102575780639e92ef891461026a578063a217fddf1461027d578063af16276c14610285578063d366f3b9146102985761014d565b80633b663195116101155780633b663195146101ef5780633f4ba83a146102025780634434b9c91461020a578063560b4f271461021d5780635c975abb146102305780638345fae4146102475761014d565b80631a5633ef14610152578063248a9ca31461018257806324f31635146101b45780632f2ff15d146101c757806336568abe146101dc575b600080fd5b600554610165906001600160a01b031681565b6040516001600160a01b0390911681526020015b60405180910390f35b6101a6610190366004611955565b6000908152600160208190526040909120015490565b604051908152602001610179565b6101a66101c2366004611955565b61033b565b6101da6101d536600461196d565b610486565b005b6101da6101ea36600461196d565b6104b2565b6101da6101fd366004611955565b610535565b6101da6105cc565b600654610165906001600160a01b031681565b6101da61022b36600461199c565b61066a565b60025460ff165b6040519015158152602001610179565b6101da61070b565b6101da61086e565b61023761026536600461196d565b610905565b6101da610278366004611955565b610930565b6101a6600081565b600754610165906001600160a01b031681565b6101da6102a636600461196d565b610b5d565b6101da610ba5565b6101da6102c136600461196d565b610c23565b6102ed6102d4366004611955565b6003602052600090815260409020805460019091015482565b60408051928352602083019190915201610179565b6101da61031036600461183d565b610c4a565b600454610165906001600160a01b031681565b6101da610336366004611955565b610c80565b60048054604080516356397c3560e01b8152905160009384936001600160a01b0316926356397c359281830192602092829003018186803b15801561037f57600080fd5b505afa158015610393573d6000803e3d6000fd5b505050506040513d601f19601f820116820180604052508101906103b79190611859565b604051637d5422a760e01b8152600481018590529091506000906001600160a01b03831690637d5422a79060240160c06040518083038186803b1580156103fd57600080fd5b505afa158015610411573d6000803e3d6000fd5b505050506040513d601f19601f8201168201806040525081019061043591906119df565b5050506000878152600360205260409020805460019091015491945061047e9350849250610478916104679042611b0c565b676765c793fa10079d601b1b611122565b906111e0565b949350505050565b600082815260016020819052604090912001546104a3813361126b565b6104ad83836112cf565b505050565b6001600160a01b03811633146105275760405162461bcd60e51b815260206004820152602f60248201527f416363657373436f6e74726f6c3a2063616e206f6e6c792072656e6f756e636560448201526e103937b632b9903337b91039b2b63360891b60648201526084015b60405180910390fd5b610531828261133a565b5050565b6105476430b236b4b760d91b3361126b565b60008181526003602052604090208054156105b45760405162461bcd60e51b815260206004820152602760248201527f53746162696c697479466565557064617465723a3a696e69743a20616c726561604482015266191e481a5b9a5d60ca1b606482015260840161051e565b676765c793fa10079d601b1b81554260019091015550565b60025460ff166106155760405162461bcd60e51b815260206004820152601460248201527314185d5cd8589b194e881b9bdd081c185d5cd95960621b604482015260640161051e565b653830bab9b2b960d11b610629813361126b565b6002805460ff191690556040513381527f5db9ee0a495bf2e6ff9c91a7834c1ba4fdd244a5e8aa4e537bd38aeae4b073aa906020015b60405180910390a150565b61067c6430b236b4b760d91b3361126b565b816d1c985d1a5bd4195c94d958dbdb9960921b14156106ab5760008381526003602052604090208190556104ad565b60405162461bcd60e51b815260206004820152602f60248201527f53746162696c697479466565557064617465723a3a636f6e6669673a20756e7260448201526e65636f676e697a65642d706172616d60881b606482015260840161051e565b6107206737b832b930ba37b960c11b3361126b565b6000600460009054906101000a90046001600160a01b03166001600160a01b0316632b507df86040518163ffffffff1660e01b815260040160206040518083038186803b15801561077057600080fd5b505afa158015610784573d6000803e3d6000fd5b505050506040513d601f19601f820116820180604052508101906107a89190611859565b6001600160a01b031663c5581b9d6040518163ffffffff1660e01b815260040160006040518083038186803b1580156107e057600080fd5b505afa1580156107f4573d6000803e3d6000fd5b505050506040513d6000823e601f3d908101601f1916820160405261081c9190810190611875565b805190915060005b818110156104ad5761085c83828151811061084f57634e487b7160e01b600052603260045260246000fd5b6020026020010151610930565b8061086681611b23565b915050610824565b60025460ff16156108b45760405162461bcd60e51b815260206004820152601060248201526f14185d5cd8589b194e881c185d5cd95960821b604482015260640161051e565b653830bab9b2b960d11b6108c8813361126b565b6002805460ff191660011790556040513381527f62e78cea01bee320cd4e420270b5ea74000d11b0c9f74754ebdbfc544b05a2589060200161065f565b60009182526001602090815260408084206001600160a01b0393909316845291905290205460ff1690565b6109456737b832b930ba37b960c11b3361126b565b6000600460009054906101000a90046001600160a01b03166001600160a01b03166380b7af186040518163ffffffff1660e01b815260040160206040518083038186803b15801561099557600080fd5b505afa1580156109a9573d6000803e3d6000fd5b505050506040513d601f19601f820116820180604052508101906109cd9190611859565b6040516333a0a08160e11b8152600481018490529091506000906001600160a01b0383169063674141029060240160206040518083038186803b158015610a1357600080fd5b505afa158015610a27573d6000803e3d6000fd5b505050506040513d601f19601f82011682018060405250810190610a4b91906119c7565b90506000826001600160a01b0316630e34ac4e6040518163ffffffff1660e01b815260040160206040518083038186803b158015610a8857600080fd5b505afa158015610a9c573d6000803e3d6000fd5b505050506040513d601f19601f82011682018060405250810190610ac091906119c7565b905081811115610b3a576000610b00600a610ae7676765c793fa10079d601b1b6002611aae565b610af19190611a8e565b610afb8585611b0c565b6113a1565b9050610b106301e1338082611a8e565b610b2590676765c793fa10079d601b1b611a76565b60008681526003602052604090205550610b57565b6000848152600360205260409020676765c793fa10079d601b1b90555b50505050565b610b6f6430b236b4b760d91b3361126b565b816a61646472657373426f6f6b60a81b14156106ab57600480546001600160a01b0319166001600160a01b038316179055610531565b600054610100900460ff1680610bba5750303b155b80610bc8575060005460ff16155b610be45760405162461bcd60e51b815260040161051e90611a28565b600054610100900460ff16158015610c06576000805461ffff19166101011790555b610c0e6113b8565b8015610c20576000805461ff00191690555b50565b60008281526001602081905260409091200154610c40813361126b565b6104ad838361133a565b610c5c6437bbb732b960d91b3361126b565b610c6e6437bbb732b960d91b826112cf565b610c206437bbb732b960d91b3361133a565b610c926430b236b4b760d91b3361126b565b600081815260036020526040902060010154421015610d095760405162461bcd60e51b815260206004820152602d60248201527f53746162696c697479466565557064617465723a3a757064617465526174653a60448201526c20696e76616c69642074696d6560981b606482015260840161051e565b600081815260036020526040902054610d8a5760405162461bcd60e51b815260206004820152603760248201527f53746162696c697479466565557064617465723a3a757064617465526174653a60448201527f20696e76616c696420726174696f5065725365636f6e64000000000000000000606482015260840161051e565b6000600460009054906101000a90046001600160a01b03166001600160a01b03166356397c356040518163ffffffff1660e01b815260040160206040518083038186803b158015610dda57600080fd5b505afa158015610dee573d6000803e3d6000fd5b505050506040513d601f19601f82011682018060405250810190610e129190611859565b90506000600460009054906101000a90046001600160a01b03166001600160a01b031663f223fab46040518163ffffffff1660e01b815260040160206040518083038186803b158015610e6457600080fd5b505afa158015610e78573d6000803e3d6000fd5b505050506040513d601f19601f82011682018060405250810190610e9c9190611859565b604051637d5422a760e01b8152600481018590529091506000906001600160a01b03841690637d5422a79060240160c06040518083038186803b158015610ee257600080fd5b505afa158015610ef6573d6000803e3d6000fd5b505050506040513d601f19601f82011682018060405250810190610f1a91906119df565b505050925050506000610f2c8561033b565b9050836001600160a01b03166360a858248630610f488661144f565b610f518661144f565b610f5b9190611acd565b6040516001600160e01b031960e086901b16815260048101939093526001600160a01b0390911660248301526044820152606401600060405180830381600087803b158015610fa957600080fd5b505af1158015610fbd573d6000803e3d6000fd5b50505060008681526003602090815260409182902042600190910181905582519081529081018890529081018390527fac1f24381de5653a71374d1e793060764c3f036d08fa0abdf84bdd96b5ac6560915060600160405180910390a160405163711c534360e11b81523060048201526000906001600160a01b0386169063e238a6869060240160206040518083038186803b15801561105c57600080fd5b505afa158015611070573d6000803e3d6000fd5b505050506040513d601f19601f8201168201806040525081019061109491906119c7565b905060006110ad676765c793fa10079d601b1b83611a8e565b60405163ef693bed60e01b8152306004820152602481018290529091506001600160a01b0386169063ef693bed90604401600060405180830381600087803b1580156110f857600080fd5b505af115801561110c573d6000803e3d6000fd5b50505050611119816114bd565b50505050505050565b60008380156111c25760018416801561113d57859250611141565b8392505b50600283046002850494505b84156111bc57858602868782041461116457600080fd5b8181018181101561117457600080fd5b85900496505060018516156111b157858302838782041415871515161561119a57600080fd5b818101818110156111aa57600080fd5b8590049350505b60028504945061114d565b506111d8565b8380156111d257600092506111d6565b8392505b505b509392505050565b60006111ec8284611aae565b90508115806112035750826112018383611a8e565b145b61124f5760405162461bcd60e51b815260206004820152601b60248201527f5761645261794d6174683a3a20726d756c3a206f766572666c6f770000000000604482015260640161051e565b611264676765c793fa10079d601b1b82611a8e565b9392505050565b6112758282610905565b6105315760405162461bcd60e51b815260206004820152602560248201527f416363657373436f6e74726f6c3a5f636865636b526f6c653a696e76616c696460448201526420726f6c6560d81b606482015260840161051e565b6112d98282610905565b6105315760008281526001602081815260408084206001600160a01b0386168086529252808420805460ff19169093179092559051339285917f2f8788117e7eff1d82e926ec794901d17c78024a50270940304540a733656f0d9190a45050565b6113448282610905565b156105315760008281526001602090815260408083206001600160a01b0385168085529252808320805460ff1916905551339285917ff6391f5c32d9c69d2a47ea670b442974b53935d1edc7fd64eb21e047a839171b9190a45050565b6000818311156113b15781611264565b5090919050565b600054610100900460ff16806113cd5750303b155b806113db575060005460ff16155b6113f75760405162461bcd60e51b815260040161051e90611a28565b600054610100900460ff16158015611419576000805461ffff19166101011790555b6114216116ac565b61143c653830bab9b2b960d11b6437bbb732b960d91b611715565b610c0e653830bab9b2b960d11b33611762565b60006001600160ff1b038211156114b95760405162461bcd60e51b815260206004820152602860248201527f53616665436173743a2076616c756520646f65736e27742066697420696e2061604482015267371034b73a191a9b60c11b606482015260840161051e565b5090565b6000600460009054906101000a90046001600160a01b03166001600160a01b031663a6d5f1036040518163ffffffff1660e01b815260040160206040518083038186803b15801561150d57600080fd5b505afa158015611521573d6000803e3d6000fd5b505050506040513d601f19601f820116820180604052508101906115459190611859565b90506000600460009054906101000a90046001600160a01b03166001600160a01b031663d05f70716040518163ffffffff1660e01b815260040160206040518083038186803b15801561159757600080fd5b505afa1580156115ab573d6000803e3d6000fd5b505050506040513d601f19601f820116820180604052508101906115cf9190611859565b60405163095ea7b360e01b81526001600160a01b038083166004830152602482018690529192509083169063095ea7b390604401602060405180830381600087803b15801561161d57600080fd5b505af1158015611631573d6000803e3d6000fd5b505050506040513d601f19601f820116820180604052508101906116559190611935565b506040516391c05b0b60e01b8152600481018490526001600160a01b038216906391c05b0b90602401600060405180830381600087803b15801561169857600080fd5b505af1158015611119573d6000803e3d6000fd5b600054610100900460ff16806116c15750303b155b806116cf575060005460ff16155b6116eb5760405162461bcd60e51b815260040161051e90611a28565b600054610100900460ff1615801561170d576000805461ffff19166101011790555b610c0e61176c565b6000828152600160208190526040808320909101805490849055905190918391839186917fbd79b86ffe0ab8e8776151514217cd7cacd52c909f66475c3af44e129f0b00ff9190a4505050565b61053182826112cf565b600054610100900460ff16806117815750303b155b8061178f575060005460ff16155b6117ab5760405162461bcd60e51b815260040161051e90611a28565b600054610100900460ff161580156117cd576000805461ffff19166101011790555b6117df6437bbb732b960d91b33611762565b6117f96430b236b4b760d91b6437bbb732b960d91b611715565b6118166737b832b930ba37b960c11b6437bbb732b960d91b611715565b6118286430b236b4b760d91b33611762565b610c0e6737b832b930ba37b960c11b33611762565b60006020828403121561184e578081fd5b813561126481611b6a565b60006020828403121561186a578081fd5b815161126481611b6a565b60006020808385031215611887578182fd5b825167ffffffffffffffff8082111561189e578384fd5b818501915085601f8301126118b1578384fd5b8151818111156118c3576118c3611b54565b8060051b604051601f19603f830116810181811085821117156118e8576118e8611b54565b604052828152858101935084860182860187018a1015611906578788fd5b8795505b8386101561192857805185526001959095019493860193860161190a565b5098975050505050505050565b600060208284031215611946578081fd5b81518015158114611264578182fd5b600060208284031215611966578081fd5b5035919050565b6000806040838503121561197f578081fd5b82359150602083013561199181611b6a565b809150509250929050565b6000806000606084860312156119b0578081fd5b505081359360208301359350604090920135919050565b6000602082840312156119d8578081fd5b5051919050565b60008060008060008060c087890312156119f7578182fd5b865195506020870151945060408701519350606087015192506080870151915060a087015190509295509295509295565b6020808252602e908201527f496e697469616c697a61626c653a20636f6e747261637420697320616c72656160408201526d191e481a5b9a5d1a585b1a5e995960921b606082015260800190565b60008219821115611a8957611a89611b3e565b500190565b600082611aa957634e487b7160e01b81526012600452602481fd5b500490565b6000816000190483118215151615611ac857611ac8611b3e565b500290565b60008083128015600160ff1b850184121615611aeb57611aeb611b3e565b6001600160ff1b0384018313811615611b0657611b06611b3e565b50500390565b600082821015611b1e57611b1e611b3e565b500390565b6000600019821415611b3757611b37611b3e565b5060010190565b634e487b7160e01b600052601160045260246000fd5b634e487b7160e01b600052604160045260246000fd5b6001600160a01b0381168114610c2057600080fdfea2646970667358221220f8866e29e3796c8ee7812df37913b87092bee37911d32816a398327b3146110a64736f6c63430008030033",
  "devdoc": {
    "kind": "dev",
    "methods": {},
    "version": 1
  },
  "userdoc": {
    "kind": "user",
    "methods": {},
    "version": 1
  },
  "storageLayout": {
    "storage": [
      {
        "astId": 25499,
        "contract": "contracts/lending/StabilityFeeCollector.sol:StabilityFeeCollector",
        "label": "_initialized",
        "offset": 0,
        "slot": "0",
        "type": "t_bool"
      },
      {
        "astId": 25502,
        "contract": "contracts/lending/StabilityFeeCollector.sol:StabilityFeeCollector",
        "label": "_initializing",
        "offset": 1,
        "slot": "0",
        "type": "t_bool"
      },
      {
        "astId": 22445,
        "contract": "contracts/lending/StabilityFeeCollector.sol:StabilityFeeCollector",
        "label": "_roles",
        "offset": 0,
        "slot": "1",
        "type": "t_mapping(t_bytes32,t_struct(RoleData)22440_storage)"
      },
      {
        "astId": 22835,
        "contract": "contracts/lending/StabilityFeeCollector.sol:StabilityFeeCollector",
        "label": "_paused",
        "offset": 0,
        "slot": "2",
        "type": "t_bool"
      },
      {
        "astId": 19972,
        "contract": "contracts/lending/StabilityFeeCollector.sol:StabilityFeeCollector",
        "label": "stabilityFeeInfo",
        "offset": 0,
        "slot": "3",
        "type": "t_mapping(t_bytes32,t_struct(StabilityFeeInfo)19966_storage)"
      },
      {
        "astId": 19975,
        "contract": "contracts/lending/StabilityFeeCollector.sol:StabilityFeeCollector",
        "label": "addressBook",
        "offset": 0,
        "slot": "4",
        "type": "t_contract(IAddressBook)7368"
      },
      {
        "astId": 19977,
        "contract": "contracts/lending/StabilityFeeCollector.sol:StabilityFeeCollector",
        "label": "__legacy1",
        "offset": 0,
        "slot": "5",
        "type": "t_address"
      },
      {
        "astId": 19979,
        "contract": "contracts/lending/StabilityFeeCollector.sol:StabilityFeeCollector",
        "label": "__legacy2",
        "offset": 0,
        "slot": "6",
        "type": "t_address"
      },
      {
        "astId": 19981,
        "contract": "contracts/lending/StabilityFeeCollector.sol:StabilityFeeCollector",
        "label": "__legacy3",
        "offset": 0,
        "slot": "7",
        "type": "t_address"
      }
    ],
    "types": {
      "t_address": {
        "encoding": "inplace",
        "label": "address",
        "numberOfBytes": "20"
      },
      "t_bool": {
        "encoding": "inplace",
        "label": "bool",
        "numberOfBytes": "1"
      },
      "t_bytes32": {
        "encoding": "inplace",
        "label": "bytes32",
        "numberOfBytes": "32"
      },
      "t_contract(IAddressBook)7368": {
        "encoding": "inplace",
        "label": "contract IAddressBook",
        "numberOfBytes": "20"
      },
      "t_mapping(t_address,t_bool)": {
        "encoding": "mapping",
        "key": "t_address",
        "label": "mapping(address => bool)",
        "numberOfBytes": "32",
        "value": "t_bool"
      },
      "t_mapping(t_bytes32,t_struct(RoleData)22440_storage)": {
        "encoding": "mapping",
        "key": "t_bytes32",
        "label": "mapping(bytes32 => struct AccessControl.RoleData)",
        "numberOfBytes": "32",
        "value": "t_struct(RoleData)22440_storage"
      },
      "t_mapping(t_bytes32,t_struct(StabilityFeeInfo)19966_storage)": {
        "encoding": "mapping",
        "key": "t_bytes32",
        "label": "mapping(bytes32 => struct StabilityFeeCollector.StabilityFeeInfo)",
        "numberOfBytes": "32",
        "value": "t_struct(StabilityFeeInfo)19966_storage"
      },
      "t_struct(RoleData)22440_storage": {
        "encoding": "inplace",
        "label": "struct AccessControl.RoleData",
        "members": [
          {
            "astId": 22437,
            "contract": "contracts/lending/StabilityFeeCollector.sol:StabilityFeeCollector",
            "label": "members",
            "offset": 0,
            "slot": "0",
            "type": "t_mapping(t_address,t_bool)"
          },
          {
            "astId": 22439,
            "contract": "contracts/lending/StabilityFeeCollector.sol:StabilityFeeCollector",
            "label": "adminRole",
            "offset": 0,
            "slot": "1",
            "type": "t_bytes32"
          }
        ],
        "numberOfBytes": "64"
      },
      "t_struct(StabilityFeeInfo)19966_storage": {
        "encoding": "inplace",
        "label": "struct StabilityFeeCollector.StabilityFeeInfo",
        "members": [
          {
            "astId": 19963,
            "contract": "contracts/lending/StabilityFeeCollector.sol:StabilityFeeCollector",
            "label": "ratioPerSecond",
            "offset": 0,
            "slot": "0",
            "type": "t_uint256"
          },
          {
            "astId": 19965,
            "contract": "contracts/lending/StabilityFeeCollector.sol:StabilityFeeCollector",
            "label": "lastUpdatedAt",
            "offset": 0,
            "slot": "1",
            "type": "t_uint256"
          }
        ],
        "numberOfBytes": "64"
      },
      "t_uint256": {
        "encoding": "inplace",
        "label": "uint256",
        "numberOfBytes": "32"
      }
    }
  }
}