{
  "address": "0x6884F04C08F8e14a7E51417eaC35ec4920A4Ac8A",
  "abi": [
    {
      "anonymous": false,
      "inputs": [
        {
          "indexed": false,
          "internalType": "address",
          "name": "account",
          "type": "address"
        }
      ],
      "name": "Paused",
      "type": "event"
    },
    {
      "anonymous": false,
      "inputs": [
        {
          "indexed": true,
          "internalType": "bytes32",
          "name": "role",
          "type": "bytes32"
        },
        {
          "indexed": true,
          "internalType": "bytes32",
          "name": "previousAdminRole",
          "type": "bytes32"
        },
        {
          "indexed": true,
          "internalType": "bytes32",
          "name": "newAdminRole",
          "type": "bytes32"
        }
      ],
      "name": "RoleAdminChanged",
      "type": "event"
    },
    {
      "anonymous": false,
      "inputs": [
        {
          "indexed": true,
          "internalType": "bytes32",
          "name": "role",
          "type": "bytes32"
        },
        {
          "indexed": true,
          "internalType": "address",
          "name": "account",
          "type": "address"
        },
        {
          "indexed": true,
          "internalType": "address",
          "name": "sender",
          "type": "address"
        }
      ],
      "name": "RoleGranted",
      "type": "event"
    },
    {
      "anonymous": false,
      "inputs": [
        {
          "indexed": true,
          "internalType": "bytes32",
          "name": "role",
          "type": "bytes32"
        },
        {
          "indexed": true,
          "internalType": "address",
          "name": "account",
          "type": "address"
        },
        {
          "indexed": true,
          "internalType": "address",
          "name": "sender",
          "type": "address"
        }
      ],
      "name": "RoleRevoked",
      "type": "event"
    },
    {
      "anonymous": false,
      "inputs": [
        {
          "indexed": false,
          "internalType": "address",
          "name": "account",
          "type": "address"
        }
      ],
      "name": "Unpaused",
      "type": "event"
    },
    {
      "inputs": [],
      "name": "DEFAULT_ADMIN_ROLE",
      "outputs": [
        {
          "internalType": "bytes32",
          "name": "",
          "type": "bytes32"
        }
      ],
      "stateMutability": "view",
      "type": "function"
    },
    {
      "inputs": [
        {
          "internalType": "address",
          "name": "ksd_",
          "type": "address"
        },
        {
          "internalType": "address",
          "name": "kusdt_",
          "type": "address"
        },
        {
          "internalType": "address",
          "name": "kdai_",
          "type": "address"
        },
        {
          "internalType": "address",
          "name": "klaySwapBridge_",
          "type": "address"
        }
      ],
      "name": "__Treasury_init",
      "outputs": [],
      "stateMutability": "nonpayable",
      "type": "function"
    },
    {
      "inputs": [
        {
          "internalType": "uint256",
          "name": "amount",
          "type": "uint256"
        }
      ],
      "name": "burnKSD",
      "outputs": [],
      "stateMutability": "nonpayable",
      "type": "function"
    },
    {
      "inputs": [
        {
          "internalType": "uint256",
          "name": "poolA",
          "type": "uint256"
        },
        {
          "internalType": "uint256",
          "name": "poolB",
          "type": "uint256"
        },
        {
          "internalType": "uint256",
          "name": "targetRatioA",
          "type": "uint256"
        },
        {
          "internalType": "uint256",
          "name": "targetRatioB",
          "type": "uint256"
        }
      ],
      "name": "calcAmount",
      "outputs": [
        {
          "internalType": "uint256",
          "name": "",
          "type": "uint256"
        }
      ],
      "stateMutability": "pure",
      "type": "function"
    },
    {
      "inputs": [
        {
          "internalType": "bytes32",
          "name": "what",
          "type": "bytes32"
        },
        {
          "internalType": "address",
          "name": "data",
          "type": "address"
        }
      ],
      "name": "config",
      "outputs": [],
      "stateMutability": "nonpayable",
      "type": "function"
    },
    {
      "inputs": [
        {
          "internalType": "bytes32",
          "name": "what",
          "type": "bytes32"
        },
        {
          "internalType": "uint256",
          "name": "data",
          "type": "uint256"
        }
      ],
      "name": "config",
      "outputs": [],
      "stateMutability": "nonpayable",
      "type": "function"
    },
    {
      "inputs": [
        {
          "internalType": "bytes32",
          "name": "role",
          "type": "bytes32"
        }
      ],
      "name": "getRoleAdmin",
      "outputs": [
        {
          "internalType": "bytes32",
          "name": "",
          "type": "bytes32"
        }
      ],
      "stateMutability": "view",
      "type": "function"
    },
    {
      "inputs": [
        {
          "internalType": "bytes32",
          "name": "role",
          "type": "bytes32"
        },
        {
          "internalType": "address",
          "name": "account",
          "type": "address"
        }
      ],
      "name": "grantRole",
      "outputs": [],
      "stateMutability": "nonpayable",
      "type": "function"
    },
    {
      "inputs": [
        {
          "internalType": "bytes32",
          "name": "role",
          "type": "bytes32"
        },
        {
          "internalType": "address",
          "name": "account",
          "type": "address"
        }
      ],
      "name": "hasRole",
      "outputs": [
        {
          "internalType": "bool",
          "name": "",
          "type": "bool"
        }
      ],
      "stateMutability": "view",
      "type": "function"
    },
    {
      "inputs": [],
      "name": "kdai",
      "outputs": [
        {
          "internalType": "address",
          "name": "",
          "type": "address"
        }
      ],
      "stateMutability": "view",
      "type": "function"
    },
    {
      "inputs": [],
      "name": "klaySwapBridge",
      "outputs": [
        {
          "internalType": "contract IKlaySwapBridge",
          "name": "",
          "type": "address"
        }
      ],
      "stateMutability": "view",
      "type": "function"
    },
    {
      "inputs": [],
      "name": "ksd",
      "outputs": [
        {
          "internalType": "address",
          "name": "",
          "type": "address"
        }
      ],
      "stateMutability": "view",
      "type": "function"
    },
    {
      "inputs": [],
      "name": "ksdDebt",
      "outputs": [
        {
          "internalType": "int256",
          "name": "",
          "type": "int256"
        }
      ],
      "stateMutability": "view",
      "type": "function"
    },
    {
      "inputs": [],
      "name": "ksdDownStrongLimit",
      "outputs": [
        {
          "internalType": "uint256",
          "name": "",
          "type": "uint256"
        }
      ],
      "stateMutability": "view",
      "type": "function"
    },
    {
      "inputs": [],
      "name": "ksdDownStrongTarget",
      "outputs": [
        {
          "internalType": "uint256",
          "name": "",
          "type": "uint256"
        }
      ],
      "stateMutability": "view",
      "type": "function"
    },
    {
      "inputs": [],
      "name": "ksdDownWeakLimit",
      "outputs": [
        {
          "internalType": "uint256",
          "name": "",
          "type": "uint256"
        }
      ],
      "stateMutability": "view",
      "type": "function"
    },
    {
      "inputs": [],
      "name": "ksdDownWeakTarget",
      "outputs": [
        {
          "internalType": "uint256",
          "name": "",
          "type": "uint256"
        }
      ],
      "stateMutability": "view",
      "type": "function"
    },
    {
      "inputs": [],
      "name": "ksdStandardPrice",
      "outputs": [
        {
          "internalType": "uint256",
          "name": "",
          "type": "uint256"
        }
      ],
      "stateMutability": "view",
      "type": "function"
    },
    {
      "inputs": [],
      "name": "ksdUpStrongLimit",
      "outputs": [
        {
          "internalType": "uint256",
          "name": "",
          "type": "uint256"
        }
      ],
      "stateMutability": "view",
      "type": "function"
    },
    {
      "inputs": [],
      "name": "ksdUpStrongTarget",
      "outputs": [
        {
          "internalType": "uint256",
          "name": "",
          "type": "uint256"
        }
      ],
      "stateMutability": "view",
      "type": "function"
    },
    {
      "inputs": [],
      "name": "ksdUpWeakLimit",
      "outputs": [
        {
          "internalType": "uint256",
          "name": "",
          "type": "uint256"
        }
      ],
      "stateMutability": "view",
      "type": "function"
    },
    {
      "inputs": [],
      "name": "ksdUpWeakTarget",
      "outputs": [
        {
          "internalType": "uint256",
          "name": "",
          "type": "uint256"
        }
      ],
      "stateMutability": "view",
      "type": "function"
    },
    {
      "inputs": [],
      "name": "kusdc",
      "outputs": [
        {
          "internalType": "address",
          "name": "",
          "type": "address"
        }
      ],
      "stateMutability": "view",
      "type": "function"
    },
    {
      "inputs": [],
      "name": "kusdt",
      "outputs": [
        {
          "internalType": "address",
          "name": "",
          "type": "address"
        }
      ],
      "stateMutability": "view",
      "type": "function"
    },
    {
      "inputs": [],
      "name": "oracle",
      "outputs": [
        {
          "internalType": "address",
          "name": "",
          "type": "address"
        }
      ],
      "stateMutability": "view",
      "type": "function"
    },
    {
      "inputs": [],
      "name": "orderMaxRatio",
      "outputs": [
        {
          "internalType": "uint256",
          "name": "",
          "type": "uint256"
        }
      ],
      "stateMutability": "view",
      "type": "function"
    },
    {
      "inputs": [],
      "name": "pause",
      "outputs": [],
      "stateMutability": "nonpayable",
      "type": "function"
    },
    {
      "inputs": [],
      "name": "paused",
      "outputs": [
        {
          "internalType": "bool",
          "name": "",
          "type": "bool"
        }
      ],
      "stateMutability": "view",
      "type": "function"
    },
    {
      "inputs": [
        {
          "internalType": "bytes32",
          "name": "role",
          "type": "bytes32"
        },
        {
          "internalType": "address",
          "name": "account",
          "type": "address"
        }
      ],
      "name": "renounceRole",
      "outputs": [],
      "stateMutability": "nonpayable",
      "type": "function"
    },
    {
      "inputs": [
        {
          "internalType": "bytes32",
          "name": "role",
          "type": "bytes32"
        },
        {
          "internalType": "address",
          "name": "account",
          "type": "address"
        }
      ],
      "name": "revokeRole",
      "outputs": [],
      "stateMutability": "nonpayable",
      "type": "function"
    },
    {
      "inputs": [],
      "name": "safeBuyKsd",
      "outputs": [],
      "stateMutability": "nonpayable",
      "type": "function"
    },
    {
      "inputs": [],
      "name": "safeSellKsd",
      "outputs": [],
      "stateMutability": "nonpayable",
      "type": "function"
    },
    {
      "inputs": [
        {
          "internalType": "address",
          "name": "",
          "type": "address"
        }
      ],
      "name": "tokens",
      "outputs": [
        {
          "internalType": "bool",
          "name": "",
          "type": "bool"
        }
      ],
      "stateMutability": "view",
      "type": "function"
    },
    {
      "inputs": [
        {
          "internalType": "address",
          "name": "newOwner",
          "type": "address"
        }
      ],
      "name": "transferOwnership",
      "outputs": [],
      "stateMutability": "nonpayable",
      "type": "function"
    },
    {
      "inputs": [],
      "name": "unpause",
      "outputs": [],
      "stateMutability": "nonpayable",
      "type": "function"
    },
    {
      "inputs": [
        {
          "internalType": "address",
          "name": "token",
          "type": "address"
        },
        {
          "internalType": "uint256",
          "name": "amount",
          "type": "uint256"
        }
      ],
      "name": "withdrawToken",
      "outputs": [],
      "stateMutability": "nonpayable",
      "type": "function"
    },
    {
      "stateMutability": "payable",
      "type": "receive"
    }
  ],
  "transactionHash": "0xb511f46aba38b02fed1c9be1f8c6615757bb343e3350cc7ab8461679c5ad0224",
  "args": [],
  "solcInputHash": "7dbc51f852a4f43e7edc7a7e154bd675",
  "bytecode": "0x608060405234801561001057600080fd5b50612c80806100206000396000f3fe6080604052600436106102135760003560e01c80638456cb5911610118578063d366f3b9116100a0578063e92e2f921161006f578063e92e2f92146105be578063ebae3825146105de578063f2fde38b146105f4578063f752f8e114610614578063fdbc0e1f1461062a5761021a565b8063d366f3b91461052e578063d547741f1461054e578063e0bed0411461056e578063e48603391461058e5761021a565b8063a217fddf116100e7578063a217fddf1461049e578063a291a4ad146104b3578063a60187ec146104d3578063a6d5f103146104f3578063ac92e452146105185761021a565b80638456cb591461043357806387fc3d151461044857806391d148541461045e5780639e281a981461047e5761021a565b80634c904bd71161019b5780636348f7f61161016a5780636348f7f61461038f5780637330c91c146103c757806378579497146103e75780637dc0d1d0146103fd5780637e4ac6391461041d5761021a565b80634c904bd7146103205780634d84a4251461033657806353ca56bd1461034b5780635c975abb1461036b5761021a565b80632f2ff15d116101e25780632f2ff15d1461029f57806336568abe146102bf5780633e228d93146102df5780633f4ba83a146102f557806345056d281461030a5761021a565b806304cd4ce91461021f5780630dc521ac146102485780631f6b46991461025f578063248a9ca31461027f5761021a565b3661021a57005b600080fd5b34801561022b57600080fd5b5061023560095481565b6040519081526020015b60405180910390f35b34801561025457600080fd5b5061025d61063f565b005b34801561026b57600080fd5b5061023561027a3660046128f2565b6108b8565b34801561028b57600080fd5b5061023561029a3660046127f7565b6108f9565b3480156102ab57600080fd5b5061025d6102ba36600461280f565b610912565b3480156102cb57600080fd5b5061025d6102da36600461280f565b61092f565b3480156102eb57600080fd5b5061023560085481565b34801561030157600080fd5b5061025d6109b2565b34801561031657600080fd5b5061023560075481565b34801561032c57600080fd5b50610235600f5481565b34801561034257600080fd5b5061025d610a50565b34801561035757600080fd5b5061025d6103663660046127f7565b610cdb565b34801561037757600080fd5b5060025460ff165b604051901515815260200161023f565b34801561039b57600080fd5b506006546103af906001600160a01b031681565b6040516001600160a01b03909116815260200161023f565b3480156103d357600080fd5b506003546103af906001600160a01b031681565b3480156103f357600080fd5b5061023560115481565b34801561040957600080fd5b50600c546103af906001600160a01b031681565b34801561042957600080fd5b50610235600a5481565b34801561043f57600080fd5b5061025d610db4565b34801561045457600080fd5b5061023560125481565b34801561046a57600080fd5b5061037f61047936600461280f565b610e4b565b34801561048a57600080fd5b5061025d6104993660046127b2565b610e76565b3480156104aa57600080fd5b50610235600081565b3480156104bf57600080fd5b5061025d6104ce366004612757565b610f08565b3480156104df57600080fd5b50600b546103af906001600160a01b031681565b3480156104ff57600080fd5b506002546103af9061010090046001600160a01b031681565b34801561052457600080fd5b50610235600d5481565b34801561053a57600080fd5b5061025d61054936600461280f565b611028565b34801561055a57600080fd5b5061025d61056936600461280f565b61110b565b34801561057a57600080fd5b5061025d61058936600461283e565b611128565b34801561059a57600080fd5b5061037f6105a936600461271f565b60056020526000908152604090205460ff1681565b3480156105ca57600080fd5b506004546103af906001600160a01b031681565b3480156105ea57600080fd5b50610235600e5481565b34801561060057600080fd5b5061025d61060f36600461271f565b611288565b34801561062057600080fd5b5061023560105481565b34801561063657600080fd5b506102356112c1565b6106546737b832b930ba37b960c11b3361155e565b600061065e6112c1565b604080516003808252608082019092529192506000919060208201606080368337505060045482519293506001600160a01b0316918391506000906106b357634e487b7160e01b600052603260045260246000fd5b6001600160a01b0392831660209182029290920101526003548251911690829060019081106106f257634e487b7160e01b600052603260045260246000fd5b6001600160a01b039283166020918202929092010152600b5482519116908290600290811061073157634e487b7160e01b600052603260045260246000fd5b60200260200101906001600160a01b031690816001600160a01b03168152505060005b60038110156108b357600082828151811061077f57634e487b7160e01b600052603260045260246000fd5b602002602001015190506064600a54670de0b6b3a76400006107a19190612b8f565b6107ab9190612a5b565b84116107c5576107c0816010546000196115c2565b6108a0565b6064601154670de0b6b3a76400006107dd9190612b8f565b6107e79190612a5b565b84116108a0576000612710600854600260019054906101000a90046001600160a01b03166001600160a01b03166318160ddd6040518163ffffffff1660e01b815260040160206040518083038186803b15801561084357600080fd5b505afa158015610857573d6000803e3d6000fd5b505050506040513d601f19601f8201168201806040525081019061087b919061288c565b6108859190612b8f565b61088f9190612a5b565b905061089e82601254836115c2565b505b50806108ab81612c04565b915050610754565b505050565b6000806108e383856108ca888a612b8f565b6108d49190612b8f565b6108de9190612a5b565b611d3f565b90506108ef8682612bed565b9695505050505050565b600081815260016020819052604090912001545b919050565b61091b826108f9565b610925813361155e565b6108b38383611d94565b6001600160a01b03811633146109a45760405162461bcd60e51b815260206004820152602f60248201527f416363657373436f6e74726f6c3a2063616e206f6e6c792072656e6f756e636560448201526e103937b632b9903337b91039b2b63360891b60648201526084015b60405180910390fd5b6109ae8282611dff565b5050565b60025460ff166109fb5760405162461bcd60e51b815260206004820152601460248201527314185d5cd8589b194e881b9bdd081c185d5cd95960621b604482015260640161099b565b653830bab9b2b960d11b610a0f813361155e565b6002805460ff191690556040513381527f5db9ee0a495bf2e6ff9c91a7834c1ba4fdd244a5e8aa4e537bd38aeae4b073aa906020015b60405180910390a150565b610a656737b832b930ba37b960c11b3361155e565b6000610a6f6112c1565b604080516003808252608082019092529192506000919060208201606080368337505060045482519293506001600160a01b031691839150600090610ac457634e487b7160e01b600052603260045260246000fd5b6001600160a01b039283166020918202929092010152600354825191169082906001908110610b0357634e487b7160e01b600052603260045260246000fd5b6001600160a01b039283166020918202929092010152600b54825191169082906002908110610b4257634e487b7160e01b600052603260045260246000fd5b60200260200101906001600160a01b031690816001600160a01b0316815250506000612710600854600260019054906101000a90046001600160a01b03166001600160a01b03166318160ddd6040518163ffffffff1660e01b815260040160206040518083038186803b158015610bb857600080fd5b505afa158015610bcc573d6000803e3d6000fd5b505050506040513d601f19601f82011682018060405250810190610bf0919061288c565b610bfa9190612b8f565b610c049190612a5b565b905060005b6003811015610cd5576000838281518110610c3457634e487b7160e01b600052603260045260246000fd5b602002602001015190506064600954670de0b6b3a7640000610c569190612b8f565b610c609190612a5b565b8510610c7b57610c7581600d54600019611e66565b50610cc2565b6064600e54670de0b6b3a7640000610c939190612b8f565b610c9d9190612a5b565b8510610cc2576000610cb282600f5486611e66565b9050610cbe8185612bed565b9350505b5080610ccd81612c04565b915050610c09565b50505050565b610ced6430b236b4b760d91b3361155e565b600060075413610cfc57600080fd5b806007541015610d0b57600080fd5b6002546040516323b872dd60e01b8152336004820152306024820152604481018390526101009091046001600160a01b0316906323b872dd90606401602060405180830381600087803b158015610d6157600080fd5b505af1158015610d75573d6000803e3d6000fd5b505050506040513d601f19601f82011682018060405250810190610d9991906127dd565b508060076000828254610dac9190612bae565b909155505050565b60025460ff1615610dfa5760405162461bcd60e51b815260206004820152601060248201526f14185d5cd8589b194e881c185d5cd95960821b604482015260640161099b565b653830bab9b2b960d11b610e0e813361155e565b6002805460ff191660011790556040513381527f62e78cea01bee320cd4e420270b5ea74000d11b0c9f74754ebdbfc544b05a25890602001610a45565b60009182526001602090815260408084206001600160a01b0393909316845291905290205460ff1690565b610e886430b236b4b760d91b3361155e565b60405163a9059cbb60e01b8152336004820152602481018290526001600160a01b0383169063a9059cbb90604401602060405180830381600087803b158015610ed057600080fd5b505af1158015610ee4573d6000803e3d6000fd5b505050506040513d601f19601f820116820180604052508101906108b391906127dd565b600054610100900460ff1680610f1d5750303b155b80610f2b575060005460ff16155b610f475760405162461bcd60e51b815260040161099b906129b4565b600054610100900460ff16158015610f69576000805461ffff19166101011790555b610f71612447565b60028054610100600160a81b0319166101006001600160a01b0388811682029290921792839055600380546001600160a01b0319908116898516178255600480548216898616178155929094048316600090815260056020526040808220805460ff1990811660019081179092559354861683528183208054851682179055935485168252902080549091169091179055600680549092169084161790558015611021576000805461ff00191690555b5050505050565b61103a6437bbb732b960d91b3361155e565b81656f7261636c6560d01b141561106b57600c80546001600160a01b0319166001600160a01b0383161790556109ae565b81646b7573646360d81b14156110b757600b80546001600160a01b0319166001600160a01b0383169081179091556000908152600560205260409020805460ff191660011790556109ae565b60405162461bcd60e51b8152602060048201526024808201527f54726561737572793a3a636f6e6669673a20756e7265636f676e697a65642d706044820152636172616d60e01b606482015260840161099b565b611114826108f9565b61111e813361155e565b6108b38383611dff565b61113a6437bbb732b960d91b3361155e565b816c6f726465724d6178526174696f60981b141561115c5760088190556109ae565b816f1adcd9155c14dd1c9bdb99d31a5b5a5d60821b14156111815760098190556109ae565b81701adcd9155c14dd1c9bdb99d5185c99d95d607a1b14156111a757600d8190556109ae565b816d1adcd9155c15d9585ad31a5b5a5d60921b14156111ca57600e8190556109ae565b816e1adcd9155c15d9585ad5185c99d95d608a1b14156111ee57600f8190556109ae565b81711adcd9111bdddb94dd1c9bdb99d31a5b5a5d60721b141561121557600a8190556109ae565b81721adcd9111bdddb94dd1c9bdb99d5185c99d95d606a1b141561123d5760108190556109ae565b816f1adcd9111bdddb95d9585ad31a5b5a5d60821b14156112625760118190556109ae565b81701adcd9111bdddb95d9585ad5185c99d95d607a1b14156110b75760128190556109ae565b61129a6437bbb732b960d91b3361155e565b6112ac6437bbb732b960d91b82611d94565b6112be6437bbb732b960d91b33611dff565b50565b600c54604051637d5422a760e01b8152636b6c617960e01b600482015260009182916001600160a01b0390911690637d5422a790602401604080518083038186803b15801561130f57600080fd5b505afa158015611323573d6000803e3d6000fd5b505050506040513d601f19601f82011682018060405250810190611347919061285f565b509050600080826001600160a01b03166398d5fdca6040518163ffffffff1660e01b8152600401604080518083038186803b15801561138557600080fd5b505afa158015611399573d6000803e3d6000fd5b505050506040513d601f19601f820116820180604052508101906113bd91906128a4565b91509150806114345760405162461bcd60e51b815260206004820152603d60248201527f54726561737572793a3a6b73645374616e6461726450726963653a206b6c617960448201527f206f7261636c652070726963652073686f756c642062652076616c6964000000606482015260840161099b565b60065460025460405163fd435cb960e01b81526000600482018190526001600160a01b036101009093048316602483015292919091169063fd435cb99060440160206040518083038186803b15801561148c57600080fd5b505afa1580156114a0573d6000803e3d6000fd5b505050506040513d601f19601f820116820180604052508101906114c4919061273b565b9050600080826001600160a01b0316631a595f656040518163ffffffff1660e01b8152600401604080518083038186803b15801561150157600080fd5b505afa158015611515573d6000803e3d6000fd5b505050506040513d601f19601f8201168201806040525081019061153991906128cf565b9092509050806115498387612b8f565b6115539190612a5b565b965050505050505090565b6115688282610e4b565b6109ae5760405162461bcd60e51b815260206004820152602560248201527f416363657373436f6e74726f6c3a5f636865636b526f6c653a696e76616c696460448201526420726f6c6560d81b606482015260840161099b565b6001600160a01b03831660009081526005602052604090205460ff166116395760405162461bcd60e51b815260206004820152602660248201527f54726561737572793a3a5f6275794b73643a20696e76616c69642074617267656044820152653a2a37b5b2b760d11b606482015260840161099b565b60065460025460405163fd435cb960e01b81526101009091046001600160a01b0390811660048301528581166024830152600092169063fd435cb99060440160206040518083038186803b15801561169057600080fd5b505afa1580156116a4573d6000803e3d6000fd5b505050506040513d601f19601f820116820180604052508101906116c8919061273b565b9050600080826001600160a01b0316631a595f656040518163ffffffff1660e01b8152600401604080518083038186803b15801561170557600080fd5b505afa158015611719573d6000803e3d6000fd5b505050506040513d601f19601f8201168201806040525081019061173d91906128cf565b91509150600080600260019054906101000a90046001600160a01b03166001600160a01b031663313ce5676040518163ffffffff1660e01b815260040160206040518083038186803b15801561179257600080fd5b505afa1580156117a6573d6000803e3d6000fd5b505050506040513d601f19601f820116820180604052508101906117ca9190612923565b60ff1690506000886001600160a01b031663313ce5676040518163ffffffff1660e01b815260040160206040518083038186803b15801561180a57600080fd5b505afa15801561181e573d6000803e3d6000fd5b505050506040513d601f19601f820116820180604052508101906118429190612923565b60ff1690506118518183612bed565b92505050600081600a6118649190612ac1565b61186f906064612b8f565b90508661187c8285612b8f565b6118868287612b8f565b1115611d3457600061189a858784866108b8565b90506118ba816118ab86600a612ac1565b6118b5908b612a5b565b6124f2565b6040516370a0823160e01b815230600482015290915061193a9082906001600160a01b038d16906370a082319060240160206040518083038186803b15801561190257600080fd5b505afa158015611916573d6000803e3d6000fd5b505050506040513d601f19601f820116820180604052508101906118b5919061288c565b90508061194d57505050505050506108b3565b60065460405163095ea7b360e01b81526001600160a01b03918216600482015260248101839052908b169063095ea7b390604401602060405180830381600087803b15801561199b57600080fd5b505af11580156119af573d6000803e3d6000fd5b505050506040513d601f19601f820116820180604052508101906119d391906127dd565b506002546040516370a0823160e01b815230600482015260009161010090046001600160a01b0316906370a082319060240160206040518083038186803b158015611a1d57600080fd5b505afa158015611a31573d6000803e3d6000fd5b505050506040513d601f19601f82011682018060405250810190611a55919061288c565b6006546002549192506001600160a01b03908116916352f28c17918e9186916101009091041660016000604051908082528060200260200182016040528015611aa8578160200160208202803683370190505b506040518663ffffffff1660e01b8152600401611ac9959493929190612944565b600060405180830381600087803b158015611ae357600080fd5b505af1158015611af7573d6000803e3d6000fd5b50506002546040516370a0823160e01b8152306004820152600093508492506101009091046001600160a01b0316906370a082319060240160206040518083038186803b158015611b4757600080fd5b505afa158015611b5b573d6000803e3d6000fd5b505050506040513d601f19601f82011682018060405250810190611b7f919061288c565b611b899190612bed565b9050611b9481612508565b60076000828254611ba59190612bae565b9091555050600254604051632770a7eb60e21b8152306004820152602481018390526101009091046001600160a01b031690639dc29fac90604401602060405180830381600087803b158015611bfa57600080fd5b505af1158015611c0e573d6000803e3d6000fd5b505050506040513d601f19601f82011682018060405250810190611c3291906127dd565b50886001600160a01b0316631a595f656040518163ffffffff1660e01b8152600401604080518083038186803b158015611c6b57600080fd5b505afa158015611c7f573d6000803e3d6000fd5b505050506040513d601f19601f82011682018060405250810190611ca391906128cf565b9098509650611cb28588612b8f565b611cbc858a612b8f565b1015611d305760405162461bcd60e51b815260206004820152603c60248201527f54726561737572793a3a5f6275794b73643a206b73642070726963652073686f60448201527f756c64206265206c657373207468616e20746172676574507269636500000000606482015260840161099b565b5050505b505050505050505050565b806000611d4d600283612a5b565b611d58906001612a43565b90505b81811015611d8e57905080600281611d738186612a5b565b611d7d9190612a43565b611d879190612a5b565b9050611d5b565b50919050565b611d9e8282610e4b565b6109ae5760008281526001602081815260408084206001600160a01b0386168086529252808420805460ff19169093179092559051339285917f2f8788117e7eff1d82e926ec794901d17c78024a50270940304540a733656f0d9190a45050565b611e098282610e4b565b156109ae5760008281526001602090815260408083206001600160a01b0385168085529252808320805460ff1916905551339285917ff6391f5c32d9c69d2a47ea670b442974b53935d1edc7fd64eb21e047a839171b9190a45050565b6001600160a01b03831660009081526005602052604081205460ff16611ede5760405162461bcd60e51b815260206004820152602760248201527f54726561737572793a3a5f73656c6c4b73643a20696e76616c6964207461726760448201526632ba2a37b5b2b760c91b606482015260840161099b565b60065460025460405163fd435cb960e01b81526101009091046001600160a01b0390811660048301528681166024830152600092169063fd435cb99060440160206040518083038186803b158015611f3557600080fd5b505afa158015611f49573d6000803e3d6000fd5b505050506040513d601f19601f82011682018060405250810190611f6d919061273b565b9050600080826001600160a01b0316631a595f656040518163ffffffff1660e01b8152600401604080518083038186803b158015611faa57600080fd5b505afa158015611fbe573d6000803e3d6000fd5b505050506040513d601f19601f82011682018060405250810190611fe291906128cf565b91509150600080600260019054906101000a90046001600160a01b03166001600160a01b031663313ce5676040518163ffffffff1660e01b815260040160206040518083038186803b15801561203757600080fd5b505afa15801561204b573d6000803e3d6000fd5b505050506040513d601f19601f8201168201806040525081019061206f9190612923565b60ff1690506000896001600160a01b031663313ce5676040518163ffffffff1660e01b815260040160206040518083038186803b1580156120af57600080fd5b505afa1580156120c3573d6000803e3d6000fd5b505050506040513d601f19601f820116820180604052508101906120e79190612923565b60ff1690506120f68183612bed565b92505050600081600a6121099190612ac1565b612114906064612b8f565b90508760006121238386612b8f565b61212d8388612b8f565b10156124375761213f868685856108b8565b905061214b89826124f2565b905061215681612508565b600760008282546121679190612a02565b909155505080612181576000975050505050505050612440565b6002546040516340c10f1960e01b8152306004820152602481018390526101009091046001600160a01b0316906340c10f1990604401602060405180830381600087803b1580156121d157600080fd5b505af11580156121e5573d6000803e3d6000fd5b505050506040513d601f19601f8201168201806040525081019061220991906127dd565b5060025460065460405163095ea7b360e01b81526001600160a01b03918216600482015260248101849052610100909204169063095ea7b390604401602060405180830381600087803b15801561225f57600080fd5b505af1158015612273573d6000803e3d6000fd5b505050506040513d601f19601f8201168201806040525081019061229791906127dd565b506006546002546001600160a01b03918216916352f28c1791610100900416838e600160006040519080825280602002602001820160405280156122e5578160200160208202803683370190505b506040518663ffffffff1660e01b8152600401612306959493929190612944565b600060405180830381600087803b15801561232057600080fd5b505af1158015612334573d6000803e3d6000fd5b50505050866001600160a01b0316631a595f656040518163ffffffff1660e01b8152600401604080518083038186803b15801561237057600080fd5b505afa158015612384573d6000803e3d6000fd5b505050506040513d601f19601f820116820180604052508101906123a891906128cf565b90965094506123b78386612b8f565b6123c18388612b8f565b1115612437576040805162461bcd60e51b81526020600482015260248101919091527f54726561737572793a3a5f73656c6c4b73643a206b736420707269636520736860448201527f6f756c642062652067726561746572207468616e207461726765745072696365606482015260840161099b565b96505050505050505b9392505050565b600054610100900460ff168061245c5750303b155b8061246a575060005460ff16155b6124865760405162461bcd60e51b815260040161099b906129b4565b600054610100900460ff161580156124a8576000805461ffff19166101011790555b6124b0612576565b6124cb653830bab9b2b960d11b6437bbb732b960d91b6125df565b6124de653830bab9b2b960d11b33612634565b80156112be576000805461ff001916905550565b60008183106125015781612440565b5090919050565b60006001600160ff1b038211156125725760405162461bcd60e51b815260206004820152602860248201527f53616665436173743a2076616c756520646f65736e27742066697420696e2061604482015267371034b73a191a9b60c11b606482015260840161099b565b5090565b600054610100900460ff168061258b5750303b155b80612599575060005460ff16155b6125b55760405162461bcd60e51b815260040161099b906129b4565b600054610100900460ff161580156125d7576000805461ffff19166101011790555b6124de61263e565b60006125ea836108f9565b6000848152600160208190526040808320909101859055519192508391839186917fbd79b86ffe0ab8e8776151514217cd7cacd52c909f66475c3af44e129f0b00ff9190a4505050565b6109ae8282611d94565b600054610100900460ff16806126535750303b155b80612661575060005460ff16155b61267d5760405162461bcd60e51b815260040161099b906129b4565b600054610100900460ff1615801561269f576000805461ffff19166101011790555b6126b16437bbb732b960d91b33612634565b6126cb6430b236b4b760d91b6437bbb732b960d91b6125df565b6126e86737b832b930ba37b960c11b6437bbb732b960d91b6125df565b6126fa6430b236b4b760d91b33612634565b6124de6737b832b930ba37b960c11b33612634565b8051801515811461090d57600080fd5b600060208284031215612730578081fd5b813561244081612c35565b60006020828403121561274c578081fd5b815161244081612c35565b6000806000806080858703121561276c578283fd5b843561277781612c35565b9350602085013561278781612c35565b9250604085013561279781612c35565b915060608501356127a781612c35565b939692955090935050565b600080604083850312156127c4578182fd5b82356127cf81612c35565b946020939093013593505050565b6000602082840312156127ee578081fd5b6124408261270f565b600060208284031215612808578081fd5b5035919050565b60008060408385031215612821578182fd5b82359150602083013561283381612c35565b809150509250929050565b60008060408385031215612850578182fd5b50508035926020909101359150565b60008060408385031215612871578182fd5b825161287c81612c35565b6020939093015192949293505050565b60006020828403121561289d578081fd5b5051919050565b600080604083850312156128b6578182fd5b825191506128c66020840161270f565b90509250929050565b600080604083850312156128e1578182fd5b505080516020909101519092909150565b60008060008060808587031215612907578384fd5b5050823594602084013594506040840135936060013592509050565b600060208284031215612934578081fd5b815160ff81168114612440578182fd5b600060a0820160018060a01b03808916845260208881860152818816604086015286606086015260a0608086015282865180855260c0870191508288019450855b818110156129a3578551851683529483019491830191600101612985565b50909b9a5050505050505050505050565b6020808252602e908201527f496e697469616c697a61626c653a20636f6e747261637420697320616c72656160408201526d191e481a5b9a5d1a585b1a5e995960921b606082015260800190565b600080821280156001600160ff1b0384900385131615612a2457612a24612c1f565b600160ff1b8390038412811615612a3d57612a3d612c1f565b50500190565b60008219821115612a5657612a56612c1f565b500190565b600082612a7657634e487b7160e01b81526012600452602481fd5b500490565b80825b6001808611612a8d5750612ab8565b818704821115612a9f57612a9f612c1f565b80861615612aac57918102915b9490941c938002612a7e565b94509492505050565b60006124406000198484600082612ada57506001612440565b81612ae757506000612440565b8160018114612afd5760028114612b0757612b34565b6001915050612440565b60ff841115612b1857612b18612c1f565b6001841b915084821115612b2e57612b2e612c1f565b50612440565b5060208310610133831016604e8410600b8410161715612b67575081810a83811115612b6257612b62612c1f565b612440565b612b748484846001612a7b565b808604821115612b8657612b86612c1f565b02949350505050565b6000816000190483118215151615612ba957612ba9612c1f565b500290565b60008083128015600160ff1b850184121615612bcc57612bcc612c1f565b6001600160ff1b0384018313811615612be757612be7612c1f565b50500390565b600082821015612bff57612bff612c1f565b500390565b6000600019821415612c1857612c18612c1f565b5060010190565b634e487b7160e01b600052601160045260246000fd5b6001600160a01b03811681146112be57600080fdfea26469706673582212202da53af980f8a9bbb549a1f40e281eb11cd593d8e15d1d5f6f48e699f851d21a64736f6c63430008030033",
  "devdoc": {
    "details": "Externally monitor the assets held by the treasury and call the appropriate function.",
    "kind": "dev",
    "methods": {
      "calcAmount(uint256,uint256,uint256,uint256)": {
        "details": "x * y = k , poolA  poolB  ratioA : ratioB   a     ."
      }
    },
    "title": "Treasury fund.",
    "version": 1
  },
  "userdoc": {
    "kind": "user",
    "methods": {
      "ksdStandardPrice()": {
        "notice": "ksd price in wad uint"
      }
    },
    "notice": "Aim to secure price stability of KSD through an active open market operation         Manages the account using the basic concepts of accountings (capital/debt/asset)",
    "version": 1
  },
  "storageLayout": {
    "storage": [
      {
        "astId": 25075,
        "contract": "contracts/keep/Treasury.sol:Treasury",
        "label": "_initialized",
        "offset": 0,
        "slot": "0",
        "type": "t_bool"
      },
      {
        "astId": 25078,
        "contract": "contracts/keep/Treasury.sol:Treasury",
        "label": "_initializing",
        "offset": 1,
        "slot": "0",
        "type": "t_bool"
      },
      {
        "astId": 22021,
        "contract": "contracts/keep/Treasury.sol:Treasury",
        "label": "_roles",
        "offset": 0,
        "slot": "1",
        "type": "t_mapping(t_bytes32,t_struct(RoleData)22016_storage)"
      },
      {
        "astId": 22411,
        "contract": "contracts/keep/Treasury.sol:Treasury",
        "label": "_paused",
        "offset": 0,
        "slot": "2",
        "type": "t_bool"
      },
      {
        "astId": 16395,
        "contract": "contracts/keep/Treasury.sol:Treasury",
        "label": "ksd",
        "offset": 1,
        "slot": "2",
        "type": "t_address"
      },
      {
        "astId": 16398,
        "contract": "contracts/keep/Treasury.sol:Treasury",
        "label": "kusdt",
        "offset": 0,
        "slot": "3",
        "type": "t_address"
      },
      {
        "astId": 16401,
        "contract": "contracts/keep/Treasury.sol:Treasury",
        "label": "kdai",
        "offset": 0,
        "slot": "4",
        "type": "t_address"
      },
      {
        "astId": 16406,
        "contract": "contracts/keep/Treasury.sol:Treasury",
        "label": "tokens",
        "offset": 0,
        "slot": "5",
        "type": "t_mapping(t_address,t_bool)"
      },
      {
        "astId": 16409,
        "contract": "contracts/keep/Treasury.sol:Treasury",
        "label": "klaySwapBridge",
        "offset": 0,
        "slot": "6",
        "type": "t_contract(IKlaySwapBridge)8066"
      },
      {
        "astId": 16411,
        "contract": "contracts/keep/Treasury.sol:Treasury",
        "label": "ksdDebt",
        "offset": 0,
        "slot": "7",
        "type": "t_int256"
      },
      {
        "astId": 16413,
        "contract": "contracts/keep/Treasury.sol:Treasury",
        "label": "orderMaxRatio",
        "offset": 0,
        "slot": "8",
        "type": "t_uint256"
      },
      {
        "astId": 16415,
        "contract": "contracts/keep/Treasury.sol:Treasury",
        "label": "ksdUpStrongLimit",
        "offset": 0,
        "slot": "9",
        "type": "t_uint256"
      },
      {
        "astId": 16417,
        "contract": "contracts/keep/Treasury.sol:Treasury",
        "label": "ksdDownStrongLimit",
        "offset": 0,
        "slot": "10",
        "type": "t_uint256"
      },
      {
        "astId": 16419,
        "contract": "contracts/keep/Treasury.sol:Treasury",
        "label": "kusdc",
        "offset": 0,
        "slot": "11",
        "type": "t_address"
      },
      {
        "astId": 16421,
        "contract": "contracts/keep/Treasury.sol:Treasury",
        "label": "oracle",
        "offset": 0,
        "slot": "12",
        "type": "t_address"
      },
      {
        "astId": 16423,
        "contract": "contracts/keep/Treasury.sol:Treasury",
        "label": "ksdUpStrongTarget",
        "offset": 0,
        "slot": "13",
        "type": "t_uint256"
      },
      {
        "astId": 16425,
        "contract": "contracts/keep/Treasury.sol:Treasury",
        "label": "ksdUpWeakLimit",
        "offset": 0,
        "slot": "14",
        "type": "t_uint256"
      },
      {
        "astId": 16427,
        "contract": "contracts/keep/Treasury.sol:Treasury",
        "label": "ksdUpWeakTarget",
        "offset": 0,
        "slot": "15",
        "type": "t_uint256"
      },
      {
        "astId": 16429,
        "contract": "contracts/keep/Treasury.sol:Treasury",
        "label": "ksdDownStrongTarget",
        "offset": 0,
        "slot": "16",
        "type": "t_uint256"
      },
      {
        "astId": 16431,
        "contract": "contracts/keep/Treasury.sol:Treasury",
        "label": "ksdDownWeakLimit",
        "offset": 0,
        "slot": "17",
        "type": "t_uint256"
      },
      {
        "astId": 16433,
        "contract": "contracts/keep/Treasury.sol:Treasury",
        "label": "ksdDownWeakTarget",
        "offset": 0,
        "slot": "18",
        "type": "t_uint256"
      }
    ],
    "types": {
      "t_address": {
        "encoding": "inplace",
        "label": "address",
        "numberOfBytes": "20"
      },
      "t_bool": {
        "encoding": "inplace",
        "label": "bool",
        "numberOfBytes": "1"
      },
      "t_bytes32": {
        "encoding": "inplace",
        "label": "bytes32",
        "numberOfBytes": "32"
      },
      "t_contract(IKlaySwapBridge)8066": {
        "encoding": "inplace",
        "label": "contract IKlaySwapBridge",
        "numberOfBytes": "20"
      },
      "t_int256": {
        "encoding": "inplace",
        "label": "int256",
        "numberOfBytes": "32"
      },
      "t_mapping(t_address,t_bool)": {
        "encoding": "mapping",
        "key": "t_address",
        "label": "mapping(address => bool)",
        "numberOfBytes": "32",
        "value": "t_bool"
      },
      "t_mapping(t_bytes32,t_struct(RoleData)22016_storage)": {
        "encoding": "mapping",
        "key": "t_bytes32",
        "label": "mapping(bytes32 => struct AccessControl.RoleData)",
        "numberOfBytes": "32",
        "value": "t_struct(RoleData)22016_storage"
      },
      "t_struct(RoleData)22016_storage": {
        "encoding": "inplace",
        "label": "struct AccessControl.RoleData",
        "members": [
          {
            "astId": 22013,
            "contract": "contracts/keep/Treasury.sol:Treasury",
            "label": "members",
            "offset": 0,
            "slot": "0",
            "type": "t_mapping(t_address,t_bool)"
          },
          {
            "astId": 22015,
            "contract": "contracts/keep/Treasury.sol:Treasury",
            "label": "adminRole",
            "offset": 0,
            "slot": "1",
            "type": "t_bytes32"
          }
        ],
        "numberOfBytes": "64"
      },
      "t_uint256": {
        "encoding": "inplace",
        "label": "uint256",
        "numberOfBytes": "32"
      }
    }
  }
}