{
  "address": "0x3F07828551AaFb748Aedf634561dBb2E9E75b87D",
  "abi": [
    {
      "anonymous": false,
      "inputs": [
        {
          "indexed": false,
          "internalType": "address",
          "name": "account",
          "type": "address"
        }
      ],
      "name": "Paused",
      "type": "event"
    },
    {
      "anonymous": false,
      "inputs": [
        {
          "indexed": true,
          "internalType": "bytes32",
          "name": "role",
          "type": "bytes32"
        },
        {
          "indexed": true,
          "internalType": "bytes32",
          "name": "previousAdminRole",
          "type": "bytes32"
        },
        {
          "indexed": true,
          "internalType": "bytes32",
          "name": "newAdminRole",
          "type": "bytes32"
        }
      ],
      "name": "RoleAdminChanged",
      "type": "event"
    },
    {
      "anonymous": false,
      "inputs": [
        {
          "indexed": true,
          "internalType": "bytes32",
          "name": "role",
          "type": "bytes32"
        },
        {
          "indexed": true,
          "internalType": "address",
          "name": "account",
          "type": "address"
        },
        {
          "indexed": true,
          "internalType": "address",
          "name": "sender",
          "type": "address"
        }
      ],
      "name": "RoleGranted",
      "type": "event"
    },
    {
      "anonymous": false,
      "inputs": [
        {
          "indexed": true,
          "internalType": "bytes32",
          "name": "role",
          "type": "bytes32"
        },
        {
          "indexed": true,
          "internalType": "address",
          "name": "account",
          "type": "address"
        },
        {
          "indexed": true,
          "internalType": "address",
          "name": "sender",
          "type": "address"
        }
      ],
      "name": "RoleRevoked",
      "type": "event"
    },
    {
      "anonymous": false,
      "inputs": [
        {
          "indexed": false,
          "internalType": "address",
          "name": "account",
          "type": "address"
        }
      ],
      "name": "Unpaused",
      "type": "event"
    },
    {
      "inputs": [],
      "name": "DEFAULT_ADMIN_ROLE",
      "outputs": [
        {
          "internalType": "bytes32",
          "name": "",
          "type": "bytes32"
        }
      ],
      "stateMutability": "view",
      "type": "function"
    },
    {
      "inputs": [],
      "name": "__YieldManager_init",
      "outputs": [],
      "stateMutability": "nonpayable",
      "type": "function"
    },
    {
      "inputs": [
        {
          "internalType": "bytes32",
          "name": "what",
          "type": "bytes32"
        },
        {
          "internalType": "address",
          "name": "data",
          "type": "address"
        }
      ],
      "name": "config",
      "outputs": [],
      "stateMutability": "nonpayable",
      "type": "function"
    },
    {
      "inputs": [
        {
          "internalType": "bytes32",
          "name": "role",
          "type": "bytes32"
        }
      ],
      "name": "getRoleAdmin",
      "outputs": [
        {
          "internalType": "bytes32",
          "name": "",
          "type": "bytes32"
        }
      ],
      "stateMutability": "view",
      "type": "function"
    },
    {
      "inputs": [],
      "name": "getTargetApr",
      "outputs": [
        {
          "internalType": "uint256",
          "name": "",
          "type": "uint256"
        }
      ],
      "stateMutability": "view",
      "type": "function"
    },
    {
      "inputs": [
        {
          "internalType": "bytes32",
          "name": "collateralType",
          "type": "bytes32"
        }
      ],
      "name": "getYieldApr",
      "outputs": [
        {
          "internalType": "uint256",
          "name": "",
          "type": "uint256"
        }
      ],
      "stateMutability": "view",
      "type": "function"
    },
    {
      "inputs": [
        {
          "internalType": "bytes32",
          "name": "role",
          "type": "bytes32"
        },
        {
          "internalType": "address",
          "name": "account",
          "type": "address"
        }
      ],
      "name": "grantRole",
      "outputs": [],
      "stateMutability": "nonpayable",
      "type": "function"
    },
    {
      "inputs": [
        {
          "internalType": "bytes32",
          "name": "role",
          "type": "bytes32"
        },
        {
          "internalType": "address",
          "name": "account",
          "type": "address"
        }
      ],
      "name": "hasRole",
      "outputs": [
        {
          "internalType": "bool",
          "name": "",
          "type": "bool"
        }
      ],
      "stateMutability": "view",
      "type": "function"
    },
    {
      "inputs": [],
      "name": "ksd",
      "outputs": [
        {
          "internalType": "contract IKIP7",
          "name": "",
          "type": "address"
        }
      ],
      "stateMutability": "view",
      "type": "function"
    },
    {
      "inputs": [],
      "name": "ksdRefundManager",
      "outputs": [
        {
          "internalType": "contract IKsdRefundManager",
          "name": "",
          "type": "address"
        }
      ],
      "stateMutability": "view",
      "type": "function"
    },
    {
      "inputs": [],
      "name": "ksdRewardManager",
      "outputs": [
        {
          "internalType": "contract IDistributor",
          "name": "",
          "type": "address"
        }
      ],
      "stateMutability": "view",
      "type": "function"
    },
    {
      "inputs": [],
      "name": "ledger",
      "outputs": [
        {
          "internalType": "contract ILedger",
          "name": "",
          "type": "address"
        }
      ],
      "stateMutability": "view",
      "type": "function"
    },
    {
      "inputs": [
        {
          "internalType": "bytes32",
          "name": "collateralType",
          "type": "bytes32"
        },
        {
          "internalType": "uint256",
          "name": "earnedKsdAmount",
          "type": "uint256"
        }
      ],
      "name": "manageProfit",
      "outputs": [],
      "stateMutability": "nonpayable",
      "type": "function"
    },
    {
      "inputs": [],
      "name": "pause",
      "outputs": [],
      "stateMutability": "nonpayable",
      "type": "function"
    },
    {
      "inputs": [],
      "name": "paused",
      "outputs": [
        {
          "internalType": "bool",
          "name": "",
          "type": "bool"
        }
      ],
      "stateMutability": "view",
      "type": "function"
    },
    {
      "inputs": [
        {
          "internalType": "bytes32",
          "name": "",
          "type": "bytes32"
        }
      ],
      "name": "prevCursor",
      "outputs": [
        {
          "internalType": "uint256",
          "name": "",
          "type": "uint256"
        }
      ],
      "stateMutability": "view",
      "type": "function"
    },
    {
      "inputs": [
        {
          "internalType": "bytes32",
          "name": "",
          "type": "bytes32"
        },
        {
          "internalType": "uint256",
          "name": "",
          "type": "uint256"
        }
      ],
      "name": "record",
      "outputs": [
        {
          "internalType": "uint256",
          "name": "accYieldApr",
          "type": "uint256"
        },
        {
          "internalType": "uint256",
          "name": "accEarnedKsdAmount",
          "type": "uint256"
        },
        {
          "internalType": "uint256",
          "name": "accRefundedKsdAmount",
          "type": "uint256"
        },
        {
          "internalType": "uint256",
          "name": "accStabilityFeeKsdAmount",
          "type": "uint256"
        },
        {
          "internalType": "uint256",
          "name": "accTargetKsdAmount",
          "type": "uint256"
        },
        {
          "internalType": "uint256",
          "name": "totalLoan",
          "type": "uint256"
        },
        {
          "internalType": "uint256",
          "name": "rate",
          "type": "uint256"
        },
        {
          "internalType": "uint256",
          "name": "timestamp",
          "type": "uint256"
        }
      ],
      "stateMutability": "view",
      "type": "function"
    },
    {
      "inputs": [
        {
          "internalType": "bytes32",
          "name": "collateralType",
          "type": "bytes32"
        }
      ],
      "name": "recordLength",
      "outputs": [
        {
          "internalType": "uint256",
          "name": "",
          "type": "uint256"
        }
      ],
      "stateMutability": "view",
      "type": "function"
    },
    {
      "inputs": [
        {
          "internalType": "bytes32",
          "name": "role",
          "type": "bytes32"
        },
        {
          "internalType": "address",
          "name": "account",
          "type": "address"
        }
      ],
      "name": "renounceRole",
      "outputs": [],
      "stateMutability": "nonpayable",
      "type": "function"
    },
    {
      "inputs": [
        {
          "internalType": "bytes32",
          "name": "role",
          "type": "bytes32"
        },
        {
          "internalType": "address",
          "name": "account",
          "type": "address"
        }
      ],
      "name": "revokeRole",
      "outputs": [],
      "stateMutability": "nonpayable",
      "type": "function"
    },
    {
      "inputs": [
        {
          "internalType": "bytes32",
          "name": "collateralType",
          "type": "bytes32"
        },
        {
          "internalType": "uint256",
          "name": "earnedKsdAmount",
          "type": "uint256"
        },
        {
          "internalType": "uint256",
          "name": "refundedKsdAmount",
          "type": "uint256"
        },
        {
          "internalType": "uint256",
          "name": "stabilityFeeKsdAmount",
          "type": "uint256"
        },
        {
          "internalType": "uint256",
          "name": "targetKsdAmount",
          "type": "uint256"
        }
      ],
      "name": "saveRecord",
      "outputs": [],
      "stateMutability": "nonpayable",
      "type": "function"
    },
    {
      "inputs": [
        {
          "internalType": "bytes32",
          "name": "collateralType",
          "type": "bytes32"
        },
        {
          "internalType": "address",
          "name": "yieldFactory_",
          "type": "address"
        }
      ],
      "name": "setYieldFactory",
      "outputs": [],
      "stateMutability": "nonpayable",
      "type": "function"
    },
    {
      "inputs": [],
      "name": "stabilityFeeCollector",
      "outputs": [
        {
          "internalType": "contract IStabilityFeeCollector",
          "name": "",
          "type": "address"
        }
      ],
      "stateMutability": "view",
      "type": "function"
    },
    {
      "inputs": [
        {
          "internalType": "address",
          "name": "newOwner",
          "type": "address"
        }
      ],
      "name": "transferOwnership",
      "outputs": [],
      "stateMutability": "nonpayable",
      "type": "function"
    },
    {
      "inputs": [],
      "name": "unpause",
      "outputs": [],
      "stateMutability": "nonpayable",
      "type": "function"
    },
    {
      "inputs": [
        {
          "internalType": "bytes32",
          "name": "collateralType",
          "type": "bytes32"
        }
      ],
      "name": "updateCursor",
      "outputs": [],
      "stateMutability": "nonpayable",
      "type": "function"
    },
    {
      "inputs": [
        {
          "internalType": "bytes32",
          "name": "",
          "type": "bytes32"
        }
      ],
      "name": "yieldFactory",
      "outputs": [
        {
          "internalType": "address",
          "name": "",
          "type": "address"
        }
      ],
      "stateMutability": "view",
      "type": "function"
    }
  ],
  "transactionHash": "0xe52d87afb8fceb6683760c502fec72546b651671463b008182541e909535ce1b",
  "args": [],
  "solcInputHash": "59b3178729d48a8bf41b8d0457067762",
  "bytecode": "0x608060405234801561001057600080fd5b50611fda806100206000396000f3fe608060405234801561001057600080fd5b50600436106101a95760003560e01c80638456cb59116100f9578063d090e67611610097578063eae1c14d11610071578063eae1c14d146103bb578063ed1f87dd146103ce578063f2fde38b146103e1578063fceb239c146103f4576101a9565b8063d090e67614610382578063d366f3b914610395578063d547741f146103a8576101a9565b8063a6d5f103116100d3578063a6d5f10314610329578063b4cbe3961461033c578063c9251be41461035c578063d05f70711461036f576101a9565b80638456cb591461030657806391d148541461030e578063a217fddf14610321576101a9565b806336568abe1161016657806356397c351161014057806356397c35146102b65780635c975abb146102c957806367414102146102e057806371ccecb6146102f3576101a9565b806336568abe1461025a5780633a45095b1461026d5780633f4ba83a146102ae576101a9565b80630e34ac4e146101ae5780630f5bcc72146101c957806318c9d00b14610217578063248a9ca3146102215780632f2ff15d1461023457806332ad61dd14610247575b600080fd5b6101b6610414565b6040519081526020015b60405180910390f35b6101dc6101d7366004611dd1565b61042d565b604080519889526020890197909752958701949094526060860192909252608085015260a084015260c083015260e0820152610100016101c0565b61021f610492565b005b6101b661022f366004611d8e565b610519565b61021f610242366004611da6565b610532565b61021f610255366004611d8e565b610554565b61021f610268366004611da6565b6106d0565b61029661027b366004611d8e565b6003602052600090815260409020546001600160a01b031681565b6040516001600160a01b0390911681526020016101c0565b61021f61074e565b600654610296906001600160a01b031681565b60025460ff165b60405190151581526020016101c0565b6101b66102ee366004611d8e565b6107ec565b600a54610296906001600160a01b031681565b61021f610999565b6102d061031c366004611da6565b610a0d565b6101b6600081565b600754610296906001600160a01b031681565b6101b661034a366004611d8e565b60009081526004602052604090205490565b61021f61036a366004611da6565b610a3a565b600954610296906001600160a01b031681565b600854610296906001600160a01b031681565b61021f6103a3366004611da6565b610a7a565b61021f6103b6366004611da6565b610bf9565b61021f6103c9366004611dd1565b610c16565b61021f6103dc366004611df2565b611544565b61021f6103ef366004611d54565b6118b7565b6101b6610402366004611d8e565b60056020526000908152604090205481565b600080610427636b6c617960e01b6107ec565b91505090565b6004602052816000526040600020818154811061044957600080fd5b9060005260206000209060080201600091509150508060000154908060010154908060020154908060030154908060040154908060050154908060060154908060070154905088565b600054610100900460ff16806104a75750303b155b806104b5575060005460ff16155b6104da5760405162461bcd60e51b81526004016104d190611eb7565b60405180910390fd5b600054610100900460ff161580156104fc576000805461ffff19166101011790555b6105046118ed565b8015610516576000805461ff00191690555b50565b600081815260016020819052604090912001545b919050565b61053b82610519565b6105458133611984565b61054f83836119e8565b505050565b60025460ff16156105775760405162461bcd60e51b81526004016104d190611e8d565b6000818152600460205260409020805460018111610596575050610516565b6000826105a4600184611f5c565b815481106105c257634e487b7160e01b600052603260045260246000fd5b600091825260208083206040805161010081018252600890940290910180548452600181015484840152600281015484830152600381015460608501526004810154608085015260058082015460a0860152600682015460c086015260079091015460e085015288855290915290912054909150805b610643826064611f05565b8110156106ba57611c208360e0015161065c9190611f5c565b85610668836001611f05565b8154811061068657634e487b7160e01b600052603260045260246000fd5b90600052602060002090600802016007015410156106a3576106a8565b6106ba565b806106b281611f73565b915050610638565b6000868152600560205260409020555050505050565b6001600160a01b03811633146107405760405162461bcd60e51b815260206004820152602f60248201527f416363657373436f6e74726f6c3a2063616e206f6e6c792072656e6f756e636560448201526e103937b632b9903337b91039b2b63360891b60648201526084016104d1565b61074a8282611a53565b5050565b60025460ff166107975760405162461bcd60e51b815260206004820152601460248201527314185d5cd8589b194e881b9bdd081c185d5cd95960621b60448201526064016104d1565b653830bab9b2b960d11b6107ab8133611984565b6002805460ff191690556040513381527f5db9ee0a495bf2e6ff9c91a7834c1ba4fdd244a5e8aa4e537bd38aeae4b073aa906020015b60405180910390a150565b6000818152600460205260408120805460011061080d57600091505061052d565b8054600090829061082090600190611f5c565b8154811061083e57634e487b7160e01b600052603260045260246000fd5b600091825260208083206040805161010081018252600890940290910180548452600181015484840152600281015484830152600381015460608501526004810154608085015260058082015460a0860152600682015460c086015260079091015460e08501528885529091528220548454919350849181106108d157634e487b7160e01b600052603260045260246000fd5b90600052602060002090600802016040518061010001604052908160008201548152602001600182015481526020016002820154815260200160038201548152602001600482015481526020016005820154815260200160068201548152602001600782015481525050905060008260e00151111580610953575060e0810151155b15610964576000935050505061052d565b8060e001518260e001516109789190611f5c565b815183516109869190611f5c565b6109909190611f1d565b95945050505050565b60025460ff16156109bc5760405162461bcd60e51b81526004016104d190611e8d565b653830bab9b2b960d11b6109d08133611984565b6002805460ff191660011790556040513381527f62e78cea01bee320cd4e420270b5ea74000d11b0c9f74754ebdbfc544b05a258906020016107e1565b60008281526001602090815260408083206001600160a01b038516845290915290205460ff165b92915050565b610a4c6430b236b4b760d91b33611984565b60009182526003602052604090912080546001600160a01b0319166001600160a01b03909216919091179055565b610a8c6437bbb732b960d91b33611984565b81653632b233b2b960d11b1415610abd57600680546001600160a01b0319166001600160a01b03831617905561074a565b81621adcd960ea1b1415610aeb57600780546001600160a01b0319166001600160a01b03831617905561074a565b817439ba30b134b634ba3ca332b2a1b7b63632b1ba37b960591b1415610b2b57600880546001600160a01b0319166001600160a01b03831617905561074a565b816f35b9b22932bbb0b93226b0b730b3b2b960811b1415610b6657600980546001600160a01b0319166001600160a01b03831617905561074a565b816f35b9b22932b33ab73226b0b730b3b2b960811b1415610ba157600a80546001600160a01b0319166001600160a01b03831617905561074a565b60405162461bcd60e51b815260206004820152602760248201527f5969656c644d616e616765723a3a636f6e6669673a756e7265636f676e697a65604482015266642d706172616d60c81b60648201526084016104d1565b610c0282610519565b610c0c8133611984565b61054f8383611a53565b610c286430b236b4b760d91b33611984565b60025460ff1615610c4b5760405162461bcd60e51b81526004016104d190611e8d565b6007546040516323b872dd60e01b8152336004820152306024820152604481018390526001600160a01b03909116906323b872dd90606401602060405180830381600087803b158015610c9d57600080fd5b505af1158015610cb1573d6000803e3d6000fd5b505050506040513d601f19601f82011682018060405250810190610cd59190611d6e565b50636b6c617960e01b821415610ddf5760075460095460405163095ea7b360e01b81526001600160a01b0391821660048201526024810184905291169063095ea7b390604401602060405180830381600087803b158015610d3557600080fd5b505af1158015610d49573d6000803e3d6000fd5b505050506040513d601f19601f82011682018060405250810190610d6d9190611d6e565b506009546040516391c05b0b60e01b8152600481018390526001600160a01b03909116906391c05b0b90602401600060405180830381600087803b158015610db457600080fd5b505af1158015610dc8573d6000803e3d6000fd5b50505050610dda828260008085611544565b61074a565b600654604051637d5422a760e01b81526004810184905260009182916001600160a01b0390911690637d5422a79060240160c06040518083038186803b158015610e2857600080fd5b505afa158015610e3c573d6000803e3d6000fd5b505050506040513d601f19601f82011682018060405250810190610e609190611e44565b50505060008781526004602052604090208054929550909350915060011115610fdf5760075460095460405163095ea7b360e01b81526001600160a01b0391821660048201526024810187905291169063095ea7b390604401602060405180830381600087803b158015610ed357600080fd5b505af1158015610ee7573d6000803e3d6000fd5b505050506040513d601f19601f82011682018060405250810190610f0b9190611d6e565b506009546040516391c05b0b60e01b8152600481018690526001600160a01b03909116906391c05b0b90602401600060405180830381600087803b158015610f5257600080fd5b505af1158015610f66573d6000803e3d6000fd5b5050600854604051637b66492160e11b8152600481018990526001600160a01b03909116925063f6cc92429150602401600060405180830381600087803b158015610fb057600080fd5b505af1158015610fc4573d6000803e3d6000fd5b50505050610fd785856000806000611544565b50505061074a565b80546000908290610ff290600190611f5c565b8154811061101057634e487b7160e01b600052603260045260246000fd5b600091825260208083206040805161010081018252600890940290910180548452600181015484840152600281015484830152600381015460608501526004810154608085015260058082015460a0860152600682015460c086015260079091015460e08501528a85529091528220548454919350849181106110a357634e487b7160e01b600052603260045260246000fd5b9060005260206000209060080201604051806101000160405290816000820154815260200160018201548152602001600282015481526020016003820154815260200160048201548152602001600582015481526020016006820154815260200160078201548152505090506000806000808560e00151426111259190611f5c565b905060006111448760c001518860a00151611aba90919063ffffffff16565b6008546040516324f3163560e01b8152600481018f90529192506000916001600160a01b03909116906324f316359060240160206040518083038186803b15801561118e57600080fd5b505afa1580156111a2573d6000803e3d6000fd5b505050506040513d601f19601f820116820180604052508101906111c69190611e2c565b90506111dc6111d58b83611f5c565b8c90611aba565b95506301e13380836111f66111ef610414565b8590611aba565b6112009190611f3d565b61120a9190611f1d565b9450505050600089856020015187602001516112269190611f5c565b6112309190611f05565b90506000856040015187604001516112489190611f5c565b9050600086606001518689606001516112619190611f05565b61126b9190611f5c565b905060008760800151868a608001516112849190611f05565b61128e9190611f5c565b905060008361129d8487611f05565b6112a79190611f5c565b9050818111156112ca576112bb8282611f5c565b95506112c7868f611b8e565b95505b5050600754600a5460405163095ea7b360e01b81526001600160a01b039182166004820152602481018790529116935063095ea7b392506044019050602060405180830381600087803b15801561132057600080fd5b505af1158015611334573d6000803e3d6000fd5b505050506040513d601f19601f820116820180604052508101906113589190611d6e565b506007546009546001600160a01b039182169163095ea7b3911661137c848d611f5c565b6040516001600160e01b031960e085901b1681526001600160a01b0390921660048301526024820152604401602060405180830381600087803b1580156113c257600080fd5b505af11580156113d6573d6000803e3d6000fd5b505050506040513d601f19601f820116820180604052508101906113fa9190611d6e565b50600a5460405163695eda1960e01b8152600481018c9052602481018390526001600160a01b039091169063695eda1990604401600060405180830381600087803b15801561144857600080fd5b505af115801561145c573d6000803e3d6000fd5b50506009546001600160a01b031691506391c05b0b905061147d838c611f5c565b6040518263ffffffff1660e01b815260040161149b91815260200190565b600060405180830381600087803b1580156114b557600080fd5b505af11580156114c9573d6000803e3d6000fd5b5050600854604051637b66492160e11b8152600481018e90526001600160a01b03909116925063f6cc92429150602401600060405180830381600087803b15801561151357600080fd5b505af1158015611527573d6000803e3d6000fd5b505050506115388a8a838686611544565b50505050505050505050565b6115566430b236b4b760d91b33611984565b60025460ff16156115795760405162461bcd60e51b81526004016104d190611e8d565b600654604051637d5422a760e01b81526004810187905260009182916001600160a01b0390911690637d5422a79060240160c06040518083038186803b1580156115c257600080fd5b505afa1580156115d6573d6000803e3d6000fd5b505050506040513d601f19601f820116820180604052508101906115fa9190611e44565b505050925092505060006b033b2e3c9fd0803ce8000000828461161d9190611f3d565b6116279190611f1d565b905060008111611639575050506118b0565b868686866000856116566b033b2e3c9fd0803ce800000087611f3d565b611664906301e13380611f3d565b61166e9190611f1d565b60008e81526004602052604090208054919250901561180d578054819061169790600190611f5c565b815481106116b557634e487b7160e01b600052603260045260246000fd5b906000526020600020906008020160000154826116d29190611f05565b815490925081906116e590600190611f5c565b8154811061170357634e487b7160e01b600052603260045260246000fd5b906000526020600020906008020160010154866117209190611f05565b8154909650819061173390600190611f5c565b8154811061175157634e487b7160e01b600052603260045260246000fd5b9060005260206000209060080201600201548561176e9190611f05565b8154909550819061178190600190611f5c565b8154811061179f57634e487b7160e01b600052603260045260246000fd5b906000526020600020906008020160030154846117bc9190611f05565b815490945081906117cf90600190611f5c565b815481106117ed57634e487b7160e01b600052603260045260246000fd5b9060005260206000209060080201600401548361180a9190611f05565b92505b60408051610100810182528381526020808201898152928201888152606083018881526080840188815260a085018f815260c086018f81524260e08801908152895460018181018c5560008c81529890982098516008909102909801978855975195870195909555925160028601559051600385015551600484015551600583015551600682015590516007909101556118a68e610554565b5050505050505050505b5050505050565b6118c96437bbb732b960d91b33611984565b6118db6437bbb732b960d91b826119e8565b6105166437bbb732b960d91b33611a53565b600054610100900460ff16806119025750303b155b80611910575060005460ff16155b61192c5760405162461bcd60e51b81526004016104d190611eb7565b600054610100900460ff1615801561194e576000805461ffff19166101011790555b611956611ba4565b611971653830bab9b2b960d11b6437bbb732b960d91b611c0d565b610504653830bab9b2b960d11b33611c62565b61198e8282610a0d565b61074a5760405162461bcd60e51b815260206004820152602560248201527f416363657373436f6e74726f6c3a5f636865636b526f6c653a696e76616c696460448201526420726f6c6560d81b60648201526084016104d1565b6119f28282610a0d565b61074a5760008281526001602081815260408084206001600160a01b0386168086529252808420805460ff19169093179092559051339285917f2f8788117e7eff1d82e926ec794901d17c78024a50270940304540a733656f0d9190a45050565b611a5d8282610a0d565b1561074a5760008281526001602090815260408083206001600160a01b0385168085529252808320805460ff1916905551339285917ff6391f5c32d9c69d2a47ea670b442974b53935d1edc7fd64eb21e047a839171b9190a45050565b6000821580611ac7575081155b15611ad457506000610a34565b81611aec60026b033b2e3c9fd0803ce8000000611f1d565b611af890600019611f5c565b611b029190611f1d565b831115611b515760405162461bcd60e51b815260206004820152601c60248201527f5761645261794d6174683a3a7261794d756c3a206f766572666c6f770000000060448201526064016104d1565b6b033b2e3c9fd0803ce8000000611b69600282611f1d565b611b738486611f3d565b611b7d9190611f05565b611b879190611f1d565b9392505050565b6000818310611b9d5781611b87565b5090919050565b600054610100900460ff1680611bb95750303b155b80611bc7575060005460ff16155b611be35760405162461bcd60e51b81526004016104d190611eb7565b600054610100900460ff16158015611c05576000805461ffff19166101011790555b610504611c6c565b6000611c1883610519565b6000848152600160208190526040808320909101859055519192508391839186917fbd79b86ffe0ab8e8776151514217cd7cacd52c909f66475c3af44e129f0b00ff9190a4505050565b61074a82826119e8565b600054610100900460ff1680611c815750303b155b80611c8f575060005460ff16155b611cab5760405162461bcd60e51b81526004016104d190611eb7565b600054610100900460ff16158015611ccd576000805461ffff19166101011790555b611cdf6437bbb732b960d91b33611c62565b611cf96430b236b4b760d91b6437bbb732b960d91b611c0d565b611d166737b832b930ba37b960c11b6437bbb732b960d91b611c0d565b611d286430b236b4b760d91b33611c62565b6105046737b832b930ba37b960c11b33611c62565b80356001600160a01b038116811461052d57600080fd5b600060208284031215611d65578081fd5b611b8782611d3d565b600060208284031215611d7f578081fd5b81518015158114611b87578182fd5b600060208284031215611d9f578081fd5b5035919050565b60008060408385031215611db8578081fd5b82359150611dc860208401611d3d565b90509250929050565b60008060408385031215611de3578182fd5b50508035926020909101359150565b600080600080600060a08688031215611e09578081fd5b505083359560208501359550604085013594606081013594506080013592509050565b600060208284031215611e3d578081fd5b5051919050565b60008060008060008060c08789031215611e5c578081fd5b865195506020870151945060408701519350606087015192506080870151915060a087015190509295509295509295565b60208082526010908201526f14185d5cd8589b194e881c185d5cd95960821b604082015260600190565b6020808252602e908201527f496e697469616c697a61626c653a20636f6e747261637420697320616c72656160408201526d191e481a5b9a5d1a585b1a5e995960921b606082015260800190565b60008219821115611f1857611f18611f8e565b500190565b600082611f3857634e487b7160e01b81526012600452602481fd5b500490565b6000816000190483118215151615611f5757611f57611f8e565b500290565b600082821015611f6e57611f6e611f8e565b500390565b6000600019821415611f8757611f87611f8e565b5060010190565b634e487b7160e01b600052601160045260246000fdfea26469706673582212206ac194019430341b0721af7699eeeaae7f9830b5449add3b766340c16049b15b64736f6c63430008030033",
  "devdoc": {
    "kind": "dev",
    "methods": {},
    "version": 1
  },
  "userdoc": {
    "kind": "user",
    "methods": {},
    "version": 1
  },
  "storageLayout": {
    "storage": [
      {
        "astId": 25013,
        "contract": "contracts/yield/YieldManager.sol:YieldManager",
        "label": "_initialized",
        "offset": 0,
        "slot": "0",
        "type": "t_bool"
      },
      {
        "astId": 25016,
        "contract": "contracts/yield/YieldManager.sol:YieldManager",
        "label": "_initializing",
        "offset": 1,
        "slot": "0",
        "type": "t_bool"
      },
      {
        "astId": 21959,
        "contract": "contracts/yield/YieldManager.sol:YieldManager",
        "label": "_roles",
        "offset": 0,
        "slot": "1",
        "type": "t_mapping(t_bytes32,t_struct(RoleData)21954_storage)"
      },
      {
        "astId": 22349,
        "contract": "contracts/yield/YieldManager.sol:YieldManager",
        "label": "_paused",
        "offset": 0,
        "slot": "2",
        "type": "t_bool"
      },
      {
        "astId": 44514,
        "contract": "contracts/yield/YieldManager.sol:YieldManager",
        "label": "yieldFactory",
        "offset": 0,
        "slot": "3",
        "type": "t_mapping(t_bytes32,t_address)"
      },
      {
        "astId": 44521,
        "contract": "contracts/yield/YieldManager.sol:YieldManager",
        "label": "record",
        "offset": 0,
        "slot": "4",
        "type": "t_mapping(t_bytes32,t_array(t_struct(YieldRecord)9712_storage)dyn_storage)"
      },
      {
        "astId": 44525,
        "contract": "contracts/yield/YieldManager.sol:YieldManager",
        "label": "prevCursor",
        "offset": 0,
        "slot": "5",
        "type": "t_mapping(t_bytes32,t_uint256)"
      },
      {
        "astId": 44528,
        "contract": "contracts/yield/YieldManager.sol:YieldManager",
        "label": "ledger",
        "offset": 0,
        "slot": "6",
        "type": "t_contract(ILedger)8858"
      },
      {
        "astId": 44531,
        "contract": "contracts/yield/YieldManager.sol:YieldManager",
        "label": "ksd",
        "offset": 0,
        "slot": "7",
        "type": "t_contract(IKIP7)9935"
      },
      {
        "astId": 44534,
        "contract": "contracts/yield/YieldManager.sol:YieldManager",
        "label": "stabilityFeeCollector",
        "offset": 0,
        "slot": "8",
        "type": "t_contract(IStabilityFeeCollector)9333"
      },
      {
        "astId": 44537,
        "contract": "contracts/yield/YieldManager.sol:YieldManager",
        "label": "ksdRewardManager",
        "offset": 0,
        "slot": "9",
        "type": "t_contract(IDistributor)7377"
      },
      {
        "astId": 44540,
        "contract": "contracts/yield/YieldManager.sol:YieldManager",
        "label": "ksdRefundManager",
        "offset": 0,
        "slot": "10",
        "type": "t_contract(IKsdRefundManager)8558"
      }
    ],
    "types": {
      "t_address": {
        "encoding": "inplace",
        "label": "address",
        "numberOfBytes": "20"
      },
      "t_array(t_struct(YieldRecord)9712_storage)dyn_storage": {
        "base": "t_struct(YieldRecord)9712_storage",
        "encoding": "dynamic_array",
        "label": "struct IYieldManager.YieldRecord[]",
        "numberOfBytes": "32"
      },
      "t_bool": {
        "encoding": "inplace",
        "label": "bool",
        "numberOfBytes": "1"
      },
      "t_bytes32": {
        "encoding": "inplace",
        "label": "bytes32",
        "numberOfBytes": "32"
      },
      "t_contract(IDistributor)7377": {
        "encoding": "inplace",
        "label": "contract IDistributor",
        "numberOfBytes": "20"
      },
      "t_contract(IKIP7)9935": {
        "encoding": "inplace",
        "label": "contract IKIP7",
        "numberOfBytes": "20"
      },
      "t_contract(IKsdRefundManager)8558": {
        "encoding": "inplace",
        "label": "contract IKsdRefundManager",
        "numberOfBytes": "20"
      },
      "t_contract(ILedger)8858": {
        "encoding": "inplace",
        "label": "contract ILedger",
        "numberOfBytes": "20"
      },
      "t_contract(IStabilityFeeCollector)9333": {
        "encoding": "inplace",
        "label": "contract IStabilityFeeCollector",
        "numberOfBytes": "20"
      },
      "t_mapping(t_address,t_bool)": {
        "encoding": "mapping",
        "key": "t_address",
        "label": "mapping(address => bool)",
        "numberOfBytes": "32",
        "value": "t_bool"
      },
      "t_mapping(t_bytes32,t_address)": {
        "encoding": "mapping",
        "key": "t_bytes32",
        "label": "mapping(bytes32 => address)",
        "numberOfBytes": "32",
        "value": "t_address"
      },
      "t_mapping(t_bytes32,t_array(t_struct(YieldRecord)9712_storage)dyn_storage)": {
        "encoding": "mapping",
        "key": "t_bytes32",
        "label": "mapping(bytes32 => struct IYieldManager.YieldRecord[])",
        "numberOfBytes": "32",
        "value": "t_array(t_struct(YieldRecord)9712_storage)dyn_storage"
      },
      "t_mapping(t_bytes32,t_struct(RoleData)21954_storage)": {
        "encoding": "mapping",
        "key": "t_bytes32",
        "label": "mapping(bytes32 => struct AccessControl.RoleData)",
        "numberOfBytes": "32",
        "value": "t_struct(RoleData)21954_storage"
      },
      "t_mapping(t_bytes32,t_uint256)": {
        "encoding": "mapping",
        "key": "t_bytes32",
        "label": "mapping(bytes32 => uint256)",
        "numberOfBytes": "32",
        "value": "t_uint256"
      },
      "t_struct(RoleData)21954_storage": {
        "encoding": "inplace",
        "label": "struct AccessControl.RoleData",
        "members": [
          {
            "astId": 21951,
            "contract": "contracts/yield/YieldManager.sol:YieldManager",
            "label": "members",
            "offset": 0,
            "slot": "0",
            "type": "t_mapping(t_address,t_bool)"
          },
          {
            "astId": 21953,
            "contract": "contracts/yield/YieldManager.sol:YieldManager",
            "label": "adminRole",
            "offset": 0,
            "slot": "1",
            "type": "t_bytes32"
          }
        ],
        "numberOfBytes": "64"
      },
      "t_struct(YieldRecord)9712_storage": {
        "encoding": "inplace",
        "label": "struct IYieldManager.YieldRecord",
        "members": [
          {
            "astId": 9697,
            "contract": "contracts/yield/YieldManager.sol:YieldManager",
            "label": "accYieldApr",
            "offset": 0,
            "slot": "0",
            "type": "t_uint256"
          },
          {
            "astId": 9699,
            "contract": "contracts/yield/YieldManager.sol:YieldManager",
            "label": "accEarnedKsdAmount",
            "offset": 0,
            "slot": "1",
            "type": "t_uint256"
          },
          {
            "astId": 9701,
            "contract": "contracts/yield/YieldManager.sol:YieldManager",
            "label": "accRefundedKsdAmount",
            "offset": 0,
            "slot": "2",
            "type": "t_uint256"
          },
          {
            "astId": 9703,
            "contract": "contracts/yield/YieldManager.sol:YieldManager",
            "label": "accStabilityFeeKsdAmount",
            "offset": 0,
            "slot": "3",
            "type": "t_uint256"
          },
          {
            "astId": 9705,
            "contract": "contracts/yield/YieldManager.sol:YieldManager",
            "label": "accTargetKsdAmount",
            "offset": 0,
            "slot": "4",
            "type": "t_uint256"
          },
          {
            "astId": 9707,
            "contract": "contracts/yield/YieldManager.sol:YieldManager",
            "label": "totalLoan",
            "offset": 0,
            "slot": "5",
            "type": "t_uint256"
          },
          {
            "astId": 9709,
            "contract": "contracts/yield/YieldManager.sol:YieldManager",
            "label": "rate",
            "offset": 0,
            "slot": "6",
            "type": "t_uint256"
          },
          {
            "astId": 9711,
            "contract": "contracts/yield/YieldManager.sol:YieldManager",
            "label": "timestamp",
            "offset": 0,
            "slot": "7",
            "type": "t_uint256"
          }
        ],
        "numberOfBytes": "256"
      },
      "t_uint256": {
        "encoding": "inplace",
        "label": "uint256",
        "numberOfBytes": "32"
      }
    }
  }
}